{
	"contracts/kzgVerifier.sol": {
		"Verifier": {
			"abi": [
				{
					"constant": true,
					"inputs": [
						{
							"name": "coefficients",
							"type": "uint256[]"
						}
					],
					"name": "commit",
					"outputs": [
						{
							"components": [
								{
									"name": "X",
									"type": "uint256"
								},
								{
									"name": "Y",
									"type": "uint256"
								}
							],
							"name": "",
							"type": "tuple"
						}
					],
					"payable": false,
					"stateMutability": "view",
					"type": "function"
				},
				{
					"constant": true,
					"inputs": [
						{
							"components": [
								{
									"name": "X",
									"type": "uint256"
								},
								{
									"name": "Y",
									"type": "uint256"
								}
							],
							"name": "_commitment",
							"type": "tuple"
						},
						{
							"components": [
								{
									"name": "X",
									"type": "uint256[2]"
								},
								{
									"name": "Y",
									"type": "uint256[2]"
								}
							],
							"name": "_proof",
							"type": "tuple"
						},
						{
							"name": "_indices",
							"type": "uint256[]"
						},
						{
							"name": "_values",
							"type": "uint256[]"
						},
						{
							"name": "_iCoeffs",
							"type": "uint256[]"
						},
						{
							"name": "_zCoeffs",
							"type": "uint256[]"
						}
					],
					"name": "verifyMulti",
					"outputs": [
						{
							"name": "",
							"type": "bool"
						}
					],
					"payable": false,
					"stateMutability": "view",
					"type": "function"
				},
				{
					"constant": true,
					"inputs": [
						{
							"components": [
								{
									"name": "X",
									"type": "uint256"
								},
								{
									"name": "Y",
									"type": "uint256"
								}
							],
							"name": "_commitment",
							"type": "tuple"
						},
						{
							"components": [
								{
									"name": "X",
									"type": "uint256"
								},
								{
									"name": "Y",
									"type": "uint256"
								}
							],
							"name": "_proof",
							"type": "tuple"
						},
						{
							"name": "_index",
							"type": "uint256"
						},
						{
							"name": "_value",
							"type": "uint256"
						}
					],
					"name": "verify",
					"outputs": [
						{
							"name": "",
							"type": "bool"
						}
					],
					"payable": false,
					"stateMutability": "view",
					"type": "function"
				},
				{
					"constant": true,
					"inputs": [
						{
							"name": "_coefficients",
							"type": "uint256[]"
						},
						{
							"name": "_index",
							"type": "uint256"
						}
					],
					"name": "evalPolyAt",
					"outputs": [
						{
							"name": "",
							"type": "uint256"
						}
					],
					"payable": false,
					"stateMutability": "view",
					"type": "function"
				}
			],
			"devdoc": {
				"methods": {}
			},
			"evm": {
				"assembly": "    /* \"contracts/kzgVerifier.sol\":232:9809  contract Verifier is Constants {\r... */\n  mstore(0x40, 0x80)\n    /* \"contracts/Constants.sol\":1289:12411  uint256[] SRS_G1_X = [\r... */\n  0x1020\n  mload(0x40)\n  swap1\n  dup2\n  add\n  0x40\n  mstore\n  dup1\n    /* \"contracts/Constants.sol\":1329:1395  0x0000000000000000000000000000000000000000000000000000000000000001 */\n  0x1\n    /* \"contracts/Constants.sol\":1289:12411  uint256[] SRS_G1_X = [\r... */\n  dup2\n  mstore\n  0x20\n  add\n    /* \"contracts/Constants.sol\":1415:1481  0x1bf32ccf9d8606f2a32624586c10380aa3d12ecd1f0b53f277df6e74c2f8652e */\n  0x1bf32ccf9d8606f2a32624586c10380aa3d12ecd1f0b53f277df6e74c2f8652e\n    /* \"contracts/Constants.sol\":1289:12411  uint256[] SRS_G1_X = [\r... */\n  dup2\n  mstore\n  0x20\n  add\n    /* \"contracts/Constants.sol\":1501:1567  0x0e401b101716cb5ef95e29e150c1829a179e9d89167205f23593fb8161d085e8 */\n  0xe401b101716cb5ef95e29e150c1829a179e9d89167205f23593fb8161d085e8\n    /* \"contracts/Constants.sol\":1289:12411  uint256[] SRS_G1_X = [\r... */\n  dup2\n  mstore\n  0x20\n  add\n    /* \"contracts/Constants.sol\":1587:1653  0x22f09c6d02082455b418cabcaed2f8113ffcba593c346f30d07236308baf24c9 */\n  0x22f09c6d02082455b418cabcaed2f8113ffcba593c346f30d07236308baf24c9\n    /* \"contracts/Constants.sol\":1289:12411  uint256[] SRS_G1_X = [\r... */\n  dup2\n  mstore\n  0x20\n  add\n    /* \"contracts/Constants.sol\":1673:1739  0x24552bc00dda4d440e1e35ca9550675fdb5e422f6e12c52dfdceb516f4bbbc5b */\n  0x24552bc00dda4d440e1e35ca9550675fdb5e422f6e12c52dfdceb516f4bbbc5b\n    /* \"contracts/Constants.sol\":1289:12411  uint256[] SRS_G1_X = [\r... */\n  dup2\n  mstore\n  0x20\n  add\n    /* \"contracts/Constants.sol\":1759:1825  0x1a84f51d9cb05c0db0980d32ca62f20f7bc4e554360a38f2bb0abcf399b2ece1 */\n  0x1a84f51d9cb05c0db0980d32ca62f20f7bc4e554360a38f2bb0abcf399b2ece1\n    /* \"contracts/Constants.sol\":1289:12411  uint256[] SRS_G1_X = [\r... */\n  dup2\n  mstore\n  0x20\n  add\n    /* \"contracts/Constants.sol\":1845:1911  0x2ac6d41b3693a672fe527dc1d035c5c6a597be706d054f9f4fbbcc357257b764 */\n  0x2ac6d41b3693a672fe527dc1d035c5c6a597be706d054f9f4fbbcc357257b764\n    /* \"contracts/Constants.sol\":1289:12411  uint256[] SRS_G1_X = [\r... */\n  dup2\n  mstore\n  0x20\n  add\n    /* \"contracts/Constants.sol\":1931:1997  0x1570df0052502e9249110efe0d85d3292947918851d9c4b34906ea8a73d96722 */\n  0x1570df0052502e9249110efe0d85d3292947918851d9c4b34906ea8a73d96722\n    /* \"contracts/Constants.sol\":1289:12411  uint256[] SRS_G1_X = [\r... */\n  dup2\n  mstore\n  0x20\n  add\n    /* \"contracts/Constants.sol\":2017:2083  0x2386350d374d88f78cf0ef5ca5777ecb83a5a212eaa69cd548ccc7cfc80c3676 */\n  0x2386350d374d88f78cf0ef5ca5777ecb83a5a212eaa69cd548ccc7cfc80c3676\n    /* \"contracts/Constants.sol\":1289:12411  uint256[] SRS_G1_X = [\r... */\n  dup2\n  mstore\n  0x20\n  add\n    /* \"contracts/Constants.sol\":2103:2169  0x208605b0745f360d5dd002858ee8ea2d5a25dc49b813598036b80a37f6db710e */\n  0x208605b0745f360d5dd002858ee8ea2d5a25dc49b813598036b80a37f6db710e\n    /* \"contracts/Constants.sol\":1289:12411  uint256[] SRS_G1_X = [\r... */\n  dup2\n  mstore\n  0x20\n  add\n    /* \"contracts/Constants.sol\":2189:2255  0x27195ac6c913159058be75f4375a6f961b52a835957e91978739257c8e5619e2 */\n  0x27195ac6c913159058be75f4375a6f961b52a835957e91978739257c8e5619e2\n    /* \"contracts/Constants.sol\":1289:12411  uint256[] SRS_G1_X = [\r... */\n  dup2\n  mstore\n  0x20\n  add\n    /* \"contracts/Constants.sol\":2275:2341  0x22059de91334bc1f7e6655ec5121c2404dafc569532786053c0201792c1f6e4e */\n  0x22059de91334bc1f7e6655ec5121c2404dafc569532786053c0201792c1f6e4e\n    /* \"contracts/Constants.sol\":1289:12411  uint256[] SRS_G1_X = [\r... */\n  dup2\n  mstore\n  0x20\n  add\n    /* \"contracts/Constants.sol\":2361:2427  0x1e0d393cdaeb633260281cda7418605605f7e4bfff89253e6cac0112326af213 */\n  0x1e0d393cdaeb633260281cda7418605605f7e4bfff89253e6cac0112326af213\n    /* \"contracts/Constants.sol\":1289:12411  uint256[] SRS_G1_X = [\r... */\n  dup2\n  mstore\n  0x20\n  add\n    /* \"contracts/Constants.sol\":2447:2513  0x2bdfc801ecc7f983de4dda8ac3c2075f80f213239d6ecbeb79f747aae080b807 */\n  0x2bdfc801ecc7f983de4dda8ac3c2075f80f213239d6ecbeb79f747aae080b807\n    /* \"contracts/Constants.sol\":1289:12411  uint256[] SRS_G1_X = [\r... */\n  dup2\n  mstore\n  0x20\n  add\n    /* \"contracts/Constants.sol\":2533:2599  0x16ac41a2e17d188680abfa742f3cdc0fd5e6809a8dc2f1cafa4cf7394019ef84 */\n  0x16ac41a2e17d188680abfa742f3cdc0fd5e6809a8dc2f1cafa4cf7394019ef84\n    /* \"contracts/Constants.sol\":1289:12411  uint256[] SRS_G1_X = [\r... */\n  dup2\n  mstore\n  0x20\n  add\n    /* \"contracts/Constants.sol\":2619:2685  0x1cc81ba066276c0443b0132009a93a4ca2c2a8075c32d2c14a51f200b5676664 */\n  0x1cc81ba066276c0443b0132009a93a4ca2c2a8075c32d2c14a51f200b5676664\n    /* \"contracts/Constants.sol\":1289:12411  uint256[] SRS_G1_X = [\r... */\n  dup2\n  mstore\n  0x20\n  add\n    /* \"contracts/Constants.sol\":2705:2771  0x11fe53a734fd48ac9417cad9a5c66cffd10c5a128214b703096b85f2bb18b22c */\n  0x11fe53a734fd48ac9417cad9a5c66cffd10c5a128214b703096b85f2bb18b22c\n    /* \"contracts/Constants.sol\":1289:12411  uint256[] SRS_G1_X = [\r... */\n  dup2\n  mstore\n  0x20\n  add\n    /* \"contracts/Constants.sol\":2791:2857  0x238b4bb70fd225fc36a4891eb6dbaee0f3c796015c63c8046a7ca92e24200e4c */\n  0x238b4bb70fd225fc36a4891eb6dbaee0f3c796015c63c8046a7ca92e24200e4c\n    /* \"contracts/Constants.sol\":1289:12411  uint256[] SRS_G1_X = [\r... */\n  dup2\n  mstore\n  0x20\n  add\n    /* \"contracts/Constants.sol\":2877:2943  0x0f00ce493a4cb4f877cf7ccabb82b70489e13a1ac9e09e95818b5ada65a9b17d */\n  0xf00ce493a4cb4f877cf7ccabb82b70489e13a1ac9e09e95818b5ada65a9b17d\n    /* \"contracts/Constants.sol\":1289:12411  uint256[] SRS_G1_X = [\r... */\n  dup2\n  mstore\n  0x20\n  add\n    /* \"contracts/Constants.sol\":2963:3029  0x0ff956a105a57dc1729ba78baeeefcaa5ab3570f7597a0c5247f71c963065942 */\n  0xff956a105a57dc1729ba78baeeefcaa5ab3570f7597a0c5247f71c963065942\n    /* \"contracts/Constants.sol\":1289:12411  uint256[] SRS_G1_X = [\r... */\n  dup2\n  mstore\n  0x20\n  add\n    /* \"contracts/Constants.sol\":3049:3115  0x29af6597a5d726baba2ba5dd507007fc439dfb891a92a9b2e7d72b33007dc7d2 */\n  0x29af6597a5d726baba2ba5dd507007fc439dfb891a92a9b2e7d72b33007dc7d2\n    /* \"contracts/Constants.sol\":1289:12411  uint256[] SRS_G1_X = [\r... */\n  dup2\n  mstore\n  0x20\n  add\n    /* \"contracts/Constants.sol\":3135:3201  0x119cfc13c92f5cc18fccdd5135fdef1524c304f1ddadfcbb576dca340d61a9bf */\n  0x119cfc13c92f5cc18fccdd5135fdef1524c304f1ddadfcbb576dca340d61a9bf\n    /* \"contracts/Constants.sol\":1289:12411  uint256[] SRS_G1_X = [\r... */\n  dup2\n  mstore\n  0x20\n  add\n    /* \"contracts/Constants.sol\":3221:3287  0x03a622b55ee067a5690d9d68e9ba6395daa93038e79db4d016db89e043e7ec31 */\n  0x3a622b55ee067a5690d9d68e9ba6395daa93038e79db4d016db89e043e7ec31\n    /* \"contracts/Constants.sol\":1289:12411  uint256[] SRS_G1_X = [\r... */\n  dup2\n  mstore\n  0x20\n  add\n    /* \"contracts/Constants.sol\":3307:3373  0x255a1b1192634ef28388ca22f39112446ba8918cade9a8a3c3486382fddb263b */\n  0x255a1b1192634ef28388ca22f39112446ba8918cade9a8a3c3486382fddb263b\n    /* \"contracts/Constants.sol\":1289:12411  uint256[] SRS_G1_X = [\r... */\n  dup2\n  mstore\n  0x20\n  add\n    /* \"contracts/Constants.sol\":3393:3459  0x14cab6382b88a5c74e478258b8a41d93dc6d34e062c0d03af106233ea4b42608 */\n  0x14cab6382b88a5c74e478258b8a41d93dc6d34e062c0d03af106233ea4b42608\n    /* \"contracts/Constants.sol\":1289:12411  uint256[] SRS_G1_X = [\r... */\n  dup2\n  mstore\n  0x20\n  add\n    /* \"contracts/Constants.sol\":3479:3545  0x13cb22e8c6b65dbf32e8f038c03ae1c77aa44c1424b3f876d8ca3e195e6e7d07 */\n  0x13cb22e8c6b65dbf32e8f038c03ae1c77aa44c1424b3f876d8ca3e195e6e7d07\n    /* \"contracts/Constants.sol\":1289:12411  uint256[] SRS_G1_X = [\r... */\n  dup2\n  mstore\n  0x20\n  add\n    /* \"contracts/Constants.sol\":3565:3631  0x067acbdc712d30c05b5fa85bd5b18418c4a17804f15e71e2e03ebb51476965d1 */\n  0x67acbdc712d30c05b5fa85bd5b18418c4a17804f15e71e2e03ebb51476965d1\n    /* \"contracts/Constants.sol\":1289:12411  uint256[] SRS_G1_X = [\r... */\n  dup2\n  mstore\n  0x20\n  add\n    /* \"contracts/Constants.sol\":3651:3717  0x29e4d65b0a80bd6ebf2cd78148e9ed379c11c583f7050da7d53031a5afe1cc24 */\n  0x29e4d65b0a80bd6ebf2cd78148e9ed379c11c583f7050da7d53031a5afe1cc24\n    /* \"contracts/Constants.sol\":1289:12411  uint256[] SRS_G1_X = [\r... */\n  dup2\n  mstore\n  0x20\n  add\n    /* \"contracts/Constants.sol\":3737:3803  0x051ec195df86c4f79cfe7ba118d3b31bcc957b18023c3b967449e213452a988e */\n  0x51ec195df86c4f79cfe7ba118d3b31bcc957b18023c3b967449e213452a988e\n    /* \"contracts/Constants.sol\":1289:12411  uint256[] SRS_G1_X = [\r... */\n  dup2\n  mstore\n  0x20\n  add\n    /* \"contracts/Constants.sol\":3823:3889  0x17b09046f4253a9f49b346a94fad379b0a08b4bdaf9315b76c6aa6c83bfdc41e */\n  0x17b09046f4253a9f49b346a94fad379b0a08b4bdaf9315b76c6aa6c83bfdc41e\n    /* \"contracts/Constants.sol\":1289:12411  uint256[] SRS_G1_X = [\r... */\n  dup2\n  mstore\n  0x20\n  add\n    /* \"contracts/Constants.sol\":3909:3975  0x12189be11dc6defdf120cad99f984659604633197c304cd68934a8b9d9418716 */\n  0x12189be11dc6defdf120cad99f984659604633197c304cd68934a8b9d9418716\n    /* \"contracts/Constants.sol\":1289:12411  uint256[] SRS_G1_X = [\r... */\n  dup2\n  mstore\n  0x20\n  add\n    /* \"contracts/Constants.sol\":3995:4061  0x03de5388417ae676abaa014e9b61dac75d737d5f2519a4894bef50ed4283d6db */\n  0x3de5388417ae676abaa014e9b61dac75d737d5f2519a4894bef50ed4283d6db\n    /* \"contracts/Constants.sol\":1289:12411  uint256[] SRS_G1_X = [\r... */\n  dup2\n  mstore\n  0x20\n  add\n    /* \"contracts/Constants.sol\":4081:4147  0x1dc7d8edc296a75939d5d6131cb4dd78df1d0ae603227ffbc86f03dd052668d1 */\n  0x1dc7d8edc296a75939d5d6131cb4dd78df1d0ae603227ffbc86f03dd052668d1\n    /* \"contracts/Constants.sol\":1289:12411  uint256[] SRS_G1_X = [\r... */\n  dup2\n  mstore\n  0x20\n  add\n    /* \"contracts/Constants.sol\":4167:4233  0x00d5226e881e867590fbd5ce8ee70703072215f4c6f560748482dd006a055228 */\n  0xd5226e881e867590fbd5ce8ee70703072215f4c6f560748482dd006a055228\n    /* \"contracts/Constants.sol\":1289:12411  uint256[] SRS_G1_X = [\r... */\n  dup2\n  mstore\n  0x20\n  add\n    /* \"contracts/Constants.sol\":4253:4319  0x1438dfb6a676d856ed9dbb6fdddd0ed53540c53e8cdd6adef249c64ae8104134 */\n  0x1438dfb6a676d856ed9dbb6fdddd0ed53540c53e8cdd6adef249c64ae8104134\n    /* \"contracts/Constants.sol\":1289:12411  uint256[] SRS_G1_X = [\r... */\n  dup2\n  mstore\n  0x20\n  add\n    /* \"contracts/Constants.sol\":4339:4405  0x25048084e9d15cd722c54569538fb135e46dfcf4f0cbcf68bed0ff38b0a51e6e */\n  0x25048084e9d15cd722c54569538fb135e46dfcf4f0cbcf68bed0ff38b0a51e6e\n    /* \"contracts/Constants.sol\":1289:12411  uint256[] SRS_G1_X = [\r... */\n  dup2\n  mstore\n  0x20\n  add\n    /* \"contracts/Constants.sol\":4425:4491  0x1d3048a26337caf01322539fdb9fef9b3a2fc7497ffedf46f4ed530ac7616c22 */\n  0x1d3048a26337caf01322539fdb9fef9b3a2fc7497ffedf46f4ed530ac7616c22\n    /* \"contracts/Constants.sol\":1289:12411  uint256[] SRS_G1_X = [\r... */\n  dup2\n  mstore\n  0x20\n  add\n    /* \"contracts/Constants.sol\":4511:4577  0x284f096194eb7e8a8af689ebef51075848be3bbece0c55371ccb872743398ee2 */\n  0x284f096194eb7e8a8af689ebef51075848be3bbece0c55371ccb872743398ee2\n    /* \"contracts/Constants.sol\":1289:12411  uint256[] SRS_G1_X = [\r... */\n  dup2\n  mstore\n  0x20\n  add\n    /* \"contracts/Constants.sol\":4597:4663  0x09c50fa67d6b394ef3843ac64c8b908e3b491730e8e05f58f42b7295de47ca22 */\n  0x9c50fa67d6b394ef3843ac64c8b908e3b491730e8e05f58f42b7295de47ca22\n    /* \"contracts/Constants.sol\":1289:12411  uint256[] SRS_G1_X = [\r... */\n  dup2\n  mstore\n  0x20\n  add\n    /* \"contracts/Constants.sol\":4683:4749  0x01724b4873ad749824e6ffffd4f4796ed83ccef2b56458aa8fc4127944cb5d60 */\n  0x1724b4873ad749824e6ffffd4f4796ed83ccef2b56458aa8fc4127944cb5d60\n    /* \"contracts/Constants.sol\":1289:12411  uint256[] SRS_G1_X = [\r... */\n  dup2\n  mstore\n  0x20\n  add\n    /* \"contracts/Constants.sol\":4769:4835  0x067a31423958a5665e44731f9abb5654fda4b524b06bb1167ba130dc42c2f565 */\n  0x67a31423958a5665e44731f9abb5654fda4b524b06bb1167ba130dc42c2f565\n    /* \"contracts/Constants.sol\":1289:12411  uint256[] SRS_G1_X = [\r... */\n  dup2\n  mstore\n  0x20\n  add\n    /* \"contracts/Constants.sol\":4855:4921  0x09406bcc0dc3310263338e1b39d29a921906a9d8f911f5f57cc7c436ab98c5d0 */\n  0x9406bcc0dc3310263338e1b39d29a921906a9d8f911f5f57cc7c436ab98c5d0\n    /* \"contracts/Constants.sol\":1289:12411  uint256[] SRS_G1_X = [\r... */\n  dup2\n  mstore\n  0x20\n  add\n    /* \"contracts/Constants.sol\":4941:5007  0x2cb5f29fa00afb0a1fce915993d3e592d11a706a6b71926b743d15faace86e78 */\n  0x2cb5f29fa00afb0a1fce915993d3e592d11a706a6b71926b743d15faace86e78\n    /* \"contracts/Constants.sol\":1289:12411  uint256[] SRS_G1_X = [\r... */\n  dup2\n  mstore\n  0x20\n  add\n    /* \"contracts/Constants.sol\":5027:5093  0x237b439d526a32b79b12cc0524b94bac2241397cc1e7a6a62bf6cc00f57103c4 */\n  0x237b439d526a32b79b12cc0524b94bac2241397cc1e7a6a62bf6cc00f57103c4\n    /* \"contracts/Constants.sol\":1289:12411  uint256[] SRS_G1_X = [\r... */\n  dup2\n  mstore\n  0x20\n  add\n    /* \"contracts/Constants.sol\":5113:5179  0x020e3b46c669fac7e852717f5092fa12dc6bbbe11b5e143d04d3c2e7eda41d29 */\n  0x20e3b46c669fac7e852717f5092fa12dc6bbbe11b5e143d04d3c2e7eda41d29\n    /* \"contracts/Constants.sol\":1289:12411  uint256[] SRS_G1_X = [\r... */\n  dup2\n  mstore\n  0x20\n  add\n    /* \"contracts/Constants.sol\":5199:5265  0x2ba692b2f2e0f6402dac0c5be6f305dd5b3f4b3dba8e9c574d877f5c1ed3e899 */\n  0x2ba692b2f2e0f6402dac0c5be6f305dd5b3f4b3dba8e9c574d877f5c1ed3e899\n    /* \"contracts/Constants.sol\":1289:12411  uint256[] SRS_G1_X = [\r... */\n  dup2\n  mstore\n  0x20\n  add\n    /* \"contracts/Constants.sol\":5285:5351  0x24bcfd502109ee384cfe8189ae20eb5ccbaf8a72bf76de71019c4ca22980654a */\n  0x24bcfd502109ee384cfe8189ae20eb5ccbaf8a72bf76de71019c4ca22980654a\n    /* \"contracts/Constants.sol\":1289:12411  uint256[] SRS_G1_X = [\r... */\n  dup2\n  mstore\n  0x20\n  add\n    /* \"contracts/Constants.sol\":5371:5437  0x113df360ac29c8e6d81e3a91f57a92387efd605391be69f7a5414fb4d53a74a4 */\n  0x113df360ac29c8e6d81e3a91f57a92387efd605391be69f7a5414fb4d53a74a4\n    /* \"contracts/Constants.sol\":1289:12411  uint256[] SRS_G1_X = [\r... */\n  dup2\n  mstore\n  0x20\n  add\n    /* \"contracts/Constants.sol\":5457:5523  0x1c29824113afcb355d26c9fad3d23013a7ee6f186b5e7b3b4a8061a5fd4286d6 */\n  0x1c29824113afcb355d26c9fad3d23013a7ee6f186b5e7b3b4a8061a5fd4286d6\n    /* \"contracts/Constants.sol\":1289:12411  uint256[] SRS_G1_X = [\r... */\n  dup2\n  mstore\n  0x20\n  add\n    /* \"contracts/Constants.sol\":5543:5609  0x111c5a9fe6f2a94e2cb45bad0cd2fb352ccd7d2e483118bb95e5b786e4c66f75 */\n  0x111c5a9fe6f2a94e2cb45bad0cd2fb352ccd7d2e483118bb95e5b786e4c66f75\n    /* \"contracts/Constants.sol\":1289:12411  uint256[] SRS_G1_X = [\r... */\n  dup2\n  mstore\n  0x20\n  add\n    /* \"contracts/Constants.sol\":5629:5695  0x18043c88634f5ac8385bf4e8b2da2d354c3545bac100b1bfb81c304d6cb0397c */\n  0x18043c88634f5ac8385bf4e8b2da2d354c3545bac100b1bfb81c304d6cb0397c\n    /* \"contracts/Constants.sol\":1289:12411  uint256[] SRS_G1_X = [\r... */\n  dup2\n  mstore\n  0x20\n  add\n    /* \"contracts/Constants.sol\":5715:5781  0x10c8cdd188a633c04c451a01abc8ce5c17c33b4cf8688b15e9ae1591b65d8385 */\n  0x10c8cdd188a633c04c451a01abc8ce5c17c33b4cf8688b15e9ae1591b65d8385\n    /* \"contracts/Constants.sol\":1289:12411  uint256[] SRS_G1_X = [\r... */\n  dup2\n  mstore\n  0x20\n  add\n    /* \"contracts/Constants.sol\":5801:5867  0x01d360655fd4a6416a1d288d92571ac1a3833cf79c2c741af54f2f376322203c */\n  0x1d360655fd4a6416a1d288d92571ac1a3833cf79c2c741af54f2f376322203c\n    /* \"contracts/Constants.sol\":1289:12411  uint256[] SRS_G1_X = [\r... */\n  dup2\n  mstore\n  0x20\n  add\n    /* \"contracts/Constants.sol\":5887:5953  0x13eedad3278e63b153c049377742815820812e5a539209f94045f632332ee6c5 */\n  0x13eedad3278e63b153c049377742815820812e5a539209f94045f632332ee6c5\n    /* \"contracts/Constants.sol\":1289:12411  uint256[] SRS_G1_X = [\r... */\n  dup2\n  mstore\n  0x20\n  add\n    /* \"contracts/Constants.sol\":5973:6039  0x03a01eb93154c8a50d42ebc9201b6edacbd60e08808a9b2653118a1f3178a7d9 */\n  0x3a01eb93154c8a50d42ebc9201b6edacbd60e08808a9b2653118a1f3178a7d9\n    /* \"contracts/Constants.sol\":1289:12411  uint256[] SRS_G1_X = [\r... */\n  dup2\n  mstore\n  0x20\n  add\n    /* \"contracts/Constants.sol\":6059:6125  0x07a03bd02d9c285ae395930aaffad4e586cd430ae4a7a0a4f9280f4d0efea894 */\n  0x7a03bd02d9c285ae395930aaffad4e586cd430ae4a7a0a4f9280f4d0efea894\n    /* \"contracts/Constants.sol\":1289:12411  uint256[] SRS_G1_X = [\r... */\n  dup2\n  mstore\n  0x20\n  add\n    /* \"contracts/Constants.sol\":6145:6211  0x17e331d2c3bf9882bfdf3d3ffeb53496f3f354d5437cc244b51691de2ea67d5b */\n  0x17e331d2c3bf9882bfdf3d3ffeb53496f3f354d5437cc244b51691de2ea67d5b\n    /* \"contracts/Constants.sol\":1289:12411  uint256[] SRS_G1_X = [\r... */\n  dup2\n  mstore\n  0x20\n  add\n    /* \"contracts/Constants.sol\":6231:6297  0x26ccfa928dbb6a02f9a2533d1459bbddba5df18b18fbbec979af5ccd8a621879 */\n  0x26ccfa928dbb6a02f9a2533d1459bbddba5df18b18fbbec979af5ccd8a621879\n    /* \"contracts/Constants.sol\":1289:12411  uint256[] SRS_G1_X = [\r... */\n  dup2\n  mstore\n  0x20\n  add\n    /* \"contracts/Constants.sol\":6317:6383  0x1b896d7b5990250d6d4276064c6dd153946d1d41e304631671dd0710612adc39 */\n  0x1b896d7b5990250d6d4276064c6dd153946d1d41e304631671dd0710612adc39\n    /* \"contracts/Constants.sol\":1289:12411  uint256[] SRS_G1_X = [\r... */\n  dup2\n  mstore\n  0x20\n  add\n    /* \"contracts/Constants.sol\":6403:6469  0x082396adad72dc3c6afbe7f8043c3eefdd95d73ca09da70927355093ef2b2f18 */\n  0x82396adad72dc3c6afbe7f8043c3eefdd95d73ca09da70927355093ef2b2f18\n    /* \"contracts/Constants.sol\":1289:12411  uint256[] SRS_G1_X = [\r... */\n  dup2\n  mstore\n  0x20\n  add\n    /* \"contracts/Constants.sol\":6489:6555  0x1c524772146c5ad05532b70a1722ec8fdfae97af29fed1c53f3f45062f7db3fe */\n  0x1c524772146c5ad05532b70a1722ec8fdfae97af29fed1c53f3f45062f7db3fe\n    /* \"contracts/Constants.sol\":1289:12411  uint256[] SRS_G1_X = [\r... */\n  dup2\n  mstore\n  0x20\n  add\n    /* \"contracts/Constants.sol\":6575:6641  0x0233f98467d8ab85fecf55b97c06e036b3385108863d337b442fe8cae64507b8 */\n  0x233f98467d8ab85fecf55b97c06e036b3385108863d337b442fe8cae64507b8\n    /* \"contracts/Constants.sol\":1289:12411  uint256[] SRS_G1_X = [\r... */\n  dup2\n  mstore\n  0x20\n  add\n    /* \"contracts/Constants.sol\":6661:6727  0x0f833d8e6e8110105f6a8bd5a72d1af973a4cff4e68c52efce5a2dbdfbec67c4 */\n  0xf833d8e6e8110105f6a8bd5a72d1af973a4cff4e68c52efce5a2dbdfbec67c4\n    /* \"contracts/Constants.sol\":1289:12411  uint256[] SRS_G1_X = [\r... */\n  dup2\n  mstore\n  0x20\n  add\n    /* \"contracts/Constants.sol\":6747:6813  0x195ae5333da2eb06efa9efe5e95149a163682bef6e2c7130f67ae97de8683850 */\n  0x195ae5333da2eb06efa9efe5e95149a163682bef6e2c7130f67ae97de8683850\n    /* \"contracts/Constants.sol\":1289:12411  uint256[] SRS_G1_X = [\r... */\n  dup2\n  mstore\n  0x20\n  add\n    /* \"contracts/Constants.sol\":6833:6899  0x2005bc6dda1277e09b262034501bb1e04812bc1feba3ac019c8d7ea5c0a527cb */\n  0x2005bc6dda1277e09b262034501bb1e04812bc1feba3ac019c8d7ea5c0a527cb\n    /* \"contracts/Constants.sol\":1289:12411  uint256[] SRS_G1_X = [\r... */\n  dup2\n  mstore\n  0x20\n  add\n    /* \"contracts/Constants.sol\":6919:6985  0x1152eb0ec582c5957a937dadc8035146e911b2cf350ed02a50002e55c0f2eb86 */\n  0x1152eb0ec582c5957a937dadc8035146e911b2cf350ed02a50002e55c0f2eb86\n    /* \"contracts/Constants.sol\":1289:12411  uint256[] SRS_G1_X = [\r... */\n  dup2\n  mstore\n  0x20\n  add\n    /* \"contracts/Constants.sol\":7005:7071  0x233ae5272b87840b5cce1ec342bd68768c6c93626a46034ab6ed5c9c293b6dd2 */\n  0x233ae5272b87840b5cce1ec342bd68768c6c93626a46034ab6ed5c9c293b6dd2\n    /* \"contracts/Constants.sol\":1289:12411  uint256[] SRS_G1_X = [\r... */\n  dup2\n  mstore\n  0x20\n  add\n    /* \"contracts/Constants.sol\":7091:7157  0x11b4469306e7ccdeacc442dfa17980e8b735535988c8ba0790cffdfcc110d686 */\n  0x11b4469306e7ccdeacc442dfa17980e8b735535988c8ba0790cffdfcc110d686\n    /* \"contracts/Constants.sol\":1289:12411  uint256[] SRS_G1_X = [\r... */\n  dup2\n  mstore\n  0x20\n  add\n    /* \"contracts/Constants.sol\":7177:7243  0x1da2fa66a94f0b086cee7bccfe2aebcaced9de148a73330d8452626cd63ab8bf */\n  0x1da2fa66a94f0b086cee7bccfe2aebcaced9de148a73330d8452626cd63ab8bf\n    /* \"contracts/Constants.sol\":1289:12411  uint256[] SRS_G1_X = [\r... */\n  dup2\n  mstore\n  0x20\n  add\n    /* \"contracts/Constants.sol\":7263:7329  0x1718aee5698cbcec1cf245d0b54c8ff64de66182bb5b1abae5eb647e2e4dd1ce */\n  0x1718aee5698cbcec1cf245d0b54c8ff64de66182bb5b1abae5eb647e2e4dd1ce\n    /* \"contracts/Constants.sol\":1289:12411  uint256[] SRS_G1_X = [\r... */\n  dup2\n  mstore\n  0x20\n  add\n    /* \"contracts/Constants.sol\":7349:7415  0x2db11ae2cea66a9ae18bbc7411d39e323fcb878ab84f1364652969ab2b2990c8 */\n  0x2db11ae2cea66a9ae18bbc7411d39e323fcb878ab84f1364652969ab2b2990c8\n    /* \"contracts/Constants.sol\":1289:12411  uint256[] SRS_G1_X = [\r... */\n  dup2\n  mstore\n  0x20\n  add\n    /* \"contracts/Constants.sol\":7435:7501  0x130fcf009bd75cf8550b11e040562e23ffd932c2aabda931f90dd90231b151bc */\n  0x130fcf009bd75cf8550b11e040562e23ffd932c2aabda931f90dd90231b151bc\n    /* \"contracts/Constants.sol\":1289:12411  uint256[] SRS_G1_X = [\r... */\n  dup2\n  mstore\n  0x20\n  add\n    /* \"contracts/Constants.sol\":7521:7587  0x07bdcac71534013dcdcf3853c5d61635cbaaf01b936fb3e331470eda88fb474c */\n  0x7bdcac71534013dcdcf3853c5d61635cbaaf01b936fb3e331470eda88fb474c\n    /* \"contracts/Constants.sol\":1289:12411  uint256[] SRS_G1_X = [\r... */\n  dup2\n  mstore\n  0x20\n  add\n    /* \"contracts/Constants.sol\":7607:7673  0x0d84ac8954984fe8e238358a793c6ce05a6eb6407601ade13b7b2099b86364c5 */\n  0xd84ac8954984fe8e238358a793c6ce05a6eb6407601ade13b7b2099b86364c5\n    /* \"contracts/Constants.sol\":1289:12411  uint256[] SRS_G1_X = [\r... */\n  dup2\n  mstore\n  0x20\n  add\n    /* \"contracts/Constants.sol\":7693:7759  0x240c99d5e3d97c4e8cce8788f19fbff529d8d528eb98095cb94f0534cc3d0ca4 */\n  0x240c99d5e3d97c4e8cce8788f19fbff529d8d528eb98095cb94f0534cc3d0ca4\n    /* \"contracts/Constants.sol\":1289:12411  uint256[] SRS_G1_X = [\r... */\n  dup2\n  mstore\n  0x20\n  add\n    /* \"contracts/Constants.sol\":7779:7845  0x2493baeb15350d0ccd7dc8db251e96279a767f208f6125d600612c3da3c40668 */\n  0x2493baeb15350d0ccd7dc8db251e96279a767f208f6125d600612c3da3c40668\n    /* \"contracts/Constants.sol\":1289:12411  uint256[] SRS_G1_X = [\r... */\n  dup2\n  mstore\n  0x20\n  add\n    /* \"contracts/Constants.sol\":7865:7931  0x1c88246299d7e4589101f139a4b8ed1b17253aa61550ec84a3e577e892d0451d */\n  0x1c88246299d7e4589101f139a4b8ed1b17253aa61550ec84a3e577e892d0451d\n    /* \"contracts/Constants.sol\":1289:12411  uint256[] SRS_G1_X = [\r... */\n  dup2\n  mstore\n  0x20\n  add\n    /* \"contracts/Constants.sol\":7951:8017  0x22215e2ea1866058222250eb6b8ecb052bb21524cf524bfdd40a4168672c04c3 */\n  0x22215e2ea1866058222250eb6b8ecb052bb21524cf524bfdd40a4168672c04c3\n    /* \"contracts/Constants.sol\":1289:12411  uint256[] SRS_G1_X = [\r... */\n  dup2\n  mstore\n  0x20\n  add\n    /* \"contracts/Constants.sol\":8037:8103  0x27f1d77697a582d4a35c3ac881694a77f29106aa1367b170df71c8ac28445c88 */\n  0x27f1d77697a582d4a35c3ac881694a77f29106aa1367b170df71c8ac28445c88\n    /* \"contracts/Constants.sol\":1289:12411  uint256[] SRS_G1_X = [\r... */\n  dup2\n  mstore\n  0x20\n  add\n    /* \"contracts/Constants.sol\":8123:8189  0x198422688ec5c3c4a35ebf4d256e78080716e93c44b865eb0231afc551f7573f */\n  0x198422688ec5c3c4a35ebf4d256e78080716e93c44b865eb0231afc551f7573f\n    /* \"contracts/Constants.sol\":1289:12411  uint256[] SRS_G1_X = [\r... */\n  dup2\n  mstore\n  0x20\n  add\n    /* \"contracts/Constants.sol\":8209:8275  0x048d1ef78f62efae6dc64663759196d2e921e420c18e945567776469086de644 */\n  0x48d1ef78f62efae6dc64663759196d2e921e420c18e945567776469086de644\n    /* \"contracts/Constants.sol\":1289:12411  uint256[] SRS_G1_X = [\r... */\n  dup2\n  mstore\n  0x20\n  add\n    /* \"contracts/Constants.sol\":8295:8361  0x0f8a03adc5e10c524103ac8185d241b18dc9a45996f0b904a8589087e4049023 */\n  0xf8a03adc5e10c524103ac8185d241b18dc9a45996f0b904a8589087e4049023\n    /* \"contracts/Constants.sol\":1289:12411  uint256[] SRS_G1_X = [\r... */\n  dup2\n  mstore\n  0x20\n  add\n    /* \"contracts/Constants.sol\":8381:8447  0x0d69dc10cfe158ff1c84ccd6d63c834129ee93162423aaccc127cd63a724069c */\n  0xd69dc10cfe158ff1c84ccd6d63c834129ee93162423aaccc127cd63a724069c\n    /* \"contracts/Constants.sol\":1289:12411  uint256[] SRS_G1_X = [\r... */\n  dup2\n  mstore\n  0x20\n  add\n    /* \"contracts/Constants.sol\":8467:8533  0x297d6aa2cbb7996148a05c5631d645c2a6c2eedcecb8ad0873087d0c086ae819 */\n  0x297d6aa2cbb7996148a05c5631d645c2a6c2eedcecb8ad0873087d0c086ae819\n    /* \"contracts/Constants.sol\":1289:12411  uint256[] SRS_G1_X = [\r... */\n  dup2\n  mstore\n  0x20\n  add\n    /* \"contracts/Constants.sol\":8553:8619  0x112233556f412b1ed8397cf2455aeb8e8e3de5ccfcc5c9d783d41210db8d3cca */\n  0x112233556f412b1ed8397cf2455aeb8e8e3de5ccfcc5c9d783d41210db8d3cca\n    /* \"contracts/Constants.sol\":1289:12411  uint256[] SRS_G1_X = [\r... */\n  dup2\n  mstore\n  0x20\n  add\n    /* \"contracts/Constants.sol\":8639:8705  0x1f63ef47ff7178d32cebcb56cc5223dfac3b13c48210f3e3d149ceef87207ebc */\n  0x1f63ef47ff7178d32cebcb56cc5223dfac3b13c48210f3e3d149ceef87207ebc\n    /* \"contracts/Constants.sol\":1289:12411  uint256[] SRS_G1_X = [\r... */\n  dup2\n  mstore\n  0x20\n  add\n    /* \"contracts/Constants.sol\":8725:8791  0x16216fb5fa0bd7a8ffd9b32c967f7d555e33cb98449e41a08dab4f7c04fa875d */\n  0x16216fb5fa0bd7a8ffd9b32c967f7d555e33cb98449e41a08dab4f7c04fa875d\n    /* \"contracts/Constants.sol\":1289:12411  uint256[] SRS_G1_X = [\r... */\n  dup2\n  mstore\n  0x20\n  add\n    /* \"contracts/Constants.sol\":8811:8877  0x0dcc507d62fd583f3059a11f59b2593df7f3416bc4a86fc343cfc6e8d37ae284 */\n  0xdcc507d62fd583f3059a11f59b2593df7f3416bc4a86fc343cfc6e8d37ae284\n    /* \"contracts/Constants.sol\":1289:12411  uint256[] SRS_G1_X = [\r... */\n  dup2\n  mstore\n  0x20\n  add\n    /* \"contracts/Constants.sol\":8897:8963  0x2e6f2bc8daf0b0edbece8373a6a579e4ea1c0bded0bed7705c2d7b869c4410c6 */\n  0x2e6f2bc8daf0b0edbece8373a6a579e4ea1c0bded0bed7705c2d7b869c4410c6\n    /* \"contracts/Constants.sol\":1289:12411  uint256[] SRS_G1_X = [\r... */\n  dup2\n  mstore\n  0x20\n  add\n    /* \"contracts/Constants.sol\":8983:9049  0x22dd6c713cbcddb5716fe9ef8097e545cc96f44fc064c0481cff0eb36030f374 */\n  0x22dd6c713cbcddb5716fe9ef8097e545cc96f44fc064c0481cff0eb36030f374\n    /* \"contracts/Constants.sol\":1289:12411  uint256[] SRS_G1_X = [\r... */\n  dup2\n  mstore\n  0x20\n  add\n    /* \"contracts/Constants.sol\":9069:9135  0x0089ca7a5894a1402f42ac610c68de090c11920db3be434a3da6dc50c398653d */\n  0x89ca7a5894a1402f42ac610c68de090c11920db3be434a3da6dc50c398653d\n    /* \"contracts/Constants.sol\":1289:12411  uint256[] SRS_G1_X = [\r... */\n  dup2\n  mstore\n  0x20\n  add\n    /* \"contracts/Constants.sol\":9155:9221  0x2d319043e517c197a9ff8963d3399f4bc74bbb055977c9808e75ed644c5bc2af */\n  0x2d319043e517c197a9ff8963d3399f4bc74bbb055977c9808e75ed644c5bc2af\n    /* \"contracts/Constants.sol\":1289:12411  uint256[] SRS_G1_X = [\r... */\n  dup2\n  mstore\n  0x20\n  add\n    /* \"contracts/Constants.sol\":9241:9307  0x1c38a11baf9e41cfb444f05ac75790abfd65a917f6c259ab9010c4c87fdcf547 */\n  0x1c38a11baf9e41cfb444f05ac75790abfd65a917f6c259ab9010c4c87fdcf547\n    /* \"contracts/Constants.sol\":1289:12411  uint256[] SRS_G1_X = [\r... */\n  dup2\n  mstore\n  0x20\n  add\n    /* \"contracts/Constants.sol\":9327:9393  0x2ff127ee998bd98b2adbcc7bcf174191182f7c6a621ac46910bf4867347edc14 */\n  0x2ff127ee998bd98b2adbcc7bcf174191182f7c6a621ac46910bf4867347edc14\n    /* \"contracts/Constants.sol\":1289:12411  uint256[] SRS_G1_X = [\r... */\n  dup2\n  mstore\n  0x20\n  add\n    /* \"contracts/Constants.sol\":9413:9479  0x11b6a7410e205a57e2536f0977a17e85e5f941b7adc15d111c0737984a278cd7 */\n  0x11b6a7410e205a57e2536f0977a17e85e5f941b7adc15d111c0737984a278cd7\n    /* \"contracts/Constants.sol\":1289:12411  uint256[] SRS_G1_X = [\r... */\n  dup2\n  mstore\n  0x20\n  add\n    /* \"contracts/Constants.sol\":9499:9565  0x151e70f61c2b5c0165b62a9cd648b6b49d9733b07fe02df5ae4deaf77efe56c8 */\n  0x151e70f61c2b5c0165b62a9cd648b6b49d9733b07fe02df5ae4deaf77efe56c8\n    /* \"contracts/Constants.sol\":1289:12411  uint256[] SRS_G1_X = [\r... */\n  dup2\n  mstore\n  0x20\n  add\n    /* \"contracts/Constants.sol\":9585:9651  0x22ba4329810639d735b295a9e8648d7e34851c135e6a94e742597d0dc99093dd */\n  0x22ba4329810639d735b295a9e8648d7e34851c135e6a94e742597d0dc99093dd\n    /* \"contracts/Constants.sol\":1289:12411  uint256[] SRS_G1_X = [\r... */\n  dup2\n  mstore\n  0x20\n  add\n    /* \"contracts/Constants.sol\":9671:9737  0x2151d31159162e67bd628085c9947aec27b1aa2135e81943b28a0083b4bcb68d */\n  0x2151d31159162e67bd628085c9947aec27b1aa2135e81943b28a0083b4bcb68d\n    /* \"contracts/Constants.sol\":1289:12411  uint256[] SRS_G1_X = [\r... */\n  dup2\n  mstore\n  0x20\n  add\n    /* \"contracts/Constants.sol\":9757:9823  0x0c76bbec76cb006ccd76a5503448dcc7c7ae80f890df4e63df07c47c16bc9a69 */\n  0xc76bbec76cb006ccd76a5503448dcc7c7ae80f890df4e63df07c47c16bc9a69\n    /* \"contracts/Constants.sol\":1289:12411  uint256[] SRS_G1_X = [\r... */\n  dup2\n  mstore\n  0x20\n  add\n    /* \"contracts/Constants.sol\":9843:9909  0x1d6ceda71a17d701e3ebbcbb51f21289c6d358e0453c4991a67c1baf37c41fc9 */\n  0x1d6ceda71a17d701e3ebbcbb51f21289c6d358e0453c4991a67c1baf37c41fc9\n    /* \"contracts/Constants.sol\":1289:12411  uint256[] SRS_G1_X = [\r... */\n  dup2\n  mstore\n  0x20\n  add\n    /* \"contracts/Constants.sol\":9929:9995  0x118bda3788e835dff55cbbe4227e33e0c16df832a5086a9e0e0af1d9920fa072 */\n  0x118bda3788e835dff55cbbe4227e33e0c16df832a5086a9e0e0af1d9920fa072\n    /* \"contracts/Constants.sol\":1289:12411  uint256[] SRS_G1_X = [\r... */\n  dup2\n  mstore\n  0x20\n  add\n    /* \"contracts/Constants.sol\":10015:10081  0x20f612096d0e9ee8f6afa12c4d30c3de302e46fbea8452b092cb2a14a51f4b78 */\n  0x20f612096d0e9ee8f6afa12c4d30c3de302e46fbea8452b092cb2a14a51f4b78\n    /* \"contracts/Constants.sol\":1289:12411  uint256[] SRS_G1_X = [\r... */\n  dup2\n  mstore\n  0x20\n  add\n    /* \"contracts/Constants.sol\":10101:10167  0x0ef0668a61b2407e138d2db6bece20a4d1d4748efb39c2f6a76eb7090cf5a24d */\n  0xef0668a61b2407e138d2db6bece20a4d1d4748efb39c2f6a76eb7090cf5a24d\n    /* \"contracts/Constants.sol\":1289:12411  uint256[] SRS_G1_X = [\r... */\n  dup2\n  mstore\n  0x20\n  add\n    /* \"contracts/Constants.sol\":10187:10253  0x1c68d162f18f5c326c505f15f6710b842cff82cc125d4cf4ce41d2adc3c41ede */\n  0x1c68d162f18f5c326c505f15f6710b842cff82cc125d4cf4ce41d2adc3c41ede\n    /* \"contracts/Constants.sol\":1289:12411  uint256[] SRS_G1_X = [\r... */\n  dup2\n  mstore\n  0x20\n  add\n    /* \"contracts/Constants.sol\":10273:10339  0x15092b3f5c6e118cc6518dbd78130c6bf633829411c5c8e93a33c8f8b0f2f24f */\n  0x15092b3f5c6e118cc6518dbd78130c6bf633829411c5c8e93a33c8f8b0f2f24f\n    /* \"contracts/Constants.sol\":1289:12411  uint256[] SRS_G1_X = [\r... */\n  dup2\n  mstore\n  0x20\n  add\n    /* \"contracts/Constants.sol\":10359:10425  0x2088f01e02d62d0b37a859a657e42032a5c9a189c790978877bbc789e01df357 */\n  0x2088f01e02d62d0b37a859a657e42032a5c9a189c790978877bbc789e01df357\n    /* \"contracts/Constants.sol\":1289:12411  uint256[] SRS_G1_X = [\r... */\n  dup2\n  mstore\n  0x20\n  add\n    /* \"contracts/Constants.sol\":10445:10511  0x124c2f64042235e28c192180c0bce808183cde7aec26ce2a60bcab2ef2de1b8b */\n  0x124c2f64042235e28c192180c0bce808183cde7aec26ce2a60bcab2ef2de1b8b\n    /* \"contracts/Constants.sol\":1289:12411  uint256[] SRS_G1_X = [\r... */\n  dup2\n  mstore\n  0x20\n  add\n    /* \"contracts/Constants.sol\":10531:10597  0x02429f148e681404783fb448d28d5b23777856568e5cfbab16902c3d825d706e */\n  0x2429f148e681404783fb448d28d5b23777856568e5cfbab16902c3d825d706e\n    /* \"contracts/Constants.sol\":1289:12411  uint256[] SRS_G1_X = [\r... */\n  dup2\n  mstore\n  0x20\n  add\n    /* \"contracts/Constants.sol\":10617:10683  0x1863f247dea2bc3872f3b6786d7db0d99810a7e1237b6f607bd18c8701b700b4 */\n  0x1863f247dea2bc3872f3b6786d7db0d99810a7e1237b6f607bd18c8701b700b4\n    /* \"contracts/Constants.sol\":1289:12411  uint256[] SRS_G1_X = [\r... */\n  dup2\n  mstore\n  0x20\n  add\n    /* \"contracts/Constants.sol\":10703:10769  0x1e73726594d8b4d592039f71679896d41761d0e346c982310c736b96fd2a3b69 */\n  0x1e73726594d8b4d592039f71679896d41761d0e346c982310c736b96fd2a3b69\n    /* \"contracts/Constants.sol\":1289:12411  uint256[] SRS_G1_X = [\r... */\n  dup2\n  mstore\n  0x20\n  add\n    /* \"contracts/Constants.sol\":10789:10855  0x11734c5f7f1175c112e9eae54076df4ed7348c938487a57fd0c1c461f103d8ca */\n  0x11734c5f7f1175c112e9eae54076df4ed7348c938487a57fd0c1c461f103d8ca\n    /* \"contracts/Constants.sol\":1289:12411  uint256[] SRS_G1_X = [\r... */\n  dup2\n  mstore\n  0x20\n  add\n    /* \"contracts/Constants.sol\":10875:10941  0x2257ba20d6d1db7839cd8d0e72f64564fde0688991add50450289471a4f0fa37 */\n  0x2257ba20d6d1db7839cd8d0e72f64564fde0688991add50450289471a4f0fa37\n    /* \"contracts/Constants.sol\":1289:12411  uint256[] SRS_G1_X = [\r... */\n  dup2\n  mstore\n  0x20\n  add\n    /* \"contracts/Constants.sol\":10961:11027  0x1cdac5b7698f7878f24bc60e3e4df9030a18204f73e3a135e5b45302a359805a */\n  0x1cdac5b7698f7878f24bc60e3e4df9030a18204f73e3a135e5b45302a359805a\n    /* \"contracts/Constants.sol\":1289:12411  uint256[] SRS_G1_X = [\r... */\n  dup2\n  mstore\n  0x20\n  add\n    /* \"contracts/Constants.sol\":11047:11113  0x0d2108f8f26a1a1aef9c31f81632208f34e442654a2093e2a3acbdd1da7ec024 */\n  0xd2108f8f26a1a1aef9c31f81632208f34e442654a2093e2a3acbdd1da7ec024\n    /* \"contracts/Constants.sol\":1289:12411  uint256[] SRS_G1_X = [\r... */\n  dup2\n  mstore\n  0x20\n  add\n    /* \"contracts/Constants.sol\":11133:11199  0x2bc97f19326fc924fcda4fe0ec205f66165ae0f39b8a34cdfc2deea3835f56f3 */\n  0x2bc97f19326fc924fcda4fe0ec205f66165ae0f39b8a34cdfc2deea3835f56f3\n    /* \"contracts/Constants.sol\":1289:12411  uint256[] SRS_G1_X = [\r... */\n  dup2\n  mstore\n  0x20\n  add\n    /* \"contracts/Constants.sol\":11219:11285  0x1c711fea1f593f068fc1a8965548f6b4da36f248914b5fda56e97cce9b0b2ec5 */\n  0x1c711fea1f593f068fc1a8965548f6b4da36f248914b5fda56e97cce9b0b2ec5\n    /* \"contracts/Constants.sol\":1289:12411  uint256[] SRS_G1_X = [\r... */\n  dup2\n  mstore\n  0x20\n  add\n    /* \"contracts/Constants.sol\":11305:11371  0x1b1b24ac8aa9f3229f75eccb7d16b86da8563bad2cda601def5c9080452d2a47 */\n  0x1b1b24ac8aa9f3229f75eccb7d16b86da8563bad2cda601def5c9080452d2a47\n    /* \"contracts/Constants.sol\":1289:12411  uint256[] SRS_G1_X = [\r... */\n  dup2\n  mstore\n  0x20\n  add\n    /* \"contracts/Constants.sol\":11391:11457  0x2e9b3ce02d01bb443a4315e4de7e1388fa90ec63200a62e07f36137c68d8212d */\n  0x2e9b3ce02d01bb443a4315e4de7e1388fa90ec63200a62e07f36137c68d8212d\n    /* \"contracts/Constants.sol\":1289:12411  uint256[] SRS_G1_X = [\r... */\n  dup2\n  mstore\n  0x20\n  add\n    /* \"contracts/Constants.sol\":11477:11543  0x2fb08041e23b4f9fa04d0d0cfa461f1e871763cce3d6b71252fe7d417a75cc18 */\n  0x2fb08041e23b4f9fa04d0d0cfa461f1e871763cce3d6b71252fe7d417a75cc18\n    /* \"contracts/Constants.sol\":1289:12411  uint256[] SRS_G1_X = [\r... */\n  dup2\n  mstore\n  0x20\n  add\n    /* \"contracts/Constants.sol\":11563:11629  0x00800cb48d12d98948dbcef6c053a1ef262d7cd093dd847308e0313c7acd6be7 */\n  0x800cb48d12d98948dbcef6c053a1ef262d7cd093dd847308e0313c7acd6be7\n    /* \"contracts/Constants.sol\":1289:12411  uint256[] SRS_G1_X = [\r... */\n  dup2\n  mstore\n  0x20\n  add\n    /* \"contracts/Constants.sol\":11649:11715  0x2e287d2a4ef6aca672590ed58686c78e91395f2101d7495ba8c2541ff8a67cce */\n  0x2e287d2a4ef6aca672590ed58686c78e91395f2101d7495ba8c2541ff8a67cce\n    /* \"contracts/Constants.sol\":1289:12411  uint256[] SRS_G1_X = [\r... */\n  dup2\n  mstore\n  0x20\n  add\n    /* \"contracts/Constants.sol\":11735:11801  0x144a442e4c494f9c9bbae7d39fb87df6c4f3155c77ef257cb5054097cc082197 */\n  0x144a442e4c494f9c9bbae7d39fb87df6c4f3155c77ef257cb5054097cc082197\n    /* \"contracts/Constants.sol\":1289:12411  uint256[] SRS_G1_X = [\r... */\n  dup2\n  mstore\n  0x20\n  add\n    /* \"contracts/Constants.sol\":11821:11887  0x3035d908ecb10844885144e69e5d3fbe5d29748d1a4f886b0bb052b737a342e0 */\n  0x3035d908ecb10844885144e69e5d3fbe5d29748d1a4f886b0bb052b737a342e0\n    /* \"contracts/Constants.sol\":1289:12411  uint256[] SRS_G1_X = [\r... */\n  dup2\n  mstore\n  0x20\n  add\n    /* \"contracts/Constants.sol\":11907:11973  0x24035c69ec713397270c63bed7d4d3968e2aa671e5518e4ae46b0529df5b361d */\n  0x24035c69ec713397270c63bed7d4d3968e2aa671e5518e4ae46b0529df5b361d\n    /* \"contracts/Constants.sol\":1289:12411  uint256[] SRS_G1_X = [\r... */\n  dup2\n  mstore\n  0x20\n  add\n    /* \"contracts/Constants.sol\":11993:12059  0x26f733617e30cc35b2a565d321bb40b4f120b1097f3f28100987e2e235c6be85 */\n  0x26f733617e30cc35b2a565d321bb40b4f120b1097f3f28100987e2e235c6be85\n    /* \"contracts/Constants.sol\":1289:12411  uint256[] SRS_G1_X = [\r... */\n  dup2\n  mstore\n  0x20\n  add\n    /* \"contracts/Constants.sol\":12079:12145  0x21aac9d466cbf97709887d44fdc0189c6757ebd2228795f23f700dfd5f45f805 */\n  0x21aac9d466cbf97709887d44fdc0189c6757ebd2228795f23f700dfd5f45f805\n    /* \"contracts/Constants.sol\":1289:12411  uint256[] SRS_G1_X = [\r... */\n  dup2\n  mstore\n  0x20\n  add\n    /* \"contracts/Constants.sol\":12165:12231  0x07491ccd643e4a420081be79b89273efc11a6c07406ec0047971df979f4b711b */\n  0x7491ccd643e4a420081be79b89273efc11a6c07406ec0047971df979f4b711b\n    /* \"contracts/Constants.sol\":1289:12411  uint256[] SRS_G1_X = [\r... */\n  dup2\n  mstore\n  0x20\n  add\n    /* \"contracts/Constants.sol\":12251:12317  0x0c44669879d7d3a0d5fece9db8c027b9009fdbeb9b9c0330a5c2ca74a8154dff */\n  0xc44669879d7d3a0d5fece9db8c027b9009fdbeb9b9c0330a5c2ca74a8154dff\n    /* \"contracts/Constants.sol\":1289:12411  uint256[] SRS_G1_X = [\r... */\n  dup2\n  mstore\n  0x20\n  add\n    /* \"contracts/Constants.sol\":12337:12403  0x2ca6b5fb21a082dde700929ef7cbd301d9330a502153f3e3f9b80f8314799230 */\n  0x2ca6b5fb21a082dde700929ef7cbd301d9330a502153f3e3f9b80f8314799230\n    /* \"contracts/Constants.sol\":1289:12411  uint256[] SRS_G1_X = [\r... */\n  dup2\n  mstore\n  pop\n  0x0\n  swap1\n  0x81\n  tag_1\n  swap3\n  swap2\n  swap1\n  jump\t// in(tag_2)\ntag_1:\n  pop\n    /* \"contracts/Constants.sol\":12420:23542  uint256[] SRS_G1_Y = [\r... */\n  0x1020\n  mload(0x40)\n  swap1\n  dup2\n  add\n  0x40\n  mstore\n  dup1\n    /* \"contracts/Constants.sol\":12460:12526  0x0000000000000000000000000000000000000000000000000000000000000002 */\n  0x2\n    /* \"contracts/Constants.sol\":12420:23542  uint256[] SRS_G1_Y = [\r... */\n  dup2\n  mstore\n  0x20\n  add\n    /* \"contracts/Constants.sol\":12546:12612  0x2d5cba37de100449b4a704cf146a4e1fa4e35a775b0978dac606af22ee086c14 */\n  0x2d5cba37de100449b4a704cf146a4e1fa4e35a775b0978dac606af22ee086c14\n    /* \"contracts/Constants.sol\":12420:23542  uint256[] SRS_G1_Y = [\r... */\n  dup2\n  mstore\n  0x20\n  add\n    /* \"contracts/Constants.sol\":12632:12698  0x1d1766d6eb8ad6899aa76215fbc72c7c815cdf4fa5b94824b214d33a81441647 */\n  0x1d1766d6eb8ad6899aa76215fbc72c7c815cdf4fa5b94824b214d33a81441647\n    /* \"contracts/Constants.sol\":12420:23542  uint256[] SRS_G1_Y = [\r... */\n  dup2\n  mstore\n  0x20\n  add\n    /* \"contracts/Constants.sol\":12718:12784  0x3047fa8d988dd0ffb58a3d397c05febc29adc880fa1740d4ba37392593eab87d */\n  0x3047fa8d988dd0ffb58a3d397c05febc29adc880fa1740d4ba37392593eab87d\n    /* \"contracts/Constants.sol\":12420:23542  uint256[] SRS_G1_Y = [\r... */\n  dup2\n  mstore\n  0x20\n  add\n    /* \"contracts/Constants.sol\":12804:12870  0x149769b4009ba286c3bf68b9ef89ea3df3722c0f2c02a7e733286671bb340e17 */\n  0x149769b4009ba286c3bf68b9ef89ea3df3722c0f2c02a7e733286671bb340e17\n    /* \"contracts/Constants.sol\":12420:23542  uint256[] SRS_G1_Y = [\r... */\n  dup2\n  mstore\n  0x20\n  add\n    /* \"contracts/Constants.sol\":12890:12956  0x1a47c465665f82ab95677a0e38e0b5c5aa3e79e9eff490941b8c426623822da0 */\n  0x1a47c465665f82ab95677a0e38e0b5c5aa3e79e9eff490941b8c426623822da0\n    /* \"contracts/Constants.sol\":12420:23542  uint256[] SRS_G1_Y = [\r... */\n  dup2\n  mstore\n  0x20\n  add\n    /* \"contracts/Constants.sol\":12976:13042  0x1dc22078116b8ed7fd2e5f257fabb07309522d378318f5b85413ca6f96b25e32 */\n  0x1dc22078116b8ed7fd2e5f257fabb07309522d378318f5b85413ca6f96b25e32\n    /* \"contracts/Constants.sol\":12420:23542  uint256[] SRS_G1_Y = [\r... */\n  dup2\n  mstore\n  0x20\n  add\n    /* \"contracts/Constants.sol\":13062:13128  0x2e80a8e528e16d94f043fe10f07f41b68db811edea59b24c598f3427f8c72aeb */\n  0x2e80a8e528e16d94f043fe10f07f41b68db811edea59b24c598f3427f8c72aeb\n    /* \"contracts/Constants.sol\":12420:23542  uint256[] SRS_G1_Y = [\r... */\n  dup2\n  mstore\n  0x20\n  add\n    /* \"contracts/Constants.sol\":13148:13214  0x06a10cd14a0f266976fd8979b6e28278d9611df51ffef4f91388142aa90e35ee */\n  0x6a10cd14a0f266976fd8979b6e28278d9611df51ffef4f91388142aa90e35ee\n    /* \"contracts/Constants.sol\":12420:23542  uint256[] SRS_G1_Y = [\r... */\n  dup2\n  mstore\n  0x20\n  add\n    /* \"contracts/Constants.sol\":13234:13300  0x26652fc097af0b4d90f17396336cfc2b79a1d6884bb8106198e47a4adcf7336a */\n  0x26652fc097af0b4d90f17396336cfc2b79a1d6884bb8106198e47a4adcf7336a\n    /* \"contracts/Constants.sol\":12420:23542  uint256[] SRS_G1_Y = [\r... */\n  dup2\n  mstore\n  0x20\n  add\n    /* \"contracts/Constants.sol\":13320:13386  0x27a212a6246a5b985ee7053be49efc820ba3755704e4eeff72c910ba6bf569c6 */\n  0x27a212a6246a5b985ee7053be49efc820ba3755704e4eeff72c910ba6bf569c6\n    /* \"contracts/Constants.sol\":12420:23542  uint256[] SRS_G1_Y = [\r... */\n  dup2\n  mstore\n  0x20\n  add\n    /* \"contracts/Constants.sol\":13406:13472  0x1e314e6119e215d2ab5169ae96675810519d002cb38e723810ac55fc583c781c */\n  0x1e314e6119e215d2ab5169ae96675810519d002cb38e723810ac55fc583c781c\n    /* \"contracts/Constants.sol\":12420:23542  uint256[] SRS_G1_Y = [\r... */\n  dup2\n  mstore\n  0x20\n  add\n    /* \"contracts/Constants.sol\":13492:13558  0x0b1ada68373f226d74a1ca1d7639d9a4e1abbe59150c742ff9af5e5486dd3f1b */\n  0xb1ada68373f226d74a1ca1d7639d9a4e1abbe59150c742ff9af5e5486dd3f1b\n    /* \"contracts/Constants.sol\":12420:23542  uint256[] SRS_G1_Y = [\r... */\n  dup2\n  mstore\n  0x20\n  add\n    /* \"contracts/Constants.sol\":13578:13644  0x12aee19f60cdd2f7a7200ced5e87d38a834dc9e629cb449ead29269f99fd3d0e */\n  0x12aee19f60cdd2f7a7200ced5e87d38a834dc9e629cb449ead29269f99fd3d0e\n    /* \"contracts/Constants.sol\":12420:23542  uint256[] SRS_G1_Y = [\r... */\n  dup2\n  mstore\n  0x20\n  add\n    /* \"contracts/Constants.sol\":13664:13730  0x1690b5e0e2541f332fc381762d43d500ed8b07f89b653ac604b99f53765833e2 */\n  0x1690b5e0e2541f332fc381762d43d500ed8b07f89b653ac604b99f53765833e2\n    /* \"contracts/Constants.sol\":12420:23542  uint256[] SRS_G1_Y = [\r... */\n  dup2\n  mstore\n  0x20\n  add\n    /* \"contracts/Constants.sol\":13750:13816  0x19ebb23a6a6ce9a3dd172ad0d2e4d24c4731c5d106946237ceda98f15dcf1592 */\n  0x19ebb23a6a6ce9a3dd172ad0d2e4d24c4731c5d106946237ceda98f15dcf1592\n    /* \"contracts/Constants.sol\":12420:23542  uint256[] SRS_G1_Y = [\r... */\n  dup2\n  mstore\n  0x20\n  add\n    /* \"contracts/Constants.sol\":13836:13902  0x11d516516d35854d291e2d6f8af84d044c43d3c8b2024fc6e27862bf1230e63a */\n  0x11d516516d35854d291e2d6f8af84d044c43d3c8b2024fc6e27862bf1230e63a\n    /* \"contracts/Constants.sol\":12420:23542  uint256[] SRS_G1_Y = [\r... */\n  dup2\n  mstore\n  0x20\n  add\n    /* \"contracts/Constants.sol\":13922:13988  0x20e4336d023d9ccecf62430ef5ec71d25afbe398ceaea9f25756fd78d1fb2835 */\n  0x20e4336d023d9ccecf62430ef5ec71d25afbe398ceaea9f25756fd78d1fb2835\n    /* \"contracts/Constants.sol\":12420:23542  uint256[] SRS_G1_Y = [\r... */\n  dup2\n  mstore\n  0x20\n  add\n    /* \"contracts/Constants.sol\":14008:14074  0x0d1c520eb24243a6e668a3ef57b0d73f8ecc310c2d91d7a8b44690f05c63c873 */\n  0xd1c520eb24243a6e668a3ef57b0d73f8ecc310c2d91d7a8b44690f05c63c873\n    /* \"contracts/Constants.sol\":12420:23542  uint256[] SRS_G1_Y = [\r... */\n  dup2\n  mstore\n  0x20\n  add\n    /* \"contracts/Constants.sol\":14094:14160  0x2760789df6ed04a45bb374f700a984790661d72e0b3ec10da401ba737a1c35e7 */\n  0x2760789df6ed04a45bb374f700a984790661d72e0b3ec10da401ba737a1c35e7\n    /* \"contracts/Constants.sol\":12420:23542  uint256[] SRS_G1_Y = [\r... */\n  dup2\n  mstore\n  0x20\n  add\n    /* \"contracts/Constants.sol\":14180:14246  0x017ae69c9f9d9f62d9be2bba4bcac172adb630378c7aa702bf93ce64d3007753 */\n  0x17ae69c9f9d9f62d9be2bba4bcac172adb630378c7aa702bf93ce64d3007753\n    /* \"contracts/Constants.sol\":12420:23542  uint256[] SRS_G1_Y = [\r... */\n  dup2\n  mstore\n  0x20\n  add\n    /* \"contracts/Constants.sol\":14266:14332  0x1e8be147b24481e83beabb209e37f1414ac0f6163c44319a65b82c0ddda82cda */\n  0x1e8be147b24481e83beabb209e37f1414ac0f6163c44319a65b82c0ddda82cda\n    /* \"contracts/Constants.sol\":12420:23542  uint256[] SRS_G1_Y = [\r... */\n  dup2\n  mstore\n  0x20\n  add\n    /* \"contracts/Constants.sol\":14352:14418  0x08d2d8d6685ac4d7cb56f03e17679fe4b5aab0953f9f1ccd67b509a57ee511fb */\n  0x8d2d8d6685ac4d7cb56f03e17679fe4b5aab0953f9f1ccd67b509a57ee511fb\n    /* \"contracts/Constants.sol\":12420:23542  uint256[] SRS_G1_Y = [\r... */\n  dup2\n  mstore\n  0x20\n  add\n    /* \"contracts/Constants.sol\":14438:14504  0x157bdad8593045c65705e274bb9d0559a7e3331f90e5b86f4f100c61da9ad3b5 */\n  0x157bdad8593045c65705e274bb9d0559a7e3331f90e5b86f4f100c61da9ad3b5\n    /* \"contracts/Constants.sol\":12420:23542  uint256[] SRS_G1_Y = [\r... */\n  dup2\n  mstore\n  0x20\n  add\n    /* \"contracts/Constants.sol\":14524:14590  0x2ce8ffad132cdad32966587f2bce541451754a53b5a212fb7cfdf70aef39ff3c */\n  0x2ce8ffad132cdad32966587f2bce541451754a53b5a212fb7cfdf70aef39ff3c\n    /* \"contracts/Constants.sol\":12420:23542  uint256[] SRS_G1_Y = [\r... */\n  dup2\n  mstore\n  0x20\n  add\n    /* \"contracts/Constants.sol\":14610:14676  0x2d822f93cc4bd0eab8996734cee63ecfaf2cfe76de6d247579dd2c66fee532b9 */\n  0x2d822f93cc4bd0eab8996734cee63ecfaf2cfe76de6d247579dd2c66fee532b9\n    /* \"contracts/Constants.sol\":12420:23542  uint256[] SRS_G1_Y = [\r... */\n  dup2\n  mstore\n  0x20\n  add\n    /* \"contracts/Constants.sol\":14696:14762  0x07c038c058f7b6e8fff220758849f8ac5e5975ef541e07c22c7f43456c012295 */\n  0x7c038c058f7b6e8fff220758849f8ac5e5975ef541e07c22c7f43456c012295\n    /* \"contracts/Constants.sol\":12420:23542  uint256[] SRS_G1_Y = [\r... */\n  dup2\n  mstore\n  0x20\n  add\n    /* \"contracts/Constants.sol\":14782:14848  0x2427978f5e9472976b5eaa97bbf6b2755450fbb5354181dfd6e71e15e9e2ffbe */\n  0x2427978f5e9472976b5eaa97bbf6b2755450fbb5354181dfd6e71e15e9e2ffbe\n    /* \"contracts/Constants.sol\":12420:23542  uint256[] SRS_G1_Y = [\r... */\n  dup2\n  mstore\n  0x20\n  add\n    /* \"contracts/Constants.sol\":14868:14934  0x1d599933e905c6ecaec12316efe9de0f838202f322798af444b404a507575465 */\n  0x1d599933e905c6ecaec12316efe9de0f838202f322798af444b404a507575465\n    /* \"contracts/Constants.sol\":12420:23542  uint256[] SRS_G1_Y = [\r... */\n  dup2\n  mstore\n  0x20\n  add\n    /* \"contracts/Constants.sol\":14954:15020  0x11b815533a46bf46479315a3968e8ddeefb559f2768844e7b8d4a09e29ae85bf */\n  0x11b815533a46bf46479315a3968e8ddeefb559f2768844e7b8d4a09e29ae85bf\n    /* \"contracts/Constants.sol\":12420:23542  uint256[] SRS_G1_Y = [\r... */\n  dup2\n  mstore\n  0x20\n  add\n    /* \"contracts/Constants.sol\":15040:15106  0x0f8e56aa69115451d882f6bd581a1b14b063c25bac3a494713b9ec507e5a8a8c */\n  0xf8e56aa69115451d882f6bd581a1b14b063c25bac3a494713b9ec507e5a8a8c\n    /* \"contracts/Constants.sol\":12420:23542  uint256[] SRS_G1_Y = [\r... */\n  dup2\n  mstore\n  0x20\n  add\n    /* \"contracts/Constants.sol\":15126:15192  0x0a67970ad52392001ec0ccfc6c63176401c03f428628e75624d816e2179d5ce5 */\n  0xa67970ad52392001ec0ccfc6c63176401c03f428628e75624d816e2179d5ce5\n    /* \"contracts/Constants.sol\":12420:23542  uint256[] SRS_G1_Y = [\r... */\n  dup2\n  mstore\n  0x20\n  add\n    /* \"contracts/Constants.sol\":15212:15278  0x0a1f8809f23f000712329eeebbdaf002f063678a131860966dae22a612528698 */\n  0xa1f8809f23f000712329eeebbdaf002f063678a131860966dae22a612528698\n    /* \"contracts/Constants.sol\":12420:23542  uint256[] SRS_G1_Y = [\r... */\n  dup2\n  mstore\n  0x20\n  add\n    /* \"contracts/Constants.sol\":15298:15364  0x15e19f0b4b73b2d5d81902612592f9639b84b8c649299194c54e7eef59bd495c */\n  0x15e19f0b4b73b2d5d81902612592f9639b84b8c649299194c54e7eef59bd495c\n    /* \"contracts/Constants.sol\":12420:23542  uint256[] SRS_G1_Y = [\r... */\n  dup2\n  mstore\n  0x20\n  add\n    /* \"contracts/Constants.sol\":15384:15450  0x12930fb964361543c19d8e5ae6047e6758c004874254b62a225ef7d3b70bed41 */\n  0x12930fb964361543c19d8e5ae6047e6758c004874254b62a225ef7d3b70bed41\n    /* \"contracts/Constants.sol\":12420:23542  uint256[] SRS_G1_Y = [\r... */\n  dup2\n  mstore\n  0x20\n  add\n    /* \"contracts/Constants.sol\":15470:15536  0x1f579ad5a828d4befb75b758879a53e5c5b485c5eab0c0eaa0417088b094bf20 */\n  0x1f579ad5a828d4befb75b758879a53e5c5b485c5eab0c0eaa0417088b094bf20\n    /* \"contracts/Constants.sol\":12420:23542  uint256[] SRS_G1_Y = [\r... */\n  dup2\n  mstore\n  0x20\n  add\n    /* \"contracts/Constants.sol\":15556:15622  0x1cb5f8d5d179db5994269371fbb59a132e41e283e80f3204487b5afb7d30ffb4 */\n  0x1cb5f8d5d179db5994269371fbb59a132e41e283e80f3204487b5afb7d30ffb4\n    /* \"contracts/Constants.sol\":12420:23542  uint256[] SRS_G1_Y = [\r... */\n  dup2\n  mstore\n  0x20\n  add\n    /* \"contracts/Constants.sol\":15642:15708  0x25a3d89782f2ea4487bf4e2c9d8d00bd5d081b26130d273b300e5f06590b1718 */\n  0x25a3d89782f2ea4487bf4e2c9d8d00bd5d081b26130d273b300e5f06590b1718\n    /* \"contracts/Constants.sol\":12420:23542  uint256[] SRS_G1_Y = [\r... */\n  dup2\n  mstore\n  0x20\n  add\n    /* \"contracts/Constants.sol\":15728:15794  0x1c0bc9a8e12f0225e0a15b7050d9093ebf9c8d10a7dddc21051c005c50de88c2 */\n  0x1c0bc9a8e12f0225e0a15b7050d9093ebf9c8d10a7dddc21051c005c50de88c2\n    /* \"contracts/Constants.sol\":12420:23542  uint256[] SRS_G1_Y = [\r... */\n  dup2\n  mstore\n  0x20\n  add\n    /* \"contracts/Constants.sol\":15814:15880  0x04c351362d1ba5aaa5639af13c9ca3ae3a9452519ece8e9cd1a04cfd7856b2f6 */\n  0x4c351362d1ba5aaa5639af13c9ca3ae3a9452519ece8e9cd1a04cfd7856b2f6\n    /* \"contracts/Constants.sol\":12420:23542  uint256[] SRS_G1_Y = [\r... */\n  dup2\n  mstore\n  0x20\n  add\n    /* \"contracts/Constants.sol\":15900:15966  0x1f5eb724253d5f59b74fd1dca99c4b2f759f421571d22ec9902c0d4459df1e6f */\n  0x1f5eb724253d5f59b74fd1dca99c4b2f759f421571d22ec9902c0d4459df1e6f\n    /* \"contracts/Constants.sol\":12420:23542  uint256[] SRS_G1_Y = [\r... */\n  dup2\n  mstore\n  0x20\n  add\n    /* \"contracts/Constants.sol\":15986:16052  0x0045d1de9fa72244143f328dfb89f9652b542109082d487cb347b948dc310605 */\n  0x45d1de9fa72244143f328dfb89f9652b542109082d487cb347b948dc310605\n    /* \"contracts/Constants.sol\":12420:23542  uint256[] SRS_G1_Y = [\r... */\n  dup2\n  mstore\n  0x20\n  add\n    /* \"contracts/Constants.sol\":16072:16138  0x2f187d4be3dd9f05a6f462a6aa2381f53fb11c668247a72af37d9bed25e10721 */\n  0x2f187d4be3dd9f05a6f462a6aa2381f53fb11c668247a72af37d9bed25e10721\n    /* \"contracts/Constants.sol\":12420:23542  uint256[] SRS_G1_Y = [\r... */\n  dup2\n  mstore\n  0x20\n  add\n    /* \"contracts/Constants.sol\":16158:16224  0x0f9073543658e3f5fcfb8aa7df76429d65ca79946fb66e1d7290a2d038da9c72 */\n  0xf9073543658e3f5fcfb8aa7df76429d65ca79946fb66e1d7290a2d038da9c72\n    /* \"contracts/Constants.sol\":12420:23542  uint256[] SRS_G1_Y = [\r... */\n  dup2\n  mstore\n  0x20\n  add\n    /* \"contracts/Constants.sol\":16244:16310  0x149aa20ce146dbe877edefc4ec10d088eb1f92c7a8873c7b56772e2da887f010 */\n  0x149aa20ce146dbe877edefc4ec10d088eb1f92c7a8873c7b56772e2da887f010\n    /* \"contracts/Constants.sol\":12420:23542  uint256[] SRS_G1_Y = [\r... */\n  dup2\n  mstore\n  0x20\n  add\n    /* \"contracts/Constants.sol\":16330:16396  0x0ceae61a535d7bc905c6203eb8e421c2ba3addf6d5bb739822ce2353c748340f */\n  0xceae61a535d7bc905c6203eb8e421c2ba3addf6d5bb739822ce2353c748340f\n    /* \"contracts/Constants.sol\":12420:23542  uint256[] SRS_G1_Y = [\r... */\n  dup2\n  mstore\n  0x20\n  add\n    /* \"contracts/Constants.sol\":16416:16482  0x1b145d1d7d659a7f23a96e0d52b8ba61624484b56b66b847bfc6a884b3acaafe */\n  0x1b145d1d7d659a7f23a96e0d52b8ba61624484b56b66b847bfc6a884b3acaafe\n    /* \"contracts/Constants.sol\":12420:23542  uint256[] SRS_G1_Y = [\r... */\n  dup2\n  mstore\n  0x20\n  add\n    /* \"contracts/Constants.sol\":16502:16568  0x25f29b1bae3b366e2398abb7571157b5d52343ef903d4aa82fa76a9c041e923b */\n  0x25f29b1bae3b366e2398abb7571157b5d52343ef903d4aa82fa76a9c041e923b\n    /* \"contracts/Constants.sol\":12420:23542  uint256[] SRS_G1_Y = [\r... */\n  dup2\n  mstore\n  0x20\n  add\n    /* \"contracts/Constants.sol\":16588:16654  0x0d0d8a2b608a7c11e5deaacbb38581ba9f5f093e0a394aa83de5d45aa224ff5f */\n  0xd0d8a2b608a7c11e5deaacbb38581ba9f5f093e0a394aa83de5d45aa224ff5f\n    /* \"contracts/Constants.sol\":12420:23542  uint256[] SRS_G1_Y = [\r... */\n  dup2\n  mstore\n  0x20\n  add\n    /* \"contracts/Constants.sol\":16674:16740  0x0a43b44970fa36ddb115c385df350f48706d77f2641e17b1ec8eb8fe6ea86dc0 */\n  0xa43b44970fa36ddb115c385df350f48706d77f2641e17b1ec8eb8fe6ea86dc0\n    /* \"contracts/Constants.sol\":12420:23542  uint256[] SRS_G1_Y = [\r... */\n  dup2\n  mstore\n  0x20\n  add\n    /* \"contracts/Constants.sol\":16760:16826  0x19f16b73cd232170391b5c09654cf40011204c263b253b487714527a4e3d1331 */\n  0x19f16b73cd232170391b5c09654cf40011204c263b253b487714527a4e3d1331\n    /* \"contracts/Constants.sol\":12420:23542  uint256[] SRS_G1_Y = [\r... */\n  dup2\n  mstore\n  0x20\n  add\n    /* \"contracts/Constants.sol\":16846:16912  0x0872d0852a8efc8fe2a31192189c431a7d4425887c0391f91423d5e3ea47d873 */\n  0x872d0852a8efc8fe2a31192189c431a7d4425887c0391f91423d5e3ea47d873\n    /* \"contracts/Constants.sol\":12420:23542  uint256[] SRS_G1_Y = [\r... */\n  dup2\n  mstore\n  0x20\n  add\n    /* \"contracts/Constants.sol\":16932:16998  0x00b717eb019c15daf8c2ebf5a3a901197b3955c5236118feb9aadaa3bf84206d */\n  0xb717eb019c15daf8c2ebf5a3a901197b3955c5236118feb9aadaa3bf84206d\n    /* \"contracts/Constants.sol\":12420:23542  uint256[] SRS_G1_Y = [\r... */\n  dup2\n  mstore\n  0x20\n  add\n    /* \"contracts/Constants.sol\":17018:17084  0x291c4e7df058a59bfd82e83cd3bffb9a2fd72dbbea166fd6982ef1057eafd2c8 */\n  0x291c4e7df058a59bfd82e83cd3bffb9a2fd72dbbea166fd6982ef1057eafd2c8\n    /* \"contracts/Constants.sol\":12420:23542  uint256[] SRS_G1_Y = [\r... */\n  dup2\n  mstore\n  0x20\n  add\n    /* \"contracts/Constants.sol\":17104:17170  0x015a235802a944021064fc6284132c366ad31bbe9558123bdd6c2d078a8c8e1e */\n  0x15a235802a944021064fc6284132c366ad31bbe9558123bdd6c2d078a8c8e1e\n    /* \"contracts/Constants.sol\":12420:23542  uint256[] SRS_G1_Y = [\r... */\n  dup2\n  mstore\n  0x20\n  add\n    /* \"contracts/Constants.sol\":17190:17256  0x22a73d8429ea8b36b88df533c5376b04cf3da473bf20da9e23feed2f27beb959 */\n  0x22a73d8429ea8b36b88df533c5376b04cf3da473bf20da9e23feed2f27beb959\n    /* \"contracts/Constants.sol\":12420:23542  uint256[] SRS_G1_Y = [\r... */\n  dup2\n  mstore\n  0x20\n  add\n    /* \"contracts/Constants.sol\":17276:17342  0x2d5711ed390df1fa1e87f2990b178b35b7e12718f24c57a051f6682b5cae9358 */\n  0x2d5711ed390df1fa1e87f2990b178b35b7e12718f24c57a051f6682b5cae9358\n    /* \"contracts/Constants.sol\":12420:23542  uint256[] SRS_G1_Y = [\r... */\n  dup2\n  mstore\n  0x20\n  add\n    /* \"contracts/Constants.sol\":17362:17428  0x15019cab7966fed1d524a74a25ede548e4056efcf9e0f9eb18ade4c6e300b4d7 */\n  0x15019cab7966fed1d524a74a25ede548e4056efcf9e0f9eb18ade4c6e300b4d7\n    /* \"contracts/Constants.sol\":12420:23542  uint256[] SRS_G1_Y = [\r... */\n  dup2\n  mstore\n  0x20\n  add\n    /* \"contracts/Constants.sol\":17448:17514  0x24b2e6f1d24d364908496c72266ffa3d217e563083b3fc938824c183ca2c8236 */\n  0x24b2e6f1d24d364908496c72266ffa3d217e563083b3fc938824c183ca2c8236\n    /* \"contracts/Constants.sol\":12420:23542  uint256[] SRS_G1_Y = [\r... */\n  dup2\n  mstore\n  0x20\n  add\n    /* \"contracts/Constants.sol\":17534:17600  0x1d039cfa26ad29bef82e74a1da3634e5430128143022d7e1a2889d4cdbaca7bc */\n  0x1d039cfa26ad29bef82e74a1da3634e5430128143022d7e1a2889d4cdbaca7bc\n    /* \"contracts/Constants.sol\":12420:23542  uint256[] SRS_G1_Y = [\r... */\n  dup2\n  mstore\n  0x20\n  add\n    /* \"contracts/Constants.sol\":17620:17686  0x303b4543b0ee763a4613004fa96206297a17f2c5eac19f53590f08d31b5a97f4 */\n  0x303b4543b0ee763a4613004fa96206297a17f2c5eac19f53590f08d31b5a97f4\n    /* \"contracts/Constants.sol\":12420:23542  uint256[] SRS_G1_Y = [\r... */\n  dup2\n  mstore\n  0x20\n  add\n    /* \"contracts/Constants.sol\":17706:17772  0x224bf61e71a3ee0327eb5af20b1f2718fd1c122bde7d5bce8d6ced5cb17da20e */\n  0x224bf61e71a3ee0327eb5af20b1f2718fd1c122bde7d5bce8d6ced5cb17da20e\n    /* \"contracts/Constants.sol\":12420:23542  uint256[] SRS_G1_Y = [\r... */\n  dup2\n  mstore\n  0x20\n  add\n    /* \"contracts/Constants.sol\":17792:17858  0x290cae27dbe937b9d85b5e615f8c41d43d6cb9f6ac5a3eb3b6ea5ca46f918fe9 */\n  0x290cae27dbe937b9d85b5e615f8c41d43d6cb9f6ac5a3eb3b6ea5ca46f918fe9\n    /* \"contracts/Constants.sol\":12420:23542  uint256[] SRS_G1_Y = [\r... */\n  dup2\n  mstore\n  0x20\n  add\n    /* \"contracts/Constants.sol\":17878:17944  0x2a254e8bcfc6e7c251e66c109f246aba1ac47ed20c618cd5e56d3b77078bfb34 */\n  0x2a254e8bcfc6e7c251e66c109f246aba1ac47ed20c618cd5e56d3b77078bfb34\n    /* \"contracts/Constants.sol\":12420:23542  uint256[] SRS_G1_Y = [\r... */\n  dup2\n  mstore\n  0x20\n  add\n    /* \"contracts/Constants.sol\":17964:18030  0x1f4e246aefa67f3b2680af0cf06bca2d0f6601c8bcbb7db5ea765a1cdfeb25a6 */\n  0x1f4e246aefa67f3b2680af0cf06bca2d0f6601c8bcbb7db5ea765a1cdfeb25a6\n    /* \"contracts/Constants.sol\":12420:23542  uint256[] SRS_G1_Y = [\r... */\n  dup2\n  mstore\n  0x20\n  add\n    /* \"contracts/Constants.sol\":18050:18116  0x038f0a9aaf22cd265ad2faf248ad858a6b72658b4bb58a87deafe19580aedb47 */\n  0x38f0a9aaf22cd265ad2faf248ad858a6b72658b4bb58a87deafe19580aedb47\n    /* \"contracts/Constants.sol\":12420:23542  uint256[] SRS_G1_Y = [\r... */\n  dup2\n  mstore\n  0x20\n  add\n    /* \"contracts/Constants.sol\":18136:18202  0x0c20195898635dcd0baba574bdf883459f85d98e54ec45693a82ed8a941b37ca */\n  0xc20195898635dcd0baba574bdf883459f85d98e54ec45693a82ed8a941b37ca\n    /* \"contracts/Constants.sol\":12420:23542  uint256[] SRS_G1_Y = [\r... */\n  dup2\n  mstore\n  0x20\n  add\n    /* \"contracts/Constants.sol\":18222:18288  0x234bd122b666c98734e0938cc35698596cd3a12ce346fa206cfc54926878d7a7 */\n  0x234bd122b666c98734e0938cc35698596cd3a12ce346fa206cfc54926878d7a7\n    /* \"contracts/Constants.sol\":12420:23542  uint256[] SRS_G1_Y = [\r... */\n  dup2\n  mstore\n  0x20\n  add\n    /* \"contracts/Constants.sol\":18308:18374  0x1f2120194205cb2147fcfaf8be22edb6001ff7fe2bd5216024644d172bbb2142 */\n  0x1f2120194205cb2147fcfaf8be22edb6001ff7fe2bd5216024644d172bbb2142\n    /* \"contracts/Constants.sol\":12420:23542  uint256[] SRS_G1_Y = [\r... */\n  dup2\n  mstore\n  0x20\n  add\n    /* \"contracts/Constants.sol\":18394:18460  0x00fea1899d321bd5328eedffaad5cf47d7bdf8201e01e9dba140050ec205d0bb */\n  0xfea1899d321bd5328eedffaad5cf47d7bdf8201e01e9dba140050ec205d0bb\n    /* \"contracts/Constants.sol\":12420:23542  uint256[] SRS_G1_Y = [\r... */\n  dup2\n  mstore\n  0x20\n  add\n    /* \"contracts/Constants.sol\":18480:18546  0x11fc36dee7eea4ec379423863a4009e79b57837de3c776c8e376f40b74f45bff */\n  0x11fc36dee7eea4ec379423863a4009e79b57837de3c776c8e376f40b74f45bff\n    /* \"contracts/Constants.sol\":12420:23542  uint256[] SRS_G1_Y = [\r... */\n  dup2\n  mstore\n  0x20\n  add\n    /* \"contracts/Constants.sol\":18566:18632  0x24758ba34ce9b0f6614e5172cf7be92ef4907bbd4df9c65c78be37f764febdb8 */\n  0x24758ba34ce9b0f6614e5172cf7be92ef4907bbd4df9c65c78be37f764febdb8\n    /* \"contracts/Constants.sol\":12420:23542  uint256[] SRS_G1_Y = [\r... */\n  dup2\n  mstore\n  0x20\n  add\n    /* \"contracts/Constants.sol\":18652:18718  0x0d0584624f800ea25e12064a54ab7ff764cabd521ee9d85a379599ccacb1d050 */\n  0xd0584624f800ea25e12064a54ab7ff764cabd521ee9d85a379599ccacb1d050\n    /* \"contracts/Constants.sol\":12420:23542  uint256[] SRS_G1_Y = [\r... */\n  dup2\n  mstore\n  0x20\n  add\n    /* \"contracts/Constants.sol\":18738:18804  0x279e037ed29fe73e29523201a3da7ba8461a2a125ea339b5d419f76187c5daa7 */\n  0x279e037ed29fe73e29523201a3da7ba8461a2a125ea339b5d419f76187c5daa7\n    /* \"contracts/Constants.sol\":12420:23542  uint256[] SRS_G1_Y = [\r... */\n  dup2\n  mstore\n  0x20\n  add\n    /* \"contracts/Constants.sol\":18824:18890  0x15b4f4fe52ac379489a0c322d04881582f8d91ec59df1d2b551f5959f4f73ab4 */\n  0x15b4f4fe52ac379489a0c322d04881582f8d91ec59df1d2b551f5959f4f73ab4\n    /* \"contracts/Constants.sol\":12420:23542  uint256[] SRS_G1_Y = [\r... */\n  dup2\n  mstore\n  0x20\n  add\n    /* \"contracts/Constants.sol\":18910:18976  0x0148c7412573d5bb7042f7aab20805d8bb323eab5780b7d62d20d2cc43d3a056 */\n  0x148c7412573d5bb7042f7aab20805d8bb323eab5780b7d62d20d2cc43d3a056\n    /* \"contracts/Constants.sol\":12420:23542  uint256[] SRS_G1_Y = [\r... */\n  dup2\n  mstore\n  0x20\n  add\n    /* \"contracts/Constants.sol\":18996:19062  0x0f3735f595d4b7c49efdd21826c0c04418e293f8977f8452c3b5290517dc5f46 */\n  0xf3735f595d4b7c49efdd21826c0c04418e293f8977f8452c3b5290517dc5f46\n    /* \"contracts/Constants.sol\":12420:23542  uint256[] SRS_G1_Y = [\r... */\n  dup2\n  mstore\n  0x20\n  add\n    /* \"contracts/Constants.sol\":19082:19148  0x0325b26ab0d50baa0ae526a62085a9d964db03c45a5925a33af35f975212261a */\n  0x325b26ab0d50baa0ae526a62085a9d964db03c45a5925a33af35f975212261a\n    /* \"contracts/Constants.sol\":12420:23542  uint256[] SRS_G1_Y = [\r... */\n  dup2\n  mstore\n  0x20\n  add\n    /* \"contracts/Constants.sol\":19168:19234  0x28f2718fdf99ba20651857bfe40763a7fdeb0bf51c95c86228e12971dcba2488 */\n  0x28f2718fdf99ba20651857bfe40763a7fdeb0bf51c95c86228e12971dcba2488\n    /* \"contracts/Constants.sol\":12420:23542  uint256[] SRS_G1_Y = [\r... */\n  dup2\n  mstore\n  0x20\n  add\n    /* \"contracts/Constants.sol\":19254:19320  0x0734b877472354a0ecd5f2a0cc586743b24fa0e62f73fe30e7e03aba4a6539ad */\n  0x734b877472354a0ecd5f2a0cc586743b24fa0e62f73fe30e7e03aba4a6539ad\n    /* \"contracts/Constants.sol\":12420:23542  uint256[] SRS_G1_Y = [\r... */\n  dup2\n  mstore\n  0x20\n  add\n    /* \"contracts/Constants.sol\":19340:19406  0x04043bac7985131e179843002ddd2bb677007727c1afcfe0482b3768dd651ec6 */\n  0x4043bac7985131e179843002ddd2bb677007727c1afcfe0482b3768dd651ec6\n    /* \"contracts/Constants.sol\":12420:23542  uint256[] SRS_G1_Y = [\r... */\n  dup2\n  mstore\n  0x20\n  add\n    /* \"contracts/Constants.sol\":19426:19492  0x0cadf7f6fed14559a71c8120a94986dd15233aa7cbe1833e4a64d1538f7c7545 */\n  0xcadf7f6fed14559a71c8120a94986dd15233aa7cbe1833e4a64d1538f7c7545\n    /* \"contracts/Constants.sol\":12420:23542  uint256[] SRS_G1_Y = [\r... */\n  dup2\n  mstore\n  0x20\n  add\n    /* \"contracts/Constants.sol\":19512:19578  0x288a32405234a5d5808ebdd26216cc3b037c456458cbbc04624245f884cf31ea */\n  0x288a32405234a5d5808ebdd26216cc3b037c456458cbbc04624245f884cf31ea\n    /* \"contracts/Constants.sol\":12420:23542  uint256[] SRS_G1_Y = [\r... */\n  dup2\n  mstore\n  0x20\n  add\n    /* \"contracts/Constants.sol\":19598:19664  0x2322b693732bcd38a5bc287595c91124243f6e3bfd2589986c82d998d5286089 */\n  0x2322b693732bcd38a5bc287595c91124243f6e3bfd2589986c82d998d5286089\n    /* \"contracts/Constants.sol\":12420:23542  uint256[] SRS_G1_Y = [\r... */\n  dup2\n  mstore\n  0x20\n  add\n    /* \"contracts/Constants.sol\":19684:19750  0x12424a6422286c73f44ca4ef472c023ddafa71ca4afff44a188141058980f1d3 */\n  0x12424a6422286c73f44ca4ef472c023ddafa71ca4afff44a188141058980f1d3\n    /* \"contracts/Constants.sol\":12420:23542  uint256[] SRS_G1_Y = [\r... */\n  dup2\n  mstore\n  0x20\n  add\n    /* \"contracts/Constants.sol\":19770:19836  0x12382b745a02b93c31584e102aeb09d8bd471d33d0acec21d6e4478e5ae2ad05 */\n  0x12382b745a02b93c31584e102aeb09d8bd471d33d0acec21d6e4478e5ae2ad05\n    /* \"contracts/Constants.sol\":12420:23542  uint256[] SRS_G1_Y = [\r... */\n  dup2\n  mstore\n  0x20\n  add\n    /* \"contracts/Constants.sol\":19856:19922  0x10a5e23fa88595f036718db0940504de24ff70aa93b3113612525b700c730a79 */\n  0x10a5e23fa88595f036718db0940504de24ff70aa93b3113612525b700c730a79\n    /* \"contracts/Constants.sol\":12420:23542  uint256[] SRS_G1_Y = [\r... */\n  dup2\n  mstore\n  0x20\n  add\n    /* \"contracts/Constants.sol\":19942:20008  0x21d0da6f54a12fa3590f970017c0cf8314ac5a5f3a31d34ebe504baf52673993 */\n  0x21d0da6f54a12fa3590f970017c0cf8314ac5a5f3a31d34ebe504baf52673993\n    /* \"contracts/Constants.sol\":12420:23542  uint256[] SRS_G1_Y = [\r... */\n  dup2\n  mstore\n  0x20\n  add\n    /* \"contracts/Constants.sol\":20028:20094  0x0c5fdeef3b5064d8fb28bdb67bf4cf82ccdb21ab8cc3f48dbde13e2a779086cb */\n  0xc5fdeef3b5064d8fb28bdb67bf4cf82ccdb21ab8cc3f48dbde13e2a779086cb\n    /* \"contracts/Constants.sol\":12420:23542  uint256[] SRS_G1_Y = [\r... */\n  dup2\n  mstore\n  0x20\n  add\n    /* \"contracts/Constants.sol\":20114:20180  0x07350301a21ba4c6ed6f0b24ddfef0641a270be7271942c4bc5f82078333a4e4 */\n  0x7350301a21ba4c6ed6f0b24ddfef0641a270be7271942c4bc5f82078333a4e4\n    /* \"contracts/Constants.sol\":12420:23542  uint256[] SRS_G1_Y = [\r... */\n  dup2\n  mstore\n  0x20\n  add\n    /* \"contracts/Constants.sol\":20200:20266  0x107d51fca8445f86c44d3148589c7e829b9e89d4013b3ea0d8cc076935b2029d */\n  0x107d51fca8445f86c44d3148589c7e829b9e89d4013b3ea0d8cc076935b2029d\n    /* \"contracts/Constants.sol\":12420:23542  uint256[] SRS_G1_Y = [\r... */\n  dup2\n  mstore\n  0x20\n  add\n    /* \"contracts/Constants.sol\":20286:20352  0x2d0c96327fa1f2a9ab6afecfb7494c60a3345b76c709452624286ebb6ba34225 */\n  0x2d0c96327fa1f2a9ab6afecfb7494c60a3345b76c709452624286ebb6ba34225\n    /* \"contracts/Constants.sol\":12420:23542  uint256[] SRS_G1_Y = [\r... */\n  dup2\n  mstore\n  0x20\n  add\n    /* \"contracts/Constants.sol\":20372:20438  0x282d020250c192491494dc757314f9b6f046e9a084236f770dd5cea0d8261c7f */\n  0x282d020250c192491494dc757314f9b6f046e9a084236f770dd5cea0d8261c7f\n    /* \"contracts/Constants.sol\":12420:23542  uint256[] SRS_G1_Y = [\r... */\n  dup2\n  mstore\n  0x20\n  add\n    /* \"contracts/Constants.sol\":20458:20524  0x1f1d45d529d2acd871b7dc98a387ffd9c0b172da7a3e6bd4b70cb70e297f4a37 */\n  0x1f1d45d529d2acd871b7dc98a387ffd9c0b172da7a3e6bd4b70cb70e297f4a37\n    /* \"contracts/Constants.sol\":12420:23542  uint256[] SRS_G1_Y = [\r... */\n  dup2\n  mstore\n  0x20\n  add\n    /* \"contracts/Constants.sol\":20544:20610  0x1c5f400a637a690b95fcbefd0a201ad35963f30da3ed3204be68fe25257194d3 */\n  0x1c5f400a637a690b95fcbefd0a201ad35963f30da3ed3204be68fe25257194d3\n    /* \"contracts/Constants.sol\":12420:23542  uint256[] SRS_G1_Y = [\r... */\n  dup2\n  mstore\n  0x20\n  add\n    /* \"contracts/Constants.sol\":20630:20696  0x06ec73abe97909b53e2f3b13c04a5ead3c79a5c5fd1bb1028dee3af44e894a76 */\n  0x6ec73abe97909b53e2f3b13c04a5ead3c79a5c5fd1bb1028dee3af44e894a76\n    /* \"contracts/Constants.sol\":12420:23542  uint256[] SRS_G1_Y = [\r... */\n  dup2\n  mstore\n  0x20\n  add\n    /* \"contracts/Constants.sol\":20716:20782  0x173803ec88cb821831bf5b4e95ddb46f048d4f23ffc09216eafb8fb5157dde0b */\n  0x173803ec88cb821831bf5b4e95ddb46f048d4f23ffc09216eafb8fb5157dde0b\n    /* \"contracts/Constants.sol\":12420:23542  uint256[] SRS_G1_Y = [\r... */\n  dup2\n  mstore\n  0x20\n  add\n    /* \"contracts/Constants.sol\":20802:20868  0x2050a6d610fd945c5c1a93058981803b086b545e7f406185c1b547b9a55d752e */\n  0x2050a6d610fd945c5c1a93058981803b086b545e7f406185c1b547b9a55d752e\n    /* \"contracts/Constants.sol\":12420:23542  uint256[] SRS_G1_Y = [\r... */\n  dup2\n  mstore\n  0x20\n  add\n    /* \"contracts/Constants.sol\":20888:20954  0x1cfae703a5336d3624c52aa816b6229ff3ea26e9e0b888a05471d2cc2ab832f9 */\n  0x1cfae703a5336d3624c52aa816b6229ff3ea26e9e0b888a05471d2cc2ab832f9\n    /* \"contracts/Constants.sol\":12420:23542  uint256[] SRS_G1_Y = [\r... */\n  dup2\n  mstore\n  0x20\n  add\n    /* \"contracts/Constants.sol\":20974:21040  0x00920238b751931d557cf04214484958ef1f31248cb424e0f0fb0ac0dd78d113 */\n  0x920238b751931d557cf04214484958ef1f31248cb424e0f0fb0ac0dd78d113\n    /* \"contracts/Constants.sol\":12420:23542  uint256[] SRS_G1_Y = [\r... */\n  dup2\n  mstore\n  0x20\n  add\n    /* \"contracts/Constants.sol\":21060:21126  0x19460b7b47698fcce9a08b0f5c9201993a9aa36e09e4415c9f2269a418ba63f7 */\n  0x19460b7b47698fcce9a08b0f5c9201993a9aa36e09e4415c9f2269a418ba63f7\n    /* \"contracts/Constants.sol\":12420:23542  uint256[] SRS_G1_Y = [\r... */\n  dup2\n  mstore\n  0x20\n  add\n    /* \"contracts/Constants.sol\":21146:21212  0x0b32bdbd0a569fd886837697c61fc23a3b6b631959dfa787b50271b249cf62ba */\n  0xb32bdbd0a569fd886837697c61fc23a3b6b631959dfa787b50271b249cf62ba\n    /* \"contracts/Constants.sol\":12420:23542  uint256[] SRS_G1_Y = [\r... */\n  dup2\n  mstore\n  0x20\n  add\n    /* \"contracts/Constants.sol\":21232:21298  0x27eb8f3f578d0f86145d16e7464119d75faff0149c8972df63e45e3aa9d9beef */\n  0x27eb8f3f578d0f86145d16e7464119d75faff0149c8972df63e45e3aa9d9beef\n    /* \"contracts/Constants.sol\":12420:23542  uint256[] SRS_G1_Y = [\r... */\n  dup2\n  mstore\n  0x20\n  add\n    /* \"contracts/Constants.sol\":21318:21384  0x27f799f1ce2a5ed1e1669bee620eab54a6895f7e06c8742be0b87af49db71227 */\n  0x27f799f1ce2a5ed1e1669bee620eab54a6895f7e06c8742be0b87af49db71227\n    /* \"contracts/Constants.sol\":12420:23542  uint256[] SRS_G1_Y = [\r... */\n  dup2\n  mstore\n  0x20\n  add\n    /* \"contracts/Constants.sol\":21404:21470  0x195bab2ce40c27c5553815a87d887c5dff3af38b5c45d5dc18f39722dd5f1f83 */\n  0x195bab2ce40c27c5553815a87d887c5dff3af38b5c45d5dc18f39722dd5f1f83\n    /* \"contracts/Constants.sol\":12420:23542  uint256[] SRS_G1_Y = [\r... */\n  dup2\n  mstore\n  0x20\n  add\n    /* \"contracts/Constants.sol\":21490:21556  0x1c2cafd5c56f4be8a93e06eec3c5fb723d8bfbb64b536caf13d6ad5873277a85 */\n  0x1c2cafd5c56f4be8a93e06eec3c5fb723d8bfbb64b536caf13d6ad5873277a85\n    /* \"contracts/Constants.sol\":12420:23542  uint256[] SRS_G1_Y = [\r... */\n  dup2\n  mstore\n  0x20\n  add\n    /* \"contracts/Constants.sol\":21576:21642  0x01aea92ca3e59ff975a3913e6ceb5205985617b020f8df64611a3b87b17791cb */\n  0x1aea92ca3e59ff975a3913e6ceb5205985617b020f8df64611a3b87b17791cb\n    /* \"contracts/Constants.sol\":12420:23542  uint256[] SRS_G1_Y = [\r... */\n  dup2\n  mstore\n  0x20\n  add\n    /* \"contracts/Constants.sol\":21662:21728  0x0f51d61e0665150867a59afb240b2065427624b17beccb46da3f637262fb3faa */\n  0xf51d61e0665150867a59afb240b2065427624b17beccb46da3f637262fb3faa\n    /* \"contracts/Constants.sol\":12420:23542  uint256[] SRS_G1_Y = [\r... */\n  dup2\n  mstore\n  0x20\n  add\n    /* \"contracts/Constants.sol\":21748:21814  0x1f23e3e87c40f7ba850ed06bc775dc9e798d928e14e8e35a2066337f8b85261b */\n  0x1f23e3e87c40f7ba850ed06bc775dc9e798d928e14e8e35a2066337f8b85261b\n    /* \"contracts/Constants.sol\":12420:23542  uint256[] SRS_G1_Y = [\r... */\n  dup2\n  mstore\n  0x20\n  add\n    /* \"contracts/Constants.sol\":21834:21900  0x1b296b0c2ca61a7693fcf69c7b5f7483277c4d1078cd5f19df12f2f494fc9918 */\n  0x1b296b0c2ca61a7693fcf69c7b5f7483277c4d1078cd5f19df12f2f494fc9918\n    /* \"contracts/Constants.sol\":12420:23542  uint256[] SRS_G1_Y = [\r... */\n  dup2\n  mstore\n  0x20\n  add\n    /* \"contracts/Constants.sol\":21920:21986  0x11d4f84493b1bd7f9fb3463b1f1211fae055700346a966bdc25dcbf8070c4ded */\n  0x11d4f84493b1bd7f9fb3463b1f1211fae055700346a966bdc25dcbf8070c4ded\n    /* \"contracts/Constants.sol\":12420:23542  uint256[] SRS_G1_Y = [\r... */\n  dup2\n  mstore\n  0x20\n  add\n    /* \"contracts/Constants.sol\":22006:22072  0x03591b124a5100f4ab1d04f1c8d6daacdd598c0a7d1cfc2d891dcdf305018f72 */\n  0x3591b124a5100f4ab1d04f1c8d6daacdd598c0a7d1cfc2d891dcdf305018f72\n    /* \"contracts/Constants.sol\":12420:23542  uint256[] SRS_G1_Y = [\r... */\n  dup2\n  mstore\n  0x20\n  add\n    /* \"contracts/Constants.sol\":22092:22158  0x0286d0964f98554397ed0378ac62009e57ad0ef010d6c9c14a66cbe5973ebb8d */\n  0x286d0964f98554397ed0378ac62009e57ad0ef010d6c9c14a66cbe5973ebb8d\n    /* \"contracts/Constants.sol\":12420:23542  uint256[] SRS_G1_Y = [\r... */\n  dup2\n  mstore\n  0x20\n  add\n    /* \"contracts/Constants.sol\":22178:22244  0x2915be98166b8684f23bfe4d5db880d3094fc6f5a45c77fc604b17b0be09f71e */\n  0x2915be98166b8684f23bfe4d5db880d3094fc6f5a45c77fc604b17b0be09f71e\n    /* \"contracts/Constants.sol\":12420:23542  uint256[] SRS_G1_Y = [\r... */\n  dup2\n  mstore\n  0x20\n  add\n    /* \"contracts/Constants.sol\":22264:22330  0x05842457076bb32999bb4f18a38a59d9e738aa1a41364d11be8ae28ea446cb58 */\n  0x5842457076bb32999bb4f18a38a59d9e738aa1a41364d11be8ae28ea446cb58\n    /* \"contracts/Constants.sol\":12420:23542  uint256[] SRS_G1_Y = [\r... */\n  dup2\n  mstore\n  0x20\n  add\n    /* \"contracts/Constants.sol\":22350:22416  0x0a09416f7bf18562a68d5273973eb673d032695ae1e20a9db051c74cf72711a8 */\n  0xa09416f7bf18562a68d5273973eb673d032695ae1e20a9db051c74cf72711a8\n    /* \"contracts/Constants.sol\":12420:23542  uint256[] SRS_G1_Y = [\r... */\n  dup2\n  mstore\n  0x20\n  add\n    /* \"contracts/Constants.sol\":22436:22502  0x09fe21bf0de83b7359af8972a1a30534e5e1de75a61f29da1ea3f9128f26a392 */\n  0x9fe21bf0de83b7359af8972a1a30534e5e1de75a61f29da1ea3f9128f26a392\n    /* \"contracts/Constants.sol\":12420:23542  uint256[] SRS_G1_Y = [\r... */\n  dup2\n  mstore\n  0x20\n  add\n    /* \"contracts/Constants.sol\":22522:22588  0x0dd4fe56a197133b53fec74610feb568826781996459722fec0995a70375a3b8 */\n  0xdd4fe56a197133b53fec74610feb568826781996459722fec0995a70375a3b8\n    /* \"contracts/Constants.sol\":12420:23542  uint256[] SRS_G1_Y = [\r... */\n  dup2\n  mstore\n  0x20\n  add\n    /* \"contracts/Constants.sol\":22608:22674  0x2d289e6c918e44cfd81520cb6578b8083f34709902bee8f67f503f3d602b717f */\n  0x2d289e6c918e44cfd81520cb6578b8083f34709902bee8f67f503f3d602b717f\n    /* \"contracts/Constants.sol\":12420:23542  uint256[] SRS_G1_Y = [\r... */\n  dup2\n  mstore\n  0x20\n  add\n    /* \"contracts/Constants.sol\":22694:22760  0x2533fe6f024cdca297e6be92aa60db3190e53c1cf836e8167afc6a00eaaecafb */\n  0x2533fe6f024cdca297e6be92aa60db3190e53c1cf836e8167afc6a00eaaecafb\n    /* \"contracts/Constants.sol\":12420:23542  uint256[] SRS_G1_Y = [\r... */\n  dup2\n  mstore\n  0x20\n  add\n    /* \"contracts/Constants.sol\":22780:22846  0x21571af0f8a43e057e309ce03136a16d160d947d28be4edd398e781bab6263eb */\n  0x21571af0f8a43e057e309ce03136a16d160d947d28be4edd398e781bab6263eb\n    /* \"contracts/Constants.sol\":12420:23542  uint256[] SRS_G1_Y = [\r... */\n  dup2\n  mstore\n  0x20\n  add\n    /* \"contracts/Constants.sol\":22866:22932  0x0467dd0c3d1f4da968d51f662028283f40b9558fd5c649acfbf4f6d33b5a2a53 */\n  0x467dd0c3d1f4da968d51f662028283f40b9558fd5c649acfbf4f6d33b5a2a53\n    /* \"contracts/Constants.sol\":12420:23542  uint256[] SRS_G1_Y = [\r... */\n  dup2\n  mstore\n  0x20\n  add\n    /* \"contracts/Constants.sol\":22952:23018  0x207a62a6d7d9cca6a9a4985b5ab35bbcef9e828188edd26151a7a6f989b5ce11 */\n  0x207a62a6d7d9cca6a9a4985b5ab35bbcef9e828188edd26151a7a6f989b5ce11\n    /* \"contracts/Constants.sol\":12420:23542  uint256[] SRS_G1_Y = [\r... */\n  dup2\n  mstore\n  0x20\n  add\n    /* \"contracts/Constants.sol\":23038:23104  0x2be4b2d39d059658c55fa506005e7397cb656406e8310c037ab851fbec892d8c */\n  0x2be4b2d39d059658c55fa506005e7397cb656406e8310c037ab851fbec892d8c\n    /* \"contracts/Constants.sol\":12420:23542  uint256[] SRS_G1_Y = [\r... */\n  dup2\n  mstore\n  0x20\n  add\n    /* \"contracts/Constants.sol\":23124:23190  0x150946fadeff878b03d83c015e5c108b115774b0263945922f310ac52b64fc86 */\n  0x150946fadeff878b03d83c015e5c108b115774b0263945922f310ac52b64fc86\n    /* \"contracts/Constants.sol\":12420:23542  uint256[] SRS_G1_Y = [\r... */\n  dup2\n  mstore\n  0x20\n  add\n    /* \"contracts/Constants.sol\":23210:23276  0x07be02e86e6904c2e6580f9396a029fe2df096b53d891dcf57ebc6fbb9935525 */\n  0x7be02e86e6904c2e6580f9396a029fe2df096b53d891dcf57ebc6fbb9935525\n    /* \"contracts/Constants.sol\":12420:23542  uint256[] SRS_G1_Y = [\r... */\n  dup2\n  mstore\n  0x20\n  add\n    /* \"contracts/Constants.sol\":23296:23362  0x162a19e9d3670993b04862326b2be2f48dee94a4b62df2d08addb3fb99e1c301 */\n  0x162a19e9d3670993b04862326b2be2f48dee94a4b62df2d08addb3fb99e1c301\n    /* \"contracts/Constants.sol\":12420:23542  uint256[] SRS_G1_Y = [\r... */\n  dup2\n  mstore\n  0x20\n  add\n    /* \"contracts/Constants.sol\":23382:23448  0x0f6496a3f2609d24c928b2ba93d9dbef2ceb1129131cb1a49199be4c9e13fddc */\n  0xf6496a3f2609d24c928b2ba93d9dbef2ceb1129131cb1a49199be4c9e13fddc\n    /* \"contracts/Constants.sol\":12420:23542  uint256[] SRS_G1_Y = [\r... */\n  dup2\n  mstore\n  0x20\n  add\n    /* \"contracts/Constants.sol\":23468:23534  0x02f44ae6eb7ebfb4dcc6a3bee7a60a5a2cf15818c394a9833d41007d7da648c0 */\n  0x2f44ae6eb7ebfb4dcc6a3bee7a60a5a2cf15818c394a9833d41007d7da648c0\n    /* \"contracts/Constants.sol\":12420:23542  uint256[] SRS_G1_Y = [\r... */\n  dup2\n  mstore\n  pop\n  0x1\n  swap1\n  0x81\n  tag_3\n  swap3\n  swap2\n  swap1\n  jump\t// in(tag_2)\ntag_3:\n  pop\n    /* \"contracts/Constants.sol\":23551:23753  uint256[] SRS_G2_X_0 = [\r... */\n  0x40\n  dup1\n  mload\n  swap1\n  dup2\n  add\n  0x40\n  mstore\n  dup1\n    /* \"contracts/Constants.sol\":23593:23659  0x198e9393920d483a7260bfb731fb5d25f1aa493335a9e71297e485b7aef312c2 */\n  0x198e9393920d483a7260bfb731fb5d25f1aa493335a9e71297e485b7aef312c2\n    /* \"contracts/Constants.sol\":23551:23753  uint256[] SRS_G2_X_0 = [\r... */\n  dup2\n  mstore\n  0x20\n  add\n    /* \"contracts/Constants.sol\":23679:23745  0x21a808dad5c50720fb7294745cf4c87812ce0ea76baa7df4e922615d1388f25a */\n  0x21a808dad5c50720fb7294745cf4c87812ce0ea76baa7df4e922615d1388f25a\n    /* \"contracts/Constants.sol\":23551:23753  uint256[] SRS_G2_X_0 = [\r... */\n  dup2\n  mstore\n  pop\n  0x2\n  swap1\n  0x2\n  tag_4\n  swap3\n  swap2\n  swap1\n  jump\t// in(tag_5)\ntag_4:\n  pop\n    /* \"contracts/Constants.sol\":23762:23964  uint256[] SRS_G2_X_1 = [\r... */\n  0x40\n  dup1\n  mload\n  swap1\n  dup2\n  add\n  0x40\n  mstore\n  dup1\n    /* \"contracts/Constants.sol\":23804:23870  0x1800deef121f1e76426a00665e5c4479674322d4f75edadd46debd5cd992f6ed */\n  0x1800deef121f1e76426a00665e5c4479674322d4f75edadd46debd5cd992f6ed\n    /* \"contracts/Constants.sol\":23762:23964  uint256[] SRS_G2_X_1 = [\r... */\n  dup2\n  mstore\n  0x20\n  add\n    /* \"contracts/Constants.sol\":23890:23956  0x04c5e74c85a87f008a2feb4b5c8a1e7f9ba9d8eb40eb02e70139c89fb1c505a9 */\n  0x4c5e74c85a87f008a2feb4b5c8a1e7f9ba9d8eb40eb02e70139c89fb1c505a9\n    /* \"contracts/Constants.sol\":23762:23964  uint256[] SRS_G2_X_1 = [\r... */\n  dup2\n  mstore\n  pop\n  0x3\n  swap1\n  0x2\n  tag_6\n  swap3\n  swap2\n  swap1\n  jump\t// in(tag_5)\ntag_6:\n  pop\n    /* \"contracts/Constants.sol\":23973:24175  uint256[] SRS_G2_Y_0 = [\r... */\n  0x40\n  dup1\n  mload\n  swap1\n  dup2\n  add\n  0x40\n  mstore\n  dup1\n    /* \"contracts/Constants.sol\":24015:24081  0x090689d0585ff075ec9e99ad690c3395bc4b313370b38ef355acdadcd122975b */\n  0x90689d0585ff075ec9e99ad690c3395bc4b313370b38ef355acdadcd122975b\n    /* \"contracts/Constants.sol\":23973:24175  uint256[] SRS_G2_Y_0 = [\r... */\n  dup2\n  mstore\n  0x20\n  add\n    /* \"contracts/Constants.sol\":24101:24167  0x204b66d8e1fadc307c35187a6b813be0b46ba1cd720cd1c4ee5f68d13036b4ba */\n  0x204b66d8e1fadc307c35187a6b813be0b46ba1cd720cd1c4ee5f68d13036b4ba\n    /* \"contracts/Constants.sol\":23973:24175  uint256[] SRS_G2_Y_0 = [\r... */\n  dup2\n  mstore\n  pop\n  0x4\n  swap1\n  0x2\n  tag_7\n  swap3\n  swap2\n  swap1\n  jump\t// in(tag_5)\ntag_7:\n  pop\n    /* \"contracts/Constants.sol\":24184:24386  uint256[] SRS_G2_Y_1 = [\r... */\n  0x40\n  dup1\n  mload\n  swap1\n  dup2\n  add\n  0x40\n  mstore\n  dup1\n    /* \"contracts/Constants.sol\":24226:24292  0x12c85ea5db8c6deb4aab71808dcb408fe3d1e7690c43d37b4ce6cc0166fa7daa */\n  0x12c85ea5db8c6deb4aab71808dcb408fe3d1e7690c43d37b4ce6cc0166fa7daa\n    /* \"contracts/Constants.sol\":24184:24386  uint256[] SRS_G2_Y_1 = [\r... */\n  dup2\n  mstore\n  0x20\n  add\n    /* \"contracts/Constants.sol\":24312:24378  0x2d58022915fc6bc90e036e858fbc98055084ac7aff98ccceb0e3fde64bc1a084 */\n  0x2d58022915fc6bc90e036e858fbc98055084ac7aff98ccceb0e3fde64bc1a084\n    /* \"contracts/Constants.sol\":24184:24386  uint256[] SRS_G2_Y_1 = [\r... */\n  dup2\n  mstore\n  pop\n  0x5\n  swap1\n  0x2\n  tag_8\n  swap3\n  swap2\n  swap1\n  jump\t// in(tag_5)\ntag_8:\n  pop\n    /* \"contracts/kzgVerifier.sol\":352:446  Pairing.G1Point({\r... */\n  0x40\n  dup1\n  mload\n  swap1\n  dup2\n  add\n  0x40\n  mstore\n  dup1\n    /* \"contracts/kzgVerifier.sol\":382:400  Constants.SRS_G1_X */\n  0x0\n    /* \"contracts/kzgVerifier.sol\":401:402  0 */\n  dup1\n    /* \"contracts/kzgVerifier.sol\":382:403  Constants.SRS_G1_X[0] */\n  dup2\n  sload\n  dup2\n  lt\n  iszero\n  iszero\n  tag_9\n  jumpi\n  invalid\ntag_9:\n  swap1\n  0x0\n  mstore\n  keccak256(0x0, 0x20)\n  add\n  sload\n    /* \"contracts/kzgVerifier.sol\":352:446  Pairing.G1Point({\r... */\n  dup2\n  mstore\n  0x20\n  add\n    /* \"contracts/kzgVerifier.sol\":417:435  Constants.SRS_G1_Y */\n  0x1\n    /* \"contracts/kzgVerifier.sol\":436:437  0 */\n  0x0\n    /* \"contracts/kzgVerifier.sol\":417:438  Constants.SRS_G1_Y[0] */\n  dup2\n  sload\n  dup2\n  lt\n  iszero\n  iszero\n  tag_11\n  jumpi\n  invalid\ntag_11:\n  swap1\n  0x0\n  mstore\n  keccak256(0x0, 0x20)\n  add\n  sload\n    /* \"contracts/kzgVerifier.sol\":352:446  Pairing.G1Point({\r... */\n  dup2\n  mstore\n  pop\n    /* \"contracts/kzgVerifier.sol\":325:446  Pairing.G1Point SRS_G1_0 = Pairing.G1Point({\r... */\n  0x6\n  0x0\n  dup3\n  add\n  mload\n  dup2\n  0x0\n  add\n  sstore\n  0x20\n  dup3\n  add\n  mload\n  dup2\n  0x1\n  add\n  sstore\n  pop\n  pop\n    /* \"contracts/kzgVerifier.sol\":510:668  Pairing.G2Point({\r... */\n  0x40\n  dup1\n  mload\n  swap1\n  dup2\n  add\n  0x40\n  mstore\n  dup1\n  0x40\n  dup1\n  mload\n  swap1\n  dup2\n  add\n  0x40\n  mstore\n  dup1\n    /* \"contracts/kzgVerifier.sol\":542:562  Constants.SRS_G2_X_0 */\n  0x2\n    /* \"contracts/kzgVerifier.sol\":563:564  0 */\n  0x0\n    /* \"contracts/kzgVerifier.sol\":542:565  Constants.SRS_G2_X_0[0] */\n  dup2\n  sload\n  dup2\n  lt\n  iszero\n  iszero\n  tag_13\n  jumpi\n  invalid\ntag_13:\n  swap1\n  0x0\n  mstore\n  keccak256(0x0, 0x20)\n  add\n  sload\n    /* \"contracts/kzgVerifier.sol\":510:668  Pairing.G2Point({\r... */\n  dup2\n  mstore\n  0x20\n  add\n    /* \"contracts/kzgVerifier.sol\":567:587  Constants.SRS_G2_X_1 */\n  0x3\n    /* \"contracts/kzgVerifier.sol\":588:589  0 */\n  0x0\n    /* \"contracts/kzgVerifier.sol\":567:590  Constants.SRS_G2_X_1[0] */\n  dup2\n  sload\n  dup2\n  lt\n  iszero\n  iszero\n  tag_15\n  jumpi\n  invalid\ntag_15:\n  swap1\n  0x0\n  mstore\n  keccak256(0x0, 0x20)\n  add\n  sload\n    /* \"contracts/kzgVerifier.sol\":510:668  Pairing.G2Point({\r... */\n  dup2\n  mstore\n  pop\n  dup2\n  mstore\n  0x20\n  add\n  0x40\n  dup1\n  mload\n  swap1\n  dup2\n  add\n  0x40\n  mstore\n  dup1\n    /* \"contracts/kzgVerifier.sol\":608:628  Constants.SRS_G2_Y_0 */\n  0x4\n    /* \"contracts/kzgVerifier.sol\":629:630  0 */\n  0x0\n    /* \"contracts/kzgVerifier.sol\":608:631  Constants.SRS_G2_Y_0[0] */\n  dup2\n  sload\n  dup2\n  lt\n  iszero\n  iszero\n  tag_17\n  jumpi\n  invalid\ntag_17:\n  swap1\n  0x0\n  mstore\n  keccak256(0x0, 0x20)\n  add\n  sload\n    /* \"contracts/kzgVerifier.sol\":510:668  Pairing.G2Point({\r... */\n  dup2\n  mstore\n  0x20\n  add\n    /* \"contracts/kzgVerifier.sol\":633:653  Constants.SRS_G2_Y_1 */\n  0x5\n    /* \"contracts/kzgVerifier.sol\":654:655  0 */\n  0x0\n    /* \"contracts/kzgVerifier.sol\":633:656  Constants.SRS_G2_Y_1[0] */\n  dup2\n  sload\n  dup2\n  lt\n  iszero\n  iszero\n  tag_19\n  jumpi\n  invalid\ntag_19:\n  swap1\n  0x0\n  mstore\n  keccak256(0x0, 0x20)\n  add\n  sload\n    /* \"contracts/kzgVerifier.sol\":510:668  Pairing.G2Point({\r... */\n  dup2\n  mstore\n  pop\n  dup2\n  mstore\n  pop\n    /* \"contracts/kzgVerifier.sol\":480:668  Pairing.G2Point g2Generator = Pairing.G2Point({\r... */\n  0x8\n  0x0\n  dup3\n  add\n  mload\n  dup2\n  0x0\n  add\n  swap1\n  0x2\n  tag_21\n  swap3\n  swap2\n  swap1\n  jump\t// in(tag_22)\ntag_21:\n  pop\n  0x20\n  dup3\n  add\n  mload\n  dup2\n  0x2\n  add\n  swap1\n  0x2\n  tag_23\n  swap3\n  swap2\n  swap1\n  jump\t// in(tag_22)\ntag_23:\n  pop\n  pop\n  pop\n    /* \"contracts/kzgVerifier.sol\":704:860  Pairing.G2Point({\r... */\n  0x40\n  dup1\n  mload\n  swap1\n  dup2\n  add\n  0x40\n  mstore\n  dup1\n  0x40\n  dup1\n  mload\n  swap1\n  dup2\n  add\n  0x40\n  mstore\n  dup1\n    /* \"contracts/kzgVerifier.sol\":736:756  Constants.SRS_G2_X_0 */\n  0x2\n    /* \"contracts/kzgVerifier.sol\":757:758  1 */\n  0x1\n    /* \"contracts/kzgVerifier.sol\":736:759  Constants.SRS_G2_X_0[1] */\n  dup2\n  sload\n  dup2\n  lt\n  iszero\n  iszero\n  tag_24\n  jumpi\n  invalid\ntag_24:\n  swap1\n  0x0\n  mstore\n  keccak256(0x0, 0x20)\n  add\n  sload\n    /* \"contracts/kzgVerifier.sol\":704:860  Pairing.G2Point({\r... */\n  dup2\n  mstore\n  0x20\n  add\n    /* \"contracts/kzgVerifier.sol\":761:781  Constants.SRS_G2_X_1 */\n  0x3\n    /* \"contracts/kzgVerifier.sol\":782:783  1 */\n  0x1\n    /* \"contracts/kzgVerifier.sol\":761:784  Constants.SRS_G2_X_1[1] */\n  dup2\n  sload\n  dup2\n  lt\n  iszero\n  iszero\n  tag_26\n  jumpi\n  invalid\ntag_26:\n  swap1\n  0x0\n  mstore\n  keccak256(0x0, 0x20)\n  add\n  sload\n    /* \"contracts/kzgVerifier.sol\":704:860  Pairing.G2Point({\r... */\n  dup2\n  mstore\n  pop\n  dup2\n  mstore\n  0x20\n  add\n  0x40\n  dup1\n  mload\n  swap1\n  dup2\n  add\n  0x40\n  mstore\n  dup1\n    /* \"contracts/kzgVerifier.sol\":802:822  Constants.SRS_G2_Y_0 */\n  0x4\n    /* \"contracts/kzgVerifier.sol\":823:824  1 */\n  0x1\n    /* \"contracts/kzgVerifier.sol\":802:825  Constants.SRS_G2_Y_0[1] */\n  dup2\n  sload\n  dup2\n  lt\n  iszero\n  iszero\n  tag_28\n  jumpi\n  invalid\ntag_28:\n  swap1\n  0x0\n  mstore\n  keccak256(0x0, 0x20)\n  add\n  sload\n    /* \"contracts/kzgVerifier.sol\":704:860  Pairing.G2Point({\r... */\n  dup2\n  mstore\n  0x20\n  add\n    /* \"contracts/kzgVerifier.sol\":827:847  Constants.SRS_G2_Y_1 */\n  0x5\n    /* \"contracts/kzgVerifier.sol\":848:849  1 */\n  0x1\n    /* \"contracts/kzgVerifier.sol\":827:850  Constants.SRS_G2_Y_1[1] */\n  dup2\n  sload\n  dup2\n  lt\n  iszero\n  iszero\n  tag_30\n  jumpi\n  invalid\ntag_30:\n  swap1\n  0x0\n  mstore\n  keccak256(0x0, 0x20)\n  add\n  sload\n    /* \"contracts/kzgVerifier.sol\":704:860  Pairing.G2Point({\r... */\n  dup2\n  mstore\n  pop\n  dup2\n  mstore\n  pop\n    /* \"contracts/kzgVerifier.sol\":677:860  Pairing.G2Point SRS_G2_1 = Pairing.G2Point({\r... */\n  0xc\n  0x0\n  dup3\n  add\n  mload\n  dup2\n  0x0\n  add\n  swap1\n  0x2\n  tag_32\n  swap3\n  swap2\n  swap1\n  jump\t// in(tag_22)\ntag_32:\n  pop\n  0x20\n  dup3\n  add\n  mload\n  dup2\n  0x2\n  add\n  swap1\n  0x2\n  tag_33\n  swap3\n  swap2\n  swap1\n  jump\t// in(tag_22)\ntag_33:\n  pop\n  pop\n  pop\n    /* \"contracts/kzgVerifier.sol\":232:9809  contract Verifier is Constants {\r... */\n  callvalue\n    /* \"--CODEGEN--\":8:17   */\n  dup1\n    /* \"--CODEGEN--\":5:7   */\n  iszero\n  tag_34\n  jumpi\n    /* \"--CODEGEN--\":30:31   */\n  0x0\n    /* \"--CODEGEN--\":27:28   */\n  dup1\n    /* \"--CODEGEN--\":20:32   */\n  revert\n    /* \"--CODEGEN--\":5:7   */\ntag_34:\n    /* \"contracts/kzgVerifier.sol\":232:9809  contract Verifier is Constants {\r... */\n  pop\n  jump(tag_35)\ntag_2:\n  dup3\n  dup1\n  sload\n  dup3\n  dup3\n  sstore\n  swap1\n  0x0\n  mstore\n  keccak256(0x0, 0x20)\n  swap1\n  dup2\n  add\n  swap3\n  dup3\n  iszero\n  tag_36\n  jumpi\n  swap2\n  0x20\n  mul\n  dup3\n  add\ntag_37:\n  dup3\n  dup2\n  gt\n  iszero\n  tag_38\n  jumpi\n  dup3\n  mload\n  dup3\n  sstore\n  swap2\n  0x20\n  add\n  swap2\n  swap1\n  0x1\n  add\n  swap1\n  jump(tag_37)\ntag_38:\ntag_36:\n  pop\n  swap1\n  pop\n  tag_39\n  swap2\n  swap1\n  jump\t// in(tag_40)\ntag_39:\n  pop\n  swap1\n  jump\t// out\ntag_5:\n  dup3\n  dup1\n  sload\n  dup3\n  dup3\n  sstore\n  swap1\n  0x0\n  mstore\n  keccak256(0x0, 0x20)\n  swap1\n  dup2\n  add\n  swap3\n  dup3\n  iszero\n  tag_41\n  jumpi\n  swap2\n  0x20\n  mul\n  dup3\n  add\ntag_42:\n  dup3\n  dup2\n  gt\n  iszero\n  tag_43\n  jumpi\n  dup3\n  mload\n  dup3\n  sstore\n  swap2\n  0x20\n  add\n  swap2\n  swap1\n  0x1\n  add\n  swap1\n  jump(tag_42)\ntag_43:\ntag_41:\n  pop\n  swap1\n  pop\n  tag_44\n  swap2\n  swap1\n  jump\t// in(tag_40)\ntag_44:\n  pop\n  swap1\n  jump\t// out\ntag_22:\n  dup3\n  0x2\n  dup2\n  add\n  swap3\n  dup3\n  iszero\n  tag_45\n  jumpi\n  swap2\n  0x20\n  mul\n  dup3\n  add\ntag_46:\n  dup3\n  dup2\n  gt\n  iszero\n  tag_47\n  jumpi\n  dup3\n  mload\n  dup3\n  sstore\n  swap2\n  0x20\n  add\n  swap2\n  swap1\n  0x1\n  add\n  swap1\n  jump(tag_46)\ntag_47:\ntag_45:\n  pop\n  swap1\n  pop\n  tag_48\n  swap2\n  swap1\n  jump\t// in(tag_40)\ntag_48:\n  pop\n  swap1\n  jump\t// out\ntag_40:\n  tag_49\n  swap2\n  swap1\ntag_50:\n  dup1\n  dup3\n  gt\n  iszero\n  tag_51\n  jumpi\n  0x0\n  dup2\n  0x0\n  swap1\n  sstore\n  pop\n  0x1\n  add\n  jump(tag_50)\ntag_51:\n  pop\n  swap1\n  jump\ntag_49:\n  swap1\n  jump\t// out\ntag_35:\n  dataSize(sub_0)\n  dup1\n  dataOffset(sub_0)\n  0x0\n  codecopy\n  0x0\n  return\nstop\n\nsub_0: assembly {\n        /* \"contracts/kzgVerifier.sol\":232:9809  contract Verifier is Constants {\r... */\n      mstore(0x40, 0x80)\n      jumpi(tag_1, lt(calldatasize, 0x4))\n      calldataload(0x0)\n      0x100000000000000000000000000000000000000000000000000000000\n      swap1\n      div\n      0xffffffff\n      and\n      dup1\n      0x59434d4a\n      eq\n      tag_2\n      jumpi\n      dup1\n      0x87a3b8d9\n      eq\n      tag_3\n      jumpi\n      dup1\n      0x903ae890\n      eq\n      tag_4\n      jumpi\n      dup1\n      0xc1eb466c\n      eq\n      tag_5\n      jumpi\n    tag_1:\n      0x0\n      dup1\n      revert\n        /* \"contracts/kzgVerifier.sol\":4386:5001  function commit(\r... */\n    tag_2:\n      callvalue\n        /* \"--CODEGEN--\":8:17   */\n      dup1\n        /* \"--CODEGEN--\":5:7   */\n      iszero\n      tag_6\n      jumpi\n        /* \"--CODEGEN--\":30:31   */\n      0x0\n        /* \"--CODEGEN--\":27:28   */\n      dup1\n        /* \"--CODEGEN--\":20:32   */\n      revert\n        /* \"--CODEGEN--\":5:7   */\n    tag_6:\n        /* \"contracts/kzgVerifier.sol\":4386:5001  function commit(\r... */\n      pop\n      tag_7\n      0x4\n      dup1\n      calldatasize\n      sub\n      tag_8\n      swap2\n      swap1\n      dup2\n      add\n      swap1\n      jump(tag_9)\n    tag_8:\n      jump(tag_10)\n    tag_7:\n      mload(0x40)\n      tag_11\n      swap2\n      swap1\n      jump(tag_12)\n    tag_11:\n      mload(0x40)\n      dup1\n      swap2\n      sub\n      swap1\n      return\n        /* \"contracts/kzgVerifier.sol\":6693:9248  function verifyMulti(\r... */\n    tag_3:\n      callvalue\n        /* \"--CODEGEN--\":8:17   */\n      dup1\n        /* \"--CODEGEN--\":5:7   */\n      iszero\n      tag_13\n      jumpi\n        /* \"--CODEGEN--\":30:31   */\n      0x0\n        /* \"--CODEGEN--\":27:28   */\n      dup1\n        /* \"--CODEGEN--\":20:32   */\n      revert\n        /* \"--CODEGEN--\":5:7   */\n    tag_13:\n        /* \"contracts/kzgVerifier.sol\":6693:9248  function verifyMulti(\r... */\n      pop\n      tag_14\n      0x4\n      dup1\n      calldatasize\n      sub\n      tag_15\n      swap2\n      swap1\n      dup2\n      add\n      swap1\n      jump(tag_16)\n    tag_15:\n      jump(tag_17)\n    tag_14:\n      mload(0x40)\n      tag_18\n      swap2\n      swap1\n      jump(tag_19)\n    tag_18:\n      mload(0x40)\n      dup1\n      swap2\n      sub\n      swap1\n      return\n        /* \"contracts/kzgVerifier.sol\":1551:4200  function verify(\r... */\n    tag_4:\n      callvalue\n        /* \"--CODEGEN--\":8:17   */\n      dup1\n        /* \"--CODEGEN--\":5:7   */\n      iszero\n      tag_20\n      jumpi\n        /* \"--CODEGEN--\":30:31   */\n      0x0\n        /* \"--CODEGEN--\":27:28   */\n      dup1\n        /* \"--CODEGEN--\":20:32   */\n      revert\n        /* \"--CODEGEN--\":5:7   */\n    tag_20:\n        /* \"contracts/kzgVerifier.sol\":1551:4200  function verify(\r... */\n      pop\n      tag_21\n      0x4\n      dup1\n      calldatasize\n      sub\n      tag_22\n      swap2\n      swap1\n      dup2\n      add\n      swap1\n      jump(tag_23)\n    tag_22:\n      jump(tag_24)\n    tag_21:\n      mload(0x40)\n      tag_25\n      swap2\n      swap1\n      jump(tag_19)\n    tag_25:\n      mload(0x40)\n      dup1\n      swap2\n      sub\n      swap1\n      return\n        /* \"contracts/kzgVerifier.sol\":5154:5704  function evalPolyAt(\r... */\n    tag_5:\n      callvalue\n        /* \"--CODEGEN--\":8:17   */\n      dup1\n        /* \"--CODEGEN--\":5:7   */\n      iszero\n      tag_26\n      jumpi\n        /* \"--CODEGEN--\":30:31   */\n      0x0\n        /* \"--CODEGEN--\":27:28   */\n      dup1\n        /* \"--CODEGEN--\":20:32   */\n      revert\n        /* \"--CODEGEN--\":5:7   */\n    tag_26:\n        /* \"contracts/kzgVerifier.sol\":5154:5704  function evalPolyAt(\r... */\n      pop\n      tag_27\n      0x4\n      dup1\n      calldatasize\n      sub\n      tag_28\n      swap2\n      swap1\n      dup2\n      add\n      swap1\n      jump(tag_29)\n    tag_28:\n      jump(tag_30)\n    tag_27:\n      mload(0x40)\n      tag_31\n      swap2\n      swap1\n      jump(tag_32)\n    tag_31:\n      mload(0x40)\n      dup1\n      swap2\n      sub\n      swap1\n      return\n        /* \"contracts/kzgVerifier.sol\":4386:5001  function commit(\r... */\n    tag_10:\n        /* \"contracts/kzgVerifier.sol\":4470:4492  Pairing.G1Point memory */\n      tag_33\n      jump\t// in(tag_34)\n    tag_33:\n        /* \"contracts/kzgVerifier.sol\":4507:4536  Pairing.G1Point memory result */\n      tag_36\n      jump\t// in(tag_34)\n    tag_36:\n        /* \"contracts/kzgVerifier.sol\":4539:4560  Pairing.G1Point(0, 0) */\n      0x40\n      dup1\n      mload\n      swap1\n      dup2\n      add\n      0x40\n      mstore\n      dup1\n        /* \"contracts/kzgVerifier.sol\":4555:4556  0 */\n      0x0\n        /* \"contracts/kzgVerifier.sol\":4539:4560  Pairing.G1Point(0, 0) */\n      dup2\n      mstore\n      0x20\n      add\n        /* \"contracts/kzgVerifier.sol\":4558:4559  0 */\n      0x0\n        /* \"contracts/kzgVerifier.sol\":4539:4560  Pairing.G1Point(0, 0) */\n      dup2\n      mstore\n      pop\n        /* \"contracts/kzgVerifier.sol\":4507:4560  Pairing.G1Point memory result = Pairing.G1Point(0, 0) */\n      swap1\n      pop\n        /* \"contracts/kzgVerifier.sol\":4578:4587  uint256 i */\n      0x0\n        /* \"contracts/kzgVerifier.sol\":4590:4591  0 */\n      dup1\n        /* \"contracts/kzgVerifier.sol\":4578:4591  uint256 i = 0 */\n      swap1\n      pop\n        /* \"contracts/kzgVerifier.sol\":4573:4970  for (uint256 i = 0; i < coefficients.length; i ++) {\r... */\n    tag_37:\n        /* \"contracts/kzgVerifier.sol\":4597:4609  coefficients */\n      dup4\n        /* \"contracts/kzgVerifier.sol\":4597:4616  coefficients.length */\n      mload\n        /* \"contracts/kzgVerifier.sol\":4593:4594  i */\n      dup2\n        /* \"contracts/kzgVerifier.sol\":4593:4616  i < coefficients.length */\n      lt\n        /* \"contracts/kzgVerifier.sol\":4573:4970  for (uint256 i = 0; i < coefficients.length; i ++) {\r... */\n      iszero\n      tag_38\n      jumpi\n        /* \"contracts/kzgVerifier.sol\":4648:4958  Pairing.plus(\r... */\n      tag_40\n        /* \"contracts/kzgVerifier.sol\":4679:4685  result */\n      dup3\n        /* \"contracts/kzgVerifier.sol\":4704:4943  Pairing.mulScalar(\r... */\n      tag_41\n        /* \"contracts/kzgVerifier.sol\":4744:4886  Pairing.G1Point({\r... */\n      0x40\n      dup1\n      mload\n      swap1\n      dup2\n      add\n      0x40\n      mstore\n      dup1\n        /* \"contracts/kzgVerifier.sol\":4790:4808  Constants.SRS_G1_X */\n      0x0\n        /* \"contracts/kzgVerifier.sol\":4809:4810  i */\n      dup7\n        /* \"contracts/kzgVerifier.sol\":4790:4811  Constants.SRS_G1_X[i] */\n      dup2\n      sload\n      dup2\n      lt\n      iszero\n      iszero\n      tag_42\n      jumpi\n      invalid\n    tag_42:\n      swap1\n      0x0\n      mstore\n      keccak256(0x0, 0x20)\n      add\n      sload\n        /* \"contracts/kzgVerifier.sol\":4744:4886  Pairing.G1Point({\r... */\n      dup2\n      mstore\n      0x20\n      add\n        /* \"contracts/kzgVerifier.sol\":4841:4859  Constants.SRS_G1_Y */\n      0x1\n        /* \"contracts/kzgVerifier.sol\":4860:4861  i */\n      dup7\n        /* \"contracts/kzgVerifier.sol\":4841:4862  Constants.SRS_G1_Y[i] */\n      dup2\n      sload\n      dup2\n      lt\n      iszero\n      iszero\n      tag_44\n      jumpi\n      invalid\n    tag_44:\n      swap1\n      0x0\n      mstore\n      keccak256(0x0, 0x20)\n      add\n      sload\n        /* \"contracts/kzgVerifier.sol\":4744:4886  Pairing.G1Point({\r... */\n      dup2\n      mstore\n      pop\n        /* \"contracts/kzgVerifier.sol\":4909:4921  coefficients */\n      dup8\n        /* \"contracts/kzgVerifier.sol\":4922:4923  i */\n      dup6\n        /* \"contracts/kzgVerifier.sol\":4909:4924  coefficients[i] */\n      dup2\n      mload\n      dup2\n      lt\n      iszero\n      iszero\n      tag_46\n      jumpi\n      invalid\n    tag_46:\n      swap1\n      0x20\n      add\n      swap1\n      0x20\n      mul\n      add\n      mload\n        /* \"contracts/kzgVerifier.sol\":4704:4721  Pairing.mulScalar */\n      tag_47\n        /* \"contracts/kzgVerifier.sol\":4704:4943  Pairing.mulScalar(\r... */\n      jump\t// in\n    tag_41:\n        /* \"contracts/kzgVerifier.sol\":4648:4660  Pairing.plus */\n      tag_48\n        /* \"contracts/kzgVerifier.sol\":4648:4958  Pairing.plus(\r... */\n      jump\t// in\n    tag_40:\n        /* \"contracts/kzgVerifier.sol\":4639:4958  result = Pairing.plus(\r... */\n      swap2\n      pop\n        /* \"contracts/kzgVerifier.sol\":4618:4622  i ++ */\n      dup1\n      dup1\n      0x1\n      add\n      swap2\n      pop\n      pop\n        /* \"contracts/kzgVerifier.sol\":4573:4970  for (uint256 i = 0; i < coefficients.length; i ++) {\r... */\n      jump(tag_37)\n    tag_38:\n      pop\n        /* \"contracts/kzgVerifier.sol\":4987:4993  result */\n      dup1\n        /* \"contracts/kzgVerifier.sol\":4980:4993  return result */\n      swap2\n      pop\n      pop\n        /* \"contracts/kzgVerifier.sol\":4386:5001  function commit(\r... */\n      swap2\n      swap1\n      pop\n      jump\t// out\n        /* \"contracts/kzgVerifier.sol\":6693:9248  function verifyMulti(\r... */\n    tag_17:\n        /* \"contracts/kzgVerifier.sol\":6970:6974  bool */\n      0x0\n        /* \"contracts/Constants.sol\":1203:1280  21888242871839275222246405745257275088548364400416034343698204186575808495617 */\n      0x30644e72e131a029b85045b68181585d2833e84879b9709143e1f593f0000001\n        /* \"contracts/kzgVerifier.sol\":7028:7039  _commitment */\n      dup8\n        /* \"contracts/kzgVerifier.sol\":7028:7041  _commitment.X */\n      0x0\n      add\n      mload\n        /* \"contracts/kzgVerifier.sol\":7028:7053  _commitment.X < BABYJUB_P */\n      lt\n        /* \"contracts/kzgVerifier.sol\":7020:7112  require(_commitment.X < BABYJUB_P, \"Verifier.verifyMultiKZG: _commitment.X is out of range\") */\n      iszero\n      iszero\n      tag_50\n      jumpi\n      mload(0x40)\n      0x8c379a000000000000000000000000000000000000000000000000000000000\n      dup2\n      mstore\n      0x4\n      add\n      tag_51\n      swap1\n      jump(tag_52)\n    tag_51:\n      mload(0x40)\n      dup1\n      swap2\n      sub\n      swap1\n      revert\n    tag_50:\n        /* \"contracts/Constants.sol\":1203:1280  21888242871839275222246405745257275088548364400416034343698204186575808495617 */\n      0x30644e72e131a029b85045b68181585d2833e84879b9709143e1f593f0000001\n        /* \"contracts/kzgVerifier.sol\":7131:7142  _commitment */\n      dup8\n        /* \"contracts/kzgVerifier.sol\":7131:7144  _commitment.Y */\n      0x20\n      add\n      mload\n        /* \"contracts/kzgVerifier.sol\":7131:7156  _commitment.Y < BABYJUB_P */\n      lt\n        /* \"contracts/kzgVerifier.sol\":7123:7215  require(_commitment.Y < BABYJUB_P, \"Verifier.verifyMultiKZG: _commitment.Y is out of range\") */\n      iszero\n      iszero\n      tag_53\n      jumpi\n      mload(0x40)\n      0x8c379a000000000000000000000000000000000000000000000000000000000\n      dup2\n      mstore\n      0x4\n      add\n      tag_54\n      swap1\n      jump(tag_55)\n    tag_54:\n      mload(0x40)\n      dup1\n      swap2\n      sub\n      swap1\n      revert\n    tag_53:\n        /* \"contracts/Constants.sol\":1203:1280  21888242871839275222246405745257275088548364400416034343698204186575808495617 */\n      0x30644e72e131a029b85045b68181585d2833e84879b9709143e1f593f0000001\n        /* \"contracts/kzgVerifier.sol\":7234:7240  _proof */\n      dup7\n        /* \"contracts/kzgVerifier.sol\":7234:7242  _proof.X */\n      0x0\n      add\n      mload\n        /* \"contracts/kzgVerifier.sol\":7243:7244  0 */\n      0x0\n        /* \"contracts/kzgVerifier.sol\":7234:7245  _proof.X[0] */\n      0x2\n      dup2\n      lt\n      iszero\n      iszero\n      tag_56\n      jumpi\n      invalid\n    tag_56:\n      0x20\n      mul\n      add\n      mload\n        /* \"contracts/kzgVerifier.sol\":7234:7257  _proof.X[0] < BABYJUB_P */\n      lt\n        /* \"contracts/kzgVerifier.sol\":7226:7309  require(_proof.X[0] < BABYJUB_P, \"Verifier.verifyKZG: _proof.X[0] is out of range\") */\n      iszero\n      iszero\n      tag_57\n      jumpi\n      mload(0x40)\n      0x8c379a000000000000000000000000000000000000000000000000000000000\n      dup2\n      mstore\n      0x4\n      add\n      tag_58\n      swap1\n      jump(tag_59)\n    tag_58:\n      mload(0x40)\n      dup1\n      swap2\n      sub\n      swap1\n      revert\n    tag_57:\n        /* \"contracts/Constants.sol\":1203:1280  21888242871839275222246405745257275088548364400416034343698204186575808495617 */\n      0x30644e72e131a029b85045b68181585d2833e84879b9709143e1f593f0000001\n        /* \"contracts/kzgVerifier.sol\":7328:7334  _proof */\n      dup7\n        /* \"contracts/kzgVerifier.sol\":7328:7336  _proof.X */\n      0x0\n      add\n      mload\n        /* \"contracts/kzgVerifier.sol\":7337:7338  1 */\n      0x1\n        /* \"contracts/kzgVerifier.sol\":7328:7339  _proof.X[1] */\n      0x2\n      dup2\n      lt\n      iszero\n      iszero\n      tag_60\n      jumpi\n      invalid\n    tag_60:\n      0x20\n      mul\n      add\n      mload\n        /* \"contracts/kzgVerifier.sol\":7328:7351  _proof.X[1] < BABYJUB_P */\n      lt\n        /* \"contracts/kzgVerifier.sol\":7320:7403  require(_proof.X[1] < BABYJUB_P, \"Verifier.verifyKZG: _proof.X[1] is out of range\") */\n      iszero\n      iszero\n      tag_61\n      jumpi\n      mload(0x40)\n      0x8c379a000000000000000000000000000000000000000000000000000000000\n      dup2\n      mstore\n      0x4\n      add\n      tag_62\n      swap1\n      jump(tag_63)\n    tag_62:\n      mload(0x40)\n      dup1\n      swap2\n      sub\n      swap1\n      revert\n    tag_61:\n        /* \"contracts/Constants.sol\":1203:1280  21888242871839275222246405745257275088548364400416034343698204186575808495617 */\n      0x30644e72e131a029b85045b68181585d2833e84879b9709143e1f593f0000001\n        /* \"contracts/kzgVerifier.sol\":7422:7428  _proof */\n      dup7\n        /* \"contracts/kzgVerifier.sol\":7422:7430  _proof.Y */\n      0x20\n      add\n      mload\n        /* \"contracts/kzgVerifier.sol\":7431:7432  0 */\n      0x0\n        /* \"contracts/kzgVerifier.sol\":7422:7433  _proof.Y[0] */\n      0x2\n      dup2\n      lt\n      iszero\n      iszero\n      tag_64\n      jumpi\n      invalid\n    tag_64:\n      0x20\n      mul\n      add\n      mload\n        /* \"contracts/kzgVerifier.sol\":7422:7445  _proof.Y[0] < BABYJUB_P */\n      lt\n        /* \"contracts/kzgVerifier.sol\":7414:7497  require(_proof.Y[0] < BABYJUB_P, \"Verifier.verifyKZG: _proof.Y[0] is out of range\") */\n      iszero\n      iszero\n      tag_65\n      jumpi\n      mload(0x40)\n      0x8c379a000000000000000000000000000000000000000000000000000000000\n      dup2\n      mstore\n      0x4\n      add\n      tag_66\n      swap1\n      jump(tag_67)\n    tag_66:\n      mload(0x40)\n      dup1\n      swap2\n      sub\n      swap1\n      revert\n    tag_65:\n        /* \"contracts/Constants.sol\":1203:1280  21888242871839275222246405745257275088548364400416034343698204186575808495617 */\n      0x30644e72e131a029b85045b68181585d2833e84879b9709143e1f593f0000001\n        /* \"contracts/kzgVerifier.sol\":7516:7522  _proof */\n      dup7\n        /* \"contracts/kzgVerifier.sol\":7516:7524  _proof.Y */\n      0x20\n      add\n      mload\n        /* \"contracts/kzgVerifier.sol\":7525:7526  1 */\n      0x1\n        /* \"contracts/kzgVerifier.sol\":7516:7527  _proof.Y[1] */\n      0x2\n      dup2\n      lt\n      iszero\n      iszero\n      tag_68\n      jumpi\n      invalid\n    tag_68:\n      0x20\n      mul\n      add\n      mload\n        /* \"contracts/kzgVerifier.sol\":7516:7539  _proof.Y[1] < BABYJUB_P */\n      lt\n        /* \"contracts/kzgVerifier.sol\":7508:7591  require(_proof.Y[1] < BABYJUB_P, \"Verifier.verifyKZG: _proof.Y[1] is out of range\") */\n      iszero\n      iszero\n      tag_69\n      jumpi\n      mload(0x40)\n      0x8c379a000000000000000000000000000000000000000000000000000000000\n      dup2\n      mstore\n      0x4\n      add\n      tag_70\n      swap1\n      jump(tag_71)\n    tag_70:\n      mload(0x40)\n      dup1\n      swap2\n      sub\n      swap1\n      revert\n    tag_69:\n        /* \"contracts/kzgVerifier.sol\":7609:7618  uint256 i */\n      0x0\n        /* \"contracts/kzgVerifier.sol\":7621:7622  0 */\n      dup1\n        /* \"contracts/kzgVerifier.sol\":7609:7622  uint256 i = 0 */\n      swap1\n      pop\n        /* \"contracts/kzgVerifier.sol\":7604:7767  for (uint256 i = 0; i < _iCoeffs.length; i ++) {\r... */\n    tag_72:\n        /* \"contracts/kzgVerifier.sol\":7628:7636  _iCoeffs */\n      dup4\n        /* \"contracts/kzgVerifier.sol\":7628:7643  _iCoeffs.length */\n      mload\n        /* \"contracts/kzgVerifier.sol\":7624:7625  i */\n      dup2\n        /* \"contracts/kzgVerifier.sol\":7624:7643  i < _iCoeffs.length */\n      lt\n        /* \"contracts/kzgVerifier.sol\":7604:7767  for (uint256 i = 0; i < _iCoeffs.length; i ++) {\r... */\n      iszero\n      tag_73\n      jumpi\n        /* \"contracts/Constants.sol\":1203:1280  21888242871839275222246405745257275088548364400416034343698204186575808495617 */\n      0x30644e72e131a029b85045b68181585d2833e84879b9709143e1f593f0000001\n        /* \"contracts/kzgVerifier.sol\":7674:7682  _iCoeffs */\n      dup5\n        /* \"contracts/kzgVerifier.sol\":7683:7684  i */\n      dup3\n        /* \"contracts/kzgVerifier.sol\":7674:7685  _iCoeffs[i] */\n      dup2\n      mload\n      dup2\n      lt\n      iszero\n      iszero\n      tag_75\n      jumpi\n      invalid\n    tag_75:\n      swap1\n      0x20\n      add\n      swap1\n      0x20\n      mul\n      add\n      mload\n        /* \"contracts/kzgVerifier.sol\":7674:7697  _iCoeffs[i] < BABYJUB_P */\n      lt\n        /* \"contracts/kzgVerifier.sol\":7666:7755  require(_iCoeffs[i] < BABYJUB_P, \"Verifier.verifyKZG: an _iCoeffs value is out of range\") */\n      iszero\n      iszero\n      tag_76\n      jumpi\n      mload(0x40)\n      0x8c379a000000000000000000000000000000000000000000000000000000000\n      dup2\n      mstore\n      0x4\n      add\n      tag_77\n      swap1\n      jump(tag_78)\n    tag_77:\n      mload(0x40)\n      dup1\n      swap2\n      sub\n      swap1\n      revert\n    tag_76:\n        /* \"contracts/kzgVerifier.sol\":7645:7649  i ++ */\n      dup1\n      dup1\n      0x1\n      add\n      swap2\n      pop\n      pop\n        /* \"contracts/kzgVerifier.sol\":7604:7767  for (uint256 i = 0; i < _iCoeffs.length; i ++) {\r... */\n      jump(tag_72)\n    tag_73:\n      pop\n        /* \"contracts/kzgVerifier.sol\":7784:7793  uint256 i */\n      0x0\n        /* \"contracts/kzgVerifier.sol\":7796:7797  0 */\n      dup1\n        /* \"contracts/kzgVerifier.sol\":7784:7797  uint256 i = 0 */\n      swap1\n      pop\n        /* \"contracts/kzgVerifier.sol\":7779:7942  for (uint256 i = 0; i < _zCoeffs.length; i ++) {\r... */\n    tag_79:\n        /* \"contracts/kzgVerifier.sol\":7803:7811  _zCoeffs */\n      dup3\n        /* \"contracts/kzgVerifier.sol\":7803:7818  _zCoeffs.length */\n      mload\n        /* \"contracts/kzgVerifier.sol\":7799:7800  i */\n      dup2\n        /* \"contracts/kzgVerifier.sol\":7799:7818  i < _zCoeffs.length */\n      lt\n        /* \"contracts/kzgVerifier.sol\":7779:7942  for (uint256 i = 0; i < _zCoeffs.length; i ++) {\r... */\n      iszero\n      tag_80\n      jumpi\n        /* \"contracts/Constants.sol\":1203:1280  21888242871839275222246405745257275088548364400416034343698204186575808495617 */\n      0x30644e72e131a029b85045b68181585d2833e84879b9709143e1f593f0000001\n        /* \"contracts/kzgVerifier.sol\":7849:7857  _zCoeffs */\n      dup4\n        /* \"contracts/kzgVerifier.sol\":7858:7859  i */\n      dup3\n        /* \"contracts/kzgVerifier.sol\":7849:7860  _zCoeffs[i] */\n      dup2\n      mload\n      dup2\n      lt\n      iszero\n      iszero\n      tag_82\n      jumpi\n      invalid\n    tag_82:\n      swap1\n      0x20\n      add\n      swap1\n      0x20\n      mul\n      add\n      mload\n        /* \"contracts/kzgVerifier.sol\":7849:7872  _zCoeffs[i] < BABYJUB_P */\n      lt\n        /* \"contracts/kzgVerifier.sol\":7841:7930  require(_zCoeffs[i] < BABYJUB_P, \"Verifier.verifyKZG: an _zCoeffs value is out of range\") */\n      iszero\n      iszero\n      tag_83\n      jumpi\n      mload(0x40)\n      0x8c379a000000000000000000000000000000000000000000000000000000000\n      dup2\n      mstore\n      0x4\n      add\n      tag_84\n      swap1\n      jump(tag_85)\n    tag_84:\n      mload(0x40)\n      dup1\n      swap2\n      sub\n      swap1\n      revert\n    tag_83:\n        /* \"contracts/kzgVerifier.sol\":7820:7824  i ++ */\n      dup1\n      dup1\n      0x1\n      add\n      swap2\n      pop\n      pop\n        /* \"contracts/kzgVerifier.sol\":7779:7942  for (uint256 i = 0; i < _zCoeffs.length; i ++) {\r... */\n      jump(tag_79)\n    tag_80:\n      pop\n        /* \"contracts/kzgVerifier.sol\":8017:8026  uint256 i */\n      0x0\n        /* \"contracts/kzgVerifier.sol\":8029:8030  0 */\n      dup1\n        /* \"contracts/kzgVerifier.sol\":8017:8030  uint256 i = 0 */\n      swap1\n      pop\n        /* \"contracts/kzgVerifier.sol\":8012:8624  for (uint256 i = 0; i < _indices.length; i ++) {\r... */\n    tag_86:\n        /* \"contracts/kzgVerifier.sol\":8036:8044  _indices */\n      dup6\n        /* \"contracts/kzgVerifier.sol\":8036:8051  _indices.length */\n      mload\n        /* \"contracts/kzgVerifier.sol\":8032:8033  i */\n      dup2\n        /* \"contracts/kzgVerifier.sol\":8032:8051  i < _indices.length */\n      lt\n        /* \"contracts/kzgVerifier.sol\":8012:8624  for (uint256 i = 0; i < _indices.length; i ++) {\r... */\n      iszero\n      tag_87\n      jumpi\n        /* \"contracts/kzgVerifier.sol\":8074:8087  uint256 index */\n      0x0\n        /* \"contracts/kzgVerifier.sol\":8090:8098  _indices */\n      dup7\n        /* \"contracts/kzgVerifier.sol\":8099:8100  i */\n      dup3\n        /* \"contracts/kzgVerifier.sol\":8090:8101  _indices[i] */\n      dup2\n      mload\n      dup2\n      lt\n      iszero\n      iszero\n      tag_89\n      jumpi\n      invalid\n    tag_89:\n      swap1\n      0x20\n      add\n      swap1\n      0x20\n      mul\n      add\n      mload\n        /* \"contracts/kzgVerifier.sol\":8074:8101  uint256 index = _indices[i] */\n      swap1\n      pop\n        /* \"contracts/kzgVerifier.sol\":8116:8129  uint256 value */\n      0x0\n        /* \"contracts/kzgVerifier.sol\":8132:8139  _values */\n      dup7\n        /* \"contracts/kzgVerifier.sol\":8140:8141  i */\n      dup4\n        /* \"contracts/kzgVerifier.sol\":8132:8142  _values[i] */\n      dup2\n      mload\n      dup2\n      lt\n      iszero\n      iszero\n      tag_90\n      jumpi\n      invalid\n    tag_90:\n      swap1\n      0x20\n      add\n      swap1\n      0x20\n      mul\n      add\n      mload\n        /* \"contracts/kzgVerifier.sol\":8116:8142  uint256 value = _values[i] */\n      swap1\n      pop\n        /* \"contracts/Constants.sol\":1203:1280  21888242871839275222246405745257275088548364400416034343698204186575808495617 */\n      0x30644e72e131a029b85045b68181585d2833e84879b9709143e1f593f0000001\n        /* \"contracts/kzgVerifier.sol\":8165:8170  index */\n      dup3\n        /* \"contracts/kzgVerifier.sol\":8165:8182  index < BABYJUB_P */\n      lt\n        /* \"contracts/kzgVerifier.sol\":8157:8231  require(index < BABYJUB_P, \"Verifier.verifyKZG: an index is out of range\") */\n      iszero\n      iszero\n      tag_91\n      jumpi\n      mload(0x40)\n      0x8c379a000000000000000000000000000000000000000000000000000000000\n      dup2\n      mstore\n      0x4\n      add\n      tag_92\n      swap1\n      jump(tag_93)\n    tag_92:\n      mload(0x40)\n      dup1\n      swap2\n      sub\n      swap1\n      revert\n    tag_91:\n        /* \"contracts/Constants.sol\":1203:1280  21888242871839275222246405745257275088548364400416034343698204186575808495617 */\n      0x30644e72e131a029b85045b68181585d2833e84879b9709143e1f593f0000001\n        /* \"contracts/kzgVerifier.sol\":8254:8259  value */\n      dup2\n        /* \"contracts/kzgVerifier.sol\":8254:8271  value < BABYJUB_P */\n      lt\n        /* \"contracts/kzgVerifier.sol\":8246:8319  require(value < BABYJUB_P, \"Verifier.verifyKZG: a value is out of range\") */\n      iszero\n      iszero\n      tag_94\n      jumpi\n      mload(0x40)\n      0x8c379a000000000000000000000000000000000000000000000000000000000\n      dup2\n      mstore\n      0x4\n      add\n      tag_95\n      swap1\n      jump(tag_96)\n    tag_95:\n      mload(0x40)\n      dup1\n      swap2\n      sub\n      swap1\n      revert\n    tag_94:\n        /* \"contracts/kzgVerifier.sol\":8336:8349  uint256 zEval */\n      0x0\n        /* \"contracts/kzgVerifier.sol\":8352:8385  evalPolyAt(_zCoeffs, _indices[i]) */\n      tag_97\n        /* \"contracts/kzgVerifier.sol\":8363:8371  _zCoeffs */\n      dup7\n        /* \"contracts/kzgVerifier.sol\":8373:8381  _indices */\n      dup11\n        /* \"contracts/kzgVerifier.sol\":8382:8383  i */\n      dup7\n        /* \"contracts/kzgVerifier.sol\":8373:8384  _indices[i] */\n      dup2\n      mload\n      dup2\n      lt\n      iszero\n      iszero\n      tag_98\n      jumpi\n      invalid\n    tag_98:\n      swap1\n      0x20\n      add\n      swap1\n      0x20\n      mul\n      add\n      mload\n        /* \"contracts/kzgVerifier.sol\":8352:8362  evalPolyAt */\n      tag_30\n        /* \"contracts/kzgVerifier.sol\":8352:8385  evalPolyAt(_zCoeffs, _indices[i]) */\n      jump\t// in\n    tag_97:\n        /* \"contracts/kzgVerifier.sol\":8336:8385  uint256 zEval = evalPolyAt(_zCoeffs, _indices[i]) */\n      swap1\n      pop\n        /* \"contracts/kzgVerifier.sol\":8417:8418  0 */\n      0x0\n        /* \"contracts/kzgVerifier.sol\":8408:8413  zEval */\n      dup2\n        /* \"contracts/kzgVerifier.sol\":8408:8418  zEval == 0 */\n      eq\n        /* \"contracts/kzgVerifier.sol\":8400:8461  require(zEval == 0, \"Verifier.verifyMulti: invalid _zCoeffs\") */\n      iszero\n      iszero\n      tag_99\n      jumpi\n      mload(0x40)\n      0x8c379a000000000000000000000000000000000000000000000000000000000\n      dup2\n      mstore\n      0x4\n      add\n      tag_100\n      swap1\n      jump(tag_101)\n    tag_100:\n      mload(0x40)\n      dup1\n      swap2\n      sub\n      swap1\n      revert\n    tag_99:\n        /* \"contracts/kzgVerifier.sol\":8478:8491  uint256 iEval */\n      0x0\n        /* \"contracts/kzgVerifier.sol\":8494:8527  evalPolyAt(_iCoeffs, _indices[i]) */\n      tag_102\n        /* \"contracts/kzgVerifier.sol\":8505:8513  _iCoeffs */\n      dup9\n        /* \"contracts/kzgVerifier.sol\":8515:8523  _indices */\n      dup12\n        /* \"contracts/kzgVerifier.sol\":8524:8525  i */\n      dup8\n        /* \"contracts/kzgVerifier.sol\":8515:8526  _indices[i] */\n      dup2\n      mload\n      dup2\n      lt\n      iszero\n      iszero\n      tag_103\n      jumpi\n      invalid\n    tag_103:\n      swap1\n      0x20\n      add\n      swap1\n      0x20\n      mul\n      add\n      mload\n        /* \"contracts/kzgVerifier.sol\":8494:8504  evalPolyAt */\n      tag_30\n        /* \"contracts/kzgVerifier.sol\":8494:8527  evalPolyAt(_iCoeffs, _indices[i]) */\n      jump\t// in\n    tag_102:\n        /* \"contracts/kzgVerifier.sol\":8478:8527  uint256 iEval = evalPolyAt(_iCoeffs, _indices[i]) */\n      swap1\n      pop\n        /* \"contracts/kzgVerifier.sol\":8559:8566  _values */\n      dup9\n        /* \"contracts/kzgVerifier.sol\":8567:8568  i */\n      dup6\n        /* \"contracts/kzgVerifier.sol\":8559:8569  _values[i] */\n      dup2\n      mload\n      dup2\n      lt\n      iszero\n      iszero\n      tag_104\n      jumpi\n      invalid\n    tag_104:\n      swap1\n      0x20\n      add\n      swap1\n      0x20\n      mul\n      add\n      mload\n        /* \"contracts/kzgVerifier.sol\":8550:8555  iEval */\n      dup2\n        /* \"contracts/kzgVerifier.sol\":8550:8569  iEval == _values[i] */\n      eq\n        /* \"contracts/kzgVerifier.sol\":8542:8612  require(iEval == _values[i], \"Verifier.verifyMulti: invalid _iCoeffs\") */\n      iszero\n      iszero\n      tag_105\n      jumpi\n      mload(0x40)\n      0x8c379a000000000000000000000000000000000000000000000000000000000\n      dup2\n      mstore\n      0x4\n      add\n      tag_106\n      swap1\n      jump(tag_107)\n    tag_106:\n      mload(0x40)\n      dup1\n      swap2\n      sub\n      swap1\n      revert\n    tag_105:\n        /* \"contracts/kzgVerifier.sol\":8012:8624  for (uint256 i = 0; i < _indices.length; i ++) {\r... */\n      pop\n      pop\n      pop\n      pop\n        /* \"contracts/kzgVerifier.sol\":8053:8057  i ++ */\n      dup1\n      dup1\n      0x1\n      add\n      swap2\n      pop\n      pop\n        /* \"contracts/kzgVerifier.sol\":8012:8624  for (uint256 i = 0; i < _indices.length; i ++) {\r... */\n      jump(tag_86)\n    tag_87:\n      pop\n        /* \"contracts/kzgVerifier.sol\":8705:8735  Pairing.G1Point memory zCommit */\n      tag_108\n      jump\t// in(tag_34)\n    tag_108:\n        /* \"contracts/kzgVerifier.sol\":8738:8754  commit(_zCoeffs) */\n      tag_109\n        /* \"contracts/kzgVerifier.sol\":8745:8753  _zCoeffs */\n      dup4\n        /* \"contracts/kzgVerifier.sol\":8738:8744  commit */\n      tag_10\n        /* \"contracts/kzgVerifier.sol\":8738:8754  commit(_zCoeffs) */\n      jump\t// in\n    tag_109:\n        /* \"contracts/kzgVerifier.sol\":8705:8754  Pairing.G1Point memory zCommit = commit(_zCoeffs) */\n      swap1\n      pop\n        /* \"contracts/kzgVerifier.sol\":8765:8795  Pairing.G1Point memory iCommit */\n      tag_110\n      jump\t// in(tag_34)\n    tag_110:\n        /* \"contracts/kzgVerifier.sol\":8798:8814  commit(_iCoeffs) */\n      tag_111\n        /* \"contracts/kzgVerifier.sol\":8805:8813  _iCoeffs */\n      dup6\n        /* \"contracts/kzgVerifier.sol\":8798:8804  commit */\n      tag_10\n        /* \"contracts/kzgVerifier.sol\":8798:8814  commit(_iCoeffs) */\n      jump\t// in\n    tag_111:\n        /* \"contracts/kzgVerifier.sol\":8765:8814  Pairing.G1Point memory iCommit = commit(_iCoeffs) */\n      swap1\n      pop\n        /* \"contracts/kzgVerifier.sol\":8874:8919  Pairing.G1Point memory commitmentMinusICommit */\n      tag_112\n      jump\t// in(tag_34)\n    tag_112:\n        /* \"contracts/kzgVerifier.sol\":8935:9034  Pairing.plus(\r... */\n      tag_113\n        /* \"contracts/kzgVerifier.sol\":8966:8977  _commitment */\n      dup11\n        /* \"contracts/kzgVerifier.sol\":8996:9019  Pairing.negate(iCommit) */\n      tag_114\n        /* \"contracts/kzgVerifier.sol\":9011:9018  iCommit */\n      dup5\n        /* \"contracts/kzgVerifier.sol\":8996:9010  Pairing.negate */\n      tag_115\n        /* \"contracts/kzgVerifier.sol\":8996:9019  Pairing.negate(iCommit) */\n      jump\t// in\n    tag_114:\n        /* \"contracts/kzgVerifier.sol\":8935:8947  Pairing.plus */\n      tag_48\n        /* \"contracts/kzgVerifier.sol\":8935:9034  Pairing.plus(\r... */\n      jump\t// in\n    tag_113:\n        /* \"contracts/kzgVerifier.sol\":8874:9034  Pairing.G1Point memory commitmentMinusICommit =\r... */\n      swap1\n      pop\n        /* \"contracts/kzgVerifier.sol\":9092:9240  Pairing.pairing(\r... */\n      tag_116\n        /* \"contracts/kzgVerifier.sol\":9122:9145  Pairing.negate(zCommit) */\n      tag_117\n        /* \"contracts/kzgVerifier.sol\":9137:9144  zCommit */\n      dup5\n        /* \"contracts/kzgVerifier.sol\":9122:9136  Pairing.negate */\n      tag_115\n        /* \"contracts/kzgVerifier.sol\":9122:9145  Pairing.negate(zCommit) */\n      jump\t// in\n    tag_117:\n        /* \"contracts/kzgVerifier.sol\":9160:9166  _proof */\n      dup11\n        /* \"contracts/kzgVerifier.sol\":9181:9203  commitmentMinusICommit */\n      dup4\n        /* \"contracts/kzgVerifier.sol\":9218:9229  g2Generator */\n      0x8\n        /* \"contracts/kzgVerifier.sol\":9092:9240  Pairing.pairing(\r... */\n      0x40\n      dup1\n      mload\n      swap1\n      dup2\n      add\n      0x40\n      mstore\n      swap1\n      dup2\n      0x0\n      dup3\n      add\n      0x2\n      dup1\n      0x20\n      mul\n      mload(0x40)\n      swap1\n      dup2\n      add\n      0x40\n      mstore\n      dup1\n      swap3\n      swap2\n      swap1\n      dup3\n      0x2\n      dup1\n      iszero\n      tag_118\n      jumpi\n      0x20\n      mul\n      dup3\n      add\n      swap2\n    tag_119:\n      dup2\n      sload\n      dup2\n      mstore\n      0x20\n      add\n      swap1\n      0x1\n      add\n      swap1\n      dup1\n      dup4\n      gt\n      tag_119\n      jumpi\n    tag_118:\n      pop\n      pop\n      pop\n      pop\n      pop\n      dup2\n      mstore\n      0x20\n      add\n      0x2\n      dup3\n      add\n      0x2\n      dup1\n      0x20\n      mul\n      mload(0x40)\n      swap1\n      dup2\n      add\n      0x40\n      mstore\n      dup1\n      swap3\n      swap2\n      swap1\n      dup3\n      0x2\n      dup1\n      iszero\n      tag_120\n      jumpi\n      0x20\n      mul\n      dup3\n      add\n      swap2\n    tag_121:\n      dup2\n      sload\n      dup2\n      mstore\n      0x20\n      add\n      swap1\n      0x1\n      add\n      swap1\n      dup1\n      dup4\n      gt\n      tag_121\n      jumpi\n    tag_120:\n      pop\n      pop\n      pop\n      pop\n      pop\n      dup2\n      mstore\n      pop\n      pop\n        /* \"contracts/kzgVerifier.sol\":9092:9107  Pairing.pairing */\n      tag_122\n        /* \"contracts/kzgVerifier.sol\":9092:9240  Pairing.pairing(\r... */\n      jump\t// in\n    tag_116:\n        /* \"contracts/kzgVerifier.sol\":9085:9240  return Pairing.pairing(\r... */\n      swap4\n      pop\n      pop\n      pop\n      pop\n        /* \"contracts/kzgVerifier.sol\":6693:9248  function verifyMulti(\r... */\n      swap7\n      swap6\n      pop\n      pop\n      pop\n      pop\n      pop\n      pop\n      jump\t// out\n        /* \"contracts/kzgVerifier.sol\":1551:4200  function verify(\r... */\n    tag_24:\n        /* \"contracts/kzgVerifier.sol\":1730:1734  bool */\n      0x0\n        /* \"contracts/Constants.sol\":1203:1280  21888242871839275222246405745257275088548364400416034343698204186575808495617 */\n      0x30644e72e131a029b85045b68181585d2833e84879b9709143e1f593f0000001\n        /* \"contracts/kzgVerifier.sol\":1817:1828  _commitment */\n      dup6\n        /* \"contracts/kzgVerifier.sol\":1817:1830  _commitment.X */\n      0x0\n      add\n      mload\n        /* \"contracts/kzgVerifier.sol\":1817:1842  _commitment.X < BABYJUB_P */\n      lt\n        /* \"contracts/kzgVerifier.sol\":1809:1896  require(_commitment.X < BABYJUB_P, \"Verifier.verifyKZG: _commitment.X is out of range\") */\n      iszero\n      iszero\n      tag_124\n      jumpi\n      mload(0x40)\n      0x8c379a000000000000000000000000000000000000000000000000000000000\n      dup2\n      mstore\n      0x4\n      add\n      tag_125\n      swap1\n      jump(tag_126)\n    tag_125:\n      mload(0x40)\n      dup1\n      swap2\n      sub\n      swap1\n      revert\n    tag_124:\n        /* \"contracts/Constants.sol\":1203:1280  21888242871839275222246405745257275088548364400416034343698204186575808495617 */\n      0x30644e72e131a029b85045b68181585d2833e84879b9709143e1f593f0000001\n        /* \"contracts/kzgVerifier.sol\":1915:1926  _commitment */\n      dup6\n        /* \"contracts/kzgVerifier.sol\":1915:1928  _commitment.Y */\n      0x20\n      add\n      mload\n        /* \"contracts/kzgVerifier.sol\":1915:1940  _commitment.Y < BABYJUB_P */\n      lt\n        /* \"contracts/kzgVerifier.sol\":1907:1994  require(_commitment.Y < BABYJUB_P, \"Verifier.verifyKZG: _commitment.Y is out of range\") */\n      iszero\n      iszero\n      tag_127\n      jumpi\n      mload(0x40)\n      0x8c379a000000000000000000000000000000000000000000000000000000000\n      dup2\n      mstore\n      0x4\n      add\n      tag_128\n      swap1\n      jump(tag_129)\n    tag_128:\n      mload(0x40)\n      dup1\n      swap2\n      sub\n      swap1\n      revert\n    tag_127:\n        /* \"contracts/Constants.sol\":1203:1280  21888242871839275222246405745257275088548364400416034343698204186575808495617 */\n      0x30644e72e131a029b85045b68181585d2833e84879b9709143e1f593f0000001\n        /* \"contracts/kzgVerifier.sol\":2013:2019  _proof */\n      dup5\n        /* \"contracts/kzgVerifier.sol\":2013:2021  _proof.X */\n      0x0\n      add\n      mload\n        /* \"contracts/kzgVerifier.sol\":2013:2033  _proof.X < BABYJUB_P */\n      lt\n        /* \"contracts/kzgVerifier.sol\":2005:2082  require(_proof.X < BABYJUB_P, \"Verifier.verifyKZG: _proof.X is out of range\") */\n      iszero\n      iszero\n      tag_130\n      jumpi\n      mload(0x40)\n      0x8c379a000000000000000000000000000000000000000000000000000000000\n      dup2\n      mstore\n      0x4\n      add\n      tag_131\n      swap1\n      jump(tag_132)\n    tag_131:\n      mload(0x40)\n      dup1\n      swap2\n      sub\n      swap1\n      revert\n    tag_130:\n        /* \"contracts/Constants.sol\":1203:1280  21888242871839275222246405745257275088548364400416034343698204186575808495617 */\n      0x30644e72e131a029b85045b68181585d2833e84879b9709143e1f593f0000001\n        /* \"contracts/kzgVerifier.sol\":2101:2107  _proof */\n      dup5\n        /* \"contracts/kzgVerifier.sol\":2101:2109  _proof.Y */\n      0x20\n      add\n      mload\n        /* \"contracts/kzgVerifier.sol\":2101:2121  _proof.Y < BABYJUB_P */\n      lt\n        /* \"contracts/kzgVerifier.sol\":2093:2170  require(_proof.Y < BABYJUB_P, \"Verifier.verifyKZG: _proof.Y is out of range\") */\n      iszero\n      iszero\n      tag_133\n      jumpi\n      mload(0x40)\n      0x8c379a000000000000000000000000000000000000000000000000000000000\n      dup2\n      mstore\n      0x4\n      add\n      tag_134\n      swap1\n      jump(tag_135)\n    tag_134:\n      mload(0x40)\n      dup1\n      swap2\n      sub\n      swap1\n      revert\n    tag_133:\n        /* \"contracts/Constants.sol\":1203:1280  21888242871839275222246405745257275088548364400416034343698204186575808495617 */\n      0x30644e72e131a029b85045b68181585d2833e84879b9709143e1f593f0000001\n        /* \"contracts/kzgVerifier.sol\":2189:2195  _index */\n      dup4\n        /* \"contracts/kzgVerifier.sol\":2189:2207  _index < BABYJUB_P */\n      lt\n        /* \"contracts/kzgVerifier.sol\":2181:2254  require(_index < BABYJUB_P, \"Verifier.verifyKZG: _index is out of range\") */\n      iszero\n      iszero\n      tag_136\n      jumpi\n      mload(0x40)\n      0x8c379a000000000000000000000000000000000000000000000000000000000\n      dup2\n      mstore\n      0x4\n      add\n      tag_137\n      swap1\n      jump(tag_138)\n    tag_137:\n      mload(0x40)\n      dup1\n      swap2\n      sub\n      swap1\n      revert\n    tag_136:\n        /* \"contracts/Constants.sol\":1203:1280  21888242871839275222246405745257275088548364400416034343698204186575808495617 */\n      0x30644e72e131a029b85045b68181585d2833e84879b9709143e1f593f0000001\n        /* \"contracts/kzgVerifier.sol\":2273:2279  _value */\n      dup3\n        /* \"contracts/kzgVerifier.sol\":2273:2291  _value < BABYJUB_P */\n      lt\n        /* \"contracts/kzgVerifier.sol\":2265:2338  require(_value < BABYJUB_P, \"Verifier.verifyKZG: _value is out of range\") */\n      iszero\n      iszero\n      tag_139\n      jumpi\n      mload(0x40)\n      0x8c379a000000000000000000000000000000000000000000000000000000000\n      dup2\n      mstore\n      0x4\n      add\n      tag_140\n      swap1\n      jump(tag_141)\n    tag_140:\n      mload(0x40)\n      dup1\n      swap2\n      sub\n      swap1\n      revert\n    tag_139:\n        /* \"contracts/kzgVerifier.sol\":3476:3515  Pairing.G1Point memory commitmentMinusA */\n      tag_142\n      jump\t// in(tag_34)\n    tag_142:\n        /* \"contracts/kzgVerifier.sol\":3518:3665  Pairing.plus(\r... */\n      tag_143\n        /* \"contracts/kzgVerifier.sol\":3545:3556  _commitment */\n      dup7\n        /* \"contracts/kzgVerifier.sol\":3571:3654  Pairing.negate(\r... */\n      tag_144\n        /* \"contracts/kzgVerifier.sol\":3604:3639  Pairing.mulScalar(SRS_G1_0, _value) */\n      tag_145\n        /* \"contracts/kzgVerifier.sol\":3622:3630  SRS_G1_0 */\n      0x6\n        /* \"contracts/kzgVerifier.sol\":3604:3639  Pairing.mulScalar(SRS_G1_0, _value) */\n      0x40\n      dup1\n      mload\n      swap1\n      dup2\n      add\n      0x40\n      mstore\n      swap1\n      dup2\n      0x0\n      dup3\n      add\n      sload\n      dup2\n      mstore\n      0x20\n      add\n      0x1\n      dup3\n      add\n      sload\n      dup2\n      mstore\n      pop\n      pop\n        /* \"contracts/kzgVerifier.sol\":3632:3638  _value */\n      dup8\n        /* \"contracts/kzgVerifier.sol\":3604:3621  Pairing.mulScalar */\n      tag_47\n        /* \"contracts/kzgVerifier.sol\":3604:3639  Pairing.mulScalar(SRS_G1_0, _value) */\n      jump\t// in\n    tag_145:\n        /* \"contracts/kzgVerifier.sol\":3571:3585  Pairing.negate */\n      tag_115\n        /* \"contracts/kzgVerifier.sol\":3571:3654  Pairing.negate(\r... */\n      jump\t// in\n    tag_144:\n        /* \"contracts/kzgVerifier.sol\":3518:3530  Pairing.plus */\n      tag_48\n        /* \"contracts/kzgVerifier.sol\":3518:3665  Pairing.plus(\r... */\n      jump\t// in\n    tag_143:\n        /* \"contracts/kzgVerifier.sol\":3476:3665  Pairing.G1Point memory commitmentMinusA = Pairing.plus(\r... */\n      swap1\n      pop\n        /* \"contracts/kzgVerifier.sol\":3707:3738  Pairing.G1Point memory negProof */\n      tag_146\n      jump\t// in(tag_34)\n    tag_146:\n        /* \"contracts/kzgVerifier.sol\":3741:3763  Pairing.negate(_proof) */\n      tag_147\n        /* \"contracts/kzgVerifier.sol\":3756:3762  _proof */\n      dup7\n        /* \"contracts/kzgVerifier.sol\":3741:3755  Pairing.negate */\n      tag_115\n        /* \"contracts/kzgVerifier.sol\":3741:3763  Pairing.negate(_proof) */\n      jump\t// in\n    tag_147:\n        /* \"contracts/kzgVerifier.sol\":3707:3763  Pairing.G1Point memory negProof = Pairing.negate(_proof) */\n      swap1\n      pop\n        /* \"contracts/kzgVerifier.sol\":3810:3846  Pairing.G1Point memory indexMulProof */\n      tag_148\n      jump\t// in(tag_34)\n    tag_148:\n        /* \"contracts/kzgVerifier.sol\":3849:3882  Pairing.mulScalar(_proof, _index) */\n      tag_149\n        /* \"contracts/kzgVerifier.sol\":3867:3873  _proof */\n      dup8\n        /* \"contracts/kzgVerifier.sol\":3875:3881  _index */\n      dup8\n        /* \"contracts/kzgVerifier.sol\":3849:3866  Pairing.mulScalar */\n      tag_47\n        /* \"contracts/kzgVerifier.sol\":3849:3882  Pairing.mulScalar(_proof, _index) */\n      jump\t// in\n    tag_149:\n        /* \"contracts/kzgVerifier.sol\":3810:3882  Pairing.G1Point memory indexMulProof = Pairing.mulScalar(_proof, _index) */\n      swap1\n      pop\n        /* \"contracts/kzgVerifier.sol\":4034:4192  Pairing.pairing(\r... */\n      tag_150\n        /* \"contracts/kzgVerifier.sol\":4064:4109  Pairing.plus(indexMulProof, commitmentMinusA) */\n      tag_151\n        /* \"contracts/kzgVerifier.sol\":4077:4090  indexMulProof */\n      dup3\n        /* \"contracts/kzgVerifier.sol\":4092:4108  commitmentMinusA */\n      dup6\n        /* \"contracts/kzgVerifier.sol\":4064:4076  Pairing.plus */\n      tag_48\n        /* \"contracts/kzgVerifier.sol\":4064:4109  Pairing.plus(indexMulProof, commitmentMinusA) */\n      jump\t// in\n    tag_151:\n        /* \"contracts/kzgVerifier.sol\":4124:4135  g2Generator */\n      0x8\n        /* \"contracts/kzgVerifier.sol\":4034:4192  Pairing.pairing(\r... */\n      0x40\n      dup1\n      mload\n      swap1\n      dup2\n      add\n      0x40\n      mstore\n      swap1\n      dup2\n      0x0\n      dup3\n      add\n      0x2\n      dup1\n      0x20\n      mul\n      mload(0x40)\n      swap1\n      dup2\n      add\n      0x40\n      mstore\n      dup1\n      swap3\n      swap2\n      swap1\n      dup3\n      0x2\n      dup1\n      iszero\n      tag_152\n      jumpi\n      0x20\n      mul\n      dup3\n      add\n      swap2\n    tag_153:\n      dup2\n      sload\n      dup2\n      mstore\n      0x20\n      add\n      swap1\n      0x1\n      add\n      swap1\n      dup1\n      dup4\n      gt\n      tag_153\n      jumpi\n    tag_152:\n      pop\n      pop\n      pop\n      pop\n      pop\n      dup2\n      mstore\n      0x20\n      add\n      0x2\n      dup3\n      add\n      0x2\n      dup1\n      0x20\n      mul\n      mload(0x40)\n      swap1\n      dup2\n      add\n      0x40\n      mstore\n      dup1\n      swap3\n      swap2\n      swap1\n      dup3\n      0x2\n      dup1\n      iszero\n      tag_154\n      jumpi\n      0x20\n      mul\n      dup3\n      add\n      swap2\n    tag_155:\n      dup2\n      sload\n      dup2\n      mstore\n      0x20\n      add\n      swap1\n      0x1\n      add\n      swap1\n      dup1\n      dup4\n      gt\n      tag_155\n      jumpi\n    tag_154:\n      pop\n      pop\n      pop\n      pop\n      pop\n      dup2\n      mstore\n      pop\n      pop\n        /* \"contracts/kzgVerifier.sol\":4150:4158  negProof */\n      dup5\n        /* \"contracts/kzgVerifier.sol\":4173:4181  SRS_G2_1 */\n      0xc\n        /* \"contracts/kzgVerifier.sol\":4034:4192  Pairing.pairing(\r... */\n      0x40\n      dup1\n      mload\n      swap1\n      dup2\n      add\n      0x40\n      mstore\n      swap1\n      dup2\n      0x0\n      dup3\n      add\n      0x2\n      dup1\n      0x20\n      mul\n      mload(0x40)\n      swap1\n      dup2\n      add\n      0x40\n      mstore\n      dup1\n      swap3\n      swap2\n      swap1\n      dup3\n      0x2\n      dup1\n      iszero\n      tag_156\n      jumpi\n      0x20\n      mul\n      dup3\n      add\n      swap2\n    tag_157:\n      dup2\n      sload\n      dup2\n      mstore\n      0x20\n      add\n      swap1\n      0x1\n      add\n      swap1\n      dup1\n      dup4\n      gt\n      tag_157\n      jumpi\n    tag_156:\n      pop\n      pop\n      pop\n      pop\n      pop\n      dup2\n      mstore\n      0x20\n      add\n      0x2\n      dup3\n      add\n      0x2\n      dup1\n      0x20\n      mul\n      mload(0x40)\n      swap1\n      dup2\n      add\n      0x40\n      mstore\n      dup1\n      swap3\n      swap2\n      swap1\n      dup3\n      0x2\n      dup1\n      iszero\n      tag_158\n      jumpi\n      0x20\n      mul\n      dup3\n      add\n      swap2\n    tag_159:\n      dup2\n      sload\n      dup2\n      mstore\n      0x20\n      add\n      swap1\n      0x1\n      add\n      swap1\n      dup1\n      dup4\n      gt\n      tag_159\n      jumpi\n    tag_158:\n      pop\n      pop\n      pop\n      pop\n      pop\n      dup2\n      mstore\n      pop\n      pop\n        /* \"contracts/kzgVerifier.sol\":4034:4049  Pairing.pairing */\n      tag_122\n        /* \"contracts/kzgVerifier.sol\":4034:4192  Pairing.pairing(\r... */\n      jump\t// in\n    tag_150:\n        /* \"contracts/kzgVerifier.sol\":4027:4192  return Pairing.pairing(\r... */\n      swap4\n      pop\n      pop\n      pop\n      pop\n        /* \"contracts/kzgVerifier.sol\":1551:4200  function verify(\r... */\n      swap5\n      swap4\n      pop\n      pop\n      pop\n      pop\n      jump\t// out\n        /* \"contracts/kzgVerifier.sol\":5154:5704  function evalPolyAt(\r... */\n    tag_30:\n        /* \"contracts/kzgVerifier.sol\":5268:5275  uint256 */\n      0x0\n        /* \"contracts/kzgVerifier.sol\":5290:5299  uint256 m */\n      dup1\n        /* \"contracts/Constants.sol\":1203:1280  21888242871839275222246405745257275088548364400416034343698204186575808495617 */\n      0x30644e72e131a029b85045b68181585d2833e84879b9709143e1f593f0000001\n        /* \"contracts/kzgVerifier.sol\":5290:5321  uint256 m = Constants.BABYJUB_P */\n      swap1\n      pop\n        /* \"contracts/kzgVerifier.sol\":5332:5346  uint256 result */\n      0x0\n        /* \"contracts/kzgVerifier.sol\":5349:5350  0 */\n      dup1\n        /* \"contracts/kzgVerifier.sol\":5332:5350  uint256 result = 0 */\n      swap1\n      pop\n        /* \"contracts/kzgVerifier.sol\":5361:5377  uint256 powerOfX */\n      0x0\n        /* \"contracts/kzgVerifier.sol\":5380:5381  1 */\n      0x1\n        /* \"contracts/kzgVerifier.sol\":5361:5381  uint256 powerOfX = 1 */\n      swap1\n      pop\n        /* \"contracts/kzgVerifier.sol\":5399:5408  uint256 i */\n      0x0\n        /* \"contracts/kzgVerifier.sol\":5411:5412  0 */\n      dup1\n        /* \"contracts/kzgVerifier.sol\":5399:5412  uint256 i = 0 */\n      swap1\n      pop\n        /* \"contracts/kzgVerifier.sol\":5394:5673  for (uint256 i = 0; i < _coefficients.length; i ++) {\r... */\n    tag_161:\n        /* \"contracts/kzgVerifier.sol\":5418:5431  _coefficients */\n      dup7\n        /* \"contracts/kzgVerifier.sol\":5418:5438  _coefficients.length */\n      mload\n        /* \"contracts/kzgVerifier.sol\":5414:5415  i */\n      dup2\n        /* \"contracts/kzgVerifier.sol\":5414:5438  i < _coefficients.length */\n      lt\n        /* \"contracts/kzgVerifier.sol\":5394:5673  for (uint256 i = 0; i < _coefficients.length; i ++) {\r... */\n      iszero\n      tag_162\n      jumpi\n        /* \"contracts/kzgVerifier.sol\":5461:5474  uint256 coeff */\n      0x0\n        /* \"contracts/kzgVerifier.sol\":5477:5490  _coefficients */\n      dup8\n        /* \"contracts/kzgVerifier.sol\":5491:5492  i */\n      dup3\n        /* \"contracts/kzgVerifier.sol\":5477:5493  _coefficients[i] */\n      dup2\n      mload\n      dup2\n      lt\n      iszero\n      iszero\n      tag_164\n      jumpi\n      invalid\n    tag_164:\n      swap1\n      0x20\n      add\n      swap1\n      0x20\n      mul\n      add\n      mload\n        /* \"contracts/kzgVerifier.sol\":5461:5493  uint256 coeff = _coefficients[i] */\n      swap1\n      pop\n        /* \"contracts/kzgVerifier.sol\":5588:5589  m */\n      dup5\n        /* \"contracts/kzgVerifier.sol\":5584:5585  m */\n      dup6\n        /* \"contracts/kzgVerifier.sol\":5577:5582  coeff */\n      dup3\n        /* \"contracts/kzgVerifier.sol\":5567:5575  powerOfX */\n      dup6\n        /* \"contracts/kzgVerifier.sol\":5560:5586  mulmod(powerOfX, coeff, m) */\n      mulmod\n        /* \"contracts/kzgVerifier.sol\":5552:5558  result */\n      dup6\n        /* \"contracts/kzgVerifier.sol\":5545:5590  addmod(result, mulmod(powerOfX, coeff, m), m) */\n      addmod\n        /* \"contracts/kzgVerifier.sol\":5536:5590  result:= addmod(result, mulmod(powerOfX, coeff, m), m) */\n      swap4\n      pop\n        /* \"contracts/kzgVerifier.sol\":5645:5646  m */\n      dup5\n        /* \"contracts/kzgVerifier.sol\":5637:5643  _index */\n      dup8\n        /* \"contracts/kzgVerifier.sol\":5627:5635  powerOfX */\n      dup5\n        /* \"contracts/kzgVerifier.sol\":5620:5647  mulmod(powerOfX, _index, m) */\n      mulmod\n        /* \"contracts/kzgVerifier.sol\":5608:5647  powerOfX := mulmod(powerOfX, _index, m) */\n      swap3\n      pop\n        /* \"contracts/kzgVerifier.sol\":5517:5662  {\r... */\n      pop\n        /* \"contracts/kzgVerifier.sol\":5440:5444  i ++ */\n      dup1\n      dup1\n      0x1\n      add\n      swap2\n      pop\n      pop\n        /* \"contracts/kzgVerifier.sol\":5394:5673  for (uint256 i = 0; i < _coefficients.length; i ++) {\r... */\n      jump(tag_161)\n    tag_162:\n      pop\n        /* \"contracts/kzgVerifier.sol\":5690:5696  result */\n      dup2\n        /* \"contracts/kzgVerifier.sol\":5683:5696  return result */\n      swap4\n      pop\n      pop\n      pop\n      pop\n        /* \"contracts/kzgVerifier.sol\":5154:5704  function evalPolyAt(\r... */\n      swap3\n      swap2\n      pop\n      pop\n      jump\t// out\n        /* \"contracts/Pairing.sol\":1642:2200  function mulScalar(G1Point memory p, uint256 s) internal view returns (G1Point memory r) {\r... */\n    tag_47:\n        /* \"contracts/Pairing.sol\":1713:1729  G1Point memory r */\n      tag_165\n      jump\t// in(tag_34)\n    tag_165:\n        /* \"contracts/Pairing.sol\":1744:1767  uint256[3] memory input */\n      tag_167\n      jump\t// in(tag_168)\n    tag_167:\n        /* \"contracts/Pairing.sol\":1789:1790  p */\n      dup4\n        /* \"contracts/Pairing.sol\":1789:1792  p.X */\n      0x0\n      add\n      mload\n        /* \"contracts/Pairing.sol\":1778:1783  input */\n      dup2\n        /* \"contracts/Pairing.sol\":1784:1785  0 */\n      0x0\n        /* \"contracts/Pairing.sol\":1778:1786  input[0] */\n      0x3\n      dup2\n      lt\n      iszero\n      iszero\n      tag_169\n      jumpi\n      invalid\n    tag_169:\n      0x20\n      mul\n      add\n        /* \"contracts/Pairing.sol\":1778:1792  input[0] = p.X */\n      dup2\n      dup2\n      mstore\n      pop\n      pop\n        /* \"contracts/Pairing.sol\":1814:1815  p */\n      dup4\n        /* \"contracts/Pairing.sol\":1814:1817  p.Y */\n      0x20\n      add\n      mload\n        /* \"contracts/Pairing.sol\":1803:1808  input */\n      dup2\n        /* \"contracts/Pairing.sol\":1809:1810  1 */\n      0x1\n        /* \"contracts/Pairing.sol\":1803:1811  input[1] */\n      0x3\n      dup2\n      lt\n      iszero\n      iszero\n      tag_170\n      jumpi\n      invalid\n    tag_170:\n      0x20\n      mul\n      add\n        /* \"contracts/Pairing.sol\":1803:1817  input[1] = p.Y */\n      dup2\n      dup2\n      mstore\n      pop\n      pop\n        /* \"contracts/Pairing.sol\":1839:1840  s */\n      dup3\n        /* \"contracts/Pairing.sol\":1828:1833  input */\n      dup2\n        /* \"contracts/Pairing.sol\":1834:1835  2 */\n      0x2\n        /* \"contracts/Pairing.sol\":1828:1836  input[2] */\n      0x3\n      dup2\n      lt\n      iszero\n      iszero\n      tag_171\n      jumpi\n      invalid\n    tag_171:\n      0x20\n      mul\n      add\n        /* \"contracts/Pairing.sol\":1828:1840  input[2] = s */\n      dup2\n      dup2\n      mstore\n      pop\n      pop\n        /* \"contracts/Pairing.sol\":1851:1863  bool success */\n      0x0\n        /* \"contracts/Pairing.sol\":2020:2024  0x60 */\n      0x60\n        /* \"contracts/Pairing.sol\":2017:2018  r */\n      dup4\n        /* \"contracts/Pairing.sol\":2011:2015  0x80 */\n      0x80\n        /* \"contracts/Pairing.sol\":2004:2009  input */\n      dup5\n        /* \"contracts/Pairing.sol\":2001:2002  7 */\n      0x7\n        /* \"contracts/Pairing.sol\":1994:1998  2000 */\n      0x7d0\n        /* \"contracts/Pairing.sol\":1989:1992  gas */\n      gas\n        /* \"contracts/Pairing.sol\":1985:1999  sub(gas, 2000) */\n      sub\n        /* \"contracts/Pairing.sol\":1974:2025  staticcall(sub(gas, 2000), 7, input, 0x80, r, 0x60) */\n      staticcall\n        /* \"contracts/Pairing.sol\":1963:2025  success := staticcall(sub(gas, 2000), 7, input, 0x80, r, 0x60) */\n      swap1\n      pop\n        /* \"contracts/Pairing.sol\":2104:2111  success */\n      dup1\n        /* \"contracts/Pairing.sol\":2117:2118  0 */\n      0x0\n        /* \"contracts/Pairing.sol\":2112:2132  case 0 { invalid() } */\n      dup2\n      eq\n      tag_173\n      jumpi\n        /* \"contracts/Pairing.sol\":2097:2132  switch success case 0 { invalid() } */\n      jump(tag_172)\n        /* \"contracts/Pairing.sol\":2112:2132  case 0 { invalid() } */\n    tag_173:\n        /* \"contracts/Pairing.sol\":2121:2130  invalid() */\n      invalid\n        /* \"contracts/Pairing.sol\":2097:2132  switch success case 0 { invalid() } */\n    tag_172:\n      pop\n        /* \"contracts/Pairing.sol\":2162:2169  success */\n      dup1\n        /* \"contracts/Pairing.sol\":2153:2192  require (success, \"pairing-mul-failed\") */\n      iszero\n      iszero\n      tag_174\n      jumpi\n      mload(0x40)\n      0x8c379a000000000000000000000000000000000000000000000000000000000\n      dup2\n      mstore\n      0x4\n      add\n      tag_175\n      swap1\n      jump(tag_176)\n    tag_175:\n      mload(0x40)\n      dup1\n      swap2\n      sub\n      swap1\n      revert\n    tag_174:\n        /* \"contracts/Pairing.sol\":1642:2200  function mulScalar(G1Point memory p, uint256 s) internal view returns (G1Point memory r) {\r... */\n      pop\n      pop\n      swap3\n      swap2\n      pop\n      pop\n      jump\t// out\n        /* \"contracts/Pairing.sol\":828:1449  function plus(\r... */\n    tag_48:\n        /* \"contracts/Pairing.sol\":928:944  G1Point memory r */\n      tag_177\n      jump\t// in(tag_34)\n    tag_177:\n        /* \"contracts/Pairing.sol\":959:982  uint256[4] memory input */\n      tag_179\n      jump\t// in(tag_180)\n    tag_179:\n        /* \"contracts/Pairing.sol\":1004:1006  p1 */\n      dup4\n        /* \"contracts/Pairing.sol\":1004:1008  p1.X */\n      0x0\n      add\n      mload\n        /* \"contracts/Pairing.sol\":993:998  input */\n      dup2\n        /* \"contracts/Pairing.sol\":999:1000  0 */\n      0x0\n        /* \"contracts/Pairing.sol\":993:1001  input[0] */\n      0x4\n      dup2\n      lt\n      iszero\n      iszero\n      tag_181\n      jumpi\n      invalid\n    tag_181:\n      0x20\n      mul\n      add\n        /* \"contracts/Pairing.sol\":993:1008  input[0] = p1.X */\n      dup2\n      dup2\n      mstore\n      pop\n      pop\n        /* \"contracts/Pairing.sol\":1030:1032  p1 */\n      dup4\n        /* \"contracts/Pairing.sol\":1030:1034  p1.Y */\n      0x20\n      add\n      mload\n        /* \"contracts/Pairing.sol\":1019:1024  input */\n      dup2\n        /* \"contracts/Pairing.sol\":1025:1026  1 */\n      0x1\n        /* \"contracts/Pairing.sol\":1019:1027  input[1] */\n      0x4\n      dup2\n      lt\n      iszero\n      iszero\n      tag_182\n      jumpi\n      invalid\n    tag_182:\n      0x20\n      mul\n      add\n        /* \"contracts/Pairing.sol\":1019:1034  input[1] = p1.Y */\n      dup2\n      dup2\n      mstore\n      pop\n      pop\n        /* \"contracts/Pairing.sol\":1056:1058  p2 */\n      dup3\n        /* \"contracts/Pairing.sol\":1056:1060  p2.X */\n      0x0\n      add\n      mload\n        /* \"contracts/Pairing.sol\":1045:1050  input */\n      dup2\n        /* \"contracts/Pairing.sol\":1051:1052  2 */\n      0x2\n        /* \"contracts/Pairing.sol\":1045:1053  input[2] */\n      0x4\n      dup2\n      lt\n      iszero\n      iszero\n      tag_183\n      jumpi\n      invalid\n    tag_183:\n      0x20\n      mul\n      add\n        /* \"contracts/Pairing.sol\":1045:1060  input[2] = p2.X */\n      dup2\n      dup2\n      mstore\n      pop\n      pop\n        /* \"contracts/Pairing.sol\":1082:1084  p2 */\n      dup3\n        /* \"contracts/Pairing.sol\":1082:1086  p2.Y */\n      0x20\n      add\n      mload\n        /* \"contracts/Pairing.sol\":1071:1076  input */\n      dup2\n        /* \"contracts/Pairing.sol\":1077:1078  3 */\n      0x3\n        /* \"contracts/Pairing.sol\":1071:1079  input[3] */\n      0x4\n      dup2\n      lt\n      iszero\n      iszero\n      tag_184\n      jumpi\n      invalid\n    tag_184:\n      0x20\n      mul\n      add\n        /* \"contracts/Pairing.sol\":1071:1086  input[3] = p2.Y */\n      dup2\n      dup2\n      mstore\n      pop\n      pop\n        /* \"contracts/Pairing.sol\":1097:1109  bool success */\n      0x0\n        /* \"contracts/Pairing.sol\":1268:1272  0x60 */\n      0x60\n        /* \"contracts/Pairing.sol\":1265:1266  r */\n      dup4\n        /* \"contracts/Pairing.sol\":1259:1263  0xc0 */\n      0xc0\n        /* \"contracts/Pairing.sol\":1252:1257  input */\n      dup5\n        /* \"contracts/Pairing.sol\":1249:1250  6 */\n      0x6\n        /* \"contracts/Pairing.sol\":1242:1246  2000 */\n      0x7d0\n        /* \"contracts/Pairing.sol\":1237:1240  gas */\n      gas\n        /* \"contracts/Pairing.sol\":1233:1247  sub(gas, 2000) */\n      sub\n        /* \"contracts/Pairing.sol\":1222:1273  staticcall(sub(gas, 2000), 6, input, 0xc0, r, 0x60) */\n      staticcall\n        /* \"contracts/Pairing.sol\":1211:1273  success := staticcall(sub(gas, 2000), 6, input, 0xc0, r, 0x60) */\n      swap1\n      pop\n        /* \"contracts/Pairing.sol\":1352:1359  success */\n      dup1\n        /* \"contracts/Pairing.sol\":1365:1366  0 */\n      0x0\n        /* \"contracts/Pairing.sol\":1360:1380  case 0 { invalid() } */\n      dup2\n      eq\n      tag_186\n      jumpi\n        /* \"contracts/Pairing.sol\":1345:1380  switch success case 0 { invalid() } */\n      jump(tag_185)\n        /* \"contracts/Pairing.sol\":1360:1380  case 0 { invalid() } */\n    tag_186:\n        /* \"contracts/Pairing.sol\":1369:1378  invalid() */\n      invalid\n        /* \"contracts/Pairing.sol\":1345:1380  switch success case 0 { invalid() } */\n    tag_185:\n      pop\n        /* \"contracts/Pairing.sol\":1411:1418  success */\n      dup1\n        /* \"contracts/Pairing.sol\":1403:1441  require(success, \"pairing-add-failed\") */\n      iszero\n      iszero\n      tag_187\n      jumpi\n      mload(0x40)\n      0x8c379a000000000000000000000000000000000000000000000000000000000\n      dup2\n      mstore\n      0x4\n      add\n      tag_188\n      swap1\n      jump(tag_189)\n    tag_188:\n      mload(0x40)\n      dup1\n      swap2\n      sub\n      swap1\n      revert\n    tag_187:\n        /* \"contracts/Pairing.sol\":828:1449  function plus(\r... */\n      pop\n      pop\n      swap3\n      swap2\n      pop\n      pop\n      jump\t// out\n        /* \"contracts/Pairing.sol\":461:759  function negate(G1Point memory p) internal pure returns (G1Point memory) {\r... */\n    tag_115:\n        /* \"contracts/Pairing.sol\":518:532  G1Point memory */\n      tag_190\n      jump\t// in(tag_34)\n    tag_190:\n        /* \"contracts/Pairing.sol\":611:612  0 */\n      0x0\n        /* \"contracts/Pairing.sol\":604:605  p */\n      dup3\n        /* \"contracts/Pairing.sol\":604:607  p.X */\n      0x0\n      add\n      mload\n        /* \"contracts/Pairing.sol\":604:612  p.X == 0 */\n      eq\n        /* \"contracts/Pairing.sol\":604:624  p.X == 0 && p.Y == 0 */\n      dup1\n      iszero\n      tag_192\n      jumpi\n      pop\n        /* \"contracts/Pairing.sol\":623:624  0 */\n      0x0\n        /* \"contracts/Pairing.sol\":616:617  p */\n      dup3\n        /* \"contracts/Pairing.sol\":616:619  p.Y */\n      0x20\n      add\n      mload\n        /* \"contracts/Pairing.sol\":616:624  p.Y == 0 */\n      eq\n        /* \"contracts/Pairing.sol\":604:624  p.X == 0 && p.Y == 0 */\n    tag_192:\n        /* \"contracts/Pairing.sol\":600:752  if (p.X == 0 && p.Y == 0) {\r... */\n      iszero\n      tag_193\n      jumpi\n        /* \"contracts/Pairing.sol\":648:661  G1Point(0, 0) */\n      0x40\n      dup1\n      mload\n      swap1\n      dup2\n      add\n      0x40\n      mstore\n      dup1\n        /* \"contracts/Pairing.sol\":656:657  0 */\n      0x0\n        /* \"contracts/Pairing.sol\":648:661  G1Point(0, 0) */\n      dup2\n      mstore\n      0x20\n      add\n        /* \"contracts/Pairing.sol\":659:660  0 */\n      0x0\n        /* \"contracts/Pairing.sol\":648:661  G1Point(0, 0) */\n      dup2\n      mstore\n      pop\n        /* \"contracts/Pairing.sol\":641:661  return G1Point(0, 0) */\n      swap1\n      pop\n      jump(tag_191)\n        /* \"contracts/Pairing.sol\":600:752  if (p.X == 0 && p.Y == 0) {\r... */\n    tag_193:\n        /* \"contracts/Pairing.sol\":701:740  G1Point(p.X, PRIME_Q - (p.Y % PRIME_Q)) */\n      0x40\n      dup1\n      mload\n      swap1\n      dup2\n      add\n      0x40\n      mstore\n      dup1\n        /* \"contracts/Pairing.sol\":709:710  p */\n      dup4\n        /* \"contracts/Pairing.sol\":709:712  p.X */\n      0x0\n      add\n      mload\n        /* \"contracts/Pairing.sol\":701:740  G1Point(p.X, PRIME_Q - (p.Y % PRIME_Q)) */\n      dup2\n      mstore\n      0x20\n      add\n        /* \"contracts/Pairing.sol\":79:156  21888242871839275222246405745257275088696311157297823662689037894645226208583 */\n      0x30644e72e131a029b85045b68181585d97816a916871ca8d3c208c16d87cfd47\n        /* \"contracts/Pairing.sol\":725:726  p */\n      dup5\n        /* \"contracts/Pairing.sol\":725:728  p.Y */\n      0x20\n      add\n      mload\n        /* \"contracts/Pairing.sol\":725:738  p.Y % PRIME_Q */\n      dup2\n      iszero\n      iszero\n      tag_195\n      jumpi\n      invalid\n    tag_195:\n      mod\n        /* \"contracts/Pairing.sol\":79:156  21888242871839275222246405745257275088696311157297823662689037894645226208583 */\n      0x30644e72e131a029b85045b68181585d97816a916871ca8d3c208c16d87cfd47\n        /* \"contracts/Pairing.sol\":714:739  PRIME_Q - (p.Y % PRIME_Q) */\n      sub\n        /* \"contracts/Pairing.sol\":701:740  G1Point(p.X, PRIME_Q - (p.Y % PRIME_Q)) */\n      dup2\n      mstore\n      pop\n        /* \"contracts/Pairing.sol\":694:740  return G1Point(p.X, PRIME_Q - (p.Y % PRIME_Q)) */\n      swap1\n      pop\n        /* \"contracts/Pairing.sol\":461:759  function negate(G1Point memory p) internal pure returns (G1Point memory) {\r... */\n    tag_191:\n      swap2\n      swap1\n      pop\n      jump\t// out\n        /* \"contracts/Pairing.sol\":2448:3576  function pairing(\r... */\n    tag_122:\n        /* \"contracts/Pairing.sol\":2607:2611  bool */\n      0x0\n        /* \"contracts/Pairing.sol\":2626:2646  G1Point[2] memory p1 */\n      tag_197\n      jump\t// in(tag_198)\n    tag_197:\n        /* \"contracts/Pairing.sol\":2626:2657  G1Point[2] memory p1 = [a1, b1] */\n      0x40\n      dup1\n      mload\n      swap1\n      dup2\n      add\n      0x40\n      mstore\n      dup1\n        /* \"contracts/Pairing.sol\":2650:2652  a1 */\n      dup8\n        /* \"contracts/Pairing.sol\":2626:2657  G1Point[2] memory p1 = [a1, b1] */\n      dup2\n      mstore\n      0x20\n      add\n        /* \"contracts/Pairing.sol\":2654:2656  b1 */\n      dup6\n        /* \"contracts/Pairing.sol\":2626:2657  G1Point[2] memory p1 = [a1, b1] */\n      dup2\n      mstore\n      pop\n      swap1\n      pop\n        /* \"contracts/Pairing.sol\":2668:2688  G2Point[2] memory p2 */\n      tag_199\n      jump\t// in(tag_200)\n    tag_199:\n        /* \"contracts/Pairing.sol\":2668:2699  G2Point[2] memory p2 = [a2, b2] */\n      0x40\n      dup1\n      mload\n      swap1\n      dup2\n      add\n      0x40\n      mstore\n      dup1\n        /* \"contracts/Pairing.sol\":2692:2694  a2 */\n      dup8\n        /* \"contracts/Pairing.sol\":2668:2699  G2Point[2] memory p2 = [a2, b2] */\n      dup2\n      mstore\n      0x20\n      add\n        /* \"contracts/Pairing.sol\":2696:2698  b2 */\n      dup6\n        /* \"contracts/Pairing.sol\":2668:2699  G2Point[2] memory p2 = [a2, b2] */\n      dup2\n      mstore\n      pop\n      swap1\n      pop\n        /* \"contracts/Pairing.sol\":2712:2729  uint256 inputSize */\n      0x0\n        /* \"contracts/Pairing.sol\":2732:2734  12 */\n      0xc\n        /* \"contracts/Pairing.sol\":2712:2734  uint256 inputSize = 12 */\n      swap1\n      pop\n        /* \"contracts/Pairing.sol\":2745:2767  uint256[] memory input */\n      0x60\n        /* \"contracts/Pairing.sol\":2784:2793  inputSize */\n      dup2\n        /* \"contracts/Pairing.sol\":2770:2794  new uint256[](inputSize) */\n      mload(0x40)\n      swap1\n      dup1\n      dup3\n      mstore\n      dup1\n      0x20\n      mul\n      0x20\n      add\n      dup3\n      add\n      0x40\n      mstore\n      dup1\n      iszero\n      tag_201\n      jumpi\n      dup2\n      0x20\n      add\n        /* \"--CODEGEN--\":29:31   */\n      0x20\n        /* \"--CODEGEN--\":21:27   */\n      dup3\n        /* \"--CODEGEN--\":17:32   */\n      mul\n        /* \"--CODEGEN--\":117:121   */\n      dup1\n        /* \"--CODEGEN--\":105:115   */\n      codesize\n        /* \"--CODEGEN--\":97:103   */\n      dup4\n        /* \"--CODEGEN--\":88:122   */\n      codecopy\n        /* \"--CODEGEN--\":148:152   */\n      dup1\n        /* \"--CODEGEN--\":140:146   */\n      dup3\n        /* \"--CODEGEN--\":136:153   */\n      add\n        /* \"--CODEGEN--\":126:153   */\n      swap2\n      pop\n        /* \"--CODEGEN--\":0:157   */\n      pop\n        /* \"contracts/Pairing.sol\":2770:2794  new uint256[](inputSize) */\n      swap1\n      pop\n    tag_201:\n      pop\n        /* \"contracts/Pairing.sol\":2745:2794  uint256[] memory input = new uint256[](inputSize) */\n      swap1\n      pop\n        /* \"contracts/Pairing.sol\":2812:2821  uint256 i */\n      0x0\n        /* \"contracts/Pairing.sol\":2824:2825  0 */\n      dup1\n        /* \"contracts/Pairing.sol\":2812:2825  uint256 i = 0 */\n      swap1\n      pop\n        /* \"contracts/Pairing.sol\":2807:3117  for (uint256 i = 0; i < 2; i++) {\r... */\n    tag_202:\n        /* \"contracts/Pairing.sol\":2831:2832  2 */\n      0x2\n        /* \"contracts/Pairing.sol\":2827:2828  i */\n      dup2\n        /* \"contracts/Pairing.sol\":2827:2832  i < 2 */\n      lt\n        /* \"contracts/Pairing.sol\":2807:3117  for (uint256 i = 0; i < 2; i++) {\r... */\n      iszero\n      tag_203\n      jumpi\n        /* \"contracts/Pairing.sol\":2854:2863  uint256 j */\n      0x0\n        /* \"contracts/Pairing.sol\":2870:2871  6 */\n      0x6\n        /* \"contracts/Pairing.sol\":2866:2867  i */\n      dup3\n        /* \"contracts/Pairing.sol\":2866:2871  i * 6 */\n      mul\n        /* \"contracts/Pairing.sol\":2854:2871  uint256 j = i * 6 */\n      swap1\n      pop\n        /* \"contracts/Pairing.sol\":2901:2903  p1 */\n      dup6\n        /* \"contracts/Pairing.sol\":2904:2905  i */\n      dup3\n        /* \"contracts/Pairing.sol\":2901:2906  p1[i] */\n      0x2\n      dup2\n      lt\n      iszero\n      iszero\n      tag_205\n      jumpi\n      invalid\n    tag_205:\n      0x20\n      mul\n      add\n      mload\n        /* \"contracts/Pairing.sol\":2901:2908  p1[i].X */\n      0x0\n      add\n      mload\n        /* \"contracts/Pairing.sol\":2886:2891  input */\n      dup4\n        /* \"contracts/Pairing.sol\":2896:2897  0 */\n      0x0\n        /* \"contracts/Pairing.sol\":2892:2893  j */\n      dup4\n        /* \"contracts/Pairing.sol\":2892:2897  j + 0 */\n      add\n        /* \"contracts/Pairing.sol\":2886:2898  input[j + 0] */\n      dup2\n      mload\n      dup2\n      lt\n      iszero\n      iszero\n      tag_206\n      jumpi\n      invalid\n    tag_206:\n      swap1\n      0x20\n      add\n      swap1\n      0x20\n      mul\n      add\n        /* \"contracts/Pairing.sol\":2886:2908  input[j + 0] = p1[i].X */\n      dup2\n      dup2\n      mstore\n      pop\n      pop\n        /* \"contracts/Pairing.sol\":2938:2940  p1 */\n      dup6\n        /* \"contracts/Pairing.sol\":2941:2942  i */\n      dup3\n        /* \"contracts/Pairing.sol\":2938:2943  p1[i] */\n      0x2\n      dup2\n      lt\n      iszero\n      iszero\n      tag_207\n      jumpi\n      invalid\n    tag_207:\n      0x20\n      mul\n      add\n      mload\n        /* \"contracts/Pairing.sol\":2938:2945  p1[i].Y */\n      0x20\n      add\n      mload\n        /* \"contracts/Pairing.sol\":2923:2928  input */\n      dup4\n        /* \"contracts/Pairing.sol\":2933:2934  1 */\n      0x1\n        /* \"contracts/Pairing.sol\":2929:2930  j */\n      dup4\n        /* \"contracts/Pairing.sol\":2929:2934  j + 1 */\n      add\n        /* \"contracts/Pairing.sol\":2923:2935  input[j + 1] */\n      dup2\n      mload\n      dup2\n      lt\n      iszero\n      iszero\n      tag_208\n      jumpi\n      invalid\n    tag_208:\n      swap1\n      0x20\n      add\n      swap1\n      0x20\n      mul\n      add\n        /* \"contracts/Pairing.sol\":2923:2945  input[j + 1] = p1[i].Y */\n      dup2\n      dup2\n      mstore\n      pop\n      pop\n        /* \"contracts/Pairing.sol\":2975:2977  p2 */\n      dup5\n        /* \"contracts/Pairing.sol\":2978:2979  i */\n      dup3\n        /* \"contracts/Pairing.sol\":2975:2980  p2[i] */\n      0x2\n      dup2\n      lt\n      iszero\n      iszero\n      tag_209\n      jumpi\n      invalid\n    tag_209:\n      0x20\n      mul\n      add\n      mload\n        /* \"contracts/Pairing.sol\":2975:2982  p2[i].X */\n      0x0\n      add\n      mload\n        /* \"contracts/Pairing.sol\":2983:2984  0 */\n      0x0\n        /* \"contracts/Pairing.sol\":2975:2985  p2[i].X[0] */\n      0x2\n      dup2\n      lt\n      iszero\n      iszero\n      tag_210\n      jumpi\n      invalid\n    tag_210:\n      0x20\n      mul\n      add\n      mload\n        /* \"contracts/Pairing.sol\":2960:2965  input */\n      dup4\n        /* \"contracts/Pairing.sol\":2970:2971  2 */\n      0x2\n        /* \"contracts/Pairing.sol\":2966:2967  j */\n      dup4\n        /* \"contracts/Pairing.sol\":2966:2971  j + 2 */\n      add\n        /* \"contracts/Pairing.sol\":2960:2972  input[j + 2] */\n      dup2\n      mload\n      dup2\n      lt\n      iszero\n      iszero\n      tag_211\n      jumpi\n      invalid\n    tag_211:\n      swap1\n      0x20\n      add\n      swap1\n      0x20\n      mul\n      add\n        /* \"contracts/Pairing.sol\":2960:2985  input[j + 2] = p2[i].X[0] */\n      dup2\n      dup2\n      mstore\n      pop\n      pop\n        /* \"contracts/Pairing.sol\":3015:3017  p2 */\n      dup5\n        /* \"contracts/Pairing.sol\":3018:3019  i */\n      dup3\n        /* \"contracts/Pairing.sol\":3015:3020  p2[i] */\n      0x2\n      dup2\n      lt\n      iszero\n      iszero\n      tag_212\n      jumpi\n      invalid\n    tag_212:\n      0x20\n      mul\n      add\n      mload\n        /* \"contracts/Pairing.sol\":3015:3022  p2[i].X */\n      0x0\n      add\n      mload\n        /* \"contracts/Pairing.sol\":3023:3024  1 */\n      0x1\n        /* \"contracts/Pairing.sol\":3015:3025  p2[i].X[1] */\n      0x2\n      dup2\n      lt\n      iszero\n      iszero\n      tag_213\n      jumpi\n      invalid\n    tag_213:\n      0x20\n      mul\n      add\n      mload\n        /* \"contracts/Pairing.sol\":3000:3005  input */\n      dup4\n        /* \"contracts/Pairing.sol\":3010:3011  3 */\n      0x3\n        /* \"contracts/Pairing.sol\":3006:3007  j */\n      dup4\n        /* \"contracts/Pairing.sol\":3006:3011  j + 3 */\n      add\n        /* \"contracts/Pairing.sol\":3000:3012  input[j + 3] */\n      dup2\n      mload\n      dup2\n      lt\n      iszero\n      iszero\n      tag_214\n      jumpi\n      invalid\n    tag_214:\n      swap1\n      0x20\n      add\n      swap1\n      0x20\n      mul\n      add\n        /* \"contracts/Pairing.sol\":3000:3025  input[j + 3] = p2[i].X[1] */\n      dup2\n      dup2\n      mstore\n      pop\n      pop\n        /* \"contracts/Pairing.sol\":3055:3057  p2 */\n      dup5\n        /* \"contracts/Pairing.sol\":3058:3059  i */\n      dup3\n        /* \"contracts/Pairing.sol\":3055:3060  p2[i] */\n      0x2\n      dup2\n      lt\n      iszero\n      iszero\n      tag_215\n      jumpi\n      invalid\n    tag_215:\n      0x20\n      mul\n      add\n      mload\n        /* \"contracts/Pairing.sol\":3055:3062  p2[i].Y */\n      0x20\n      add\n      mload\n        /* \"contracts/Pairing.sol\":3063:3064  0 */\n      0x0\n        /* \"contracts/Pairing.sol\":3055:3065  p2[i].Y[0] */\n      0x2\n      dup2\n      lt\n      iszero\n      iszero\n      tag_216\n      jumpi\n      invalid\n    tag_216:\n      0x20\n      mul\n      add\n      mload\n        /* \"contracts/Pairing.sol\":3040:3045  input */\n      dup4\n        /* \"contracts/Pairing.sol\":3050:3051  4 */\n      0x4\n        /* \"contracts/Pairing.sol\":3046:3047  j */\n      dup4\n        /* \"contracts/Pairing.sol\":3046:3051  j + 4 */\n      add\n        /* \"contracts/Pairing.sol\":3040:3052  input[j + 4] */\n      dup2\n      mload\n      dup2\n      lt\n      iszero\n      iszero\n      tag_217\n      jumpi\n      invalid\n    tag_217:\n      swap1\n      0x20\n      add\n      swap1\n      0x20\n      mul\n      add\n        /* \"contracts/Pairing.sol\":3040:3065  input[j + 4] = p2[i].Y[0] */\n      dup2\n      dup2\n      mstore\n      pop\n      pop\n        /* \"contracts/Pairing.sol\":3095:3097  p2 */\n      dup5\n        /* \"contracts/Pairing.sol\":3098:3099  i */\n      dup3\n        /* \"contracts/Pairing.sol\":3095:3100  p2[i] */\n      0x2\n      dup2\n      lt\n      iszero\n      iszero\n      tag_218\n      jumpi\n      invalid\n    tag_218:\n      0x20\n      mul\n      add\n      mload\n        /* \"contracts/Pairing.sol\":3095:3102  p2[i].Y */\n      0x20\n      add\n      mload\n        /* \"contracts/Pairing.sol\":3103:3104  1 */\n      0x1\n        /* \"contracts/Pairing.sol\":3095:3105  p2[i].Y[1] */\n      0x2\n      dup2\n      lt\n      iszero\n      iszero\n      tag_219\n      jumpi\n      invalid\n    tag_219:\n      0x20\n      mul\n      add\n      mload\n        /* \"contracts/Pairing.sol\":3080:3085  input */\n      dup4\n        /* \"contracts/Pairing.sol\":3090:3091  5 */\n      0x5\n        /* \"contracts/Pairing.sol\":3086:3087  j */\n      dup4\n        /* \"contracts/Pairing.sol\":3086:3091  j + 5 */\n      add\n        /* \"contracts/Pairing.sol\":3080:3092  input[j + 5] */\n      dup2\n      mload\n      dup2\n      lt\n      iszero\n      iszero\n      tag_220\n      jumpi\n      invalid\n    tag_220:\n      swap1\n      0x20\n      add\n      swap1\n      0x20\n      mul\n      add\n        /* \"contracts/Pairing.sol\":3080:3105  input[j + 5] = p2[i].Y[1] */\n      dup2\n      dup2\n      mstore\n      pop\n      pop\n        /* \"contracts/Pairing.sol\":2807:3117  for (uint256 i = 0; i < 2; i++) {\r... */\n      pop\n        /* \"contracts/Pairing.sol\":2834:2837  i++ */\n      dup1\n      dup1\n      0x1\n      add\n      swap2\n      pop\n      pop\n        /* \"contracts/Pairing.sol\":2807:3117  for (uint256 i = 0; i < 2; i++) {\r... */\n      jump(tag_202)\n    tag_203:\n      pop\n        /* \"contracts/Pairing.sol\":3129:3150  uint256[1] memory out */\n      tag_221\n      jump\t// in(tag_222)\n    tag_221:\n        /* \"contracts/Pairing.sol\":3161:3173  bool success */\n      0x0\n        /* \"contracts/Pairing.sol\":3361:3365  0x20 */\n      0x20\n        /* \"contracts/Pairing.sol\":3356:3359  out */\n      dup3\n        /* \"contracts/Pairing.sol\":3349:3353  0x20 */\n      0x20\n        /* \"contracts/Pairing.sol\":3338:3347  inputSize */\n      dup7\n        /* \"contracts/Pairing.sol\":3334:3354  mul(inputSize, 0x20) */\n      mul\n        /* \"contracts/Pairing.sol\":3327:3331  0x20 */\n      0x20\n        /* \"contracts/Pairing.sol\":3320:3325  input */\n      dup7\n        /* \"contracts/Pairing.sol\":3316:3332  add(input, 0x20) */\n      add\n        /* \"contracts/Pairing.sol\":3313:3314  8 */\n      0x8\n        /* \"contracts/Pairing.sol\":3306:3310  2000 */\n      0x7d0\n        /* \"contracts/Pairing.sol\":3301:3304  gas */\n      gas\n        /* \"contracts/Pairing.sol\":3297:3311  sub(gas, 2000) */\n      sub\n        /* \"contracts/Pairing.sol\":3286:3366  staticcall(sub(gas, 2000), 8, add(input, 0x20), mul(inputSize, 0x20), out, 0x20) */\n      staticcall\n        /* \"contracts/Pairing.sol\":3275:3366  success := staticcall(sub(gas, 2000), 8, add(input, 0x20), mul(inputSize, 0x20), out, 0x20) */\n      swap1\n      pop\n        /* \"contracts/Pairing.sol\":3445:3452  success */\n      dup1\n        /* \"contracts/Pairing.sol\":3458:3459  0 */\n      0x0\n        /* \"contracts/Pairing.sol\":3453:3473  case 0 { invalid() } */\n      dup2\n      eq\n      tag_224\n      jumpi\n        /* \"contracts/Pairing.sol\":3438:3473  switch success case 0 { invalid() } */\n      jump(tag_223)\n        /* \"contracts/Pairing.sol\":3453:3473  case 0 { invalid() } */\n    tag_224:\n        /* \"contracts/Pairing.sol\":3462:3471  invalid() */\n      invalid\n        /* \"contracts/Pairing.sol\":3438:3473  switch success case 0 { invalid() } */\n    tag_223:\n      pop\n        /* \"contracts/Pairing.sol\":3504:3511  success */\n      dup1\n        /* \"contracts/Pairing.sol\":3496:3537  require(success, \"pairing-opcode-failed\") */\n      iszero\n      iszero\n      tag_225\n      jumpi\n      mload(0x40)\n      0x8c379a000000000000000000000000000000000000000000000000000000000\n      dup2\n      mstore\n      0x4\n      add\n      tag_226\n      swap1\n      jump(tag_227)\n    tag_226:\n      mload(0x40)\n      dup1\n      swap2\n      sub\n      swap1\n      revert\n    tag_225:\n        /* \"contracts/Pairing.sol\":3567:3568  0 */\n      0x0\n        /* \"contracts/Pairing.sol\":3557:3560  out */\n      dup3\n        /* \"contracts/Pairing.sol\":3561:3562  0 */\n      0x0\n        /* \"contracts/Pairing.sol\":3557:3563  out[0] */\n      0x1\n      dup2\n      lt\n      iszero\n      iszero\n      tag_228\n      jumpi\n      invalid\n    tag_228:\n      0x20\n      mul\n      add\n      mload\n        /* \"contracts/Pairing.sol\":3557:3568  out[0] != 0 */\n      eq\n      iszero\n        /* \"contracts/Pairing.sol\":3550:3568  return out[0] != 0 */\n      swap7\n      pop\n      pop\n      pop\n      pop\n      pop\n      pop\n      pop\n        /* \"contracts/Pairing.sol\":2448:3576  function pairing(\r... */\n      swap5\n      swap4\n      pop\n      pop\n      pop\n      pop\n      jump\t// out\n        /* \"contracts/kzgVerifier.sol\":232:9809  contract Verifier is Constants {\r... */\n    tag_34:\n      0x40\n      dup1\n      mload\n      swap1\n      dup2\n      add\n      0x40\n      mstore\n      dup1\n      0x0\n      dup2\n      mstore\n      0x20\n      add\n      0x0\n      dup2\n      mstore\n      pop\n      swap1\n      jump\t// out\n    tag_168:\n      0x60\n      mload(0x40)\n      swap1\n      dup2\n      add\n      0x40\n      mstore\n      dup1\n      0x3\n      swap1\n        /* \"--CODEGEN--\":29:31   */\n      0x20\n        /* \"--CODEGEN--\":21:27   */\n      dup3\n        /* \"--CODEGEN--\":17:32   */\n      mul\n        /* \"--CODEGEN--\":117:121   */\n      dup1\n        /* \"--CODEGEN--\":105:115   */\n      codesize\n        /* \"--CODEGEN--\":97:103   */\n      dup4\n        /* \"--CODEGEN--\":88:122   */\n      codecopy\n        /* \"--CODEGEN--\":148:152   */\n      dup1\n        /* \"--CODEGEN--\":140:146   */\n      dup3\n        /* \"--CODEGEN--\":136:153   */\n      add\n        /* \"--CODEGEN--\":126:153   */\n      swap2\n      pop\n        /* \"--CODEGEN--\":0:157   */\n      pop\n        /* \"contracts/kzgVerifier.sol\":232:9809  contract Verifier is Constants {\r... */\n      swap1\n      pop\n      pop\n      swap1\n      jump\t// out\n    tag_180:\n      0x80\n      mload(0x40)\n      swap1\n      dup2\n      add\n      0x40\n      mstore\n      dup1\n      0x4\n      swap1\n        /* \"--CODEGEN--\":29:31   */\n      0x20\n        /* \"--CODEGEN--\":21:27   */\n      dup3\n        /* \"--CODEGEN--\":17:32   */\n      mul\n        /* \"--CODEGEN--\":117:121   */\n      dup1\n        /* \"--CODEGEN--\":105:115   */\n      codesize\n        /* \"--CODEGEN--\":97:103   */\n      dup4\n        /* \"--CODEGEN--\":88:122   */\n      codecopy\n        /* \"--CODEGEN--\":148:152   */\n      dup1\n        /* \"--CODEGEN--\":140:146   */\n      dup3\n        /* \"--CODEGEN--\":136:153   */\n      add\n        /* \"--CODEGEN--\":126:153   */\n      swap2\n      pop\n        /* \"--CODEGEN--\":0:157   */\n      pop\n        /* \"contracts/kzgVerifier.sol\":232:9809  contract Verifier is Constants {\r... */\n      swap1\n      pop\n      pop\n      swap1\n      jump\t// out\n    tag_198:\n      0x80\n      mload(0x40)\n      swap1\n      dup2\n      add\n      0x40\n      mstore\n      dup1\n      0x2\n      swap1\n    tag_229:\n      tag_230\n      jump\t// in(tag_231)\n    tag_230:\n      dup2\n      mstore\n      0x20\n      add\n      swap1\n      0x1\n      swap1\n      sub\n      swap1\n      dup2\n      tag_229\n      jumpi\n      swap1\n      pop\n      pop\n      swap1\n      jump\t// out\n    tag_200:\n      0x100\n      mload(0x40)\n      swap1\n      dup2\n      add\n      0x40\n      mstore\n      dup1\n      0x2\n      swap1\n    tag_232:\n      tag_233\n      jump\t// in(tag_234)\n    tag_233:\n      dup2\n      mstore\n      0x20\n      add\n      swap1\n      0x1\n      swap1\n      sub\n      swap1\n      dup2\n      tag_232\n      jumpi\n      swap1\n      pop\n      pop\n      swap1\n      jump\t// out\n    tag_222:\n      0x20\n      mload(0x40)\n      swap1\n      dup2\n      add\n      0x40\n      mstore\n      dup1\n      0x1\n      swap1\n        /* \"--CODEGEN--\":29:31   */\n      0x20\n        /* \"--CODEGEN--\":21:27   */\n      dup3\n        /* \"--CODEGEN--\":17:32   */\n      mul\n        /* \"--CODEGEN--\":117:121   */\n      dup1\n        /* \"--CODEGEN--\":105:115   */\n      codesize\n        /* \"--CODEGEN--\":97:103   */\n      dup4\n        /* \"--CODEGEN--\":88:122   */\n      codecopy\n        /* \"--CODEGEN--\":148:152   */\n      dup1\n        /* \"--CODEGEN--\":140:146   */\n      dup3\n        /* \"--CODEGEN--\":136:153   */\n      add\n        /* \"--CODEGEN--\":126:153   */\n      swap2\n      pop\n        /* \"--CODEGEN--\":0:157   */\n      pop\n        /* \"contracts/kzgVerifier.sol\":232:9809  contract Verifier is Constants {\r... */\n      swap1\n      pop\n      pop\n      swap1\n      jump\t// out\n    tag_231:\n      0x40\n      dup1\n      mload\n      swap1\n      dup2\n      add\n      0x40\n      mstore\n      dup1\n      0x0\n      dup2\n      mstore\n      0x20\n      add\n      0x0\n      dup2\n      mstore\n      pop\n      swap1\n      jump\t// out\n    tag_234:\n      0x80\n      mload(0x40)\n      swap1\n      dup2\n      add\n      0x40\n      mstore\n      dup1\n      tag_235\n      jump\t// in(tag_236)\n    tag_235:\n      dup2\n      mstore\n      0x20\n      add\n      tag_237\n      jump\t// in(tag_236)\n    tag_237:\n      dup2\n      mstore\n      pop\n      swap1\n      jump\t// out\n    tag_236:\n      0x40\n      dup1\n      mload\n      swap1\n      dup2\n      add\n      0x40\n      mstore\n      dup1\n      0x2\n      swap1\n        /* \"--CODEGEN--\":29:31   */\n      0x20\n        /* \"--CODEGEN--\":21:27   */\n      dup3\n        /* \"--CODEGEN--\":17:32   */\n      mul\n        /* \"--CODEGEN--\":117:121   */\n      dup1\n        /* \"--CODEGEN--\":105:115   */\n      codesize\n        /* \"--CODEGEN--\":97:103   */\n      dup4\n        /* \"--CODEGEN--\":88:122   */\n      codecopy\n        /* \"--CODEGEN--\":148:152   */\n      dup1\n        /* \"--CODEGEN--\":140:146   */\n      dup3\n        /* \"--CODEGEN--\":136:153   */\n      add\n        /* \"--CODEGEN--\":126:153   */\n      swap2\n      pop\n        /* \"--CODEGEN--\":0:157   */\n      pop\n        /* \"contracts/kzgVerifier.sol\":232:9809  contract Verifier is Constants {\r... */\n      swap1\n      pop\n      pop\n      swap1\n      jump\t// out\n        /* \"--CODEGEN--\":24:631   */\n    tag_239:\n      0x0\n        /* \"--CODEGEN--\":135:138   */\n      dup3\n        /* \"--CODEGEN--\":128:132   */\n      0x1f\n        /* \"--CODEGEN--\":120:126   */\n      dup4\n        /* \"--CODEGEN--\":116:133   */\n      add\n        /* \"--CODEGEN--\":112:139   */\n      slt\n        /* \"--CODEGEN--\":105:140   */\n      iszero\n        /* \"--CODEGEN--\":102:104   */\n      iszero\n      tag_240\n      jumpi\n        /* \"--CODEGEN--\":153:154   */\n      0x0\n        /* \"--CODEGEN--\":150:151   */\n      dup1\n        /* \"--CODEGEN--\":143:155   */\n      revert\n        /* \"--CODEGEN--\":102:104   */\n    tag_240:\n        /* \"--CODEGEN--\":177:180   */\n      0x2\n        /* \"--CODEGEN--\":195:269   */\n      tag_241\n        /* \"--CODEGEN--\":210:268   */\n      tag_242\n        /* \"--CODEGEN--\":261:267   */\n      dup3\n        /* \"--CODEGEN--\":210:268   */\n      jump(tag_243)\n    tag_242:\n        /* \"--CODEGEN--\":195:269   */\n      jump(tag_244)\n    tag_241:\n        /* \"--CODEGEN--\":186:269   */\n      swap2\n      pop\n        /* \"--CODEGEN--\":286:291   */\n      dup2\n        /* \"--CODEGEN--\":345:351   */\n      dup4\n        /* \"--CODEGEN--\":392:395   */\n      dup6\n        /* \"--CODEGEN--\":384:388   */\n      0x20\n        /* \"--CODEGEN--\":376:382   */\n      dup5\n        /* \"--CODEGEN--\":372:389   */\n      mul\n        /* \"--CODEGEN--\":367:370   */\n      dup3\n        /* \"--CODEGEN--\":363:390   */\n      add\n        /* \"--CODEGEN--\":360:396   */\n      gt\n        /* \"--CODEGEN--\":357:359   */\n      iszero\n      tag_245\n      jumpi\n        /* \"--CODEGEN--\":409:410   */\n      0x0\n        /* \"--CODEGEN--\":406:407   */\n      dup1\n        /* \"--CODEGEN--\":399:411   */\n      revert\n        /* \"--CODEGEN--\":357:359   */\n    tag_245:\n        /* \"--CODEGEN--\":434:435   */\n      0x0\n        /* \"--CODEGEN--\":419:625   */\n    tag_246:\n        /* \"--CODEGEN--\":444:450   */\n      dup4\n        /* \"--CODEGEN--\":441:442   */\n      dup2\n        /* \"--CODEGEN--\":438:451   */\n      lt\n        /* \"--CODEGEN--\":419:625   */\n      iszero\n      tag_247\n      jumpi\n        /* \"--CODEGEN--\":502:505   */\n      dup2\n        /* \"--CODEGEN--\":524:561   */\n      tag_249\n        /* \"--CODEGEN--\":557:560   */\n      dup9\n        /* \"--CODEGEN--\":545:555   */\n      dup3\n        /* \"--CODEGEN--\":524:561   */\n      jump(tag_250)\n    tag_249:\n        /* \"--CODEGEN--\":519:522   */\n      dup5\n        /* \"--CODEGEN--\":512:562   */\n      mstore\n        /* \"--CODEGEN--\":585:589   */\n      0x20\n        /* \"--CODEGEN--\":580:583   */\n      dup5\n        /* \"--CODEGEN--\":576:590   */\n      add\n        /* \"--CODEGEN--\":569:590   */\n      swap4\n      pop\n        /* \"--CODEGEN--\":613:617   */\n      0x20\n        /* \"--CODEGEN--\":608:611   */\n      dup4\n        /* \"--CODEGEN--\":604:618   */\n      add\n        /* \"--CODEGEN--\":597:618   */\n      swap3\n      pop\n        /* \"--CODEGEN--\":476:625   */\n      pop\n        /* \"--CODEGEN--\":466:467   */\n      0x1\n        /* \"--CODEGEN--\":463:464   */\n      dup2\n        /* \"--CODEGEN--\":459:468   */\n      add\n        /* \"--CODEGEN--\":454:468   */\n      swap1\n      pop\n        /* \"--CODEGEN--\":419:625   */\n      jump(tag_246)\n    tag_247:\n        /* \"--CODEGEN--\":423:437   */\n      pop\n        /* \"--CODEGEN--\":95:631   */\n      pop\n      pop\n      pop\n      swap3\n      swap2\n      pop\n      pop\n      jump\n        /* \"--CODEGEN--\":657:1364   */\n    tag_252:\n      0x0\n        /* \"--CODEGEN--\":774:777   */\n      dup3\n        /* \"--CODEGEN--\":767:771   */\n      0x1f\n        /* \"--CODEGEN--\":759:765   */\n      dup4\n        /* \"--CODEGEN--\":755:772   */\n      add\n        /* \"--CODEGEN--\":751:778   */\n      slt\n        /* \"--CODEGEN--\":744:779   */\n      iszero\n        /* \"--CODEGEN--\":741:743   */\n      iszero\n      tag_253\n      jumpi\n        /* \"--CODEGEN--\":792:793   */\n      0x0\n        /* \"--CODEGEN--\":789:790   */\n      dup1\n        /* \"--CODEGEN--\":782:794   */\n      revert\n        /* \"--CODEGEN--\":741:743   */\n    tag_253:\n        /* \"--CODEGEN--\":829:835   */\n      dup2\n        /* \"--CODEGEN--\":816:836   */\n      calldataload\n        /* \"--CODEGEN--\":851:931   */\n      tag_254\n        /* \"--CODEGEN--\":866:930   */\n      tag_255\n        /* \"--CODEGEN--\":923:929   */\n      dup3\n        /* \"--CODEGEN--\":866:930   */\n      jump(tag_256)\n    tag_255:\n        /* \"--CODEGEN--\":851:931   */\n      jump(tag_244)\n    tag_254:\n        /* \"--CODEGEN--\":842:931   */\n      swap2\n      pop\n        /* \"--CODEGEN--\":948:953   */\n      dup2\n        /* \"--CODEGEN--\":973:979   */\n      dup2\n        /* \"--CODEGEN--\":966:971   */\n      dup4\n        /* \"--CODEGEN--\":959:980   */\n      mstore\n        /* \"--CODEGEN--\":1003:1007   */\n      0x20\n        /* \"--CODEGEN--\":995:1001   */\n      dup5\n        /* \"--CODEGEN--\":991:1008   */\n      add\n        /* \"--CODEGEN--\":981:1008   */\n      swap4\n      pop\n        /* \"--CODEGEN--\":1025:1029   */\n      0x20\n        /* \"--CODEGEN--\":1020:1023   */\n      dup2\n        /* \"--CODEGEN--\":1016:1030   */\n      add\n        /* \"--CODEGEN--\":1009:1030   */\n      swap1\n      pop\n        /* \"--CODEGEN--\":1078:1084   */\n      dup4\n        /* \"--CODEGEN--\":1125:1128   */\n      dup6\n        /* \"--CODEGEN--\":1117:1121   */\n      0x20\n        /* \"--CODEGEN--\":1109:1115   */\n      dup5\n        /* \"--CODEGEN--\":1105:1122   */\n      mul\n        /* \"--CODEGEN--\":1100:1103   */\n      dup3\n        /* \"--CODEGEN--\":1096:1123   */\n      add\n        /* \"--CODEGEN--\":1093:1129   */\n      gt\n        /* \"--CODEGEN--\":1090:1092   */\n      iszero\n      tag_257\n      jumpi\n        /* \"--CODEGEN--\":1142:1143   */\n      0x0\n        /* \"--CODEGEN--\":1139:1140   */\n      dup1\n        /* \"--CODEGEN--\":1132:1144   */\n      revert\n        /* \"--CODEGEN--\":1090:1092   */\n    tag_257:\n        /* \"--CODEGEN--\":1167:1168   */\n      0x0\n        /* \"--CODEGEN--\":1152:1358   */\n    tag_258:\n        /* \"--CODEGEN--\":1177:1183   */\n      dup4\n        /* \"--CODEGEN--\":1174:1175   */\n      dup2\n        /* \"--CODEGEN--\":1171:1184   */\n      lt\n        /* \"--CODEGEN--\":1152:1358   */\n      iszero\n      tag_259\n      jumpi\n        /* \"--CODEGEN--\":1235:1238   */\n      dup2\n        /* \"--CODEGEN--\":1257:1294   */\n      tag_261\n        /* \"--CODEGEN--\":1290:1293   */\n      dup9\n        /* \"--CODEGEN--\":1278:1288   */\n      dup3\n        /* \"--CODEGEN--\":1257:1294   */\n      jump(tag_250)\n    tag_261:\n        /* \"--CODEGEN--\":1252:1255   */\n      dup5\n        /* \"--CODEGEN--\":1245:1295   */\n      mstore\n        /* \"--CODEGEN--\":1318:1322   */\n      0x20\n        /* \"--CODEGEN--\":1313:1316   */\n      dup5\n        /* \"--CODEGEN--\":1309:1323   */\n      add\n        /* \"--CODEGEN--\":1302:1323   */\n      swap4\n      pop\n        /* \"--CODEGEN--\":1346:1350   */\n      0x20\n        /* \"--CODEGEN--\":1341:1344   */\n      dup4\n        /* \"--CODEGEN--\":1337:1351   */\n      add\n        /* \"--CODEGEN--\":1330:1351   */\n      swap3\n      pop\n        /* \"--CODEGEN--\":1209:1358   */\n      pop\n        /* \"--CODEGEN--\":1199:1200   */\n      0x1\n        /* \"--CODEGEN--\":1196:1197   */\n      dup2\n        /* \"--CODEGEN--\":1192:1201   */\n      add\n        /* \"--CODEGEN--\":1187:1201   */\n      swap1\n      pop\n        /* \"--CODEGEN--\":1152:1358   */\n      jump(tag_258)\n    tag_259:\n        /* \"--CODEGEN--\":1156:1170   */\n      pop\n        /* \"--CODEGEN--\":734:1364   */\n      pop\n      pop\n      pop\n      swap3\n      swap2\n      pop\n      pop\n      jump\n        /* \"--CODEGEN--\":1401:1860   */\n    tag_263:\n      0x0\n        /* \"--CODEGEN--\":1514:1518   */\n      0x40\n        /* \"--CODEGEN--\":1502:1511   */\n      dup3\n        /* \"--CODEGEN--\":1497:1500   */\n      dup5\n        /* \"--CODEGEN--\":1493:1512   */\n      sub\n        /* \"--CODEGEN--\":1489:1519   */\n      slt\n        /* \"--CODEGEN--\":1486:1488   */\n      iszero\n      tag_264\n      jumpi\n        /* \"--CODEGEN--\":1532:1533   */\n      0x0\n        /* \"--CODEGEN--\":1529:1530   */\n      dup1\n        /* \"--CODEGEN--\":1522:1534   */\n      revert\n        /* \"--CODEGEN--\":1486:1488   */\n    tag_264:\n        /* \"--CODEGEN--\":1550:1570   */\n      tag_265\n        /* \"--CODEGEN--\":1565:1569   */\n      0x40\n        /* \"--CODEGEN--\":1550:1570   */\n      jump(tag_244)\n    tag_265:\n        /* \"--CODEGEN--\":1541:1570   */\n      swap1\n      pop\n        /* \"--CODEGEN--\":1617:1618   */\n      0x0\n        /* \"--CODEGEN--\":1648:1697   */\n      tag_266\n        /* \"--CODEGEN--\":1693:1696   */\n      dup5\n        /* \"--CODEGEN--\":1684:1690   */\n      dup3\n        /* \"--CODEGEN--\":1673:1682   */\n      dup6\n        /* \"--CODEGEN--\":1669:1691   */\n      add\n        /* \"--CODEGEN--\":1648:1697   */\n      jump(tag_250)\n    tag_266:\n        /* \"--CODEGEN--\":1642:1645   */\n      0x0\n        /* \"--CODEGEN--\":1635:1640   */\n      dup4\n        /* \"--CODEGEN--\":1631:1646   */\n      add\n        /* \"--CODEGEN--\":1624:1698   */\n      mstore\n        /* \"--CODEGEN--\":1580:1709   */\n      pop\n        /* \"--CODEGEN--\":1756:1758   */\n      0x20\n        /* \"--CODEGEN--\":1789:1838   */\n      tag_267\n        /* \"--CODEGEN--\":1834:1837   */\n      dup5\n        /* \"--CODEGEN--\":1825:1831   */\n      dup3\n        /* \"--CODEGEN--\":1814:1823   */\n      dup6\n        /* \"--CODEGEN--\":1810:1832   */\n      add\n        /* \"--CODEGEN--\":1789:1838   */\n      jump(tag_250)\n    tag_267:\n        /* \"--CODEGEN--\":1782:1786   */\n      0x20\n        /* \"--CODEGEN--\":1775:1780   */\n      dup4\n        /* \"--CODEGEN--\":1771:1787   */\n      add\n        /* \"--CODEGEN--\":1764:1839   */\n      mstore\n        /* \"--CODEGEN--\":1719:1850   */\n      pop\n        /* \"--CODEGEN--\":1480:1860   */\n      swap3\n      swap2\n      pop\n      pop\n      jump\n        /* \"--CODEGEN--\":1896:2393   */\n    tag_269:\n      0x0\n        /* \"--CODEGEN--\":2009:2013   */\n      0x80\n        /* \"--CODEGEN--\":1997:2006   */\n      dup3\n        /* \"--CODEGEN--\":1992:1995   */\n      dup5\n        /* \"--CODEGEN--\":1988:2007   */\n      sub\n        /* \"--CODEGEN--\":1984:2014   */\n      slt\n        /* \"--CODEGEN--\":1981:1983   */\n      iszero\n      tag_270\n      jumpi\n        /* \"--CODEGEN--\":2027:2028   */\n      0x0\n        /* \"--CODEGEN--\":2024:2025   */\n      dup1\n        /* \"--CODEGEN--\":2017:2029   */\n      revert\n        /* \"--CODEGEN--\":1981:1983   */\n    tag_270:\n        /* \"--CODEGEN--\":2045:2065   */\n      tag_271\n        /* \"--CODEGEN--\":2060:2064   */\n      0x40\n        /* \"--CODEGEN--\":2045:2065   */\n      jump(tag_244)\n    tag_271:\n        /* \"--CODEGEN--\":2036:2065   */\n      swap1\n      pop\n        /* \"--CODEGEN--\":2112:2113   */\n      0x0\n        /* \"--CODEGEN--\":2143:2211   */\n      tag_272\n        /* \"--CODEGEN--\":2207:2210   */\n      dup5\n        /* \"--CODEGEN--\":2198:2204   */\n      dup3\n        /* \"--CODEGEN--\":2187:2196   */\n      dup6\n        /* \"--CODEGEN--\":2183:2205   */\n      add\n        /* \"--CODEGEN--\":2143:2211   */\n      jump(tag_239)\n    tag_272:\n        /* \"--CODEGEN--\":2137:2140   */\n      0x0\n        /* \"--CODEGEN--\":2130:2135   */\n      dup4\n        /* \"--CODEGEN--\":2126:2141   */\n      add\n        /* \"--CODEGEN--\":2119:2212   */\n      mstore\n        /* \"--CODEGEN--\":2075:2223   */\n      pop\n        /* \"--CODEGEN--\":2270:2272   */\n      0x40\n        /* \"--CODEGEN--\":2303:2371   */\n      tag_273\n        /* \"--CODEGEN--\":2367:2370   */\n      dup5\n        /* \"--CODEGEN--\":2358:2364   */\n      dup3\n        /* \"--CODEGEN--\":2347:2356   */\n      dup6\n        /* \"--CODEGEN--\":2343:2365   */\n      add\n        /* \"--CODEGEN--\":2303:2371   */\n      jump(tag_239)\n    tag_273:\n        /* \"--CODEGEN--\":2296:2300   */\n      0x20\n        /* \"--CODEGEN--\":2289:2294   */\n      dup4\n        /* \"--CODEGEN--\":2285:2301   */\n      add\n        /* \"--CODEGEN--\":2278:2372   */\n      mstore\n        /* \"--CODEGEN--\":2233:2383   */\n      pop\n        /* \"--CODEGEN--\":1975:2393   */\n      swap3\n      swap2\n      pop\n      pop\n      jump\n        /* \"--CODEGEN--\":2400:2518   */\n    tag_250:\n      0x0\n        /* \"--CODEGEN--\":2467:2513   */\n      tag_275\n        /* \"--CODEGEN--\":2505:2511   */\n      dup3\n        /* \"--CODEGEN--\":2492:2512   */\n      calldataload\n        /* \"--CODEGEN--\":2467:2513   */\n      jump(tag_276)\n    tag_275:\n        /* \"--CODEGEN--\":2458:2513   */\n      swap1\n      pop\n        /* \"--CODEGEN--\":2452:2518   */\n      swap3\n      swap2\n      pop\n      pop\n      jump\n        /* \"--CODEGEN--\":2525:2902   */\n    tag_9:\n      0x0\n        /* \"--CODEGEN--\":2654:2656   */\n      0x20\n        /* \"--CODEGEN--\":2642:2651   */\n      dup3\n        /* \"--CODEGEN--\":2633:2640   */\n      dup5\n        /* \"--CODEGEN--\":2629:2652   */\n      sub\n        /* \"--CODEGEN--\":2625:2657   */\n      slt\n        /* \"--CODEGEN--\":2622:2624   */\n      iszero\n      tag_278\n      jumpi\n        /* \"--CODEGEN--\":2670:2671   */\n      0x0\n        /* \"--CODEGEN--\":2667:2668   */\n      dup1\n        /* \"--CODEGEN--\":2660:2672   */\n      revert\n        /* \"--CODEGEN--\":2622:2624   */\n    tag_278:\n        /* \"--CODEGEN--\":2733:2734   */\n      0x0\n        /* \"--CODEGEN--\":2722:2731   */\n      dup3\n        /* \"--CODEGEN--\":2718:2735   */\n      add\n        /* \"--CODEGEN--\":2705:2736   */\n      calldataload\n        /* \"--CODEGEN--\":2756:2774   */\n      0xffffffffffffffff\n        /* \"--CODEGEN--\":2748:2754   */\n      dup2\n        /* \"--CODEGEN--\":2745:2775   */\n      gt\n        /* \"--CODEGEN--\":2742:2744   */\n      iszero\n      tag_279\n      jumpi\n        /* \"--CODEGEN--\":2788:2789   */\n      0x0\n        /* \"--CODEGEN--\":2785:2786   */\n      dup1\n        /* \"--CODEGEN--\":2778:2790   */\n      revert\n        /* \"--CODEGEN--\":2742:2744   */\n    tag_279:\n        /* \"--CODEGEN--\":2808:2886   */\n      tag_280\n        /* \"--CODEGEN--\":2878:2885   */\n      dup5\n        /* \"--CODEGEN--\":2869:2875   */\n      dup3\n        /* \"--CODEGEN--\":2858:2867   */\n      dup6\n        /* \"--CODEGEN--\":2854:2876   */\n      add\n        /* \"--CODEGEN--\":2808:2886   */\n      jump(tag_252)\n    tag_280:\n        /* \"--CODEGEN--\":2798:2886   */\n      swap2\n      pop\n        /* \"--CODEGEN--\":2684:2892   */\n      pop\n        /* \"--CODEGEN--\":2616:2902   */\n      swap3\n      swap2\n      pop\n      pop\n      jump\n        /* \"--CODEGEN--\":2909:3411   */\n    tag_29:\n      0x0\n      dup1\n        /* \"--CODEGEN--\":3055:3057   */\n      0x40\n        /* \"--CODEGEN--\":3043:3052   */\n      dup4\n        /* \"--CODEGEN--\":3034:3041   */\n      dup6\n        /* \"--CODEGEN--\":3030:3053   */\n      sub\n        /* \"--CODEGEN--\":3026:3058   */\n      slt\n        /* \"--CODEGEN--\":3023:3025   */\n      iszero\n      tag_282\n      jumpi\n        /* \"--CODEGEN--\":3071:3072   */\n      0x0\n        /* \"--CODEGEN--\":3068:3069   */\n      dup1\n        /* \"--CODEGEN--\":3061:3073   */\n      revert\n        /* \"--CODEGEN--\":3023:3025   */\n    tag_282:\n        /* \"--CODEGEN--\":3134:3135   */\n      0x0\n        /* \"--CODEGEN--\":3123:3132   */\n      dup4\n        /* \"--CODEGEN--\":3119:3136   */\n      add\n        /* \"--CODEGEN--\":3106:3137   */\n      calldataload\n        /* \"--CODEGEN--\":3157:3175   */\n      0xffffffffffffffff\n        /* \"--CODEGEN--\":3149:3155   */\n      dup2\n        /* \"--CODEGEN--\":3146:3176   */\n      gt\n        /* \"--CODEGEN--\":3143:3145   */\n      iszero\n      tag_283\n      jumpi\n        /* \"--CODEGEN--\":3189:3190   */\n      0x0\n        /* \"--CODEGEN--\":3186:3187   */\n      dup1\n        /* \"--CODEGEN--\":3179:3191   */\n      revert\n        /* \"--CODEGEN--\":3143:3145   */\n    tag_283:\n        /* \"--CODEGEN--\":3209:3287   */\n      tag_284\n        /* \"--CODEGEN--\":3279:3286   */\n      dup6\n        /* \"--CODEGEN--\":3270:3276   */\n      dup3\n        /* \"--CODEGEN--\":3259:3268   */\n      dup7\n        /* \"--CODEGEN--\":3255:3277   */\n      add\n        /* \"--CODEGEN--\":3209:3287   */\n      jump(tag_252)\n    tag_284:\n        /* \"--CODEGEN--\":3199:3287   */\n      swap3\n      pop\n        /* \"--CODEGEN--\":3085:3293   */\n      pop\n        /* \"--CODEGEN--\":3324:3326   */\n      0x20\n        /* \"--CODEGEN--\":3342:3395   */\n      tag_285\n        /* \"--CODEGEN--\":3387:3394   */\n      dup6\n        /* \"--CODEGEN--\":3378:3384   */\n      dup3\n        /* \"--CODEGEN--\":3367:3376   */\n      dup7\n        /* \"--CODEGEN--\":3363:3385   */\n      add\n        /* \"--CODEGEN--\":3342:3395   */\n      jump(tag_250)\n    tag_285:\n        /* \"--CODEGEN--\":3332:3395   */\n      swap2\n      pop\n        /* \"--CODEGEN--\":3303:3401   */\n      pop\n        /* \"--CODEGEN--\":3017:3411   */\n      swap3\n      pop\n      swap3\n      swap1\n      pop\n      jump\n        /* \"--CODEGEN--\":3418:4133   */\n    tag_23:\n      0x0\n      dup1\n      0x0\n      dup1\n        /* \"--CODEGEN--\":3621:3624   */\n      0xc0\n        /* \"--CODEGEN--\":3609:3618   */\n      dup6\n        /* \"--CODEGEN--\":3600:3607   */\n      dup8\n        /* \"--CODEGEN--\":3596:3619   */\n      sub\n        /* \"--CODEGEN--\":3592:3625   */\n      slt\n        /* \"--CODEGEN--\":3589:3591   */\n      iszero\n      tag_287\n      jumpi\n        /* \"--CODEGEN--\":3638:3639   */\n      0x0\n        /* \"--CODEGEN--\":3635:3636   */\n      dup1\n        /* \"--CODEGEN--\":3628:3640   */\n      revert\n        /* \"--CODEGEN--\":3589:3591   */\n    tag_287:\n        /* \"--CODEGEN--\":3673:3674   */\n      0x0\n        /* \"--CODEGEN--\":3690:3767   */\n      tag_288\n        /* \"--CODEGEN--\":3759:3766   */\n      dup8\n        /* \"--CODEGEN--\":3750:3756   */\n      dup3\n        /* \"--CODEGEN--\":3739:3748   */\n      dup9\n        /* \"--CODEGEN--\":3735:3757   */\n      add\n        /* \"--CODEGEN--\":3690:3767   */\n      jump(tag_263)\n    tag_288:\n        /* \"--CODEGEN--\":3680:3767   */\n      swap5\n      pop\n        /* \"--CODEGEN--\":3652:3773   */\n      pop\n        /* \"--CODEGEN--\":3804:3806   */\n      0x40\n        /* \"--CODEGEN--\":3822:3899   */\n      tag_289\n        /* \"--CODEGEN--\":3891:3898   */\n      dup8\n        /* \"--CODEGEN--\":3882:3888   */\n      dup3\n        /* \"--CODEGEN--\":3871:3880   */\n      dup9\n        /* \"--CODEGEN--\":3867:3889   */\n      add\n        /* \"--CODEGEN--\":3822:3899   */\n      jump(tag_263)\n    tag_289:\n        /* \"--CODEGEN--\":3812:3899   */\n      swap4\n      pop\n        /* \"--CODEGEN--\":3783:3905   */\n      pop\n        /* \"--CODEGEN--\":3936:3939   */\n      0x80\n        /* \"--CODEGEN--\":3955:4008   */\n      tag_290\n        /* \"--CODEGEN--\":4000:4007   */\n      dup8\n        /* \"--CODEGEN--\":3991:3997   */\n      dup3\n        /* \"--CODEGEN--\":3980:3989   */\n      dup9\n        /* \"--CODEGEN--\":3976:3998   */\n      add\n        /* \"--CODEGEN--\":3955:4008   */\n      jump(tag_250)\n    tag_290:\n        /* \"--CODEGEN--\":3945:4008   */\n      swap3\n      pop\n        /* \"--CODEGEN--\":3915:4014   */\n      pop\n        /* \"--CODEGEN--\":4045:4048   */\n      0xa0\n        /* \"--CODEGEN--\":4064:4117   */\n      tag_291\n        /* \"--CODEGEN--\":4109:4116   */\n      dup8\n        /* \"--CODEGEN--\":4100:4106   */\n      dup3\n        /* \"--CODEGEN--\":4089:4098   */\n      dup9\n        /* \"--CODEGEN--\":4085:4107   */\n      add\n        /* \"--CODEGEN--\":4064:4117   */\n      jump(tag_250)\n    tag_291:\n        /* \"--CODEGEN--\":4054:4117   */\n      swap2\n      pop\n        /* \"--CODEGEN--\":4024:4123   */\n      pop\n        /* \"--CODEGEN--\":3583:4133   */\n      swap3\n      swap6\n      swap2\n      swap5\n      pop\n      swap3\n      pop\n      jump\n        /* \"--CODEGEN--\":4140:5651   */\n    tag_16:\n      0x0\n      dup1\n      0x0\n      dup1\n      0x0\n      dup1\n        /* \"--CODEGEN--\":4477:4480   */\n      0x140\n        /* \"--CODEGEN--\":4465:4474   */\n      dup8\n        /* \"--CODEGEN--\":4456:4463   */\n      dup10\n        /* \"--CODEGEN--\":4452:4475   */\n      sub\n        /* \"--CODEGEN--\":4448:4481   */\n      slt\n        /* \"--CODEGEN--\":4445:4447   */\n      iszero\n      tag_293\n      jumpi\n        /* \"--CODEGEN--\":4494:4495   */\n      0x0\n        /* \"--CODEGEN--\":4491:4492   */\n      dup1\n        /* \"--CODEGEN--\":4484:4496   */\n      revert\n        /* \"--CODEGEN--\":4445:4447   */\n    tag_293:\n        /* \"--CODEGEN--\":4529:4530   */\n      0x0\n        /* \"--CODEGEN--\":4546:4623   */\n      tag_294\n        /* \"--CODEGEN--\":4615:4622   */\n      dup10\n        /* \"--CODEGEN--\":4606:4612   */\n      dup3\n        /* \"--CODEGEN--\":4595:4604   */\n      dup11\n        /* \"--CODEGEN--\":4591:4613   */\n      add\n        /* \"--CODEGEN--\":4546:4623   */\n      jump(tag_263)\n    tag_294:\n        /* \"--CODEGEN--\":4536:4623   */\n      swap7\n      pop\n        /* \"--CODEGEN--\":4508:4629   */\n      pop\n        /* \"--CODEGEN--\":4660:4662   */\n      0x40\n        /* \"--CODEGEN--\":4678:4755   */\n      tag_295\n        /* \"--CODEGEN--\":4747:4754   */\n      dup10\n        /* \"--CODEGEN--\":4738:4744   */\n      dup3\n        /* \"--CODEGEN--\":4727:4736   */\n      dup11\n        /* \"--CODEGEN--\":4723:4745   */\n      add\n        /* \"--CODEGEN--\":4678:4755   */\n      jump(tag_269)\n    tag_295:\n        /* \"--CODEGEN--\":4668:4755   */\n      swap6\n      pop\n        /* \"--CODEGEN--\":4639:4761   */\n      pop\n        /* \"--CODEGEN--\":4820:4823   */\n      0xc0\n        /* \"--CODEGEN--\":4809:4818   */\n      dup8\n        /* \"--CODEGEN--\":4805:4824   */\n      add\n        /* \"--CODEGEN--\":4792:4825   */\n      calldataload\n        /* \"--CODEGEN--\":4845:4863   */\n      0xffffffffffffffff\n        /* \"--CODEGEN--\":4837:4843   */\n      dup2\n        /* \"--CODEGEN--\":4834:4864   */\n      gt\n        /* \"--CODEGEN--\":4831:4833   */\n      iszero\n      tag_296\n      jumpi\n        /* \"--CODEGEN--\":4877:4878   */\n      0x0\n        /* \"--CODEGEN--\":4874:4875   */\n      dup1\n        /* \"--CODEGEN--\":4867:4879   */\n      revert\n        /* \"--CODEGEN--\":4831:4833   */\n    tag_296:\n        /* \"--CODEGEN--\":4897:4975   */\n      tag_297\n        /* \"--CODEGEN--\":4967:4974   */\n      dup10\n        /* \"--CODEGEN--\":4958:4964   */\n      dup3\n        /* \"--CODEGEN--\":4947:4956   */\n      dup11\n        /* \"--CODEGEN--\":4943:4965   */\n      add\n        /* \"--CODEGEN--\":4897:4975   */\n      jump(tag_252)\n    tag_297:\n        /* \"--CODEGEN--\":4887:4975   */\n      swap5\n      pop\n        /* \"--CODEGEN--\":4771:4981   */\n      pop\n        /* \"--CODEGEN--\":5040:5043   */\n      0xe0\n        /* \"--CODEGEN--\":5029:5038   */\n      dup8\n        /* \"--CODEGEN--\":5025:5044   */\n      add\n        /* \"--CODEGEN--\":5012:5045   */\n      calldataload\n        /* \"--CODEGEN--\":5065:5083   */\n      0xffffffffffffffff\n        /* \"--CODEGEN--\":5057:5063   */\n      dup2\n        /* \"--CODEGEN--\":5054:5084   */\n      gt\n        /* \"--CODEGEN--\":5051:5053   */\n      iszero\n      tag_298\n      jumpi\n        /* \"--CODEGEN--\":5097:5098   */\n      0x0\n        /* \"--CODEGEN--\":5094:5095   */\n      dup1\n        /* \"--CODEGEN--\":5087:5099   */\n      revert\n        /* \"--CODEGEN--\":5051:5053   */\n    tag_298:\n        /* \"--CODEGEN--\":5117:5195   */\n      tag_299\n        /* \"--CODEGEN--\":5187:5194   */\n      dup10\n        /* \"--CODEGEN--\":5178:5184   */\n      dup3\n        /* \"--CODEGEN--\":5167:5176   */\n      dup11\n        /* \"--CODEGEN--\":5163:5185   */\n      add\n        /* \"--CODEGEN--\":5117:5195   */\n      jump(tag_252)\n    tag_299:\n        /* \"--CODEGEN--\":5107:5195   */\n      swap4\n      pop\n        /* \"--CODEGEN--\":4991:5201   */\n      pop\n        /* \"--CODEGEN--\":5260:5263   */\n      0x100\n        /* \"--CODEGEN--\":5249:5258   */\n      dup8\n        /* \"--CODEGEN--\":5245:5264   */\n      add\n        /* \"--CODEGEN--\":5232:5265   */\n      calldataload\n        /* \"--CODEGEN--\":5285:5303   */\n      0xffffffffffffffff\n        /* \"--CODEGEN--\":5277:5283   */\n      dup2\n        /* \"--CODEGEN--\":5274:5304   */\n      gt\n        /* \"--CODEGEN--\":5271:5273   */\n      iszero\n      tag_300\n      jumpi\n        /* \"--CODEGEN--\":5317:5318   */\n      0x0\n        /* \"--CODEGEN--\":5314:5315   */\n      dup1\n        /* \"--CODEGEN--\":5307:5319   */\n      revert\n        /* \"--CODEGEN--\":5271:5273   */\n    tag_300:\n        /* \"--CODEGEN--\":5337:5415   */\n      tag_301\n        /* \"--CODEGEN--\":5407:5414   */\n      dup10\n        /* \"--CODEGEN--\":5398:5404   */\n      dup3\n        /* \"--CODEGEN--\":5387:5396   */\n      dup11\n        /* \"--CODEGEN--\":5383:5405   */\n      add\n        /* \"--CODEGEN--\":5337:5415   */\n      jump(tag_252)\n    tag_301:\n        /* \"--CODEGEN--\":5327:5415   */\n      swap3\n      pop\n        /* \"--CODEGEN--\":5211:5421   */\n      pop\n        /* \"--CODEGEN--\":5480:5483   */\n      0x120\n        /* \"--CODEGEN--\":5469:5478   */\n      dup8\n        /* \"--CODEGEN--\":5465:5484   */\n      add\n        /* \"--CODEGEN--\":5452:5485   */\n      calldataload\n        /* \"--CODEGEN--\":5505:5523   */\n      0xffffffffffffffff\n        /* \"--CODEGEN--\":5497:5503   */\n      dup2\n        /* \"--CODEGEN--\":5494:5524   */\n      gt\n        /* \"--CODEGEN--\":5491:5493   */\n      iszero\n      tag_302\n      jumpi\n        /* \"--CODEGEN--\":5537:5538   */\n      0x0\n        /* \"--CODEGEN--\":5534:5535   */\n      dup1\n        /* \"--CODEGEN--\":5527:5539   */\n      revert\n        /* \"--CODEGEN--\":5491:5493   */\n    tag_302:\n        /* \"--CODEGEN--\":5557:5635   */\n      tag_303\n        /* \"--CODEGEN--\":5627:5634   */\n      dup10\n        /* \"--CODEGEN--\":5618:5624   */\n      dup3\n        /* \"--CODEGEN--\":5607:5616   */\n      dup11\n        /* \"--CODEGEN--\":5603:5625   */\n      add\n        /* \"--CODEGEN--\":5557:5635   */\n      jump(tag_252)\n    tag_303:\n        /* \"--CODEGEN--\":5547:5635   */\n      swap2\n      pop\n        /* \"--CODEGEN--\":5431:5641   */\n      pop\n        /* \"--CODEGEN--\":4439:5651   */\n      swap3\n      swap6\n      pop\n      swap3\n      swap6\n      pop\n      swap3\n      swap6\n      jump\n        /* \"--CODEGEN--\":5658:5759   */\n    tag_305:\n        /* \"--CODEGEN--\":5725:5753   */\n      tag_306\n        /* \"--CODEGEN--\":5747:5752   */\n      dup2\n        /* \"--CODEGEN--\":5725:5753   */\n      jump(tag_307)\n    tag_306:\n        /* \"--CODEGEN--\":5720:5723   */\n      dup3\n        /* \"--CODEGEN--\":5713:5754   */\n      mstore\n        /* \"--CODEGEN--\":5707:5759   */\n      pop\n      pop\n      jump\n        /* \"--CODEGEN--\":5767:6164   */\n    tag_309:\n      0x0\n        /* \"--CODEGEN--\":5922:5924   */\n      0x2a\n        /* \"--CODEGEN--\":5917:5920   */\n      dup3\n        /* \"--CODEGEN--\":5910:5925   */\n      mstore\n        /* \"--CODEGEN--\":5959:6025   */\n      0x56657269666965722e7665726966794b5a473a205f696e646578206973206f75\n        /* \"--CODEGEN--\":5954:5956   */\n      0x20\n        /* \"--CODEGEN--\":5949:5952   */\n      dup4\n        /* \"--CODEGEN--\":5945:5957   */\n      add\n        /* \"--CODEGEN--\":5938:6026   */\n      mstore\n        /* \"--CODEGEN--\":6060:6126   */\n      0x74206f662072616e676500000000000000000000000000000000000000000000\n        /* \"--CODEGEN--\":6055:6057   */\n      0x40\n        /* \"--CODEGEN--\":6050:6053   */\n      dup4\n        /* \"--CODEGEN--\":6046:6058   */\n      add\n        /* \"--CODEGEN--\":6039:6127   */\n      mstore\n        /* \"--CODEGEN--\":6155:6157   */\n      0x60\n        /* \"--CODEGEN--\":6150:6153   */\n      dup3\n        /* \"--CODEGEN--\":6146:6158   */\n      add\n        /* \"--CODEGEN--\":6139:6158   */\n      swap1\n      pop\n        /* \"--CODEGEN--\":5903:6164   */\n      swap2\n      swap1\n      pop\n      jump\n        /* \"--CODEGEN--\":6173:6570   */\n    tag_311:\n      0x0\n        /* \"--CODEGEN--\":6328:6330   */\n      0x2c\n        /* \"--CODEGEN--\":6323:6326   */\n      dup3\n        /* \"--CODEGEN--\":6316:6331   */\n      mstore\n        /* \"--CODEGEN--\":6365:6431   */\n      0x56657269666965722e7665726966794b5a473a205f70726f6f662e5820697320\n        /* \"--CODEGEN--\":6360:6362   */\n      0x20\n        /* \"--CODEGEN--\":6355:6358   */\n      dup4\n        /* \"--CODEGEN--\":6351:6363   */\n      add\n        /* \"--CODEGEN--\":6344:6432   */\n      mstore\n        /* \"--CODEGEN--\":6466:6532   */\n      0x6f7574206f662072616e67650000000000000000000000000000000000000000\n        /* \"--CODEGEN--\":6461:6463   */\n      0x40\n        /* \"--CODEGEN--\":6456:6459   */\n      dup4\n        /* \"--CODEGEN--\":6452:6464   */\n      add\n        /* \"--CODEGEN--\":6445:6533   */\n      mstore\n        /* \"--CODEGEN--\":6561:6563   */\n      0x60\n        /* \"--CODEGEN--\":6556:6559   */\n      dup3\n        /* \"--CODEGEN--\":6552:6564   */\n      add\n        /* \"--CODEGEN--\":6545:6564   */\n      swap1\n      pop\n        /* \"--CODEGEN--\":6309:6570   */\n      swap2\n      swap1\n      pop\n      jump\n        /* \"--CODEGEN--\":6579:6976   */\n    tag_313:\n      0x0\n        /* \"--CODEGEN--\":6734:6736   */\n      0x2f\n        /* \"--CODEGEN--\":6729:6732   */\n      dup3\n        /* \"--CODEGEN--\":6722:6737   */\n      mstore\n        /* \"--CODEGEN--\":6771:6837   */\n      0x56657269666965722e7665726966794b5a473a205f70726f6f662e595b315d20\n        /* \"--CODEGEN--\":6766:6768   */\n      0x20\n        /* \"--CODEGEN--\":6761:6764   */\n      dup4\n        /* \"--CODEGEN--\":6757:6769   */\n      add\n        /* \"--CODEGEN--\":6750:6838   */\n      mstore\n        /* \"--CODEGEN--\":6872:6938   */\n      0x6973206f7574206f662072616e67650000000000000000000000000000000000\n        /* \"--CODEGEN--\":6867:6869   */\n      0x40\n        /* \"--CODEGEN--\":6862:6865   */\n      dup4\n        /* \"--CODEGEN--\":6858:6870   */\n      add\n        /* \"--CODEGEN--\":6851:6939   */\n      mstore\n        /* \"--CODEGEN--\":6967:6969   */\n      0x60\n        /* \"--CODEGEN--\":6962:6965   */\n      dup3\n        /* \"--CODEGEN--\":6958:6970   */\n      add\n        /* \"--CODEGEN--\":6951:6970   */\n      swap1\n      pop\n        /* \"--CODEGEN--\":6715:6976   */\n      swap2\n      swap1\n      pop\n      jump\n        /* \"--CODEGEN--\":6985:7382   */\n    tag_315:\n      0x0\n        /* \"--CODEGEN--\":7140:7142   */\n      0x31\n        /* \"--CODEGEN--\":7135:7138   */\n      dup3\n        /* \"--CODEGEN--\":7128:7143   */\n      mstore\n        /* \"--CODEGEN--\":7177:7243   */\n      0x56657269666965722e7665726966794b5a473a205f636f6d6d69746d656e742e\n        /* \"--CODEGEN--\":7172:7174   */\n      0x20\n        /* \"--CODEGEN--\":7167:7170   */\n      dup4\n        /* \"--CODEGEN--\":7163:7175   */\n      add\n        /* \"--CODEGEN--\":7156:7244   */\n      mstore\n        /* \"--CODEGEN--\":7278:7344   */\n      0x58206973206f7574206f662072616e6765000000000000000000000000000000\n        /* \"--CODEGEN--\":7273:7275   */\n      0x40\n        /* \"--CODEGEN--\":7268:7271   */\n      dup4\n        /* \"--CODEGEN--\":7264:7276   */\n      add\n        /* \"--CODEGEN--\":7257:7345   */\n      mstore\n        /* \"--CODEGEN--\":7373:7375   */\n      0x60\n        /* \"--CODEGEN--\":7368:7371   */\n      dup3\n        /* \"--CODEGEN--\":7364:7376   */\n      add\n        /* \"--CODEGEN--\":7357:7376   */\n      swap1\n      pop\n        /* \"--CODEGEN--\":7121:7382   */\n      swap2\n      swap1\n      pop\n      jump\n        /* \"--CODEGEN--\":7391:7788   */\n    tag_317:\n      0x0\n        /* \"--CODEGEN--\":7546:7548   */\n      0x36\n        /* \"--CODEGEN--\":7541:7544   */\n      dup3\n        /* \"--CODEGEN--\":7534:7549   */\n      mstore\n        /* \"--CODEGEN--\":7583:7649   */\n      0x56657269666965722e7665726966794d756c74694b5a473a205f636f6d6d6974\n        /* \"--CODEGEN--\":7578:7580   */\n      0x20\n        /* \"--CODEGEN--\":7573:7576   */\n      dup4\n        /* \"--CODEGEN--\":7569:7581   */\n      add\n        /* \"--CODEGEN--\":7562:7650   */\n      mstore\n        /* \"--CODEGEN--\":7684:7750   */\n      0x6d656e742e58206973206f7574206f662072616e676500000000000000000000\n        /* \"--CODEGEN--\":7679:7681   */\n      0x40\n        /* \"--CODEGEN--\":7674:7677   */\n      dup4\n        /* \"--CODEGEN--\":7670:7682   */\n      add\n        /* \"--CODEGEN--\":7663:7751   */\n      mstore\n        /* \"--CODEGEN--\":7779:7781   */\n      0x60\n        /* \"--CODEGEN--\":7774:7777   */\n      dup3\n        /* \"--CODEGEN--\":7770:7782   */\n      add\n        /* \"--CODEGEN--\":7763:7782   */\n      swap1\n      pop\n        /* \"--CODEGEN--\":7527:7788   */\n      swap2\n      swap1\n      pop\n      jump\n        /* \"--CODEGEN--\":7797:8093   */\n    tag_319:\n      0x0\n        /* \"--CODEGEN--\":7952:7954   */\n      0x12\n        /* \"--CODEGEN--\":7947:7950   */\n      dup3\n        /* \"--CODEGEN--\":7940:7955   */\n      mstore\n        /* \"--CODEGEN--\":7989:8055   */\n      0x70616972696e672d6d756c2d6661696c65640000000000000000000000000000\n        /* \"--CODEGEN--\":7984:7986   */\n      0x20\n        /* \"--CODEGEN--\":7979:7982   */\n      dup4\n        /* \"--CODEGEN--\":7975:7987   */\n      add\n        /* \"--CODEGEN--\":7968:8056   */\n      mstore\n        /* \"--CODEGEN--\":8084:8086   */\n      0x40\n        /* \"--CODEGEN--\":8079:8082   */\n      dup3\n        /* \"--CODEGEN--\":8075:8087   */\n      add\n        /* \"--CODEGEN--\":8068:8087   */\n      swap1\n      pop\n        /* \"--CODEGEN--\":7933:8093   */\n      swap2\n      swap1\n      pop\n      jump\n        /* \"--CODEGEN--\":8102:8499   */\n    tag_321:\n      0x0\n        /* \"--CODEGEN--\":8257:8259   */\n      0x2f\n        /* \"--CODEGEN--\":8252:8255   */\n      dup3\n        /* \"--CODEGEN--\":8245:8260   */\n      mstore\n        /* \"--CODEGEN--\":8294:8360   */\n      0x56657269666965722e7665726966794b5a473a205f70726f6f662e595b305d20\n        /* \"--CODEGEN--\":8289:8291   */\n      0x20\n        /* \"--CODEGEN--\":8284:8287   */\n      dup4\n        /* \"--CODEGEN--\":8280:8292   */\n      add\n        /* \"--CODEGEN--\":8273:8361   */\n      mstore\n        /* \"--CODEGEN--\":8395:8461   */\n      0x6973206f7574206f662072616e67650000000000000000000000000000000000\n        /* \"--CODEGEN--\":8390:8392   */\n      0x40\n        /* \"--CODEGEN--\":8385:8388   */\n      dup4\n        /* \"--CODEGEN--\":8381:8393   */\n      add\n        /* \"--CODEGEN--\":8374:8462   */\n      mstore\n        /* \"--CODEGEN--\":8490:8492   */\n      0x60\n        /* \"--CODEGEN--\":8485:8488   */\n      dup3\n        /* \"--CODEGEN--\":8481:8493   */\n      add\n        /* \"--CODEGEN--\":8474:8493   */\n      swap1\n      pop\n        /* \"--CODEGEN--\":8238:8499   */\n      swap2\n      swap1\n      pop\n      jump\n        /* \"--CODEGEN--\":8508:8905   */\n    tag_323:\n      0x0\n        /* \"--CODEGEN--\":8663:8665   */\n      0x2f\n        /* \"--CODEGEN--\":8658:8661   */\n      dup3\n        /* \"--CODEGEN--\":8651:8666   */\n      mstore\n        /* \"--CODEGEN--\":8700:8766   */\n      0x56657269666965722e7665726966794b5a473a205f70726f6f662e585b315d20\n        /* \"--CODEGEN--\":8695:8697   */\n      0x20\n        /* \"--CODEGEN--\":8690:8693   */\n      dup4\n        /* \"--CODEGEN--\":8686:8698   */\n      add\n        /* \"--CODEGEN--\":8679:8767   */\n      mstore\n        /* \"--CODEGEN--\":8801:8867   */\n      0x6973206f7574206f662072616e67650000000000000000000000000000000000\n        /* \"--CODEGEN--\":8796:8798   */\n      0x40\n        /* \"--CODEGEN--\":8791:8794   */\n      dup4\n        /* \"--CODEGEN--\":8787:8799   */\n      add\n        /* \"--CODEGEN--\":8780:8868   */\n      mstore\n        /* \"--CODEGEN--\":8896:8898   */\n      0x60\n        /* \"--CODEGEN--\":8891:8894   */\n      dup3\n        /* \"--CODEGEN--\":8887:8899   */\n      add\n        /* \"--CODEGEN--\":8880:8899   */\n      swap1\n      pop\n        /* \"--CODEGEN--\":8644:8905   */\n      swap2\n      swap1\n      pop\n      jump\n        /* \"--CODEGEN--\":8914:9311   */\n    tag_325:\n      0x0\n        /* \"--CODEGEN--\":9069:9071   */\n      0x31\n        /* \"--CODEGEN--\":9064:9067   */\n      dup3\n        /* \"--CODEGEN--\":9057:9072   */\n      mstore\n        /* \"--CODEGEN--\":9106:9172   */\n      0x56657269666965722e7665726966794b5a473a205f636f6d6d69746d656e742e\n        /* \"--CODEGEN--\":9101:9103   */\n      0x20\n        /* \"--CODEGEN--\":9096:9099   */\n      dup4\n        /* \"--CODEGEN--\":9092:9104   */\n      add\n        /* \"--CODEGEN--\":9085:9173   */\n      mstore\n        /* \"--CODEGEN--\":9207:9273   */\n      0x59206973206f7574206f662072616e6765000000000000000000000000000000\n        /* \"--CODEGEN--\":9202:9204   */\n      0x40\n        /* \"--CODEGEN--\":9197:9200   */\n      dup4\n        /* \"--CODEGEN--\":9193:9205   */\n      add\n        /* \"--CODEGEN--\":9186:9274   */\n      mstore\n        /* \"--CODEGEN--\":9302:9304   */\n      0x60\n        /* \"--CODEGEN--\":9297:9300   */\n      dup3\n        /* \"--CODEGEN--\":9293:9305   */\n      add\n        /* \"--CODEGEN--\":9286:9305   */\n      swap1\n      pop\n        /* \"--CODEGEN--\":9050:9311   */\n      swap2\n      swap1\n      pop\n      jump\n        /* \"--CODEGEN--\":9320:9717   */\n    tag_327:\n      0x0\n        /* \"--CODEGEN--\":9475:9477   */\n      0x2f\n        /* \"--CODEGEN--\":9470:9473   */\n      dup3\n        /* \"--CODEGEN--\":9463:9478   */\n      mstore\n        /* \"--CODEGEN--\":9512:9578   */\n      0x56657269666965722e7665726966794b5a473a205f70726f6f662e585b305d20\n        /* \"--CODEGEN--\":9507:9509   */\n      0x20\n        /* \"--CODEGEN--\":9502:9505   */\n      dup4\n        /* \"--CODEGEN--\":9498:9510   */\n      add\n        /* \"--CODEGEN--\":9491:9579   */\n      mstore\n        /* \"--CODEGEN--\":9613:9679   */\n      0x6973206f7574206f662072616e67650000000000000000000000000000000000\n        /* \"--CODEGEN--\":9608:9610   */\n      0x40\n        /* \"--CODEGEN--\":9603:9606   */\n      dup4\n        /* \"--CODEGEN--\":9599:9611   */\n      add\n        /* \"--CODEGEN--\":9592:9680   */\n      mstore\n        /* \"--CODEGEN--\":9708:9710   */\n      0x60\n        /* \"--CODEGEN--\":9703:9706   */\n      dup3\n        /* \"--CODEGEN--\":9699:9711   */\n      add\n        /* \"--CODEGEN--\":9692:9711   */\n      swap1\n      pop\n        /* \"--CODEGEN--\":9456:9717   */\n      swap2\n      swap1\n      pop\n      jump\n        /* \"--CODEGEN--\":9726:10123   */\n    tag_329:\n      0x0\n        /* \"--CODEGEN--\":9881:9883   */\n      0x35\n        /* \"--CODEGEN--\":9876:9879   */\n      dup3\n        /* \"--CODEGEN--\":9869:9884   */\n      mstore\n        /* \"--CODEGEN--\":9918:9984   */\n      0x56657269666965722e7665726966794b5a473a20616e205f69436f6566667320\n        /* \"--CODEGEN--\":9913:9915   */\n      0x20\n        /* \"--CODEGEN--\":9908:9911   */\n      dup4\n        /* \"--CODEGEN--\":9904:9916   */\n      add\n        /* \"--CODEGEN--\":9897:9985   */\n      mstore\n        /* \"--CODEGEN--\":10019:10085   */\n      0x76616c7565206973206f7574206f662072616e67650000000000000000000000\n        /* \"--CODEGEN--\":10014:10016   */\n      0x40\n        /* \"--CODEGEN--\":10009:10012   */\n      dup4\n        /* \"--CODEGEN--\":10005:10017   */\n      add\n        /* \"--CODEGEN--\":9998:10086   */\n      mstore\n        /* \"--CODEGEN--\":10114:10116   */\n      0x60\n        /* \"--CODEGEN--\":10109:10112   */\n      dup3\n        /* \"--CODEGEN--\":10105:10117   */\n      add\n        /* \"--CODEGEN--\":10098:10117   */\n      swap1\n      pop\n        /* \"--CODEGEN--\":9862:10123   */\n      swap2\n      swap1\n      pop\n      jump\n        /* \"--CODEGEN--\":10132:10529   */\n    tag_331:\n      0x0\n        /* \"--CODEGEN--\":10287:10289   */\n      0x2b\n        /* \"--CODEGEN--\":10282:10285   */\n      dup3\n        /* \"--CODEGEN--\":10275:10290   */\n      mstore\n        /* \"--CODEGEN--\":10324:10390   */\n      0x56657269666965722e7665726966794b5a473a20612076616c7565206973206f\n        /* \"--CODEGEN--\":10319:10321   */\n      0x20\n        /* \"--CODEGEN--\":10314:10317   */\n      dup4\n        /* \"--CODEGEN--\":10310:10322   */\n      add\n        /* \"--CODEGEN--\":10303:10391   */\n      mstore\n        /* \"--CODEGEN--\":10425:10491   */\n      0x7574206f662072616e6765000000000000000000000000000000000000000000\n        /* \"--CODEGEN--\":10420:10422   */\n      0x40\n        /* \"--CODEGEN--\":10415:10418   */\n      dup4\n        /* \"--CODEGEN--\":10411:10423   */\n      add\n        /* \"--CODEGEN--\":10404:10492   */\n      mstore\n        /* \"--CODEGEN--\":10520:10522   */\n      0x60\n        /* \"--CODEGEN--\":10515:10518   */\n      dup3\n        /* \"--CODEGEN--\":10511:10523   */\n      add\n        /* \"--CODEGEN--\":10504:10523   */\n      swap1\n      pop\n        /* \"--CODEGEN--\":10268:10529   */\n      swap2\n      swap1\n      pop\n      jump\n        /* \"--CODEGEN--\":10538:10935   */\n    tag_333:\n      0x0\n        /* \"--CODEGEN--\":10693:10695   */\n      0x35\n        /* \"--CODEGEN--\":10688:10691   */\n      dup3\n        /* \"--CODEGEN--\":10681:10696   */\n      mstore\n        /* \"--CODEGEN--\":10730:10796   */\n      0x56657269666965722e7665726966794b5a473a20616e205f7a436f6566667320\n        /* \"--CODEGEN--\":10725:10727   */\n      0x20\n        /* \"--CODEGEN--\":10720:10723   */\n      dup4\n        /* \"--CODEGEN--\":10716:10728   */\n      add\n        /* \"--CODEGEN--\":10709:10797   */\n      mstore\n        /* \"--CODEGEN--\":10831:10897   */\n      0x76616c7565206973206f7574206f662072616e67650000000000000000000000\n        /* \"--CODEGEN--\":10826:10828   */\n      0x40\n        /* \"--CODEGEN--\":10821:10824   */\n      dup4\n        /* \"--CODEGEN--\":10817:10829   */\n      add\n        /* \"--CODEGEN--\":10810:10898   */\n      mstore\n        /* \"--CODEGEN--\":10926:10928   */\n      0x60\n        /* \"--CODEGEN--\":10921:10924   */\n      dup3\n        /* \"--CODEGEN--\":10917:10929   */\n      add\n        /* \"--CODEGEN--\":10910:10929   */\n      swap1\n      pop\n        /* \"--CODEGEN--\":10674:10935   */\n      swap2\n      swap1\n      pop\n      jump\n        /* \"--CODEGEN--\":10944:11341   */\n    tag_335:\n      0x0\n        /* \"--CODEGEN--\":11099:11101   */\n      0x2a\n        /* \"--CODEGEN--\":11094:11097   */\n      dup3\n        /* \"--CODEGEN--\":11087:11102   */\n      mstore\n        /* \"--CODEGEN--\":11136:11202   */\n      0x56657269666965722e7665726966794b5a473a205f76616c7565206973206f75\n        /* \"--CODEGEN--\":11131:11133   */\n      0x20\n        /* \"--CODEGEN--\":11126:11129   */\n      dup4\n        /* \"--CODEGEN--\":11122:11134   */\n      add\n        /* \"--CODEGEN--\":11115:11203   */\n      mstore\n        /* \"--CODEGEN--\":11237:11303   */\n      0x74206f662072616e676500000000000000000000000000000000000000000000\n        /* \"--CODEGEN--\":11232:11234   */\n      0x40\n        /* \"--CODEGEN--\":11227:11230   */\n      dup4\n        /* \"--CODEGEN--\":11223:11235   */\n      add\n        /* \"--CODEGEN--\":11216:11304   */\n      mstore\n        /* \"--CODEGEN--\":11332:11334   */\n      0x60\n        /* \"--CODEGEN--\":11327:11330   */\n      dup3\n        /* \"--CODEGEN--\":11323:11335   */\n      add\n        /* \"--CODEGEN--\":11316:11335   */\n      swap1\n      pop\n        /* \"--CODEGEN--\":11080:11341   */\n      swap2\n      swap1\n      pop\n      jump\n        /* \"--CODEGEN--\":11350:11747   */\n    tag_337:\n      0x0\n        /* \"--CODEGEN--\":11505:11507   */\n      0x2c\n        /* \"--CODEGEN--\":11500:11503   */\n      dup3\n        /* \"--CODEGEN--\":11493:11508   */\n      mstore\n        /* \"--CODEGEN--\":11542:11608   */\n      0x56657269666965722e7665726966794b5a473a205f70726f6f662e5920697320\n        /* \"--CODEGEN--\":11537:11539   */\n      0x20\n        /* \"--CODEGEN--\":11532:11535   */\n      dup4\n        /* \"--CODEGEN--\":11528:11540   */\n      add\n        /* \"--CODEGEN--\":11521:11609   */\n      mstore\n        /* \"--CODEGEN--\":11643:11709   */\n      0x6f7574206f662072616e67650000000000000000000000000000000000000000\n        /* \"--CODEGEN--\":11638:11640   */\n      0x40\n        /* \"--CODEGEN--\":11633:11636   */\n      dup4\n        /* \"--CODEGEN--\":11629:11641   */\n      add\n        /* \"--CODEGEN--\":11622:11710   */\n      mstore\n        /* \"--CODEGEN--\":11738:11740   */\n      0x60\n        /* \"--CODEGEN--\":11733:11736   */\n      dup3\n        /* \"--CODEGEN--\":11729:11741   */\n      add\n        /* \"--CODEGEN--\":11722:11741   */\n      swap1\n      pop\n        /* \"--CODEGEN--\":11486:11747   */\n      swap2\n      swap1\n      pop\n      jump\n        /* \"--CODEGEN--\":11756:12153   */\n    tag_339:\n      0x0\n        /* \"--CODEGEN--\":11911:11913   */\n      0x26\n        /* \"--CODEGEN--\":11906:11909   */\n      dup3\n        /* \"--CODEGEN--\":11899:11914   */\n      mstore\n        /* \"--CODEGEN--\":11948:12014   */\n      0x56657269666965722e7665726966794d756c74693a20696e76616c6964205f69\n        /* \"--CODEGEN--\":11943:11945   */\n      0x20\n        /* \"--CODEGEN--\":11938:11941   */\n      dup4\n        /* \"--CODEGEN--\":11934:11946   */\n      add\n        /* \"--CODEGEN--\":11927:12015   */\n      mstore\n        /* \"--CODEGEN--\":12049:12115   */\n      0x436f656666730000000000000000000000000000000000000000000000000000\n        /* \"--CODEGEN--\":12044:12046   */\n      0x40\n        /* \"--CODEGEN--\":12039:12042   */\n      dup4\n        /* \"--CODEGEN--\":12035:12047   */\n      add\n        /* \"--CODEGEN--\":12028:12116   */\n      mstore\n        /* \"--CODEGEN--\":12144:12146   */\n      0x60\n        /* \"--CODEGEN--\":12139:12142   */\n      dup3\n        /* \"--CODEGEN--\":12135:12147   */\n      add\n        /* \"--CODEGEN--\":12128:12147   */\n      swap1\n      pop\n        /* \"--CODEGEN--\":11892:12153   */\n      swap2\n      swap1\n      pop\n      jump\n        /* \"--CODEGEN--\":12162:12458   */\n    tag_341:\n      0x0\n        /* \"--CODEGEN--\":12317:12319   */\n      0x12\n        /* \"--CODEGEN--\":12312:12315   */\n      dup3\n        /* \"--CODEGEN--\":12305:12320   */\n      mstore\n        /* \"--CODEGEN--\":12354:12420   */\n      0x70616972696e672d6164642d6661696c65640000000000000000000000000000\n        /* \"--CODEGEN--\":12349:12351   */\n      0x20\n        /* \"--CODEGEN--\":12344:12347   */\n      dup4\n        /* \"--CODEGEN--\":12340:12352   */\n      add\n        /* \"--CODEGEN--\":12333:12421   */\n      mstore\n        /* \"--CODEGEN--\":12449:12451   */\n      0x40\n        /* \"--CODEGEN--\":12444:12447   */\n      dup3\n        /* \"--CODEGEN--\":12440:12452   */\n      add\n        /* \"--CODEGEN--\":12433:12452   */\n      swap1\n      pop\n        /* \"--CODEGEN--\":12298:12458   */\n      swap2\n      swap1\n      pop\n      jump\n        /* \"--CODEGEN--\":12467:12763   */\n    tag_343:\n      0x0\n        /* \"--CODEGEN--\":12622:12624   */\n      0x15\n        /* \"--CODEGEN--\":12617:12620   */\n      dup3\n        /* \"--CODEGEN--\":12610:12625   */\n      mstore\n        /* \"--CODEGEN--\":12659:12725   */\n      0x70616972696e672d6f70636f64652d6661696c65640000000000000000000000\n        /* \"--CODEGEN--\":12654:12656   */\n      0x20\n        /* \"--CODEGEN--\":12649:12652   */\n      dup4\n        /* \"--CODEGEN--\":12645:12657   */\n      add\n        /* \"--CODEGEN--\":12638:12726   */\n      mstore\n        /* \"--CODEGEN--\":12754:12756   */\n      0x40\n        /* \"--CODEGEN--\":12749:12752   */\n      dup3\n        /* \"--CODEGEN--\":12745:12757   */\n      add\n        /* \"--CODEGEN--\":12738:12757   */\n      swap1\n      pop\n        /* \"--CODEGEN--\":12603:12763   */\n      swap2\n      swap1\n      pop\n      jump\n        /* \"--CODEGEN--\":12772:13169   */\n    tag_345:\n      0x0\n        /* \"--CODEGEN--\":12927:12929   */\n      0x26\n        /* \"--CODEGEN--\":12922:12925   */\n      dup3\n        /* \"--CODEGEN--\":12915:12930   */\n      mstore\n        /* \"--CODEGEN--\":12964:13030   */\n      0x56657269666965722e7665726966794d756c74693a20696e76616c6964205f7a\n        /* \"--CODEGEN--\":12959:12961   */\n      0x20\n        /* \"--CODEGEN--\":12954:12957   */\n      dup4\n        /* \"--CODEGEN--\":12950:12962   */\n      add\n        /* \"--CODEGEN--\":12943:13031   */\n      mstore\n        /* \"--CODEGEN--\":13065:13131   */\n      0x436f656666730000000000000000000000000000000000000000000000000000\n        /* \"--CODEGEN--\":13060:13062   */\n      0x40\n        /* \"--CODEGEN--\":13055:13058   */\n      dup4\n        /* \"--CODEGEN--\":13051:13063   */\n      add\n        /* \"--CODEGEN--\":13044:13132   */\n      mstore\n        /* \"--CODEGEN--\":13160:13162   */\n      0x60\n        /* \"--CODEGEN--\":13155:13158   */\n      dup3\n        /* \"--CODEGEN--\":13151:13163   */\n      add\n        /* \"--CODEGEN--\":13144:13163   */\n      swap1\n      pop\n        /* \"--CODEGEN--\":12908:13169   */\n      swap2\n      swap1\n      pop\n      jump\n        /* \"--CODEGEN--\":13178:13575   */\n    tag_347:\n      0x0\n        /* \"--CODEGEN--\":13333:13335   */\n      0x36\n        /* \"--CODEGEN--\":13328:13331   */\n      dup3\n        /* \"--CODEGEN--\":13321:13336   */\n      mstore\n        /* \"--CODEGEN--\":13370:13436   */\n      0x56657269666965722e7665726966794d756c74694b5a473a205f636f6d6d6974\n        /* \"--CODEGEN--\":13365:13367   */\n      0x20\n        /* \"--CODEGEN--\":13360:13363   */\n      dup4\n        /* \"--CODEGEN--\":13356:13368   */\n      add\n        /* \"--CODEGEN--\":13349:13437   */\n      mstore\n        /* \"--CODEGEN--\":13471:13537   */\n      0x6d656e742e59206973206f7574206f662072616e676500000000000000000000\n        /* \"--CODEGEN--\":13466:13468   */\n      0x40\n        /* \"--CODEGEN--\":13461:13464   */\n      dup4\n        /* \"--CODEGEN--\":13457:13469   */\n      add\n        /* \"--CODEGEN--\":13450:13538   */\n      mstore\n        /* \"--CODEGEN--\":13566:13568   */\n      0x60\n        /* \"--CODEGEN--\":13561:13564   */\n      dup3\n        /* \"--CODEGEN--\":13557:13569   */\n      add\n        /* \"--CODEGEN--\":13550:13569   */\n      swap1\n      pop\n        /* \"--CODEGEN--\":13314:13575   */\n      swap2\n      swap1\n      pop\n      jump\n        /* \"--CODEGEN--\":13584:13981   */\n    tag_349:\n      0x0\n        /* \"--CODEGEN--\":13739:13741   */\n      0x2c\n        /* \"--CODEGEN--\":13734:13737   */\n      dup3\n        /* \"--CODEGEN--\":13727:13742   */\n      mstore\n        /* \"--CODEGEN--\":13776:13842   */\n      0x56657269666965722e7665726966794b5a473a20616e20696e64657820697320\n        /* \"--CODEGEN--\":13771:13773   */\n      0x20\n        /* \"--CODEGEN--\":13766:13769   */\n      dup4\n        /* \"--CODEGEN--\":13762:13774   */\n      add\n        /* \"--CODEGEN--\":13755:13843   */\n      mstore\n        /* \"--CODEGEN--\":13877:13943   */\n      0x6f7574206f662072616e67650000000000000000000000000000000000000000\n        /* \"--CODEGEN--\":13872:13874   */\n      0x40\n        /* \"--CODEGEN--\":13867:13870   */\n      dup4\n        /* \"--CODEGEN--\":13863:13875   */\n      add\n        /* \"--CODEGEN--\":13856:13944   */\n      mstore\n        /* \"--CODEGEN--\":13972:13974   */\n      0x60\n        /* \"--CODEGEN--\":13967:13970   */\n      dup3\n        /* \"--CODEGEN--\":13963:13975   */\n      add\n        /* \"--CODEGEN--\":13956:13975   */\n      swap1\n      pop\n        /* \"--CODEGEN--\":13720:13981   */\n      swap2\n      swap1\n      pop\n      jump\n        /* \"--CODEGEN--\":14044:14528   */\n    tag_351:\n        /* \"--CODEGEN--\":14175:14179   */\n      0x40\n        /* \"--CODEGEN--\":14170:14173   */\n      dup3\n        /* \"--CODEGEN--\":14166:14180   */\n      add\n        /* \"--CODEGEN--\":14258:14261   */\n      0x0\n        /* \"--CODEGEN--\":14251:14256   */\n      dup3\n        /* \"--CODEGEN--\":14247:14262   */\n      add\n        /* \"--CODEGEN--\":14241:14263   */\n      mload\n        /* \"--CODEGEN--\":14275:14336   */\n      tag_352\n        /* \"--CODEGEN--\":14331:14334   */\n      0x0\n        /* \"--CODEGEN--\":14326:14329   */\n      dup6\n        /* \"--CODEGEN--\":14322:14335   */\n      add\n        /* \"--CODEGEN--\":14309:14320   */\n      dup3\n        /* \"--CODEGEN--\":14275:14336   */\n      jump(tag_353)\n    tag_352:\n        /* \"--CODEGEN--\":14195:14348   */\n      pop\n        /* \"--CODEGEN--\":14421:14425   */\n      0x20\n        /* \"--CODEGEN--\":14414:14419   */\n      dup3\n        /* \"--CODEGEN--\":14410:14426   */\n      add\n        /* \"--CODEGEN--\":14404:14427   */\n      mload\n        /* \"--CODEGEN--\":14439:14501   */\n      tag_354\n        /* \"--CODEGEN--\":14495:14499   */\n      0x20\n        /* \"--CODEGEN--\":14490:14493   */\n      dup6\n        /* \"--CODEGEN--\":14486:14500   */\n      add\n        /* \"--CODEGEN--\":14473:14484   */\n      dup3\n        /* \"--CODEGEN--\":14439:14501   */\n      jump(tag_353)\n    tag_354:\n        /* \"--CODEGEN--\":14358:14513   */\n      pop\n        /* \"--CODEGEN--\":14148:14528   */\n      pop\n      pop\n      pop\n      jump\n        /* \"--CODEGEN--\":14535:14645   */\n    tag_353:\n        /* \"--CODEGEN--\":14608:14639   */\n      tag_356\n        /* \"--CODEGEN--\":14633:14638   */\n      dup2\n        /* \"--CODEGEN--\":14608:14639   */\n      jump(tag_357)\n    tag_356:\n        /* \"--CODEGEN--\":14603:14606   */\n      dup3\n        /* \"--CODEGEN--\":14596:14640   */\n      mstore\n        /* \"--CODEGEN--\":14590:14645   */\n      pop\n      pop\n      jump\n        /* \"--CODEGEN--\":14652:14833   */\n    tag_19:\n      0x0\n        /* \"--CODEGEN--\":14754:14756   */\n      0x20\n        /* \"--CODEGEN--\":14743:14752   */\n      dup3\n        /* \"--CODEGEN--\":14739:14757   */\n      add\n        /* \"--CODEGEN--\":14731:14757   */\n      swap1\n      pop\n        /* \"--CODEGEN--\":14768:14823   */\n      tag_359\n        /* \"--CODEGEN--\":14820:14821   */\n      0x0\n        /* \"--CODEGEN--\":14809:14818   */\n      dup4\n        /* \"--CODEGEN--\":14805:14822   */\n      add\n        /* \"--CODEGEN--\":14796:14802   */\n      dup5\n        /* \"--CODEGEN--\":14768:14823   */\n      jump(tag_305)\n    tag_359:\n        /* \"--CODEGEN--\":14725:14833   */\n      swap3\n      swap2\n      pop\n      pop\n      jump\n        /* \"--CODEGEN--\":14840:15227   */\n    tag_138:\n      0x0\n        /* \"--CODEGEN--\":15021:15023   */\n      0x20\n        /* \"--CODEGEN--\":15010:15019   */\n      dup3\n        /* \"--CODEGEN--\":15006:15024   */\n      add\n        /* \"--CODEGEN--\":14998:15024   */\n      swap1\n      pop\n        /* \"--CODEGEN--\":15071:15080   */\n      dup2\n        /* \"--CODEGEN--\":15065:15069   */\n      dup2\n        /* \"--CODEGEN--\":15061:15081   */\n      sub\n        /* \"--CODEGEN--\":15057:15058   */\n      0x0\n        /* \"--CODEGEN--\":15046:15055   */\n      dup4\n        /* \"--CODEGEN--\":15042:15059   */\n      add\n        /* \"--CODEGEN--\":15035:15082   */\n      mstore\n        /* \"--CODEGEN--\":15096:15217   */\n      tag_361\n        /* \"--CODEGEN--\":15212:15216   */\n      dup2\n        /* \"--CODEGEN--\":15096:15217   */\n      jump(tag_309)\n    tag_361:\n        /* \"--CODEGEN--\":15088:15217   */\n      swap1\n      pop\n        /* \"--CODEGEN--\":14992:15227   */\n      swap2\n      swap1\n      pop\n      jump\n        /* \"--CODEGEN--\":15234:15621   */\n    tag_132:\n      0x0\n        /* \"--CODEGEN--\":15415:15417   */\n      0x20\n        /* \"--CODEGEN--\":15404:15413   */\n      dup3\n        /* \"--CODEGEN--\":15400:15418   */\n      add\n        /* \"--CODEGEN--\":15392:15418   */\n      swap1\n      pop\n        /* \"--CODEGEN--\":15465:15474   */\n      dup2\n        /* \"--CODEGEN--\":15459:15463   */\n      dup2\n        /* \"--CODEGEN--\":15455:15475   */\n      sub\n        /* \"--CODEGEN--\":15451:15452   */\n      0x0\n        /* \"--CODEGEN--\":15440:15449   */\n      dup4\n        /* \"--CODEGEN--\":15436:15453   */\n      add\n        /* \"--CODEGEN--\":15429:15476   */\n      mstore\n        /* \"--CODEGEN--\":15490:15611   */\n      tag_363\n        /* \"--CODEGEN--\":15606:15610   */\n      dup2\n        /* \"--CODEGEN--\":15490:15611   */\n      jump(tag_311)\n    tag_363:\n        /* \"--CODEGEN--\":15482:15611   */\n      swap1\n      pop\n        /* \"--CODEGEN--\":15386:15621   */\n      swap2\n      swap1\n      pop\n      jump\n        /* \"--CODEGEN--\":15628:16015   */\n    tag_71:\n      0x0\n        /* \"--CODEGEN--\":15809:15811   */\n      0x20\n        /* \"--CODEGEN--\":15798:15807   */\n      dup3\n        /* \"--CODEGEN--\":15794:15812   */\n      add\n        /* \"--CODEGEN--\":15786:15812   */\n      swap1\n      pop\n        /* \"--CODEGEN--\":15859:15868   */\n      dup2\n        /* \"--CODEGEN--\":15853:15857   */\n      dup2\n        /* \"--CODEGEN--\":15849:15869   */\n      sub\n        /* \"--CODEGEN--\":15845:15846   */\n      0x0\n        /* \"--CODEGEN--\":15834:15843   */\n      dup4\n        /* \"--CODEGEN--\":15830:15847   */\n      add\n        /* \"--CODEGEN--\":15823:15870   */\n      mstore\n        /* \"--CODEGEN--\":15884:16005   */\n      tag_365\n        /* \"--CODEGEN--\":16000:16004   */\n      dup2\n        /* \"--CODEGEN--\":15884:16005   */\n      jump(tag_313)\n    tag_365:\n        /* \"--CODEGEN--\":15876:16005   */\n      swap1\n      pop\n        /* \"--CODEGEN--\":15780:16015   */\n      swap2\n      swap1\n      pop\n      jump\n        /* \"--CODEGEN--\":16022:16409   */\n    tag_126:\n      0x0\n        /* \"--CODEGEN--\":16203:16205   */\n      0x20\n        /* \"--CODEGEN--\":16192:16201   */\n      dup3\n        /* \"--CODEGEN--\":16188:16206   */\n      add\n        /* \"--CODEGEN--\":16180:16206   */\n      swap1\n      pop\n        /* \"--CODEGEN--\":16253:16262   */\n      dup2\n        /* \"--CODEGEN--\":16247:16251   */\n      dup2\n        /* \"--CODEGEN--\":16243:16263   */\n      sub\n        /* \"--CODEGEN--\":16239:16240   */\n      0x0\n        /* \"--CODEGEN--\":16228:16237   */\n      dup4\n        /* \"--CODEGEN--\":16224:16241   */\n      add\n        /* \"--CODEGEN--\":16217:16264   */\n      mstore\n        /* \"--CODEGEN--\":16278:16399   */\n      tag_367\n        /* \"--CODEGEN--\":16394:16398   */\n      dup2\n        /* \"--CODEGEN--\":16278:16399   */\n      jump(tag_315)\n    tag_367:\n        /* \"--CODEGEN--\":16270:16399   */\n      swap1\n      pop\n        /* \"--CODEGEN--\":16174:16409   */\n      swap2\n      swap1\n      pop\n      jump\n        /* \"--CODEGEN--\":16416:16803   */\n    tag_52:\n      0x0\n        /* \"--CODEGEN--\":16597:16599   */\n      0x20\n        /* \"--CODEGEN--\":16586:16595   */\n      dup3\n        /* \"--CODEGEN--\":16582:16600   */\n      add\n        /* \"--CODEGEN--\":16574:16600   */\n      swap1\n      pop\n        /* \"--CODEGEN--\":16647:16656   */\n      dup2\n        /* \"--CODEGEN--\":16641:16645   */\n      dup2\n        /* \"--CODEGEN--\":16637:16657   */\n      sub\n        /* \"--CODEGEN--\":16633:16634   */\n      0x0\n        /* \"--CODEGEN--\":16622:16631   */\n      dup4\n        /* \"--CODEGEN--\":16618:16635   */\n      add\n        /* \"--CODEGEN--\":16611:16658   */\n      mstore\n        /* \"--CODEGEN--\":16672:16793   */\n      tag_369\n        /* \"--CODEGEN--\":16788:16792   */\n      dup2\n        /* \"--CODEGEN--\":16672:16793   */\n      jump(tag_317)\n    tag_369:\n        /* \"--CODEGEN--\":16664:16793   */\n      swap1\n      pop\n        /* \"--CODEGEN--\":16568:16803   */\n      swap2\n      swap1\n      pop\n      jump\n        /* \"--CODEGEN--\":16810:17197   */\n    tag_176:\n      0x0\n        /* \"--CODEGEN--\":16991:16993   */\n      0x20\n        /* \"--CODEGEN--\":16980:16989   */\n      dup3\n        /* \"--CODEGEN--\":16976:16994   */\n      add\n        /* \"--CODEGEN--\":16968:16994   */\n      swap1\n      pop\n        /* \"--CODEGEN--\":17041:17050   */\n      dup2\n        /* \"--CODEGEN--\":17035:17039   */\n      dup2\n        /* \"--CODEGEN--\":17031:17051   */\n      sub\n        /* \"--CODEGEN--\":17027:17028   */\n      0x0\n        /* \"--CODEGEN--\":17016:17025   */\n      dup4\n        /* \"--CODEGEN--\":17012:17029   */\n      add\n        /* \"--CODEGEN--\":17005:17052   */\n      mstore\n        /* \"--CODEGEN--\":17066:17187   */\n      tag_371\n        /* \"--CODEGEN--\":17182:17186   */\n      dup2\n        /* \"--CODEGEN--\":17066:17187   */\n      jump(tag_319)\n    tag_371:\n        /* \"--CODEGEN--\":17058:17187   */\n      swap1\n      pop\n        /* \"--CODEGEN--\":16962:17197   */\n      swap2\n      swap1\n      pop\n      jump\n        /* \"--CODEGEN--\":17204:17591   */\n    tag_67:\n      0x0\n        /* \"--CODEGEN--\":17385:17387   */\n      0x20\n        /* \"--CODEGEN--\":17374:17383   */\n      dup3\n        /* \"--CODEGEN--\":17370:17388   */\n      add\n        /* \"--CODEGEN--\":17362:17388   */\n      swap1\n      pop\n        /* \"--CODEGEN--\":17435:17444   */\n      dup2\n        /* \"--CODEGEN--\":17429:17433   */\n      dup2\n        /* \"--CODEGEN--\":17425:17445   */\n      sub\n        /* \"--CODEGEN--\":17421:17422   */\n      0x0\n        /* \"--CODEGEN--\":17410:17419   */\n      dup4\n        /* \"--CODEGEN--\":17406:17423   */\n      add\n        /* \"--CODEGEN--\":17399:17446   */\n      mstore\n        /* \"--CODEGEN--\":17460:17581   */\n      tag_373\n        /* \"--CODEGEN--\":17576:17580   */\n      dup2\n        /* \"--CODEGEN--\":17460:17581   */\n      jump(tag_321)\n    tag_373:\n        /* \"--CODEGEN--\":17452:17581   */\n      swap1\n      pop\n        /* \"--CODEGEN--\":17356:17591   */\n      swap2\n      swap1\n      pop\n      jump\n        /* \"--CODEGEN--\":17598:17985   */\n    tag_63:\n      0x0\n        /* \"--CODEGEN--\":17779:17781   */\n      0x20\n        /* \"--CODEGEN--\":17768:17777   */\n      dup3\n        /* \"--CODEGEN--\":17764:17782   */\n      add\n        /* \"--CODEGEN--\":17756:17782   */\n      swap1\n      pop\n        /* \"--CODEGEN--\":17829:17838   */\n      dup2\n        /* \"--CODEGEN--\":17823:17827   */\n      dup2\n        /* \"--CODEGEN--\":17819:17839   */\n      sub\n        /* \"--CODEGEN--\":17815:17816   */\n      0x0\n        /* \"--CODEGEN--\":17804:17813   */\n      dup4\n        /* \"--CODEGEN--\":17800:17817   */\n      add\n        /* \"--CODEGEN--\":17793:17840   */\n      mstore\n        /* \"--CODEGEN--\":17854:17975   */\n      tag_375\n        /* \"--CODEGEN--\":17970:17974   */\n      dup2\n        /* \"--CODEGEN--\":17854:17975   */\n      jump(tag_323)\n    tag_375:\n        /* \"--CODEGEN--\":17846:17975   */\n      swap1\n      pop\n        /* \"--CODEGEN--\":17750:17985   */\n      swap2\n      swap1\n      pop\n      jump\n        /* \"--CODEGEN--\":17992:18379   */\n    tag_129:\n      0x0\n        /* \"--CODEGEN--\":18173:18175   */\n      0x20\n        /* \"--CODEGEN--\":18162:18171   */\n      dup3\n        /* \"--CODEGEN--\":18158:18176   */\n      add\n        /* \"--CODEGEN--\":18150:18176   */\n      swap1\n      pop\n        /* \"--CODEGEN--\":18223:18232   */\n      dup2\n        /* \"--CODEGEN--\":18217:18221   */\n      dup2\n        /* \"--CODEGEN--\":18213:18233   */\n      sub\n        /* \"--CODEGEN--\":18209:18210   */\n      0x0\n        /* \"--CODEGEN--\":18198:18207   */\n      dup4\n        /* \"--CODEGEN--\":18194:18211   */\n      add\n        /* \"--CODEGEN--\":18187:18234   */\n      mstore\n        /* \"--CODEGEN--\":18248:18369   */\n      tag_377\n        /* \"--CODEGEN--\":18364:18368   */\n      dup2\n        /* \"--CODEGEN--\":18248:18369   */\n      jump(tag_325)\n    tag_377:\n        /* \"--CODEGEN--\":18240:18369   */\n      swap1\n      pop\n        /* \"--CODEGEN--\":18144:18379   */\n      swap2\n      swap1\n      pop\n      jump\n        /* \"--CODEGEN--\":18386:18773   */\n    tag_59:\n      0x0\n        /* \"--CODEGEN--\":18567:18569   */\n      0x20\n        /* \"--CODEGEN--\":18556:18565   */\n      dup3\n        /* \"--CODEGEN--\":18552:18570   */\n      add\n        /* \"--CODEGEN--\":18544:18570   */\n      swap1\n      pop\n        /* \"--CODEGEN--\":18617:18626   */\n      dup2\n        /* \"--CODEGEN--\":18611:18615   */\n      dup2\n        /* \"--CODEGEN--\":18607:18627   */\n      sub\n        /* \"--CODEGEN--\":18603:18604   */\n      0x0\n        /* \"--CODEGEN--\":18592:18601   */\n      dup4\n        /* \"--CODEGEN--\":18588:18605   */\n      add\n        /* \"--CODEGEN--\":18581:18628   */\n      mstore\n        /* \"--CODEGEN--\":18642:18763   */\n      tag_379\n        /* \"--CODEGEN--\":18758:18762   */\n      dup2\n        /* \"--CODEGEN--\":18642:18763   */\n      jump(tag_327)\n    tag_379:\n        /* \"--CODEGEN--\":18634:18763   */\n      swap1\n      pop\n        /* \"--CODEGEN--\":18538:18773   */\n      swap2\n      swap1\n      pop\n      jump\n        /* \"--CODEGEN--\":18780:19167   */\n    tag_78:\n      0x0\n        /* \"--CODEGEN--\":18961:18963   */\n      0x20\n        /* \"--CODEGEN--\":18950:18959   */\n      dup3\n        /* \"--CODEGEN--\":18946:18964   */\n      add\n        /* \"--CODEGEN--\":18938:18964   */\n      swap1\n      pop\n        /* \"--CODEGEN--\":19011:19020   */\n      dup2\n        /* \"--CODEGEN--\":19005:19009   */\n      dup2\n        /* \"--CODEGEN--\":19001:19021   */\n      sub\n        /* \"--CODEGEN--\":18997:18998   */\n      0x0\n        /* \"--CODEGEN--\":18986:18995   */\n      dup4\n        /* \"--CODEGEN--\":18982:18999   */\n      add\n        /* \"--CODEGEN--\":18975:19022   */\n      mstore\n        /* \"--CODEGEN--\":19036:19157   */\n      tag_381\n        /* \"--CODEGEN--\":19152:19156   */\n      dup2\n        /* \"--CODEGEN--\":19036:19157   */\n      jump(tag_329)\n    tag_381:\n        /* \"--CODEGEN--\":19028:19157   */\n      swap1\n      pop\n        /* \"--CODEGEN--\":18932:19167   */\n      swap2\n      swap1\n      pop\n      jump\n        /* \"--CODEGEN--\":19174:19561   */\n    tag_96:\n      0x0\n        /* \"--CODEGEN--\":19355:19357   */\n      0x20\n        /* \"--CODEGEN--\":19344:19353   */\n      dup3\n        /* \"--CODEGEN--\":19340:19358   */\n      add\n        /* \"--CODEGEN--\":19332:19358   */\n      swap1\n      pop\n        /* \"--CODEGEN--\":19405:19414   */\n      dup2\n        /* \"--CODEGEN--\":19399:19403   */\n      dup2\n        /* \"--CODEGEN--\":19395:19415   */\n      sub\n        /* \"--CODEGEN--\":19391:19392   */\n      0x0\n        /* \"--CODEGEN--\":19380:19389   */\n      dup4\n        /* \"--CODEGEN--\":19376:19393   */\n      add\n        /* \"--CODEGEN--\":19369:19416   */\n      mstore\n        /* \"--CODEGEN--\":19430:19551   */\n      tag_383\n        /* \"--CODEGEN--\":19546:19550   */\n      dup2\n        /* \"--CODEGEN--\":19430:19551   */\n      jump(tag_331)\n    tag_383:\n        /* \"--CODEGEN--\":19422:19551   */\n      swap1\n      pop\n        /* \"--CODEGEN--\":19326:19561   */\n      swap2\n      swap1\n      pop\n      jump\n        /* \"--CODEGEN--\":19568:19955   */\n    tag_85:\n      0x0\n        /* \"--CODEGEN--\":19749:19751   */\n      0x20\n        /* \"--CODEGEN--\":19738:19747   */\n      dup3\n        /* \"--CODEGEN--\":19734:19752   */\n      add\n        /* \"--CODEGEN--\":19726:19752   */\n      swap1\n      pop\n        /* \"--CODEGEN--\":19799:19808   */\n      dup2\n        /* \"--CODEGEN--\":19793:19797   */\n      dup2\n        /* \"--CODEGEN--\":19789:19809   */\n      sub\n        /* \"--CODEGEN--\":19785:19786   */\n      0x0\n        /* \"--CODEGEN--\":19774:19783   */\n      dup4\n        /* \"--CODEGEN--\":19770:19787   */\n      add\n        /* \"--CODEGEN--\":19763:19810   */\n      mstore\n        /* \"--CODEGEN--\":19824:19945   */\n      tag_385\n        /* \"--CODEGEN--\":19940:19944   */\n      dup2\n        /* \"--CODEGEN--\":19824:19945   */\n      jump(tag_333)\n    tag_385:\n        /* \"--CODEGEN--\":19816:19945   */\n      swap1\n      pop\n        /* \"--CODEGEN--\":19720:19955   */\n      swap2\n      swap1\n      pop\n      jump\n        /* \"--CODEGEN--\":19962:20349   */\n    tag_141:\n      0x0\n        /* \"--CODEGEN--\":20143:20145   */\n      0x20\n        /* \"--CODEGEN--\":20132:20141   */\n      dup3\n        /* \"--CODEGEN--\":20128:20146   */\n      add\n        /* \"--CODEGEN--\":20120:20146   */\n      swap1\n      pop\n        /* \"--CODEGEN--\":20193:20202   */\n      dup2\n        /* \"--CODEGEN--\":20187:20191   */\n      dup2\n        /* \"--CODEGEN--\":20183:20203   */\n      sub\n        /* \"--CODEGEN--\":20179:20180   */\n      0x0\n        /* \"--CODEGEN--\":20168:20177   */\n      dup4\n        /* \"--CODEGEN--\":20164:20181   */\n      add\n        /* \"--CODEGEN--\":20157:20204   */\n      mstore\n        /* \"--CODEGEN--\":20218:20339   */\n      tag_387\n        /* \"--CODEGEN--\":20334:20338   */\n      dup2\n        /* \"--CODEGEN--\":20218:20339   */\n      jump(tag_335)\n    tag_387:\n        /* \"--CODEGEN--\":20210:20339   */\n      swap1\n      pop\n        /* \"--CODEGEN--\":20114:20349   */\n      swap2\n      swap1\n      pop\n      jump\n        /* \"--CODEGEN--\":20356:20743   */\n    tag_135:\n      0x0\n        /* \"--CODEGEN--\":20537:20539   */\n      0x20\n        /* \"--CODEGEN--\":20526:20535   */\n      dup3\n        /* \"--CODEGEN--\":20522:20540   */\n      add\n        /* \"--CODEGEN--\":20514:20540   */\n      swap1\n      pop\n        /* \"--CODEGEN--\":20587:20596   */\n      dup2\n        /* \"--CODEGEN--\":20581:20585   */\n      dup2\n        /* \"--CODEGEN--\":20577:20597   */\n      sub\n        /* \"--CODEGEN--\":20573:20574   */\n      0x0\n        /* \"--CODEGEN--\":20562:20571   */\n      dup4\n        /* \"--CODEGEN--\":20558:20575   */\n      add\n        /* \"--CODEGEN--\":20551:20598   */\n      mstore\n        /* \"--CODEGEN--\":20612:20733   */\n      tag_389\n        /* \"--CODEGEN--\":20728:20732   */\n      dup2\n        /* \"--CODEGEN--\":20612:20733   */\n      jump(tag_337)\n    tag_389:\n        /* \"--CODEGEN--\":20604:20733   */\n      swap1\n      pop\n        /* \"--CODEGEN--\":20508:20743   */\n      swap2\n      swap1\n      pop\n      jump\n        /* \"--CODEGEN--\":20750:21137   */\n    tag_107:\n      0x0\n        /* \"--CODEGEN--\":20931:20933   */\n      0x20\n        /* \"--CODEGEN--\":20920:20929   */\n      dup3\n        /* \"--CODEGEN--\":20916:20934   */\n      add\n        /* \"--CODEGEN--\":20908:20934   */\n      swap1\n      pop\n        /* \"--CODEGEN--\":20981:20990   */\n      dup2\n        /* \"--CODEGEN--\":20975:20979   */\n      dup2\n        /* \"--CODEGEN--\":20971:20991   */\n      sub\n        /* \"--CODEGEN--\":20967:20968   */\n      0x0\n        /* \"--CODEGEN--\":20956:20965   */\n      dup4\n        /* \"--CODEGEN--\":20952:20969   */\n      add\n        /* \"--CODEGEN--\":20945:20992   */\n      mstore\n        /* \"--CODEGEN--\":21006:21127   */\n      tag_391\n        /* \"--CODEGEN--\":21122:21126   */\n      dup2\n        /* \"--CODEGEN--\":21006:21127   */\n      jump(tag_339)\n    tag_391:\n        /* \"--CODEGEN--\":20998:21127   */\n      swap1\n      pop\n        /* \"--CODEGEN--\":20902:21137   */\n      swap2\n      swap1\n      pop\n      jump\n        /* \"--CODEGEN--\":21144:21531   */\n    tag_189:\n      0x0\n        /* \"--CODEGEN--\":21325:21327   */\n      0x20\n        /* \"--CODEGEN--\":21314:21323   */\n      dup3\n        /* \"--CODEGEN--\":21310:21328   */\n      add\n        /* \"--CODEGEN--\":21302:21328   */\n      swap1\n      pop\n        /* \"--CODEGEN--\":21375:21384   */\n      dup2\n        /* \"--CODEGEN--\":21369:21373   */\n      dup2\n        /* \"--CODEGEN--\":21365:21385   */\n      sub\n        /* \"--CODEGEN--\":21361:21362   */\n      0x0\n        /* \"--CODEGEN--\":21350:21359   */\n      dup4\n        /* \"--CODEGEN--\":21346:21363   */\n      add\n        /* \"--CODEGEN--\":21339:21386   */\n      mstore\n        /* \"--CODEGEN--\":21400:21521   */\n      tag_393\n        /* \"--CODEGEN--\":21516:21520   */\n      dup2\n        /* \"--CODEGEN--\":21400:21521   */\n      jump(tag_341)\n    tag_393:\n        /* \"--CODEGEN--\":21392:21521   */\n      swap1\n      pop\n        /* \"--CODEGEN--\":21296:21531   */\n      swap2\n      swap1\n      pop\n      jump\n        /* \"--CODEGEN--\":21538:21925   */\n    tag_227:\n      0x0\n        /* \"--CODEGEN--\":21719:21721   */\n      0x20\n        /* \"--CODEGEN--\":21708:21717   */\n      dup3\n        /* \"--CODEGEN--\":21704:21722   */\n      add\n        /* \"--CODEGEN--\":21696:21722   */\n      swap1\n      pop\n        /* \"--CODEGEN--\":21769:21778   */\n      dup2\n        /* \"--CODEGEN--\":21763:21767   */\n      dup2\n        /* \"--CODEGEN--\":21759:21779   */\n      sub\n        /* \"--CODEGEN--\":21755:21756   */\n      0x0\n        /* \"--CODEGEN--\":21744:21753   */\n      dup4\n        /* \"--CODEGEN--\":21740:21757   */\n      add\n        /* \"--CODEGEN--\":21733:21780   */\n      mstore\n        /* \"--CODEGEN--\":21794:21915   */\n      tag_395\n        /* \"--CODEGEN--\":21910:21914   */\n      dup2\n        /* \"--CODEGEN--\":21794:21915   */\n      jump(tag_343)\n    tag_395:\n        /* \"--CODEGEN--\":21786:21915   */\n      swap1\n      pop\n        /* \"--CODEGEN--\":21690:21925   */\n      swap2\n      swap1\n      pop\n      jump\n        /* \"--CODEGEN--\":21932:22319   */\n    tag_101:\n      0x0\n        /* \"--CODEGEN--\":22113:22115   */\n      0x20\n        /* \"--CODEGEN--\":22102:22111   */\n      dup3\n        /* \"--CODEGEN--\":22098:22116   */\n      add\n        /* \"--CODEGEN--\":22090:22116   */\n      swap1\n      pop\n        /* \"--CODEGEN--\":22163:22172   */\n      dup2\n        /* \"--CODEGEN--\":22157:22161   */\n      dup2\n        /* \"--CODEGEN--\":22153:22173   */\n      sub\n        /* \"--CODEGEN--\":22149:22150   */\n      0x0\n        /* \"--CODEGEN--\":22138:22147   */\n      dup4\n        /* \"--CODEGEN--\":22134:22151   */\n      add\n        /* \"--CODEGEN--\":22127:22174   */\n      mstore\n        /* \"--CODEGEN--\":22188:22309   */\n      tag_397\n        /* \"--CODEGEN--\":22304:22308   */\n      dup2\n        /* \"--CODEGEN--\":22188:22309   */\n      jump(tag_345)\n    tag_397:\n        /* \"--CODEGEN--\":22180:22309   */\n      swap1\n      pop\n        /* \"--CODEGEN--\":22084:22319   */\n      swap2\n      swap1\n      pop\n      jump\n        /* \"--CODEGEN--\":22326:22713   */\n    tag_55:\n      0x0\n        /* \"--CODEGEN--\":22507:22509   */\n      0x20\n        /* \"--CODEGEN--\":22496:22505   */\n      dup3\n        /* \"--CODEGEN--\":22492:22510   */\n      add\n        /* \"--CODEGEN--\":22484:22510   */\n      swap1\n      pop\n        /* \"--CODEGEN--\":22557:22566   */\n      dup2\n        /* \"--CODEGEN--\":22551:22555   */\n      dup2\n        /* \"--CODEGEN--\":22547:22567   */\n      sub\n        /* \"--CODEGEN--\":22543:22544   */\n      0x0\n        /* \"--CODEGEN--\":22532:22541   */\n      dup4\n        /* \"--CODEGEN--\":22528:22545   */\n      add\n        /* \"--CODEGEN--\":22521:22568   */\n      mstore\n        /* \"--CODEGEN--\":22582:22703   */\n      tag_399\n        /* \"--CODEGEN--\":22698:22702   */\n      dup2\n        /* \"--CODEGEN--\":22582:22703   */\n      jump(tag_347)\n    tag_399:\n        /* \"--CODEGEN--\":22574:22703   */\n      swap1\n      pop\n        /* \"--CODEGEN--\":22478:22713   */\n      swap2\n      swap1\n      pop\n      jump\n        /* \"--CODEGEN--\":22720:23107   */\n    tag_93:\n      0x0\n        /* \"--CODEGEN--\":22901:22903   */\n      0x20\n        /* \"--CODEGEN--\":22890:22899   */\n      dup3\n        /* \"--CODEGEN--\":22886:22904   */\n      add\n        /* \"--CODEGEN--\":22878:22904   */\n      swap1\n      pop\n        /* \"--CODEGEN--\":22951:22960   */\n      dup2\n        /* \"--CODEGEN--\":22945:22949   */\n      dup2\n        /* \"--CODEGEN--\":22941:22961   */\n      sub\n        /* \"--CODEGEN--\":22937:22938   */\n      0x0\n        /* \"--CODEGEN--\":22926:22935   */\n      dup4\n        /* \"--CODEGEN--\":22922:22939   */\n      add\n        /* \"--CODEGEN--\":22915:22962   */\n      mstore\n        /* \"--CODEGEN--\":22976:23097   */\n      tag_401\n        /* \"--CODEGEN--\":23092:23096   */\n      dup2\n        /* \"--CODEGEN--\":22976:23097   */\n      jump(tag_349)\n    tag_401:\n        /* \"--CODEGEN--\":22968:23097   */\n      swap1\n      pop\n        /* \"--CODEGEN--\":22872:23107   */\n      swap2\n      swap1\n      pop\n      jump\n        /* \"--CODEGEN--\":23114:23403   */\n    tag_12:\n      0x0\n        /* \"--CODEGEN--\":23270:23272   */\n      0x40\n        /* \"--CODEGEN--\":23259:23268   */\n      dup3\n        /* \"--CODEGEN--\":23255:23273   */\n      add\n        /* \"--CODEGEN--\":23247:23273   */\n      swap1\n      pop\n        /* \"--CODEGEN--\":23284:23393   */\n      tag_403\n        /* \"--CODEGEN--\":23390:23391   */\n      0x0\n        /* \"--CODEGEN--\":23379:23388   */\n      dup4\n        /* \"--CODEGEN--\":23375:23392   */\n      add\n        /* \"--CODEGEN--\":23366:23372   */\n      dup5\n        /* \"--CODEGEN--\":23284:23393   */\n      jump(tag_351)\n    tag_403:\n        /* \"--CODEGEN--\":23241:23403   */\n      swap3\n      swap2\n      pop\n      pop\n      jump\n        /* \"--CODEGEN--\":23410:23603   */\n    tag_32:\n      0x0\n        /* \"--CODEGEN--\":23518:23520   */\n      0x20\n        /* \"--CODEGEN--\":23507:23516   */\n      dup3\n        /* \"--CODEGEN--\":23503:23521   */\n      add\n        /* \"--CODEGEN--\":23495:23521   */\n      swap1\n      pop\n        /* \"--CODEGEN--\":23532:23593   */\n      tag_405\n        /* \"--CODEGEN--\":23590:23591   */\n      0x0\n        /* \"--CODEGEN--\":23579:23588   */\n      dup4\n        /* \"--CODEGEN--\":23575:23592   */\n      add\n        /* \"--CODEGEN--\":23566:23572   */\n      dup5\n        /* \"--CODEGEN--\":23532:23593   */\n      jump(tag_353)\n    tag_405:\n        /* \"--CODEGEN--\":23489:23603   */\n      swap3\n      swap2\n      pop\n      pop\n      jump\n        /* \"--CODEGEN--\":23610:23866   */\n    tag_244:\n      0x0\n        /* \"--CODEGEN--\":23672:23674   */\n      0x40\n        /* \"--CODEGEN--\":23666:23675   */\n      mload\n        /* \"--CODEGEN--\":23656:23675   */\n      swap1\n      pop\n        /* \"--CODEGEN--\":23710:23714   */\n      dup2\n        /* \"--CODEGEN--\":23702:23708   */\n      dup2\n        /* \"--CODEGEN--\":23698:23715   */\n      add\n        /* \"--CODEGEN--\":23809:23815   */\n      dup2\n        /* \"--CODEGEN--\":23797:23807   */\n      dup2\n        /* \"--CODEGEN--\":23794:23816   */\n      lt\n        /* \"--CODEGEN--\":23773:23791   */\n      0xffffffffffffffff\n        /* \"--CODEGEN--\":23761:23771   */\n      dup3\n        /* \"--CODEGEN--\":23758:23792   */\n      gt\n        /* \"--CODEGEN--\":23755:23817   */\n      or\n        /* \"--CODEGEN--\":23752:23754   */\n      iszero\n      tag_407\n      jumpi\n        /* \"--CODEGEN--\":23830:23831   */\n      0x0\n        /* \"--CODEGEN--\":23827:23828   */\n      dup1\n        /* \"--CODEGEN--\":23820:23832   */\n      revert\n        /* \"--CODEGEN--\":23752:23754   */\n    tag_407:\n        /* \"--CODEGEN--\":23850:23860   */\n      dup1\n        /* \"--CODEGEN--\":23846:23848   */\n      0x40\n        /* \"--CODEGEN--\":23839:23861   */\n      mstore\n        /* \"--CODEGEN--\":23650:23866   */\n      pop\n      swap2\n      swap1\n      pop\n      jump\n        /* \"--CODEGEN--\":23873:24102   */\n    tag_243:\n      0x0\n        /* \"--CODEGEN--\":24026:24044   */\n      0xffffffffffffffff\n        /* \"--CODEGEN--\":24018:24024   */\n      dup3\n        /* \"--CODEGEN--\":24015:24045   */\n      gt\n        /* \"--CODEGEN--\":24012:24014   */\n      iszero\n      tag_409\n      jumpi\n        /* \"--CODEGEN--\":24058:24059   */\n      0x0\n        /* \"--CODEGEN--\":24055:24056   */\n      dup1\n        /* \"--CODEGEN--\":24048:24060   */\n      revert\n        /* \"--CODEGEN--\":24012:24014   */\n    tag_409:\n        /* \"--CODEGEN--\":24087:24091   */\n      0x20\n        /* \"--CODEGEN--\":24079:24085   */\n      dup3\n        /* \"--CODEGEN--\":24075:24092   */\n      mul\n        /* \"--CODEGEN--\":24067:24092   */\n      swap1\n      pop\n        /* \"--CODEGEN--\":23949:24102   */\n      swap2\n      swap1\n      pop\n      jump\n        /* \"--CODEGEN--\":24109:24367   */\n    tag_256:\n      0x0\n        /* \"--CODEGEN--\":24268:24286   */\n      0xffffffffffffffff\n        /* \"--CODEGEN--\":24260:24266   */\n      dup3\n        /* \"--CODEGEN--\":24257:24287   */\n      gt\n        /* \"--CODEGEN--\":24254:24256   */\n      iszero\n      tag_411\n      jumpi\n        /* \"--CODEGEN--\":24300:24301   */\n      0x0\n        /* \"--CODEGEN--\":24297:24298   */\n      dup1\n        /* \"--CODEGEN--\":24290:24302   */\n      revert\n        /* \"--CODEGEN--\":24254:24256   */\n    tag_411:\n        /* \"--CODEGEN--\":24329:24333   */\n      0x20\n        /* \"--CODEGEN--\":24321:24327   */\n      dup3\n        /* \"--CODEGEN--\":24317:24334   */\n      mul\n        /* \"--CODEGEN--\":24309:24334   */\n      swap1\n      pop\n        /* \"--CODEGEN--\":24357:24361   */\n      0x20\n        /* \"--CODEGEN--\":24351:24355   */\n      dup2\n        /* \"--CODEGEN--\":24347:24362   */\n      add\n        /* \"--CODEGEN--\":24339:24362   */\n      swap1\n      pop\n        /* \"--CODEGEN--\":24191:24367   */\n      swap2\n      swap1\n      pop\n      jump\n        /* \"--CODEGEN--\":24374:24466   */\n    tag_307:\n      0x0\n        /* \"--CODEGEN--\":24454:24459   */\n      dup2\n        /* \"--CODEGEN--\":24447:24460   */\n      iszero\n        /* \"--CODEGEN--\":24440:24461   */\n      iszero\n        /* \"--CODEGEN--\":24429:24461   */\n      swap1\n      pop\n        /* \"--CODEGEN--\":24423:24466   */\n      swap2\n      swap1\n      pop\n      jump\n        /* \"--CODEGEN--\":24473:24552   */\n    tag_357:\n      0x0\n        /* \"--CODEGEN--\":24542:24547   */\n      dup2\n        /* \"--CODEGEN--\":24531:24547   */\n      swap1\n      pop\n        /* \"--CODEGEN--\":24525:24552   */\n      swap2\n      swap1\n      pop\n      jump\n        /* \"--CODEGEN--\":24559:24638   */\n    tag_276:\n      0x0\n        /* \"--CODEGEN--\":24628:24633   */\n      dup2\n        /* \"--CODEGEN--\":24617:24633   */\n      swap1\n      pop\n        /* \"--CODEGEN--\":24611:24638   */\n      swap2\n      swap1\n      pop\n      jump\n\n    auxdata: 0xa265627a7a72305820a8b8af813f5b89e9ebaed4e5c746f7a287759febd9d10f56956b7dc9ed6116ef6c6578706572696d656e74616cf50037\n}\n",
				"bytecode": {
					"linkReferences": {},
					"object": "608060405261102060405190810160405280600181526020017f1bf32ccf9d8606f2a32624586c10380aa3d12ecd1f0b53f277df6e74c2f8652e81526020017f0e401b101716cb5ef95e29e150c1829a179e9d89167205f23593fb8161d085e881526020017f22f09c6d02082455b418cabcaed2f8113ffcba593c346f30d07236308baf24c981526020017f24552bc00dda4d440e1e35ca9550675fdb5e422f6e12c52dfdceb516f4bbbc5b81526020017f1a84f51d9cb05c0db0980d32ca62f20f7bc4e554360a38f2bb0abcf399b2ece181526020017f2ac6d41b3693a672fe527dc1d035c5c6a597be706d054f9f4fbbcc357257b76481526020017f1570df0052502e9249110efe0d85d3292947918851d9c4b34906ea8a73d9672281526020017f2386350d374d88f78cf0ef5ca5777ecb83a5a212eaa69cd548ccc7cfc80c367681526020017f208605b0745f360d5dd002858ee8ea2d5a25dc49b813598036b80a37f6db710e81526020017f27195ac6c913159058be75f4375a6f961b52a835957e91978739257c8e5619e281526020017f22059de91334bc1f7e6655ec5121c2404dafc569532786053c0201792c1f6e4e81526020017f1e0d393cdaeb633260281cda7418605605f7e4bfff89253e6cac0112326af21381526020017f2bdfc801ecc7f983de4dda8ac3c2075f80f213239d6ecbeb79f747aae080b80781526020017f16ac41a2e17d188680abfa742f3cdc0fd5e6809a8dc2f1cafa4cf7394019ef8481526020017f1cc81ba066276c0443b0132009a93a4ca2c2a8075c32d2c14a51f200b567666481526020017f11fe53a734fd48ac9417cad9a5c66cffd10c5a128214b703096b85f2bb18b22c81526020017f238b4bb70fd225fc36a4891eb6dbaee0f3c796015c63c8046a7ca92e24200e4c81526020017f0f00ce493a4cb4f877cf7ccabb82b70489e13a1ac9e09e95818b5ada65a9b17d81526020017f0ff956a105a57dc1729ba78baeeefcaa5ab3570f7597a0c5247f71c96306594281526020017f29af6597a5d726baba2ba5dd507007fc439dfb891a92a9b2e7d72b33007dc7d281526020017f119cfc13c92f5cc18fccdd5135fdef1524c304f1ddadfcbb576dca340d61a9bf81526020017f03a622b55ee067a5690d9d68e9ba6395daa93038e79db4d016db89e043e7ec3181526020017f255a1b1192634ef28388ca22f39112446ba8918cade9a8a3c3486382fddb263b81526020017f14cab6382b88a5c74e478258b8a41d93dc6d34e062c0d03af106233ea4b4260881526020017f13cb22e8c6b65dbf32e8f038c03ae1c77aa44c1424b3f876d8ca3e195e6e7d0781526020017f067acbdc712d30c05b5fa85bd5b18418c4a17804f15e71e2e03ebb51476965d181526020017f29e4d65b0a80bd6ebf2cd78148e9ed379c11c583f7050da7d53031a5afe1cc2481526020017f051ec195df86c4f79cfe7ba118d3b31bcc957b18023c3b967449e213452a988e81526020017f17b09046f4253a9f49b346a94fad379b0a08b4bdaf9315b76c6aa6c83bfdc41e81526020017f12189be11dc6defdf120cad99f984659604633197c304cd68934a8b9d941871681526020017f03de5388417ae676abaa014e9b61dac75d737d5f2519a4894bef50ed4283d6db81526020017f1dc7d8edc296a75939d5d6131cb4dd78df1d0ae603227ffbc86f03dd052668d181526020017ed5226e881e867590fbd5ce8ee70703072215f4c6f560748482dd006a05522881526020017f1438dfb6a676d856ed9dbb6fdddd0ed53540c53e8cdd6adef249c64ae810413481526020017f25048084e9d15cd722c54569538fb135e46dfcf4f0cbcf68bed0ff38b0a51e6e81526020017f1d3048a26337caf01322539fdb9fef9b3a2fc7497ffedf46f4ed530ac7616c2281526020017f284f096194eb7e8a8af689ebef51075848be3bbece0c55371ccb872743398ee281526020017f09c50fa67d6b394ef3843ac64c8b908e3b491730e8e05f58f42b7295de47ca2281526020017f01724b4873ad749824e6ffffd4f4796ed83ccef2b56458aa8fc4127944cb5d6081526020017f067a31423958a5665e44731f9abb5654fda4b524b06bb1167ba130dc42c2f56581526020017f09406bcc0dc3310263338e1b39d29a921906a9d8f911f5f57cc7c436ab98c5d081526020017f2cb5f29fa00afb0a1fce915993d3e592d11a706a6b71926b743d15faace86e7881526020017f237b439d526a32b79b12cc0524b94bac2241397cc1e7a6a62bf6cc00f57103c481526020017f020e3b46c669fac7e852717f5092fa12dc6bbbe11b5e143d04d3c2e7eda41d2981526020017f2ba692b2f2e0f6402dac0c5be6f305dd5b3f4b3dba8e9c574d877f5c1ed3e89981526020017f24bcfd502109ee384cfe8189ae20eb5ccbaf8a72bf76de71019c4ca22980654a81526020017f113df360ac29c8e6d81e3a91f57a92387efd605391be69f7a5414fb4d53a74a481526020017f1c29824113afcb355d26c9fad3d23013a7ee6f186b5e7b3b4a8061a5fd4286d681526020017f111c5a9fe6f2a94e2cb45bad0cd2fb352ccd7d2e483118bb95e5b786e4c66f7581526020017f18043c88634f5ac8385bf4e8b2da2d354c3545bac100b1bfb81c304d6cb0397c81526020017f10c8cdd188a633c04c451a01abc8ce5c17c33b4cf8688b15e9ae1591b65d838581526020017f01d360655fd4a6416a1d288d92571ac1a3833cf79c2c741af54f2f376322203c81526020017f13eedad3278e63b153c049377742815820812e5a539209f94045f632332ee6c581526020017f03a01eb93154c8a50d42ebc9201b6edacbd60e08808a9b2653118a1f3178a7d981526020017f07a03bd02d9c285ae395930aaffad4e586cd430ae4a7a0a4f9280f4d0efea89481526020017f17e331d2c3bf9882bfdf3d3ffeb53496f3f354d5437cc244b51691de2ea67d5b81526020017f26ccfa928dbb6a02f9a2533d1459bbddba5df18b18fbbec979af5ccd8a62187981526020017f1b896d7b5990250d6d4276064c6dd153946d1d41e304631671dd0710612adc3981526020017f082396adad72dc3c6afbe7f8043c3eefdd95d73ca09da70927355093ef2b2f1881526020017f1c524772146c5ad05532b70a1722ec8fdfae97af29fed1c53f3f45062f7db3fe81526020017f0233f98467d8ab85fecf55b97c06e036b3385108863d337b442fe8cae64507b881526020017f0f833d8e6e8110105f6a8bd5a72d1af973a4cff4e68c52efce5a2dbdfbec67c481526020017f195ae5333da2eb06efa9efe5e95149a163682bef6e2c7130f67ae97de868385081526020017f2005bc6dda1277e09b262034501bb1e04812bc1feba3ac019c8d7ea5c0a527cb81526020017f1152eb0ec582c5957a937dadc8035146e911b2cf350ed02a50002e55c0f2eb8681526020017f233ae5272b87840b5cce1ec342bd68768c6c93626a46034ab6ed5c9c293b6dd281526020017f11b4469306e7ccdeacc442dfa17980e8b735535988c8ba0790cffdfcc110d68681526020017f1da2fa66a94f0b086cee7bccfe2aebcaced9de148a73330d8452626cd63ab8bf81526020017f1718aee5698cbcec1cf245d0b54c8ff64de66182bb5b1abae5eb647e2e4dd1ce81526020017f2db11ae2cea66a9ae18bbc7411d39e323fcb878ab84f1364652969ab2b2990c881526020017f130fcf009bd75cf8550b11e040562e23ffd932c2aabda931f90dd90231b151bc81526020017f07bdcac71534013dcdcf3853c5d61635cbaaf01b936fb3e331470eda88fb474c81526020017f0d84ac8954984fe8e238358a793c6ce05a6eb6407601ade13b7b2099b86364c581526020017f240c99d5e3d97c4e8cce8788f19fbff529d8d528eb98095cb94f0534cc3d0ca481526020017f2493baeb15350d0ccd7dc8db251e96279a767f208f6125d600612c3da3c4066881526020017f1c88246299d7e4589101f139a4b8ed1b17253aa61550ec84a3e577e892d0451d81526020017f22215e2ea1866058222250eb6b8ecb052bb21524cf524bfdd40a4168672c04c381526020017f27f1d77697a582d4a35c3ac881694a77f29106aa1367b170df71c8ac28445c8881526020017f198422688ec5c3c4a35ebf4d256e78080716e93c44b865eb0231afc551f7573f81526020017f048d1ef78f62efae6dc64663759196d2e921e420c18e945567776469086de64481526020017f0f8a03adc5e10c524103ac8185d241b18dc9a45996f0b904a8589087e404902381526020017f0d69dc10cfe158ff1c84ccd6d63c834129ee93162423aaccc127cd63a724069c81526020017f297d6aa2cbb7996148a05c5631d645c2a6c2eedcecb8ad0873087d0c086ae81981526020017f112233556f412b1ed8397cf2455aeb8e8e3de5ccfcc5c9d783d41210db8d3cca81526020017f1f63ef47ff7178d32cebcb56cc5223dfac3b13c48210f3e3d149ceef87207ebc81526020017f16216fb5fa0bd7a8ffd9b32c967f7d555e33cb98449e41a08dab4f7c04fa875d81526020017f0dcc507d62fd583f3059a11f59b2593df7f3416bc4a86fc343cfc6e8d37ae28481526020017f2e6f2bc8daf0b0edbece8373a6a579e4ea1c0bded0bed7705c2d7b869c4410c681526020017f22dd6c713cbcddb5716fe9ef8097e545cc96f44fc064c0481cff0eb36030f37481526020017e89ca7a5894a1402f42ac610c68de090c11920db3be434a3da6dc50c398653d81526020017f2d319043e517c197a9ff8963d3399f4bc74bbb055977c9808e75ed644c5bc2af81526020017f1c38a11baf9e41cfb444f05ac75790abfd65a917f6c259ab9010c4c87fdcf54781526020017f2ff127ee998bd98b2adbcc7bcf174191182f7c6a621ac46910bf4867347edc1481526020017f11b6a7410e205a57e2536f0977a17e85e5f941b7adc15d111c0737984a278cd781526020017f151e70f61c2b5c0165b62a9cd648b6b49d9733b07fe02df5ae4deaf77efe56c881526020017f22ba4329810639d735b295a9e8648d7e34851c135e6a94e742597d0dc99093dd81526020017f2151d31159162e67bd628085c9947aec27b1aa2135e81943b28a0083b4bcb68d81526020017f0c76bbec76cb006ccd76a5503448dcc7c7ae80f890df4e63df07c47c16bc9a6981526020017f1d6ceda71a17d701e3ebbcbb51f21289c6d358e0453c4991a67c1baf37c41fc981526020017f118bda3788e835dff55cbbe4227e33e0c16df832a5086a9e0e0af1d9920fa07281526020017f20f612096d0e9ee8f6afa12c4d30c3de302e46fbea8452b092cb2a14a51f4b7881526020017f0ef0668a61b2407e138d2db6bece20a4d1d4748efb39c2f6a76eb7090cf5a24d81526020017f1c68d162f18f5c326c505f15f6710b842cff82cc125d4cf4ce41d2adc3c41ede81526020017f15092b3f5c6e118cc6518dbd78130c6bf633829411c5c8e93a33c8f8b0f2f24f81526020017f2088f01e02d62d0b37a859a657e42032a5c9a189c790978877bbc789e01df35781526020017f124c2f64042235e28c192180c0bce808183cde7aec26ce2a60bcab2ef2de1b8b81526020017f02429f148e681404783fb448d28d5b23777856568e5cfbab16902c3d825d706e81526020017f1863f247dea2bc3872f3b6786d7db0d99810a7e1237b6f607bd18c8701b700b481526020017f1e73726594d8b4d592039f71679896d41761d0e346c982310c736b96fd2a3b6981526020017f11734c5f7f1175c112e9eae54076df4ed7348c938487a57fd0c1c461f103d8ca81526020017f2257ba20d6d1db7839cd8d0e72f64564fde0688991add50450289471a4f0fa3781526020017f1cdac5b7698f7878f24bc60e3e4df9030a18204f73e3a135e5b45302a359805a81526020017f0d2108f8f26a1a1aef9c31f81632208f34e442654a2093e2a3acbdd1da7ec02481526020017f2bc97f19326fc924fcda4fe0ec205f66165ae0f39b8a34cdfc2deea3835f56f381526020017f1c711fea1f593f068fc1a8965548f6b4da36f248914b5fda56e97cce9b0b2ec581526020017f1b1b24ac8aa9f3229f75eccb7d16b86da8563bad2cda601def5c9080452d2a4781526020017f2e9b3ce02d01bb443a4315e4de7e1388fa90ec63200a62e07f36137c68d8212d81526020017f2fb08041e23b4f9fa04d0d0cfa461f1e871763cce3d6b71252fe7d417a75cc1881526020017e800cb48d12d98948dbcef6c053a1ef262d7cd093dd847308e0313c7acd6be781526020017f2e287d2a4ef6aca672590ed58686c78e91395f2101d7495ba8c2541ff8a67cce81526020017f144a442e4c494f9c9bbae7d39fb87df6c4f3155c77ef257cb5054097cc08219781526020017f3035d908ecb10844885144e69e5d3fbe5d29748d1a4f886b0bb052b737a342e081526020017f24035c69ec713397270c63bed7d4d3968e2aa671e5518e4ae46b0529df5b361d81526020017f26f733617e30cc35b2a565d321bb40b4f120b1097f3f28100987e2e235c6be8581526020017f21aac9d466cbf97709887d44fdc0189c6757ebd2228795f23f700dfd5f45f80581526020017f07491ccd643e4a420081be79b89273efc11a6c07406ec0047971df979f4b711b81526020017f0c44669879d7d3a0d5fece9db8c027b9009fdbeb9b9c0330a5c2ca74a8154dff81526020017f2ca6b5fb21a082dde700929ef7cbd301d9330a502153f3e3f9b80f831479923081525060009060816200132592919062002a1f565b5061102060405190810160405280600281526020017f2d5cba37de100449b4a704cf146a4e1fa4e35a775b0978dac606af22ee086c1481526020017f1d1766d6eb8ad6899aa76215fbc72c7c815cdf4fa5b94824b214d33a8144164781526020017f3047fa8d988dd0ffb58a3d397c05febc29adc880fa1740d4ba37392593eab87d81526020017f149769b4009ba286c3bf68b9ef89ea3df3722c0f2c02a7e733286671bb340e1781526020017f1a47c465665f82ab95677a0e38e0b5c5aa3e79e9eff490941b8c426623822da081526020017f1dc22078116b8ed7fd2e5f257fabb07309522d378318f5b85413ca6f96b25e3281526020017f2e80a8e528e16d94f043fe10f07f41b68db811edea59b24c598f3427f8c72aeb81526020017f06a10cd14a0f266976fd8979b6e28278d9611df51ffef4f91388142aa90e35ee81526020017f26652fc097af0b4d90f17396336cfc2b79a1d6884bb8106198e47a4adcf7336a81526020017f27a212a6246a5b985ee7053be49efc820ba3755704e4eeff72c910ba6bf569c681526020017f1e314e6119e215d2ab5169ae96675810519d002cb38e723810ac55fc583c781c81526020017f0b1ada68373f226d74a1ca1d7639d9a4e1abbe59150c742ff9af5e5486dd3f1b81526020017f12aee19f60cdd2f7a7200ced5e87d38a834dc9e629cb449ead29269f99fd3d0e81526020017f1690b5e0e2541f332fc381762d43d500ed8b07f89b653ac604b99f53765833e281526020017f19ebb23a6a6ce9a3dd172ad0d2e4d24c4731c5d106946237ceda98f15dcf159281526020017f11d516516d35854d291e2d6f8af84d044c43d3c8b2024fc6e27862bf1230e63a81526020017f20e4336d023d9ccecf62430ef5ec71d25afbe398ceaea9f25756fd78d1fb283581526020017f0d1c520eb24243a6e668a3ef57b0d73f8ecc310c2d91d7a8b44690f05c63c87381526020017f2760789df6ed04a45bb374f700a984790661d72e0b3ec10da401ba737a1c35e781526020017f017ae69c9f9d9f62d9be2bba4bcac172adb630378c7aa702bf93ce64d300775381526020017f1e8be147b24481e83beabb209e37f1414ac0f6163c44319a65b82c0ddda82cda81526020017f08d2d8d6685ac4d7cb56f03e17679fe4b5aab0953f9f1ccd67b509a57ee511fb81526020017f157bdad8593045c65705e274bb9d0559a7e3331f90e5b86f4f100c61da9ad3b581526020017f2ce8ffad132cdad32966587f2bce541451754a53b5a212fb7cfdf70aef39ff3c81526020017f2d822f93cc4bd0eab8996734cee63ecfaf2cfe76de6d247579dd2c66fee532b981526020017f07c038c058f7b6e8fff220758849f8ac5e5975ef541e07c22c7f43456c01229581526020017f2427978f5e9472976b5eaa97bbf6b2755450fbb5354181dfd6e71e15e9e2ffbe81526020017f1d599933e905c6ecaec12316efe9de0f838202f322798af444b404a50757546581526020017f11b815533a46bf46479315a3968e8ddeefb559f2768844e7b8d4a09e29ae85bf81526020017f0f8e56aa69115451d882f6bd581a1b14b063c25bac3a494713b9ec507e5a8a8c81526020017f0a67970ad52392001ec0ccfc6c63176401c03f428628e75624d816e2179d5ce581526020017f0a1f8809f23f000712329eeebbdaf002f063678a131860966dae22a61252869881526020017f15e19f0b4b73b2d5d81902612592f9639b84b8c649299194c54e7eef59bd495c81526020017f12930fb964361543c19d8e5ae6047e6758c004874254b62a225ef7d3b70bed4181526020017f1f579ad5a828d4befb75b758879a53e5c5b485c5eab0c0eaa0417088b094bf2081526020017f1cb5f8d5d179db5994269371fbb59a132e41e283e80f3204487b5afb7d30ffb481526020017f25a3d89782f2ea4487bf4e2c9d8d00bd5d081b26130d273b300e5f06590b171881526020017f1c0bc9a8e12f0225e0a15b7050d9093ebf9c8d10a7dddc21051c005c50de88c281526020017f04c351362d1ba5aaa5639af13c9ca3ae3a9452519ece8e9cd1a04cfd7856b2f681526020017f1f5eb724253d5f59b74fd1dca99c4b2f759f421571d22ec9902c0d4459df1e6f81526020017e45d1de9fa72244143f328dfb89f9652b542109082d487cb347b948dc31060581526020017f2f187d4be3dd9f05a6f462a6aa2381f53fb11c668247a72af37d9bed25e1072181526020017f0f9073543658e3f5fcfb8aa7df76429d65ca79946fb66e1d7290a2d038da9c7281526020017f149aa20ce146dbe877edefc4ec10d088eb1f92c7a8873c7b56772e2da887f01081526020017f0ceae61a535d7bc905c6203eb8e421c2ba3addf6d5bb739822ce2353c748340f81526020017f1b145d1d7d659a7f23a96e0d52b8ba61624484b56b66b847bfc6a884b3acaafe81526020017f25f29b1bae3b366e2398abb7571157b5d52343ef903d4aa82fa76a9c041e923b81526020017f0d0d8a2b608a7c11e5deaacbb38581ba9f5f093e0a394aa83de5d45aa224ff5f81526020017f0a43b44970fa36ddb115c385df350f48706d77f2641e17b1ec8eb8fe6ea86dc081526020017f19f16b73cd232170391b5c09654cf40011204c263b253b487714527a4e3d133181526020017f0872d0852a8efc8fe2a31192189c431a7d4425887c0391f91423d5e3ea47d87381526020017eb717eb019c15daf8c2ebf5a3a901197b3955c5236118feb9aadaa3bf84206d81526020017f291c4e7df058a59bfd82e83cd3bffb9a2fd72dbbea166fd6982ef1057eafd2c881526020017f015a235802a944021064fc6284132c366ad31bbe9558123bdd6c2d078a8c8e1e81526020017f22a73d8429ea8b36b88df533c5376b04cf3da473bf20da9e23feed2f27beb95981526020017f2d5711ed390df1fa1e87f2990b178b35b7e12718f24c57a051f6682b5cae935881526020017f15019cab7966fed1d524a74a25ede548e4056efcf9e0f9eb18ade4c6e300b4d781526020017f24b2e6f1d24d364908496c72266ffa3d217e563083b3fc938824c183ca2c823681526020017f1d039cfa26ad29bef82e74a1da3634e5430128143022d7e1a2889d4cdbaca7bc81526020017f303b4543b0ee763a4613004fa96206297a17f2c5eac19f53590f08d31b5a97f481526020017f224bf61e71a3ee0327eb5af20b1f2718fd1c122bde7d5bce8d6ced5cb17da20e81526020017f290cae27dbe937b9d85b5e615f8c41d43d6cb9f6ac5a3eb3b6ea5ca46f918fe981526020017f2a254e8bcfc6e7c251e66c109f246aba1ac47ed20c618cd5e56d3b77078bfb3481526020017f1f4e246aefa67f3b2680af0cf06bca2d0f6601c8bcbb7db5ea765a1cdfeb25a681526020017f038f0a9aaf22cd265ad2faf248ad858a6b72658b4bb58a87deafe19580aedb4781526020017f0c20195898635dcd0baba574bdf883459f85d98e54ec45693a82ed8a941b37ca81526020017f234bd122b666c98734e0938cc35698596cd3a12ce346fa206cfc54926878d7a781526020017f1f2120194205cb2147fcfaf8be22edb6001ff7fe2bd5216024644d172bbb214281526020017efea1899d321bd5328eedffaad5cf47d7bdf8201e01e9dba140050ec205d0bb81526020017f11fc36dee7eea4ec379423863a4009e79b57837de3c776c8e376f40b74f45bff81526020017f24758ba34ce9b0f6614e5172cf7be92ef4907bbd4df9c65c78be37f764febdb881526020017f0d0584624f800ea25e12064a54ab7ff764cabd521ee9d85a379599ccacb1d05081526020017f279e037ed29fe73e29523201a3da7ba8461a2a125ea339b5d419f76187c5daa781526020017f15b4f4fe52ac379489a0c322d04881582f8d91ec59df1d2b551f5959f4f73ab481526020017f0148c7412573d5bb7042f7aab20805d8bb323eab5780b7d62d20d2cc43d3a05681526020017f0f3735f595d4b7c49efdd21826c0c04418e293f8977f8452c3b5290517dc5f4681526020017f0325b26ab0d50baa0ae526a62085a9d964db03c45a5925a33af35f975212261a81526020017f28f2718fdf99ba20651857bfe40763a7fdeb0bf51c95c86228e12971dcba248881526020017f0734b877472354a0ecd5f2a0cc586743b24fa0e62f73fe30e7e03aba4a6539ad81526020017f04043bac7985131e179843002ddd2bb677007727c1afcfe0482b3768dd651ec681526020017f0cadf7f6fed14559a71c8120a94986dd15233aa7cbe1833e4a64d1538f7c754581526020017f288a32405234a5d5808ebdd26216cc3b037c456458cbbc04624245f884cf31ea81526020017f2322b693732bcd38a5bc287595c91124243f6e3bfd2589986c82d998d528608981526020017f12424a6422286c73f44ca4ef472c023ddafa71ca4afff44a188141058980f1d381526020017f12382b745a02b93c31584e102aeb09d8bd471d33d0acec21d6e4478e5ae2ad0581526020017f10a5e23fa88595f036718db0940504de24ff70aa93b3113612525b700c730a7981526020017f21d0da6f54a12fa3590f970017c0cf8314ac5a5f3a31d34ebe504baf5267399381526020017f0c5fdeef3b5064d8fb28bdb67bf4cf82ccdb21ab8cc3f48dbde13e2a779086cb81526020017f07350301a21ba4c6ed6f0b24ddfef0641a270be7271942c4bc5f82078333a4e481526020017f107d51fca8445f86c44d3148589c7e829b9e89d4013b3ea0d8cc076935b2029d81526020017f2d0c96327fa1f2a9ab6afecfb7494c60a3345b76c709452624286ebb6ba3422581526020017f282d020250c192491494dc757314f9b6f046e9a084236f770dd5cea0d8261c7f81526020017f1f1d45d529d2acd871b7dc98a387ffd9c0b172da7a3e6bd4b70cb70e297f4a3781526020017f1c5f400a637a690b95fcbefd0a201ad35963f30da3ed3204be68fe25257194d381526020017f06ec73abe97909b53e2f3b13c04a5ead3c79a5c5fd1bb1028dee3af44e894a7681526020017f173803ec88cb821831bf5b4e95ddb46f048d4f23ffc09216eafb8fb5157dde0b81526020017f2050a6d610fd945c5c1a93058981803b086b545e7f406185c1b547b9a55d752e81526020017f1cfae703a5336d3624c52aa816b6229ff3ea26e9e0b888a05471d2cc2ab832f981526020017e920238b751931d557cf04214484958ef1f31248cb424e0f0fb0ac0dd78d11381526020017f19460b7b47698fcce9a08b0f5c9201993a9aa36e09e4415c9f2269a418ba63f781526020017f0b32bdbd0a569fd886837697c61fc23a3b6b631959dfa787b50271b249cf62ba81526020017f27eb8f3f578d0f86145d16e7464119d75faff0149c8972df63e45e3aa9d9beef81526020017f27f799f1ce2a5ed1e1669bee620eab54a6895f7e06c8742be0b87af49db7122781526020017f195bab2ce40c27c5553815a87d887c5dff3af38b5c45d5dc18f39722dd5f1f8381526020017f1c2cafd5c56f4be8a93e06eec3c5fb723d8bfbb64b536caf13d6ad5873277a8581526020017f01aea92ca3e59ff975a3913e6ceb5205985617b020f8df64611a3b87b17791cb81526020017f0f51d61e0665150867a59afb240b2065427624b17beccb46da3f637262fb3faa81526020017f1f23e3e87c40f7ba850ed06bc775dc9e798d928e14e8e35a2066337f8b85261b81526020017f1b296b0c2ca61a7693fcf69c7b5f7483277c4d1078cd5f19df12f2f494fc991881526020017f11d4f84493b1bd7f9fb3463b1f1211fae055700346a966bdc25dcbf8070c4ded81526020017f03591b124a5100f4ab1d04f1c8d6daacdd598c0a7d1cfc2d891dcdf305018f7281526020017f0286d0964f98554397ed0378ac62009e57ad0ef010d6c9c14a66cbe5973ebb8d81526020017f2915be98166b8684f23bfe4d5db880d3094fc6f5a45c77fc604b17b0be09f71e81526020017f05842457076bb32999bb4f18a38a59d9e738aa1a41364d11be8ae28ea446cb5881526020017f0a09416f7bf18562a68d5273973eb673d032695ae1e20a9db051c74cf72711a881526020017f09fe21bf0de83b7359af8972a1a30534e5e1de75a61f29da1ea3f9128f26a39281526020017f0dd4fe56a197133b53fec74610feb568826781996459722fec0995a70375a3b881526020017f2d289e6c918e44cfd81520cb6578b8083f34709902bee8f67f503f3d602b717f81526020017f2533fe6f024cdca297e6be92aa60db3190e53c1cf836e8167afc6a00eaaecafb81526020017f21571af0f8a43e057e309ce03136a16d160d947d28be4edd398e781bab6263eb81526020017f0467dd0c3d1f4da968d51f662028283f40b9558fd5c649acfbf4f6d33b5a2a5381526020017f207a62a6d7d9cca6a9a4985b5ab35bbcef9e828188edd26151a7a6f989b5ce1181526020017f2be4b2d39d059658c55fa506005e7397cb656406e8310c037ab851fbec892d8c81526020017f150946fadeff878b03d83c015e5c108b115774b0263945922f310ac52b64fc8681526020017f07be02e86e6904c2e6580f9396a029fe2df096b53d891dcf57ebc6fbb993552581526020017f162a19e9d3670993b04862326b2be2f48dee94a4b62df2d08addb3fb99e1c30181526020017f0f6496a3f2609d24c928b2ba93d9dbef2ceb1129131cb1a49199be4c9e13fddc81526020017f02f44ae6eb7ebfb4dcc6a3bee7a60a5a2cf15818c394a9833d41007d7da648c081525060019060816200264692919062002a1f565b5060408051908101604052807f198e9393920d483a7260bfb731fb5d25f1aa493335a9e71297e485b7aef312c281526020017f21a808dad5c50720fb7294745cf4c87812ce0ea76baa7df4e922615d1388f25a8152506002906002620026ae92919062002a71565b5060408051908101604052807f1800deef121f1e76426a00665e5c4479674322d4f75edadd46debd5cd992f6ed81526020017f04c5e74c85a87f008a2feb4b5c8a1e7f9ba9d8eb40eb02e70139c89fb1c505a981525060039060026200271692919062002a71565b5060408051908101604052807f090689d0585ff075ec9e99ad690c3395bc4b313370b38ef355acdadcd122975b81526020017f204b66d8e1fadc307c35187a6b813be0b46ba1cd720cd1c4ee5f68d13036b4ba81525060049060026200277e92919062002a71565b5060408051908101604052807f12c85ea5db8c6deb4aab71808dcb408fe3d1e7690c43d37b4ce6cc0166fa7daa81526020017f2d58022915fc6bc90e036e858fbc98055084ac7aff98ccceb0e3fde64bc1a0848152506005906002620027e692919062002a71565b5060408051908101604052806000808154811015156200280257fe5b90600052602060002001548152602001600160008154811015156200282357fe5b906000526020600020015481525060066000820151816000015560208201518160010155505060408051908101604052806040805190810160405280600260008154811015156200287057fe5b90600052602060002001548152602001600360008154811015156200289157fe5b90600052602060002001548152508152602001604080519081016040528060046000815481101515620028c057fe5b9060005260206000200154815260200160056000815481101515620028e157fe5b906000526020600020015481525081525060086000820151816000019060026200290d92919062002ac3565b506020820151816002019060026200292792919062002ac3565b50505060408051908101604052806040805190810160405280600260018154811015156200295157fe5b90600052602060002001548152602001600360018154811015156200297257fe5b90600052602060002001548152508152602001604080519081016040528060046001815481101515620029a157fe5b9060005260206000200154815260200160056001815481101515620029c257fe5b9060005260206000200154815250815250600c600082015181600001906002620029ee92919062002ac3565b5060208201518160020190600262002a0892919062002ac3565b50505034801562002a1857600080fd5b5062002b30565b82805482825590600052602060002090810192821562002a5e579160200282015b8281111562002a5d57825182559160200191906001019062002a40565b5b50905062002a6d919062002b08565b5090565b82805482825590600052602060002090810192821562002ab0579160200282015b8281111562002aaf57825182559160200191906001019062002a92565b5b50905062002abf919062002b08565b5090565b826002810192821562002af5579160200282015b8281111562002af457825182559160200191906001019062002ad7565b5b50905062002b04919062002b08565b5090565b62002b2d91905b8082111562002b2957600081600090555060010162002b0f565b5090565b90565b6123068062002b406000396000f3fe608060405260043610610062576000357c0100000000000000000000000000000000000000000000000000000000900463ffffffff16806359434d4a1461006757806387a3b8d9146100a4578063903ae890146100e1578063c1eb466c1461011e575b600080fd5b34801561007357600080fd5b5061008e600480360361008991908101906115e4565b61015b565b60405161009b91906121ff565b60405180910390f35b3480156100b057600080fd5b506100cb60048036036100c691908101906116dc565b61021c565b6040516100d89190611f44565b60405180910390f35b3480156100ed57600080fd5b5061010860048036036101039190810190611679565b610910565b6040516101159190611f44565b60405180910390f35b34801561012a57600080fd5b5061014560048036036101409190810190611625565b610d34565b604051610152919061221a565b60405180910390f35b6101636112fa565b61016b6112fa565b6040805190810160405280600081526020016000815250905060008090505b835181101561021257610203826101fe60408051908101604052806000868154811015156101b457fe5b906000526020600020015481526020016001868154811015156101d357fe5b906000526020600020015481525087858151811015156101ef57fe5b90602001906020020151610dba565b610e8a565b9150808060010191505061018a565b5080915050919050565b60007f30644e72e131a029b85045b68181585d2833e84879b9709143e1f593f00000018760000151101515610286576040517f08c379a000000000000000000000000000000000000000000000000000000000815260040161027d90611fdf565b60405180910390fd5b7f30644e72e131a029b85045b68181585d2833e84879b9709143e1f593f000000187602001511015156102ee576040517f08c379a00000000000000000000000000000000000000000000000000000000081526004016102e5906121bf565b60405180910390fd5b7f30644e72e131a029b85045b68181585d2833e84879b9709143e1f593f00000018660000151600060028110151561032257fe5b6020020151101515610369576040517f08c379a00000000000000000000000000000000000000000000000000000000081526004016103609061207f565b60405180910390fd5b7f30644e72e131a029b85045b68181585d2833e84879b9709143e1f593f00000018660000151600160028110151561039d57fe5b60200201511015156103e4576040517f08c379a00000000000000000000000000000000000000000000000000000000081526004016103db9061203f565b60405180910390fd5b7f30644e72e131a029b85045b68181585d2833e84879b9709143e1f593f00000018660200151600060028110151561041857fe5b602002015110151561045f576040517f08c379a00000000000000000000000000000000000000000000000000000000081526004016104569061201f565b60405180910390fd5b7f30644e72e131a029b85045b68181585d2833e84879b9709143e1f593f00000018660200151600160028110151561049357fe5b60200201511015156104da576040517f08c379a00000000000000000000000000000000000000000000000000000000081526004016104d190611f9f565b60405180910390fd5b60008090505b8351811015610571577f30644e72e131a029b85045b68181585d2833e84879b9709143e1f593f0000001848281518110151561051857fe5b90602001906020020151101515610564576040517f08c379a000000000000000000000000000000000000000000000000000000000815260040161055b9061209f565b60405180910390fd5b80806001019150506104e0565b5060008090505b8251811015610609577f30644e72e131a029b85045b68181585d2833e84879b9709143e1f593f000000183828151811015156105b057fe5b906020019060200201511015156105fc576040517f08c379a00000000000000000000000000000000000000000000000000000000081526004016105f3906120df565b60405180910390fd5b8080600101915050610578565b5060008090505b8551811015610814576000868281518110151561062957fe5b9060200190602002015190506000868381518110151561064557fe5b9060200190602002015190507f30644e72e131a029b85045b68181585d2833e84879b9709143e1f593f0000001821015156106b5576040517f08c379a00000000000000000000000000000000000000000000000000000000081526004016106ac906121df565b60405180910390fd5b7f30644e72e131a029b85045b68181585d2833e84879b9709143e1f593f000000181101515610719576040517f08c379a0000000000000000000000000000000000000000000000000000000008152600401610710906120bf565b60405180910390fd5b600061073c868a8681518110151561072d57fe5b90602001906020020151610d34565b9050600081141515610783576040517f08c379a000000000000000000000000000000000000000000000000000000000815260040161077a9061219f565b60405180910390fd5b60006107a6888b8781518110151561079757fe5b90602001906020020151610d34565b905088858151811015156107b657fe5b9060200190602002015181141515610803576040517f08c379a00000000000000000000000000000000000000000000000000000000081526004016107fa9061213f565b60405180910390fd5b505050508080600101915050610610565b5061081d6112fa565b6108268361015b565b90506108306112fa565b6108398561015b565b90506108436112fa565b6108558a61085084610f7b565b610e8a565b905061090161086384610f7b565b8a836008604080519081016040529081600082016002806020026040519081016040528092919082600280156108ae576020028201915b81548152602001906001019080831161089a575b50505050508152602001600282016002806020026040519081016040528092919082600280156108f3576020028201915b8154815260200190600101908083116108df575b505050505081525050611030565b93505050509695505050505050565b60007f30644e72e131a029b85045b68181585d2833e84879b9709143e1f593f0000001856000015110151561097a576040517f08c379a000000000000000000000000000000000000000000000000000000000815260040161097190611fbf565b60405180910390fd5b7f30644e72e131a029b85045b68181585d2833e84879b9709143e1f593f000000185602001511015156109e2576040517f08c379a00000000000000000000000000000000000000000000000000000000081526004016109d99061205f565b60405180910390fd5b7f30644e72e131a029b85045b68181585d2833e84879b9709143e1f593f00000018460000151101515610a4a576040517f08c379a0000000000000000000000000000000000000000000000000000000008152600401610a4190611f7f565b60405180910390fd5b7f30644e72e131a029b85045b68181585d2833e84879b9709143e1f593f00000018460200151101515610ab2576040517f08c379a0000000000000000000000000000000000000000000000000000000008152600401610aa99061211f565b60405180910390fd5b7f30644e72e131a029b85045b68181585d2833e84879b9709143e1f593f000000183101515610b16576040517f08c379a0000000000000000000000000000000000000000000000000000000008152600401610b0d90611f5f565b60405180910390fd5b7f30644e72e131a029b85045b68181585d2833e84879b9709143e1f593f000000182101515610b7a576040517f08c379a0000000000000000000000000000000000000000000000000000000008152600401610b71906120ff565b60405180910390fd5b610b826112fa565b610bbd86610bb8610bb360066040805190810160405290816000820154815260200160018201548152505087610dba565b610f7b565b610e8a565b9050610bc76112fa565b610bd086610f7b565b9050610bda6112fa565b610be48787610dba565b9050610d27610bf38285610e8a565b600860408051908101604052908160008201600280602002604051908101604052809291908260028015610c3c576020028201915b815481526020019060010190808311610c28575b5050505050815260200160028201600280602002604051908101604052809291908260028015610c81576020028201915b815481526020019060010190808311610c6d575b50505050508152505084600c60408051908101604052908160008201600280602002604051908101604052809291908260028015610cd4576020028201915b815481526020019060010190808311610cc0575b5050505050815260200160028201600280602002604051908101604052809291908260028015610d19576020028201915b815481526020019060010190808311610d05575b505050505081525050611030565b9350505050949350505050565b6000807f30644e72e131a029b85045b68181585d2833e84879b9709143e1f593f00000019050600080905060006001905060008090505b8651811015610dad5760008782815181101515610d8457fe5b906020019060200201519050848582850985089350848784099250508080600101915050610d6b565b5081935050505092915050565b610dc26112fa565b610dca611314565b8360000151816000600381101515610dde57fe5b6020020181815250508360200151816001600381101515610dfb57fe5b60200201818152505082816002600381101515610e1457fe5b602002018181525050600060608360808460076107d05a03fa90508060008114610e3d57610e3f565bfe5b50801515610e82576040517f08c379a0000000000000000000000000000000000000000000000000000000008152600401610e7990611fff565b60405180910390fd5b505092915050565b610e926112fa565b610e9a611337565b8360000151816000600481101515610eae57fe5b6020020181815250508360200151816001600481101515610ecb57fe5b6020020181815250508260000151816002600481101515610ee857fe5b6020020181815250508260200151816003600481101515610f0557fe5b602002018181525050600060608360c08460066107d05a03fa90508060008114610f2e57610f30565bfe5b50801515610f73576040517f08c379a0000000000000000000000000000000000000000000000000000000008152600401610f6a9061215f565b60405180910390fd5b505092915050565b610f836112fa565b60008260000151148015610f9b575060008260200151145b15610fbe576040805190810160405280600081526020016000815250905061102b565b6040805190810160405280836000015181526020017f30644e72e131a029b85045b68181585d97816a916871ca8d3c208c16d87cfd47846020015181151561100257fe5b067f30644e72e131a029b85045b68181585d97816a916871ca8d3c208c16d87cfd470381525090505b919050565b600061103a61135a565b6040805190810160405280878152602001858152509050611059611388565b60408051908101604052808781526020018581525090506000600c90506060816040519080825280602002602001820160405280156110a75781602001602082028038833980820191505090505b50905060008090505b600281101561125f57600060068202905085826002811015156110cf57fe5b60200201516000015183600083018151811015156110e957fe5b9060200190602002018181525050858260028110151561110557fe5b602002015160200151836001830181518110151561111f57fe5b9060200190602002018181525050848260028110151561113b57fe5b602002015160000151600060028110151561115257fe5b6020020151836002830181518110151561116857fe5b9060200190602002018181525050848260028110151561118457fe5b602002015160000151600160028110151561119b57fe5b602002015183600383018151811015156111b157fe5b906020019060200201818152505084826002811015156111cd57fe5b60200201516020015160006002811015156111e457fe5b602002015183600483018151811015156111fa57fe5b9060200190602002018181525050848260028110151561121657fe5b602002015160200151600160028110151561122d57fe5b6020020151836005830181518110151561124357fe5b90602001906020020181815250505080806001019150506110b0565b506112686113b7565b6000602082602086026020860160086107d05a03fa9050806000811461128d5761128f565bfe5b508015156112d2576040517f08c379a00000000000000000000000000000000000000000000000000000000081526004016112c99061217f565b60405180910390fd5b60008260006001811015156112e357fe5b602002015114159650505050505050949350505050565b604080519081016040528060008152602001600081525090565b606060405190810160405280600390602082028038833980820191505090505090565b608060405190810160405280600490602082028038833980820191505090505090565b6080604051908101604052806002905b6113726113da565b81526020019060019003908161136a5790505090565b610100604051908101604052806002905b6113a16113f4565b8152602001906001900390816113995790505090565b602060405190810160405280600190602082028038833980820191505090505090565b604080519081016040528060008152602001600081525090565b60806040519081016040528061140861141b565b815260200161141561141b565b81525090565b6040805190810160405280600290602082028038833980820191505090505090565b600082601f830112151561145057600080fd5b600261146361145e82612262565b612235565b9150818385602084028201111561147957600080fd5b60005b838110156114a9578161148f88826115d0565b84526020840193506020830192505060018101905061147c565b5050505092915050565b600082601f83011215156114c657600080fd5b81356114d96114d482612284565b612235565b915081818352602084019350602081019050838560208402820111156114fe57600080fd5b60005b8381101561152e578161151488826115d0565b845260208401935060208301925050600181019050611501565b5050505092915050565b60006040828403121561154a57600080fd5b6115546040612235565b90506000611564848285016115d0565b6000830152506020611578848285016115d0565b60208301525092915050565b60006080828403121561159657600080fd5b6115a06040612235565b905060006115b08482850161143d565b60008301525060406115c48482850161143d565b60208301525092915050565b60006115dc82356122c2565b905092915050565b6000602082840312156115f657600080fd5b600082013567ffffffffffffffff81111561161057600080fd5b61161c848285016114b3565b91505092915050565b6000806040838503121561163857600080fd5b600083013567ffffffffffffffff81111561165257600080fd5b61165e858286016114b3565b925050602061166f858286016115d0565b9150509250929050565b60008060008060c0858703121561168f57600080fd5b600061169d87828801611538565b94505060406116ae87828801611538565b93505060806116bf878288016115d0565b92505060a06116d0878288016115d0565b91505092959194509250565b60008060008060008061014087890312156116f657600080fd5b600061170489828a01611538565b965050604061171589828a01611584565b95505060c087013567ffffffffffffffff81111561173257600080fd5b61173e89828a016114b3565b94505060e087013567ffffffffffffffff81111561175b57600080fd5b61176789828a016114b3565b93505061010087013567ffffffffffffffff81111561178557600080fd5b61179189828a016114b3565b92505061012087013567ffffffffffffffff8111156117af57600080fd5b6117bb89828a016114b3565b9150509295509295509295565b6117d1816122ac565b82525050565b6000602a82527f56657269666965722e7665726966794b5a473a205f696e646578206973206f7560208301527f74206f662072616e6765000000000000000000000000000000000000000000006040830152606082019050919050565b6000602c82527f56657269666965722e7665726966794b5a473a205f70726f6f662e582069732060208301527f6f7574206f662072616e676500000000000000000000000000000000000000006040830152606082019050919050565b6000602f82527f56657269666965722e7665726966794b5a473a205f70726f6f662e595b315d2060208301527f6973206f7574206f662072616e676500000000000000000000000000000000006040830152606082019050919050565b6000603182527f56657269666965722e7665726966794b5a473a205f636f6d6d69746d656e742e60208301527f58206973206f7574206f662072616e67650000000000000000000000000000006040830152606082019050919050565b6000603682527f56657269666965722e7665726966794d756c74694b5a473a205f636f6d6d697460208301527f6d656e742e58206973206f7574206f662072616e6765000000000000000000006040830152606082019050919050565b6000601282527f70616972696e672d6d756c2d6661696c656400000000000000000000000000006020830152604082019050919050565b6000602f82527f56657269666965722e7665726966794b5a473a205f70726f6f662e595b305d2060208301527f6973206f7574206f662072616e676500000000000000000000000000000000006040830152606082019050919050565b6000602f82527f56657269666965722e7665726966794b5a473a205f70726f6f662e585b315d2060208301527f6973206f7574206f662072616e676500000000000000000000000000000000006040830152606082019050919050565b6000603182527f56657269666965722e7665726966794b5a473a205f636f6d6d69746d656e742e60208301527f59206973206f7574206f662072616e67650000000000000000000000000000006040830152606082019050919050565b6000602f82527f56657269666965722e7665726966794b5a473a205f70726f6f662e585b305d2060208301527f6973206f7574206f662072616e676500000000000000000000000000000000006040830152606082019050919050565b6000603582527f56657269666965722e7665726966794b5a473a20616e205f69436f656666732060208301527f76616c7565206973206f7574206f662072616e676500000000000000000000006040830152606082019050919050565b6000602b82527f56657269666965722e7665726966794b5a473a20612076616c7565206973206f60208301527f7574206f662072616e67650000000000000000000000000000000000000000006040830152606082019050919050565b6000603582527f56657269666965722e7665726966794b5a473a20616e205f7a436f656666732060208301527f76616c7565206973206f7574206f662072616e676500000000000000000000006040830152606082019050919050565b6000602a82527f56657269666965722e7665726966794b5a473a205f76616c7565206973206f7560208301527f74206f662072616e6765000000000000000000000000000000000000000000006040830152606082019050919050565b6000602c82527f56657269666965722e7665726966794b5a473a205f70726f6f662e592069732060208301527f6f7574206f662072616e676500000000000000000000000000000000000000006040830152606082019050919050565b6000602682527f56657269666965722e7665726966794d756c74693a20696e76616c6964205f6960208301527f436f6566667300000000000000000000000000000000000000000000000000006040830152606082019050919050565b6000601282527f70616972696e672d6164642d6661696c656400000000000000000000000000006020830152604082019050919050565b6000601582527f70616972696e672d6f70636f64652d6661696c656400000000000000000000006020830152604082019050919050565b6000602682527f56657269666965722e7665726966794d756c74693a20696e76616c6964205f7a60208301527f436f6566667300000000000000000000000000000000000000000000000000006040830152606082019050919050565b6000603682527f56657269666965722e7665726966794d756c74694b5a473a205f636f6d6d697460208301527f6d656e742e59206973206f7574206f662072616e6765000000000000000000006040830152606082019050919050565b6000602c82527f56657269666965722e7665726966794b5a473a20616e20696e6465782069732060208301527f6f7574206f662072616e676500000000000000000000000000000000000000006040830152606082019050919050565b604082016000820151611f1c6000850182611f35565b506020820151611f2f6020850182611f35565b50505050565b611f3e816122b8565b82525050565b6000602082019050611f5960008301846117c8565b92915050565b60006020820190508181036000830152611f78816117d7565b9050919050565b60006020820190508181036000830152611f9881611834565b9050919050565b60006020820190508181036000830152611fb881611891565b9050919050565b60006020820190508181036000830152611fd8816118ee565b9050919050565b60006020820190508181036000830152611ff88161194b565b9050919050565b60006020820190508181036000830152612018816119a8565b9050919050565b60006020820190508181036000830152612038816119df565b9050919050565b6000602082019050818103600083015261205881611a3c565b9050919050565b6000602082019050818103600083015261207881611a99565b9050919050565b6000602082019050818103600083015261209881611af6565b9050919050565b600060208201905081810360008301526120b881611b53565b9050919050565b600060208201905081810360008301526120d881611bb0565b9050919050565b600060208201905081810360008301526120f881611c0d565b9050919050565b6000602082019050818103600083015261211881611c6a565b9050919050565b6000602082019050818103600083015261213881611cc7565b9050919050565b6000602082019050818103600083015261215881611d24565b9050919050565b6000602082019050818103600083015261217881611d81565b9050919050565b6000602082019050818103600083015261219881611db8565b9050919050565b600060208201905081810360008301526121b881611def565b9050919050565b600060208201905081810360008301526121d881611e4c565b9050919050565b600060208201905081810360008301526121f881611ea9565b9050919050565b60006040820190506122146000830184611f06565b92915050565b600060208201905061222f6000830184611f35565b92915050565b6000604051905081810181811067ffffffffffffffff8211171561225857600080fd5b8060405250919050565b600067ffffffffffffffff82111561227957600080fd5b602082029050919050565b600067ffffffffffffffff82111561229b57600080fd5b602082029050602081019050919050565b60008115159050919050565b6000819050919050565b600081905091905056fea265627a7a72305820a8b8af813f5b89e9ebaed4e5c746f7a287759febd9d10f56956b7dc9ed6116ef6c6578706572696d656e74616cf50037",
					"opcodes": "PUSH1 0x80 PUSH1 0x40 MSTORE PUSH2 0x1020 PUSH1 0x40 MLOAD SWAP1 DUP2 ADD PUSH1 0x40 MSTORE DUP1 PUSH1 0x1 DUP2 MSTORE PUSH1 0x20 ADD PUSH32 0x1BF32CCF9D8606F2A32624586C10380AA3D12ECD1F0B53F277DF6E74C2F8652E DUP2 MSTORE PUSH1 0x20 ADD PUSH32 0xE401B101716CB5EF95E29E150C1829A179E9D89167205F23593FB8161D085E8 DUP2 MSTORE PUSH1 0x20 ADD PUSH32 0x22F09C6D02082455B418CABCAED2F8113FFCBA593C346F30D07236308BAF24C9 DUP2 MSTORE PUSH1 0x20 ADD PUSH32 0x24552BC00DDA4D440E1E35CA9550675FDB5E422F6E12C52DFDCEB516F4BBBC5B DUP2 MSTORE PUSH1 0x20 ADD PUSH32 0x1A84F51D9CB05C0DB0980D32CA62F20F7BC4E554360A38F2BB0ABCF399B2ECE1 DUP2 MSTORE PUSH1 0x20 ADD PUSH32 0x2AC6D41B3693A672FE527DC1D035C5C6A597BE706D054F9F4FBBCC357257B764 DUP2 MSTORE PUSH1 0x20 ADD PUSH32 0x1570DF0052502E9249110EFE0D85D3292947918851D9C4B34906EA8A73D96722 DUP2 MSTORE PUSH1 0x20 ADD PUSH32 0x2386350D374D88F78CF0EF5CA5777ECB83A5A212EAA69CD548CCC7CFC80C3676 DUP2 MSTORE PUSH1 0x20 ADD PUSH32 0x208605B0745F360D5DD002858EE8EA2D5A25DC49B813598036B80A37F6DB710E DUP2 MSTORE PUSH1 0x20 ADD PUSH32 0x27195AC6C913159058BE75F4375A6F961B52A835957E91978739257C8E5619E2 DUP2 MSTORE PUSH1 0x20 ADD PUSH32 0x22059DE91334BC1F7E6655EC5121C2404DAFC569532786053C0201792C1F6E4E DUP2 MSTORE PUSH1 0x20 ADD PUSH32 0x1E0D393CDAEB633260281CDA7418605605F7E4BFFF89253E6CAC0112326AF213 DUP2 MSTORE PUSH1 0x20 ADD PUSH32 0x2BDFC801ECC7F983DE4DDA8AC3C2075F80F213239D6ECBEB79F747AAE080B807 DUP2 MSTORE PUSH1 0x20 ADD PUSH32 0x16AC41A2E17D188680ABFA742F3CDC0FD5E6809A8DC2F1CAFA4CF7394019EF84 DUP2 MSTORE PUSH1 0x20 ADD PUSH32 0x1CC81BA066276C0443B0132009A93A4CA2C2A8075C32D2C14A51F200B5676664 DUP2 MSTORE PUSH1 0x20 ADD PUSH32 0x11FE53A734FD48AC9417CAD9A5C66CFFD10C5A128214B703096B85F2BB18B22C DUP2 MSTORE PUSH1 0x20 ADD PUSH32 0x238B4BB70FD225FC36A4891EB6DBAEE0F3C796015C63C8046A7CA92E24200E4C DUP2 MSTORE PUSH1 0x20 ADD PUSH32 0xF00CE493A4CB4F877CF7CCABB82B70489E13A1AC9E09E95818B5ADA65A9B17D DUP2 MSTORE PUSH1 0x20 ADD PUSH32 0xFF956A105A57DC1729BA78BAEEEFCAA5AB3570F7597A0C5247F71C963065942 DUP2 MSTORE PUSH1 0x20 ADD PUSH32 0x29AF6597A5D726BABA2BA5DD507007FC439DFB891A92A9B2E7D72B33007DC7D2 DUP2 MSTORE PUSH1 0x20 ADD PUSH32 0x119CFC13C92F5CC18FCCDD5135FDEF1524C304F1DDADFCBB576DCA340D61A9BF DUP2 MSTORE PUSH1 0x20 ADD PUSH32 0x3A622B55EE067A5690D9D68E9BA6395DAA93038E79DB4D016DB89E043E7EC31 DUP2 MSTORE PUSH1 0x20 ADD PUSH32 0x255A1B1192634EF28388CA22F39112446BA8918CADE9A8A3C3486382FDDB263B DUP2 MSTORE PUSH1 0x20 ADD PUSH32 0x14CAB6382B88A5C74E478258B8A41D93DC6D34E062C0D03AF106233EA4B42608 DUP2 MSTORE PUSH1 0x20 ADD PUSH32 0x13CB22E8C6B65DBF32E8F038C03AE1C77AA44C1424B3F876D8CA3E195E6E7D07 DUP2 MSTORE PUSH1 0x20 ADD PUSH32 0x67ACBDC712D30C05B5FA85BD5B18418C4A17804F15E71E2E03EBB51476965D1 DUP2 MSTORE PUSH1 0x20 ADD PUSH32 0x29E4D65B0A80BD6EBF2CD78148E9ED379C11C583F7050DA7D53031A5AFE1CC24 DUP2 MSTORE PUSH1 0x20 ADD PUSH32 0x51EC195DF86C4F79CFE7BA118D3B31BCC957B18023C3B967449E213452A988E DUP2 MSTORE PUSH1 0x20 ADD PUSH32 0x17B09046F4253A9F49B346A94FAD379B0A08B4BDAF9315B76C6AA6C83BFDC41E DUP2 MSTORE PUSH1 0x20 ADD PUSH32 0x12189BE11DC6DEFDF120CAD99F984659604633197C304CD68934A8B9D9418716 DUP2 MSTORE PUSH1 0x20 ADD PUSH32 0x3DE5388417AE676ABAA014E9B61DAC75D737D5F2519A4894BEF50ED4283D6DB DUP2 MSTORE PUSH1 0x20 ADD PUSH32 0x1DC7D8EDC296A75939D5D6131CB4DD78DF1D0AE603227FFBC86F03DD052668D1 DUP2 MSTORE PUSH1 0x20 ADD PUSH31 0xD5226E881E867590FBD5CE8EE70703072215F4C6F560748482DD006A055228 DUP2 MSTORE PUSH1 0x20 ADD PUSH32 0x1438DFB6A676D856ED9DBB6FDDDD0ED53540C53E8CDD6ADEF249C64AE8104134 DUP2 MSTORE PUSH1 0x20 ADD PUSH32 0x25048084E9D15CD722C54569538FB135E46DFCF4F0CBCF68BED0FF38B0A51E6E DUP2 MSTORE PUSH1 0x20 ADD PUSH32 0x1D3048A26337CAF01322539FDB9FEF9B3A2FC7497FFEDF46F4ED530AC7616C22 DUP2 MSTORE PUSH1 0x20 ADD PUSH32 0x284F096194EB7E8A8AF689EBEF51075848BE3BBECE0C55371CCB872743398EE2 DUP2 MSTORE PUSH1 0x20 ADD PUSH32 0x9C50FA67D6B394EF3843AC64C8B908E3B491730E8E05F58F42B7295DE47CA22 DUP2 MSTORE PUSH1 0x20 ADD PUSH32 0x1724B4873AD749824E6FFFFD4F4796ED83CCEF2B56458AA8FC4127944CB5D60 DUP2 MSTORE PUSH1 0x20 ADD PUSH32 0x67A31423958A5665E44731F9ABB5654FDA4B524B06BB1167BA130DC42C2F565 DUP2 MSTORE PUSH1 0x20 ADD PUSH32 0x9406BCC0DC3310263338E1B39D29A921906A9D8F911F5F57CC7C436AB98C5D0 DUP2 MSTORE PUSH1 0x20 ADD PUSH32 0x2CB5F29FA00AFB0A1FCE915993D3E592D11A706A6B71926B743D15FAACE86E78 DUP2 MSTORE PUSH1 0x20 ADD PUSH32 0x237B439D526A32B79B12CC0524B94BAC2241397CC1E7A6A62BF6CC00F57103C4 DUP2 MSTORE PUSH1 0x20 ADD PUSH32 0x20E3B46C669FAC7E852717F5092FA12DC6BBBE11B5E143D04D3C2E7EDA41D29 DUP2 MSTORE PUSH1 0x20 ADD PUSH32 0x2BA692B2F2E0F6402DAC0C5BE6F305DD5B3F4B3DBA8E9C574D877F5C1ED3E899 DUP2 MSTORE PUSH1 0x20 ADD PUSH32 0x24BCFD502109EE384CFE8189AE20EB5CCBAF8A72BF76DE71019C4CA22980654A DUP2 MSTORE PUSH1 0x20 ADD PUSH32 0x113DF360AC29C8E6D81E3A91F57A92387EFD605391BE69F7A5414FB4D53A74A4 DUP2 MSTORE PUSH1 0x20 ADD PUSH32 0x1C29824113AFCB355D26C9FAD3D23013A7EE6F186B5E7B3B4A8061A5FD4286D6 DUP2 MSTORE PUSH1 0x20 ADD PUSH32 0x111C5A9FE6F2A94E2CB45BAD0CD2FB352CCD7D2E483118BB95E5B786E4C66F75 DUP2 MSTORE PUSH1 0x20 ADD PUSH32 0x18043C88634F5AC8385BF4E8B2DA2D354C3545BAC100B1BFB81C304D6CB0397C DUP2 MSTORE PUSH1 0x20 ADD PUSH32 0x10C8CDD188A633C04C451A01ABC8CE5C17C33B4CF8688B15E9AE1591B65D8385 DUP2 MSTORE PUSH1 0x20 ADD PUSH32 0x1D360655FD4A6416A1D288D92571AC1A3833CF79C2C741AF54F2F376322203C DUP2 MSTORE PUSH1 0x20 ADD PUSH32 0x13EEDAD3278E63B153C049377742815820812E5A539209F94045F632332EE6C5 DUP2 MSTORE PUSH1 0x20 ADD PUSH32 0x3A01EB93154C8A50D42EBC9201B6EDACBD60E08808A9B2653118A1F3178A7D9 DUP2 MSTORE PUSH1 0x20 ADD PUSH32 0x7A03BD02D9C285AE395930AAFFAD4E586CD430AE4A7A0A4F9280F4D0EFEA894 DUP2 MSTORE PUSH1 0x20 ADD PUSH32 0x17E331D2C3BF9882BFDF3D3FFEB53496F3F354D5437CC244B51691DE2EA67D5B DUP2 MSTORE PUSH1 0x20 ADD PUSH32 0x26CCFA928DBB6A02F9A2533D1459BBDDBA5DF18B18FBBEC979AF5CCD8A621879 DUP2 MSTORE PUSH1 0x20 ADD PUSH32 0x1B896D7B5990250D6D4276064C6DD153946D1D41E304631671DD0710612ADC39 DUP2 MSTORE PUSH1 0x20 ADD PUSH32 0x82396ADAD72DC3C6AFBE7F8043C3EEFDD95D73CA09DA70927355093EF2B2F18 DUP2 MSTORE PUSH1 0x20 ADD PUSH32 0x1C524772146C5AD05532B70A1722EC8FDFAE97AF29FED1C53F3F45062F7DB3FE DUP2 MSTORE PUSH1 0x20 ADD PUSH32 0x233F98467D8AB85FECF55B97C06E036B3385108863D337B442FE8CAE64507B8 DUP2 MSTORE PUSH1 0x20 ADD PUSH32 0xF833D8E6E8110105F6A8BD5A72D1AF973A4CFF4E68C52EFCE5A2DBDFBEC67C4 DUP2 MSTORE PUSH1 0x20 ADD PUSH32 0x195AE5333DA2EB06EFA9EFE5E95149A163682BEF6E2C7130F67AE97DE8683850 DUP2 MSTORE PUSH1 0x20 ADD PUSH32 0x2005BC6DDA1277E09B262034501BB1E04812BC1FEBA3AC019C8D7EA5C0A527CB DUP2 MSTORE PUSH1 0x20 ADD PUSH32 0x1152EB0EC582C5957A937DADC8035146E911B2CF350ED02A50002E55C0F2EB86 DUP2 MSTORE PUSH1 0x20 ADD PUSH32 0x233AE5272B87840B5CCE1EC342BD68768C6C93626A46034AB6ED5C9C293B6DD2 DUP2 MSTORE PUSH1 0x20 ADD PUSH32 0x11B4469306E7CCDEACC442DFA17980E8B735535988C8BA0790CFFDFCC110D686 DUP2 MSTORE PUSH1 0x20 ADD PUSH32 0x1DA2FA66A94F0B086CEE7BCCFE2AEBCACED9DE148A73330D8452626CD63AB8BF DUP2 MSTORE PUSH1 0x20 ADD PUSH32 0x1718AEE5698CBCEC1CF245D0B54C8FF64DE66182BB5B1ABAE5EB647E2E4DD1CE DUP2 MSTORE PUSH1 0x20 ADD PUSH32 0x2DB11AE2CEA66A9AE18BBC7411D39E323FCB878AB84F1364652969AB2B2990C8 DUP2 MSTORE PUSH1 0x20 ADD PUSH32 0x130FCF009BD75CF8550B11E040562E23FFD932C2AABDA931F90DD90231B151BC DUP2 MSTORE PUSH1 0x20 ADD PUSH32 0x7BDCAC71534013DCDCF3853C5D61635CBAAF01B936FB3E331470EDA88FB474C DUP2 MSTORE PUSH1 0x20 ADD PUSH32 0xD84AC8954984FE8E238358A793C6CE05A6EB6407601ADE13B7B2099B86364C5 DUP2 MSTORE PUSH1 0x20 ADD PUSH32 0x240C99D5E3D97C4E8CCE8788F19FBFF529D8D528EB98095CB94F0534CC3D0CA4 DUP2 MSTORE PUSH1 0x20 ADD PUSH32 0x2493BAEB15350D0CCD7DC8DB251E96279A767F208F6125D600612C3DA3C40668 DUP2 MSTORE PUSH1 0x20 ADD PUSH32 0x1C88246299D7E4589101F139A4B8ED1B17253AA61550EC84A3E577E892D0451D DUP2 MSTORE PUSH1 0x20 ADD PUSH32 0x22215E2EA1866058222250EB6B8ECB052BB21524CF524BFDD40A4168672C04C3 DUP2 MSTORE PUSH1 0x20 ADD PUSH32 0x27F1D77697A582D4A35C3AC881694A77F29106AA1367B170DF71C8AC28445C88 DUP2 MSTORE PUSH1 0x20 ADD PUSH32 0x198422688EC5C3C4A35EBF4D256E78080716E93C44B865EB0231AFC551F7573F DUP2 MSTORE PUSH1 0x20 ADD PUSH32 0x48D1EF78F62EFAE6DC64663759196D2E921E420C18E945567776469086DE644 DUP2 MSTORE PUSH1 0x20 ADD PUSH32 0xF8A03ADC5E10C524103AC8185D241B18DC9A45996F0B904A8589087E4049023 DUP2 MSTORE PUSH1 0x20 ADD PUSH32 0xD69DC10CFE158FF1C84CCD6D63C834129EE93162423AACCC127CD63A724069C DUP2 MSTORE PUSH1 0x20 ADD PUSH32 0x297D6AA2CBB7996148A05C5631D645C2A6C2EEDCECB8AD0873087D0C086AE819 DUP2 MSTORE PUSH1 0x20 ADD PUSH32 0x112233556F412B1ED8397CF2455AEB8E8E3DE5CCFCC5C9D783D41210DB8D3CCA DUP2 MSTORE PUSH1 0x20 ADD PUSH32 0x1F63EF47FF7178D32CEBCB56CC5223DFAC3B13C48210F3E3D149CEEF87207EBC DUP2 MSTORE PUSH1 0x20 ADD PUSH32 0x16216FB5FA0BD7A8FFD9B32C967F7D555E33CB98449E41A08DAB4F7C04FA875D DUP2 MSTORE PUSH1 0x20 ADD PUSH32 0xDCC507D62FD583F3059A11F59B2593DF7F3416BC4A86FC343CFC6E8D37AE284 DUP2 MSTORE PUSH1 0x20 ADD PUSH32 0x2E6F2BC8DAF0B0EDBECE8373A6A579E4EA1C0BDED0BED7705C2D7B869C4410C6 DUP2 MSTORE PUSH1 0x20 ADD PUSH32 0x22DD6C713CBCDDB5716FE9EF8097E545CC96F44FC064C0481CFF0EB36030F374 DUP2 MSTORE PUSH1 0x20 ADD PUSH31 0x89CA7A5894A1402F42AC610C68DE090C11920DB3BE434A3DA6DC50C398653D DUP2 MSTORE PUSH1 0x20 ADD PUSH32 0x2D319043E517C197A9FF8963D3399F4BC74BBB055977C9808E75ED644C5BC2AF DUP2 MSTORE PUSH1 0x20 ADD PUSH32 0x1C38A11BAF9E41CFB444F05AC75790ABFD65A917F6C259AB9010C4C87FDCF547 DUP2 MSTORE PUSH1 0x20 ADD PUSH32 0x2FF127EE998BD98B2ADBCC7BCF174191182F7C6A621AC46910BF4867347EDC14 DUP2 MSTORE PUSH1 0x20 ADD PUSH32 0x11B6A7410E205A57E2536F0977A17E85E5F941B7ADC15D111C0737984A278CD7 DUP2 MSTORE PUSH1 0x20 ADD PUSH32 0x151E70F61C2B5C0165B62A9CD648B6B49D9733B07FE02DF5AE4DEAF77EFE56C8 DUP2 MSTORE PUSH1 0x20 ADD PUSH32 0x22BA4329810639D735B295A9E8648D7E34851C135E6A94E742597D0DC99093DD DUP2 MSTORE PUSH1 0x20 ADD PUSH32 0x2151D31159162E67BD628085C9947AEC27B1AA2135E81943B28A0083B4BCB68D DUP2 MSTORE PUSH1 0x20 ADD PUSH32 0xC76BBEC76CB006CCD76A5503448DCC7C7AE80F890DF4E63DF07C47C16BC9A69 DUP2 MSTORE PUSH1 0x20 ADD PUSH32 0x1D6CEDA71A17D701E3EBBCBB51F21289C6D358E0453C4991A67C1BAF37C41FC9 DUP2 MSTORE PUSH1 0x20 ADD PUSH32 0x118BDA3788E835DFF55CBBE4227E33E0C16DF832A5086A9E0E0AF1D9920FA072 DUP2 MSTORE PUSH1 0x20 ADD PUSH32 0x20F612096D0E9EE8F6AFA12C4D30C3DE302E46FBEA8452B092CB2A14A51F4B78 DUP2 MSTORE PUSH1 0x20 ADD PUSH32 0xEF0668A61B2407E138D2DB6BECE20A4D1D4748EFB39C2F6A76EB7090CF5A24D DUP2 MSTORE PUSH1 0x20 ADD PUSH32 0x1C68D162F18F5C326C505F15F6710B842CFF82CC125D4CF4CE41D2ADC3C41EDE DUP2 MSTORE PUSH1 0x20 ADD PUSH32 0x15092B3F5C6E118CC6518DBD78130C6BF633829411C5C8E93A33C8F8B0F2F24F DUP2 MSTORE PUSH1 0x20 ADD PUSH32 0x2088F01E02D62D0B37A859A657E42032A5C9A189C790978877BBC789E01DF357 DUP2 MSTORE PUSH1 0x20 ADD PUSH32 0x124C2F64042235E28C192180C0BCE808183CDE7AEC26CE2A60BCAB2EF2DE1B8B DUP2 MSTORE PUSH1 0x20 ADD PUSH32 0x2429F148E681404783FB448D28D5B23777856568E5CFBAB16902C3D825D706E DUP2 MSTORE PUSH1 0x20 ADD PUSH32 0x1863F247DEA2BC3872F3B6786D7DB0D99810A7E1237B6F607BD18C8701B700B4 DUP2 MSTORE PUSH1 0x20 ADD PUSH32 0x1E73726594D8B4D592039F71679896D41761D0E346C982310C736B96FD2A3B69 DUP2 MSTORE PUSH1 0x20 ADD PUSH32 0x11734C5F7F1175C112E9EAE54076DF4ED7348C938487A57FD0C1C461F103D8CA DUP2 MSTORE PUSH1 0x20 ADD PUSH32 0x2257BA20D6D1DB7839CD8D0E72F64564FDE0688991ADD50450289471A4F0FA37 DUP2 MSTORE PUSH1 0x20 ADD PUSH32 0x1CDAC5B7698F7878F24BC60E3E4DF9030A18204F73E3A135E5B45302A359805A DUP2 MSTORE PUSH1 0x20 ADD PUSH32 0xD2108F8F26A1A1AEF9C31F81632208F34E442654A2093E2A3ACBDD1DA7EC024 DUP2 MSTORE PUSH1 0x20 ADD PUSH32 0x2BC97F19326FC924FCDA4FE0EC205F66165AE0F39B8A34CDFC2DEEA3835F56F3 DUP2 MSTORE PUSH1 0x20 ADD PUSH32 0x1C711FEA1F593F068FC1A8965548F6B4DA36F248914B5FDA56E97CCE9B0B2EC5 DUP2 MSTORE PUSH1 0x20 ADD PUSH32 0x1B1B24AC8AA9F3229F75ECCB7D16B86DA8563BAD2CDA601DEF5C9080452D2A47 DUP2 MSTORE PUSH1 0x20 ADD PUSH32 0x2E9B3CE02D01BB443A4315E4DE7E1388FA90EC63200A62E07F36137C68D8212D DUP2 MSTORE PUSH1 0x20 ADD PUSH32 0x2FB08041E23B4F9FA04D0D0CFA461F1E871763CCE3D6B71252FE7D417A75CC18 DUP2 MSTORE PUSH1 0x20 ADD PUSH31 0x800CB48D12D98948DBCEF6C053A1EF262D7CD093DD847308E0313C7ACD6BE7 DUP2 MSTORE PUSH1 0x20 ADD PUSH32 0x2E287D2A4EF6ACA672590ED58686C78E91395F2101D7495BA8C2541FF8A67CCE DUP2 MSTORE PUSH1 0x20 ADD PUSH32 0x144A442E4C494F9C9BBAE7D39FB87DF6C4F3155C77EF257CB5054097CC082197 DUP2 MSTORE PUSH1 0x20 ADD PUSH32 0x3035D908ECB10844885144E69E5D3FBE5D29748D1A4F886B0BB052B737A342E0 DUP2 MSTORE PUSH1 0x20 ADD PUSH32 0x24035C69EC713397270C63BED7D4D3968E2AA671E5518E4AE46B0529DF5B361D DUP2 MSTORE PUSH1 0x20 ADD PUSH32 0x26F733617E30CC35B2A565D321BB40B4F120B1097F3F28100987E2E235C6BE85 DUP2 MSTORE PUSH1 0x20 ADD PUSH32 0x21AAC9D466CBF97709887D44FDC0189C6757EBD2228795F23F700DFD5F45F805 DUP2 MSTORE PUSH1 0x20 ADD PUSH32 0x7491CCD643E4A420081BE79B89273EFC11A6C07406EC0047971DF979F4B711B DUP2 MSTORE PUSH1 0x20 ADD PUSH32 0xC44669879D7D3A0D5FECE9DB8C027B9009FDBEB9B9C0330A5C2CA74A8154DFF DUP2 MSTORE PUSH1 0x20 ADD PUSH32 0x2CA6B5FB21A082DDE700929EF7CBD301D9330A502153F3E3F9B80F8314799230 DUP2 MSTORE POP PUSH1 0x0 SWAP1 PUSH1 0x81 PUSH3 0x1325 SWAP3 SWAP2 SWAP1 PUSH3 0x2A1F JUMP JUMPDEST POP PUSH2 0x1020 PUSH1 0x40 MLOAD SWAP1 DUP2 ADD PUSH1 0x40 MSTORE DUP1 PUSH1 0x2 DUP2 MSTORE PUSH1 0x20 ADD PUSH32 0x2D5CBA37DE100449B4A704CF146A4E1FA4E35A775B0978DAC606AF22EE086C14 DUP2 MSTORE PUSH1 0x20 ADD PUSH32 0x1D1766D6EB8AD6899AA76215FBC72C7C815CDF4FA5B94824B214D33A81441647 DUP2 MSTORE PUSH1 0x20 ADD PUSH32 0x3047FA8D988DD0FFB58A3D397C05FEBC29ADC880FA1740D4BA37392593EAB87D DUP2 MSTORE PUSH1 0x20 ADD PUSH32 0x149769B4009BA286C3BF68B9EF89EA3DF3722C0F2C02A7E733286671BB340E17 DUP2 MSTORE PUSH1 0x20 ADD PUSH32 0x1A47C465665F82AB95677A0E38E0B5C5AA3E79E9EFF490941B8C426623822DA0 DUP2 MSTORE PUSH1 0x20 ADD PUSH32 0x1DC22078116B8ED7FD2E5F257FABB07309522D378318F5B85413CA6F96B25E32 DUP2 MSTORE PUSH1 0x20 ADD PUSH32 0x2E80A8E528E16D94F043FE10F07F41B68DB811EDEA59B24C598F3427F8C72AEB DUP2 MSTORE PUSH1 0x20 ADD PUSH32 0x6A10CD14A0F266976FD8979B6E28278D9611DF51FFEF4F91388142AA90E35EE DUP2 MSTORE PUSH1 0x20 ADD PUSH32 0x26652FC097AF0B4D90F17396336CFC2B79A1D6884BB8106198E47A4ADCF7336A DUP2 MSTORE PUSH1 0x20 ADD PUSH32 0x27A212A6246A5B985EE7053BE49EFC820BA3755704E4EEFF72C910BA6BF569C6 DUP2 MSTORE PUSH1 0x20 ADD PUSH32 0x1E314E6119E215D2AB5169AE96675810519D002CB38E723810AC55FC583C781C DUP2 MSTORE PUSH1 0x20 ADD PUSH32 0xB1ADA68373F226D74A1CA1D7639D9A4E1ABBE59150C742FF9AF5E5486DD3F1B DUP2 MSTORE PUSH1 0x20 ADD PUSH32 0x12AEE19F60CDD2F7A7200CED5E87D38A834DC9E629CB449EAD29269F99FD3D0E DUP2 MSTORE PUSH1 0x20 ADD PUSH32 0x1690B5E0E2541F332FC381762D43D500ED8B07F89B653AC604B99F53765833E2 DUP2 MSTORE PUSH1 0x20 ADD PUSH32 0x19EBB23A6A6CE9A3DD172AD0D2E4D24C4731C5D106946237CEDA98F15DCF1592 DUP2 MSTORE PUSH1 0x20 ADD PUSH32 0x11D516516D35854D291E2D6F8AF84D044C43D3C8B2024FC6E27862BF1230E63A DUP2 MSTORE PUSH1 0x20 ADD PUSH32 0x20E4336D023D9CCECF62430EF5EC71D25AFBE398CEAEA9F25756FD78D1FB2835 DUP2 MSTORE PUSH1 0x20 ADD PUSH32 0xD1C520EB24243A6E668A3EF57B0D73F8ECC310C2D91D7A8B44690F05C63C873 DUP2 MSTORE PUSH1 0x20 ADD PUSH32 0x2760789DF6ED04A45BB374F700A984790661D72E0B3EC10DA401BA737A1C35E7 DUP2 MSTORE PUSH1 0x20 ADD PUSH32 0x17AE69C9F9D9F62D9BE2BBA4BCAC172ADB630378C7AA702BF93CE64D3007753 DUP2 MSTORE PUSH1 0x20 ADD PUSH32 0x1E8BE147B24481E83BEABB209E37F1414AC0F6163C44319A65B82C0DDDA82CDA DUP2 MSTORE PUSH1 0x20 ADD PUSH32 0x8D2D8D6685AC4D7CB56F03E17679FE4B5AAB0953F9F1CCD67B509A57EE511FB DUP2 MSTORE PUSH1 0x20 ADD PUSH32 0x157BDAD8593045C65705E274BB9D0559A7E3331F90E5B86F4F100C61DA9AD3B5 DUP2 MSTORE PUSH1 0x20 ADD PUSH32 0x2CE8FFAD132CDAD32966587F2BCE541451754A53B5A212FB7CFDF70AEF39FF3C DUP2 MSTORE PUSH1 0x20 ADD PUSH32 0x2D822F93CC4BD0EAB8996734CEE63ECFAF2CFE76DE6D247579DD2C66FEE532B9 DUP2 MSTORE PUSH1 0x20 ADD PUSH32 0x7C038C058F7B6E8FFF220758849F8AC5E5975EF541E07C22C7F43456C012295 DUP2 MSTORE PUSH1 0x20 ADD PUSH32 0x2427978F5E9472976B5EAA97BBF6B2755450FBB5354181DFD6E71E15E9E2FFBE DUP2 MSTORE PUSH1 0x20 ADD PUSH32 0x1D599933E905C6ECAEC12316EFE9DE0F838202F322798AF444B404A507575465 DUP2 MSTORE PUSH1 0x20 ADD PUSH32 0x11B815533A46BF46479315A3968E8DDEEFB559F2768844E7B8D4A09E29AE85BF DUP2 MSTORE PUSH1 0x20 ADD PUSH32 0xF8E56AA69115451D882F6BD581A1B14B063C25BAC3A494713B9EC507E5A8A8C DUP2 MSTORE PUSH1 0x20 ADD PUSH32 0xA67970AD52392001EC0CCFC6C63176401C03F428628E75624D816E2179D5CE5 DUP2 MSTORE PUSH1 0x20 ADD PUSH32 0xA1F8809F23F000712329EEEBBDAF002F063678A131860966DAE22A612528698 DUP2 MSTORE PUSH1 0x20 ADD PUSH32 0x15E19F0B4B73B2D5D81902612592F9639B84B8C649299194C54E7EEF59BD495C DUP2 MSTORE PUSH1 0x20 ADD PUSH32 0x12930FB964361543C19D8E5AE6047E6758C004874254B62A225EF7D3B70BED41 DUP2 MSTORE PUSH1 0x20 ADD PUSH32 0x1F579AD5A828D4BEFB75B758879A53E5C5B485C5EAB0C0EAA0417088B094BF20 DUP2 MSTORE PUSH1 0x20 ADD PUSH32 0x1CB5F8D5D179DB5994269371FBB59A132E41E283E80F3204487B5AFB7D30FFB4 DUP2 MSTORE PUSH1 0x20 ADD PUSH32 0x25A3D89782F2EA4487BF4E2C9D8D00BD5D081B26130D273B300E5F06590B1718 DUP2 MSTORE PUSH1 0x20 ADD PUSH32 0x1C0BC9A8E12F0225E0A15B7050D9093EBF9C8D10A7DDDC21051C005C50DE88C2 DUP2 MSTORE PUSH1 0x20 ADD PUSH32 0x4C351362D1BA5AAA5639AF13C9CA3AE3A9452519ECE8E9CD1A04CFD7856B2F6 DUP2 MSTORE PUSH1 0x20 ADD PUSH32 0x1F5EB724253D5F59B74FD1DCA99C4B2F759F421571D22EC9902C0D4459DF1E6F DUP2 MSTORE PUSH1 0x20 ADD PUSH31 0x45D1DE9FA72244143F328DFB89F9652B542109082D487CB347B948DC310605 DUP2 MSTORE PUSH1 0x20 ADD PUSH32 0x2F187D4BE3DD9F05A6F462A6AA2381F53FB11C668247A72AF37D9BED25E10721 DUP2 MSTORE PUSH1 0x20 ADD PUSH32 0xF9073543658E3F5FCFB8AA7DF76429D65CA79946FB66E1D7290A2D038DA9C72 DUP2 MSTORE PUSH1 0x20 ADD PUSH32 0x149AA20CE146DBE877EDEFC4EC10D088EB1F92C7A8873C7B56772E2DA887F010 DUP2 MSTORE PUSH1 0x20 ADD PUSH32 0xCEAE61A535D7BC905C6203EB8E421C2BA3ADDF6D5BB739822CE2353C748340F DUP2 MSTORE PUSH1 0x20 ADD PUSH32 0x1B145D1D7D659A7F23A96E0D52B8BA61624484B56B66B847BFC6A884B3ACAAFE DUP2 MSTORE PUSH1 0x20 ADD PUSH32 0x25F29B1BAE3B366E2398ABB7571157B5D52343EF903D4AA82FA76A9C041E923B DUP2 MSTORE PUSH1 0x20 ADD PUSH32 0xD0D8A2B608A7C11E5DEAACBB38581BA9F5F093E0A394AA83DE5D45AA224FF5F DUP2 MSTORE PUSH1 0x20 ADD PUSH32 0xA43B44970FA36DDB115C385DF350F48706D77F2641E17B1EC8EB8FE6EA86DC0 DUP2 MSTORE PUSH1 0x20 ADD PUSH32 0x19F16B73CD232170391B5C09654CF40011204C263B253B487714527A4E3D1331 DUP2 MSTORE PUSH1 0x20 ADD PUSH32 0x872D0852A8EFC8FE2A31192189C431A7D4425887C0391F91423D5E3EA47D873 DUP2 MSTORE PUSH1 0x20 ADD PUSH31 0xB717EB019C15DAF8C2EBF5A3A901197B3955C5236118FEB9AADAA3BF84206D DUP2 MSTORE PUSH1 0x20 ADD PUSH32 0x291C4E7DF058A59BFD82E83CD3BFFB9A2FD72DBBEA166FD6982EF1057EAFD2C8 DUP2 MSTORE PUSH1 0x20 ADD PUSH32 0x15A235802A944021064FC6284132C366AD31BBE9558123BDD6C2D078A8C8E1E DUP2 MSTORE PUSH1 0x20 ADD PUSH32 0x22A73D8429EA8B36B88DF533C5376B04CF3DA473BF20DA9E23FEED2F27BEB959 DUP2 MSTORE PUSH1 0x20 ADD PUSH32 0x2D5711ED390DF1FA1E87F2990B178B35B7E12718F24C57A051F6682B5CAE9358 DUP2 MSTORE PUSH1 0x20 ADD PUSH32 0x15019CAB7966FED1D524A74A25EDE548E4056EFCF9E0F9EB18ADE4C6E300B4D7 DUP2 MSTORE PUSH1 0x20 ADD PUSH32 0x24B2E6F1D24D364908496C72266FFA3D217E563083B3FC938824C183CA2C8236 DUP2 MSTORE PUSH1 0x20 ADD PUSH32 0x1D039CFA26AD29BEF82E74A1DA3634E5430128143022D7E1A2889D4CDBACA7BC DUP2 MSTORE PUSH1 0x20 ADD PUSH32 0x303B4543B0EE763A4613004FA96206297A17F2C5EAC19F53590F08D31B5A97F4 DUP2 MSTORE PUSH1 0x20 ADD PUSH32 0x224BF61E71A3EE0327EB5AF20B1F2718FD1C122BDE7D5BCE8D6CED5CB17DA20E DUP2 MSTORE PUSH1 0x20 ADD PUSH32 0x290CAE27DBE937B9D85B5E615F8C41D43D6CB9F6AC5A3EB3B6EA5CA46F918FE9 DUP2 MSTORE PUSH1 0x20 ADD PUSH32 0x2A254E8BCFC6E7C251E66C109F246ABA1AC47ED20C618CD5E56D3B77078BFB34 DUP2 MSTORE PUSH1 0x20 ADD PUSH32 0x1F4E246AEFA67F3B2680AF0CF06BCA2D0F6601C8BCBB7DB5EA765A1CDFEB25A6 DUP2 MSTORE PUSH1 0x20 ADD PUSH32 0x38F0A9AAF22CD265AD2FAF248AD858A6B72658B4BB58A87DEAFE19580AEDB47 DUP2 MSTORE PUSH1 0x20 ADD PUSH32 0xC20195898635DCD0BABA574BDF883459F85D98E54EC45693A82ED8A941B37CA DUP2 MSTORE PUSH1 0x20 ADD PUSH32 0x234BD122B666C98734E0938CC35698596CD3A12CE346FA206CFC54926878D7A7 DUP2 MSTORE PUSH1 0x20 ADD PUSH32 0x1F2120194205CB2147FCFAF8BE22EDB6001FF7FE2BD5216024644D172BBB2142 DUP2 MSTORE PUSH1 0x20 ADD PUSH31 0xFEA1899D321BD5328EEDFFAAD5CF47D7BDF8201E01E9DBA140050EC205D0BB DUP2 MSTORE PUSH1 0x20 ADD PUSH32 0x11FC36DEE7EEA4EC379423863A4009E79B57837DE3C776C8E376F40B74F45BFF DUP2 MSTORE PUSH1 0x20 ADD PUSH32 0x24758BA34CE9B0F6614E5172CF7BE92EF4907BBD4DF9C65C78BE37F764FEBDB8 DUP2 MSTORE PUSH1 0x20 ADD PUSH32 0xD0584624F800EA25E12064A54AB7FF764CABD521EE9D85A379599CCACB1D050 DUP2 MSTORE PUSH1 0x20 ADD PUSH32 0x279E037ED29FE73E29523201A3DA7BA8461A2A125EA339B5D419F76187C5DAA7 DUP2 MSTORE PUSH1 0x20 ADD PUSH32 0x15B4F4FE52AC379489A0C322D04881582F8D91EC59DF1D2B551F5959F4F73AB4 DUP2 MSTORE PUSH1 0x20 ADD PUSH32 0x148C7412573D5BB7042F7AAB20805D8BB323EAB5780B7D62D20D2CC43D3A056 DUP2 MSTORE PUSH1 0x20 ADD PUSH32 0xF3735F595D4B7C49EFDD21826C0C04418E293F8977F8452C3B5290517DC5F46 DUP2 MSTORE PUSH1 0x20 ADD PUSH32 0x325B26AB0D50BAA0AE526A62085A9D964DB03C45A5925A33AF35F975212261A DUP2 MSTORE PUSH1 0x20 ADD PUSH32 0x28F2718FDF99BA20651857BFE40763A7FDEB0BF51C95C86228E12971DCBA2488 DUP2 MSTORE PUSH1 0x20 ADD PUSH32 0x734B877472354A0ECD5F2A0CC586743B24FA0E62F73FE30E7E03ABA4A6539AD DUP2 MSTORE PUSH1 0x20 ADD PUSH32 0x4043BAC7985131E179843002DDD2BB677007727C1AFCFE0482B3768DD651EC6 DUP2 MSTORE PUSH1 0x20 ADD PUSH32 0xCADF7F6FED14559A71C8120A94986DD15233AA7CBE1833E4A64D1538F7C7545 DUP2 MSTORE PUSH1 0x20 ADD PUSH32 0x288A32405234A5D5808EBDD26216CC3B037C456458CBBC04624245F884CF31EA DUP2 MSTORE PUSH1 0x20 ADD PUSH32 0x2322B693732BCD38A5BC287595C91124243F6E3BFD2589986C82D998D5286089 DUP2 MSTORE PUSH1 0x20 ADD PUSH32 0x12424A6422286C73F44CA4EF472C023DDAFA71CA4AFFF44A188141058980F1D3 DUP2 MSTORE PUSH1 0x20 ADD PUSH32 0x12382B745A02B93C31584E102AEB09D8BD471D33D0ACEC21D6E4478E5AE2AD05 DUP2 MSTORE PUSH1 0x20 ADD PUSH32 0x10A5E23FA88595F036718DB0940504DE24FF70AA93B3113612525B700C730A79 DUP2 MSTORE PUSH1 0x20 ADD PUSH32 0x21D0DA6F54A12FA3590F970017C0CF8314AC5A5F3A31D34EBE504BAF52673993 DUP2 MSTORE PUSH1 0x20 ADD PUSH32 0xC5FDEEF3B5064D8FB28BDB67BF4CF82CCDB21AB8CC3F48DBDE13E2A779086CB DUP2 MSTORE PUSH1 0x20 ADD PUSH32 0x7350301A21BA4C6ED6F0B24DDFEF0641A270BE7271942C4BC5F82078333A4E4 DUP2 MSTORE PUSH1 0x20 ADD PUSH32 0x107D51FCA8445F86C44D3148589C7E829B9E89D4013B3EA0D8CC076935B2029D DUP2 MSTORE PUSH1 0x20 ADD PUSH32 0x2D0C96327FA1F2A9AB6AFECFB7494C60A3345B76C709452624286EBB6BA34225 DUP2 MSTORE PUSH1 0x20 ADD PUSH32 0x282D020250C192491494DC757314F9B6F046E9A084236F770DD5CEA0D8261C7F DUP2 MSTORE PUSH1 0x20 ADD PUSH32 0x1F1D45D529D2ACD871B7DC98A387FFD9C0B172DA7A3E6BD4B70CB70E297F4A37 DUP2 MSTORE PUSH1 0x20 ADD PUSH32 0x1C5F400A637A690B95FCBEFD0A201AD35963F30DA3ED3204BE68FE25257194D3 DUP2 MSTORE PUSH1 0x20 ADD PUSH32 0x6EC73ABE97909B53E2F3B13C04A5EAD3C79A5C5FD1BB1028DEE3AF44E894A76 DUP2 MSTORE PUSH1 0x20 ADD PUSH32 0x173803EC88CB821831BF5B4E95DDB46F048D4F23FFC09216EAFB8FB5157DDE0B DUP2 MSTORE PUSH1 0x20 ADD PUSH32 0x2050A6D610FD945C5C1A93058981803B086B545E7F406185C1B547B9A55D752E DUP2 MSTORE PUSH1 0x20 ADD PUSH32 0x1CFAE703A5336D3624C52AA816B6229FF3EA26E9E0B888A05471D2CC2AB832F9 DUP2 MSTORE PUSH1 0x20 ADD PUSH31 0x920238B751931D557CF04214484958EF1F31248CB424E0F0FB0AC0DD78D113 DUP2 MSTORE PUSH1 0x20 ADD PUSH32 0x19460B7B47698FCCE9A08B0F5C9201993A9AA36E09E4415C9F2269A418BA63F7 DUP2 MSTORE PUSH1 0x20 ADD PUSH32 0xB32BDBD0A569FD886837697C61FC23A3B6B631959DFA787B50271B249CF62BA DUP2 MSTORE PUSH1 0x20 ADD PUSH32 0x27EB8F3F578D0F86145D16E7464119D75FAFF0149C8972DF63E45E3AA9D9BEEF DUP2 MSTORE PUSH1 0x20 ADD PUSH32 0x27F799F1CE2A5ED1E1669BEE620EAB54A6895F7E06C8742BE0B87AF49DB71227 DUP2 MSTORE PUSH1 0x20 ADD PUSH32 0x195BAB2CE40C27C5553815A87D887C5DFF3AF38B5C45D5DC18F39722DD5F1F83 DUP2 MSTORE PUSH1 0x20 ADD PUSH32 0x1C2CAFD5C56F4BE8A93E06EEC3C5FB723D8BFBB64B536CAF13D6AD5873277A85 DUP2 MSTORE PUSH1 0x20 ADD PUSH32 0x1AEA92CA3E59FF975A3913E6CEB5205985617B020F8DF64611A3B87B17791CB DUP2 MSTORE PUSH1 0x20 ADD PUSH32 0xF51D61E0665150867A59AFB240B2065427624B17BECCB46DA3F637262FB3FAA DUP2 MSTORE PUSH1 0x20 ADD PUSH32 0x1F23E3E87C40F7BA850ED06BC775DC9E798D928E14E8E35A2066337F8B85261B DUP2 MSTORE PUSH1 0x20 ADD PUSH32 0x1B296B0C2CA61A7693FCF69C7B5F7483277C4D1078CD5F19DF12F2F494FC9918 DUP2 MSTORE PUSH1 0x20 ADD PUSH32 0x11D4F84493B1BD7F9FB3463B1F1211FAE055700346A966BDC25DCBF8070C4DED DUP2 MSTORE PUSH1 0x20 ADD PUSH32 0x3591B124A5100F4AB1D04F1C8D6DAACDD598C0A7D1CFC2D891DCDF305018F72 DUP2 MSTORE PUSH1 0x20 ADD PUSH32 0x286D0964F98554397ED0378AC62009E57AD0EF010D6C9C14A66CBE5973EBB8D DUP2 MSTORE PUSH1 0x20 ADD PUSH32 0x2915BE98166B8684F23BFE4D5DB880D3094FC6F5A45C77FC604B17B0BE09F71E DUP2 MSTORE PUSH1 0x20 ADD PUSH32 0x5842457076BB32999BB4F18A38A59D9E738AA1A41364D11BE8AE28EA446CB58 DUP2 MSTORE PUSH1 0x20 ADD PUSH32 0xA09416F7BF18562A68D5273973EB673D032695AE1E20A9DB051C74CF72711A8 DUP2 MSTORE PUSH1 0x20 ADD PUSH32 0x9FE21BF0DE83B7359AF8972A1A30534E5E1DE75A61F29DA1EA3F9128F26A392 DUP2 MSTORE PUSH1 0x20 ADD PUSH32 0xDD4FE56A197133B53FEC74610FEB568826781996459722FEC0995A70375A3B8 DUP2 MSTORE PUSH1 0x20 ADD PUSH32 0x2D289E6C918E44CFD81520CB6578B8083F34709902BEE8F67F503F3D602B717F DUP2 MSTORE PUSH1 0x20 ADD PUSH32 0x2533FE6F024CDCA297E6BE92AA60DB3190E53C1CF836E8167AFC6A00EAAECAFB DUP2 MSTORE PUSH1 0x20 ADD PUSH32 0x21571AF0F8A43E057E309CE03136A16D160D947D28BE4EDD398E781BAB6263EB DUP2 MSTORE PUSH1 0x20 ADD PUSH32 0x467DD0C3D1F4DA968D51F662028283F40B9558FD5C649ACFBF4F6D33B5A2A53 DUP2 MSTORE PUSH1 0x20 ADD PUSH32 0x207A62A6D7D9CCA6A9A4985B5AB35BBCEF9E828188EDD26151A7A6F989B5CE11 DUP2 MSTORE PUSH1 0x20 ADD PUSH32 0x2BE4B2D39D059658C55FA506005E7397CB656406E8310C037AB851FBEC892D8C DUP2 MSTORE PUSH1 0x20 ADD PUSH32 0x150946FADEFF878B03D83C015E5C108B115774B0263945922F310AC52B64FC86 DUP2 MSTORE PUSH1 0x20 ADD PUSH32 0x7BE02E86E6904C2E6580F9396A029FE2DF096B53D891DCF57EBC6FBB9935525 DUP2 MSTORE PUSH1 0x20 ADD PUSH32 0x162A19E9D3670993B04862326B2BE2F48DEE94A4B62DF2D08ADDB3FB99E1C301 DUP2 MSTORE PUSH1 0x20 ADD PUSH32 0xF6496A3F2609D24C928B2BA93D9DBEF2CEB1129131CB1A49199BE4C9E13FDDC DUP2 MSTORE PUSH1 0x20 ADD PUSH32 0x2F44AE6EB7EBFB4DCC6A3BEE7A60A5A2CF15818C394A9833D41007D7DA648C0 DUP2 MSTORE POP PUSH1 0x1 SWAP1 PUSH1 0x81 PUSH3 0x2646 SWAP3 SWAP2 SWAP1 PUSH3 0x2A1F JUMP JUMPDEST POP PUSH1 0x40 DUP1 MLOAD SWAP1 DUP2 ADD PUSH1 0x40 MSTORE DUP1 PUSH32 0x198E9393920D483A7260BFB731FB5D25F1AA493335A9E71297E485B7AEF312C2 DUP2 MSTORE PUSH1 0x20 ADD PUSH32 0x21A808DAD5C50720FB7294745CF4C87812CE0EA76BAA7DF4E922615D1388F25A DUP2 MSTORE POP PUSH1 0x2 SWAP1 PUSH1 0x2 PUSH3 0x26AE SWAP3 SWAP2 SWAP1 PUSH3 0x2A71 JUMP JUMPDEST POP PUSH1 0x40 DUP1 MLOAD SWAP1 DUP2 ADD PUSH1 0x40 MSTORE DUP1 PUSH32 0x1800DEEF121F1E76426A00665E5C4479674322D4F75EDADD46DEBD5CD992F6ED DUP2 MSTORE PUSH1 0x20 ADD PUSH32 0x4C5E74C85A87F008A2FEB4B5C8A1E7F9BA9D8EB40EB02E70139C89FB1C505A9 DUP2 MSTORE POP PUSH1 0x3 SWAP1 PUSH1 0x2 PUSH3 0x2716 SWAP3 SWAP2 SWAP1 PUSH3 0x2A71 JUMP JUMPDEST POP PUSH1 0x40 DUP1 MLOAD SWAP1 DUP2 ADD PUSH1 0x40 MSTORE DUP1 PUSH32 0x90689D0585FF075EC9E99AD690C3395BC4B313370B38EF355ACDADCD122975B DUP2 MSTORE PUSH1 0x20 ADD PUSH32 0x204B66D8E1FADC307C35187A6B813BE0B46BA1CD720CD1C4EE5F68D13036B4BA DUP2 MSTORE POP PUSH1 0x4 SWAP1 PUSH1 0x2 PUSH3 0x277E SWAP3 SWAP2 SWAP1 PUSH3 0x2A71 JUMP JUMPDEST POP PUSH1 0x40 DUP1 MLOAD SWAP1 DUP2 ADD PUSH1 0x40 MSTORE DUP1 PUSH32 0x12C85EA5DB8C6DEB4AAB71808DCB408FE3D1E7690C43D37B4CE6CC0166FA7DAA DUP2 MSTORE PUSH1 0x20 ADD PUSH32 0x2D58022915FC6BC90E036E858FBC98055084AC7AFF98CCCEB0E3FDE64BC1A084 DUP2 MSTORE POP PUSH1 0x5 SWAP1 PUSH1 0x2 PUSH3 0x27E6 SWAP3 SWAP2 SWAP1 PUSH3 0x2A71 JUMP JUMPDEST POP PUSH1 0x40 DUP1 MLOAD SWAP1 DUP2 ADD PUSH1 0x40 MSTORE DUP1 PUSH1 0x0 DUP1 DUP2 SLOAD DUP2 LT ISZERO ISZERO PUSH3 0x2802 JUMPI INVALID JUMPDEST SWAP1 PUSH1 0x0 MSTORE PUSH1 0x20 PUSH1 0x0 KECCAK256 ADD SLOAD DUP2 MSTORE PUSH1 0x20 ADD PUSH1 0x1 PUSH1 0x0 DUP2 SLOAD DUP2 LT ISZERO ISZERO PUSH3 0x2823 JUMPI INVALID JUMPDEST SWAP1 PUSH1 0x0 MSTORE PUSH1 0x20 PUSH1 0x0 KECCAK256 ADD SLOAD DUP2 MSTORE POP PUSH1 0x6 PUSH1 0x0 DUP3 ADD MLOAD DUP2 PUSH1 0x0 ADD SSTORE PUSH1 0x20 DUP3 ADD MLOAD DUP2 PUSH1 0x1 ADD SSTORE POP POP PUSH1 0x40 DUP1 MLOAD SWAP1 DUP2 ADD PUSH1 0x40 MSTORE DUP1 PUSH1 0x40 DUP1 MLOAD SWAP1 DUP2 ADD PUSH1 0x40 MSTORE DUP1 PUSH1 0x2 PUSH1 0x0 DUP2 SLOAD DUP2 LT ISZERO ISZERO PUSH3 0x2870 JUMPI INVALID JUMPDEST SWAP1 PUSH1 0x0 MSTORE PUSH1 0x20 PUSH1 0x0 KECCAK256 ADD SLOAD DUP2 MSTORE PUSH1 0x20 ADD PUSH1 0x3 PUSH1 0x0 DUP2 SLOAD DUP2 LT ISZERO ISZERO PUSH3 0x2891 JUMPI INVALID JUMPDEST SWAP1 PUSH1 0x0 MSTORE PUSH1 0x20 PUSH1 0x0 KECCAK256 ADD SLOAD DUP2 MSTORE POP DUP2 MSTORE PUSH1 0x20 ADD PUSH1 0x40 DUP1 MLOAD SWAP1 DUP2 ADD PUSH1 0x40 MSTORE DUP1 PUSH1 0x4 PUSH1 0x0 DUP2 SLOAD DUP2 LT ISZERO ISZERO PUSH3 0x28C0 JUMPI INVALID JUMPDEST SWAP1 PUSH1 0x0 MSTORE PUSH1 0x20 PUSH1 0x0 KECCAK256 ADD SLOAD DUP2 MSTORE PUSH1 0x20 ADD PUSH1 0x5 PUSH1 0x0 DUP2 SLOAD DUP2 LT ISZERO ISZERO PUSH3 0x28E1 JUMPI INVALID JUMPDEST SWAP1 PUSH1 0x0 MSTORE PUSH1 0x20 PUSH1 0x0 KECCAK256 ADD SLOAD DUP2 MSTORE POP DUP2 MSTORE POP PUSH1 0x8 PUSH1 0x0 DUP3 ADD MLOAD DUP2 PUSH1 0x0 ADD SWAP1 PUSH1 0x2 PUSH3 0x290D SWAP3 SWAP2 SWAP1 PUSH3 0x2AC3 JUMP JUMPDEST POP PUSH1 0x20 DUP3 ADD MLOAD DUP2 PUSH1 0x2 ADD SWAP1 PUSH1 0x2 PUSH3 0x2927 SWAP3 SWAP2 SWAP1 PUSH3 0x2AC3 JUMP JUMPDEST POP POP POP PUSH1 0x40 DUP1 MLOAD SWAP1 DUP2 ADD PUSH1 0x40 MSTORE DUP1 PUSH1 0x40 DUP1 MLOAD SWAP1 DUP2 ADD PUSH1 0x40 MSTORE DUP1 PUSH1 0x2 PUSH1 0x1 DUP2 SLOAD DUP2 LT ISZERO ISZERO PUSH3 0x2951 JUMPI INVALID JUMPDEST SWAP1 PUSH1 0x0 MSTORE PUSH1 0x20 PUSH1 0x0 KECCAK256 ADD SLOAD DUP2 MSTORE PUSH1 0x20 ADD PUSH1 0x3 PUSH1 0x1 DUP2 SLOAD DUP2 LT ISZERO ISZERO PUSH3 0x2972 JUMPI INVALID JUMPDEST SWAP1 PUSH1 0x0 MSTORE PUSH1 0x20 PUSH1 0x0 KECCAK256 ADD SLOAD DUP2 MSTORE POP DUP2 MSTORE PUSH1 0x20 ADD PUSH1 0x40 DUP1 MLOAD SWAP1 DUP2 ADD PUSH1 0x40 MSTORE DUP1 PUSH1 0x4 PUSH1 0x1 DUP2 SLOAD DUP2 LT ISZERO ISZERO PUSH3 0x29A1 JUMPI INVALID JUMPDEST SWAP1 PUSH1 0x0 MSTORE PUSH1 0x20 PUSH1 0x0 KECCAK256 ADD SLOAD DUP2 MSTORE PUSH1 0x20 ADD PUSH1 0x5 PUSH1 0x1 DUP2 SLOAD DUP2 LT ISZERO ISZERO PUSH3 0x29C2 JUMPI INVALID JUMPDEST SWAP1 PUSH1 0x0 MSTORE PUSH1 0x20 PUSH1 0x0 KECCAK256 ADD SLOAD DUP2 MSTORE POP DUP2 MSTORE POP PUSH1 0xC PUSH1 0x0 DUP3 ADD MLOAD DUP2 PUSH1 0x0 ADD SWAP1 PUSH1 0x2 PUSH3 0x29EE SWAP3 SWAP2 SWAP1 PUSH3 0x2AC3 JUMP JUMPDEST POP PUSH1 0x20 DUP3 ADD MLOAD DUP2 PUSH1 0x2 ADD SWAP1 PUSH1 0x2 PUSH3 0x2A08 SWAP3 SWAP2 SWAP1 PUSH3 0x2AC3 JUMP JUMPDEST POP POP POP CALLVALUE DUP1 ISZERO PUSH3 0x2A18 JUMPI PUSH1 0x0 DUP1 REVERT JUMPDEST POP PUSH3 0x2B30 JUMP JUMPDEST DUP3 DUP1 SLOAD DUP3 DUP3 SSTORE SWAP1 PUSH1 0x0 MSTORE PUSH1 0x20 PUSH1 0x0 KECCAK256 SWAP1 DUP2 ADD SWAP3 DUP3 ISZERO PUSH3 0x2A5E JUMPI SWAP2 PUSH1 0x20 MUL DUP3 ADD JUMPDEST DUP3 DUP2 GT ISZERO PUSH3 0x2A5D JUMPI DUP3 MLOAD DUP3 SSTORE SWAP2 PUSH1 0x20 ADD SWAP2 SWAP1 PUSH1 0x1 ADD SWAP1 PUSH3 0x2A40 JUMP JUMPDEST JUMPDEST POP SWAP1 POP PUSH3 0x2A6D SWAP2 SWAP1 PUSH3 0x2B08 JUMP JUMPDEST POP SWAP1 JUMP JUMPDEST DUP3 DUP1 SLOAD DUP3 DUP3 SSTORE SWAP1 PUSH1 0x0 MSTORE PUSH1 0x20 PUSH1 0x0 KECCAK256 SWAP1 DUP2 ADD SWAP3 DUP3 ISZERO PUSH3 0x2AB0 JUMPI SWAP2 PUSH1 0x20 MUL DUP3 ADD JUMPDEST DUP3 DUP2 GT ISZERO PUSH3 0x2AAF JUMPI DUP3 MLOAD DUP3 SSTORE SWAP2 PUSH1 0x20 ADD SWAP2 SWAP1 PUSH1 0x1 ADD SWAP1 PUSH3 0x2A92 JUMP JUMPDEST JUMPDEST POP SWAP1 POP PUSH3 0x2ABF SWAP2 SWAP1 PUSH3 0x2B08 JUMP JUMPDEST POP SWAP1 JUMP JUMPDEST DUP3 PUSH1 0x2 DUP2 ADD SWAP3 DUP3 ISZERO PUSH3 0x2AF5 JUMPI SWAP2 PUSH1 0x20 MUL DUP3 ADD JUMPDEST DUP3 DUP2 GT ISZERO PUSH3 0x2AF4 JUMPI DUP3 MLOAD DUP3 SSTORE SWAP2 PUSH1 0x20 ADD SWAP2 SWAP1 PUSH1 0x1 ADD SWAP1 PUSH3 0x2AD7 JUMP JUMPDEST JUMPDEST POP SWAP1 POP PUSH3 0x2B04 SWAP2 SWAP1 PUSH3 0x2B08 JUMP JUMPDEST POP SWAP1 JUMP JUMPDEST PUSH3 0x2B2D SWAP2 SWAP1 JUMPDEST DUP1 DUP3 GT ISZERO PUSH3 0x2B29 JUMPI PUSH1 0x0 DUP2 PUSH1 0x0 SWAP1 SSTORE POP PUSH1 0x1 ADD PUSH3 0x2B0F JUMP JUMPDEST POP SWAP1 JUMP JUMPDEST SWAP1 JUMP JUMPDEST PUSH2 0x2306 DUP1 PUSH3 0x2B40 PUSH1 0x0 CODECOPY PUSH1 0x0 RETURN INVALID PUSH1 0x80 PUSH1 0x40 MSTORE PUSH1 0x4 CALLDATASIZE LT PUSH2 0x62 JUMPI PUSH1 0x0 CALLDATALOAD PUSH29 0x100000000000000000000000000000000000000000000000000000000 SWAP1 DIV PUSH4 0xFFFFFFFF AND DUP1 PUSH4 0x59434D4A EQ PUSH2 0x67 JUMPI DUP1 PUSH4 0x87A3B8D9 EQ PUSH2 0xA4 JUMPI DUP1 PUSH4 0x903AE890 EQ PUSH2 0xE1 JUMPI DUP1 PUSH4 0xC1EB466C EQ PUSH2 0x11E JUMPI JUMPDEST PUSH1 0x0 DUP1 REVERT JUMPDEST CALLVALUE DUP1 ISZERO PUSH2 0x73 JUMPI PUSH1 0x0 DUP1 REVERT JUMPDEST POP PUSH2 0x8E PUSH1 0x4 DUP1 CALLDATASIZE SUB PUSH2 0x89 SWAP2 SWAP1 DUP2 ADD SWAP1 PUSH2 0x15E4 JUMP JUMPDEST PUSH2 0x15B JUMP JUMPDEST PUSH1 0x40 MLOAD PUSH2 0x9B SWAP2 SWAP1 PUSH2 0x21FF JUMP JUMPDEST PUSH1 0x40 MLOAD DUP1 SWAP2 SUB SWAP1 RETURN JUMPDEST CALLVALUE DUP1 ISZERO PUSH2 0xB0 JUMPI PUSH1 0x0 DUP1 REVERT JUMPDEST POP PUSH2 0xCB PUSH1 0x4 DUP1 CALLDATASIZE SUB PUSH2 0xC6 SWAP2 SWAP1 DUP2 ADD SWAP1 PUSH2 0x16DC JUMP JUMPDEST PUSH2 0x21C JUMP JUMPDEST PUSH1 0x40 MLOAD PUSH2 0xD8 SWAP2 SWAP1 PUSH2 0x1F44 JUMP JUMPDEST PUSH1 0x40 MLOAD DUP1 SWAP2 SUB SWAP1 RETURN JUMPDEST CALLVALUE DUP1 ISZERO PUSH2 0xED JUMPI PUSH1 0x0 DUP1 REVERT JUMPDEST POP PUSH2 0x108 PUSH1 0x4 DUP1 CALLDATASIZE SUB PUSH2 0x103 SWAP2 SWAP1 DUP2 ADD SWAP1 PUSH2 0x1679 JUMP JUMPDEST PUSH2 0x910 JUMP JUMPDEST PUSH1 0x40 MLOAD PUSH2 0x115 SWAP2 SWAP1 PUSH2 0x1F44 JUMP JUMPDEST PUSH1 0x40 MLOAD DUP1 SWAP2 SUB SWAP1 RETURN JUMPDEST CALLVALUE DUP1 ISZERO PUSH2 0x12A JUMPI PUSH1 0x0 DUP1 REVERT JUMPDEST POP PUSH2 0x145 PUSH1 0x4 DUP1 CALLDATASIZE SUB PUSH2 0x140 SWAP2 SWAP1 DUP2 ADD SWAP1 PUSH2 0x1625 JUMP JUMPDEST PUSH2 0xD34 JUMP JUMPDEST PUSH1 0x40 MLOAD PUSH2 0x152 SWAP2 SWAP1 PUSH2 0x221A JUMP JUMPDEST PUSH1 0x40 MLOAD DUP1 SWAP2 SUB SWAP1 RETURN JUMPDEST PUSH2 0x163 PUSH2 0x12FA JUMP JUMPDEST PUSH2 0x16B PUSH2 0x12FA JUMP JUMPDEST PUSH1 0x40 DUP1 MLOAD SWAP1 DUP2 ADD PUSH1 0x40 MSTORE DUP1 PUSH1 0x0 DUP2 MSTORE PUSH1 0x20 ADD PUSH1 0x0 DUP2 MSTORE POP SWAP1 POP PUSH1 0x0 DUP1 SWAP1 POP JUMPDEST DUP4 MLOAD DUP2 LT ISZERO PUSH2 0x212 JUMPI PUSH2 0x203 DUP3 PUSH2 0x1FE PUSH1 0x40 DUP1 MLOAD SWAP1 DUP2 ADD PUSH1 0x40 MSTORE DUP1 PUSH1 0x0 DUP7 DUP2 SLOAD DUP2 LT ISZERO ISZERO PUSH2 0x1B4 JUMPI INVALID JUMPDEST SWAP1 PUSH1 0x0 MSTORE PUSH1 0x20 PUSH1 0x0 KECCAK256 ADD SLOAD DUP2 MSTORE PUSH1 0x20 ADD PUSH1 0x1 DUP7 DUP2 SLOAD DUP2 LT ISZERO ISZERO PUSH2 0x1D3 JUMPI INVALID JUMPDEST SWAP1 PUSH1 0x0 MSTORE PUSH1 0x20 PUSH1 0x0 KECCAK256 ADD SLOAD DUP2 MSTORE POP DUP8 DUP6 DUP2 MLOAD DUP2 LT ISZERO ISZERO PUSH2 0x1EF JUMPI INVALID JUMPDEST SWAP1 PUSH1 0x20 ADD SWAP1 PUSH1 0x20 MUL ADD MLOAD PUSH2 0xDBA JUMP JUMPDEST PUSH2 0xE8A JUMP JUMPDEST SWAP2 POP DUP1 DUP1 PUSH1 0x1 ADD SWAP2 POP POP PUSH2 0x18A JUMP JUMPDEST POP DUP1 SWAP2 POP POP SWAP2 SWAP1 POP JUMP JUMPDEST PUSH1 0x0 PUSH32 0x30644E72E131A029B85045B68181585D2833E84879B9709143E1F593F0000001 DUP8 PUSH1 0x0 ADD MLOAD LT ISZERO ISZERO PUSH2 0x286 JUMPI PUSH1 0x40 MLOAD PUSH32 0x8C379A000000000000000000000000000000000000000000000000000000000 DUP2 MSTORE PUSH1 0x4 ADD PUSH2 0x27D SWAP1 PUSH2 0x1FDF JUMP JUMPDEST PUSH1 0x40 MLOAD DUP1 SWAP2 SUB SWAP1 REVERT JUMPDEST PUSH32 0x30644E72E131A029B85045B68181585D2833E84879B9709143E1F593F0000001 DUP8 PUSH1 0x20 ADD MLOAD LT ISZERO ISZERO PUSH2 0x2EE JUMPI PUSH1 0x40 MLOAD PUSH32 0x8C379A000000000000000000000000000000000000000000000000000000000 DUP2 MSTORE PUSH1 0x4 ADD PUSH2 0x2E5 SWAP1 PUSH2 0x21BF JUMP JUMPDEST PUSH1 0x40 MLOAD DUP1 SWAP2 SUB SWAP1 REVERT JUMPDEST PUSH32 0x30644E72E131A029B85045B68181585D2833E84879B9709143E1F593F0000001 DUP7 PUSH1 0x0 ADD MLOAD PUSH1 0x0 PUSH1 0x2 DUP2 LT ISZERO ISZERO PUSH2 0x322 JUMPI INVALID JUMPDEST PUSH1 0x20 MUL ADD MLOAD LT ISZERO ISZERO PUSH2 0x369 JUMPI PUSH1 0x40 MLOAD PUSH32 0x8C379A000000000000000000000000000000000000000000000000000000000 DUP2 MSTORE PUSH1 0x4 ADD PUSH2 0x360 SWAP1 PUSH2 0x207F JUMP JUMPDEST PUSH1 0x40 MLOAD DUP1 SWAP2 SUB SWAP1 REVERT JUMPDEST PUSH32 0x30644E72E131A029B85045B68181585D2833E84879B9709143E1F593F0000001 DUP7 PUSH1 0x0 ADD MLOAD PUSH1 0x1 PUSH1 0x2 DUP2 LT ISZERO ISZERO PUSH2 0x39D JUMPI INVALID JUMPDEST PUSH1 0x20 MUL ADD MLOAD LT ISZERO ISZERO PUSH2 0x3E4 JUMPI PUSH1 0x40 MLOAD PUSH32 0x8C379A000000000000000000000000000000000000000000000000000000000 DUP2 MSTORE PUSH1 0x4 ADD PUSH2 0x3DB SWAP1 PUSH2 0x203F JUMP JUMPDEST PUSH1 0x40 MLOAD DUP1 SWAP2 SUB SWAP1 REVERT JUMPDEST PUSH32 0x30644E72E131A029B85045B68181585D2833E84879B9709143E1F593F0000001 DUP7 PUSH1 0x20 ADD MLOAD PUSH1 0x0 PUSH1 0x2 DUP2 LT ISZERO ISZERO PUSH2 0x418 JUMPI INVALID JUMPDEST PUSH1 0x20 MUL ADD MLOAD LT ISZERO ISZERO PUSH2 0x45F JUMPI PUSH1 0x40 MLOAD PUSH32 0x8C379A000000000000000000000000000000000000000000000000000000000 DUP2 MSTORE PUSH1 0x4 ADD PUSH2 0x456 SWAP1 PUSH2 0x201F JUMP JUMPDEST PUSH1 0x40 MLOAD DUP1 SWAP2 SUB SWAP1 REVERT JUMPDEST PUSH32 0x30644E72E131A029B85045B68181585D2833E84879B9709143E1F593F0000001 DUP7 PUSH1 0x20 ADD MLOAD PUSH1 0x1 PUSH1 0x2 DUP2 LT ISZERO ISZERO PUSH2 0x493 JUMPI INVALID JUMPDEST PUSH1 0x20 MUL ADD MLOAD LT ISZERO ISZERO PUSH2 0x4DA JUMPI PUSH1 0x40 MLOAD PUSH32 0x8C379A000000000000000000000000000000000000000000000000000000000 DUP2 MSTORE PUSH1 0x4 ADD PUSH2 0x4D1 SWAP1 PUSH2 0x1F9F JUMP JUMPDEST PUSH1 0x40 MLOAD DUP1 SWAP2 SUB SWAP1 REVERT JUMPDEST PUSH1 0x0 DUP1 SWAP1 POP JUMPDEST DUP4 MLOAD DUP2 LT ISZERO PUSH2 0x571 JUMPI PUSH32 0x30644E72E131A029B85045B68181585D2833E84879B9709143E1F593F0000001 DUP5 DUP3 DUP2 MLOAD DUP2 LT ISZERO ISZERO PUSH2 0x518 JUMPI INVALID JUMPDEST SWAP1 PUSH1 0x20 ADD SWAP1 PUSH1 0x20 MUL ADD MLOAD LT ISZERO ISZERO PUSH2 0x564 JUMPI PUSH1 0x40 MLOAD PUSH32 0x8C379A000000000000000000000000000000000000000000000000000000000 DUP2 MSTORE PUSH1 0x4 ADD PUSH2 0x55B SWAP1 PUSH2 0x209F JUMP JUMPDEST PUSH1 0x40 MLOAD DUP1 SWAP2 SUB SWAP1 REVERT JUMPDEST DUP1 DUP1 PUSH1 0x1 ADD SWAP2 POP POP PUSH2 0x4E0 JUMP JUMPDEST POP PUSH1 0x0 DUP1 SWAP1 POP JUMPDEST DUP3 MLOAD DUP2 LT ISZERO PUSH2 0x609 JUMPI PUSH32 0x30644E72E131A029B85045B68181585D2833E84879B9709143E1F593F0000001 DUP4 DUP3 DUP2 MLOAD DUP2 LT ISZERO ISZERO PUSH2 0x5B0 JUMPI INVALID JUMPDEST SWAP1 PUSH1 0x20 ADD SWAP1 PUSH1 0x20 MUL ADD MLOAD LT ISZERO ISZERO PUSH2 0x5FC JUMPI PUSH1 0x40 MLOAD PUSH32 0x8C379A000000000000000000000000000000000000000000000000000000000 DUP2 MSTORE PUSH1 0x4 ADD PUSH2 0x5F3 SWAP1 PUSH2 0x20DF JUMP JUMPDEST PUSH1 0x40 MLOAD DUP1 SWAP2 SUB SWAP1 REVERT JUMPDEST DUP1 DUP1 PUSH1 0x1 ADD SWAP2 POP POP PUSH2 0x578 JUMP JUMPDEST POP PUSH1 0x0 DUP1 SWAP1 POP JUMPDEST DUP6 MLOAD DUP2 LT ISZERO PUSH2 0x814 JUMPI PUSH1 0x0 DUP7 DUP3 DUP2 MLOAD DUP2 LT ISZERO ISZERO PUSH2 0x629 JUMPI INVALID JUMPDEST SWAP1 PUSH1 0x20 ADD SWAP1 PUSH1 0x20 MUL ADD MLOAD SWAP1 POP PUSH1 0x0 DUP7 DUP4 DUP2 MLOAD DUP2 LT ISZERO ISZERO PUSH2 0x645 JUMPI INVALID JUMPDEST SWAP1 PUSH1 0x20 ADD SWAP1 PUSH1 0x20 MUL ADD MLOAD SWAP1 POP PUSH32 0x30644E72E131A029B85045B68181585D2833E84879B9709143E1F593F0000001 DUP3 LT ISZERO ISZERO PUSH2 0x6B5 JUMPI PUSH1 0x40 MLOAD PUSH32 0x8C379A000000000000000000000000000000000000000000000000000000000 DUP2 MSTORE PUSH1 0x4 ADD PUSH2 0x6AC SWAP1 PUSH2 0x21DF JUMP JUMPDEST PUSH1 0x40 MLOAD DUP1 SWAP2 SUB SWAP1 REVERT JUMPDEST PUSH32 0x30644E72E131A029B85045B68181585D2833E84879B9709143E1F593F0000001 DUP2 LT ISZERO ISZERO PUSH2 0x719 JUMPI PUSH1 0x40 MLOAD PUSH32 0x8C379A000000000000000000000000000000000000000000000000000000000 DUP2 MSTORE PUSH1 0x4 ADD PUSH2 0x710 SWAP1 PUSH2 0x20BF JUMP JUMPDEST PUSH1 0x40 MLOAD DUP1 SWAP2 SUB SWAP1 REVERT JUMPDEST PUSH1 0x0 PUSH2 0x73C DUP7 DUP11 DUP7 DUP2 MLOAD DUP2 LT ISZERO ISZERO PUSH2 0x72D JUMPI INVALID JUMPDEST SWAP1 PUSH1 0x20 ADD SWAP1 PUSH1 0x20 MUL ADD MLOAD PUSH2 0xD34 JUMP JUMPDEST SWAP1 POP PUSH1 0x0 DUP2 EQ ISZERO ISZERO PUSH2 0x783 JUMPI PUSH1 0x40 MLOAD PUSH32 0x8C379A000000000000000000000000000000000000000000000000000000000 DUP2 MSTORE PUSH1 0x4 ADD PUSH2 0x77A SWAP1 PUSH2 0x219F JUMP JUMPDEST PUSH1 0x40 MLOAD DUP1 SWAP2 SUB SWAP1 REVERT JUMPDEST PUSH1 0x0 PUSH2 0x7A6 DUP9 DUP12 DUP8 DUP2 MLOAD DUP2 LT ISZERO ISZERO PUSH2 0x797 JUMPI INVALID JUMPDEST SWAP1 PUSH1 0x20 ADD SWAP1 PUSH1 0x20 MUL ADD MLOAD PUSH2 0xD34 JUMP JUMPDEST SWAP1 POP DUP9 DUP6 DUP2 MLOAD DUP2 LT ISZERO ISZERO PUSH2 0x7B6 JUMPI INVALID JUMPDEST SWAP1 PUSH1 0x20 ADD SWAP1 PUSH1 0x20 MUL ADD MLOAD DUP2 EQ ISZERO ISZERO PUSH2 0x803 JUMPI PUSH1 0x40 MLOAD PUSH32 0x8C379A000000000000000000000000000000000000000000000000000000000 DUP2 MSTORE PUSH1 0x4 ADD PUSH2 0x7FA SWAP1 PUSH2 0x213F JUMP JUMPDEST PUSH1 0x40 MLOAD DUP1 SWAP2 SUB SWAP1 REVERT JUMPDEST POP POP POP POP DUP1 DUP1 PUSH1 0x1 ADD SWAP2 POP POP PUSH2 0x610 JUMP JUMPDEST POP PUSH2 0x81D PUSH2 0x12FA JUMP JUMPDEST PUSH2 0x826 DUP4 PUSH2 0x15B JUMP JUMPDEST SWAP1 POP PUSH2 0x830 PUSH2 0x12FA JUMP JUMPDEST PUSH2 0x839 DUP6 PUSH2 0x15B JUMP JUMPDEST SWAP1 POP PUSH2 0x843 PUSH2 0x12FA JUMP JUMPDEST PUSH2 0x855 DUP11 PUSH2 0x850 DUP5 PUSH2 0xF7B JUMP JUMPDEST PUSH2 0xE8A JUMP JUMPDEST SWAP1 POP PUSH2 0x901 PUSH2 0x863 DUP5 PUSH2 0xF7B JUMP JUMPDEST DUP11 DUP4 PUSH1 0x8 PUSH1 0x40 DUP1 MLOAD SWAP1 DUP2 ADD PUSH1 0x40 MSTORE SWAP1 DUP2 PUSH1 0x0 DUP3 ADD PUSH1 0x2 DUP1 PUSH1 0x20 MUL PUSH1 0x40 MLOAD SWAP1 DUP2 ADD PUSH1 0x40 MSTORE DUP1 SWAP3 SWAP2 SWAP1 DUP3 PUSH1 0x2 DUP1 ISZERO PUSH2 0x8AE JUMPI PUSH1 0x20 MUL DUP3 ADD SWAP2 JUMPDEST DUP2 SLOAD DUP2 MSTORE PUSH1 0x20 ADD SWAP1 PUSH1 0x1 ADD SWAP1 DUP1 DUP4 GT PUSH2 0x89A JUMPI JUMPDEST POP POP POP POP POP DUP2 MSTORE PUSH1 0x20 ADD PUSH1 0x2 DUP3 ADD PUSH1 0x2 DUP1 PUSH1 0x20 MUL PUSH1 0x40 MLOAD SWAP1 DUP2 ADD PUSH1 0x40 MSTORE DUP1 SWAP3 SWAP2 SWAP1 DUP3 PUSH1 0x2 DUP1 ISZERO PUSH2 0x8F3 JUMPI PUSH1 0x20 MUL DUP3 ADD SWAP2 JUMPDEST DUP2 SLOAD DUP2 MSTORE PUSH1 0x20 ADD SWAP1 PUSH1 0x1 ADD SWAP1 DUP1 DUP4 GT PUSH2 0x8DF JUMPI JUMPDEST POP POP POP POP POP DUP2 MSTORE POP POP PUSH2 0x1030 JUMP JUMPDEST SWAP4 POP POP POP POP SWAP7 SWAP6 POP POP POP POP POP POP JUMP JUMPDEST PUSH1 0x0 PUSH32 0x30644E72E131A029B85045B68181585D2833E84879B9709143E1F593F0000001 DUP6 PUSH1 0x0 ADD MLOAD LT ISZERO ISZERO PUSH2 0x97A JUMPI PUSH1 0x40 MLOAD PUSH32 0x8C379A000000000000000000000000000000000000000000000000000000000 DUP2 MSTORE PUSH1 0x4 ADD PUSH2 0x971 SWAP1 PUSH2 0x1FBF JUMP JUMPDEST PUSH1 0x40 MLOAD DUP1 SWAP2 SUB SWAP1 REVERT JUMPDEST PUSH32 0x30644E72E131A029B85045B68181585D2833E84879B9709143E1F593F0000001 DUP6 PUSH1 0x20 ADD MLOAD LT ISZERO ISZERO PUSH2 0x9E2 JUMPI PUSH1 0x40 MLOAD PUSH32 0x8C379A000000000000000000000000000000000000000000000000000000000 DUP2 MSTORE PUSH1 0x4 ADD PUSH2 0x9D9 SWAP1 PUSH2 0x205F JUMP JUMPDEST PUSH1 0x40 MLOAD DUP1 SWAP2 SUB SWAP1 REVERT JUMPDEST PUSH32 0x30644E72E131A029B85045B68181585D2833E84879B9709143E1F593F0000001 DUP5 PUSH1 0x0 ADD MLOAD LT ISZERO ISZERO PUSH2 0xA4A JUMPI PUSH1 0x40 MLOAD PUSH32 0x8C379A000000000000000000000000000000000000000000000000000000000 DUP2 MSTORE PUSH1 0x4 ADD PUSH2 0xA41 SWAP1 PUSH2 0x1F7F JUMP JUMPDEST PUSH1 0x40 MLOAD DUP1 SWAP2 SUB SWAP1 REVERT JUMPDEST PUSH32 0x30644E72E131A029B85045B68181585D2833E84879B9709143E1F593F0000001 DUP5 PUSH1 0x20 ADD MLOAD LT ISZERO ISZERO PUSH2 0xAB2 JUMPI PUSH1 0x40 MLOAD PUSH32 0x8C379A000000000000000000000000000000000000000000000000000000000 DUP2 MSTORE PUSH1 0x4 ADD PUSH2 0xAA9 SWAP1 PUSH2 0x211F JUMP JUMPDEST PUSH1 0x40 MLOAD DUP1 SWAP2 SUB SWAP1 REVERT JUMPDEST PUSH32 0x30644E72E131A029B85045B68181585D2833E84879B9709143E1F593F0000001 DUP4 LT ISZERO ISZERO PUSH2 0xB16 JUMPI PUSH1 0x40 MLOAD PUSH32 0x8C379A000000000000000000000000000000000000000000000000000000000 DUP2 MSTORE PUSH1 0x4 ADD PUSH2 0xB0D SWAP1 PUSH2 0x1F5F JUMP JUMPDEST PUSH1 0x40 MLOAD DUP1 SWAP2 SUB SWAP1 REVERT JUMPDEST PUSH32 0x30644E72E131A029B85045B68181585D2833E84879B9709143E1F593F0000001 DUP3 LT ISZERO ISZERO PUSH2 0xB7A JUMPI PUSH1 0x40 MLOAD PUSH32 0x8C379A000000000000000000000000000000000000000000000000000000000 DUP2 MSTORE PUSH1 0x4 ADD PUSH2 0xB71 SWAP1 PUSH2 0x20FF JUMP JUMPDEST PUSH1 0x40 MLOAD DUP1 SWAP2 SUB SWAP1 REVERT JUMPDEST PUSH2 0xB82 PUSH2 0x12FA JUMP JUMPDEST PUSH2 0xBBD DUP7 PUSH2 0xBB8 PUSH2 0xBB3 PUSH1 0x6 PUSH1 0x40 DUP1 MLOAD SWAP1 DUP2 ADD PUSH1 0x40 MSTORE SWAP1 DUP2 PUSH1 0x0 DUP3 ADD SLOAD DUP2 MSTORE PUSH1 0x20 ADD PUSH1 0x1 DUP3 ADD SLOAD DUP2 MSTORE POP POP DUP8 PUSH2 0xDBA JUMP JUMPDEST PUSH2 0xF7B JUMP JUMPDEST PUSH2 0xE8A JUMP JUMPDEST SWAP1 POP PUSH2 0xBC7 PUSH2 0x12FA JUMP JUMPDEST PUSH2 0xBD0 DUP7 PUSH2 0xF7B JUMP JUMPDEST SWAP1 POP PUSH2 0xBDA PUSH2 0x12FA JUMP JUMPDEST PUSH2 0xBE4 DUP8 DUP8 PUSH2 0xDBA JUMP JUMPDEST SWAP1 POP PUSH2 0xD27 PUSH2 0xBF3 DUP3 DUP6 PUSH2 0xE8A JUMP JUMPDEST PUSH1 0x8 PUSH1 0x40 DUP1 MLOAD SWAP1 DUP2 ADD PUSH1 0x40 MSTORE SWAP1 DUP2 PUSH1 0x0 DUP3 ADD PUSH1 0x2 DUP1 PUSH1 0x20 MUL PUSH1 0x40 MLOAD SWAP1 DUP2 ADD PUSH1 0x40 MSTORE DUP1 SWAP3 SWAP2 SWAP1 DUP3 PUSH1 0x2 DUP1 ISZERO PUSH2 0xC3C JUMPI PUSH1 0x20 MUL DUP3 ADD SWAP2 JUMPDEST DUP2 SLOAD DUP2 MSTORE PUSH1 0x20 ADD SWAP1 PUSH1 0x1 ADD SWAP1 DUP1 DUP4 GT PUSH2 0xC28 JUMPI JUMPDEST POP POP POP POP POP DUP2 MSTORE PUSH1 0x20 ADD PUSH1 0x2 DUP3 ADD PUSH1 0x2 DUP1 PUSH1 0x20 MUL PUSH1 0x40 MLOAD SWAP1 DUP2 ADD PUSH1 0x40 MSTORE DUP1 SWAP3 SWAP2 SWAP1 DUP3 PUSH1 0x2 DUP1 ISZERO PUSH2 0xC81 JUMPI PUSH1 0x20 MUL DUP3 ADD SWAP2 JUMPDEST DUP2 SLOAD DUP2 MSTORE PUSH1 0x20 ADD SWAP1 PUSH1 0x1 ADD SWAP1 DUP1 DUP4 GT PUSH2 0xC6D JUMPI JUMPDEST POP POP POP POP POP DUP2 MSTORE POP POP DUP5 PUSH1 0xC PUSH1 0x40 DUP1 MLOAD SWAP1 DUP2 ADD PUSH1 0x40 MSTORE SWAP1 DUP2 PUSH1 0x0 DUP3 ADD PUSH1 0x2 DUP1 PUSH1 0x20 MUL PUSH1 0x40 MLOAD SWAP1 DUP2 ADD PUSH1 0x40 MSTORE DUP1 SWAP3 SWAP2 SWAP1 DUP3 PUSH1 0x2 DUP1 ISZERO PUSH2 0xCD4 JUMPI PUSH1 0x20 MUL DUP3 ADD SWAP2 JUMPDEST DUP2 SLOAD DUP2 MSTORE PUSH1 0x20 ADD SWAP1 PUSH1 0x1 ADD SWAP1 DUP1 DUP4 GT PUSH2 0xCC0 JUMPI JUMPDEST POP POP POP POP POP DUP2 MSTORE PUSH1 0x20 ADD PUSH1 0x2 DUP3 ADD PUSH1 0x2 DUP1 PUSH1 0x20 MUL PUSH1 0x40 MLOAD SWAP1 DUP2 ADD PUSH1 0x40 MSTORE DUP1 SWAP3 SWAP2 SWAP1 DUP3 PUSH1 0x2 DUP1 ISZERO PUSH2 0xD19 JUMPI PUSH1 0x20 MUL DUP3 ADD SWAP2 JUMPDEST DUP2 SLOAD DUP2 MSTORE PUSH1 0x20 ADD SWAP1 PUSH1 0x1 ADD SWAP1 DUP1 DUP4 GT PUSH2 0xD05 JUMPI JUMPDEST POP POP POP POP POP DUP2 MSTORE POP POP PUSH2 0x1030 JUMP JUMPDEST SWAP4 POP POP POP POP SWAP5 SWAP4 POP POP POP POP JUMP JUMPDEST PUSH1 0x0 DUP1 PUSH32 0x30644E72E131A029B85045B68181585D2833E84879B9709143E1F593F0000001 SWAP1 POP PUSH1 0x0 DUP1 SWAP1 POP PUSH1 0x0 PUSH1 0x1 SWAP1 POP PUSH1 0x0 DUP1 SWAP1 POP JUMPDEST DUP7 MLOAD DUP2 LT ISZERO PUSH2 0xDAD JUMPI PUSH1 0x0 DUP8 DUP3 DUP2 MLOAD DUP2 LT ISZERO ISZERO PUSH2 0xD84 JUMPI INVALID JUMPDEST SWAP1 PUSH1 0x20 ADD SWAP1 PUSH1 0x20 MUL ADD MLOAD SWAP1 POP DUP5 DUP6 DUP3 DUP6 MULMOD DUP6 ADDMOD SWAP4 POP DUP5 DUP8 DUP5 MULMOD SWAP3 POP POP DUP1 DUP1 PUSH1 0x1 ADD SWAP2 POP POP PUSH2 0xD6B JUMP JUMPDEST POP DUP2 SWAP4 POP POP POP POP SWAP3 SWAP2 POP POP JUMP JUMPDEST PUSH2 0xDC2 PUSH2 0x12FA JUMP JUMPDEST PUSH2 0xDCA PUSH2 0x1314 JUMP JUMPDEST DUP4 PUSH1 0x0 ADD MLOAD DUP2 PUSH1 0x0 PUSH1 0x3 DUP2 LT ISZERO ISZERO PUSH2 0xDDE JUMPI INVALID JUMPDEST PUSH1 0x20 MUL ADD DUP2 DUP2 MSTORE POP POP DUP4 PUSH1 0x20 ADD MLOAD DUP2 PUSH1 0x1 PUSH1 0x3 DUP2 LT ISZERO ISZERO PUSH2 0xDFB JUMPI INVALID JUMPDEST PUSH1 0x20 MUL ADD DUP2 DUP2 MSTORE POP POP DUP3 DUP2 PUSH1 0x2 PUSH1 0x3 DUP2 LT ISZERO ISZERO PUSH2 0xE14 JUMPI INVALID JUMPDEST PUSH1 0x20 MUL ADD DUP2 DUP2 MSTORE POP POP PUSH1 0x0 PUSH1 0x60 DUP4 PUSH1 0x80 DUP5 PUSH1 0x7 PUSH2 0x7D0 GAS SUB STATICCALL SWAP1 POP DUP1 PUSH1 0x0 DUP2 EQ PUSH2 0xE3D JUMPI PUSH2 0xE3F JUMP JUMPDEST INVALID JUMPDEST POP DUP1 ISZERO ISZERO PUSH2 0xE82 JUMPI PUSH1 0x40 MLOAD PUSH32 0x8C379A000000000000000000000000000000000000000000000000000000000 DUP2 MSTORE PUSH1 0x4 ADD PUSH2 0xE79 SWAP1 PUSH2 0x1FFF JUMP JUMPDEST PUSH1 0x40 MLOAD DUP1 SWAP2 SUB SWAP1 REVERT JUMPDEST POP POP SWAP3 SWAP2 POP POP JUMP JUMPDEST PUSH2 0xE92 PUSH2 0x12FA JUMP JUMPDEST PUSH2 0xE9A PUSH2 0x1337 JUMP JUMPDEST DUP4 PUSH1 0x0 ADD MLOAD DUP2 PUSH1 0x0 PUSH1 0x4 DUP2 LT ISZERO ISZERO PUSH2 0xEAE JUMPI INVALID JUMPDEST PUSH1 0x20 MUL ADD DUP2 DUP2 MSTORE POP POP DUP4 PUSH1 0x20 ADD MLOAD DUP2 PUSH1 0x1 PUSH1 0x4 DUP2 LT ISZERO ISZERO PUSH2 0xECB JUMPI INVALID JUMPDEST PUSH1 0x20 MUL ADD DUP2 DUP2 MSTORE POP POP DUP3 PUSH1 0x0 ADD MLOAD DUP2 PUSH1 0x2 PUSH1 0x4 DUP2 LT ISZERO ISZERO PUSH2 0xEE8 JUMPI INVALID JUMPDEST PUSH1 0x20 MUL ADD DUP2 DUP2 MSTORE POP POP DUP3 PUSH1 0x20 ADD MLOAD DUP2 PUSH1 0x3 PUSH1 0x4 DUP2 LT ISZERO ISZERO PUSH2 0xF05 JUMPI INVALID JUMPDEST PUSH1 0x20 MUL ADD DUP2 DUP2 MSTORE POP POP PUSH1 0x0 PUSH1 0x60 DUP4 PUSH1 0xC0 DUP5 PUSH1 0x6 PUSH2 0x7D0 GAS SUB STATICCALL SWAP1 POP DUP1 PUSH1 0x0 DUP2 EQ PUSH2 0xF2E JUMPI PUSH2 0xF30 JUMP JUMPDEST INVALID JUMPDEST POP DUP1 ISZERO ISZERO PUSH2 0xF73 JUMPI PUSH1 0x40 MLOAD PUSH32 0x8C379A000000000000000000000000000000000000000000000000000000000 DUP2 MSTORE PUSH1 0x4 ADD PUSH2 0xF6A SWAP1 PUSH2 0x215F JUMP JUMPDEST PUSH1 0x40 MLOAD DUP1 SWAP2 SUB SWAP1 REVERT JUMPDEST POP POP SWAP3 SWAP2 POP POP JUMP JUMPDEST PUSH2 0xF83 PUSH2 0x12FA JUMP JUMPDEST PUSH1 0x0 DUP3 PUSH1 0x0 ADD MLOAD EQ DUP1 ISZERO PUSH2 0xF9B JUMPI POP PUSH1 0x0 DUP3 PUSH1 0x20 ADD MLOAD EQ JUMPDEST ISZERO PUSH2 0xFBE JUMPI PUSH1 0x40 DUP1 MLOAD SWAP1 DUP2 ADD PUSH1 0x40 MSTORE DUP1 PUSH1 0x0 DUP2 MSTORE PUSH1 0x20 ADD PUSH1 0x0 DUP2 MSTORE POP SWAP1 POP PUSH2 0x102B JUMP JUMPDEST PUSH1 0x40 DUP1 MLOAD SWAP1 DUP2 ADD PUSH1 0x40 MSTORE DUP1 DUP4 PUSH1 0x0 ADD MLOAD DUP2 MSTORE PUSH1 0x20 ADD PUSH32 0x30644E72E131A029B85045B68181585D97816A916871CA8D3C208C16D87CFD47 DUP5 PUSH1 0x20 ADD MLOAD DUP2 ISZERO ISZERO PUSH2 0x1002 JUMPI INVALID JUMPDEST MOD PUSH32 0x30644E72E131A029B85045B68181585D97816A916871CA8D3C208C16D87CFD47 SUB DUP2 MSTORE POP SWAP1 POP JUMPDEST SWAP2 SWAP1 POP JUMP JUMPDEST PUSH1 0x0 PUSH2 0x103A PUSH2 0x135A JUMP JUMPDEST PUSH1 0x40 DUP1 MLOAD SWAP1 DUP2 ADD PUSH1 0x40 MSTORE DUP1 DUP8 DUP2 MSTORE PUSH1 0x20 ADD DUP6 DUP2 MSTORE POP SWAP1 POP PUSH2 0x1059 PUSH2 0x1388 JUMP JUMPDEST PUSH1 0x40 DUP1 MLOAD SWAP1 DUP2 ADD PUSH1 0x40 MSTORE DUP1 DUP8 DUP2 MSTORE PUSH1 0x20 ADD DUP6 DUP2 MSTORE POP SWAP1 POP PUSH1 0x0 PUSH1 0xC SWAP1 POP PUSH1 0x60 DUP2 PUSH1 0x40 MLOAD SWAP1 DUP1 DUP3 MSTORE DUP1 PUSH1 0x20 MUL PUSH1 0x20 ADD DUP3 ADD PUSH1 0x40 MSTORE DUP1 ISZERO PUSH2 0x10A7 JUMPI DUP2 PUSH1 0x20 ADD PUSH1 0x20 DUP3 MUL DUP1 CODESIZE DUP4 CODECOPY DUP1 DUP3 ADD SWAP2 POP POP SWAP1 POP JUMPDEST POP SWAP1 POP PUSH1 0x0 DUP1 SWAP1 POP JUMPDEST PUSH1 0x2 DUP2 LT ISZERO PUSH2 0x125F JUMPI PUSH1 0x0 PUSH1 0x6 DUP3 MUL SWAP1 POP DUP6 DUP3 PUSH1 0x2 DUP2 LT ISZERO ISZERO PUSH2 0x10CF JUMPI INVALID JUMPDEST PUSH1 0x20 MUL ADD MLOAD PUSH1 0x0 ADD MLOAD DUP4 PUSH1 0x0 DUP4 ADD DUP2 MLOAD DUP2 LT ISZERO ISZERO PUSH2 0x10E9 JUMPI INVALID JUMPDEST SWAP1 PUSH1 0x20 ADD SWAP1 PUSH1 0x20 MUL ADD DUP2 DUP2 MSTORE POP POP DUP6 DUP3 PUSH1 0x2 DUP2 LT ISZERO ISZERO PUSH2 0x1105 JUMPI INVALID JUMPDEST PUSH1 0x20 MUL ADD MLOAD PUSH1 0x20 ADD MLOAD DUP4 PUSH1 0x1 DUP4 ADD DUP2 MLOAD DUP2 LT ISZERO ISZERO PUSH2 0x111F JUMPI INVALID JUMPDEST SWAP1 PUSH1 0x20 ADD SWAP1 PUSH1 0x20 MUL ADD DUP2 DUP2 MSTORE POP POP DUP5 DUP3 PUSH1 0x2 DUP2 LT ISZERO ISZERO PUSH2 0x113B JUMPI INVALID JUMPDEST PUSH1 0x20 MUL ADD MLOAD PUSH1 0x0 ADD MLOAD PUSH1 0x0 PUSH1 0x2 DUP2 LT ISZERO ISZERO PUSH2 0x1152 JUMPI INVALID JUMPDEST PUSH1 0x20 MUL ADD MLOAD DUP4 PUSH1 0x2 DUP4 ADD DUP2 MLOAD DUP2 LT ISZERO ISZERO PUSH2 0x1168 JUMPI INVALID JUMPDEST SWAP1 PUSH1 0x20 ADD SWAP1 PUSH1 0x20 MUL ADD DUP2 DUP2 MSTORE POP POP DUP5 DUP3 PUSH1 0x2 DUP2 LT ISZERO ISZERO PUSH2 0x1184 JUMPI INVALID JUMPDEST PUSH1 0x20 MUL ADD MLOAD PUSH1 0x0 ADD MLOAD PUSH1 0x1 PUSH1 0x2 DUP2 LT ISZERO ISZERO PUSH2 0x119B JUMPI INVALID JUMPDEST PUSH1 0x20 MUL ADD MLOAD DUP4 PUSH1 0x3 DUP4 ADD DUP2 MLOAD DUP2 LT ISZERO ISZERO PUSH2 0x11B1 JUMPI INVALID JUMPDEST SWAP1 PUSH1 0x20 ADD SWAP1 PUSH1 0x20 MUL ADD DUP2 DUP2 MSTORE POP POP DUP5 DUP3 PUSH1 0x2 DUP2 LT ISZERO ISZERO PUSH2 0x11CD JUMPI INVALID JUMPDEST PUSH1 0x20 MUL ADD MLOAD PUSH1 0x20 ADD MLOAD PUSH1 0x0 PUSH1 0x2 DUP2 LT ISZERO ISZERO PUSH2 0x11E4 JUMPI INVALID JUMPDEST PUSH1 0x20 MUL ADD MLOAD DUP4 PUSH1 0x4 DUP4 ADD DUP2 MLOAD DUP2 LT ISZERO ISZERO PUSH2 0x11FA JUMPI INVALID JUMPDEST SWAP1 PUSH1 0x20 ADD SWAP1 PUSH1 0x20 MUL ADD DUP2 DUP2 MSTORE POP POP DUP5 DUP3 PUSH1 0x2 DUP2 LT ISZERO ISZERO PUSH2 0x1216 JUMPI INVALID JUMPDEST PUSH1 0x20 MUL ADD MLOAD PUSH1 0x20 ADD MLOAD PUSH1 0x1 PUSH1 0x2 DUP2 LT ISZERO ISZERO PUSH2 0x122D JUMPI INVALID JUMPDEST PUSH1 0x20 MUL ADD MLOAD DUP4 PUSH1 0x5 DUP4 ADD DUP2 MLOAD DUP2 LT ISZERO ISZERO PUSH2 0x1243 JUMPI INVALID JUMPDEST SWAP1 PUSH1 0x20 ADD SWAP1 PUSH1 0x20 MUL ADD DUP2 DUP2 MSTORE POP POP POP DUP1 DUP1 PUSH1 0x1 ADD SWAP2 POP POP PUSH2 0x10B0 JUMP JUMPDEST POP PUSH2 0x1268 PUSH2 0x13B7 JUMP JUMPDEST PUSH1 0x0 PUSH1 0x20 DUP3 PUSH1 0x20 DUP7 MUL PUSH1 0x20 DUP7 ADD PUSH1 0x8 PUSH2 0x7D0 GAS SUB STATICCALL SWAP1 POP DUP1 PUSH1 0x0 DUP2 EQ PUSH2 0x128D JUMPI PUSH2 0x128F JUMP JUMPDEST INVALID JUMPDEST POP DUP1 ISZERO ISZERO PUSH2 0x12D2 JUMPI PUSH1 0x40 MLOAD PUSH32 0x8C379A000000000000000000000000000000000000000000000000000000000 DUP2 MSTORE PUSH1 0x4 ADD PUSH2 0x12C9 SWAP1 PUSH2 0x217F JUMP JUMPDEST PUSH1 0x40 MLOAD DUP1 SWAP2 SUB SWAP1 REVERT JUMPDEST PUSH1 0x0 DUP3 PUSH1 0x0 PUSH1 0x1 DUP2 LT ISZERO ISZERO PUSH2 0x12E3 JUMPI INVALID JUMPDEST PUSH1 0x20 MUL ADD MLOAD EQ ISZERO SWAP7 POP POP POP POP POP POP POP SWAP5 SWAP4 POP POP POP POP JUMP JUMPDEST PUSH1 0x40 DUP1 MLOAD SWAP1 DUP2 ADD PUSH1 0x40 MSTORE DUP1 PUSH1 0x0 DUP2 MSTORE PUSH1 0x20 ADD PUSH1 0x0 DUP2 MSTORE POP SWAP1 JUMP JUMPDEST PUSH1 0x60 PUSH1 0x40 MLOAD SWAP1 DUP2 ADD PUSH1 0x40 MSTORE DUP1 PUSH1 0x3 SWAP1 PUSH1 0x20 DUP3 MUL DUP1 CODESIZE DUP4 CODECOPY DUP1 DUP3 ADD SWAP2 POP POP SWAP1 POP POP SWAP1 JUMP JUMPDEST PUSH1 0x80 PUSH1 0x40 MLOAD SWAP1 DUP2 ADD PUSH1 0x40 MSTORE DUP1 PUSH1 0x4 SWAP1 PUSH1 0x20 DUP3 MUL DUP1 CODESIZE DUP4 CODECOPY DUP1 DUP3 ADD SWAP2 POP POP SWAP1 POP POP SWAP1 JUMP JUMPDEST PUSH1 0x80 PUSH1 0x40 MLOAD SWAP1 DUP2 ADD PUSH1 0x40 MSTORE DUP1 PUSH1 0x2 SWAP1 JUMPDEST PUSH2 0x1372 PUSH2 0x13DA JUMP JUMPDEST DUP2 MSTORE PUSH1 0x20 ADD SWAP1 PUSH1 0x1 SWAP1 SUB SWAP1 DUP2 PUSH2 0x136A JUMPI SWAP1 POP POP SWAP1 JUMP JUMPDEST PUSH2 0x100 PUSH1 0x40 MLOAD SWAP1 DUP2 ADD PUSH1 0x40 MSTORE DUP1 PUSH1 0x2 SWAP1 JUMPDEST PUSH2 0x13A1 PUSH2 0x13F4 JUMP JUMPDEST DUP2 MSTORE PUSH1 0x20 ADD SWAP1 PUSH1 0x1 SWAP1 SUB SWAP1 DUP2 PUSH2 0x1399 JUMPI SWAP1 POP POP SWAP1 JUMP JUMPDEST PUSH1 0x20 PUSH1 0x40 MLOAD SWAP1 DUP2 ADD PUSH1 0x40 MSTORE DUP1 PUSH1 0x1 SWAP1 PUSH1 0x20 DUP3 MUL DUP1 CODESIZE DUP4 CODECOPY DUP1 DUP3 ADD SWAP2 POP POP SWAP1 POP POP SWAP1 JUMP JUMPDEST PUSH1 0x40 DUP1 MLOAD SWAP1 DUP2 ADD PUSH1 0x40 MSTORE DUP1 PUSH1 0x0 DUP2 MSTORE PUSH1 0x20 ADD PUSH1 0x0 DUP2 MSTORE POP SWAP1 JUMP JUMPDEST PUSH1 0x80 PUSH1 0x40 MLOAD SWAP1 DUP2 ADD PUSH1 0x40 MSTORE DUP1 PUSH2 0x1408 PUSH2 0x141B JUMP JUMPDEST DUP2 MSTORE PUSH1 0x20 ADD PUSH2 0x1415 PUSH2 0x141B JUMP JUMPDEST DUP2 MSTORE POP SWAP1 JUMP JUMPDEST PUSH1 0x40 DUP1 MLOAD SWAP1 DUP2 ADD PUSH1 0x40 MSTORE DUP1 PUSH1 0x2 SWAP1 PUSH1 0x20 DUP3 MUL DUP1 CODESIZE DUP4 CODECOPY DUP1 DUP3 ADD SWAP2 POP POP SWAP1 POP POP SWAP1 JUMP JUMPDEST PUSH1 0x0 DUP3 PUSH1 0x1F DUP4 ADD SLT ISZERO ISZERO PUSH2 0x1450 JUMPI PUSH1 0x0 DUP1 REVERT JUMPDEST PUSH1 0x2 PUSH2 0x1463 PUSH2 0x145E DUP3 PUSH2 0x2262 JUMP JUMPDEST PUSH2 0x2235 JUMP JUMPDEST SWAP2 POP DUP2 DUP4 DUP6 PUSH1 0x20 DUP5 MUL DUP3 ADD GT ISZERO PUSH2 0x1479 JUMPI PUSH1 0x0 DUP1 REVERT JUMPDEST PUSH1 0x0 JUMPDEST DUP4 DUP2 LT ISZERO PUSH2 0x14A9 JUMPI DUP2 PUSH2 0x148F DUP9 DUP3 PUSH2 0x15D0 JUMP JUMPDEST DUP5 MSTORE PUSH1 0x20 DUP5 ADD SWAP4 POP PUSH1 0x20 DUP4 ADD SWAP3 POP POP PUSH1 0x1 DUP2 ADD SWAP1 POP PUSH2 0x147C JUMP JUMPDEST POP POP POP POP SWAP3 SWAP2 POP POP JUMP JUMPDEST PUSH1 0x0 DUP3 PUSH1 0x1F DUP4 ADD SLT ISZERO ISZERO PUSH2 0x14C6 JUMPI PUSH1 0x0 DUP1 REVERT JUMPDEST DUP2 CALLDATALOAD PUSH2 0x14D9 PUSH2 0x14D4 DUP3 PUSH2 0x2284 JUMP JUMPDEST PUSH2 0x2235 JUMP JUMPDEST SWAP2 POP DUP2 DUP2 DUP4 MSTORE PUSH1 0x20 DUP5 ADD SWAP4 POP PUSH1 0x20 DUP2 ADD SWAP1 POP DUP4 DUP6 PUSH1 0x20 DUP5 MUL DUP3 ADD GT ISZERO PUSH2 0x14FE JUMPI PUSH1 0x0 DUP1 REVERT JUMPDEST PUSH1 0x0 JUMPDEST DUP4 DUP2 LT ISZERO PUSH2 0x152E JUMPI DUP2 PUSH2 0x1514 DUP9 DUP3 PUSH2 0x15D0 JUMP JUMPDEST DUP5 MSTORE PUSH1 0x20 DUP5 ADD SWAP4 POP PUSH1 0x20 DUP4 ADD SWAP3 POP POP PUSH1 0x1 DUP2 ADD SWAP1 POP PUSH2 0x1501 JUMP JUMPDEST POP POP POP POP SWAP3 SWAP2 POP POP JUMP JUMPDEST PUSH1 0x0 PUSH1 0x40 DUP3 DUP5 SUB SLT ISZERO PUSH2 0x154A JUMPI PUSH1 0x0 DUP1 REVERT JUMPDEST PUSH2 0x1554 PUSH1 0x40 PUSH2 0x2235 JUMP JUMPDEST SWAP1 POP PUSH1 0x0 PUSH2 0x1564 DUP5 DUP3 DUP6 ADD PUSH2 0x15D0 JUMP JUMPDEST PUSH1 0x0 DUP4 ADD MSTORE POP PUSH1 0x20 PUSH2 0x1578 DUP5 DUP3 DUP6 ADD PUSH2 0x15D0 JUMP JUMPDEST PUSH1 0x20 DUP4 ADD MSTORE POP SWAP3 SWAP2 POP POP JUMP JUMPDEST PUSH1 0x0 PUSH1 0x80 DUP3 DUP5 SUB SLT ISZERO PUSH2 0x1596 JUMPI PUSH1 0x0 DUP1 REVERT JUMPDEST PUSH2 0x15A0 PUSH1 0x40 PUSH2 0x2235 JUMP JUMPDEST SWAP1 POP PUSH1 0x0 PUSH2 0x15B0 DUP5 DUP3 DUP6 ADD PUSH2 0x143D JUMP JUMPDEST PUSH1 0x0 DUP4 ADD MSTORE POP PUSH1 0x40 PUSH2 0x15C4 DUP5 DUP3 DUP6 ADD PUSH2 0x143D JUMP JUMPDEST PUSH1 0x20 DUP4 ADD MSTORE POP SWAP3 SWAP2 POP POP JUMP JUMPDEST PUSH1 0x0 PUSH2 0x15DC DUP3 CALLDATALOAD PUSH2 0x22C2 JUMP JUMPDEST SWAP1 POP SWAP3 SWAP2 POP POP JUMP JUMPDEST PUSH1 0x0 PUSH1 0x20 DUP3 DUP5 SUB SLT ISZERO PUSH2 0x15F6 JUMPI PUSH1 0x0 DUP1 REVERT JUMPDEST PUSH1 0x0 DUP3 ADD CALLDATALOAD PUSH8 0xFFFFFFFFFFFFFFFF DUP2 GT ISZERO PUSH2 0x1610 JUMPI PUSH1 0x0 DUP1 REVERT JUMPDEST PUSH2 0x161C DUP5 DUP3 DUP6 ADD PUSH2 0x14B3 JUMP JUMPDEST SWAP2 POP POP SWAP3 SWAP2 POP POP JUMP JUMPDEST PUSH1 0x0 DUP1 PUSH1 0x40 DUP4 DUP6 SUB SLT ISZERO PUSH2 0x1638 JUMPI PUSH1 0x0 DUP1 REVERT JUMPDEST PUSH1 0x0 DUP4 ADD CALLDATALOAD PUSH8 0xFFFFFFFFFFFFFFFF DUP2 GT ISZERO PUSH2 0x1652 JUMPI PUSH1 0x0 DUP1 REVERT JUMPDEST PUSH2 0x165E DUP6 DUP3 DUP7 ADD PUSH2 0x14B3 JUMP JUMPDEST SWAP3 POP POP PUSH1 0x20 PUSH2 0x166F DUP6 DUP3 DUP7 ADD PUSH2 0x15D0 JUMP JUMPDEST SWAP2 POP POP SWAP3 POP SWAP3 SWAP1 POP JUMP JUMPDEST PUSH1 0x0 DUP1 PUSH1 0x0 DUP1 PUSH1 0xC0 DUP6 DUP8 SUB SLT ISZERO PUSH2 0x168F JUMPI PUSH1 0x0 DUP1 REVERT JUMPDEST PUSH1 0x0 PUSH2 0x169D DUP8 DUP3 DUP9 ADD PUSH2 0x1538 JUMP JUMPDEST SWAP5 POP POP PUSH1 0x40 PUSH2 0x16AE DUP8 DUP3 DUP9 ADD PUSH2 0x1538 JUMP JUMPDEST SWAP4 POP POP PUSH1 0x80 PUSH2 0x16BF DUP8 DUP3 DUP9 ADD PUSH2 0x15D0 JUMP JUMPDEST SWAP3 POP POP PUSH1 0xA0 PUSH2 0x16D0 DUP8 DUP3 DUP9 ADD PUSH2 0x15D0 JUMP JUMPDEST SWAP2 POP POP SWAP3 SWAP6 SWAP2 SWAP5 POP SWAP3 POP JUMP JUMPDEST PUSH1 0x0 DUP1 PUSH1 0x0 DUP1 PUSH1 0x0 DUP1 PUSH2 0x140 DUP8 DUP10 SUB SLT ISZERO PUSH2 0x16F6 JUMPI PUSH1 0x0 DUP1 REVERT JUMPDEST PUSH1 0x0 PUSH2 0x1704 DUP10 DUP3 DUP11 ADD PUSH2 0x1538 JUMP JUMPDEST SWAP7 POP POP PUSH1 0x40 PUSH2 0x1715 DUP10 DUP3 DUP11 ADD PUSH2 0x1584 JUMP JUMPDEST SWAP6 POP POP PUSH1 0xC0 DUP8 ADD CALLDATALOAD PUSH8 0xFFFFFFFFFFFFFFFF DUP2 GT ISZERO PUSH2 0x1732 JUMPI PUSH1 0x0 DUP1 REVERT JUMPDEST PUSH2 0x173E DUP10 DUP3 DUP11 ADD PUSH2 0x14B3 JUMP JUMPDEST SWAP5 POP POP PUSH1 0xE0 DUP8 ADD CALLDATALOAD PUSH8 0xFFFFFFFFFFFFFFFF DUP2 GT ISZERO PUSH2 0x175B JUMPI PUSH1 0x0 DUP1 REVERT JUMPDEST PUSH2 0x1767 DUP10 DUP3 DUP11 ADD PUSH2 0x14B3 JUMP JUMPDEST SWAP4 POP POP PUSH2 0x100 DUP8 ADD CALLDATALOAD PUSH8 0xFFFFFFFFFFFFFFFF DUP2 GT ISZERO PUSH2 0x1785 JUMPI PUSH1 0x0 DUP1 REVERT JUMPDEST PUSH2 0x1791 DUP10 DUP3 DUP11 ADD PUSH2 0x14B3 JUMP JUMPDEST SWAP3 POP POP PUSH2 0x120 DUP8 ADD CALLDATALOAD PUSH8 0xFFFFFFFFFFFFFFFF DUP2 GT ISZERO PUSH2 0x17AF JUMPI PUSH1 0x0 DUP1 REVERT JUMPDEST PUSH2 0x17BB DUP10 DUP3 DUP11 ADD PUSH2 0x14B3 JUMP JUMPDEST SWAP2 POP POP SWAP3 SWAP6 POP SWAP3 SWAP6 POP SWAP3 SWAP6 JUMP JUMPDEST PUSH2 0x17D1 DUP2 PUSH2 0x22AC JUMP JUMPDEST DUP3 MSTORE POP POP JUMP JUMPDEST PUSH1 0x0 PUSH1 0x2A DUP3 MSTORE PUSH32 0x56657269666965722E7665726966794B5A473A205F696E646578206973206F75 PUSH1 0x20 DUP4 ADD MSTORE PUSH32 0x74206F662072616E676500000000000000000000000000000000000000000000 PUSH1 0x40 DUP4 ADD MSTORE PUSH1 0x60 DUP3 ADD SWAP1 POP SWAP2 SWAP1 POP JUMP JUMPDEST PUSH1 0x0 PUSH1 0x2C DUP3 MSTORE PUSH32 0x56657269666965722E7665726966794B5A473A205F70726F6F662E5820697320 PUSH1 0x20 DUP4 ADD MSTORE PUSH32 0x6F7574206F662072616E67650000000000000000000000000000000000000000 PUSH1 0x40 DUP4 ADD MSTORE PUSH1 0x60 DUP3 ADD SWAP1 POP SWAP2 SWAP1 POP JUMP JUMPDEST PUSH1 0x0 PUSH1 0x2F DUP3 MSTORE PUSH32 0x56657269666965722E7665726966794B5A473A205F70726F6F662E595B315D20 PUSH1 0x20 DUP4 ADD MSTORE PUSH32 0x6973206F7574206F662072616E67650000000000000000000000000000000000 PUSH1 0x40 DUP4 ADD MSTORE PUSH1 0x60 DUP3 ADD SWAP1 POP SWAP2 SWAP1 POP JUMP JUMPDEST PUSH1 0x0 PUSH1 0x31 DUP3 MSTORE PUSH32 0x56657269666965722E7665726966794B5A473A205F636F6D6D69746D656E742E PUSH1 0x20 DUP4 ADD MSTORE PUSH32 0x58206973206F7574206F662072616E6765000000000000000000000000000000 PUSH1 0x40 DUP4 ADD MSTORE PUSH1 0x60 DUP3 ADD SWAP1 POP SWAP2 SWAP1 POP JUMP JUMPDEST PUSH1 0x0 PUSH1 0x36 DUP3 MSTORE PUSH32 0x56657269666965722E7665726966794D756C74694B5A473A205F636F6D6D6974 PUSH1 0x20 DUP4 ADD MSTORE PUSH32 0x6D656E742E58206973206F7574206F662072616E676500000000000000000000 PUSH1 0x40 DUP4 ADD MSTORE PUSH1 0x60 DUP3 ADD SWAP1 POP SWAP2 SWAP1 POP JUMP JUMPDEST PUSH1 0x0 PUSH1 0x12 DUP3 MSTORE PUSH32 0x70616972696E672D6D756C2D6661696C65640000000000000000000000000000 PUSH1 0x20 DUP4 ADD MSTORE PUSH1 0x40 DUP3 ADD SWAP1 POP SWAP2 SWAP1 POP JUMP JUMPDEST PUSH1 0x0 PUSH1 0x2F DUP3 MSTORE PUSH32 0x56657269666965722E7665726966794B5A473A205F70726F6F662E595B305D20 PUSH1 0x20 DUP4 ADD MSTORE PUSH32 0x6973206F7574206F662072616E67650000000000000000000000000000000000 PUSH1 0x40 DUP4 ADD MSTORE PUSH1 0x60 DUP3 ADD SWAP1 POP SWAP2 SWAP1 POP JUMP JUMPDEST PUSH1 0x0 PUSH1 0x2F DUP3 MSTORE PUSH32 0x56657269666965722E7665726966794B5A473A205F70726F6F662E585B315D20 PUSH1 0x20 DUP4 ADD MSTORE PUSH32 0x6973206F7574206F662072616E67650000000000000000000000000000000000 PUSH1 0x40 DUP4 ADD MSTORE PUSH1 0x60 DUP3 ADD SWAP1 POP SWAP2 SWAP1 POP JUMP JUMPDEST PUSH1 0x0 PUSH1 0x31 DUP3 MSTORE PUSH32 0x56657269666965722E7665726966794B5A473A205F636F6D6D69746D656E742E PUSH1 0x20 DUP4 ADD MSTORE PUSH32 0x59206973206F7574206F662072616E6765000000000000000000000000000000 PUSH1 0x40 DUP4 ADD MSTORE PUSH1 0x60 DUP3 ADD SWAP1 POP SWAP2 SWAP1 POP JUMP JUMPDEST PUSH1 0x0 PUSH1 0x2F DUP3 MSTORE PUSH32 0x56657269666965722E7665726966794B5A473A205F70726F6F662E585B305D20 PUSH1 0x20 DUP4 ADD MSTORE PUSH32 0x6973206F7574206F662072616E67650000000000000000000000000000000000 PUSH1 0x40 DUP4 ADD MSTORE PUSH1 0x60 DUP3 ADD SWAP1 POP SWAP2 SWAP1 POP JUMP JUMPDEST PUSH1 0x0 PUSH1 0x35 DUP3 MSTORE PUSH32 0x56657269666965722E7665726966794B5A473A20616E205F69436F6566667320 PUSH1 0x20 DUP4 ADD MSTORE PUSH32 0x76616C7565206973206F7574206F662072616E67650000000000000000000000 PUSH1 0x40 DUP4 ADD MSTORE PUSH1 0x60 DUP3 ADD SWAP1 POP SWAP2 SWAP1 POP JUMP JUMPDEST PUSH1 0x0 PUSH1 0x2B DUP3 MSTORE PUSH32 0x56657269666965722E7665726966794B5A473A20612076616C7565206973206F PUSH1 0x20 DUP4 ADD MSTORE PUSH32 0x7574206F662072616E6765000000000000000000000000000000000000000000 PUSH1 0x40 DUP4 ADD MSTORE PUSH1 0x60 DUP3 ADD SWAP1 POP SWAP2 SWAP1 POP JUMP JUMPDEST PUSH1 0x0 PUSH1 0x35 DUP3 MSTORE PUSH32 0x56657269666965722E7665726966794B5A473A20616E205F7A436F6566667320 PUSH1 0x20 DUP4 ADD MSTORE PUSH32 0x76616C7565206973206F7574206F662072616E67650000000000000000000000 PUSH1 0x40 DUP4 ADD MSTORE PUSH1 0x60 DUP3 ADD SWAP1 POP SWAP2 SWAP1 POP JUMP JUMPDEST PUSH1 0x0 PUSH1 0x2A DUP3 MSTORE PUSH32 0x56657269666965722E7665726966794B5A473A205F76616C7565206973206F75 PUSH1 0x20 DUP4 ADD MSTORE PUSH32 0x74206F662072616E676500000000000000000000000000000000000000000000 PUSH1 0x40 DUP4 ADD MSTORE PUSH1 0x60 DUP3 ADD SWAP1 POP SWAP2 SWAP1 POP JUMP JUMPDEST PUSH1 0x0 PUSH1 0x2C DUP3 MSTORE PUSH32 0x56657269666965722E7665726966794B5A473A205F70726F6F662E5920697320 PUSH1 0x20 DUP4 ADD MSTORE PUSH32 0x6F7574206F662072616E67650000000000000000000000000000000000000000 PUSH1 0x40 DUP4 ADD MSTORE PUSH1 0x60 DUP3 ADD SWAP1 POP SWAP2 SWAP1 POP JUMP JUMPDEST PUSH1 0x0 PUSH1 0x26 DUP3 MSTORE PUSH32 0x56657269666965722E7665726966794D756C74693A20696E76616C6964205F69 PUSH1 0x20 DUP4 ADD MSTORE PUSH32 0x436F656666730000000000000000000000000000000000000000000000000000 PUSH1 0x40 DUP4 ADD MSTORE PUSH1 0x60 DUP3 ADD SWAP1 POP SWAP2 SWAP1 POP JUMP JUMPDEST PUSH1 0x0 PUSH1 0x12 DUP3 MSTORE PUSH32 0x70616972696E672D6164642D6661696C65640000000000000000000000000000 PUSH1 0x20 DUP4 ADD MSTORE PUSH1 0x40 DUP3 ADD SWAP1 POP SWAP2 SWAP1 POP JUMP JUMPDEST PUSH1 0x0 PUSH1 0x15 DUP3 MSTORE PUSH32 0x70616972696E672D6F70636F64652D6661696C65640000000000000000000000 PUSH1 0x20 DUP4 ADD MSTORE PUSH1 0x40 DUP3 ADD SWAP1 POP SWAP2 SWAP1 POP JUMP JUMPDEST PUSH1 0x0 PUSH1 0x26 DUP3 MSTORE PUSH32 0x56657269666965722E7665726966794D756C74693A20696E76616C6964205F7A PUSH1 0x20 DUP4 ADD MSTORE PUSH32 0x436F656666730000000000000000000000000000000000000000000000000000 PUSH1 0x40 DUP4 ADD MSTORE PUSH1 0x60 DUP3 ADD SWAP1 POP SWAP2 SWAP1 POP JUMP JUMPDEST PUSH1 0x0 PUSH1 0x36 DUP3 MSTORE PUSH32 0x56657269666965722E7665726966794D756C74694B5A473A205F636F6D6D6974 PUSH1 0x20 DUP4 ADD MSTORE PUSH32 0x6D656E742E59206973206F7574206F662072616E676500000000000000000000 PUSH1 0x40 DUP4 ADD MSTORE PUSH1 0x60 DUP3 ADD SWAP1 POP SWAP2 SWAP1 POP JUMP JUMPDEST PUSH1 0x0 PUSH1 0x2C DUP3 MSTORE PUSH32 0x56657269666965722E7665726966794B5A473A20616E20696E64657820697320 PUSH1 0x20 DUP4 ADD MSTORE PUSH32 0x6F7574206F662072616E67650000000000000000000000000000000000000000 PUSH1 0x40 DUP4 ADD MSTORE PUSH1 0x60 DUP3 ADD SWAP1 POP SWAP2 SWAP1 POP JUMP JUMPDEST PUSH1 0x40 DUP3 ADD PUSH1 0x0 DUP3 ADD MLOAD PUSH2 0x1F1C PUSH1 0x0 DUP6 ADD DUP3 PUSH2 0x1F35 JUMP JUMPDEST POP PUSH1 0x20 DUP3 ADD MLOAD PUSH2 0x1F2F PUSH1 0x20 DUP6 ADD DUP3 PUSH2 0x1F35 JUMP JUMPDEST POP POP POP POP JUMP JUMPDEST PUSH2 0x1F3E DUP2 PUSH2 0x22B8 JUMP JUMPDEST DUP3 MSTORE POP POP JUMP JUMPDEST PUSH1 0x0 PUSH1 0x20 DUP3 ADD SWAP1 POP PUSH2 0x1F59 PUSH1 0x0 DUP4 ADD DUP5 PUSH2 0x17C8 JUMP JUMPDEST SWAP3 SWAP2 POP POP JUMP JUMPDEST PUSH1 0x0 PUSH1 0x20 DUP3 ADD SWAP1 POP DUP2 DUP2 SUB PUSH1 0x0 DUP4 ADD MSTORE PUSH2 0x1F78 DUP2 PUSH2 0x17D7 JUMP JUMPDEST SWAP1 POP SWAP2 SWAP1 POP JUMP JUMPDEST PUSH1 0x0 PUSH1 0x20 DUP3 ADD SWAP1 POP DUP2 DUP2 SUB PUSH1 0x0 DUP4 ADD MSTORE PUSH2 0x1F98 DUP2 PUSH2 0x1834 JUMP JUMPDEST SWAP1 POP SWAP2 SWAP1 POP JUMP JUMPDEST PUSH1 0x0 PUSH1 0x20 DUP3 ADD SWAP1 POP DUP2 DUP2 SUB PUSH1 0x0 DUP4 ADD MSTORE PUSH2 0x1FB8 DUP2 PUSH2 0x1891 JUMP JUMPDEST SWAP1 POP SWAP2 SWAP1 POP JUMP JUMPDEST PUSH1 0x0 PUSH1 0x20 DUP3 ADD SWAP1 POP DUP2 DUP2 SUB PUSH1 0x0 DUP4 ADD MSTORE PUSH2 0x1FD8 DUP2 PUSH2 0x18EE JUMP JUMPDEST SWAP1 POP SWAP2 SWAP1 POP JUMP JUMPDEST PUSH1 0x0 PUSH1 0x20 DUP3 ADD SWAP1 POP DUP2 DUP2 SUB PUSH1 0x0 DUP4 ADD MSTORE PUSH2 0x1FF8 DUP2 PUSH2 0x194B JUMP JUMPDEST SWAP1 POP SWAP2 SWAP1 POP JUMP JUMPDEST PUSH1 0x0 PUSH1 0x20 DUP3 ADD SWAP1 POP DUP2 DUP2 SUB PUSH1 0x0 DUP4 ADD MSTORE PUSH2 0x2018 DUP2 PUSH2 0x19A8 JUMP JUMPDEST SWAP1 POP SWAP2 SWAP1 POP JUMP JUMPDEST PUSH1 0x0 PUSH1 0x20 DUP3 ADD SWAP1 POP DUP2 DUP2 SUB PUSH1 0x0 DUP4 ADD MSTORE PUSH2 0x2038 DUP2 PUSH2 0x19DF JUMP JUMPDEST SWAP1 POP SWAP2 SWAP1 POP JUMP JUMPDEST PUSH1 0x0 PUSH1 0x20 DUP3 ADD SWAP1 POP DUP2 DUP2 SUB PUSH1 0x0 DUP4 ADD MSTORE PUSH2 0x2058 DUP2 PUSH2 0x1A3C JUMP JUMPDEST SWAP1 POP SWAP2 SWAP1 POP JUMP JUMPDEST PUSH1 0x0 PUSH1 0x20 DUP3 ADD SWAP1 POP DUP2 DUP2 SUB PUSH1 0x0 DUP4 ADD MSTORE PUSH2 0x2078 DUP2 PUSH2 0x1A99 JUMP JUMPDEST SWAP1 POP SWAP2 SWAP1 POP JUMP JUMPDEST PUSH1 0x0 PUSH1 0x20 DUP3 ADD SWAP1 POP DUP2 DUP2 SUB PUSH1 0x0 DUP4 ADD MSTORE PUSH2 0x2098 DUP2 PUSH2 0x1AF6 JUMP JUMPDEST SWAP1 POP SWAP2 SWAP1 POP JUMP JUMPDEST PUSH1 0x0 PUSH1 0x20 DUP3 ADD SWAP1 POP DUP2 DUP2 SUB PUSH1 0x0 DUP4 ADD MSTORE PUSH2 0x20B8 DUP2 PUSH2 0x1B53 JUMP JUMPDEST SWAP1 POP SWAP2 SWAP1 POP JUMP JUMPDEST PUSH1 0x0 PUSH1 0x20 DUP3 ADD SWAP1 POP DUP2 DUP2 SUB PUSH1 0x0 DUP4 ADD MSTORE PUSH2 0x20D8 DUP2 PUSH2 0x1BB0 JUMP JUMPDEST SWAP1 POP SWAP2 SWAP1 POP JUMP JUMPDEST PUSH1 0x0 PUSH1 0x20 DUP3 ADD SWAP1 POP DUP2 DUP2 SUB PUSH1 0x0 DUP4 ADD MSTORE PUSH2 0x20F8 DUP2 PUSH2 0x1C0D JUMP JUMPDEST SWAP1 POP SWAP2 SWAP1 POP JUMP JUMPDEST PUSH1 0x0 PUSH1 0x20 DUP3 ADD SWAP1 POP DUP2 DUP2 SUB PUSH1 0x0 DUP4 ADD MSTORE PUSH2 0x2118 DUP2 PUSH2 0x1C6A JUMP JUMPDEST SWAP1 POP SWAP2 SWAP1 POP JUMP JUMPDEST PUSH1 0x0 PUSH1 0x20 DUP3 ADD SWAP1 POP DUP2 DUP2 SUB PUSH1 0x0 DUP4 ADD MSTORE PUSH2 0x2138 DUP2 PUSH2 0x1CC7 JUMP JUMPDEST SWAP1 POP SWAP2 SWAP1 POP JUMP JUMPDEST PUSH1 0x0 PUSH1 0x20 DUP3 ADD SWAP1 POP DUP2 DUP2 SUB PUSH1 0x0 DUP4 ADD MSTORE PUSH2 0x2158 DUP2 PUSH2 0x1D24 JUMP JUMPDEST SWAP1 POP SWAP2 SWAP1 POP JUMP JUMPDEST PUSH1 0x0 PUSH1 0x20 DUP3 ADD SWAP1 POP DUP2 DUP2 SUB PUSH1 0x0 DUP4 ADD MSTORE PUSH2 0x2178 DUP2 PUSH2 0x1D81 JUMP JUMPDEST SWAP1 POP SWAP2 SWAP1 POP JUMP JUMPDEST PUSH1 0x0 PUSH1 0x20 DUP3 ADD SWAP1 POP DUP2 DUP2 SUB PUSH1 0x0 DUP4 ADD MSTORE PUSH2 0x2198 DUP2 PUSH2 0x1DB8 JUMP JUMPDEST SWAP1 POP SWAP2 SWAP1 POP JUMP JUMPDEST PUSH1 0x0 PUSH1 0x20 DUP3 ADD SWAP1 POP DUP2 DUP2 SUB PUSH1 0x0 DUP4 ADD MSTORE PUSH2 0x21B8 DUP2 PUSH2 0x1DEF JUMP JUMPDEST SWAP1 POP SWAP2 SWAP1 POP JUMP JUMPDEST PUSH1 0x0 PUSH1 0x20 DUP3 ADD SWAP1 POP DUP2 DUP2 SUB PUSH1 0x0 DUP4 ADD MSTORE PUSH2 0x21D8 DUP2 PUSH2 0x1E4C JUMP JUMPDEST SWAP1 POP SWAP2 SWAP1 POP JUMP JUMPDEST PUSH1 0x0 PUSH1 0x20 DUP3 ADD SWAP1 POP DUP2 DUP2 SUB PUSH1 0x0 DUP4 ADD MSTORE PUSH2 0x21F8 DUP2 PUSH2 0x1EA9 JUMP JUMPDEST SWAP1 POP SWAP2 SWAP1 POP JUMP JUMPDEST PUSH1 0x0 PUSH1 0x40 DUP3 ADD SWAP1 POP PUSH2 0x2214 PUSH1 0x0 DUP4 ADD DUP5 PUSH2 0x1F06 JUMP JUMPDEST SWAP3 SWAP2 POP POP JUMP JUMPDEST PUSH1 0x0 PUSH1 0x20 DUP3 ADD SWAP1 POP PUSH2 0x222F PUSH1 0x0 DUP4 ADD DUP5 PUSH2 0x1F35 JUMP JUMPDEST SWAP3 SWAP2 POP POP JUMP JUMPDEST PUSH1 0x0 PUSH1 0x40 MLOAD SWAP1 POP DUP2 DUP2 ADD DUP2 DUP2 LT PUSH8 0xFFFFFFFFFFFFFFFF DUP3 GT OR ISZERO PUSH2 0x2258 JUMPI PUSH1 0x0 DUP1 REVERT JUMPDEST DUP1 PUSH1 0x40 MSTORE POP SWAP2 SWAP1 POP JUMP JUMPDEST PUSH1 0x0 PUSH8 0xFFFFFFFFFFFFFFFF DUP3 GT ISZERO PUSH2 0x2279 JUMPI PUSH1 0x0 DUP1 REVERT JUMPDEST PUSH1 0x20 DUP3 MUL SWAP1 POP SWAP2 SWAP1 POP JUMP JUMPDEST PUSH1 0x0 PUSH8 0xFFFFFFFFFFFFFFFF DUP3 GT ISZERO PUSH2 0x229B JUMPI PUSH1 0x0 DUP1 REVERT JUMPDEST PUSH1 0x20 DUP3 MUL SWAP1 POP PUSH1 0x20 DUP2 ADD SWAP1 POP SWAP2 SWAP1 POP JUMP JUMPDEST PUSH1 0x0 DUP2 ISZERO ISZERO SWAP1 POP SWAP2 SWAP1 POP JUMP JUMPDEST PUSH1 0x0 DUP2 SWAP1 POP SWAP2 SWAP1 POP JUMP JUMPDEST PUSH1 0x0 DUP2 SWAP1 POP SWAP2 SWAP1 POP JUMP INVALID LOG2 PUSH6 0x627A7A723058 KECCAK256 0xa8 0xb8 0xaf DUP2 EXTCODEHASH JUMPDEST DUP10 0xe9 0xeb 0xae 0xd4 0xe5 0xc7 0x46 0xf7 LOG2 DUP8 PUSH22 0x9FEBD9D10F56956B7DC9ED6116EF6C6578706572696D PUSH6 0x6E74616CF500 CALLDATACOPY "
				},
				"gasEstimates": {
					"creation": {
						"codeDepositCost": "1793200",
						"executionCost": "infinite",
						"totalCost": "infinite"
					},
					"external": {
						"commit(uint256[])": "infinite",
						"evalPolyAt(uint256[],uint256)": "infinite",
						"verify((uint256,uint256),(uint256,uint256),uint256,uint256)": "infinite",
						"verifyMulti((uint256,uint256),(uint256[2],uint256[2]),uint256[],uint256[],uint256[],uint256[])": "infinite"
					}
				},
				"methodIdentifiers": {
					"commit(uint256[])": "59434d4a",
					"evalPolyAt(uint256[],uint256)": "c1eb466c",
					"verify((uint256,uint256),(uint256,uint256),uint256,uint256)": "903ae890",
					"verifyMulti((uint256,uint256),(uint256[2],uint256[2]),uint256[],uint256[],uint256[],uint256[])": "87a3b8d9"
				}
			},
			"userdoc": {
				"methods": {}
			}
		}
	}
}