{
	"data": {
		"bytecode": {
			"linkReferences": {},
			"object": "608060405261012c426200001491906200051f565b600155604051806040016040528060405180604001604052807f198e9393920d483a7260bfb731fb5d25f1aa493335a9e71297e485b7aef312c281526020017f1800deef121f1e76426a00665e5c4479674322d4f75edadd46debd5cd992f6ed815250815260200160405180604001604052807f090689d0585ff075ec9e99ad690c3395bc4b313370b38ef355acdadcd122975b81526020017f12c85ea5db8c6deb4aab71808dcb408fe3d1e7690c43d37b4ce6cc0166fa7daa81525081525060085f820151815f01906002620000ed92919062000487565b506020820151816002019060026200010792919062000487565b505050604051806040016040528060405180604001604052807f198e9393920d483a7260bfb731fb5d25f1aa493335a9e71297e485b7aef312c281526020017f1800deef121f1e76426a00665e5c4479674322d4f75edadd46debd5cd992f6ed815250815260200160405180604001604052807f090689d0585ff075ec9e99ad690c3395bc4b313370b38ef355acdadcd122975b81526020017f12c85ea5db8c6deb4aab71808dcb408fe3d1e7690c43d37b4ce6cc0166fa7daa815250815250600c5f820151815f01906002620001e092919062000487565b50602082015181600201906002620001fa92919062000487565b505050604051806040016040528060405180604001604052807f198e9393920d483a7260bfb731fb5d25f1aa493335a9e71297e485b7aef312c281526020017f1800deef121f1e76426a00665e5c4479674322d4f75edadd46debd5cd992f6ed815250815260200160405180604001604052807f090689d0585ff075ec9e99ad690c3395bc4b313370b38ef355acdadcd122975b81526020017f12c85ea5db8c6deb4aab71808dcb408fe3d1e7690c43d37b4ce6cc0166fa7daa81525081525060105f820151815f01906002620002d392919062000487565b50602082015181600201906002620002ed92919062000487565b5050507f30644e72e131a029b85045b68181585d2833e84879b9709143e1f593f00000018062000322576200032162000559565b5b6015546016540960145560026015556003601655600160175560e8601855620003776015546018547f30644e72e131a029b85045b68181585d2833e84879b9709143e1f593f00000016200038d60201b60201c565b60195534801562000386575f80fd5b5062000604565b5f808203620003d3576040517f08c379a0000000000000000000000000000000000000000000000000000000008152600401620003ca90620005e4565b60405180910390fd5b5f8403620003e4575f905062000480565b5f8303620003f6576001905062000480565b5f600190505f7f800000000000000000000000000000000000000000000000000000000000000090505b5f8111156200047a57838186161515870a85848509099150836002820486161515870a85848509099150836004820486161515870a85848509099150836008820486161515870a8584850909915060108104905062000420565b81925050505b9392505050565b8260028101928215620004b9579160200282015b82811115620004b85782518255916020019190600101906200049b565b5b509050620004c89190620004cc565b5090565b5b80821115620004e5575f815f905550600101620004cd565b5090565b5f819050919050565b7f4e487b71000000000000000000000000000000000000000000000000000000005f52601160045260245ffd5b5f6200052b82620004e9565b91506200053883620004e9565b9250828203905081811115620005535762000552620004f2565b5b92915050565b7f4e487b71000000000000000000000000000000000000000000000000000000005f52601260045260245ffd5b5f82825260208201905092915050565b7f4d6f64756c7573206973207a65726f00000000000000000000000000000000005f82015250565b5f620005cc600f8362000586565b9150620005d98262000596565b602082019050919050565b5f6020820190508181035f830152620005fd81620005be565b9050919050565b614d8580620006125f395ff3fe6080604052600436106100c5575f3560e01c806386023cbc1161007e578063ad115db411610058578063ad115db414610283578063be603b1a146102ab578063c557b910146102e7578063e99fa9491461030f5761010b565b806386023cbc146101f5578063903ae8901461023157806395be59c31461026d5761010b565b80631b0bf28f1461010f5780631f6ff3ec146101395780633c979e761461014f57806347799da81461016557806360c7dc471461018f5780636a7848b5146101b95761010b565b3661010b5742600181905550345f819055505f60025f6101000a81548160ff0219169083151502179055505f600260016101000a81548160ff0219169083151502179055005b5f80fd5b34801561011a575f80fd5b50610123610325565b60405161013091906136e6565b60405180910390f35b348015610144575f80fd5b5061014d61032b565b005b34801561015a575f80fd5b506101636104b5565b005b348015610170575f80fd5b506101796104d3565b60405161018691906136e6565b60405180910390f35b34801561019a575f80fd5b506101a36104d9565b6040516101b091906136e6565b60405180910390f35b3480156101c4575f80fd5b506101df60048036038101906101da9190613bf7565b6104de565b6040516101ec9190613c58565b60405180910390f35b348015610200575f80fd5b5061021b60048036038101906102169190613e52565b6107fb565b6040516102289190613c58565b60405180910390f35b34801561023c575f80fd5b5061025760048036038101906102529190613e7e565b611143565b6040516102649190613c58565b60405180910390f35b348015610278575f80fd5b506102816115b1565b005b34801561028e575f80fd5b506102a960048036038101906102a49190613ee2565b611745565b005b3480156102b6575f80fd5b506102d160048036038101906102cc9190613f0d565b61174f565b6040516102de919061401d565b60405180910390f35b3480156102f2575f80fd5b5061030d60048036038101906103089190614036565b6117ea565b005b34801561031a575f80fd5b50610323611860565b005b60015481565b3361012c60015461033c91906140c7565b42111561037e576040517f08c379a000000000000000000000000000000000000000000000000000000000815260040161037590614154565b60405180910390fd5b5f544710156103c2576040517f08c379a00000000000000000000000000000000000000000000000000000000081526004016103b9906141e2565b60405180910390fd5b6001151560025f9054906101000a900460ff16151514610417576040517f08c379a000000000000000000000000000000000000000000000000000000000815260040161040e9061424a565b60405180910390fd5b60011515600260019054906101000a900460ff1615151461046d576040517f08c379a0000000000000000000000000000000000000000000000000000000008152600401610464906142b2565b60405180910390fd5b3373ffffffffffffffffffffffffffffffffffffffff166108fc5f5490811502906040515f60405180830381858888f193505050501580156104b1573d5f803e3d5ffd5b5050565b6104d06104c0611fdf565b6104c8611fdf565b600180611143565b50565b60075481565b5f5481565b5f806104fb836102200151845f0151601554866103600151611143565b90506105198361024001518460200151601554866101400151611143565b90506105378361026001518460400151601554866101200151611143565b90506105558361026001518460600151601454866101c00151611143565b90506105738361028001518460800151601554866101600151611143565b9050610591836102a001518460a00151601654866101800151611143565b90506105af836102c001518460c00151601554866101a00151611143565b90506105cc836102c001518460e001516001866101e00151611143565b90506105eb836102e00151846101000151601654866102000151611143565b905082610340015173ffffffffffffffffffffffffffffffffffffffff1661061d846103000151856103200151612003565b73ffffffffffffffffffffffffffffffffffffffff161490507f30644e72e131a029b85045b68181585d2833e84879b9709143e1f593f000000180610665576106646142d0565b5b7f30644e72e131a029b85045b68181585d2833e84879b9709143e1f593f000000180610694576106936142d0565b5b60195485610360015109846101400151088361012001511490507f30644e72e131a029b85045b68181585d2833e84879b9709143e1f593f0000001806106dd576106dc6142d0565b5b8361018001517f30644e72e131a029b85045b68181585d2833e84879b9709143e1f593f000000161070e91906142fd565b7f30644e72e131a029b85045b68181585d2833e84879b9709143e1f593f00000018061073d5761073c6142d0565b5b7f30644e72e131a029b85045b68181585d2833e84879b9709143e1f593f00000018061076c5761076b6142d0565b5b866101a00151876101c00151088661012001510908836101600151149050826102000151836101e0015114905080156107bb576001600260016101000a81548160ff0219169083151502179055505b7f9ebf19a79884326bf6ddfcf4bd501eb6a52b40414ecd5d8a70514f606810801e816040516107ea9190613c58565b60405180910390a180915050919050565b5f7f30644e72e131a029b85045b68181585d2833e84879b9709143e1f593f0000001825f01515f015110610864576040517f08c379a000000000000000000000000000000000000000000000000000000000815260040161085b906143a0565b60405180910390fd5b7f30644e72e131a029b85045b68181585d2833e84879b9709143e1f593f0000001825f015160200151106108cd576040517f08c379a00000000000000000000000000000000000000000000000000000000081526004016108c49061442e565b60405180910390fd5b7f30644e72e131a029b85045b68181585d2833e84879b9709143e1f593f000000182602001515f015110610936576040517f08c379a000000000000000000000000000000000000000000000000000000000815260040161092d906144bc565b60405180910390fd5b7f30644e72e131a029b85045b68181585d2833e84879b9709143e1f593f0000001826020015160200151106109a0576040517f08c379a00000000000000000000000000000000000000000000000000000000081526004016109979061454a565b60405180910390fd5b7f30644e72e131a029b85045b68181585d2833e84879b9709143e1f593f000000182604001515f01515f600281106109db576109da614568565b5b602002015110610a20576040517f08c379a0000000000000000000000000000000000000000000000000000000008152600401610a1790614605565b60405180910390fd5b7f30644e72e131a029b85045b68181585d2833e84879b9709143e1f593f00000018260400151602001515f60028110610a5c57610a5b614568565b5b602002015110610aa1576040517f08c379a0000000000000000000000000000000000000000000000000000000008152600401610a9890614693565b60405180910390fd5b7f30644e72e131a029b85045b68181585d2833e84879b9709143e1f593f000000182604001515f0151600160028110610add57610adc614568565b5b602002015110610b22576040517f08c379a0000000000000000000000000000000000000000000000000000000008152600401610b1990614605565b60405180910390fd5b7f30644e72e131a029b85045b68181585d2833e84879b9709143e1f593f0000001826040015160200151600160028110610b5f57610b5e614568565b5b602002015110610ba4576040517f08c379a0000000000000000000000000000000000000000000000000000000008152600401610b9b90614693565b60405180910390fd5b7f30644e72e131a029b85045b68181585d2833e84879b9709143e1f593f000000182606001515f015110610c0d576040517f08c379a0000000000000000000000000000000000000000000000000000000008152600401610c0490614721565b60405180910390fd5b7f30644e72e131a029b85045b68181585d2833e84879b9709143e1f593f000000182606001516020015110610c77576040517f08c379a0000000000000000000000000000000000000000000000000000000008152600401610c6e906147af565b60405180910390fd5b7f30644e72e131a029b85045b68181585d2833e84879b9709143e1f593f0000001826080015110610cdd576040517f08c379a0000000000000000000000000000000000000000000000000000000008152600401610cd49061483d565b60405180910390fd5b5f610cfd610cf3846060015185608001516120ce565b84602001516121a2565b9050610e4a836020015160106040518060400160405290815f8201600280602002604051908101604052809291908260028015610d4f576020028201915b815481526020019060010190808311610d3b575b5050505050815260200160028201600280602002604051908101604052809291908260028015610d94576020028201915b815481526020019060010190808311610d80575b505050505081525050838660400151610daf885f015161229b565b60086040518060400160405290815f8201600280602002604051908101604052809291908260028015610df7576020028201915b815481526020019060010190808311610de3575b5050505050815260200160028201600280602002604051908101604052809291908260028015610e3c576020028201915b815481526020019060010190808311610e28575b505050505081525050612353565b15611139575f610e65610e5b611fdf565b8560e001516120ce565b90505f610e858560600151610e8087606001516017546120ce565b6121a2565b90505f610f2c600c6040518060400160405290815f8201600280602002604051908101604052809291908260028015610ed3576020028201915b815481526020019060010190808311610ebf575b5050505050815260200160028201600280602002604051908101604052809291908260028015610f18576020028201915b815481526020019060010190808311610f04575b50505050508152505087610100015161174f565b90505f610fdd8760c00151610fd860106040518060400160405290815f8201600280602002604051908101604052809291908260028015610f82576020028201915b815481526020019060010190808311610f6e575b5050505050815260200160028201600280602002604051908101604052809291908260028015610fc7576020028201915b815481526020019060010190808311610fb3575b50505050508152505060175461174f565b6126a5565b9050825f0151845f0151148015610ffb575082602001518460200151145b801561103c5750805f015160016002811061101957611018614568565b5b6020020151825f015160016002811061103557611034614568565b5b6020020151145b801561107c5750805f01515f6002811061105957611058614568565b5b602002015182602001515f6002811061107557611074614568565b5b6020020151145b80156110bc5750805f01515f6002811061109957611098614568565b5b602002015182602001515f600281106110b5576110b4614568565b5b6020020151145b80156110ff575080602001516001600281106110db576110da614568565b5b602002015182602001516001600281106110f8576110f7614568565b5b6020020151145b1561112c57600160025f6101000a81548160ff02191690831515021790555060019550505050505061113e565b5f9550505050505061113e565b5f9150505b919050565b5f7f30644e72e131a029b85045b68181585d2833e84879b9709143e1f593f0000001855f0151106111a9576040517f08c379a00000000000000000000000000000000000000000000000000000000081526004016111a0906143a0565b60405180910390fd5b7f30644e72e131a029b85045b68181585d2833e84879b9709143e1f593f000000185602001511061120f576040517f08c379a00000000000000000000000000000000000000000000000000000000081526004016112069061442e565b60405180910390fd5b7f30644e72e131a029b85045b68181585d2833e84879b9709143e1f593f0000001845f015110611274576040517f08c379a000000000000000000000000000000000000000000000000000000000815260040161126b906144bc565b60405180910390fd5b7f30644e72e131a029b85045b68181585d2833e84879b9709143e1f593f00000018460200151106112da576040517f08c379a00000000000000000000000000000000000000000000000000000000081526004016112d19061454a565b60405180910390fd5b7f30644e72e131a029b85045b68181585d2833e84879b9709143e1f593f0000001831061133c576040517f08c379a0000000000000000000000000000000000000000000000000000000008152600401611333906148cb565b60405180910390fd5b7f30644e72e131a029b85045b68181585d2833e84879b9709143e1f593f0000001821061139e576040517f08c379a00000000000000000000000000000000000000000000000000000000081526004016113959061483d565b60405180910390fd5b5f6113b16113ac86866120ce565b61229b565b90505f6113ce6113c86113c2611fdf565b866120ce565b836121a2565b90506115a58660106040518060400160405290815f820160028060200260405190810160405280929190826002801561141c576020028201915b815481526020019060010190808311611408575b5050505050815260200160028201600280602002604051908101604052809291908260028015611461576020028201915b81548152602001906001019080831161144d575b50505050508152505083600c6040518060400160405290815f82016002806020026040519081016040528092919082600280156114b3576020028201915b81548152602001906001019080831161149f575b50505050508152602001600282016002806020026040519081016040528092919082600280156114f8576020028201915b8154815260200190600101908083116114e4575b50505050508152505061150a8c61229b565b60086040518060400160405290815f8201600280602002604051908101604052809291908260028015611552576020028201915b81548152602001906001019080831161153e575b5050505050815260200160028201600280602002604051908101604052809291908260028015611597576020028201915b815481526020019060010190808311611583575b505050505081525050612353565b92505050949350505050565b6117426040518061012001604052806115c8611fdf565b81526020016115d5611fdf565b815260200160086040518060400160405290815f8201600280602002604051908101604052809291908260028015611622576020028201915b81548152602001906001019080831161160e575b5050505050815260200160028201600280602002604051908101604052809291908260028015611667576020028201915b815481526020019060010190808311611653575b505050505081525050815260200161167d611fdf565b815260200160018152602001611691611fdf565b815260200160086040518060400160405290815f82016002806020026040519081016040528092919082600280156116de576020028201915b8154815260200190600101908083116116ca575b5050505050815260200160028201600280602002604051908101604052809291908260028015611723576020028201915b81548152602001906001019080831161170f575b50505050508152505081526020016001815260200160018152506107fb565b50565b8060078190555050565b61175761357f565b5f604051806040016040528060405180604001604052805f81526020015f815250815260200160405180604001604052805f81526020015f81525081525090505b5f8311156117e05760016002846117af91906148e9565b036117c1576117be81856126a5565b90505b6002836117ce9190614919565b92506117d984612d6f565b9350611798565b8091505092915050565b6040518060400160405280604051806040016040528087815260200186815250815260200160405180604001604052808581526020018481525081525060035f820151815f0190600261183e9291906135a5565b506020820151816002019060026118569291906135a5565b5090505050505050565b611fdc60405180610380016040528060405180604001604052807f2d2e305d3ab2dc6e0081ffcf4a701f924a1a7296cdc32046c10c0b6f992387b281526020017f10d4d3cca369c48670346ef36c6739e885bb11b52038a89c706aacfb7d72d789815250815260200160405180604001604052807f2d2e305d3ab2dc6e0081ffcf4a701f924a1a7296cdc32046c10c0b6f992387b281526020017f10d4d3cca369c48670346ef36c6739e885bb11b52038a89c706aacfb7d72d789815250815260200160405180604001604052807f2d2e305d3ab2dc6e0081ffcf4a701f924a1a7296cdc32046c10c0b6f992387b281526020017f10d4d3cca369c48670346ef36c6739e885bb11b52038a89c706aacfb7d72d789815250815260200160405180604001604052807f2d2e305d3ab2dc6e0081ffcf4a701f924a1a7296cdc32046c10c0b6f992387b281526020017f10d4d3cca369c48670346ef36c6739e885bb11b52038a89c706aacfb7d72d789815250815260200160405180604001604052807f2d2e305d3ab2dc6e0081ffcf4a701f924a1a7296cdc32046c10c0b6f992387b281526020017f10d4d3cca369c48670346ef36c6739e885bb11b52038a89c706aacfb7d72d789815250815260200160405180604001604052807f2d2e305d3ab2dc6e0081ffcf4a701f924a1a7296cdc32046c10c0b6f992387b281526020017f10d4d3cca369c48670346ef36c6739e885bb11b52038a89c706aacfb7d72d789815250815260200160405180604001604052807f2d2e305d3ab2dc6e0081ffcf4a701f924a1a7296cdc32046c10c0b6f992387b281526020017f10d4d3cca369c48670346ef36c6739e885bb11b52038a89c706aacfb7d72d789815250815260200160405180604001604052807f2d2e305d3ab2dc6e0081ffcf4a701f924a1a7296cdc32046c10c0b6f992387b281526020017f10d4d3cca369c48670346ef36c6739e885bb11b52038a89c706aacfb7d72d789815250815260200160405180604001604052807f2d2e305d3ab2dc6e0081ffcf4a701f924a1a7296cdc32046c10c0b6f992387b281526020017f10d4d3cca369c48670346ef36c6739e885bb11b52038a89c706aacfb7d72d78981525081526020017f2d2e305d3ab2dc6e0081ffcf4a701f924a1a7296cdc32046c10c0b6f992387b281526020017f10d4d3cca369c48670346ef36c6739e885bb11b52038a89c706aacfb7d72d78981526020017f2d2e305d3ab2dc6e0081ffcf4a701f924a1a7296cdc32046c10c0b6f992387b281526020017f19a48669ccf72c593144962560f593b667daa2052d1cdcc2500bb3b003c073c981526020017f2d2e305d3ab2dc6e0081ffcf4a701f924a1a7296cdc32046c10c0b6f992387b281526020017f10d4d3cca369c48670346ef36c6739e885bb11b52038a89c706aacfb7d72d78981526020017f2d2e305d3ab2dc6e0081ffcf4a701f924a1a7296cdc32046c10c0b6f992387b281526020017f10d4d3cca369c48670346ef36c6739e885bb11b52038a89c706aacfb7d72d789815260200160405180604001604052807f2d2e305d3ab2dc6e0081ffcf4a701f924a1a7296cdc32046c10c0b6f992387b281526020017f10d4d3cca369c48670346ef36c6739e885bb11b52038a89c706aacfb7d72d789815250815260200160405180604001604052807f2d2e305d3ab2dc6e0081ffcf4a701f924a1a7296cdc32046c10c0b6f992387b281526020017f10d4d3cca369c48670346ef36c6739e885bb11b52038a89c706aacfb7d72d789815250815260200160405180604001604052807f2d2e305d3ab2dc6e0081ffcf4a701f924a1a7296cdc32046c10c0b6f992387b281526020017f10d4d3cca369c48670346ef36c6739e885bb11b52038a89c706aacfb7d72d789815250815260200160405180604001604052807f2d2e305d3ab2dc6e0081ffcf4a701f924a1a7296cdc32046c10c0b6f992387b281526020017f10d4d3cca369c48670346ef36c6739e885bb11b52038a89c706aacfb7d72d789815250815260200160405180604001604052807f2d2e305d3ab2dc6e0081ffcf4a701f924a1a7296cdc32046c10c0b6f992387b281526020017f10d4d3cca369c48670346ef36c6739e885bb11b52038a89c706aacfb7d72d789815250815260200160405180604001604052807f2d2e305d3ab2dc6e0081ffcf4a701f924a1a7296cdc32046c10c0b6f992387b281526020017f10d4d3cca369c48670346ef36c6739e885bb11b52038a89c706aacfb7d72d789815250815260200160405180604001604052807f2d2e305d3ab2dc6e0081ffcf4a701f924a1a7296cdc32046c10c0b6f992387b281526020017f10d4d3cca369c48670346ef36c6739e885bb11b52038a89c706aacfb7d72d7898152508152602001611f606040518060c00160405280609a8152602001614c75609a91396130b3565b8152602001604051806080016040528060418152602001614d0f60419139815260200173e448992fdeaf94784bbd8f432d781c061d90798573ffffffffffffffffffffffffffffffffffffffff1681526020017f0d1f3f69e4ae12d40127fef4d583bbebe1b49bfaf4271544b2aa1aaa91660b3c8152506104de565b50565b611fe76135e5565b6040518060400160405280600181526020016002815250905090565b5f805f80604185511461201b575f93505050506120c8565b602085015192506040850151915060608501515f1a9050601b8160ff16101561204e57601b8161204b9190614955565b90505b601b8160ff16141580156120665750601c8160ff1614155b15612076575f93505050506120c8565b6001868285856040515f815260200160405260405161209894939291906149a7565b6020604051602081039080840390855afa1580156120b8573d5f803e3d5ffd5b5050506020604051035193505050505b92915050565b6120d66135e5565b6120de6135fd565b835f0151815f600381106120f5576120f4614568565b5b60200201818152505083602001518160016003811061211757612116614568565b5b602002018181525050828160026003811061213557612134614568565b5b6020020181815250505f60608360808460076107d05a03fa9050805f810361215957fe5b508061219a576040517f08c379a000000000000000000000000000000000000000000000000000000000815260040161219190614a34565b60405180910390fd5b505092915050565b6121aa6135e5565b6121b261361f565b835f0151815f600481106121c9576121c8614568565b5b6020020181815250508360200151816001600481106121eb576121ea614568565b5b602002018181525050825f01518160026004811061220c5761220b614568565b5b60200201818152505082602001518160036004811061222e5761222d614568565b5b6020020181815250505f60608360c08460066107d05a03fa9050805f810361225257fe5b5080612293576040517f08c379a000000000000000000000000000000000000000000000000000000000815260040161228a90614a9c565b60405180910390fd5b505092915050565b6122a36135e5565b5f825f01511480156122b857505f8260200151145b156122d95760405180604001604052805f81526020015f815250905061234e565b6040518060400160405280835f015181526020017f30644e72e131a029b85045b68181585d97816a916871ca8d3c208c16d87cfd47846020015161231d91906148e9565b7f30644e72e131a029b85045b68181585d97816a916871ca8d3c208c16d87cfd4761234891906142fd565b81525090505b919050565b5f8060405180606001604052808981526020018781526020018581525090505f60405180606001604052808981526020018781526020018581525090505f601290505f8167ffffffffffffffff8111156123b0576123af613724565b5b6040519080825280602002602001820160405280156123de5781602001602082028036833780820191505090505b5090505f5b600381101561260e575f6006826123fa9190614aba565b905085826003811061240f5761240e614568565b5b60200201515f0151835f8361242491906140c7565b8151811061243557612434614568565b5b60200260200101818152505085826003811061245457612453614568565b5b6020020151602001518360018361246b91906140c7565b8151811061247c5761247b614568565b5b60200260200101818152505084826003811061249b5761249a614568565b5b60200201515f01515f600281106124b5576124b4614568565b5b6020020151836002836124c891906140c7565b815181106124d9576124d8614568565b5b6020026020010181815250508482600381106124f8576124f7614568565b5b60200201515f015160016002811061251357612512614568565b5b60200201518360038361252691906140c7565b8151811061253757612536614568565b5b60200260200101818152505084826003811061255657612555614568565b5b6020020151602001515f6002811061257157612570614568565b5b60200201518360048361258491906140c7565b8151811061259557612594614568565b5b6020026020010181815250508482600381106125b4576125b3614568565b5b6020020151602001516001600281106125d0576125cf614568565b5b6020020151836005836125e391906140c7565b815181106125f4576125f3614568565b5b6020026020010181815250505080806001019150506123e3565b50612617613641565b5f602082602086026020860160086107d05a03fa9050805f810361263757fe5b5080612678576040517f08c379a000000000000000000000000000000000000000000000000000000000815260040161266f90614b45565b60405180910390fd5b5f825f6001811061268c5761268b614568565b5b6020020151141596505050505050509695505050505050565b6126ad61357f565b5f835f01515f600281106126c4576126c3614568565b5b60200201511480156126f057505f835f01516001600281106126e9576126e8614568565b5b6020020151145b801561271657505f83602001515f6002811061270f5761270e614568565b5b6020020151145b801561273d57505f836020015160016002811061273657612735614568565b5b6020020151145b1561274a57819050612d69565b5f825f01515f6002811061276157612760614568565b5b602002015114801561278d57505f825f015160016002811061278657612785614568565b5b6020020151145b80156127b357505f82602001515f600281106127ac576127ab614568565b5b6020020151145b80156127da57505f82602001516001600281106127d3576127d2614568565b5b6020020151145b156127e757829050612d69565b6127ef613663565b6127ff845f0151855f0151613108565b815f600c811061281257612811614568565b5b602002018190525061282a835f0151845f0151613108565b816001600c811061283e5761283d614568565b5b602002018190525061286c8460200151826001600c811061286257612861614568565b5b6020020151613108565b816002600c81106128805761287f614568565b5b60200201819052506128ad8360200151825f600c81106128a3576128a2614568565b5b6020020151613108565b816003600c81106128c1576128c0614568565b5b60200201819052506128fa6128dc855f0151855f0151613108565b826001600c81106128f0576128ef614568565b5b6020020151613108565b816004600c811061290e5761290d614568565b5b6020020181905250612946612929845f0151865f0151613108565b825f600c811061293c5761293b614568565b5b6020020151613108565b816005600c811061295a57612959614568565b5b602002018190525061299c816003600c811061297957612978614568565b5b6020020151826002600c811061299257612991614568565b5b602002015161339f565b816006600c81106129b0576129af614568565b5b60200201819052506129f2816006600c81106129cf576129ce614568565b5b6020020151826006600c81106129e8576129e7614568565b5b6020020151613434565b816007600c8110612a0657612a05614568565b5b6020020181905250612a48816007600c8110612a2557612a24614568565b5b6020020151826007600c8110612a3e57612a3d614568565b5b6020020151613108565b816007600c8110612a5c57612a5b614568565b5b6020020181905250612a9e816006600c8110612a7b57612a7a614568565b5b6020020151826007600c8110612a9457612a93614568565b5b6020020151613108565b816008600c8110612ab257612ab1614568565b5b6020020181905250612af4816005600c8110612ad157612ad0614568565b5b6020020151826004600c8110612aea57612ae9614568565b5b602002015161339f565b816009600c8110612b0857612b07614568565b5b6020020181905250612b4a816009600c8110612b2757612b26614568565b5b6020020151826009600c8110612b4057612b3f614568565b5b6020020151613434565b816009600c8110612b5e57612b5d614568565b5b6020020181905250612ba0816002600c8110612b7d57612b7c614568565b5b6020020151826007600c8110612b9657612b95614568565b5b6020020151613108565b81600a600c8110612bb457612bb3614568565b5b6020020181905250612c59612c1a612bfc836009600c8110612bd957612bd8614568565b5b6020020151846009600c8110612bf257612bf1614568565b5b6020020151613108565b836008600c8110612c1057612c0f614568565b5b602002015161339f565b612c5483600a600c8110612c3157612c30614568565b5b602002015184600a600c8110612c4a57612c49614568565b5b6020020151613434565b61339f565b81600b600c8110612c6d57612c6c614568565b5b6020020181905250612c7d61357f565b81600b600c8110612c9157612c90614568565b5b6020020151815f0181905250612d5b612cfb836009600c8110612cb757612cb6614568565b5b6020020151612cf685600a600c8110612cd357612cd2614568565b5b602002015186600b600c8110612cec57612ceb614568565b5b602002015161339f565b613108565b612d56612d38856004600c8110612d1557612d14614568565b5b6020020151866008600c8110612d2e57612d2d614568565b5b6020020151613108565b856004600c8110612d4c57612d4b614568565b5b6020020151613434565b61339f565b816020018190525080925050505b92915050565b612d7761357f565b5f825f01515f60028110612d8e57612d8d614568565b5b6020020151148015612dba57505f825f0151600160028110612db357612db2614568565b5b6020020151145b8015612de057505f82602001515f60028110612dd957612dd8614568565b5b6020020151145b8015612e0757505f8260200151600160028110612e0057612dff614568565b5b6020020151145b15612e14578190506130ae565b5f612e25835f0151845f0151613108565b90505f612e3a84602001518560200151613108565b90505f61300b60405180604001604052807f30644e72e131a029b85045b68181585d97816a916871ca8d3c208c16d87cfd4780612e7a57612e796142d0565b5b88602001515f60028110612e9157612e90614568565b5b6020020151895f01515f60028110612eac57612eab614568565b5b60200201510881526020017f30644e72e131a029b85045b68181585d97816a916871ca8d3c208c16d87cfd4780612ee657612ee56142d0565b5b8860200151600160028110612efe57612efd614568565b5b6020020151895f0151600160028110612f1a57612f19614568565b5b60200201510881525060405180604001604052807f30644e72e131a029b85045b68181585d97816a916871ca8d3c208c16d87cfd4780612f5d57612f5c6142d0565b5b89602001515f60028110612f7457612f73614568565b5b60200201518a5f01515f60028110612f8f57612f8e614568565b5b60200201510881526020017f30644e72e131a029b85045b68181585d97816a916871ca8d3c208c16d87cfd4780612fc957612fc86142d0565b5b8960200151600160028110612fe157612fe0614568565b5b60200201518a5f0151600160028110612ffd57612ffc614568565b5b602002015108815250613108565b90506130208161301b8585613434565b61339f565b905061302c8182613434565b90505f61304261303c8586613434565b85613434565b90505f6130616130528384613108565b61305c8586613434565b61339f565b90505f8190505f61308d61307e85613079888761339f565b613108565b6130888889613434565b61339f565b90506040518060400160405280838152602001828152509750505050505050505b919050565b5f816040516020016130c59190614bcf565b604051602081830303815290604052805190602001206040516020016130eb9190614c4f565b604051602081830303815290604052805190602001209050919050565b613110613691565b5f7f30644e72e131a029b85045b68181585d97816a916871ca8d3c208c16d87cfd47806131405761313f6142d0565b5b835f6002811061315357613152614568565b5b6020020151855f6002811061316b5761316a614568565b5b60200201510990505f7f30644e72e131a029b85045b68181585d97816a916871ca8d3c208c16d87cfd47806131a3576131a26142d0565b5b846001600281106131b7576131b6614568565b5b6020020151866001600281106131d0576131cf614568565b5b60200201510990505f7f30644e72e131a029b85045b68181585d97816a916871ca8d3c208c16d87cfd4780613208576132076142d0565b5b8660016002811061321c5761321b614568565b5b6020020151875f6002811061323457613233614568565b5b60200201510890505f7f30644e72e131a029b85045b68181585d97816a916871ca8d3c208c16d87cfd478061326c5761326b6142d0565b5b866001600281106132805761327f614568565b5b6020020151875f6002811061329857613297614568565b5b60200201510890505f7f30644e72e131a029b85045b68181585d97816a916871ca8d3c208c16d87cfd47806132d0576132cf6142d0565b5b82840990505f7f30644e72e131a029b85045b68181585d97816a916871ca8d3c208c16d87cfd4780613305576133046142d0565b5b7f30644e72e131a029b85045b68181585d97816a916871ca8d3c208c16d87cfd4780613334576133336142d0565b5b8660155409870890505f613379837f30644e72e131a029b85045b68181585d97816a916871ca8d3c208c16d87cfd4780613371576133706142d0565b5b888a08613519565b905060405180604001604052808381526020018281525097505050505050505092915050565b6133a7613691565b60405180604001604052806133ea855f600281106133c8576133c7614568565b5b6020020151855f600281106133e0576133df614568565b5b6020020151613519565b81526020016134298560016002811061340657613405614568565b5b60200201518560016002811061341f5761341e614568565b5b6020020151613519565b815250905092915050565b61343c613691565b60405180604001604052807f30644e72e131a029b85045b68181585d97816a916871ca8d3c208c16d87cfd4780613476576134756142d0565b5b845f6002811061348957613488614568565b5b6020020151865f600281106134a1576134a0614568565b5b60200201510881526020017f30644e72e131a029b85045b68181585d97816a916871ca8d3c208c16d87cfd47806134db576134da6142d0565b5b846001600281106134ef576134ee614568565b5b60200201518660016002811061350857613507614568565b5b602002015108815250905092915050565b5f7f30644e72e131a029b85045b68181585d97816a916871ca8d3c208c16d87cfd4780613549576135486142d0565b5b827f30644e72e131a029b85045b68181585d97816a916871ca8d3c208c16d87cfd4761357591906142fd565b8408905092915050565b6040518060400160405280613592613691565b815260200161359f613691565b81525090565b82600281019282156135d4579160200282015b828111156135d35782518255916020019190600101906135b8565b5b5090506135e191906136b3565b5090565b60405180604001604052805f81526020015f81525090565b6040518060600160405280600390602082028036833780820191505090505090565b6040518060800160405280600490602082028036833780820191505090505090565b6040518060200160405280600190602082028036833780820191505090505090565b604051806101800160405280600c905b61367b613691565b8152602001906001900390816136735790505090565b6040518060400160405280600290602082028036833780820191505090505090565b5b808211156136ca575f815f9055506001016136b4565b5090565b5f819050919050565b6136e0816136ce565b82525050565b5f6020820190506136f95f8301846136d7565b92915050565b5f604051905090565b5f80fd5b5f80fd5b5f80fd5b5f601f19601f8301169050919050565b7f4e487b71000000000000000000000000000000000000000000000000000000005f52604160045260245ffd5b61375a82613714565b810181811067ffffffffffffffff8211171561377957613778613724565b5b80604052505050565b5f61378b6136ff565b90506137978282613751565b919050565b5f80fd5b6137a9816136ce565b81146137b3575f80fd5b50565b5f813590506137c4816137a0565b92915050565b5f604082840312156137df576137de613710565b5b6137e96040613782565b90505f6137f8848285016137b6565b5f83015250602061380b848285016137b6565b60208301525092915050565b5f819050919050565b61382981613817565b8114613833575f80fd5b50565b5f8135905061384481613820565b92915050565b5f80fd5b5f80fd5b5f67ffffffffffffffff82111561386c5761386b613724565b5b61387582613714565b9050602081019050919050565b828183375f83830152505050565b5f6138a261389d84613852565b613782565b9050828152602081018484840111156138be576138bd61384e565b5b6138c9848285613882565b509392505050565b5f82601f8301126138e5576138e461384a565b5b81356138f5848260208601613890565b91505092915050565b5f73ffffffffffffffffffffffffffffffffffffffff82169050919050565b5f613927826138fe565b9050919050565b6139378161391d565b8114613941575f80fd5b50565b5f813590506139528161392e565b92915050565b5f610580828403121561396e5761396d613710565b5b613979610380613782565b90505f613988848285016137ca565b5f83015250604061399b848285016137ca565b60208301525060806139af848285016137ca565b60408301525060c06139c3848285016137ca565b6060830152506101006139d8848285016137ca565b6080830152506101406139ed848285016137ca565b60a083015250610180613a02848285016137ca565b60c0830152506101c0613a17848285016137ca565b60e083015250610200613a2c848285016137ca565b61010083015250610240613a42848285016137b6565b61012083015250610260613a58848285016137b6565b61014083015250610280613a6e848285016137b6565b610160830152506102a0613a84848285016137b6565b610180830152506102c0613a9a848285016137b6565b6101a0830152506102e0613ab0848285016137b6565b6101c083015250610300613ac6848285016137b6565b6101e083015250610320613adc848285016137b6565b61020083015250610340613af2848285016137ca565b61022083015250610380613b08848285016137ca565b610240830152506103c0613b1e848285016137ca565b61026083015250610400613b34848285016137ca565b61028083015250610440613b4a848285016137ca565b6102a083015250610480613b60848285016137ca565b6102c0830152506104c0613b76848285016137ca565b6102e083015250610500613b8c84828501613836565b6103008301525061052082013567ffffffffffffffff811115613bb257613bb161379c565b5b613bbe848285016138d1565b61032083015250610540613bd484828501613944565b61034083015250610560613bea848285016137b6565b6103608301525092915050565b5f60208284031215613c0c57613c0b613708565b5b5f82013567ffffffffffffffff811115613c2957613c2861370c565b5b613c3584828501613958565b91505092915050565b5f8115159050919050565b613c5281613c3e565b82525050565b5f602082019050613c6b5f830184613c49565b92915050565b5f67ffffffffffffffff821115613c8b57613c8a613724565b5b602082029050919050565b5f80fd5b5f613cac613ca784613c71565b613782565b90508060208402830185811115613cc657613cc5613c96565b5b835b81811015613cef5780613cdb88826137b6565b845260208401935050602081019050613cc8565b5050509392505050565b5f82601f830112613d0d57613d0c61384a565b5b6002613d1a848285613c9a565b91505092915050565b5f60808284031215613d3857613d37613710565b5b613d426040613782565b90505f613d5184828501613cf9565b5f830152506040613d6484828501613cf9565b60208301525092915050565b5f6102608284031215613d8657613d85613710565b5b613d91610120613782565b90505f613da0848285016137ca565b5f830152506040613db3848285016137ca565b6020830152506080613dc784828501613d23565b604083015250610100613ddc848285016137ca565b606083015250610140613df1848285016137b6565b608083015250610160613e06848285016137ca565b60a0830152506101a0613e1b84828501613d23565b60c083015250610220613e30848285016137b6565b60e083015250610240613e45848285016137b6565b6101008301525092915050565b5f6102608284031215613e6857613e67613708565b5b5f613e7584828501613d70565b91505092915050565b5f805f8060c08587031215613e9657613e95613708565b5b5f613ea3878288016137ca565b9450506040613eb4878288016137ca565b9350506080613ec5878288016137b6565b92505060a0613ed6878288016137b6565b91505092959194509250565b5f60208284031215613ef757613ef6613708565b5b5f613f04848285016137b6565b91505092915050565b5f8060a08385031215613f2357613f22613708565b5b5f613f3085828601613d23565b9250506080613f41858286016137b6565b9150509250929050565b5f60029050919050565b5f81905092915050565b5f819050919050565b613f71816136ce565b82525050565b5f613f828383613f68565b60208301905092915050565b5f602082019050919050565b613fa381613f4b565b613fad8184613f55565b9250613fb882613f5f565b805f5b83811015613fe8578151613fcf8782613f77565b9650613fda83613f8e565b925050600181019050613fbb565b505050505050565b608082015f8201516140045f850182613f9a565b5060208201516140176040850182613f9a565b50505050565b5f6080820190506140305f830184613ff0565b92915050565b5f805f806080858703121561404e5761404d613708565b5b5f61405b878288016137b6565b945050602061406c878288016137b6565b935050604061407d878288016137b6565b925050606061408e878288016137b6565b91505092959194509250565b7f4e487b71000000000000000000000000000000000000000000000000000000005f52601160045260245ffd5b5f6140d1826136ce565b91506140dc836136ce565b92508282019050808211156140f4576140f361409a565b5b92915050565b5f82825260208201905092915050565b7f74696d65206c696d697420686173206e6f7420706173736564000000000000005f82015250565b5f61413e6019836140fa565b91506141498261410a565b602082019050919050565b5f6020820190508181035f83015261416b81614132565b9050919050565b7f636f6e74726163742068617320696e73756666696369656e742062616c616e635f8201527f6500000000000000000000000000000000000000000000000000000000000000602082015250565b5f6141cc6021836140fa565b91506141d782614172565b604082019050919050565b5f6020820190508181035f8301526141f9816141c0565b9050919050565b7f6c617374204b5a47206861736e277420706173736564000000000000000000005f82015250565b5f6142346016836140fa565b915061423f82614200565b602082019050919050565b5f6020820190508181035f83015261426181614228565b9050919050565b7f666972737420736f6e6963206861736e277420706173736564000000000000005f82015250565b5f61429c6019836140fa565b91506142a782614268565b602082019050919050565b5f6020820190508181035f8301526142c981614290565b9050919050565b7f4e487b71000000000000000000000000000000000000000000000000000000005f52601260045260245ffd5b5f614307826136ce565b9150614312836136ce565b925082820390508181111561432a5761432961409a565b5b92915050565b7f56657269666965722e7665726966794b5a473a205f636f6d6d69746d656e742e5f8201527f58206973206f7574206f662072616e6765000000000000000000000000000000602082015250565b5f61438a6031836140fa565b915061439582614330565b604082019050919050565b5f6020820190508181035f8301526143b78161437e565b9050919050565b7f56657269666965722e7665726966794b5a473a205f636f6d6d69746d656e742e5f8201527f59206973206f7574206f662072616e6765000000000000000000000000000000602082015250565b5f6144186031836140fa565b9150614423826143be565b604082019050919050565b5f6020820190508181035f8301526144458161440c565b9050919050565b7f56657269666965722e7665726966794b5a473a205f70726f6f662e58206973205f8201527f6f7574206f662072616e67650000000000000000000000000000000000000000602082015250565b5f6144a6602c836140fa565b91506144b18261444c565b604082019050919050565b5f6020820190508181035f8301526144d38161449a565b9050919050565b7f56657269666965722e7665726966794b5a473a205f70726f6f662e59206973205f8201527f6f7574206f662072616e67650000000000000000000000000000000000000000602082015250565b5f614534602c836140fa565b915061453f826144da565b604082019050919050565b5f6020820190508181035f83015261456181614528565b9050919050565b7f4e487b71000000000000000000000000000000000000000000000000000000005f52603260045260245ffd5b7f56657269666965722e7665726966794b5a473a20685f6e6567617465616c70685f8201527f617a2e585b305d206973206f7574206f662072616e6765000000000000000000602082015250565b5f6145ef6037836140fa565b91506145fa82614595565b604082019050919050565b5f6020820190508181035f83015261461c816145e3565b9050919050565b7f56657269666965722e7665726966794b5a473a20685f6e6567617465616c70685f8201527f617a2e595b315d206973206f7574206f662072616e6765000000000000000000602082015250565b5f61467d6037836140fa565b915061468882614623565b604082019050919050565b5f6020820190508181035f8301526146aa81614671565b9050919050565b7f56657269666965722e7665726966794b5a473a20675f6e6167617465312f7a2e5f8201527f58206973206f7574206f662072616e6765000000000000000000000000000000602082015250565b5f61470b6031836140fa565b9150614716826146b1565b604082019050919050565b5f6020820190508181035f830152614738816146ff565b9050919050565b7f56657269666965722e7665726966794b5a473a20675f6e6167617465312f7a2e5f8201527f59206973206f7574206f662072616e6765000000000000000000000000000000602082015250565b5f6147996031836140fa565b91506147a48261473f565b604082019050919050565b5f6020820190508181035f8301526147c68161478d565b9050919050565b7f56657269666965722e7665726966794b5a473a205f76616c7565206973206f755f8201527f74206f662072616e676500000000000000000000000000000000000000000000602082015250565b5f614827602a836140fa565b9150614832826147cd565b604082019050919050565b5f6020820190508181035f8301526148548161481b565b9050919050565b7f56657269666965722e7665726966794b5a473a205f696e646578206973206f755f8201527f74206f662072616e676500000000000000000000000000000000000000000000602082015250565b5f6148b5602a836140fa565b91506148c08261485b565b604082019050919050565b5f6020820190508181035f8301526148e2816148a9565b9050919050565b5f6148f3826136ce565b91506148fe836136ce565b92508261490e5761490d6142d0565b5b828206905092915050565b5f614923826136ce565b915061492e836136ce565b92508261493e5761493d6142d0565b5b828204905092915050565b5f60ff82169050919050565b5f61495f82614949565b915061496a83614949565b9250828201905060ff8111156149835761498261409a565b5b92915050565b61499281613817565b82525050565b6149a181614949565b82525050565b5f6080820190506149ba5f830187614989565b6149c76020830186614998565b6149d46040830185614989565b6149e16060830184614989565b95945050505050565b7f70616972696e672d6d756c2d6661696c656400000000000000000000000000005f82015250565b5f614a1e6012836140fa565b9150614a29826149ea565b602082019050919050565b5f6020820190508181035f830152614a4b81614a12565b9050919050565b7f70616972696e672d6164642d6661696c656400000000000000000000000000005f82015250565b5f614a866012836140fa565b9150614a9182614a52565b602082019050919050565b5f6020820190508181035f830152614ab381614a7a565b9050919050565b5f614ac4826136ce565b9150614acf836136ce565b9250828202614add816136ce565b91508282048414831517614af457614af361409a565b5b5092915050565b7f70616972696e672d6f70636f64652d6661696c656400000000000000000000005f82015250565b5f614b2f6015836140fa565b9150614b3a82614afb565b602082019050919050565b5f6020820190508181035f830152614b5c81614b23565b9050919050565b5f81519050919050565b5f81905092915050565b5f5b83811015614b94578082015181840152602081019050614b79565b5f8484015250505050565b5f614ba982614b63565b614bb38185614b6d565b9350614bc3818560208601614b77565b80840191505092915050565b5f614bda8284614b9f565b915081905092915050565b7f19457468657265756d205369676e6564204d6573736167653a0a3332000000005f82015250565b5f614c19601c83614b6d565b9150614c2482614be5565b601c82019050919050565b5f819050919050565b614c49614c4482613817565b614c2f565b82525050565b5f614c5982614c0d565b9150614c658284614c38565b6020820191508190509291505056fe32303930303432393839393239313030393037333239393238393436393636303134393731363738353539363235313439313330303639323033353638313439323031363933393137393235372c2034333336393130323335363836393631353338323835393936353237323731373734393336373139303538383334353439353338363836303430373438373135323833383132323030393719ec5dc5aa05a220cd210a113352596ebf80d06a6f776b8e0c656e50a5c5567f1e8a7f23fb27f77ea5b5d42f0e2384facdebebd85f026e2a73e94d4690a40a6801a26469706673582212206c2815dee87ea2ba4b9e72dc71093cfbee6414ea8dd92109aaf2d9f1120d325264736f6c63430008160033",
			"opcodes": "PUSH1 0x80 PUSH1 0x40 MSTORE PUSH2 0x12C TIMESTAMP PUSH3 0x14 SWAP2 SWAP1 PUSH3 0x51F JUMP JUMPDEST PUSH1 0x1 SSTORE PUSH1 0x40 MLOAD DUP1 PUSH1 0x40 ADD PUSH1 0x40 MSTORE DUP1 PUSH1 0x40 MLOAD DUP1 PUSH1 0x40 ADD PUSH1 0x40 MSTORE DUP1 PUSH32 0x198E9393920D483A7260BFB731FB5D25F1AA493335A9E71297E485B7AEF312C2 DUP2 MSTORE PUSH1 0x20 ADD PUSH32 0x1800DEEF121F1E76426A00665E5C4479674322D4F75EDADD46DEBD5CD992F6ED DUP2 MSTORE POP DUP2 MSTORE PUSH1 0x20 ADD PUSH1 0x40 MLOAD DUP1 PUSH1 0x40 ADD PUSH1 0x40 MSTORE DUP1 PUSH32 0x90689D0585FF075EC9E99AD690C3395BC4B313370B38EF355ACDADCD122975B DUP2 MSTORE PUSH1 0x20 ADD PUSH32 0x12C85EA5DB8C6DEB4AAB71808DCB408FE3D1E7690C43D37B4CE6CC0166FA7DAA DUP2 MSTORE POP DUP2 MSTORE POP PUSH1 0x8 PUSH0 DUP3 ADD MLOAD DUP2 PUSH0 ADD SWAP1 PUSH1 0x2 PUSH3 0xED SWAP3 SWAP2 SWAP1 PUSH3 0x487 JUMP JUMPDEST POP PUSH1 0x20 DUP3 ADD MLOAD DUP2 PUSH1 0x2 ADD SWAP1 PUSH1 0x2 PUSH3 0x107 SWAP3 SWAP2 SWAP1 PUSH3 0x487 JUMP JUMPDEST POP POP POP PUSH1 0x40 MLOAD DUP1 PUSH1 0x40 ADD PUSH1 0x40 MSTORE DUP1 PUSH1 0x40 MLOAD DUP1 PUSH1 0x40 ADD PUSH1 0x40 MSTORE DUP1 PUSH32 0x198E9393920D483A7260BFB731FB5D25F1AA493335A9E71297E485B7AEF312C2 DUP2 MSTORE PUSH1 0x20 ADD PUSH32 0x1800DEEF121F1E76426A00665E5C4479674322D4F75EDADD46DEBD5CD992F6ED DUP2 MSTORE POP DUP2 MSTORE PUSH1 0x20 ADD PUSH1 0x40 MLOAD DUP1 PUSH1 0x40 ADD PUSH1 0x40 MSTORE DUP1 PUSH32 0x90689D0585FF075EC9E99AD690C3395BC4B313370B38EF355ACDADCD122975B DUP2 MSTORE PUSH1 0x20 ADD PUSH32 0x12C85EA5DB8C6DEB4AAB71808DCB408FE3D1E7690C43D37B4CE6CC0166FA7DAA DUP2 MSTORE POP DUP2 MSTORE POP PUSH1 0xC PUSH0 DUP3 ADD MLOAD DUP2 PUSH0 ADD SWAP1 PUSH1 0x2 PUSH3 0x1E0 SWAP3 SWAP2 SWAP1 PUSH3 0x487 JUMP JUMPDEST POP PUSH1 0x20 DUP3 ADD MLOAD DUP2 PUSH1 0x2 ADD SWAP1 PUSH1 0x2 PUSH3 0x1FA SWAP3 SWAP2 SWAP1 PUSH3 0x487 JUMP JUMPDEST POP POP POP PUSH1 0x40 MLOAD DUP1 PUSH1 0x40 ADD PUSH1 0x40 MSTORE DUP1 PUSH1 0x40 MLOAD DUP1 PUSH1 0x40 ADD PUSH1 0x40 MSTORE DUP1 PUSH32 0x198E9393920D483A7260BFB731FB5D25F1AA493335A9E71297E485B7AEF312C2 DUP2 MSTORE PUSH1 0x20 ADD PUSH32 0x1800DEEF121F1E76426A00665E5C4479674322D4F75EDADD46DEBD5CD992F6ED DUP2 MSTORE POP DUP2 MSTORE PUSH1 0x20 ADD PUSH1 0x40 MLOAD DUP1 PUSH1 0x40 ADD PUSH1 0x40 MSTORE DUP1 PUSH32 0x90689D0585FF075EC9E99AD690C3395BC4B313370B38EF355ACDADCD122975B DUP2 MSTORE PUSH1 0x20 ADD PUSH32 0x12C85EA5DB8C6DEB4AAB71808DCB408FE3D1E7690C43D37B4CE6CC0166FA7DAA DUP2 MSTORE POP DUP2 MSTORE POP PUSH1 0x10 PUSH0 DUP3 ADD MLOAD DUP2 PUSH0 ADD SWAP1 PUSH1 0x2 PUSH3 0x2D3 SWAP3 SWAP2 SWAP1 PUSH3 0x487 JUMP JUMPDEST POP PUSH1 0x20 DUP3 ADD MLOAD DUP2 PUSH1 0x2 ADD SWAP1 PUSH1 0x2 PUSH3 0x2ED SWAP3 SWAP2 SWAP1 PUSH3 0x487 JUMP JUMPDEST POP POP POP PUSH32 0x30644E72E131A029B85045B68181585D2833E84879B9709143E1F593F0000001 DUP1 PUSH3 0x322 JUMPI PUSH3 0x321 PUSH3 0x559 JUMP JUMPDEST JUMPDEST PUSH1 0x15 SLOAD PUSH1 0x16 SLOAD MULMOD PUSH1 0x14 SSTORE PUSH1 0x2 PUSH1 0x15 SSTORE PUSH1 0x3 PUSH1 0x16 SSTORE PUSH1 0x1 PUSH1 0x17 SSTORE PUSH1 0xE8 PUSH1 0x18 SSTORE PUSH3 0x377 PUSH1 0x15 SLOAD PUSH1 0x18 SLOAD PUSH32 0x30644E72E131A029B85045B68181585D2833E84879B9709143E1F593F0000001 PUSH3 0x38D PUSH1 0x20 SHL PUSH1 0x20 SHR JUMP JUMPDEST PUSH1 0x19 SSTORE CALLVALUE DUP1 ISZERO PUSH3 0x386 JUMPI PUSH0 DUP1 REVERT JUMPDEST POP PUSH3 0x604 JUMP JUMPDEST PUSH0 DUP1 DUP3 SUB PUSH3 0x3D3 JUMPI PUSH1 0x40 MLOAD PUSH32 0x8C379A000000000000000000000000000000000000000000000000000000000 DUP2 MSTORE PUSH1 0x4 ADD PUSH3 0x3CA SWAP1 PUSH3 0x5E4 JUMP JUMPDEST PUSH1 0x40 MLOAD DUP1 SWAP2 SUB SWAP1 REVERT JUMPDEST PUSH0 DUP5 SUB PUSH3 0x3E4 JUMPI PUSH0 SWAP1 POP PUSH3 0x480 JUMP JUMPDEST PUSH0 DUP4 SUB PUSH3 0x3F6 JUMPI PUSH1 0x1 SWAP1 POP PUSH3 0x480 JUMP JUMPDEST PUSH0 PUSH1 0x1 SWAP1 POP PUSH0 PUSH32 0x8000000000000000000000000000000000000000000000000000000000000000 SWAP1 POP JUMPDEST PUSH0 DUP2 GT ISZERO PUSH3 0x47A JUMPI DUP4 DUP2 DUP7 AND ISZERO ISZERO DUP8 EXP DUP6 DUP5 DUP6 MULMOD MULMOD SWAP2 POP DUP4 PUSH1 0x2 DUP3 DIV DUP7 AND ISZERO ISZERO DUP8 EXP DUP6 DUP5 DUP6 MULMOD MULMOD SWAP2 POP DUP4 PUSH1 0x4 DUP3 DIV DUP7 AND ISZERO ISZERO DUP8 EXP DUP6 DUP5 DUP6 MULMOD MULMOD SWAP2 POP DUP4 PUSH1 0x8 DUP3 DIV DUP7 AND ISZERO ISZERO DUP8 EXP DUP6 DUP5 DUP6 MULMOD MULMOD SWAP2 POP PUSH1 0x10 DUP2 DIV SWAP1 POP PUSH3 0x420 JUMP JUMPDEST DUP2 SWAP3 POP POP POP JUMPDEST SWAP4 SWAP3 POP POP POP JUMP JUMPDEST DUP3 PUSH1 0x2 DUP2 ADD SWAP3 DUP3 ISZERO PUSH3 0x4B9 JUMPI SWAP2 PUSH1 0x20 MUL DUP3 ADD JUMPDEST DUP3 DUP2 GT ISZERO PUSH3 0x4B8 JUMPI DUP3 MLOAD DUP3 SSTORE SWAP2 PUSH1 0x20 ADD SWAP2 SWAP1 PUSH1 0x1 ADD SWAP1 PUSH3 0x49B JUMP JUMPDEST JUMPDEST POP SWAP1 POP PUSH3 0x4C8 SWAP2 SWAP1 PUSH3 0x4CC JUMP JUMPDEST POP SWAP1 JUMP JUMPDEST JUMPDEST DUP1 DUP3 GT ISZERO PUSH3 0x4E5 JUMPI PUSH0 DUP2 PUSH0 SWAP1 SSTORE POP PUSH1 0x1 ADD PUSH3 0x4CD JUMP JUMPDEST POP SWAP1 JUMP JUMPDEST PUSH0 DUP2 SWAP1 POP SWAP2 SWAP1 POP JUMP JUMPDEST PUSH32 0x4E487B7100000000000000000000000000000000000000000000000000000000 PUSH0 MSTORE PUSH1 0x11 PUSH1 0x4 MSTORE PUSH1 0x24 PUSH0 REVERT JUMPDEST PUSH0 PUSH3 0x52B DUP3 PUSH3 0x4E9 JUMP JUMPDEST SWAP2 POP PUSH3 0x538 DUP4 PUSH3 0x4E9 JUMP JUMPDEST SWAP3 POP DUP3 DUP3 SUB SWAP1 POP DUP2 DUP2 GT ISZERO PUSH3 0x553 JUMPI PUSH3 0x552 PUSH3 0x4F2 JUMP JUMPDEST JUMPDEST SWAP3 SWAP2 POP POP JUMP JUMPDEST PUSH32 0x4E487B7100000000000000000000000000000000000000000000000000000000 PUSH0 MSTORE PUSH1 0x12 PUSH1 0x4 MSTORE PUSH1 0x24 PUSH0 REVERT JUMPDEST PUSH0 DUP3 DUP3 MSTORE PUSH1 0x20 DUP3 ADD SWAP1 POP SWAP3 SWAP2 POP POP JUMP JUMPDEST PUSH32 0x4D6F64756C7573206973207A65726F0000000000000000000000000000000000 PUSH0 DUP3 ADD MSTORE POP JUMP JUMPDEST PUSH0 PUSH3 0x5CC PUSH1 0xF DUP4 PUSH3 0x586 JUMP JUMPDEST SWAP2 POP PUSH3 0x5D9 DUP3 PUSH3 0x596 JUMP JUMPDEST PUSH1 0x20 DUP3 ADD SWAP1 POP SWAP2 SWAP1 POP JUMP JUMPDEST PUSH0 PUSH1 0x20 DUP3 ADD SWAP1 POP DUP2 DUP2 SUB PUSH0 DUP4 ADD MSTORE PUSH3 0x5FD DUP2 PUSH3 0x5BE JUMP JUMPDEST SWAP1 POP SWAP2 SWAP1 POP JUMP JUMPDEST PUSH2 0x4D85 DUP1 PUSH3 0x612 PUSH0 CODECOPY PUSH0 RETURN INVALID PUSH1 0x80 PUSH1 0x40 MSTORE PUSH1 0x4 CALLDATASIZE LT PUSH2 0xC5 JUMPI PUSH0 CALLDATALOAD PUSH1 0xE0 SHR DUP1 PUSH4 0x86023CBC GT PUSH2 0x7E JUMPI DUP1 PUSH4 0xAD115DB4 GT PUSH2 0x58 JUMPI DUP1 PUSH4 0xAD115DB4 EQ PUSH2 0x283 JUMPI DUP1 PUSH4 0xBE603B1A EQ PUSH2 0x2AB JUMPI DUP1 PUSH4 0xC557B910 EQ PUSH2 0x2E7 JUMPI DUP1 PUSH4 0xE99FA949 EQ PUSH2 0x30F JUMPI PUSH2 0x10B JUMP JUMPDEST DUP1 PUSH4 0x86023CBC EQ PUSH2 0x1F5 JUMPI DUP1 PUSH4 0x903AE890 EQ PUSH2 0x231 JUMPI DUP1 PUSH4 0x95BE59C3 EQ PUSH2 0x26D JUMPI PUSH2 0x10B JUMP JUMPDEST DUP1 PUSH4 0x1B0BF28F EQ PUSH2 0x10F JUMPI DUP1 PUSH4 0x1F6FF3EC EQ PUSH2 0x139 JUMPI DUP1 PUSH4 0x3C979E76 EQ PUSH2 0x14F JUMPI DUP1 PUSH4 0x47799DA8 EQ PUSH2 0x165 JUMPI DUP1 PUSH4 0x60C7DC47 EQ PUSH2 0x18F JUMPI DUP1 PUSH4 0x6A7848B5 EQ PUSH2 0x1B9 JUMPI PUSH2 0x10B JUMP JUMPDEST CALLDATASIZE PUSH2 0x10B JUMPI TIMESTAMP PUSH1 0x1 DUP2 SWAP1 SSTORE POP CALLVALUE PUSH0 DUP2 SWAP1 SSTORE POP PUSH0 PUSH1 0x2 PUSH0 PUSH2 0x100 EXP DUP2 SLOAD DUP2 PUSH1 0xFF MUL NOT AND SWAP1 DUP4 ISZERO ISZERO MUL OR SWAP1 SSTORE POP PUSH0 PUSH1 0x2 PUSH1 0x1 PUSH2 0x100 EXP DUP2 SLOAD DUP2 PUSH1 0xFF MUL NOT AND SWAP1 DUP4 ISZERO ISZERO MUL OR SWAP1 SSTORE STOP JUMPDEST PUSH0 DUP1 REVERT JUMPDEST CALLVALUE DUP1 ISZERO PUSH2 0x11A JUMPI PUSH0 DUP1 REVERT JUMPDEST POP PUSH2 0x123 PUSH2 0x325 JUMP JUMPDEST PUSH1 0x40 MLOAD PUSH2 0x130 SWAP2 SWAP1 PUSH2 0x36E6 JUMP JUMPDEST PUSH1 0x40 MLOAD DUP1 SWAP2 SUB SWAP1 RETURN JUMPDEST CALLVALUE DUP1 ISZERO PUSH2 0x144 JUMPI PUSH0 DUP1 REVERT JUMPDEST POP PUSH2 0x14D PUSH2 0x32B JUMP JUMPDEST STOP JUMPDEST CALLVALUE DUP1 ISZERO PUSH2 0x15A JUMPI PUSH0 DUP1 REVERT JUMPDEST POP PUSH2 0x163 PUSH2 0x4B5 JUMP JUMPDEST STOP JUMPDEST CALLVALUE DUP1 ISZERO PUSH2 0x170 JUMPI PUSH0 DUP1 REVERT JUMPDEST POP PUSH2 0x179 PUSH2 0x4D3 JUMP JUMPDEST PUSH1 0x40 MLOAD PUSH2 0x186 SWAP2 SWAP1 PUSH2 0x36E6 JUMP JUMPDEST PUSH1 0x40 MLOAD DUP1 SWAP2 SUB SWAP1 RETURN JUMPDEST CALLVALUE DUP1 ISZERO PUSH2 0x19A JUMPI PUSH0 DUP1 REVERT JUMPDEST POP PUSH2 0x1A3 PUSH2 0x4D9 JUMP JUMPDEST PUSH1 0x40 MLOAD PUSH2 0x1B0 SWAP2 SWAP1 PUSH2 0x36E6 JUMP JUMPDEST PUSH1 0x40 MLOAD DUP1 SWAP2 SUB SWAP1 RETURN JUMPDEST CALLVALUE DUP1 ISZERO PUSH2 0x1C4 JUMPI PUSH0 DUP1 REVERT JUMPDEST POP PUSH2 0x1DF PUSH1 0x4 DUP1 CALLDATASIZE SUB DUP2 ADD SWAP1 PUSH2 0x1DA SWAP2 SWAP1 PUSH2 0x3BF7 JUMP JUMPDEST PUSH2 0x4DE JUMP JUMPDEST PUSH1 0x40 MLOAD PUSH2 0x1EC SWAP2 SWAP1 PUSH2 0x3C58 JUMP JUMPDEST PUSH1 0x40 MLOAD DUP1 SWAP2 SUB SWAP1 RETURN JUMPDEST CALLVALUE DUP1 ISZERO PUSH2 0x200 JUMPI PUSH0 DUP1 REVERT JUMPDEST POP PUSH2 0x21B PUSH1 0x4 DUP1 CALLDATASIZE SUB DUP2 ADD SWAP1 PUSH2 0x216 SWAP2 SWAP1 PUSH2 0x3E52 JUMP JUMPDEST PUSH2 0x7FB JUMP JUMPDEST PUSH1 0x40 MLOAD PUSH2 0x228 SWAP2 SWAP1 PUSH2 0x3C58 JUMP JUMPDEST PUSH1 0x40 MLOAD DUP1 SWAP2 SUB SWAP1 RETURN JUMPDEST CALLVALUE DUP1 ISZERO PUSH2 0x23C JUMPI PUSH0 DUP1 REVERT JUMPDEST POP PUSH2 0x257 PUSH1 0x4 DUP1 CALLDATASIZE SUB DUP2 ADD SWAP1 PUSH2 0x252 SWAP2 SWAP1 PUSH2 0x3E7E JUMP JUMPDEST PUSH2 0x1143 JUMP JUMPDEST PUSH1 0x40 MLOAD PUSH2 0x264 SWAP2 SWAP1 PUSH2 0x3C58 JUMP JUMPDEST PUSH1 0x40 MLOAD DUP1 SWAP2 SUB SWAP1 RETURN JUMPDEST CALLVALUE DUP1 ISZERO PUSH2 0x278 JUMPI PUSH0 DUP1 REVERT JUMPDEST POP PUSH2 0x281 PUSH2 0x15B1 JUMP JUMPDEST STOP JUMPDEST CALLVALUE DUP1 ISZERO PUSH2 0x28E JUMPI PUSH0 DUP1 REVERT JUMPDEST POP PUSH2 0x2A9 PUSH1 0x4 DUP1 CALLDATASIZE SUB DUP2 ADD SWAP1 PUSH2 0x2A4 SWAP2 SWAP1 PUSH2 0x3EE2 JUMP JUMPDEST PUSH2 0x1745 JUMP JUMPDEST STOP JUMPDEST CALLVALUE DUP1 ISZERO PUSH2 0x2B6 JUMPI PUSH0 DUP1 REVERT JUMPDEST POP PUSH2 0x2D1 PUSH1 0x4 DUP1 CALLDATASIZE SUB DUP2 ADD SWAP1 PUSH2 0x2CC SWAP2 SWAP1 PUSH2 0x3F0D JUMP JUMPDEST PUSH2 0x174F JUMP JUMPDEST PUSH1 0x40 MLOAD PUSH2 0x2DE SWAP2 SWAP1 PUSH2 0x401D JUMP JUMPDEST PUSH1 0x40 MLOAD DUP1 SWAP2 SUB SWAP1 RETURN JUMPDEST CALLVALUE DUP1 ISZERO PUSH2 0x2F2 JUMPI PUSH0 DUP1 REVERT JUMPDEST POP PUSH2 0x30D PUSH1 0x4 DUP1 CALLDATASIZE SUB DUP2 ADD SWAP1 PUSH2 0x308 SWAP2 SWAP1 PUSH2 0x4036 JUMP JUMPDEST PUSH2 0x17EA JUMP JUMPDEST STOP JUMPDEST CALLVALUE DUP1 ISZERO PUSH2 0x31A JUMPI PUSH0 DUP1 REVERT JUMPDEST POP PUSH2 0x323 PUSH2 0x1860 JUMP JUMPDEST STOP JUMPDEST PUSH1 0x1 SLOAD DUP2 JUMP JUMPDEST CALLER PUSH2 0x12C PUSH1 0x1 SLOAD PUSH2 0x33C SWAP2 SWAP1 PUSH2 0x40C7 JUMP JUMPDEST TIMESTAMP GT ISZERO PUSH2 0x37E JUMPI PUSH1 0x40 MLOAD PUSH32 0x8C379A000000000000000000000000000000000000000000000000000000000 DUP2 MSTORE PUSH1 0x4 ADD PUSH2 0x375 SWAP1 PUSH2 0x4154 JUMP JUMPDEST PUSH1 0x40 MLOAD DUP1 SWAP2 SUB SWAP1 REVERT JUMPDEST PUSH0 SLOAD SELFBALANCE LT ISZERO PUSH2 0x3C2 JUMPI PUSH1 0x40 MLOAD PUSH32 0x8C379A000000000000000000000000000000000000000000000000000000000 DUP2 MSTORE PUSH1 0x4 ADD PUSH2 0x3B9 SWAP1 PUSH2 0x41E2 JUMP JUMPDEST PUSH1 0x40 MLOAD DUP1 SWAP2 SUB SWAP1 REVERT JUMPDEST PUSH1 0x1 ISZERO ISZERO PUSH1 0x2 PUSH0 SWAP1 SLOAD SWAP1 PUSH2 0x100 EXP SWAP1 DIV PUSH1 0xFF AND ISZERO ISZERO EQ PUSH2 0x417 JUMPI PUSH1 0x40 MLOAD PUSH32 0x8C379A000000000000000000000000000000000000000000000000000000000 DUP2 MSTORE PUSH1 0x4 ADD PUSH2 0x40E SWAP1 PUSH2 0x424A JUMP JUMPDEST PUSH1 0x40 MLOAD DUP1 SWAP2 SUB SWAP1 REVERT JUMPDEST PUSH1 0x1 ISZERO ISZERO PUSH1 0x2 PUSH1 0x1 SWAP1 SLOAD SWAP1 PUSH2 0x100 EXP SWAP1 DIV PUSH1 0xFF AND ISZERO ISZERO EQ PUSH2 0x46D JUMPI PUSH1 0x40 MLOAD PUSH32 0x8C379A000000000000000000000000000000000000000000000000000000000 DUP2 MSTORE PUSH1 0x4 ADD PUSH2 0x464 SWAP1 PUSH2 0x42B2 JUMP JUMPDEST PUSH1 0x40 MLOAD DUP1 SWAP2 SUB SWAP1 REVERT JUMPDEST CALLER PUSH20 0xFFFFFFFFFFFFFFFFFFFFFFFFFFFFFFFFFFFFFFFF AND PUSH2 0x8FC PUSH0 SLOAD SWAP1 DUP2 ISZERO MUL SWAP1 PUSH1 0x40 MLOAD PUSH0 PUSH1 0x40 MLOAD DUP1 DUP4 SUB DUP2 DUP6 DUP9 DUP9 CALL SWAP4 POP POP POP POP ISZERO DUP1 ISZERO PUSH2 0x4B1 JUMPI RETURNDATASIZE PUSH0 DUP1 RETURNDATACOPY RETURNDATASIZE PUSH0 REVERT JUMPDEST POP POP JUMP JUMPDEST PUSH2 0x4D0 PUSH2 0x4C0 PUSH2 0x1FDF JUMP JUMPDEST PUSH2 0x4C8 PUSH2 0x1FDF JUMP JUMPDEST PUSH1 0x1 DUP1 PUSH2 0x1143 JUMP JUMPDEST POP JUMP JUMPDEST PUSH1 0x7 SLOAD DUP2 JUMP JUMPDEST PUSH0 SLOAD DUP2 JUMP JUMPDEST PUSH0 DUP1 PUSH2 0x4FB DUP4 PUSH2 0x220 ADD MLOAD DUP5 PUSH0 ADD MLOAD PUSH1 0x15 SLOAD DUP7 PUSH2 0x360 ADD MLOAD PUSH2 0x1143 JUMP JUMPDEST SWAP1 POP PUSH2 0x519 DUP4 PUSH2 0x240 ADD MLOAD DUP5 PUSH1 0x20 ADD MLOAD PUSH1 0x15 SLOAD DUP7 PUSH2 0x140 ADD MLOAD PUSH2 0x1143 JUMP JUMPDEST SWAP1 POP PUSH2 0x537 DUP4 PUSH2 0x260 ADD MLOAD DUP5 PUSH1 0x40 ADD MLOAD PUSH1 0x15 SLOAD DUP7 PUSH2 0x120 ADD MLOAD PUSH2 0x1143 JUMP JUMPDEST SWAP1 POP PUSH2 0x555 DUP4 PUSH2 0x260 ADD MLOAD DUP5 PUSH1 0x60 ADD MLOAD PUSH1 0x14 SLOAD DUP7 PUSH2 0x1C0 ADD MLOAD PUSH2 0x1143 JUMP JUMPDEST SWAP1 POP PUSH2 0x573 DUP4 PUSH2 0x280 ADD MLOAD DUP5 PUSH1 0x80 ADD MLOAD PUSH1 0x15 SLOAD DUP7 PUSH2 0x160 ADD MLOAD PUSH2 0x1143 JUMP JUMPDEST SWAP1 POP PUSH2 0x591 DUP4 PUSH2 0x2A0 ADD MLOAD DUP5 PUSH1 0xA0 ADD MLOAD PUSH1 0x16 SLOAD DUP7 PUSH2 0x180 ADD MLOAD PUSH2 0x1143 JUMP JUMPDEST SWAP1 POP PUSH2 0x5AF DUP4 PUSH2 0x2C0 ADD MLOAD DUP5 PUSH1 0xC0 ADD MLOAD PUSH1 0x15 SLOAD DUP7 PUSH2 0x1A0 ADD MLOAD PUSH2 0x1143 JUMP JUMPDEST SWAP1 POP PUSH2 0x5CC DUP4 PUSH2 0x2C0 ADD MLOAD DUP5 PUSH1 0xE0 ADD MLOAD PUSH1 0x1 DUP7 PUSH2 0x1E0 ADD MLOAD PUSH2 0x1143 JUMP JUMPDEST SWAP1 POP PUSH2 0x5EB DUP4 PUSH2 0x2E0 ADD MLOAD DUP5 PUSH2 0x100 ADD MLOAD PUSH1 0x16 SLOAD DUP7 PUSH2 0x200 ADD MLOAD PUSH2 0x1143 JUMP JUMPDEST SWAP1 POP DUP3 PUSH2 0x340 ADD MLOAD PUSH20 0xFFFFFFFFFFFFFFFFFFFFFFFFFFFFFFFFFFFFFFFF AND PUSH2 0x61D DUP5 PUSH2 0x300 ADD MLOAD DUP6 PUSH2 0x320 ADD MLOAD PUSH2 0x2003 JUMP JUMPDEST PUSH20 0xFFFFFFFFFFFFFFFFFFFFFFFFFFFFFFFFFFFFFFFF AND EQ SWAP1 POP PUSH32 0x30644E72E131A029B85045B68181585D2833E84879B9709143E1F593F0000001 DUP1 PUSH2 0x665 JUMPI PUSH2 0x664 PUSH2 0x42D0 JUMP JUMPDEST JUMPDEST PUSH32 0x30644E72E131A029B85045B68181585D2833E84879B9709143E1F593F0000001 DUP1 PUSH2 0x694 JUMPI PUSH2 0x693 PUSH2 0x42D0 JUMP JUMPDEST JUMPDEST PUSH1 0x19 SLOAD DUP6 PUSH2 0x360 ADD MLOAD MULMOD DUP5 PUSH2 0x140 ADD MLOAD ADDMOD DUP4 PUSH2 0x120 ADD MLOAD EQ SWAP1 POP PUSH32 0x30644E72E131A029B85045B68181585D2833E84879B9709143E1F593F0000001 DUP1 PUSH2 0x6DD JUMPI PUSH2 0x6DC PUSH2 0x42D0 JUMP JUMPDEST JUMPDEST DUP4 PUSH2 0x180 ADD MLOAD PUSH32 0x30644E72E131A029B85045B68181585D2833E84879B9709143E1F593F0000001 PUSH2 0x70E SWAP2 SWAP1 PUSH2 0x42FD JUMP JUMPDEST PUSH32 0x30644E72E131A029B85045B68181585D2833E84879B9709143E1F593F0000001 DUP1 PUSH2 0x73D JUMPI PUSH2 0x73C PUSH2 0x42D0 JUMP JUMPDEST JUMPDEST PUSH32 0x30644E72E131A029B85045B68181585D2833E84879B9709143E1F593F0000001 DUP1 PUSH2 0x76C JUMPI PUSH2 0x76B PUSH2 0x42D0 JUMP JUMPDEST JUMPDEST DUP7 PUSH2 0x1A0 ADD MLOAD DUP8 PUSH2 0x1C0 ADD MLOAD ADDMOD DUP7 PUSH2 0x120 ADD MLOAD MULMOD ADDMOD DUP4 PUSH2 0x160 ADD MLOAD EQ SWAP1 POP DUP3 PUSH2 0x200 ADD MLOAD DUP4 PUSH2 0x1E0 ADD MLOAD EQ SWAP1 POP DUP1 ISZERO PUSH2 0x7BB JUMPI PUSH1 0x1 PUSH1 0x2 PUSH1 0x1 PUSH2 0x100 EXP DUP2 SLOAD DUP2 PUSH1 0xFF MUL NOT AND SWAP1 DUP4 ISZERO ISZERO MUL OR SWAP1 SSTORE POP JUMPDEST PUSH32 0x9EBF19A79884326BF6DDFCF4BD501EB6A52B40414ECD5D8A70514F606810801E DUP2 PUSH1 0x40 MLOAD PUSH2 0x7EA SWAP2 SWAP1 PUSH2 0x3C58 JUMP JUMPDEST PUSH1 0x40 MLOAD DUP1 SWAP2 SUB SWAP1 LOG1 DUP1 SWAP2 POP POP SWAP2 SWAP1 POP JUMP JUMPDEST PUSH0 PUSH32 0x30644E72E131A029B85045B68181585D2833E84879B9709143E1F593F0000001 DUP3 PUSH0 ADD MLOAD PUSH0 ADD MLOAD LT PUSH2 0x864 JUMPI PUSH1 0x40 MLOAD PUSH32 0x8C379A000000000000000000000000000000000000000000000000000000000 DUP2 MSTORE PUSH1 0x4 ADD PUSH2 0x85B SWAP1 PUSH2 0x43A0 JUMP JUMPDEST PUSH1 0x40 MLOAD DUP1 SWAP2 SUB SWAP1 REVERT JUMPDEST PUSH32 0x30644E72E131A029B85045B68181585D2833E84879B9709143E1F593F0000001 DUP3 PUSH0 ADD MLOAD PUSH1 0x20 ADD MLOAD LT PUSH2 0x8CD JUMPI PUSH1 0x40 MLOAD PUSH32 0x8C379A000000000000000000000000000000000000000000000000000000000 DUP2 MSTORE PUSH1 0x4 ADD PUSH2 0x8C4 SWAP1 PUSH2 0x442E JUMP JUMPDEST PUSH1 0x40 MLOAD DUP1 SWAP2 SUB SWAP1 REVERT JUMPDEST PUSH32 0x30644E72E131A029B85045B68181585D2833E84879B9709143E1F593F0000001 DUP3 PUSH1 0x20 ADD MLOAD PUSH0 ADD MLOAD LT PUSH2 0x936 JUMPI PUSH1 0x40 MLOAD PUSH32 0x8C379A000000000000000000000000000000000000000000000000000000000 DUP2 MSTORE PUSH1 0x4 ADD PUSH2 0x92D SWAP1 PUSH2 0x44BC JUMP JUMPDEST PUSH1 0x40 MLOAD DUP1 SWAP2 SUB SWAP1 REVERT JUMPDEST PUSH32 0x30644E72E131A029B85045B68181585D2833E84879B9709143E1F593F0000001 DUP3 PUSH1 0x20 ADD MLOAD PUSH1 0x20 ADD MLOAD LT PUSH2 0x9A0 JUMPI PUSH1 0x40 MLOAD PUSH32 0x8C379A000000000000000000000000000000000000000000000000000000000 DUP2 MSTORE PUSH1 0x4 ADD PUSH2 0x997 SWAP1 PUSH2 0x454A JUMP JUMPDEST PUSH1 0x40 MLOAD DUP1 SWAP2 SUB SWAP1 REVERT JUMPDEST PUSH32 0x30644E72E131A029B85045B68181585D2833E84879B9709143E1F593F0000001 DUP3 PUSH1 0x40 ADD MLOAD PUSH0 ADD MLOAD PUSH0 PUSH1 0x2 DUP2 LT PUSH2 0x9DB JUMPI PUSH2 0x9DA PUSH2 0x4568 JUMP JUMPDEST JUMPDEST PUSH1 0x20 MUL ADD MLOAD LT PUSH2 0xA20 JUMPI PUSH1 0x40 MLOAD PUSH32 0x8C379A000000000000000000000000000000000000000000000000000000000 DUP2 MSTORE PUSH1 0x4 ADD PUSH2 0xA17 SWAP1 PUSH2 0x4605 JUMP JUMPDEST PUSH1 0x40 MLOAD DUP1 SWAP2 SUB SWAP1 REVERT JUMPDEST PUSH32 0x30644E72E131A029B85045B68181585D2833E84879B9709143E1F593F0000001 DUP3 PUSH1 0x40 ADD MLOAD PUSH1 0x20 ADD MLOAD PUSH0 PUSH1 0x2 DUP2 LT PUSH2 0xA5C JUMPI PUSH2 0xA5B PUSH2 0x4568 JUMP JUMPDEST JUMPDEST PUSH1 0x20 MUL ADD MLOAD LT PUSH2 0xAA1 JUMPI PUSH1 0x40 MLOAD PUSH32 0x8C379A000000000000000000000000000000000000000000000000000000000 DUP2 MSTORE PUSH1 0x4 ADD PUSH2 0xA98 SWAP1 PUSH2 0x4693 JUMP JUMPDEST PUSH1 0x40 MLOAD DUP1 SWAP2 SUB SWAP1 REVERT JUMPDEST PUSH32 0x30644E72E131A029B85045B68181585D2833E84879B9709143E1F593F0000001 DUP3 PUSH1 0x40 ADD MLOAD PUSH0 ADD MLOAD PUSH1 0x1 PUSH1 0x2 DUP2 LT PUSH2 0xADD JUMPI PUSH2 0xADC PUSH2 0x4568 JUMP JUMPDEST JUMPDEST PUSH1 0x20 MUL ADD MLOAD LT PUSH2 0xB22 JUMPI PUSH1 0x40 MLOAD PUSH32 0x8C379A000000000000000000000000000000000000000000000000000000000 DUP2 MSTORE PUSH1 0x4 ADD PUSH2 0xB19 SWAP1 PUSH2 0x4605 JUMP JUMPDEST PUSH1 0x40 MLOAD DUP1 SWAP2 SUB SWAP1 REVERT JUMPDEST PUSH32 0x30644E72E131A029B85045B68181585D2833E84879B9709143E1F593F0000001 DUP3 PUSH1 0x40 ADD MLOAD PUSH1 0x20 ADD MLOAD PUSH1 0x1 PUSH1 0x2 DUP2 LT PUSH2 0xB5F JUMPI PUSH2 0xB5E PUSH2 0x4568 JUMP JUMPDEST JUMPDEST PUSH1 0x20 MUL ADD MLOAD LT PUSH2 0xBA4 JUMPI PUSH1 0x40 MLOAD PUSH32 0x8C379A000000000000000000000000000000000000000000000000000000000 DUP2 MSTORE PUSH1 0x4 ADD PUSH2 0xB9B SWAP1 PUSH2 0x4693 JUMP JUMPDEST PUSH1 0x40 MLOAD DUP1 SWAP2 SUB SWAP1 REVERT JUMPDEST PUSH32 0x30644E72E131A029B85045B68181585D2833E84879B9709143E1F593F0000001 DUP3 PUSH1 0x60 ADD MLOAD PUSH0 ADD MLOAD LT PUSH2 0xC0D JUMPI PUSH1 0x40 MLOAD PUSH32 0x8C379A000000000000000000000000000000000000000000000000000000000 DUP2 MSTORE PUSH1 0x4 ADD PUSH2 0xC04 SWAP1 PUSH2 0x4721 JUMP JUMPDEST PUSH1 0x40 MLOAD DUP1 SWAP2 SUB SWAP1 REVERT JUMPDEST PUSH32 0x30644E72E131A029B85045B68181585D2833E84879B9709143E1F593F0000001 DUP3 PUSH1 0x60 ADD MLOAD PUSH1 0x20 ADD MLOAD LT PUSH2 0xC77 JUMPI PUSH1 0x40 MLOAD PUSH32 0x8C379A000000000000000000000000000000000000000000000000000000000 DUP2 MSTORE PUSH1 0x4 ADD PUSH2 0xC6E SWAP1 PUSH2 0x47AF JUMP JUMPDEST PUSH1 0x40 MLOAD DUP1 SWAP2 SUB SWAP1 REVERT JUMPDEST PUSH32 0x30644E72E131A029B85045B68181585D2833E84879B9709143E1F593F0000001 DUP3 PUSH1 0x80 ADD MLOAD LT PUSH2 0xCDD JUMPI PUSH1 0x40 MLOAD PUSH32 0x8C379A000000000000000000000000000000000000000000000000000000000 DUP2 MSTORE PUSH1 0x4 ADD PUSH2 0xCD4 SWAP1 PUSH2 0x483D JUMP JUMPDEST PUSH1 0x40 MLOAD DUP1 SWAP2 SUB SWAP1 REVERT JUMPDEST PUSH0 PUSH2 0xCFD PUSH2 0xCF3 DUP5 PUSH1 0x60 ADD MLOAD DUP6 PUSH1 0x80 ADD MLOAD PUSH2 0x20CE JUMP JUMPDEST DUP5 PUSH1 0x20 ADD MLOAD PUSH2 0x21A2 JUMP JUMPDEST SWAP1 POP PUSH2 0xE4A DUP4 PUSH1 0x20 ADD MLOAD PUSH1 0x10 PUSH1 0x40 MLOAD DUP1 PUSH1 0x40 ADD PUSH1 0x40 MSTORE SWAP1 DUP2 PUSH0 DUP3 ADD PUSH1 0x2 DUP1 PUSH1 0x20 MUL PUSH1 0x40 MLOAD SWAP1 DUP2 ADD PUSH1 0x40 MSTORE DUP1 SWAP3 SWAP2 SWAP1 DUP3 PUSH1 0x2 DUP1 ISZERO PUSH2 0xD4F JUMPI PUSH1 0x20 MUL DUP3 ADD SWAP2 JUMPDEST DUP2 SLOAD DUP2 MSTORE PUSH1 0x20 ADD SWAP1 PUSH1 0x1 ADD SWAP1 DUP1 DUP4 GT PUSH2 0xD3B JUMPI JUMPDEST POP POP POP POP POP DUP2 MSTORE PUSH1 0x20 ADD PUSH1 0x2 DUP3 ADD PUSH1 0x2 DUP1 PUSH1 0x20 MUL PUSH1 0x40 MLOAD SWAP1 DUP2 ADD PUSH1 0x40 MSTORE DUP1 SWAP3 SWAP2 SWAP1 DUP3 PUSH1 0x2 DUP1 ISZERO PUSH2 0xD94 JUMPI PUSH1 0x20 MUL DUP3 ADD SWAP2 JUMPDEST DUP2 SLOAD DUP2 MSTORE PUSH1 0x20 ADD SWAP1 PUSH1 0x1 ADD SWAP1 DUP1 DUP4 GT PUSH2 0xD80 JUMPI JUMPDEST POP POP POP POP POP DUP2 MSTORE POP POP DUP4 DUP7 PUSH1 0x40 ADD MLOAD PUSH2 0xDAF DUP9 PUSH0 ADD MLOAD PUSH2 0x229B JUMP JUMPDEST PUSH1 0x8 PUSH1 0x40 MLOAD DUP1 PUSH1 0x40 ADD PUSH1 0x40 MSTORE SWAP1 DUP2 PUSH0 DUP3 ADD PUSH1 0x2 DUP1 PUSH1 0x20 MUL PUSH1 0x40 MLOAD SWAP1 DUP2 ADD PUSH1 0x40 MSTORE DUP1 SWAP3 SWAP2 SWAP1 DUP3 PUSH1 0x2 DUP1 ISZERO PUSH2 0xDF7 JUMPI PUSH1 0x20 MUL DUP3 ADD SWAP2 JUMPDEST DUP2 SLOAD DUP2 MSTORE PUSH1 0x20 ADD SWAP1 PUSH1 0x1 ADD SWAP1 DUP1 DUP4 GT PUSH2 0xDE3 JUMPI JUMPDEST POP POP POP POP POP DUP2 MSTORE PUSH1 0x20 ADD PUSH1 0x2 DUP3 ADD PUSH1 0x2 DUP1 PUSH1 0x20 MUL PUSH1 0x40 MLOAD SWAP1 DUP2 ADD PUSH1 0x40 MSTORE DUP1 SWAP3 SWAP2 SWAP1 DUP3 PUSH1 0x2 DUP1 ISZERO PUSH2 0xE3C JUMPI PUSH1 0x20 MUL DUP3 ADD SWAP2 JUMPDEST DUP2 SLOAD DUP2 MSTORE PUSH1 0x20 ADD SWAP1 PUSH1 0x1 ADD SWAP1 DUP1 DUP4 GT PUSH2 0xE28 JUMPI JUMPDEST POP POP POP POP POP DUP2 MSTORE POP POP PUSH2 0x2353 JUMP JUMPDEST ISZERO PUSH2 0x1139 JUMPI PUSH0 PUSH2 0xE65 PUSH2 0xE5B PUSH2 0x1FDF JUMP JUMPDEST DUP6 PUSH1 0xE0 ADD MLOAD PUSH2 0x20CE JUMP JUMPDEST SWAP1 POP PUSH0 PUSH2 0xE85 DUP6 PUSH1 0x60 ADD MLOAD PUSH2 0xE80 DUP8 PUSH1 0x60 ADD MLOAD PUSH1 0x17 SLOAD PUSH2 0x20CE JUMP JUMPDEST PUSH2 0x21A2 JUMP JUMPDEST SWAP1 POP PUSH0 PUSH2 0xF2C PUSH1 0xC PUSH1 0x40 MLOAD DUP1 PUSH1 0x40 ADD PUSH1 0x40 MSTORE SWAP1 DUP2 PUSH0 DUP3 ADD PUSH1 0x2 DUP1 PUSH1 0x20 MUL PUSH1 0x40 MLOAD SWAP1 DUP2 ADD PUSH1 0x40 MSTORE DUP1 SWAP3 SWAP2 SWAP1 DUP3 PUSH1 0x2 DUP1 ISZERO PUSH2 0xED3 JUMPI PUSH1 0x20 MUL DUP3 ADD SWAP2 JUMPDEST DUP2 SLOAD DUP2 MSTORE PUSH1 0x20 ADD SWAP1 PUSH1 0x1 ADD SWAP1 DUP1 DUP4 GT PUSH2 0xEBF JUMPI JUMPDEST POP POP POP POP POP DUP2 MSTORE PUSH1 0x20 ADD PUSH1 0x2 DUP3 ADD PUSH1 0x2 DUP1 PUSH1 0x20 MUL PUSH1 0x40 MLOAD SWAP1 DUP2 ADD PUSH1 0x40 MSTORE DUP1 SWAP3 SWAP2 SWAP1 DUP3 PUSH1 0x2 DUP1 ISZERO PUSH2 0xF18 JUMPI PUSH1 0x20 MUL DUP3 ADD SWAP2 JUMPDEST DUP2 SLOAD DUP2 MSTORE PUSH1 0x20 ADD SWAP1 PUSH1 0x1 ADD SWAP1 DUP1 DUP4 GT PUSH2 0xF04 JUMPI JUMPDEST POP POP POP POP POP DUP2 MSTORE POP POP DUP8 PUSH2 0x100 ADD MLOAD PUSH2 0x174F JUMP JUMPDEST SWAP1 POP PUSH0 PUSH2 0xFDD DUP8 PUSH1 0xC0 ADD MLOAD PUSH2 0xFD8 PUSH1 0x10 PUSH1 0x40 MLOAD DUP1 PUSH1 0x40 ADD PUSH1 0x40 MSTORE SWAP1 DUP2 PUSH0 DUP3 ADD PUSH1 0x2 DUP1 PUSH1 0x20 MUL PUSH1 0x40 MLOAD SWAP1 DUP2 ADD PUSH1 0x40 MSTORE DUP1 SWAP3 SWAP2 SWAP1 DUP3 PUSH1 0x2 DUP1 ISZERO PUSH2 0xF82 JUMPI PUSH1 0x20 MUL DUP3 ADD SWAP2 JUMPDEST DUP2 SLOAD DUP2 MSTORE PUSH1 0x20 ADD SWAP1 PUSH1 0x1 ADD SWAP1 DUP1 DUP4 GT PUSH2 0xF6E JUMPI JUMPDEST POP POP POP POP POP DUP2 MSTORE PUSH1 0x20 ADD PUSH1 0x2 DUP3 ADD PUSH1 0x2 DUP1 PUSH1 0x20 MUL PUSH1 0x40 MLOAD SWAP1 DUP2 ADD PUSH1 0x40 MSTORE DUP1 SWAP3 SWAP2 SWAP1 DUP3 PUSH1 0x2 DUP1 ISZERO PUSH2 0xFC7 JUMPI PUSH1 0x20 MUL DUP3 ADD SWAP2 JUMPDEST DUP2 SLOAD DUP2 MSTORE PUSH1 0x20 ADD SWAP1 PUSH1 0x1 ADD SWAP1 DUP1 DUP4 GT PUSH2 0xFB3 JUMPI JUMPDEST POP POP POP POP POP DUP2 MSTORE POP POP PUSH1 0x17 SLOAD PUSH2 0x174F JUMP JUMPDEST PUSH2 0x26A5 JUMP JUMPDEST SWAP1 POP DUP3 PUSH0 ADD MLOAD DUP5 PUSH0 ADD MLOAD EQ DUP1 ISZERO PUSH2 0xFFB JUMPI POP DUP3 PUSH1 0x20 ADD MLOAD DUP5 PUSH1 0x20 ADD MLOAD EQ JUMPDEST DUP1 ISZERO PUSH2 0x103C JUMPI POP DUP1 PUSH0 ADD MLOAD PUSH1 0x1 PUSH1 0x2 DUP2 LT PUSH2 0x1019 JUMPI PUSH2 0x1018 PUSH2 0x4568 JUMP JUMPDEST JUMPDEST PUSH1 0x20 MUL ADD MLOAD DUP3 PUSH0 ADD MLOAD PUSH1 0x1 PUSH1 0x2 DUP2 LT PUSH2 0x1035 JUMPI PUSH2 0x1034 PUSH2 0x4568 JUMP JUMPDEST JUMPDEST PUSH1 0x20 MUL ADD MLOAD EQ JUMPDEST DUP1 ISZERO PUSH2 0x107C JUMPI POP DUP1 PUSH0 ADD MLOAD PUSH0 PUSH1 0x2 DUP2 LT PUSH2 0x1059 JUMPI PUSH2 0x1058 PUSH2 0x4568 JUMP JUMPDEST JUMPDEST PUSH1 0x20 MUL ADD MLOAD DUP3 PUSH1 0x20 ADD MLOAD PUSH0 PUSH1 0x2 DUP2 LT PUSH2 0x1075 JUMPI PUSH2 0x1074 PUSH2 0x4568 JUMP JUMPDEST JUMPDEST PUSH1 0x20 MUL ADD MLOAD EQ JUMPDEST DUP1 ISZERO PUSH2 0x10BC JUMPI POP DUP1 PUSH0 ADD MLOAD PUSH0 PUSH1 0x2 DUP2 LT PUSH2 0x1099 JUMPI PUSH2 0x1098 PUSH2 0x4568 JUMP JUMPDEST JUMPDEST PUSH1 0x20 MUL ADD MLOAD DUP3 PUSH1 0x20 ADD MLOAD PUSH0 PUSH1 0x2 DUP2 LT PUSH2 0x10B5 JUMPI PUSH2 0x10B4 PUSH2 0x4568 JUMP JUMPDEST JUMPDEST PUSH1 0x20 MUL ADD MLOAD EQ JUMPDEST DUP1 ISZERO PUSH2 0x10FF JUMPI POP DUP1 PUSH1 0x20 ADD MLOAD PUSH1 0x1 PUSH1 0x2 DUP2 LT PUSH2 0x10DB JUMPI PUSH2 0x10DA PUSH2 0x4568 JUMP JUMPDEST JUMPDEST PUSH1 0x20 MUL ADD MLOAD DUP3 PUSH1 0x20 ADD MLOAD PUSH1 0x1 PUSH1 0x2 DUP2 LT PUSH2 0x10F8 JUMPI PUSH2 0x10F7 PUSH2 0x4568 JUMP JUMPDEST JUMPDEST PUSH1 0x20 MUL ADD MLOAD EQ JUMPDEST ISZERO PUSH2 0x112C JUMPI PUSH1 0x1 PUSH1 0x2 PUSH0 PUSH2 0x100 EXP DUP2 SLOAD DUP2 PUSH1 0xFF MUL NOT AND SWAP1 DUP4 ISZERO ISZERO MUL OR SWAP1 SSTORE POP PUSH1 0x1 SWAP6 POP POP POP POP POP POP PUSH2 0x113E JUMP JUMPDEST PUSH0 SWAP6 POP POP POP POP POP POP PUSH2 0x113E JUMP JUMPDEST PUSH0 SWAP2 POP POP JUMPDEST SWAP2 SWAP1 POP JUMP JUMPDEST PUSH0 PUSH32 0x30644E72E131A029B85045B68181585D2833E84879B9709143E1F593F0000001 DUP6 PUSH0 ADD MLOAD LT PUSH2 0x11A9 JUMPI PUSH1 0x40 MLOAD PUSH32 0x8C379A000000000000000000000000000000000000000000000000000000000 DUP2 MSTORE PUSH1 0x4 ADD PUSH2 0x11A0 SWAP1 PUSH2 0x43A0 JUMP JUMPDEST PUSH1 0x40 MLOAD DUP1 SWAP2 SUB SWAP1 REVERT JUMPDEST PUSH32 0x30644E72E131A029B85045B68181585D2833E84879B9709143E1F593F0000001 DUP6 PUSH1 0x20 ADD MLOAD LT PUSH2 0x120F JUMPI PUSH1 0x40 MLOAD PUSH32 0x8C379A000000000000000000000000000000000000000000000000000000000 DUP2 MSTORE PUSH1 0x4 ADD PUSH2 0x1206 SWAP1 PUSH2 0x442E JUMP JUMPDEST PUSH1 0x40 MLOAD DUP1 SWAP2 SUB SWAP1 REVERT JUMPDEST PUSH32 0x30644E72E131A029B85045B68181585D2833E84879B9709143E1F593F0000001 DUP5 PUSH0 ADD MLOAD LT PUSH2 0x1274 JUMPI PUSH1 0x40 MLOAD PUSH32 0x8C379A000000000000000000000000000000000000000000000000000000000 DUP2 MSTORE PUSH1 0x4 ADD PUSH2 0x126B SWAP1 PUSH2 0x44BC JUMP JUMPDEST PUSH1 0x40 MLOAD DUP1 SWAP2 SUB SWAP1 REVERT JUMPDEST PUSH32 0x30644E72E131A029B85045B68181585D2833E84879B9709143E1F593F0000001 DUP5 PUSH1 0x20 ADD MLOAD LT PUSH2 0x12DA JUMPI PUSH1 0x40 MLOAD PUSH32 0x8C379A000000000000000000000000000000000000000000000000000000000 DUP2 MSTORE PUSH1 0x4 ADD PUSH2 0x12D1 SWAP1 PUSH2 0x454A JUMP JUMPDEST PUSH1 0x40 MLOAD DUP1 SWAP2 SUB SWAP1 REVERT JUMPDEST PUSH32 0x30644E72E131A029B85045B68181585D2833E84879B9709143E1F593F0000001 DUP4 LT PUSH2 0x133C JUMPI PUSH1 0x40 MLOAD PUSH32 0x8C379A000000000000000000000000000000000000000000000000000000000 DUP2 MSTORE PUSH1 0x4 ADD PUSH2 0x1333 SWAP1 PUSH2 0x48CB JUMP JUMPDEST PUSH1 0x40 MLOAD DUP1 SWAP2 SUB SWAP1 REVERT JUMPDEST PUSH32 0x30644E72E131A029B85045B68181585D2833E84879B9709143E1F593F0000001 DUP3 LT PUSH2 0x139E JUMPI PUSH1 0x40 MLOAD PUSH32 0x8C379A000000000000000000000000000000000000000000000000000000000 DUP2 MSTORE PUSH1 0x4 ADD PUSH2 0x1395 SWAP1 PUSH2 0x483D JUMP JUMPDEST PUSH1 0x40 MLOAD DUP1 SWAP2 SUB SWAP1 REVERT JUMPDEST PUSH0 PUSH2 0x13B1 PUSH2 0x13AC DUP7 DUP7 PUSH2 0x20CE JUMP JUMPDEST PUSH2 0x229B JUMP JUMPDEST SWAP1 POP PUSH0 PUSH2 0x13CE PUSH2 0x13C8 PUSH2 0x13C2 PUSH2 0x1FDF JUMP JUMPDEST DUP7 PUSH2 0x20CE JUMP JUMPDEST DUP4 PUSH2 0x21A2 JUMP JUMPDEST SWAP1 POP PUSH2 0x15A5 DUP7 PUSH1 0x10 PUSH1 0x40 MLOAD DUP1 PUSH1 0x40 ADD PUSH1 0x40 MSTORE SWAP1 DUP2 PUSH0 DUP3 ADD PUSH1 0x2 DUP1 PUSH1 0x20 MUL PUSH1 0x40 MLOAD SWAP1 DUP2 ADD PUSH1 0x40 MSTORE DUP1 SWAP3 SWAP2 SWAP1 DUP3 PUSH1 0x2 DUP1 ISZERO PUSH2 0x141C JUMPI PUSH1 0x20 MUL DUP3 ADD SWAP2 JUMPDEST DUP2 SLOAD DUP2 MSTORE PUSH1 0x20 ADD SWAP1 PUSH1 0x1 ADD SWAP1 DUP1 DUP4 GT PUSH2 0x1408 JUMPI JUMPDEST POP POP POP POP POP DUP2 MSTORE PUSH1 0x20 ADD PUSH1 0x2 DUP3 ADD PUSH1 0x2 DUP1 PUSH1 0x20 MUL PUSH1 0x40 MLOAD SWAP1 DUP2 ADD PUSH1 0x40 MSTORE DUP1 SWAP3 SWAP2 SWAP1 DUP3 PUSH1 0x2 DUP1 ISZERO PUSH2 0x1461 JUMPI PUSH1 0x20 MUL DUP3 ADD SWAP2 JUMPDEST DUP2 SLOAD DUP2 MSTORE PUSH1 0x20 ADD SWAP1 PUSH1 0x1 ADD SWAP1 DUP1 DUP4 GT PUSH2 0x144D JUMPI JUMPDEST POP POP POP POP POP DUP2 MSTORE POP POP DUP4 PUSH1 0xC PUSH1 0x40 MLOAD DUP1 PUSH1 0x40 ADD PUSH1 0x40 MSTORE SWAP1 DUP2 PUSH0 DUP3 ADD PUSH1 0x2 DUP1 PUSH1 0x20 MUL PUSH1 0x40 MLOAD SWAP1 DUP2 ADD PUSH1 0x40 MSTORE DUP1 SWAP3 SWAP2 SWAP1 DUP3 PUSH1 0x2 DUP1 ISZERO PUSH2 0x14B3 JUMPI PUSH1 0x20 MUL DUP3 ADD SWAP2 JUMPDEST DUP2 SLOAD DUP2 MSTORE PUSH1 0x20 ADD SWAP1 PUSH1 0x1 ADD SWAP1 DUP1 DUP4 GT PUSH2 0x149F JUMPI JUMPDEST POP POP POP POP POP DUP2 MSTORE PUSH1 0x20 ADD PUSH1 0x2 DUP3 ADD PUSH1 0x2 DUP1 PUSH1 0x20 MUL PUSH1 0x40 MLOAD SWAP1 DUP2 ADD PUSH1 0x40 MSTORE DUP1 SWAP3 SWAP2 SWAP1 DUP3 PUSH1 0x2 DUP1 ISZERO PUSH2 0x14F8 JUMPI PUSH1 0x20 MUL DUP3 ADD SWAP2 JUMPDEST DUP2 SLOAD DUP2 MSTORE PUSH1 0x20 ADD SWAP1 PUSH1 0x1 ADD SWAP1 DUP1 DUP4 GT PUSH2 0x14E4 JUMPI JUMPDEST POP POP POP POP POP DUP2 MSTORE POP POP PUSH2 0x150A DUP13 PUSH2 0x229B JUMP JUMPDEST PUSH1 0x8 PUSH1 0x40 MLOAD DUP1 PUSH1 0x40 ADD PUSH1 0x40 MSTORE SWAP1 DUP2 PUSH0 DUP3 ADD PUSH1 0x2 DUP1 PUSH1 0x20 MUL PUSH1 0x40 MLOAD SWAP1 DUP2 ADD PUSH1 0x40 MSTORE DUP1 SWAP3 SWAP2 SWAP1 DUP3 PUSH1 0x2 DUP1 ISZERO PUSH2 0x1552 JUMPI PUSH1 0x20 MUL DUP3 ADD SWAP2 JUMPDEST DUP2 SLOAD DUP2 MSTORE PUSH1 0x20 ADD SWAP1 PUSH1 0x1 ADD SWAP1 DUP1 DUP4 GT PUSH2 0x153E JUMPI JUMPDEST POP POP POP POP POP DUP2 MSTORE PUSH1 0x20 ADD PUSH1 0x2 DUP3 ADD PUSH1 0x2 DUP1 PUSH1 0x20 MUL PUSH1 0x40 MLOAD SWAP1 DUP2 ADD PUSH1 0x40 MSTORE DUP1 SWAP3 SWAP2 SWAP1 DUP3 PUSH1 0x2 DUP1 ISZERO PUSH2 0x1597 JUMPI PUSH1 0x20 MUL DUP3 ADD SWAP2 JUMPDEST DUP2 SLOAD DUP2 MSTORE PUSH1 0x20 ADD SWAP1 PUSH1 0x1 ADD SWAP1 DUP1 DUP4 GT PUSH2 0x1583 JUMPI JUMPDEST POP POP POP POP POP DUP2 MSTORE POP POP PUSH2 0x2353 JUMP JUMPDEST SWAP3 POP POP POP SWAP5 SWAP4 POP POP POP POP JUMP JUMPDEST PUSH2 0x1742 PUSH1 0x40 MLOAD DUP1 PUSH2 0x120 ADD PUSH1 0x40 MSTORE DUP1 PUSH2 0x15C8 PUSH2 0x1FDF JUMP JUMPDEST DUP2 MSTORE PUSH1 0x20 ADD PUSH2 0x15D5 PUSH2 0x1FDF JUMP JUMPDEST DUP2 MSTORE PUSH1 0x20 ADD PUSH1 0x8 PUSH1 0x40 MLOAD DUP1 PUSH1 0x40 ADD PUSH1 0x40 MSTORE SWAP1 DUP2 PUSH0 DUP3 ADD PUSH1 0x2 DUP1 PUSH1 0x20 MUL PUSH1 0x40 MLOAD SWAP1 DUP2 ADD PUSH1 0x40 MSTORE DUP1 SWAP3 SWAP2 SWAP1 DUP3 PUSH1 0x2 DUP1 ISZERO PUSH2 0x1622 JUMPI PUSH1 0x20 MUL DUP3 ADD SWAP2 JUMPDEST DUP2 SLOAD DUP2 MSTORE PUSH1 0x20 ADD SWAP1 PUSH1 0x1 ADD SWAP1 DUP1 DUP4 GT PUSH2 0x160E JUMPI JUMPDEST POP POP POP POP POP DUP2 MSTORE PUSH1 0x20 ADD PUSH1 0x2 DUP3 ADD PUSH1 0x2 DUP1 PUSH1 0x20 MUL PUSH1 0x40 MLOAD SWAP1 DUP2 ADD PUSH1 0x40 MSTORE DUP1 SWAP3 SWAP2 SWAP1 DUP3 PUSH1 0x2 DUP1 ISZERO PUSH2 0x1667 JUMPI PUSH1 0x20 MUL DUP3 ADD SWAP2 JUMPDEST DUP2 SLOAD DUP2 MSTORE PUSH1 0x20 ADD SWAP1 PUSH1 0x1 ADD SWAP1 DUP1 DUP4 GT PUSH2 0x1653 JUMPI JUMPDEST POP POP POP POP POP DUP2 MSTORE POP POP DUP2 MSTORE PUSH1 0x20 ADD PUSH2 0x167D PUSH2 0x1FDF JUMP JUMPDEST DUP2 MSTORE PUSH1 0x20 ADD PUSH1 0x1 DUP2 MSTORE PUSH1 0x20 ADD PUSH2 0x1691 PUSH2 0x1FDF JUMP JUMPDEST DUP2 MSTORE PUSH1 0x20 ADD PUSH1 0x8 PUSH1 0x40 MLOAD DUP1 PUSH1 0x40 ADD PUSH1 0x40 MSTORE SWAP1 DUP2 PUSH0 DUP3 ADD PUSH1 0x2 DUP1 PUSH1 0x20 MUL PUSH1 0x40 MLOAD SWAP1 DUP2 ADD PUSH1 0x40 MSTORE DUP1 SWAP3 SWAP2 SWAP1 DUP3 PUSH1 0x2 DUP1 ISZERO PUSH2 0x16DE JUMPI PUSH1 0x20 MUL DUP3 ADD SWAP2 JUMPDEST DUP2 SLOAD DUP2 MSTORE PUSH1 0x20 ADD SWAP1 PUSH1 0x1 ADD SWAP1 DUP1 DUP4 GT PUSH2 0x16CA JUMPI JUMPDEST POP POP POP POP POP DUP2 MSTORE PUSH1 0x20 ADD PUSH1 0x2 DUP3 ADD PUSH1 0x2 DUP1 PUSH1 0x20 MUL PUSH1 0x40 MLOAD SWAP1 DUP2 ADD PUSH1 0x40 MSTORE DUP1 SWAP3 SWAP2 SWAP1 DUP3 PUSH1 0x2 DUP1 ISZERO PUSH2 0x1723 JUMPI PUSH1 0x20 MUL DUP3 ADD SWAP2 JUMPDEST DUP2 SLOAD DUP2 MSTORE PUSH1 0x20 ADD SWAP1 PUSH1 0x1 ADD SWAP1 DUP1 DUP4 GT PUSH2 0x170F JUMPI JUMPDEST POP POP POP POP POP DUP2 MSTORE POP POP DUP2 MSTORE PUSH1 0x20 ADD PUSH1 0x1 DUP2 MSTORE PUSH1 0x20 ADD PUSH1 0x1 DUP2 MSTORE POP PUSH2 0x7FB JUMP JUMPDEST POP JUMP JUMPDEST DUP1 PUSH1 0x7 DUP2 SWAP1 SSTORE POP POP JUMP JUMPDEST PUSH2 0x1757 PUSH2 0x357F JUMP JUMPDEST PUSH0 PUSH1 0x40 MLOAD DUP1 PUSH1 0x40 ADD PUSH1 0x40 MSTORE DUP1 PUSH1 0x40 MLOAD DUP1 PUSH1 0x40 ADD PUSH1 0x40 MSTORE DUP1 PUSH0 DUP2 MSTORE PUSH1 0x20 ADD PUSH0 DUP2 MSTORE POP DUP2 MSTORE PUSH1 0x20 ADD PUSH1 0x40 MLOAD DUP1 PUSH1 0x40 ADD PUSH1 0x40 MSTORE DUP1 PUSH0 DUP2 MSTORE PUSH1 0x20 ADD PUSH0 DUP2 MSTORE POP DUP2 MSTORE POP SWAP1 POP JUMPDEST PUSH0 DUP4 GT ISZERO PUSH2 0x17E0 JUMPI PUSH1 0x1 PUSH1 0x2 DUP5 PUSH2 0x17AF SWAP2 SWAP1 PUSH2 0x48E9 JUMP JUMPDEST SUB PUSH2 0x17C1 JUMPI PUSH2 0x17BE DUP2 DUP6 PUSH2 0x26A5 JUMP JUMPDEST SWAP1 POP JUMPDEST PUSH1 0x2 DUP4 PUSH2 0x17CE SWAP2 SWAP1 PUSH2 0x4919 JUMP JUMPDEST SWAP3 POP PUSH2 0x17D9 DUP5 PUSH2 0x2D6F JUMP JUMPDEST SWAP4 POP PUSH2 0x1798 JUMP JUMPDEST DUP1 SWAP2 POP POP SWAP3 SWAP2 POP POP JUMP JUMPDEST PUSH1 0x40 MLOAD DUP1 PUSH1 0x40 ADD PUSH1 0x40 MSTORE DUP1 PUSH1 0x40 MLOAD DUP1 PUSH1 0x40 ADD PUSH1 0x40 MSTORE DUP1 DUP8 DUP2 MSTORE PUSH1 0x20 ADD DUP7 DUP2 MSTORE POP DUP2 MSTORE PUSH1 0x20 ADD PUSH1 0x40 MLOAD DUP1 PUSH1 0x40 ADD PUSH1 0x40 MSTORE DUP1 DUP6 DUP2 MSTORE PUSH1 0x20 ADD DUP5 DUP2 MSTORE POP DUP2 MSTORE POP PUSH1 0x3 PUSH0 DUP3 ADD MLOAD DUP2 PUSH0 ADD SWAP1 PUSH1 0x2 PUSH2 0x183E SWAP3 SWAP2 SWAP1 PUSH2 0x35A5 JUMP JUMPDEST POP PUSH1 0x20 DUP3 ADD MLOAD DUP2 PUSH1 0x2 ADD SWAP1 PUSH1 0x2 PUSH2 0x1856 SWAP3 SWAP2 SWAP1 PUSH2 0x35A5 JUMP JUMPDEST POP SWAP1 POP POP POP POP POP POP JUMP JUMPDEST PUSH2 0x1FDC PUSH1 0x40 MLOAD DUP1 PUSH2 0x380 ADD PUSH1 0x40 MSTORE DUP1 PUSH1 0x40 MLOAD DUP1 PUSH1 0x40 ADD PUSH1 0x40 MSTORE DUP1 PUSH32 0x2D2E305D3AB2DC6E0081FFCF4A701F924A1A7296CDC32046C10C0B6F992387B2 DUP2 MSTORE PUSH1 0x20 ADD PUSH32 0x10D4D3CCA369C48670346EF36C6739E885BB11B52038A89C706AACFB7D72D789 DUP2 MSTORE POP DUP2 MSTORE PUSH1 0x20 ADD PUSH1 0x40 MLOAD DUP1 PUSH1 0x40 ADD PUSH1 0x40 MSTORE DUP1 PUSH32 0x2D2E305D3AB2DC6E0081FFCF4A701F924A1A7296CDC32046C10C0B6F992387B2 DUP2 MSTORE PUSH1 0x20 ADD PUSH32 0x10D4D3CCA369C48670346EF36C6739E885BB11B52038A89C706AACFB7D72D789 DUP2 MSTORE POP DUP2 MSTORE PUSH1 0x20 ADD PUSH1 0x40 MLOAD DUP1 PUSH1 0x40 ADD PUSH1 0x40 MSTORE DUP1 PUSH32 0x2D2E305D3AB2DC6E0081FFCF4A701F924A1A7296CDC32046C10C0B6F992387B2 DUP2 MSTORE PUSH1 0x20 ADD PUSH32 0x10D4D3CCA369C48670346EF36C6739E885BB11B52038A89C706AACFB7D72D789 DUP2 MSTORE POP DUP2 MSTORE PUSH1 0x20 ADD PUSH1 0x40 MLOAD DUP1 PUSH1 0x40 ADD PUSH1 0x40 MSTORE DUP1 PUSH32 0x2D2E305D3AB2DC6E0081FFCF4A701F924A1A7296CDC32046C10C0B6F992387B2 DUP2 MSTORE PUSH1 0x20 ADD PUSH32 0x10D4D3CCA369C48670346EF36C6739E885BB11B52038A89C706AACFB7D72D789 DUP2 MSTORE POP DUP2 MSTORE PUSH1 0x20 ADD PUSH1 0x40 MLOAD DUP1 PUSH1 0x40 ADD PUSH1 0x40 MSTORE DUP1 PUSH32 0x2D2E305D3AB2DC6E0081FFCF4A701F924A1A7296CDC32046C10C0B6F992387B2 DUP2 MSTORE PUSH1 0x20 ADD PUSH32 0x10D4D3CCA369C48670346EF36C6739E885BB11B52038A89C706AACFB7D72D789 DUP2 MSTORE POP DUP2 MSTORE PUSH1 0x20 ADD PUSH1 0x40 MLOAD DUP1 PUSH1 0x40 ADD PUSH1 0x40 MSTORE DUP1 PUSH32 0x2D2E305D3AB2DC6E0081FFCF4A701F924A1A7296CDC32046C10C0B6F992387B2 DUP2 MSTORE PUSH1 0x20 ADD PUSH32 0x10D4D3CCA369C48670346EF36C6739E885BB11B52038A89C706AACFB7D72D789 DUP2 MSTORE POP DUP2 MSTORE PUSH1 0x20 ADD PUSH1 0x40 MLOAD DUP1 PUSH1 0x40 ADD PUSH1 0x40 MSTORE DUP1 PUSH32 0x2D2E305D3AB2DC6E0081FFCF4A701F924A1A7296CDC32046C10C0B6F992387B2 DUP2 MSTORE PUSH1 0x20 ADD PUSH32 0x10D4D3CCA369C48670346EF36C6739E885BB11B52038A89C706AACFB7D72D789 DUP2 MSTORE POP DUP2 MSTORE PUSH1 0x20 ADD PUSH1 0x40 MLOAD DUP1 PUSH1 0x40 ADD PUSH1 0x40 MSTORE DUP1 PUSH32 0x2D2E305D3AB2DC6E0081FFCF4A701F924A1A7296CDC32046C10C0B6F992387B2 DUP2 MSTORE PUSH1 0x20 ADD PUSH32 0x10D4D3CCA369C48670346EF36C6739E885BB11B52038A89C706AACFB7D72D789 DUP2 MSTORE POP DUP2 MSTORE PUSH1 0x20 ADD PUSH1 0x40 MLOAD DUP1 PUSH1 0x40 ADD PUSH1 0x40 MSTORE DUP1 PUSH32 0x2D2E305D3AB2DC6E0081FFCF4A701F924A1A7296CDC32046C10C0B6F992387B2 DUP2 MSTORE PUSH1 0x20 ADD PUSH32 0x10D4D3CCA369C48670346EF36C6739E885BB11B52038A89C706AACFB7D72D789 DUP2 MSTORE POP DUP2 MSTORE PUSH1 0x20 ADD PUSH32 0x2D2E305D3AB2DC6E0081FFCF4A701F924A1A7296CDC32046C10C0B6F992387B2 DUP2 MSTORE PUSH1 0x20 ADD PUSH32 0x10D4D3CCA369C48670346EF36C6739E885BB11B52038A89C706AACFB7D72D789 DUP2 MSTORE PUSH1 0x20 ADD PUSH32 0x2D2E305D3AB2DC6E0081FFCF4A701F924A1A7296CDC32046C10C0B6F992387B2 DUP2 MSTORE PUSH1 0x20 ADD PUSH32 0x19A48669CCF72C593144962560F593B667DAA2052D1CDCC2500BB3B003C073C9 DUP2 MSTORE PUSH1 0x20 ADD PUSH32 0x2D2E305D3AB2DC6E0081FFCF4A701F924A1A7296CDC32046C10C0B6F992387B2 DUP2 MSTORE PUSH1 0x20 ADD PUSH32 0x10D4D3CCA369C48670346EF36C6739E885BB11B52038A89C706AACFB7D72D789 DUP2 MSTORE PUSH1 0x20 ADD PUSH32 0x2D2E305D3AB2DC6E0081FFCF4A701F924A1A7296CDC32046C10C0B6F992387B2 DUP2 MSTORE PUSH1 0x20 ADD PUSH32 0x10D4D3CCA369C48670346EF36C6739E885BB11B52038A89C706AACFB7D72D789 DUP2 MSTORE PUSH1 0x20 ADD PUSH1 0x40 MLOAD DUP1 PUSH1 0x40 ADD PUSH1 0x40 MSTORE DUP1 PUSH32 0x2D2E305D3AB2DC6E0081FFCF4A701F924A1A7296CDC32046C10C0B6F992387B2 DUP2 MSTORE PUSH1 0x20 ADD PUSH32 0x10D4D3CCA369C48670346EF36C6739E885BB11B52038A89C706AACFB7D72D789 DUP2 MSTORE POP DUP2 MSTORE PUSH1 0x20 ADD PUSH1 0x40 MLOAD DUP1 PUSH1 0x40 ADD PUSH1 0x40 MSTORE DUP1 PUSH32 0x2D2E305D3AB2DC6E0081FFCF4A701F924A1A7296CDC32046C10C0B6F992387B2 DUP2 MSTORE PUSH1 0x20 ADD PUSH32 0x10D4D3CCA369C48670346EF36C6739E885BB11B52038A89C706AACFB7D72D789 DUP2 MSTORE POP DUP2 MSTORE PUSH1 0x20 ADD PUSH1 0x40 MLOAD DUP1 PUSH1 0x40 ADD PUSH1 0x40 MSTORE DUP1 PUSH32 0x2D2E305D3AB2DC6E0081FFCF4A701F924A1A7296CDC32046C10C0B6F992387B2 DUP2 MSTORE PUSH1 0x20 ADD PUSH32 0x10D4D3CCA369C48670346EF36C6739E885BB11B52038A89C706AACFB7D72D789 DUP2 MSTORE POP DUP2 MSTORE PUSH1 0x20 ADD PUSH1 0x40 MLOAD DUP1 PUSH1 0x40 ADD PUSH1 0x40 MSTORE DUP1 PUSH32 0x2D2E305D3AB2DC6E0081FFCF4A701F924A1A7296CDC32046C10C0B6F992387B2 DUP2 MSTORE PUSH1 0x20 ADD PUSH32 0x10D4D3CCA369C48670346EF36C6739E885BB11B52038A89C706AACFB7D72D789 DUP2 MSTORE POP DUP2 MSTORE PUSH1 0x20 ADD PUSH1 0x40 MLOAD DUP1 PUSH1 0x40 ADD PUSH1 0x40 MSTORE DUP1 PUSH32 0x2D2E305D3AB2DC6E0081FFCF4A701F924A1A7296CDC32046C10C0B6F992387B2 DUP2 MSTORE PUSH1 0x20 ADD PUSH32 0x10D4D3CCA369C48670346EF36C6739E885BB11B52038A89C706AACFB7D72D789 DUP2 MSTORE POP DUP2 MSTORE PUSH1 0x20 ADD PUSH1 0x40 MLOAD DUP1 PUSH1 0x40 ADD PUSH1 0x40 MSTORE DUP1 PUSH32 0x2D2E305D3AB2DC6E0081FFCF4A701F924A1A7296CDC32046C10C0B6F992387B2 DUP2 MSTORE PUSH1 0x20 ADD PUSH32 0x10D4D3CCA369C48670346EF36C6739E885BB11B52038A89C706AACFB7D72D789 DUP2 MSTORE POP DUP2 MSTORE PUSH1 0x20 ADD PUSH1 0x40 MLOAD DUP1 PUSH1 0x40 ADD PUSH1 0x40 MSTORE DUP1 PUSH32 0x2D2E305D3AB2DC6E0081FFCF4A701F924A1A7296CDC32046C10C0B6F992387B2 DUP2 MSTORE PUSH1 0x20 ADD PUSH32 0x10D4D3CCA369C48670346EF36C6739E885BB11B52038A89C706AACFB7D72D789 DUP2 MSTORE POP DUP2 MSTORE PUSH1 0x20 ADD PUSH2 0x1F60 PUSH1 0x40 MLOAD DUP1 PUSH1 0xC0 ADD PUSH1 0x40 MSTORE DUP1 PUSH1 0x9A DUP2 MSTORE PUSH1 0x20 ADD PUSH2 0x4C75 PUSH1 0x9A SWAP2 CODECOPY PUSH2 0x30B3 JUMP JUMPDEST DUP2 MSTORE PUSH1 0x20 ADD PUSH1 0x40 MLOAD DUP1 PUSH1 0x80 ADD PUSH1 0x40 MSTORE DUP1 PUSH1 0x41 DUP2 MSTORE PUSH1 0x20 ADD PUSH2 0x4D0F PUSH1 0x41 SWAP2 CODECOPY DUP2 MSTORE PUSH1 0x20 ADD PUSH20 0xE448992FDEAF94784BBD8F432D781C061D907985 PUSH20 0xFFFFFFFFFFFFFFFFFFFFFFFFFFFFFFFFFFFFFFFF AND DUP2 MSTORE PUSH1 0x20 ADD PUSH32 0xD1F3F69E4AE12D40127FEF4D583BBEBE1B49BFAF4271544B2AA1AAA91660B3C DUP2 MSTORE POP PUSH2 0x4DE JUMP JUMPDEST POP JUMP JUMPDEST PUSH2 0x1FE7 PUSH2 0x35E5 JUMP JUMPDEST PUSH1 0x40 MLOAD DUP1 PUSH1 0x40 ADD PUSH1 0x40 MSTORE DUP1 PUSH1 0x1 DUP2 MSTORE PUSH1 0x20 ADD PUSH1 0x2 DUP2 MSTORE POP SWAP1 POP SWAP1 JUMP JUMPDEST PUSH0 DUP1 PUSH0 DUP1 PUSH1 0x41 DUP6 MLOAD EQ PUSH2 0x201B JUMPI PUSH0 SWAP4 POP POP POP POP PUSH2 0x20C8 JUMP JUMPDEST PUSH1 0x20 DUP6 ADD MLOAD SWAP3 POP PUSH1 0x40 DUP6 ADD MLOAD SWAP2 POP PUSH1 0x60 DUP6 ADD MLOAD PUSH0 BYTE SWAP1 POP PUSH1 0x1B DUP2 PUSH1 0xFF AND LT ISZERO PUSH2 0x204E JUMPI PUSH1 0x1B DUP2 PUSH2 0x204B SWAP2 SWAP1 PUSH2 0x4955 JUMP JUMPDEST SWAP1 POP JUMPDEST PUSH1 0x1B DUP2 PUSH1 0xFF AND EQ ISZERO DUP1 ISZERO PUSH2 0x2066 JUMPI POP PUSH1 0x1C DUP2 PUSH1 0xFF AND EQ ISZERO JUMPDEST ISZERO PUSH2 0x2076 JUMPI PUSH0 SWAP4 POP POP POP POP PUSH2 0x20C8 JUMP JUMPDEST PUSH1 0x1 DUP7 DUP3 DUP6 DUP6 PUSH1 0x40 MLOAD PUSH0 DUP2 MSTORE PUSH1 0x20 ADD PUSH1 0x40 MSTORE PUSH1 0x40 MLOAD PUSH2 0x2098 SWAP5 SWAP4 SWAP3 SWAP2 SWAP1 PUSH2 0x49A7 JUMP JUMPDEST PUSH1 0x20 PUSH1 0x40 MLOAD PUSH1 0x20 DUP2 SUB SWAP1 DUP1 DUP5 SUB SWAP1 DUP6 GAS STATICCALL ISZERO DUP1 ISZERO PUSH2 0x20B8 JUMPI RETURNDATASIZE PUSH0 DUP1 RETURNDATACOPY RETURNDATASIZE PUSH0 REVERT JUMPDEST POP POP POP PUSH1 0x20 PUSH1 0x40 MLOAD SUB MLOAD SWAP4 POP POP POP POP JUMPDEST SWAP3 SWAP2 POP POP JUMP JUMPDEST PUSH2 0x20D6 PUSH2 0x35E5 JUMP JUMPDEST PUSH2 0x20DE PUSH2 0x35FD JUMP JUMPDEST DUP4 PUSH0 ADD MLOAD DUP2 PUSH0 PUSH1 0x3 DUP2 LT PUSH2 0x20F5 JUMPI PUSH2 0x20F4 PUSH2 0x4568 JUMP JUMPDEST JUMPDEST PUSH1 0x20 MUL ADD DUP2 DUP2 MSTORE POP POP DUP4 PUSH1 0x20 ADD MLOAD DUP2 PUSH1 0x1 PUSH1 0x3 DUP2 LT PUSH2 0x2117 JUMPI PUSH2 0x2116 PUSH2 0x4568 JUMP JUMPDEST JUMPDEST PUSH1 0x20 MUL ADD DUP2 DUP2 MSTORE POP POP DUP3 DUP2 PUSH1 0x2 PUSH1 0x3 DUP2 LT PUSH2 0x2135 JUMPI PUSH2 0x2134 PUSH2 0x4568 JUMP JUMPDEST JUMPDEST PUSH1 0x20 MUL ADD DUP2 DUP2 MSTORE POP POP PUSH0 PUSH1 0x60 DUP4 PUSH1 0x80 DUP5 PUSH1 0x7 PUSH2 0x7D0 GAS SUB STATICCALL SWAP1 POP DUP1 PUSH0 DUP2 SUB PUSH2 0x2159 JUMPI INVALID JUMPDEST POP DUP1 PUSH2 0x219A JUMPI PUSH1 0x40 MLOAD PUSH32 0x8C379A000000000000000000000000000000000000000000000000000000000 DUP2 MSTORE PUSH1 0x4 ADD PUSH2 0x2191 SWAP1 PUSH2 0x4A34 JUMP JUMPDEST PUSH1 0x40 MLOAD DUP1 SWAP2 SUB SWAP1 REVERT JUMPDEST POP POP SWAP3 SWAP2 POP POP JUMP JUMPDEST PUSH2 0x21AA PUSH2 0x35E5 JUMP JUMPDEST PUSH2 0x21B2 PUSH2 0x361F JUMP JUMPDEST DUP4 PUSH0 ADD MLOAD DUP2 PUSH0 PUSH1 0x4 DUP2 LT PUSH2 0x21C9 JUMPI PUSH2 0x21C8 PUSH2 0x4568 JUMP JUMPDEST JUMPDEST PUSH1 0x20 MUL ADD DUP2 DUP2 MSTORE POP POP DUP4 PUSH1 0x20 ADD MLOAD DUP2 PUSH1 0x1 PUSH1 0x4 DUP2 LT PUSH2 0x21EB JUMPI PUSH2 0x21EA PUSH2 0x4568 JUMP JUMPDEST JUMPDEST PUSH1 0x20 MUL ADD DUP2 DUP2 MSTORE POP POP DUP3 PUSH0 ADD MLOAD DUP2 PUSH1 0x2 PUSH1 0x4 DUP2 LT PUSH2 0x220C JUMPI PUSH2 0x220B PUSH2 0x4568 JUMP JUMPDEST JUMPDEST PUSH1 0x20 MUL ADD DUP2 DUP2 MSTORE POP POP DUP3 PUSH1 0x20 ADD MLOAD DUP2 PUSH1 0x3 PUSH1 0x4 DUP2 LT PUSH2 0x222E JUMPI PUSH2 0x222D PUSH2 0x4568 JUMP JUMPDEST JUMPDEST PUSH1 0x20 MUL ADD DUP2 DUP2 MSTORE POP POP PUSH0 PUSH1 0x60 DUP4 PUSH1 0xC0 DUP5 PUSH1 0x6 PUSH2 0x7D0 GAS SUB STATICCALL SWAP1 POP DUP1 PUSH0 DUP2 SUB PUSH2 0x2252 JUMPI INVALID JUMPDEST POP DUP1 PUSH2 0x2293 JUMPI PUSH1 0x40 MLOAD PUSH32 0x8C379A000000000000000000000000000000000000000000000000000000000 DUP2 MSTORE PUSH1 0x4 ADD PUSH2 0x228A SWAP1 PUSH2 0x4A9C JUMP JUMPDEST PUSH1 0x40 MLOAD DUP1 SWAP2 SUB SWAP1 REVERT JUMPDEST POP POP SWAP3 SWAP2 POP POP JUMP JUMPDEST PUSH2 0x22A3 PUSH2 0x35E5 JUMP JUMPDEST PUSH0 DUP3 PUSH0 ADD MLOAD EQ DUP1 ISZERO PUSH2 0x22B8 JUMPI POP PUSH0 DUP3 PUSH1 0x20 ADD MLOAD EQ JUMPDEST ISZERO PUSH2 0x22D9 JUMPI PUSH1 0x40 MLOAD DUP1 PUSH1 0x40 ADD PUSH1 0x40 MSTORE DUP1 PUSH0 DUP2 MSTORE PUSH1 0x20 ADD PUSH0 DUP2 MSTORE POP SWAP1 POP PUSH2 0x234E JUMP JUMPDEST PUSH1 0x40 MLOAD DUP1 PUSH1 0x40 ADD PUSH1 0x40 MSTORE DUP1 DUP4 PUSH0 ADD MLOAD DUP2 MSTORE PUSH1 0x20 ADD PUSH32 0x30644E72E131A029B85045B68181585D97816A916871CA8D3C208C16D87CFD47 DUP5 PUSH1 0x20 ADD MLOAD PUSH2 0x231D SWAP2 SWAP1 PUSH2 0x48E9 JUMP JUMPDEST PUSH32 0x30644E72E131A029B85045B68181585D97816A916871CA8D3C208C16D87CFD47 PUSH2 0x2348 SWAP2 SWAP1 PUSH2 0x42FD JUMP JUMPDEST DUP2 MSTORE POP SWAP1 POP JUMPDEST SWAP2 SWAP1 POP JUMP JUMPDEST PUSH0 DUP1 PUSH1 0x40 MLOAD DUP1 PUSH1 0x60 ADD PUSH1 0x40 MSTORE DUP1 DUP10 DUP2 MSTORE PUSH1 0x20 ADD DUP8 DUP2 MSTORE PUSH1 0x20 ADD DUP6 DUP2 MSTORE POP SWAP1 POP PUSH0 PUSH1 0x40 MLOAD DUP1 PUSH1 0x60 ADD PUSH1 0x40 MSTORE DUP1 DUP10 DUP2 MSTORE PUSH1 0x20 ADD DUP8 DUP2 MSTORE PUSH1 0x20 ADD DUP6 DUP2 MSTORE POP SWAP1 POP PUSH0 PUSH1 0x12 SWAP1 POP PUSH0 DUP2 PUSH8 0xFFFFFFFFFFFFFFFF DUP2 GT ISZERO PUSH2 0x23B0 JUMPI PUSH2 0x23AF PUSH2 0x3724 JUMP JUMPDEST JUMPDEST PUSH1 0x40 MLOAD SWAP1 DUP1 DUP3 MSTORE DUP1 PUSH1 0x20 MUL PUSH1 0x20 ADD DUP3 ADD PUSH1 0x40 MSTORE DUP1 ISZERO PUSH2 0x23DE JUMPI DUP2 PUSH1 0x20 ADD PUSH1 0x20 DUP3 MUL DUP1 CALLDATASIZE DUP4 CALLDATACOPY DUP1 DUP3 ADD SWAP2 POP POP SWAP1 POP JUMPDEST POP SWAP1 POP PUSH0 JUMPDEST PUSH1 0x3 DUP2 LT ISZERO PUSH2 0x260E JUMPI PUSH0 PUSH1 0x6 DUP3 PUSH2 0x23FA SWAP2 SWAP1 PUSH2 0x4ABA JUMP JUMPDEST SWAP1 POP DUP6 DUP3 PUSH1 0x3 DUP2 LT PUSH2 0x240F JUMPI PUSH2 0x240E PUSH2 0x4568 JUMP JUMPDEST JUMPDEST PUSH1 0x20 MUL ADD MLOAD PUSH0 ADD MLOAD DUP4 PUSH0 DUP4 PUSH2 0x2424 SWAP2 SWAP1 PUSH2 0x40C7 JUMP JUMPDEST DUP2 MLOAD DUP2 LT PUSH2 0x2435 JUMPI PUSH2 0x2434 PUSH2 0x4568 JUMP JUMPDEST JUMPDEST PUSH1 0x20 MUL PUSH1 0x20 ADD ADD DUP2 DUP2 MSTORE POP POP DUP6 DUP3 PUSH1 0x3 DUP2 LT PUSH2 0x2454 JUMPI PUSH2 0x2453 PUSH2 0x4568 JUMP JUMPDEST JUMPDEST PUSH1 0x20 MUL ADD MLOAD PUSH1 0x20 ADD MLOAD DUP4 PUSH1 0x1 DUP4 PUSH2 0x246B SWAP2 SWAP1 PUSH2 0x40C7 JUMP JUMPDEST DUP2 MLOAD DUP2 LT PUSH2 0x247C JUMPI PUSH2 0x247B PUSH2 0x4568 JUMP JUMPDEST JUMPDEST PUSH1 0x20 MUL PUSH1 0x20 ADD ADD DUP2 DUP2 MSTORE POP POP DUP5 DUP3 PUSH1 0x3 DUP2 LT PUSH2 0x249B JUMPI PUSH2 0x249A PUSH2 0x4568 JUMP JUMPDEST JUMPDEST PUSH1 0x20 MUL ADD MLOAD PUSH0 ADD MLOAD PUSH0 PUSH1 0x2 DUP2 LT PUSH2 0x24B5 JUMPI PUSH2 0x24B4 PUSH2 0x4568 JUMP JUMPDEST JUMPDEST PUSH1 0x20 MUL ADD MLOAD DUP4 PUSH1 0x2 DUP4 PUSH2 0x24C8 SWAP2 SWAP1 PUSH2 0x40C7 JUMP JUMPDEST DUP2 MLOAD DUP2 LT PUSH2 0x24D9 JUMPI PUSH2 0x24D8 PUSH2 0x4568 JUMP JUMPDEST JUMPDEST PUSH1 0x20 MUL PUSH1 0x20 ADD ADD DUP2 DUP2 MSTORE POP POP DUP5 DUP3 PUSH1 0x3 DUP2 LT PUSH2 0x24F8 JUMPI PUSH2 0x24F7 PUSH2 0x4568 JUMP JUMPDEST JUMPDEST PUSH1 0x20 MUL ADD MLOAD PUSH0 ADD MLOAD PUSH1 0x1 PUSH1 0x2 DUP2 LT PUSH2 0x2513 JUMPI PUSH2 0x2512 PUSH2 0x4568 JUMP JUMPDEST JUMPDEST PUSH1 0x20 MUL ADD MLOAD DUP4 PUSH1 0x3 DUP4 PUSH2 0x2526 SWAP2 SWAP1 PUSH2 0x40C7 JUMP JUMPDEST DUP2 MLOAD DUP2 LT PUSH2 0x2537 JUMPI PUSH2 0x2536 PUSH2 0x4568 JUMP JUMPDEST JUMPDEST PUSH1 0x20 MUL PUSH1 0x20 ADD ADD DUP2 DUP2 MSTORE POP POP DUP5 DUP3 PUSH1 0x3 DUP2 LT PUSH2 0x2556 JUMPI PUSH2 0x2555 PUSH2 0x4568 JUMP JUMPDEST JUMPDEST PUSH1 0x20 MUL ADD MLOAD PUSH1 0x20 ADD MLOAD PUSH0 PUSH1 0x2 DUP2 LT PUSH2 0x2571 JUMPI PUSH2 0x2570 PUSH2 0x4568 JUMP JUMPDEST JUMPDEST PUSH1 0x20 MUL ADD MLOAD DUP4 PUSH1 0x4 DUP4 PUSH2 0x2584 SWAP2 SWAP1 PUSH2 0x40C7 JUMP JUMPDEST DUP2 MLOAD DUP2 LT PUSH2 0x2595 JUMPI PUSH2 0x2594 PUSH2 0x4568 JUMP JUMPDEST JUMPDEST PUSH1 0x20 MUL PUSH1 0x20 ADD ADD DUP2 DUP2 MSTORE POP POP DUP5 DUP3 PUSH1 0x3 DUP2 LT PUSH2 0x25B4 JUMPI PUSH2 0x25B3 PUSH2 0x4568 JUMP JUMPDEST JUMPDEST PUSH1 0x20 MUL ADD MLOAD PUSH1 0x20 ADD MLOAD PUSH1 0x1 PUSH1 0x2 DUP2 LT PUSH2 0x25D0 JUMPI PUSH2 0x25CF PUSH2 0x4568 JUMP JUMPDEST JUMPDEST PUSH1 0x20 MUL ADD MLOAD DUP4 PUSH1 0x5 DUP4 PUSH2 0x25E3 SWAP2 SWAP1 PUSH2 0x40C7 JUMP JUMPDEST DUP2 MLOAD DUP2 LT PUSH2 0x25F4 JUMPI PUSH2 0x25F3 PUSH2 0x4568 JUMP JUMPDEST JUMPDEST PUSH1 0x20 MUL PUSH1 0x20 ADD ADD DUP2 DUP2 MSTORE POP POP POP DUP1 DUP1 PUSH1 0x1 ADD SWAP2 POP POP PUSH2 0x23E3 JUMP JUMPDEST POP PUSH2 0x2617 PUSH2 0x3641 JUMP JUMPDEST PUSH0 PUSH1 0x20 DUP3 PUSH1 0x20 DUP7 MUL PUSH1 0x20 DUP7 ADD PUSH1 0x8 PUSH2 0x7D0 GAS SUB STATICCALL SWAP1 POP DUP1 PUSH0 DUP2 SUB PUSH2 0x2637 JUMPI INVALID JUMPDEST POP DUP1 PUSH2 0x2678 JUMPI PUSH1 0x40 MLOAD PUSH32 0x8C379A000000000000000000000000000000000000000000000000000000000 DUP2 MSTORE PUSH1 0x4 ADD PUSH2 0x266F SWAP1 PUSH2 0x4B45 JUMP JUMPDEST PUSH1 0x40 MLOAD DUP1 SWAP2 SUB SWAP1 REVERT JUMPDEST PUSH0 DUP3 PUSH0 PUSH1 0x1 DUP2 LT PUSH2 0x268C JUMPI PUSH2 0x268B PUSH2 0x4568 JUMP JUMPDEST JUMPDEST PUSH1 0x20 MUL ADD MLOAD EQ ISZERO SWAP7 POP POP POP POP POP POP POP SWAP7 SWAP6 POP POP POP POP POP POP JUMP JUMPDEST PUSH2 0x26AD PUSH2 0x357F JUMP JUMPDEST PUSH0 DUP4 PUSH0 ADD MLOAD PUSH0 PUSH1 0x2 DUP2 LT PUSH2 0x26C4 JUMPI PUSH2 0x26C3 PUSH2 0x4568 JUMP JUMPDEST JUMPDEST PUSH1 0x20 MUL ADD MLOAD EQ DUP1 ISZERO PUSH2 0x26F0 JUMPI POP PUSH0 DUP4 PUSH0 ADD MLOAD PUSH1 0x1 PUSH1 0x2 DUP2 LT PUSH2 0x26E9 JUMPI PUSH2 0x26E8 PUSH2 0x4568 JUMP JUMPDEST JUMPDEST PUSH1 0x20 MUL ADD MLOAD EQ JUMPDEST DUP1 ISZERO PUSH2 0x2716 JUMPI POP PUSH0 DUP4 PUSH1 0x20 ADD MLOAD PUSH0 PUSH1 0x2 DUP2 LT PUSH2 0x270F JUMPI PUSH2 0x270E PUSH2 0x4568 JUMP JUMPDEST JUMPDEST PUSH1 0x20 MUL ADD MLOAD EQ JUMPDEST DUP1 ISZERO PUSH2 0x273D JUMPI POP PUSH0 DUP4 PUSH1 0x20 ADD MLOAD PUSH1 0x1 PUSH1 0x2 DUP2 LT PUSH2 0x2736 JUMPI PUSH2 0x2735 PUSH2 0x4568 JUMP JUMPDEST JUMPDEST PUSH1 0x20 MUL ADD MLOAD EQ JUMPDEST ISZERO PUSH2 0x274A JUMPI DUP2 SWAP1 POP PUSH2 0x2D69 JUMP JUMPDEST PUSH0 DUP3 PUSH0 ADD MLOAD PUSH0 PUSH1 0x2 DUP2 LT PUSH2 0x2761 JUMPI PUSH2 0x2760 PUSH2 0x4568 JUMP JUMPDEST JUMPDEST PUSH1 0x20 MUL ADD MLOAD EQ DUP1 ISZERO PUSH2 0x278D JUMPI POP PUSH0 DUP3 PUSH0 ADD MLOAD PUSH1 0x1 PUSH1 0x2 DUP2 LT PUSH2 0x2786 JUMPI PUSH2 0x2785 PUSH2 0x4568 JUMP JUMPDEST JUMPDEST PUSH1 0x20 MUL ADD MLOAD EQ JUMPDEST DUP1 ISZERO PUSH2 0x27B3 JUMPI POP PUSH0 DUP3 PUSH1 0x20 ADD MLOAD PUSH0 PUSH1 0x2 DUP2 LT PUSH2 0x27AC JUMPI PUSH2 0x27AB PUSH2 0x4568 JUMP JUMPDEST JUMPDEST PUSH1 0x20 MUL ADD MLOAD EQ JUMPDEST DUP1 ISZERO PUSH2 0x27DA JUMPI POP PUSH0 DUP3 PUSH1 0x20 ADD MLOAD PUSH1 0x1 PUSH1 0x2 DUP2 LT PUSH2 0x27D3 JUMPI PUSH2 0x27D2 PUSH2 0x4568 JUMP JUMPDEST JUMPDEST PUSH1 0x20 MUL ADD MLOAD EQ JUMPDEST ISZERO PUSH2 0x27E7 JUMPI DUP3 SWAP1 POP PUSH2 0x2D69 JUMP JUMPDEST PUSH2 0x27EF PUSH2 0x3663 JUMP JUMPDEST PUSH2 0x27FF DUP5 PUSH0 ADD MLOAD DUP6 PUSH0 ADD MLOAD PUSH2 0x3108 JUMP JUMPDEST DUP2 PUSH0 PUSH1 0xC DUP2 LT PUSH2 0x2812 JUMPI PUSH2 0x2811 PUSH2 0x4568 JUMP JUMPDEST JUMPDEST PUSH1 0x20 MUL ADD DUP2 SWAP1 MSTORE POP PUSH2 0x282A DUP4 PUSH0 ADD MLOAD DUP5 PUSH0 ADD MLOAD PUSH2 0x3108 JUMP JUMPDEST DUP2 PUSH1 0x1 PUSH1 0xC DUP2 LT PUSH2 0x283E JUMPI PUSH2 0x283D PUSH2 0x4568 JUMP JUMPDEST JUMPDEST PUSH1 0x20 MUL ADD DUP2 SWAP1 MSTORE POP PUSH2 0x286C DUP5 PUSH1 0x20 ADD MLOAD DUP3 PUSH1 0x1 PUSH1 0xC DUP2 LT PUSH2 0x2862 JUMPI PUSH2 0x2861 PUSH2 0x4568 JUMP JUMPDEST JUMPDEST PUSH1 0x20 MUL ADD MLOAD PUSH2 0x3108 JUMP JUMPDEST DUP2 PUSH1 0x2 PUSH1 0xC DUP2 LT PUSH2 0x2880 JUMPI PUSH2 0x287F PUSH2 0x4568 JUMP JUMPDEST JUMPDEST PUSH1 0x20 MUL ADD DUP2 SWAP1 MSTORE POP PUSH2 0x28AD DUP4 PUSH1 0x20 ADD MLOAD DUP3 PUSH0 PUSH1 0xC DUP2 LT PUSH2 0x28A3 JUMPI PUSH2 0x28A2 PUSH2 0x4568 JUMP JUMPDEST JUMPDEST PUSH1 0x20 MUL ADD MLOAD PUSH2 0x3108 JUMP JUMPDEST DUP2 PUSH1 0x3 PUSH1 0xC DUP2 LT PUSH2 0x28C1 JUMPI PUSH2 0x28C0 PUSH2 0x4568 JUMP JUMPDEST JUMPDEST PUSH1 0x20 MUL ADD DUP2 SWAP1 MSTORE POP PUSH2 0x28FA PUSH2 0x28DC DUP6 PUSH0 ADD MLOAD DUP6 PUSH0 ADD MLOAD PUSH2 0x3108 JUMP JUMPDEST DUP3 PUSH1 0x1 PUSH1 0xC DUP2 LT PUSH2 0x28F0 JUMPI PUSH2 0x28EF PUSH2 0x4568 JUMP JUMPDEST JUMPDEST PUSH1 0x20 MUL ADD MLOAD PUSH2 0x3108 JUMP JUMPDEST DUP2 PUSH1 0x4 PUSH1 0xC DUP2 LT PUSH2 0x290E JUMPI PUSH2 0x290D PUSH2 0x4568 JUMP JUMPDEST JUMPDEST PUSH1 0x20 MUL ADD DUP2 SWAP1 MSTORE POP PUSH2 0x2946 PUSH2 0x2929 DUP5 PUSH0 ADD MLOAD DUP7 PUSH0 ADD MLOAD PUSH2 0x3108 JUMP JUMPDEST DUP3 PUSH0 PUSH1 0xC DUP2 LT PUSH2 0x293C JUMPI PUSH2 0x293B PUSH2 0x4568 JUMP JUMPDEST JUMPDEST PUSH1 0x20 MUL ADD MLOAD PUSH2 0x3108 JUMP JUMPDEST DUP2 PUSH1 0x5 PUSH1 0xC DUP2 LT PUSH2 0x295A JUMPI PUSH2 0x2959 PUSH2 0x4568 JUMP JUMPDEST JUMPDEST PUSH1 0x20 MUL ADD DUP2 SWAP1 MSTORE POP PUSH2 0x299C DUP2 PUSH1 0x3 PUSH1 0xC DUP2 LT PUSH2 0x2979 JUMPI PUSH2 0x2978 PUSH2 0x4568 JUMP JUMPDEST JUMPDEST PUSH1 0x20 MUL ADD MLOAD DUP3 PUSH1 0x2 PUSH1 0xC DUP2 LT PUSH2 0x2992 JUMPI PUSH2 0x2991 PUSH2 0x4568 JUMP JUMPDEST JUMPDEST PUSH1 0x20 MUL ADD MLOAD PUSH2 0x339F JUMP JUMPDEST DUP2 PUSH1 0x6 PUSH1 0xC DUP2 LT PUSH2 0x29B0 JUMPI PUSH2 0x29AF PUSH2 0x4568 JUMP JUMPDEST JUMPDEST PUSH1 0x20 MUL ADD DUP2 SWAP1 MSTORE POP PUSH2 0x29F2 DUP2 PUSH1 0x6 PUSH1 0xC DUP2 LT PUSH2 0x29CF JUMPI PUSH2 0x29CE PUSH2 0x4568 JUMP JUMPDEST JUMPDEST PUSH1 0x20 MUL ADD MLOAD DUP3 PUSH1 0x6 PUSH1 0xC DUP2 LT PUSH2 0x29E8 JUMPI PUSH2 0x29E7 PUSH2 0x4568 JUMP JUMPDEST JUMPDEST PUSH1 0x20 MUL ADD MLOAD PUSH2 0x3434 JUMP JUMPDEST DUP2 PUSH1 0x7 PUSH1 0xC DUP2 LT PUSH2 0x2A06 JUMPI PUSH2 0x2A05 PUSH2 0x4568 JUMP JUMPDEST JUMPDEST PUSH1 0x20 MUL ADD DUP2 SWAP1 MSTORE POP PUSH2 0x2A48 DUP2 PUSH1 0x7 PUSH1 0xC DUP2 LT PUSH2 0x2A25 JUMPI PUSH2 0x2A24 PUSH2 0x4568 JUMP JUMPDEST JUMPDEST PUSH1 0x20 MUL ADD MLOAD DUP3 PUSH1 0x7 PUSH1 0xC DUP2 LT PUSH2 0x2A3E JUMPI PUSH2 0x2A3D PUSH2 0x4568 JUMP JUMPDEST JUMPDEST PUSH1 0x20 MUL ADD MLOAD PUSH2 0x3108 JUMP JUMPDEST DUP2 PUSH1 0x7 PUSH1 0xC DUP2 LT PUSH2 0x2A5C JUMPI PUSH2 0x2A5B PUSH2 0x4568 JUMP JUMPDEST JUMPDEST PUSH1 0x20 MUL ADD DUP2 SWAP1 MSTORE POP PUSH2 0x2A9E DUP2 PUSH1 0x6 PUSH1 0xC DUP2 LT PUSH2 0x2A7B JUMPI PUSH2 0x2A7A PUSH2 0x4568 JUMP JUMPDEST JUMPDEST PUSH1 0x20 MUL ADD MLOAD DUP3 PUSH1 0x7 PUSH1 0xC DUP2 LT PUSH2 0x2A94 JUMPI PUSH2 0x2A93 PUSH2 0x4568 JUMP JUMPDEST JUMPDEST PUSH1 0x20 MUL ADD MLOAD PUSH2 0x3108 JUMP JUMPDEST DUP2 PUSH1 0x8 PUSH1 0xC DUP2 LT PUSH2 0x2AB2 JUMPI PUSH2 0x2AB1 PUSH2 0x4568 JUMP JUMPDEST JUMPDEST PUSH1 0x20 MUL ADD DUP2 SWAP1 MSTORE POP PUSH2 0x2AF4 DUP2 PUSH1 0x5 PUSH1 0xC DUP2 LT PUSH2 0x2AD1 JUMPI PUSH2 0x2AD0 PUSH2 0x4568 JUMP JUMPDEST JUMPDEST PUSH1 0x20 MUL ADD MLOAD DUP3 PUSH1 0x4 PUSH1 0xC DUP2 LT PUSH2 0x2AEA JUMPI PUSH2 0x2AE9 PUSH2 0x4568 JUMP JUMPDEST JUMPDEST PUSH1 0x20 MUL ADD MLOAD PUSH2 0x339F JUMP JUMPDEST DUP2 PUSH1 0x9 PUSH1 0xC DUP2 LT PUSH2 0x2B08 JUMPI PUSH2 0x2B07 PUSH2 0x4568 JUMP JUMPDEST JUMPDEST PUSH1 0x20 MUL ADD DUP2 SWAP1 MSTORE POP PUSH2 0x2B4A DUP2 PUSH1 0x9 PUSH1 0xC DUP2 LT PUSH2 0x2B27 JUMPI PUSH2 0x2B26 PUSH2 0x4568 JUMP JUMPDEST JUMPDEST PUSH1 0x20 MUL ADD MLOAD DUP3 PUSH1 0x9 PUSH1 0xC DUP2 LT PUSH2 0x2B40 JUMPI PUSH2 0x2B3F PUSH2 0x4568 JUMP JUMPDEST JUMPDEST PUSH1 0x20 MUL ADD MLOAD PUSH2 0x3434 JUMP JUMPDEST DUP2 PUSH1 0x9 PUSH1 0xC DUP2 LT PUSH2 0x2B5E JUMPI PUSH2 0x2B5D PUSH2 0x4568 JUMP JUMPDEST JUMPDEST PUSH1 0x20 MUL ADD DUP2 SWAP1 MSTORE POP PUSH2 0x2BA0 DUP2 PUSH1 0x2 PUSH1 0xC DUP2 LT PUSH2 0x2B7D JUMPI PUSH2 0x2B7C PUSH2 0x4568 JUMP JUMPDEST JUMPDEST PUSH1 0x20 MUL ADD MLOAD DUP3 PUSH1 0x7 PUSH1 0xC DUP2 LT PUSH2 0x2B96 JUMPI PUSH2 0x2B95 PUSH2 0x4568 JUMP JUMPDEST JUMPDEST PUSH1 0x20 MUL ADD MLOAD PUSH2 0x3108 JUMP JUMPDEST DUP2 PUSH1 0xA PUSH1 0xC DUP2 LT PUSH2 0x2BB4 JUMPI PUSH2 0x2BB3 PUSH2 0x4568 JUMP JUMPDEST JUMPDEST PUSH1 0x20 MUL ADD DUP2 SWAP1 MSTORE POP PUSH2 0x2C59 PUSH2 0x2C1A PUSH2 0x2BFC DUP4 PUSH1 0x9 PUSH1 0xC DUP2 LT PUSH2 0x2BD9 JUMPI PUSH2 0x2BD8 PUSH2 0x4568 JUMP JUMPDEST JUMPDEST PUSH1 0x20 MUL ADD MLOAD DUP5 PUSH1 0x9 PUSH1 0xC DUP2 LT PUSH2 0x2BF2 JUMPI PUSH2 0x2BF1 PUSH2 0x4568 JUMP JUMPDEST JUMPDEST PUSH1 0x20 MUL ADD MLOAD PUSH2 0x3108 JUMP JUMPDEST DUP4 PUSH1 0x8 PUSH1 0xC DUP2 LT PUSH2 0x2C10 JUMPI PUSH2 0x2C0F PUSH2 0x4568 JUMP JUMPDEST JUMPDEST PUSH1 0x20 MUL ADD MLOAD PUSH2 0x339F JUMP JUMPDEST PUSH2 0x2C54 DUP4 PUSH1 0xA PUSH1 0xC DUP2 LT PUSH2 0x2C31 JUMPI PUSH2 0x2C30 PUSH2 0x4568 JUMP JUMPDEST JUMPDEST PUSH1 0x20 MUL ADD MLOAD DUP5 PUSH1 0xA PUSH1 0xC DUP2 LT PUSH2 0x2C4A JUMPI PUSH2 0x2C49 PUSH2 0x4568 JUMP JUMPDEST JUMPDEST PUSH1 0x20 MUL ADD MLOAD PUSH2 0x3434 JUMP JUMPDEST PUSH2 0x339F JUMP JUMPDEST DUP2 PUSH1 0xB PUSH1 0xC DUP2 LT PUSH2 0x2C6D JUMPI PUSH2 0x2C6C PUSH2 0x4568 JUMP JUMPDEST JUMPDEST PUSH1 0x20 MUL ADD DUP2 SWAP1 MSTORE POP PUSH2 0x2C7D PUSH2 0x357F JUMP JUMPDEST DUP2 PUSH1 0xB PUSH1 0xC DUP2 LT PUSH2 0x2C91 JUMPI PUSH2 0x2C90 PUSH2 0x4568 JUMP JUMPDEST JUMPDEST PUSH1 0x20 MUL ADD MLOAD DUP2 PUSH0 ADD DUP2 SWAP1 MSTORE POP PUSH2 0x2D5B PUSH2 0x2CFB DUP4 PUSH1 0x9 PUSH1 0xC DUP2 LT PUSH2 0x2CB7 JUMPI PUSH2 0x2CB6 PUSH2 0x4568 JUMP JUMPDEST JUMPDEST PUSH1 0x20 MUL ADD MLOAD PUSH2 0x2CF6 DUP6 PUSH1 0xA PUSH1 0xC DUP2 LT PUSH2 0x2CD3 JUMPI PUSH2 0x2CD2 PUSH2 0x4568 JUMP JUMPDEST JUMPDEST PUSH1 0x20 MUL ADD MLOAD DUP7 PUSH1 0xB PUSH1 0xC DUP2 LT PUSH2 0x2CEC JUMPI PUSH2 0x2CEB PUSH2 0x4568 JUMP JUMPDEST JUMPDEST PUSH1 0x20 MUL ADD MLOAD PUSH2 0x339F JUMP JUMPDEST PUSH2 0x3108 JUMP JUMPDEST PUSH2 0x2D56 PUSH2 0x2D38 DUP6 PUSH1 0x4 PUSH1 0xC DUP2 LT PUSH2 0x2D15 JUMPI PUSH2 0x2D14 PUSH2 0x4568 JUMP JUMPDEST JUMPDEST PUSH1 0x20 MUL ADD MLOAD DUP7 PUSH1 0x8 PUSH1 0xC DUP2 LT PUSH2 0x2D2E JUMPI PUSH2 0x2D2D PUSH2 0x4568 JUMP JUMPDEST JUMPDEST PUSH1 0x20 MUL ADD MLOAD PUSH2 0x3108 JUMP JUMPDEST DUP6 PUSH1 0x4 PUSH1 0xC DUP2 LT PUSH2 0x2D4C JUMPI PUSH2 0x2D4B PUSH2 0x4568 JUMP JUMPDEST JUMPDEST PUSH1 0x20 MUL ADD MLOAD PUSH2 0x3434 JUMP JUMPDEST PUSH2 0x339F JUMP JUMPDEST DUP2 PUSH1 0x20 ADD DUP2 SWAP1 MSTORE POP DUP1 SWAP3 POP POP POP JUMPDEST SWAP3 SWAP2 POP POP JUMP JUMPDEST PUSH2 0x2D77 PUSH2 0x357F JUMP JUMPDEST PUSH0 DUP3 PUSH0 ADD MLOAD PUSH0 PUSH1 0x2 DUP2 LT PUSH2 0x2D8E JUMPI PUSH2 0x2D8D PUSH2 0x4568 JUMP JUMPDEST JUMPDEST PUSH1 0x20 MUL ADD MLOAD EQ DUP1 ISZERO PUSH2 0x2DBA JUMPI POP PUSH0 DUP3 PUSH0 ADD MLOAD PUSH1 0x1 PUSH1 0x2 DUP2 LT PUSH2 0x2DB3 JUMPI PUSH2 0x2DB2 PUSH2 0x4568 JUMP JUMPDEST JUMPDEST PUSH1 0x20 MUL ADD MLOAD EQ JUMPDEST DUP1 ISZERO PUSH2 0x2DE0 JUMPI POP PUSH0 DUP3 PUSH1 0x20 ADD MLOAD PUSH0 PUSH1 0x2 DUP2 LT PUSH2 0x2DD9 JUMPI PUSH2 0x2DD8 PUSH2 0x4568 JUMP JUMPDEST JUMPDEST PUSH1 0x20 MUL ADD MLOAD EQ JUMPDEST DUP1 ISZERO PUSH2 0x2E07 JUMPI POP PUSH0 DUP3 PUSH1 0x20 ADD MLOAD PUSH1 0x1 PUSH1 0x2 DUP2 LT PUSH2 0x2E00 JUMPI PUSH2 0x2DFF PUSH2 0x4568 JUMP JUMPDEST JUMPDEST PUSH1 0x20 MUL ADD MLOAD EQ JUMPDEST ISZERO PUSH2 0x2E14 JUMPI DUP2 SWAP1 POP PUSH2 0x30AE JUMP JUMPDEST PUSH0 PUSH2 0x2E25 DUP4 PUSH0 ADD MLOAD DUP5 PUSH0 ADD MLOAD PUSH2 0x3108 JUMP JUMPDEST SWAP1 POP PUSH0 PUSH2 0x2E3A DUP5 PUSH1 0x20 ADD MLOAD DUP6 PUSH1 0x20 ADD MLOAD PUSH2 0x3108 JUMP JUMPDEST SWAP1 POP PUSH0 PUSH2 0x300B PUSH1 0x40 MLOAD DUP1 PUSH1 0x40 ADD PUSH1 0x40 MSTORE DUP1 PUSH32 0x30644E72E131A029B85045B68181585D97816A916871CA8D3C208C16D87CFD47 DUP1 PUSH2 0x2E7A JUMPI PUSH2 0x2E79 PUSH2 0x42D0 JUMP JUMPDEST JUMPDEST DUP9 PUSH1 0x20 ADD MLOAD PUSH0 PUSH1 0x2 DUP2 LT PUSH2 0x2E91 JUMPI PUSH2 0x2E90 PUSH2 0x4568 JUMP JUMPDEST JUMPDEST PUSH1 0x20 MUL ADD MLOAD DUP10 PUSH0 ADD MLOAD PUSH0 PUSH1 0x2 DUP2 LT PUSH2 0x2EAC JUMPI PUSH2 0x2EAB PUSH2 0x4568 JUMP JUMPDEST JUMPDEST PUSH1 0x20 MUL ADD MLOAD ADDMOD DUP2 MSTORE PUSH1 0x20 ADD PUSH32 0x30644E72E131A029B85045B68181585D97816A916871CA8D3C208C16D87CFD47 DUP1 PUSH2 0x2EE6 JUMPI PUSH2 0x2EE5 PUSH2 0x42D0 JUMP JUMPDEST JUMPDEST DUP9 PUSH1 0x20 ADD MLOAD PUSH1 0x1 PUSH1 0x2 DUP2 LT PUSH2 0x2EFE JUMPI PUSH2 0x2EFD PUSH2 0x4568 JUMP JUMPDEST JUMPDEST PUSH1 0x20 MUL ADD MLOAD DUP10 PUSH0 ADD MLOAD PUSH1 0x1 PUSH1 0x2 DUP2 LT PUSH2 0x2F1A JUMPI PUSH2 0x2F19 PUSH2 0x4568 JUMP JUMPDEST JUMPDEST PUSH1 0x20 MUL ADD MLOAD ADDMOD DUP2 MSTORE POP PUSH1 0x40 MLOAD DUP1 PUSH1 0x40 ADD PUSH1 0x40 MSTORE DUP1 PUSH32 0x30644E72E131A029B85045B68181585D97816A916871CA8D3C208C16D87CFD47 DUP1 PUSH2 0x2F5D JUMPI PUSH2 0x2F5C PUSH2 0x42D0 JUMP JUMPDEST JUMPDEST DUP10 PUSH1 0x20 ADD MLOAD PUSH0 PUSH1 0x2 DUP2 LT PUSH2 0x2F74 JUMPI PUSH2 0x2F73 PUSH2 0x4568 JUMP JUMPDEST JUMPDEST PUSH1 0x20 MUL ADD MLOAD DUP11 PUSH0 ADD MLOAD PUSH0 PUSH1 0x2 DUP2 LT PUSH2 0x2F8F JUMPI PUSH2 0x2F8E PUSH2 0x4568 JUMP JUMPDEST JUMPDEST PUSH1 0x20 MUL ADD MLOAD ADDMOD DUP2 MSTORE PUSH1 0x20 ADD PUSH32 0x30644E72E131A029B85045B68181585D97816A916871CA8D3C208C16D87CFD47 DUP1 PUSH2 0x2FC9 JUMPI PUSH2 0x2FC8 PUSH2 0x42D0 JUMP JUMPDEST JUMPDEST DUP10 PUSH1 0x20 ADD MLOAD PUSH1 0x1 PUSH1 0x2 DUP2 LT PUSH2 0x2FE1 JUMPI PUSH2 0x2FE0 PUSH2 0x4568 JUMP JUMPDEST JUMPDEST PUSH1 0x20 MUL ADD MLOAD DUP11 PUSH0 ADD MLOAD PUSH1 0x1 PUSH1 0x2 DUP2 LT PUSH2 0x2FFD JUMPI PUSH2 0x2FFC PUSH2 0x4568 JUMP JUMPDEST JUMPDEST PUSH1 0x20 MUL ADD MLOAD ADDMOD DUP2 MSTORE POP PUSH2 0x3108 JUMP JUMPDEST SWAP1 POP PUSH2 0x3020 DUP2 PUSH2 0x301B DUP6 DUP6 PUSH2 0x3434 JUMP JUMPDEST PUSH2 0x339F JUMP JUMPDEST SWAP1 POP PUSH2 0x302C DUP2 DUP3 PUSH2 0x3434 JUMP JUMPDEST SWAP1 POP PUSH0 PUSH2 0x3042 PUSH2 0x303C DUP6 DUP7 PUSH2 0x3434 JUMP JUMPDEST DUP6 PUSH2 0x3434 JUMP JUMPDEST SWAP1 POP PUSH0 PUSH2 0x3061 PUSH2 0x3052 DUP4 DUP5 PUSH2 0x3108 JUMP JUMPDEST PUSH2 0x305C DUP6 DUP7 PUSH2 0x3434 JUMP JUMPDEST PUSH2 0x339F JUMP JUMPDEST SWAP1 POP PUSH0 DUP2 SWAP1 POP PUSH0 PUSH2 0x308D PUSH2 0x307E DUP6 PUSH2 0x3079 DUP9 DUP8 PUSH2 0x339F JUMP JUMPDEST PUSH2 0x3108 JUMP JUMPDEST PUSH2 0x3088 DUP9 DUP10 PUSH2 0x3434 JUMP JUMPDEST PUSH2 0x339F JUMP JUMPDEST SWAP1 POP PUSH1 0x40 MLOAD DUP1 PUSH1 0x40 ADD PUSH1 0x40 MSTORE DUP1 DUP4 DUP2 MSTORE PUSH1 0x20 ADD DUP3 DUP2 MSTORE POP SWAP8 POP POP POP POP POP POP POP POP JUMPDEST SWAP2 SWAP1 POP JUMP JUMPDEST PUSH0 DUP2 PUSH1 0x40 MLOAD PUSH1 0x20 ADD PUSH2 0x30C5 SWAP2 SWAP1 PUSH2 0x4BCF JUMP JUMPDEST PUSH1 0x40 MLOAD PUSH1 0x20 DUP2 DUP4 SUB SUB DUP2 MSTORE SWAP1 PUSH1 0x40 MSTORE DUP1 MLOAD SWAP1 PUSH1 0x20 ADD KECCAK256 PUSH1 0x40 MLOAD PUSH1 0x20 ADD PUSH2 0x30EB SWAP2 SWAP1 PUSH2 0x4C4F JUMP JUMPDEST PUSH1 0x40 MLOAD PUSH1 0x20 DUP2 DUP4 SUB SUB DUP2 MSTORE SWAP1 PUSH1 0x40 MSTORE DUP1 MLOAD SWAP1 PUSH1 0x20 ADD KECCAK256 SWAP1 POP SWAP2 SWAP1 POP JUMP JUMPDEST PUSH2 0x3110 PUSH2 0x3691 JUMP JUMPDEST PUSH0 PUSH32 0x30644E72E131A029B85045B68181585D97816A916871CA8D3C208C16D87CFD47 DUP1 PUSH2 0x3140 JUMPI PUSH2 0x313F PUSH2 0x42D0 JUMP JUMPDEST JUMPDEST DUP4 PUSH0 PUSH1 0x2 DUP2 LT PUSH2 0x3153 JUMPI PUSH2 0x3152 PUSH2 0x4568 JUMP JUMPDEST JUMPDEST PUSH1 0x20 MUL ADD MLOAD DUP6 PUSH0 PUSH1 0x2 DUP2 LT PUSH2 0x316B JUMPI PUSH2 0x316A PUSH2 0x4568 JUMP JUMPDEST JUMPDEST PUSH1 0x20 MUL ADD MLOAD MULMOD SWAP1 POP PUSH0 PUSH32 0x30644E72E131A029B85045B68181585D97816A916871CA8D3C208C16D87CFD47 DUP1 PUSH2 0x31A3 JUMPI PUSH2 0x31A2 PUSH2 0x42D0 JUMP JUMPDEST JUMPDEST DUP5 PUSH1 0x1 PUSH1 0x2 DUP2 LT PUSH2 0x31B7 JUMPI PUSH2 0x31B6 PUSH2 0x4568 JUMP JUMPDEST JUMPDEST PUSH1 0x20 MUL ADD MLOAD DUP7 PUSH1 0x1 PUSH1 0x2 DUP2 LT PUSH2 0x31D0 JUMPI PUSH2 0x31CF PUSH2 0x4568 JUMP JUMPDEST JUMPDEST PUSH1 0x20 MUL ADD MLOAD MULMOD SWAP1 POP PUSH0 PUSH32 0x30644E72E131A029B85045B68181585D97816A916871CA8D3C208C16D87CFD47 DUP1 PUSH2 0x3208 JUMPI PUSH2 0x3207 PUSH2 0x42D0 JUMP JUMPDEST JUMPDEST DUP7 PUSH1 0x1 PUSH1 0x2 DUP2 LT PUSH2 0x321C JUMPI PUSH2 0x321B PUSH2 0x4568 JUMP JUMPDEST JUMPDEST PUSH1 0x20 MUL ADD MLOAD DUP8 PUSH0 PUSH1 0x2 DUP2 LT PUSH2 0x3234 JUMPI PUSH2 0x3233 PUSH2 0x4568 JUMP JUMPDEST JUMPDEST PUSH1 0x20 MUL ADD MLOAD ADDMOD SWAP1 POP PUSH0 PUSH32 0x30644E72E131A029B85045B68181585D97816A916871CA8D3C208C16D87CFD47 DUP1 PUSH2 0x326C JUMPI PUSH2 0x326B PUSH2 0x42D0 JUMP JUMPDEST JUMPDEST DUP7 PUSH1 0x1 PUSH1 0x2 DUP2 LT PUSH2 0x3280 JUMPI PUSH2 0x327F PUSH2 0x4568 JUMP JUMPDEST JUMPDEST PUSH1 0x20 MUL ADD MLOAD DUP8 PUSH0 PUSH1 0x2 DUP2 LT PUSH2 0x3298 JUMPI PUSH2 0x3297 PUSH2 0x4568 JUMP JUMPDEST JUMPDEST PUSH1 0x20 MUL ADD MLOAD ADDMOD SWAP1 POP PUSH0 PUSH32 0x30644E72E131A029B85045B68181585D97816A916871CA8D3C208C16D87CFD47 DUP1 PUSH2 0x32D0 JUMPI PUSH2 0x32CF PUSH2 0x42D0 JUMP JUMPDEST JUMPDEST DUP3 DUP5 MULMOD SWAP1 POP PUSH0 PUSH32 0x30644E72E131A029B85045B68181585D97816A916871CA8D3C208C16D87CFD47 DUP1 PUSH2 0x3305 JUMPI PUSH2 0x3304 PUSH2 0x42D0 JUMP JUMPDEST JUMPDEST PUSH32 0x30644E72E131A029B85045B68181585D97816A916871CA8D3C208C16D87CFD47 DUP1 PUSH2 0x3334 JUMPI PUSH2 0x3333 PUSH2 0x42D0 JUMP JUMPDEST JUMPDEST DUP7 PUSH1 0x15 SLOAD MULMOD DUP8 ADDMOD SWAP1 POP PUSH0 PUSH2 0x3379 DUP4 PUSH32 0x30644E72E131A029B85045B68181585D97816A916871CA8D3C208C16D87CFD47 DUP1 PUSH2 0x3371 JUMPI PUSH2 0x3370 PUSH2 0x42D0 JUMP JUMPDEST JUMPDEST DUP9 DUP11 ADDMOD PUSH2 0x3519 JUMP JUMPDEST SWAP1 POP PUSH1 0x40 MLOAD DUP1 PUSH1 0x40 ADD PUSH1 0x40 MSTORE DUP1 DUP4 DUP2 MSTORE PUSH1 0x20 ADD DUP3 DUP2 MSTORE POP SWAP8 POP POP POP POP POP POP POP POP SWAP3 SWAP2 POP POP JUMP JUMPDEST PUSH2 0x33A7 PUSH2 0x3691 JUMP JUMPDEST PUSH1 0x40 MLOAD DUP1 PUSH1 0x40 ADD PUSH1 0x40 MSTORE DUP1 PUSH2 0x33EA DUP6 PUSH0 PUSH1 0x2 DUP2 LT PUSH2 0x33C8 JUMPI PUSH2 0x33C7 PUSH2 0x4568 JUMP JUMPDEST JUMPDEST PUSH1 0x20 MUL ADD MLOAD DUP6 PUSH0 PUSH1 0x2 DUP2 LT PUSH2 0x33E0 JUMPI PUSH2 0x33DF PUSH2 0x4568 JUMP JUMPDEST JUMPDEST PUSH1 0x20 MUL ADD MLOAD PUSH2 0x3519 JUMP JUMPDEST DUP2 MSTORE PUSH1 0x20 ADD PUSH2 0x3429 DUP6 PUSH1 0x1 PUSH1 0x2 DUP2 LT PUSH2 0x3406 JUMPI PUSH2 0x3405 PUSH2 0x4568 JUMP JUMPDEST JUMPDEST PUSH1 0x20 MUL ADD MLOAD DUP6 PUSH1 0x1 PUSH1 0x2 DUP2 LT PUSH2 0x341F JUMPI PUSH2 0x341E PUSH2 0x4568 JUMP JUMPDEST JUMPDEST PUSH1 0x20 MUL ADD MLOAD PUSH2 0x3519 JUMP JUMPDEST DUP2 MSTORE POP SWAP1 POP SWAP3 SWAP2 POP POP JUMP JUMPDEST PUSH2 0x343C PUSH2 0x3691 JUMP JUMPDEST PUSH1 0x40 MLOAD DUP1 PUSH1 0x40 ADD PUSH1 0x40 MSTORE DUP1 PUSH32 0x30644E72E131A029B85045B68181585D97816A916871CA8D3C208C16D87CFD47 DUP1 PUSH2 0x3476 JUMPI PUSH2 0x3475 PUSH2 0x42D0 JUMP JUMPDEST JUMPDEST DUP5 PUSH0 PUSH1 0x2 DUP2 LT PUSH2 0x3489 JUMPI PUSH2 0x3488 PUSH2 0x4568 JUMP JUMPDEST JUMPDEST PUSH1 0x20 MUL ADD MLOAD DUP7 PUSH0 PUSH1 0x2 DUP2 LT PUSH2 0x34A1 JUMPI PUSH2 0x34A0 PUSH2 0x4568 JUMP JUMPDEST JUMPDEST PUSH1 0x20 MUL ADD MLOAD ADDMOD DUP2 MSTORE PUSH1 0x20 ADD PUSH32 0x30644E72E131A029B85045B68181585D97816A916871CA8D3C208C16D87CFD47 DUP1 PUSH2 0x34DB JUMPI PUSH2 0x34DA PUSH2 0x42D0 JUMP JUMPDEST JUMPDEST DUP5 PUSH1 0x1 PUSH1 0x2 DUP2 LT PUSH2 0x34EF JUMPI PUSH2 0x34EE PUSH2 0x4568 JUMP JUMPDEST JUMPDEST PUSH1 0x20 MUL ADD MLOAD DUP7 PUSH1 0x1 PUSH1 0x2 DUP2 LT PUSH2 0x3508 JUMPI PUSH2 0x3507 PUSH2 0x4568 JUMP JUMPDEST JUMPDEST PUSH1 0x20 MUL ADD MLOAD ADDMOD DUP2 MSTORE POP SWAP1 POP SWAP3 SWAP2 POP POP JUMP JUMPDEST PUSH0 PUSH32 0x30644E72E131A029B85045B68181585D97816A916871CA8D3C208C16D87CFD47 DUP1 PUSH2 0x3549 JUMPI PUSH2 0x3548 PUSH2 0x42D0 JUMP JUMPDEST JUMPDEST DUP3 PUSH32 0x30644E72E131A029B85045B68181585D97816A916871CA8D3C208C16D87CFD47 PUSH2 0x3575 SWAP2 SWAP1 PUSH2 0x42FD JUMP JUMPDEST DUP5 ADDMOD SWAP1 POP SWAP3 SWAP2 POP POP JUMP JUMPDEST PUSH1 0x40 MLOAD DUP1 PUSH1 0x40 ADD PUSH1 0x40 MSTORE DUP1 PUSH2 0x3592 PUSH2 0x3691 JUMP JUMPDEST DUP2 MSTORE PUSH1 0x20 ADD PUSH2 0x359F PUSH2 0x3691 JUMP JUMPDEST DUP2 MSTORE POP SWAP1 JUMP JUMPDEST DUP3 PUSH1 0x2 DUP2 ADD SWAP3 DUP3 ISZERO PUSH2 0x35D4 JUMPI SWAP2 PUSH1 0x20 MUL DUP3 ADD JUMPDEST DUP3 DUP2 GT ISZERO PUSH2 0x35D3 JUMPI DUP3 MLOAD DUP3 SSTORE SWAP2 PUSH1 0x20 ADD SWAP2 SWAP1 PUSH1 0x1 ADD SWAP1 PUSH2 0x35B8 JUMP JUMPDEST JUMPDEST POP SWAP1 POP PUSH2 0x35E1 SWAP2 SWAP1 PUSH2 0x36B3 JUMP JUMPDEST POP SWAP1 JUMP JUMPDEST PUSH1 0x40 MLOAD DUP1 PUSH1 0x40 ADD PUSH1 0x40 MSTORE DUP1 PUSH0 DUP2 MSTORE PUSH1 0x20 ADD PUSH0 DUP2 MSTORE POP SWAP1 JUMP JUMPDEST PUSH1 0x40 MLOAD DUP1 PUSH1 0x60 ADD PUSH1 0x40 MSTORE DUP1 PUSH1 0x3 SWAP1 PUSH1 0x20 DUP3 MUL DUP1 CALLDATASIZE DUP4 CALLDATACOPY DUP1 DUP3 ADD SWAP2 POP POP SWAP1 POP POP SWAP1 JUMP JUMPDEST PUSH1 0x40 MLOAD DUP1 PUSH1 0x80 ADD PUSH1 0x40 MSTORE DUP1 PUSH1 0x4 SWAP1 PUSH1 0x20 DUP3 MUL DUP1 CALLDATASIZE DUP4 CALLDATACOPY DUP1 DUP3 ADD SWAP2 POP POP SWAP1 POP POP SWAP1 JUMP JUMPDEST PUSH1 0x40 MLOAD DUP1 PUSH1 0x20 ADD PUSH1 0x40 MSTORE DUP1 PUSH1 0x1 SWAP1 PUSH1 0x20 DUP3 MUL DUP1 CALLDATASIZE DUP4 CALLDATACOPY DUP1 DUP3 ADD SWAP2 POP POP SWAP1 POP POP SWAP1 JUMP JUMPDEST PUSH1 0x40 MLOAD DUP1 PUSH2 0x180 ADD PUSH1 0x40 MSTORE DUP1 PUSH1 0xC SWAP1 JUMPDEST PUSH2 0x367B PUSH2 0x3691 JUMP JUMPDEST DUP2 MSTORE PUSH1 0x20 ADD SWAP1 PUSH1 0x1 SWAP1 SUB SWAP1 DUP2 PUSH2 0x3673 JUMPI SWAP1 POP POP SWAP1 JUMP JUMPDEST PUSH1 0x40 MLOAD DUP1 PUSH1 0x40 ADD PUSH1 0x40 MSTORE DUP1 PUSH1 0x2 SWAP1 PUSH1 0x20 DUP3 MUL DUP1 CALLDATASIZE DUP4 CALLDATACOPY DUP1 DUP3 ADD SWAP2 POP POP SWAP1 POP POP SWAP1 JUMP JUMPDEST JUMPDEST DUP1 DUP3 GT ISZERO PUSH2 0x36CA JUMPI PUSH0 DUP2 PUSH0 SWAP1 SSTORE POP PUSH1 0x1 ADD PUSH2 0x36B4 JUMP JUMPDEST POP SWAP1 JUMP JUMPDEST PUSH0 DUP2 SWAP1 POP SWAP2 SWAP1 POP JUMP JUMPDEST PUSH2 0x36E0 DUP2 PUSH2 0x36CE JUMP JUMPDEST DUP3 MSTORE POP POP JUMP JUMPDEST PUSH0 PUSH1 0x20 DUP3 ADD SWAP1 POP PUSH2 0x36F9 PUSH0 DUP4 ADD DUP5 PUSH2 0x36D7 JUMP JUMPDEST SWAP3 SWAP2 POP POP JUMP JUMPDEST PUSH0 PUSH1 0x40 MLOAD SWAP1 POP SWAP1 JUMP JUMPDEST PUSH0 DUP1 REVERT JUMPDEST PUSH0 DUP1 REVERT JUMPDEST PUSH0 DUP1 REVERT JUMPDEST PUSH0 PUSH1 0x1F NOT PUSH1 0x1F DUP4 ADD AND SWAP1 POP SWAP2 SWAP1 POP JUMP JUMPDEST PUSH32 0x4E487B7100000000000000000000000000000000000000000000000000000000 PUSH0 MSTORE PUSH1 0x41 PUSH1 0x4 MSTORE PUSH1 0x24 PUSH0 REVERT JUMPDEST PUSH2 0x375A DUP3 PUSH2 0x3714 JUMP JUMPDEST DUP2 ADD DUP2 DUP2 LT PUSH8 0xFFFFFFFFFFFFFFFF DUP3 GT OR ISZERO PUSH2 0x3779 JUMPI PUSH2 0x3778 PUSH2 0x3724 JUMP JUMPDEST JUMPDEST DUP1 PUSH1 0x40 MSTORE POP POP POP JUMP JUMPDEST PUSH0 PUSH2 0x378B PUSH2 0x36FF JUMP JUMPDEST SWAP1 POP PUSH2 0x3797 DUP3 DUP3 PUSH2 0x3751 JUMP JUMPDEST SWAP2 SWAP1 POP JUMP JUMPDEST PUSH0 DUP1 REVERT JUMPDEST PUSH2 0x37A9 DUP2 PUSH2 0x36CE JUMP JUMPDEST DUP2 EQ PUSH2 0x37B3 JUMPI PUSH0 DUP1 REVERT JUMPDEST POP JUMP JUMPDEST PUSH0 DUP2 CALLDATALOAD SWAP1 POP PUSH2 0x37C4 DUP2 PUSH2 0x37A0 JUMP JUMPDEST SWAP3 SWAP2 POP POP JUMP JUMPDEST PUSH0 PUSH1 0x40 DUP3 DUP5 SUB SLT ISZERO PUSH2 0x37DF JUMPI PUSH2 0x37DE PUSH2 0x3710 JUMP JUMPDEST JUMPDEST PUSH2 0x37E9 PUSH1 0x40 PUSH2 0x3782 JUMP JUMPDEST SWAP1 POP PUSH0 PUSH2 0x37F8 DUP5 DUP3 DUP6 ADD PUSH2 0x37B6 JUMP JUMPDEST PUSH0 DUP4 ADD MSTORE POP PUSH1 0x20 PUSH2 0x380B DUP5 DUP3 DUP6 ADD PUSH2 0x37B6 JUMP JUMPDEST PUSH1 0x20 DUP4 ADD MSTORE POP SWAP3 SWAP2 POP POP JUMP JUMPDEST PUSH0 DUP2 SWAP1 POP SWAP2 SWAP1 POP JUMP JUMPDEST PUSH2 0x3829 DUP2 PUSH2 0x3817 JUMP JUMPDEST DUP2 EQ PUSH2 0x3833 JUMPI PUSH0 DUP1 REVERT JUMPDEST POP JUMP JUMPDEST PUSH0 DUP2 CALLDATALOAD SWAP1 POP PUSH2 0x3844 DUP2 PUSH2 0x3820 JUMP JUMPDEST SWAP3 SWAP2 POP POP JUMP JUMPDEST PUSH0 DUP1 REVERT JUMPDEST PUSH0 DUP1 REVERT JUMPDEST PUSH0 PUSH8 0xFFFFFFFFFFFFFFFF DUP3 GT ISZERO PUSH2 0x386C JUMPI PUSH2 0x386B PUSH2 0x3724 JUMP JUMPDEST JUMPDEST PUSH2 0x3875 DUP3 PUSH2 0x3714 JUMP JUMPDEST SWAP1 POP PUSH1 0x20 DUP2 ADD SWAP1 POP SWAP2 SWAP1 POP JUMP JUMPDEST DUP3 DUP2 DUP4 CALLDATACOPY PUSH0 DUP4 DUP4 ADD MSTORE POP POP POP JUMP JUMPDEST PUSH0 PUSH2 0x38A2 PUSH2 0x389D DUP5 PUSH2 0x3852 JUMP JUMPDEST PUSH2 0x3782 JUMP JUMPDEST SWAP1 POP DUP3 DUP2 MSTORE PUSH1 0x20 DUP2 ADD DUP5 DUP5 DUP5 ADD GT ISZERO PUSH2 0x38BE JUMPI PUSH2 0x38BD PUSH2 0x384E JUMP JUMPDEST JUMPDEST PUSH2 0x38C9 DUP5 DUP3 DUP6 PUSH2 0x3882 JUMP JUMPDEST POP SWAP4 SWAP3 POP POP POP JUMP JUMPDEST PUSH0 DUP3 PUSH1 0x1F DUP4 ADD SLT PUSH2 0x38E5 JUMPI PUSH2 0x38E4 PUSH2 0x384A JUMP JUMPDEST JUMPDEST DUP2 CALLDATALOAD PUSH2 0x38F5 DUP5 DUP3 PUSH1 0x20 DUP7 ADD PUSH2 0x3890 JUMP JUMPDEST SWAP2 POP POP SWAP3 SWAP2 POP POP JUMP JUMPDEST PUSH0 PUSH20 0xFFFFFFFFFFFFFFFFFFFFFFFFFFFFFFFFFFFFFFFF DUP3 AND SWAP1 POP SWAP2 SWAP1 POP JUMP JUMPDEST PUSH0 PUSH2 0x3927 DUP3 PUSH2 0x38FE JUMP JUMPDEST SWAP1 POP SWAP2 SWAP1 POP JUMP JUMPDEST PUSH2 0x3937 DUP2 PUSH2 0x391D JUMP JUMPDEST DUP2 EQ PUSH2 0x3941 JUMPI PUSH0 DUP1 REVERT JUMPDEST POP JUMP JUMPDEST PUSH0 DUP2 CALLDATALOAD SWAP1 POP PUSH2 0x3952 DUP2 PUSH2 0x392E JUMP JUMPDEST SWAP3 SWAP2 POP POP JUMP JUMPDEST PUSH0 PUSH2 0x580 DUP3 DUP5 SUB SLT ISZERO PUSH2 0x396E JUMPI PUSH2 0x396D PUSH2 0x3710 JUMP JUMPDEST JUMPDEST PUSH2 0x3979 PUSH2 0x380 PUSH2 0x3782 JUMP JUMPDEST SWAP1 POP PUSH0 PUSH2 0x3988 DUP5 DUP3 DUP6 ADD PUSH2 0x37CA JUMP JUMPDEST PUSH0 DUP4 ADD MSTORE POP PUSH1 0x40 PUSH2 0x399B DUP5 DUP3 DUP6 ADD PUSH2 0x37CA JUMP JUMPDEST PUSH1 0x20 DUP4 ADD MSTORE POP PUSH1 0x80 PUSH2 0x39AF DUP5 DUP3 DUP6 ADD PUSH2 0x37CA JUMP JUMPDEST PUSH1 0x40 DUP4 ADD MSTORE POP PUSH1 0xC0 PUSH2 0x39C3 DUP5 DUP3 DUP6 ADD PUSH2 0x37CA JUMP JUMPDEST PUSH1 0x60 DUP4 ADD MSTORE POP PUSH2 0x100 PUSH2 0x39D8 DUP5 DUP3 DUP6 ADD PUSH2 0x37CA JUMP JUMPDEST PUSH1 0x80 DUP4 ADD MSTORE POP PUSH2 0x140 PUSH2 0x39ED DUP5 DUP3 DUP6 ADD PUSH2 0x37CA JUMP JUMPDEST PUSH1 0xA0 DUP4 ADD MSTORE POP PUSH2 0x180 PUSH2 0x3A02 DUP5 DUP3 DUP6 ADD PUSH2 0x37CA JUMP JUMPDEST PUSH1 0xC0 DUP4 ADD MSTORE POP PUSH2 0x1C0 PUSH2 0x3A17 DUP5 DUP3 DUP6 ADD PUSH2 0x37CA JUMP JUMPDEST PUSH1 0xE0 DUP4 ADD MSTORE POP PUSH2 0x200 PUSH2 0x3A2C DUP5 DUP3 DUP6 ADD PUSH2 0x37CA JUMP JUMPDEST PUSH2 0x100 DUP4 ADD MSTORE POP PUSH2 0x240 PUSH2 0x3A42 DUP5 DUP3 DUP6 ADD PUSH2 0x37B6 JUMP JUMPDEST PUSH2 0x120 DUP4 ADD MSTORE POP PUSH2 0x260 PUSH2 0x3A58 DUP5 DUP3 DUP6 ADD PUSH2 0x37B6 JUMP JUMPDEST PUSH2 0x140 DUP4 ADD MSTORE POP PUSH2 0x280 PUSH2 0x3A6E DUP5 DUP3 DUP6 ADD PUSH2 0x37B6 JUMP JUMPDEST PUSH2 0x160 DUP4 ADD MSTORE POP PUSH2 0x2A0 PUSH2 0x3A84 DUP5 DUP3 DUP6 ADD PUSH2 0x37B6 JUMP JUMPDEST PUSH2 0x180 DUP4 ADD MSTORE POP PUSH2 0x2C0 PUSH2 0x3A9A DUP5 DUP3 DUP6 ADD PUSH2 0x37B6 JUMP JUMPDEST PUSH2 0x1A0 DUP4 ADD MSTORE POP PUSH2 0x2E0 PUSH2 0x3AB0 DUP5 DUP3 DUP6 ADD PUSH2 0x37B6 JUMP JUMPDEST PUSH2 0x1C0 DUP4 ADD MSTORE POP PUSH2 0x300 PUSH2 0x3AC6 DUP5 DUP3 DUP6 ADD PUSH2 0x37B6 JUMP JUMPDEST PUSH2 0x1E0 DUP4 ADD MSTORE POP PUSH2 0x320 PUSH2 0x3ADC DUP5 DUP3 DUP6 ADD PUSH2 0x37B6 JUMP JUMPDEST PUSH2 0x200 DUP4 ADD MSTORE POP PUSH2 0x340 PUSH2 0x3AF2 DUP5 DUP3 DUP6 ADD PUSH2 0x37CA JUMP JUMPDEST PUSH2 0x220 DUP4 ADD MSTORE POP PUSH2 0x380 PUSH2 0x3B08 DUP5 DUP3 DUP6 ADD PUSH2 0x37CA JUMP JUMPDEST PUSH2 0x240 DUP4 ADD MSTORE POP PUSH2 0x3C0 PUSH2 0x3B1E DUP5 DUP3 DUP6 ADD PUSH2 0x37CA JUMP JUMPDEST PUSH2 0x260 DUP4 ADD MSTORE POP PUSH2 0x400 PUSH2 0x3B34 DUP5 DUP3 DUP6 ADD PUSH2 0x37CA JUMP JUMPDEST PUSH2 0x280 DUP4 ADD MSTORE POP PUSH2 0x440 PUSH2 0x3B4A DUP5 DUP3 DUP6 ADD PUSH2 0x37CA JUMP JUMPDEST PUSH2 0x2A0 DUP4 ADD MSTORE POP PUSH2 0x480 PUSH2 0x3B60 DUP5 DUP3 DUP6 ADD PUSH2 0x37CA JUMP JUMPDEST PUSH2 0x2C0 DUP4 ADD MSTORE POP PUSH2 0x4C0 PUSH2 0x3B76 DUP5 DUP3 DUP6 ADD PUSH2 0x37CA JUMP JUMPDEST PUSH2 0x2E0 DUP4 ADD MSTORE POP PUSH2 0x500 PUSH2 0x3B8C DUP5 DUP3 DUP6 ADD PUSH2 0x3836 JUMP JUMPDEST PUSH2 0x300 DUP4 ADD MSTORE POP PUSH2 0x520 DUP3 ADD CALLDATALOAD PUSH8 0xFFFFFFFFFFFFFFFF DUP2 GT ISZERO PUSH2 0x3BB2 JUMPI PUSH2 0x3BB1 PUSH2 0x379C JUMP JUMPDEST JUMPDEST PUSH2 0x3BBE DUP5 DUP3 DUP6 ADD PUSH2 0x38D1 JUMP JUMPDEST PUSH2 0x320 DUP4 ADD MSTORE POP PUSH2 0x540 PUSH2 0x3BD4 DUP5 DUP3 DUP6 ADD PUSH2 0x3944 JUMP JUMPDEST PUSH2 0x340 DUP4 ADD MSTORE POP PUSH2 0x560 PUSH2 0x3BEA DUP5 DUP3 DUP6 ADD PUSH2 0x37B6 JUMP JUMPDEST PUSH2 0x360 DUP4 ADD MSTORE POP SWAP3 SWAP2 POP POP JUMP JUMPDEST PUSH0 PUSH1 0x20 DUP3 DUP5 SUB SLT ISZERO PUSH2 0x3C0C JUMPI PUSH2 0x3C0B PUSH2 0x3708 JUMP JUMPDEST JUMPDEST PUSH0 DUP3 ADD CALLDATALOAD PUSH8 0xFFFFFFFFFFFFFFFF DUP2 GT ISZERO PUSH2 0x3C29 JUMPI PUSH2 0x3C28 PUSH2 0x370C JUMP JUMPDEST JUMPDEST PUSH2 0x3C35 DUP5 DUP3 DUP6 ADD PUSH2 0x3958 JUMP JUMPDEST SWAP2 POP POP SWAP3 SWAP2 POP POP JUMP JUMPDEST PUSH0 DUP2 ISZERO ISZERO SWAP1 POP SWAP2 SWAP1 POP JUMP JUMPDEST PUSH2 0x3C52 DUP2 PUSH2 0x3C3E JUMP JUMPDEST DUP3 MSTORE POP POP JUMP JUMPDEST PUSH0 PUSH1 0x20 DUP3 ADD SWAP1 POP PUSH2 0x3C6B PUSH0 DUP4 ADD DUP5 PUSH2 0x3C49 JUMP JUMPDEST SWAP3 SWAP2 POP POP JUMP JUMPDEST PUSH0 PUSH8 0xFFFFFFFFFFFFFFFF DUP3 GT ISZERO PUSH2 0x3C8B JUMPI PUSH2 0x3C8A PUSH2 0x3724 JUMP JUMPDEST JUMPDEST PUSH1 0x20 DUP3 MUL SWAP1 POP SWAP2 SWAP1 POP JUMP JUMPDEST PUSH0 DUP1 REVERT JUMPDEST PUSH0 PUSH2 0x3CAC PUSH2 0x3CA7 DUP5 PUSH2 0x3C71 JUMP JUMPDEST PUSH2 0x3782 JUMP JUMPDEST SWAP1 POP DUP1 PUSH1 0x20 DUP5 MUL DUP4 ADD DUP6 DUP2 GT ISZERO PUSH2 0x3CC6 JUMPI PUSH2 0x3CC5 PUSH2 0x3C96 JUMP JUMPDEST JUMPDEST DUP4 JUMPDEST DUP2 DUP2 LT ISZERO PUSH2 0x3CEF JUMPI DUP1 PUSH2 0x3CDB DUP9 DUP3 PUSH2 0x37B6 JUMP JUMPDEST DUP5 MSTORE PUSH1 0x20 DUP5 ADD SWAP4 POP POP PUSH1 0x20 DUP2 ADD SWAP1 POP PUSH2 0x3CC8 JUMP JUMPDEST POP POP POP SWAP4 SWAP3 POP POP POP JUMP JUMPDEST PUSH0 DUP3 PUSH1 0x1F DUP4 ADD SLT PUSH2 0x3D0D JUMPI PUSH2 0x3D0C PUSH2 0x384A JUMP JUMPDEST JUMPDEST PUSH1 0x2 PUSH2 0x3D1A DUP5 DUP3 DUP6 PUSH2 0x3C9A JUMP JUMPDEST SWAP2 POP POP SWAP3 SWAP2 POP POP JUMP JUMPDEST PUSH0 PUSH1 0x80 DUP3 DUP5 SUB SLT ISZERO PUSH2 0x3D38 JUMPI PUSH2 0x3D37 PUSH2 0x3710 JUMP JUMPDEST JUMPDEST PUSH2 0x3D42 PUSH1 0x40 PUSH2 0x3782 JUMP JUMPDEST SWAP1 POP PUSH0 PUSH2 0x3D51 DUP5 DUP3 DUP6 ADD PUSH2 0x3CF9 JUMP JUMPDEST PUSH0 DUP4 ADD MSTORE POP PUSH1 0x40 PUSH2 0x3D64 DUP5 DUP3 DUP6 ADD PUSH2 0x3CF9 JUMP JUMPDEST PUSH1 0x20 DUP4 ADD MSTORE POP SWAP3 SWAP2 POP POP JUMP JUMPDEST PUSH0 PUSH2 0x260 DUP3 DUP5 SUB SLT ISZERO PUSH2 0x3D86 JUMPI PUSH2 0x3D85 PUSH2 0x3710 JUMP JUMPDEST JUMPDEST PUSH2 0x3D91 PUSH2 0x120 PUSH2 0x3782 JUMP JUMPDEST SWAP1 POP PUSH0 PUSH2 0x3DA0 DUP5 DUP3 DUP6 ADD PUSH2 0x37CA JUMP JUMPDEST PUSH0 DUP4 ADD MSTORE POP PUSH1 0x40 PUSH2 0x3DB3 DUP5 DUP3 DUP6 ADD PUSH2 0x37CA JUMP JUMPDEST PUSH1 0x20 DUP4 ADD MSTORE POP PUSH1 0x80 PUSH2 0x3DC7 DUP5 DUP3 DUP6 ADD PUSH2 0x3D23 JUMP JUMPDEST PUSH1 0x40 DUP4 ADD MSTORE POP PUSH2 0x100 PUSH2 0x3DDC DUP5 DUP3 DUP6 ADD PUSH2 0x37CA JUMP JUMPDEST PUSH1 0x60 DUP4 ADD MSTORE POP PUSH2 0x140 PUSH2 0x3DF1 DUP5 DUP3 DUP6 ADD PUSH2 0x37B6 JUMP JUMPDEST PUSH1 0x80 DUP4 ADD MSTORE POP PUSH2 0x160 PUSH2 0x3E06 DUP5 DUP3 DUP6 ADD PUSH2 0x37CA JUMP JUMPDEST PUSH1 0xA0 DUP4 ADD MSTORE POP PUSH2 0x1A0 PUSH2 0x3E1B DUP5 DUP3 DUP6 ADD PUSH2 0x3D23 JUMP JUMPDEST PUSH1 0xC0 DUP4 ADD MSTORE POP PUSH2 0x220 PUSH2 0x3E30 DUP5 DUP3 DUP6 ADD PUSH2 0x37B6 JUMP JUMPDEST PUSH1 0xE0 DUP4 ADD MSTORE POP PUSH2 0x240 PUSH2 0x3E45 DUP5 DUP3 DUP6 ADD PUSH2 0x37B6 JUMP JUMPDEST PUSH2 0x100 DUP4 ADD MSTORE POP SWAP3 SWAP2 POP POP JUMP JUMPDEST PUSH0 PUSH2 0x260 DUP3 DUP5 SUB SLT ISZERO PUSH2 0x3E68 JUMPI PUSH2 0x3E67 PUSH2 0x3708 JUMP JUMPDEST JUMPDEST PUSH0 PUSH2 0x3E75 DUP5 DUP3 DUP6 ADD PUSH2 0x3D70 JUMP JUMPDEST SWAP2 POP POP SWAP3 SWAP2 POP POP JUMP JUMPDEST PUSH0 DUP1 PUSH0 DUP1 PUSH1 0xC0 DUP6 DUP8 SUB SLT ISZERO PUSH2 0x3E96 JUMPI PUSH2 0x3E95 PUSH2 0x3708 JUMP JUMPDEST JUMPDEST PUSH0 PUSH2 0x3EA3 DUP8 DUP3 DUP9 ADD PUSH2 0x37CA JUMP JUMPDEST SWAP5 POP POP PUSH1 0x40 PUSH2 0x3EB4 DUP8 DUP3 DUP9 ADD PUSH2 0x37CA JUMP JUMPDEST SWAP4 POP POP PUSH1 0x80 PUSH2 0x3EC5 DUP8 DUP3 DUP9 ADD PUSH2 0x37B6 JUMP JUMPDEST SWAP3 POP POP PUSH1 0xA0 PUSH2 0x3ED6 DUP8 DUP3 DUP9 ADD PUSH2 0x37B6 JUMP JUMPDEST SWAP2 POP POP SWAP3 SWAP6 SWAP2 SWAP5 POP SWAP3 POP JUMP JUMPDEST PUSH0 PUSH1 0x20 DUP3 DUP5 SUB SLT ISZERO PUSH2 0x3EF7 JUMPI PUSH2 0x3EF6 PUSH2 0x3708 JUMP JUMPDEST JUMPDEST PUSH0 PUSH2 0x3F04 DUP5 DUP3 DUP6 ADD PUSH2 0x37B6 JUMP JUMPDEST SWAP2 POP POP SWAP3 SWAP2 POP POP JUMP JUMPDEST PUSH0 DUP1 PUSH1 0xA0 DUP4 DUP6 SUB SLT ISZERO PUSH2 0x3F23 JUMPI PUSH2 0x3F22 PUSH2 0x3708 JUMP JUMPDEST JUMPDEST PUSH0 PUSH2 0x3F30 DUP6 DUP3 DUP7 ADD PUSH2 0x3D23 JUMP JUMPDEST SWAP3 POP POP PUSH1 0x80 PUSH2 0x3F41 DUP6 DUP3 DUP7 ADD PUSH2 0x37B6 JUMP JUMPDEST SWAP2 POP POP SWAP3 POP SWAP3 SWAP1 POP JUMP JUMPDEST PUSH0 PUSH1 0x2 SWAP1 POP SWAP2 SWAP1 POP JUMP JUMPDEST PUSH0 DUP2 SWAP1 POP SWAP3 SWAP2 POP POP JUMP JUMPDEST PUSH0 DUP2 SWAP1 POP SWAP2 SWAP1 POP JUMP JUMPDEST PUSH2 0x3F71 DUP2 PUSH2 0x36CE JUMP JUMPDEST DUP3 MSTORE POP POP JUMP JUMPDEST PUSH0 PUSH2 0x3F82 DUP4 DUP4 PUSH2 0x3F68 JUMP JUMPDEST PUSH1 0x20 DUP4 ADD SWAP1 POP SWAP3 SWAP2 POP POP JUMP JUMPDEST PUSH0 PUSH1 0x20 DUP3 ADD SWAP1 POP SWAP2 SWAP1 POP JUMP JUMPDEST PUSH2 0x3FA3 DUP2 PUSH2 0x3F4B JUMP JUMPDEST PUSH2 0x3FAD DUP2 DUP5 PUSH2 0x3F55 JUMP JUMPDEST SWAP3 POP PUSH2 0x3FB8 DUP3 PUSH2 0x3F5F JUMP JUMPDEST DUP1 PUSH0 JUMPDEST DUP4 DUP2 LT ISZERO PUSH2 0x3FE8 JUMPI DUP2 MLOAD PUSH2 0x3FCF DUP8 DUP3 PUSH2 0x3F77 JUMP JUMPDEST SWAP7 POP PUSH2 0x3FDA DUP4 PUSH2 0x3F8E JUMP JUMPDEST SWAP3 POP POP PUSH1 0x1 DUP2 ADD SWAP1 POP PUSH2 0x3FBB JUMP JUMPDEST POP POP POP POP POP POP JUMP JUMPDEST PUSH1 0x80 DUP3 ADD PUSH0 DUP3 ADD MLOAD PUSH2 0x4004 PUSH0 DUP6 ADD DUP3 PUSH2 0x3F9A JUMP JUMPDEST POP PUSH1 0x20 DUP3 ADD MLOAD PUSH2 0x4017 PUSH1 0x40 DUP6 ADD DUP3 PUSH2 0x3F9A JUMP JUMPDEST POP POP POP POP JUMP JUMPDEST PUSH0 PUSH1 0x80 DUP3 ADD SWAP1 POP PUSH2 0x4030 PUSH0 DUP4 ADD DUP5 PUSH2 0x3FF0 JUMP JUMPDEST SWAP3 SWAP2 POP POP JUMP JUMPDEST PUSH0 DUP1 PUSH0 DUP1 PUSH1 0x80 DUP6 DUP8 SUB SLT ISZERO PUSH2 0x404E JUMPI PUSH2 0x404D PUSH2 0x3708 JUMP JUMPDEST JUMPDEST PUSH0 PUSH2 0x405B DUP8 DUP3 DUP9 ADD PUSH2 0x37B6 JUMP JUMPDEST SWAP5 POP POP PUSH1 0x20 PUSH2 0x406C DUP8 DUP3 DUP9 ADD PUSH2 0x37B6 JUMP JUMPDEST SWAP4 POP POP PUSH1 0x40 PUSH2 0x407D DUP8 DUP3 DUP9 ADD PUSH2 0x37B6 JUMP JUMPDEST SWAP3 POP POP PUSH1 0x60 PUSH2 0x408E DUP8 DUP3 DUP9 ADD PUSH2 0x37B6 JUMP JUMPDEST SWAP2 POP POP SWAP3 SWAP6 SWAP2 SWAP5 POP SWAP3 POP JUMP JUMPDEST PUSH32 0x4E487B7100000000000000000000000000000000000000000000000000000000 PUSH0 MSTORE PUSH1 0x11 PUSH1 0x4 MSTORE PUSH1 0x24 PUSH0 REVERT JUMPDEST PUSH0 PUSH2 0x40D1 DUP3 PUSH2 0x36CE JUMP JUMPDEST SWAP2 POP PUSH2 0x40DC DUP4 PUSH2 0x36CE JUMP JUMPDEST SWAP3 POP DUP3 DUP3 ADD SWAP1 POP DUP1 DUP3 GT ISZERO PUSH2 0x40F4 JUMPI PUSH2 0x40F3 PUSH2 0x409A JUMP JUMPDEST JUMPDEST SWAP3 SWAP2 POP POP JUMP JUMPDEST PUSH0 DUP3 DUP3 MSTORE PUSH1 0x20 DUP3 ADD SWAP1 POP SWAP3 SWAP2 POP POP JUMP JUMPDEST PUSH32 0x74696D65206C696D697420686173206E6F742070617373656400000000000000 PUSH0 DUP3 ADD MSTORE POP JUMP JUMPDEST PUSH0 PUSH2 0x413E PUSH1 0x19 DUP4 PUSH2 0x40FA JUMP JUMPDEST SWAP2 POP PUSH2 0x4149 DUP3 PUSH2 0x410A JUMP JUMPDEST PUSH1 0x20 DUP3 ADD SWAP1 POP SWAP2 SWAP1 POP JUMP JUMPDEST PUSH0 PUSH1 0x20 DUP3 ADD SWAP1 POP DUP2 DUP2 SUB PUSH0 DUP4 ADD MSTORE PUSH2 0x416B DUP2 PUSH2 0x4132 JUMP JUMPDEST SWAP1 POP SWAP2 SWAP1 POP JUMP JUMPDEST PUSH32 0x636F6E74726163742068617320696E73756666696369656E742062616C616E63 PUSH0 DUP3 ADD MSTORE PUSH32 0x6500000000000000000000000000000000000000000000000000000000000000 PUSH1 0x20 DUP3 ADD MSTORE POP JUMP JUMPDEST PUSH0 PUSH2 0x41CC PUSH1 0x21 DUP4 PUSH2 0x40FA JUMP JUMPDEST SWAP2 POP PUSH2 0x41D7 DUP3 PUSH2 0x4172 JUMP JUMPDEST PUSH1 0x40 DUP3 ADD SWAP1 POP SWAP2 SWAP1 POP JUMP JUMPDEST PUSH0 PUSH1 0x20 DUP3 ADD SWAP1 POP DUP2 DUP2 SUB PUSH0 DUP4 ADD MSTORE PUSH2 0x41F9 DUP2 PUSH2 0x41C0 JUMP JUMPDEST SWAP1 POP SWAP2 SWAP1 POP JUMP JUMPDEST PUSH32 0x6C617374204B5A47206861736E27742070617373656400000000000000000000 PUSH0 DUP3 ADD MSTORE POP JUMP JUMPDEST PUSH0 PUSH2 0x4234 PUSH1 0x16 DUP4 PUSH2 0x40FA JUMP JUMPDEST SWAP2 POP PUSH2 0x423F DUP3 PUSH2 0x4200 JUMP JUMPDEST PUSH1 0x20 DUP3 ADD SWAP1 POP SWAP2 SWAP1 POP JUMP JUMPDEST PUSH0 PUSH1 0x20 DUP3 ADD SWAP1 POP DUP2 DUP2 SUB PUSH0 DUP4 ADD MSTORE PUSH2 0x4261 DUP2 PUSH2 0x4228 JUMP JUMPDEST SWAP1 POP SWAP2 SWAP1 POP JUMP JUMPDEST PUSH32 0x666972737420736F6E6963206861736E27742070617373656400000000000000 PUSH0 DUP3 ADD MSTORE POP JUMP JUMPDEST PUSH0 PUSH2 0x429C PUSH1 0x19 DUP4 PUSH2 0x40FA JUMP JUMPDEST SWAP2 POP PUSH2 0x42A7 DUP3 PUSH2 0x4268 JUMP JUMPDEST PUSH1 0x20 DUP3 ADD SWAP1 POP SWAP2 SWAP1 POP JUMP JUMPDEST PUSH0 PUSH1 0x20 DUP3 ADD SWAP1 POP DUP2 DUP2 SUB PUSH0 DUP4 ADD MSTORE PUSH2 0x42C9 DUP2 PUSH2 0x4290 JUMP JUMPDEST SWAP1 POP SWAP2 SWAP1 POP JUMP JUMPDEST PUSH32 0x4E487B7100000000000000000000000000000000000000000000000000000000 PUSH0 MSTORE PUSH1 0x12 PUSH1 0x4 MSTORE PUSH1 0x24 PUSH0 REVERT JUMPDEST PUSH0 PUSH2 0x4307 DUP3 PUSH2 0x36CE JUMP JUMPDEST SWAP2 POP PUSH2 0x4312 DUP4 PUSH2 0x36CE JUMP JUMPDEST SWAP3 POP DUP3 DUP3 SUB SWAP1 POP DUP2 DUP2 GT ISZERO PUSH2 0x432A JUMPI PUSH2 0x4329 PUSH2 0x409A JUMP JUMPDEST JUMPDEST SWAP3 SWAP2 POP POP JUMP JUMPDEST PUSH32 0x56657269666965722E7665726966794B5A473A205F636F6D6D69746D656E742E PUSH0 DUP3 ADD MSTORE PUSH32 0x58206973206F7574206F662072616E6765000000000000000000000000000000 PUSH1 0x20 DUP3 ADD MSTORE POP JUMP JUMPDEST PUSH0 PUSH2 0x438A PUSH1 0x31 DUP4 PUSH2 0x40FA JUMP JUMPDEST SWAP2 POP PUSH2 0x4395 DUP3 PUSH2 0x4330 JUMP JUMPDEST PUSH1 0x40 DUP3 ADD SWAP1 POP SWAP2 SWAP1 POP JUMP JUMPDEST PUSH0 PUSH1 0x20 DUP3 ADD SWAP1 POP DUP2 DUP2 SUB PUSH0 DUP4 ADD MSTORE PUSH2 0x43B7 DUP2 PUSH2 0x437E JUMP JUMPDEST SWAP1 POP SWAP2 SWAP1 POP JUMP JUMPDEST PUSH32 0x56657269666965722E7665726966794B5A473A205F636F6D6D69746D656E742E PUSH0 DUP3 ADD MSTORE PUSH32 0x59206973206F7574206F662072616E6765000000000000000000000000000000 PUSH1 0x20 DUP3 ADD MSTORE POP JUMP JUMPDEST PUSH0 PUSH2 0x4418 PUSH1 0x31 DUP4 PUSH2 0x40FA JUMP JUMPDEST SWAP2 POP PUSH2 0x4423 DUP3 PUSH2 0x43BE JUMP JUMPDEST PUSH1 0x40 DUP3 ADD SWAP1 POP SWAP2 SWAP1 POP JUMP JUMPDEST PUSH0 PUSH1 0x20 DUP3 ADD SWAP1 POP DUP2 DUP2 SUB PUSH0 DUP4 ADD MSTORE PUSH2 0x4445 DUP2 PUSH2 0x440C JUMP JUMPDEST SWAP1 POP SWAP2 SWAP1 POP JUMP JUMPDEST PUSH32 0x56657269666965722E7665726966794B5A473A205F70726F6F662E5820697320 PUSH0 DUP3 ADD MSTORE PUSH32 0x6F7574206F662072616E67650000000000000000000000000000000000000000 PUSH1 0x20 DUP3 ADD MSTORE POP JUMP JUMPDEST PUSH0 PUSH2 0x44A6 PUSH1 0x2C DUP4 PUSH2 0x40FA JUMP JUMPDEST SWAP2 POP PUSH2 0x44B1 DUP3 PUSH2 0x444C JUMP JUMPDEST PUSH1 0x40 DUP3 ADD SWAP1 POP SWAP2 SWAP1 POP JUMP JUMPDEST PUSH0 PUSH1 0x20 DUP3 ADD SWAP1 POP DUP2 DUP2 SUB PUSH0 DUP4 ADD MSTORE PUSH2 0x44D3 DUP2 PUSH2 0x449A JUMP JUMPDEST SWAP1 POP SWAP2 SWAP1 POP JUMP JUMPDEST PUSH32 0x56657269666965722E7665726966794B5A473A205F70726F6F662E5920697320 PUSH0 DUP3 ADD MSTORE PUSH32 0x6F7574206F662072616E67650000000000000000000000000000000000000000 PUSH1 0x20 DUP3 ADD MSTORE POP JUMP JUMPDEST PUSH0 PUSH2 0x4534 PUSH1 0x2C DUP4 PUSH2 0x40FA JUMP JUMPDEST SWAP2 POP PUSH2 0x453F DUP3 PUSH2 0x44DA JUMP JUMPDEST PUSH1 0x40 DUP3 ADD SWAP1 POP SWAP2 SWAP1 POP JUMP JUMPDEST PUSH0 PUSH1 0x20 DUP3 ADD SWAP1 POP DUP2 DUP2 SUB PUSH0 DUP4 ADD MSTORE PUSH2 0x4561 DUP2 PUSH2 0x4528 JUMP JUMPDEST SWAP1 POP SWAP2 SWAP1 POP JUMP JUMPDEST PUSH32 0x4E487B7100000000000000000000000000000000000000000000000000000000 PUSH0 MSTORE PUSH1 0x32 PUSH1 0x4 MSTORE PUSH1 0x24 PUSH0 REVERT JUMPDEST PUSH32 0x56657269666965722E7665726966794B5A473A20685F6E6567617465616C7068 PUSH0 DUP3 ADD MSTORE PUSH32 0x617A2E585B305D206973206F7574206F662072616E6765000000000000000000 PUSH1 0x20 DUP3 ADD MSTORE POP JUMP JUMPDEST PUSH0 PUSH2 0x45EF PUSH1 0x37 DUP4 PUSH2 0x40FA JUMP JUMPDEST SWAP2 POP PUSH2 0x45FA DUP3 PUSH2 0x4595 JUMP JUMPDEST PUSH1 0x40 DUP3 ADD SWAP1 POP SWAP2 SWAP1 POP JUMP JUMPDEST PUSH0 PUSH1 0x20 DUP3 ADD SWAP1 POP DUP2 DUP2 SUB PUSH0 DUP4 ADD MSTORE PUSH2 0x461C DUP2 PUSH2 0x45E3 JUMP JUMPDEST SWAP1 POP SWAP2 SWAP1 POP JUMP JUMPDEST PUSH32 0x56657269666965722E7665726966794B5A473A20685F6E6567617465616C7068 PUSH0 DUP3 ADD MSTORE PUSH32 0x617A2E595B315D206973206F7574206F662072616E6765000000000000000000 PUSH1 0x20 DUP3 ADD MSTORE POP JUMP JUMPDEST PUSH0 PUSH2 0x467D PUSH1 0x37 DUP4 PUSH2 0x40FA JUMP JUMPDEST SWAP2 POP PUSH2 0x4688 DUP3 PUSH2 0x4623 JUMP JUMPDEST PUSH1 0x40 DUP3 ADD SWAP1 POP SWAP2 SWAP1 POP JUMP JUMPDEST PUSH0 PUSH1 0x20 DUP3 ADD SWAP1 POP DUP2 DUP2 SUB PUSH0 DUP4 ADD MSTORE PUSH2 0x46AA DUP2 PUSH2 0x4671 JUMP JUMPDEST SWAP1 POP SWAP2 SWAP1 POP JUMP JUMPDEST PUSH32 0x56657269666965722E7665726966794B5A473A20675F6E6167617465312F7A2E PUSH0 DUP3 ADD MSTORE PUSH32 0x58206973206F7574206F662072616E6765000000000000000000000000000000 PUSH1 0x20 DUP3 ADD MSTORE POP JUMP JUMPDEST PUSH0 PUSH2 0x470B PUSH1 0x31 DUP4 PUSH2 0x40FA JUMP JUMPDEST SWAP2 POP PUSH2 0x4716 DUP3 PUSH2 0x46B1 JUMP JUMPDEST PUSH1 0x40 DUP3 ADD SWAP1 POP SWAP2 SWAP1 POP JUMP JUMPDEST PUSH0 PUSH1 0x20 DUP3 ADD SWAP1 POP DUP2 DUP2 SUB PUSH0 DUP4 ADD MSTORE PUSH2 0x4738 DUP2 PUSH2 0x46FF JUMP JUMPDEST SWAP1 POP SWAP2 SWAP1 POP JUMP JUMPDEST PUSH32 0x56657269666965722E7665726966794B5A473A20675F6E6167617465312F7A2E PUSH0 DUP3 ADD MSTORE PUSH32 0x59206973206F7574206F662072616E6765000000000000000000000000000000 PUSH1 0x20 DUP3 ADD MSTORE POP JUMP JUMPDEST PUSH0 PUSH2 0x4799 PUSH1 0x31 DUP4 PUSH2 0x40FA JUMP JUMPDEST SWAP2 POP PUSH2 0x47A4 DUP3 PUSH2 0x473F JUMP JUMPDEST PUSH1 0x40 DUP3 ADD SWAP1 POP SWAP2 SWAP1 POP JUMP JUMPDEST PUSH0 PUSH1 0x20 DUP3 ADD SWAP1 POP DUP2 DUP2 SUB PUSH0 DUP4 ADD MSTORE PUSH2 0x47C6 DUP2 PUSH2 0x478D JUMP JUMPDEST SWAP1 POP SWAP2 SWAP1 POP JUMP JUMPDEST PUSH32 0x56657269666965722E7665726966794B5A473A205F76616C7565206973206F75 PUSH0 DUP3 ADD MSTORE PUSH32 0x74206F662072616E676500000000000000000000000000000000000000000000 PUSH1 0x20 DUP3 ADD MSTORE POP JUMP JUMPDEST PUSH0 PUSH2 0x4827 PUSH1 0x2A DUP4 PUSH2 0x40FA JUMP JUMPDEST SWAP2 POP PUSH2 0x4832 DUP3 PUSH2 0x47CD JUMP JUMPDEST PUSH1 0x40 DUP3 ADD SWAP1 POP SWAP2 SWAP1 POP JUMP JUMPDEST PUSH0 PUSH1 0x20 DUP3 ADD SWAP1 POP DUP2 DUP2 SUB PUSH0 DUP4 ADD MSTORE PUSH2 0x4854 DUP2 PUSH2 0x481B JUMP JUMPDEST SWAP1 POP SWAP2 SWAP1 POP JUMP JUMPDEST PUSH32 0x56657269666965722E7665726966794B5A473A205F696E646578206973206F75 PUSH0 DUP3 ADD MSTORE PUSH32 0x74206F662072616E676500000000000000000000000000000000000000000000 PUSH1 0x20 DUP3 ADD MSTORE POP JUMP JUMPDEST PUSH0 PUSH2 0x48B5 PUSH1 0x2A DUP4 PUSH2 0x40FA JUMP JUMPDEST SWAP2 POP PUSH2 0x48C0 DUP3 PUSH2 0x485B JUMP JUMPDEST PUSH1 0x40 DUP3 ADD SWAP1 POP SWAP2 SWAP1 POP JUMP JUMPDEST PUSH0 PUSH1 0x20 DUP3 ADD SWAP1 POP DUP2 DUP2 SUB PUSH0 DUP4 ADD MSTORE PUSH2 0x48E2 DUP2 PUSH2 0x48A9 JUMP JUMPDEST SWAP1 POP SWAP2 SWAP1 POP JUMP JUMPDEST PUSH0 PUSH2 0x48F3 DUP3 PUSH2 0x36CE JUMP JUMPDEST SWAP2 POP PUSH2 0x48FE DUP4 PUSH2 0x36CE JUMP JUMPDEST SWAP3 POP DUP3 PUSH2 0x490E JUMPI PUSH2 0x490D PUSH2 0x42D0 JUMP JUMPDEST JUMPDEST DUP3 DUP3 MOD SWAP1 POP SWAP3 SWAP2 POP POP JUMP JUMPDEST PUSH0 PUSH2 0x4923 DUP3 PUSH2 0x36CE JUMP JUMPDEST SWAP2 POP PUSH2 0x492E DUP4 PUSH2 0x36CE JUMP JUMPDEST SWAP3 POP DUP3 PUSH2 0x493E JUMPI PUSH2 0x493D PUSH2 0x42D0 JUMP JUMPDEST JUMPDEST DUP3 DUP3 DIV SWAP1 POP SWAP3 SWAP2 POP POP JUMP JUMPDEST PUSH0 PUSH1 0xFF DUP3 AND SWAP1 POP SWAP2 SWAP1 POP JUMP JUMPDEST PUSH0 PUSH2 0x495F DUP3 PUSH2 0x4949 JUMP JUMPDEST SWAP2 POP PUSH2 0x496A DUP4 PUSH2 0x4949 JUMP JUMPDEST SWAP3 POP DUP3 DUP3 ADD SWAP1 POP PUSH1 0xFF DUP2 GT ISZERO PUSH2 0x4983 JUMPI PUSH2 0x4982 PUSH2 0x409A JUMP JUMPDEST JUMPDEST SWAP3 SWAP2 POP POP JUMP JUMPDEST PUSH2 0x4992 DUP2 PUSH2 0x3817 JUMP JUMPDEST DUP3 MSTORE POP POP JUMP JUMPDEST PUSH2 0x49A1 DUP2 PUSH2 0x4949 JUMP JUMPDEST DUP3 MSTORE POP POP JUMP JUMPDEST PUSH0 PUSH1 0x80 DUP3 ADD SWAP1 POP PUSH2 0x49BA PUSH0 DUP4 ADD DUP8 PUSH2 0x4989 JUMP JUMPDEST PUSH2 0x49C7 PUSH1 0x20 DUP4 ADD DUP7 PUSH2 0x4998 JUMP JUMPDEST PUSH2 0x49D4 PUSH1 0x40 DUP4 ADD DUP6 PUSH2 0x4989 JUMP JUMPDEST PUSH2 0x49E1 PUSH1 0x60 DUP4 ADD DUP5 PUSH2 0x4989 JUMP JUMPDEST SWAP6 SWAP5 POP POP POP POP POP JUMP JUMPDEST PUSH32 0x70616972696E672D6D756C2D6661696C65640000000000000000000000000000 PUSH0 DUP3 ADD MSTORE POP JUMP JUMPDEST PUSH0 PUSH2 0x4A1E PUSH1 0x12 DUP4 PUSH2 0x40FA JUMP JUMPDEST SWAP2 POP PUSH2 0x4A29 DUP3 PUSH2 0x49EA JUMP JUMPDEST PUSH1 0x20 DUP3 ADD SWAP1 POP SWAP2 SWAP1 POP JUMP JUMPDEST PUSH0 PUSH1 0x20 DUP3 ADD SWAP1 POP DUP2 DUP2 SUB PUSH0 DUP4 ADD MSTORE PUSH2 0x4A4B DUP2 PUSH2 0x4A12 JUMP JUMPDEST SWAP1 POP SWAP2 SWAP1 POP JUMP JUMPDEST PUSH32 0x70616972696E672D6164642D6661696C65640000000000000000000000000000 PUSH0 DUP3 ADD MSTORE POP JUMP JUMPDEST PUSH0 PUSH2 0x4A86 PUSH1 0x12 DUP4 PUSH2 0x40FA JUMP JUMPDEST SWAP2 POP PUSH2 0x4A91 DUP3 PUSH2 0x4A52 JUMP JUMPDEST PUSH1 0x20 DUP3 ADD SWAP1 POP SWAP2 SWAP1 POP JUMP JUMPDEST PUSH0 PUSH1 0x20 DUP3 ADD SWAP1 POP DUP2 DUP2 SUB PUSH0 DUP4 ADD MSTORE PUSH2 0x4AB3 DUP2 PUSH2 0x4A7A JUMP JUMPDEST SWAP1 POP SWAP2 SWAP1 POP JUMP JUMPDEST PUSH0 PUSH2 0x4AC4 DUP3 PUSH2 0x36CE JUMP JUMPDEST SWAP2 POP PUSH2 0x4ACF DUP4 PUSH2 0x36CE JUMP JUMPDEST SWAP3 POP DUP3 DUP3 MUL PUSH2 0x4ADD DUP2 PUSH2 0x36CE JUMP JUMPDEST SWAP2 POP DUP3 DUP3 DIV DUP5 EQ DUP4 ISZERO OR PUSH2 0x4AF4 JUMPI PUSH2 0x4AF3 PUSH2 0x409A JUMP JUMPDEST JUMPDEST POP SWAP3 SWAP2 POP POP JUMP JUMPDEST PUSH32 0x70616972696E672D6F70636F64652D6661696C65640000000000000000000000 PUSH0 DUP3 ADD MSTORE POP JUMP JUMPDEST PUSH0 PUSH2 0x4B2F PUSH1 0x15 DUP4 PUSH2 0x40FA JUMP JUMPDEST SWAP2 POP PUSH2 0x4B3A DUP3 PUSH2 0x4AFB JUMP JUMPDEST PUSH1 0x20 DUP3 ADD SWAP1 POP SWAP2 SWAP1 POP JUMP JUMPDEST PUSH0 PUSH1 0x20 DUP3 ADD SWAP1 POP DUP2 DUP2 SUB PUSH0 DUP4 ADD MSTORE PUSH2 0x4B5C DUP2 PUSH2 0x4B23 JUMP JUMPDEST SWAP1 POP SWAP2 SWAP1 POP JUMP JUMPDEST PUSH0 DUP2 MLOAD SWAP1 POP SWAP2 SWAP1 POP JUMP JUMPDEST PUSH0 DUP2 SWAP1 POP SWAP3 SWAP2 POP POP JUMP JUMPDEST PUSH0 JUMPDEST DUP4 DUP2 LT ISZERO PUSH2 0x4B94 JUMPI DUP1 DUP3 ADD MLOAD DUP2 DUP5 ADD MSTORE PUSH1 0x20 DUP2 ADD SWAP1 POP PUSH2 0x4B79 JUMP JUMPDEST PUSH0 DUP5 DUP5 ADD MSTORE POP POP POP POP JUMP JUMPDEST PUSH0 PUSH2 0x4BA9 DUP3 PUSH2 0x4B63 JUMP JUMPDEST PUSH2 0x4BB3 DUP2 DUP6 PUSH2 0x4B6D JUMP JUMPDEST SWAP4 POP PUSH2 0x4BC3 DUP2 DUP6 PUSH1 0x20 DUP7 ADD PUSH2 0x4B77 JUMP JUMPDEST DUP1 DUP5 ADD SWAP2 POP POP SWAP3 SWAP2 POP POP JUMP JUMPDEST PUSH0 PUSH2 0x4BDA DUP3 DUP5 PUSH2 0x4B9F JUMP JUMPDEST SWAP2 POP DUP2 SWAP1 POP SWAP3 SWAP2 POP POP JUMP JUMPDEST PUSH32 0x19457468657265756D205369676E6564204D6573736167653A0A333200000000 PUSH0 DUP3 ADD MSTORE POP JUMP JUMPDEST PUSH0 PUSH2 0x4C19 PUSH1 0x1C DUP4 PUSH2 0x4B6D JUMP JUMPDEST SWAP2 POP PUSH2 0x4C24 DUP3 PUSH2 0x4BE5 JUMP JUMPDEST PUSH1 0x1C DUP3 ADD SWAP1 POP SWAP2 SWAP1 POP JUMP JUMPDEST PUSH0 DUP2 SWAP1 POP SWAP2 SWAP1 POP JUMP JUMPDEST PUSH2 0x4C49 PUSH2 0x4C44 DUP3 PUSH2 0x3817 JUMP JUMPDEST PUSH2 0x4C2F JUMP JUMPDEST DUP3 MSTORE POP POP JUMP JUMPDEST PUSH0 PUSH2 0x4C59 DUP3 PUSH2 0x4C0D JUMP JUMPDEST SWAP2 POP PUSH2 0x4C65 DUP3 DUP5 PUSH2 0x4C38 JUMP JUMPDEST PUSH1 0x20 DUP3 ADD SWAP2 POP DUP2 SWAP1 POP SWAP3 SWAP2 POP POP JUMP INVALID ORIGIN ADDRESS CODECOPY ADDRESS ADDRESS CALLVALUE ORIGIN CODECOPY CODESIZE CODECOPY CODECOPY ORIGIN CODECOPY BALANCE ADDRESS ADDRESS CODECOPY ADDRESS CALLDATACOPY CALLER ORIGIN CODECOPY CODECOPY ORIGIN CODESIZE CODECOPY CALLVALUE CALLDATASIZE CODECOPY CALLDATASIZE CALLDATASIZE ADDRESS BALANCE CALLVALUE CODECOPY CALLDATACOPY BALANCE CALLDATASIZE CALLDATACOPY CODESIZE CALLDATALOAD CALLDATALOAD CODECOPY CALLDATASIZE ORIGIN CALLDATALOAD BALANCE CALLVALUE CODECOPY BALANCE CALLER ADDRESS ADDRESS CALLDATASIZE CODECOPY ORIGIN ADDRESS CALLER CALLDATALOAD CALLDATASIZE CODESIZE BALANCE CALLVALUE CODECOPY ORIGIN ADDRESS BALANCE CALLDATASIZE CODECOPY CALLER CODECOPY BALANCE CALLDATACOPY CODECOPY ORIGIN CALLDATALOAD CALLDATACOPY 0x2C KECCAK256 CALLVALUE CALLER CALLER CALLDATASIZE CODECOPY BALANCE ADDRESS ORIGIN CALLER CALLDATALOAD CALLDATASIZE CODESIZE CALLDATASIZE CODECOPY CALLDATASIZE BALANCE CALLDATALOAD CALLER CODESIZE ORIGIN CODESIZE CALLDATALOAD CODECOPY CODECOPY CALLDATASIZE CALLDATALOAD ORIGIN CALLDATACOPY ORIGIN CALLDATACOPY BALANCE CALLDATACOPY CALLDATACOPY CALLVALUE CODECOPY CALLER CALLDATASIZE CALLDATACOPY BALANCE CODECOPY ADDRESS CALLDATALOAD CODESIZE CODESIZE CALLER CALLVALUE CALLDATALOAD CALLVALUE CODECOPY CALLDATALOAD CALLER CODESIZE CALLDATASIZE CODESIZE CALLDATASIZE ADDRESS CALLVALUE ADDRESS CALLDATACOPY CALLVALUE CODESIZE CALLDATACOPY BALANCE CALLDATALOAD ORIGIN CODESIZE CALLER CODESIZE BALANCE ORIGIN ORIGIN ADDRESS ADDRESS CODECOPY CALLDATACOPY NOT 0xEC 0x5D 0xC5 0xAA SDIV LOG2 KECCAK256 0xCD 0x21 EXP GT CALLER MSTORE MSIZE PUSH15 0xBF80D06A6F776B8E0C656E50A5C556 PUSH32 0x1E8A7F23FB27F77EA5B5D42F0E2384FACDEBEBD85F026E2A73E94D4690A40A68 ADD LOG2 PUSH5 0x6970667358 0x22 SLT KECCAK256 PUSH13 0x2815DEE87EA2BA4B9E72DC7109 EXTCODECOPY 0xFB 0xEE PUSH5 0x14EA8DD921 MULMOD 0xAA CALLCODE 0xD9 CALL SLT 0xD ORIGIN MSTORE PUSH5 0x736F6C6343 STOP ADDMOD AND STOP CALLER "
		},
		"gasEstimates": {
			"creation": {
				"codeDepositCost": "3969000",
				"executionCost": "infinite",
				"totalCost": "infinite"
			},
			"external": {
				"hznegateSend(uint256,uint256,uint256,uint256)": "infinite",
				"last()": "2492",
				"lastPointSend(uint256)": "22537",
				"lastSendEther()": "2426",
				"mulScalar2((uint256[2],uint256[2]),uint256)": "infinite",
				"payStake()": "infinite",
				"stakeAmount()": "2513",
				"verify((uint256,uint256),(uint256,uint256),uint256,uint256)": "infinite",
				"verifyImpl()": "infinite",
				"verifyLastPoint(((uint256,uint256),(uint256,uint256),(uint256[2],uint256[2]),(uint256,uint256),uint256,(uint256,uint256),(uint256[2],uint256[2]),uint256,uint256))": "infinite",
				"verifyLastPointImpl()": "infinite",
				"verifySonic(((uint256,uint256),(uint256,uint256),(uint256,uint256),(uint256,uint256),(uint256,uint256),(uint256,uint256),(uint256,uint256),(uint256,uint256),(uint256,uint256),uint256,uint256,uint256,uint256,uint256,uint256,uint256,uint256,(uint256,uint256),(uint256,uint256),(uint256,uint256),(uint256,uint256),(uint256,uint256),(uint256,uint256),(uint256,uint256),bytes32,bytes,address,uint256))": "infinite",
				"verifySonicImpl()": "infinite"
			},
			"internal": {
				"G1Gen()": "infinite",
				"add2(struct Pairing.G2Point memory,struct Pairing.G2Point memory)": "infinite",
				"addmod2(uint256[2] memory,uint256[2] memory)": "infinite",
				"double(struct Pairing.G2Point memory)": "infinite",
				"ethMessageHash(string memory)": "infinite",
				"expMod(uint256,uint256,uint256)": "infinite",
				"invmod(uint256)": "infinite",
				"invmod2(uint256[2] memory)": "infinite",
				"mulScalar(struct Pairing.G1Point memory,uint256)": "infinite",
				"mulmod2(uint256[2] memory,uint256[2] memory)": "infinite",
				"negate(struct Pairing.G1Point memory)": "infinite",
				"pairing_3point(struct Pairing.G1Point memory,struct Pairing.G2Point memory,struct Pairing.G1Point memory,struct Pairing.G2Point memory,struct Pairing.G1Point memory,struct Pairing.G2Point memory)": "infinite",
				"plus(struct Pairing.G1Point memory,struct Pairing.G1Point memory)": "infinite",
				"recover(bytes32,bytes memory)": "infinite",
				"submod(uint256,uint256)": "infinite",
				"submod2(uint256[2] memory,uint256[2] memory)": "infinite"
			}
		},
		"methodIdentifiers": {
			"hznegateSend(uint256,uint256,uint256,uint256)": "c557b910",
			"last()": "47799da8",
			"lastPointSend(uint256)": "ad115db4",
			"lastSendEther()": "1b0bf28f",
			"mulScalar2((uint256[2],uint256[2]),uint256)": "be603b1a",
			"payStake()": "1f6ff3ec",
			"stakeAmount()": "60c7dc47",
			"verify((uint256,uint256),(uint256,uint256),uint256,uint256)": "903ae890",
			"verifyImpl()": "3c979e76",
			"verifyLastPoint(((uint256,uint256),(uint256,uint256),(uint256[2],uint256[2]),(uint256,uint256),uint256,(uint256,uint256),(uint256[2],uint256[2]),uint256,uint256))": "86023cbc",
			"verifyLastPointImpl()": "95be59c3",
			"verifySonic(((uint256,uint256),(uint256,uint256),(uint256,uint256),(uint256,uint256),(uint256,uint256),(uint256,uint256),(uint256,uint256),(uint256,uint256),(uint256,uint256),uint256,uint256,uint256,uint256,uint256,uint256,uint256,uint256,(uint256,uint256),(uint256,uint256),(uint256,uint256),(uint256,uint256),(uint256,uint256),(uint256,uint256),(uint256,uint256),bytes32,bytes,address,uint256))": "6a7848b5",
			"verifySonicImpl()": "e99fa949"
		}
	},
	"abi": [
		{
			"anonymous": false,
			"inputs": [
				{
					"indexed": false,
					"internalType": "bool",
					"name": "result",
					"type": "bool"
				}
			],
			"name": "verifyResult",
			"type": "event"
		},
		{
			"inputs": [
				{
					"internalType": "uint256",
					"name": "a",
					"type": "uint256"
				},
				{
					"internalType": "uint256",
					"name": "b",
					"type": "uint256"
				},
				{
					"internalType": "uint256",
					"name": "c",
					"type": "uint256"
				},
				{
					"internalType": "uint256",
					"name": "d2",
					"type": "uint256"
				}
			],
			"name": "hznegateSend",
			"outputs": [],
			"stateMutability": "nonpayable",
			"type": "function"
		},
		{
			"inputs": [],
			"name": "last",
			"outputs": [
				{
					"internalType": "uint256",
					"name": "",
					"type": "uint256"
				}
			],
			"stateMutability": "view",
			"type": "function"
		},
		{
			"inputs": [
				{
					"internalType": "uint256",
					"name": "a",
					"type": "uint256"
				}
			],
			"name": "lastPointSend",
			"outputs": [],
			"stateMutability": "nonpayable",
			"type": "function"
		},
		{
			"inputs": [],
			"name": "lastSendEther",
			"outputs": [
				{
					"internalType": "uint256",
					"name": "",
					"type": "uint256"
				}
			],
			"stateMutability": "view",
			"type": "function"
		},
		{
			"inputs": [
				{
					"components": [
						{
							"internalType": "uint256[2]",
							"name": "X",
							"type": "uint256[2]"
						},
						{
							"internalType": "uint256[2]",
							"name": "Y",
							"type": "uint256[2]"
						}
					],
					"internalType": "struct Pairing.G2Point",
					"name": "p",
					"type": "tuple"
				},
				{
					"internalType": "uint256",
					"name": "s",
					"type": "uint256"
				}
			],
			"name": "mulScalar2",
			"outputs": [
				{
					"components": [
						{
							"internalType": "uint256[2]",
							"name": "X",
							"type": "uint256[2]"
						},
						{
							"internalType": "uint256[2]",
							"name": "Y",
							"type": "uint256[2]"
						}
					],
					"internalType": "struct Pairing.G2Point",
					"name": "",
					"type": "tuple"
				}
			],
			"stateMutability": "view",
			"type": "function"
		},
		{
			"inputs": [],
			"name": "payStake",
			"outputs": [],
			"stateMutability": "nonpayable",
			"type": "function"
		},
		{
			"inputs": [],
			"name": "stakeAmount",
			"outputs": [
				{
					"internalType": "uint256",
					"name": "",
					"type": "uint256"
				}
			],
			"stateMutability": "view",
			"type": "function"
		},
		{
			"inputs": [
				{
					"components": [
						{
							"internalType": "uint256",
							"name": "X",
							"type": "uint256"
						},
						{
							"internalType": "uint256",
							"name": "Y",
							"type": "uint256"
						}
					],
					"internalType": "struct Pairing.G1Point",
					"name": "_commitment",
					"type": "tuple"
				},
				{
					"components": [
						{
							"internalType": "uint256",
							"name": "X",
							"type": "uint256"
						},
						{
							"internalType": "uint256",
							"name": "Y",
							"type": "uint256"
						}
					],
					"internalType": "struct Pairing.G1Point",
					"name": "_proof",
					"type": "tuple"
				},
				{
					"internalType": "uint256",
					"name": "_index",
					"type": "uint256"
				},
				{
					"internalType": "uint256",
					"name": "_value",
					"type": "uint256"
				}
			],
			"name": "verify",
			"outputs": [
				{
					"internalType": "bool",
					"name": "",
					"type": "bool"
				}
			],
			"stateMutability": "view",
			"type": "function"
		},
		{
			"inputs": [],
			"name": "verifyImpl",
			"outputs": [],
			"stateMutability": "view",
			"type": "function"
		},
		{
			"inputs": [
				{
					"components": [
						{
							"components": [
								{
									"internalType": "uint256",
									"name": "X",
									"type": "uint256"
								},
								{
									"internalType": "uint256",
									"name": "Y",
									"type": "uint256"
								}
							],
							"internalType": "struct Pairing.G1Point",
							"name": "_commitment",
							"type": "tuple"
						},
						{
							"components": [
								{
									"internalType": "uint256",
									"name": "X",
									"type": "uint256"
								},
								{
									"internalType": "uint256",
									"name": "Y",
									"type": "uint256"
								}
							],
							"internalType": "struct Pairing.G1Point",
							"name": "_proof",
							"type": "tuple"
						},
						{
							"components": [
								{
									"internalType": "uint256[2]",
									"name": "X",
									"type": "uint256[2]"
								},
								{
									"internalType": "uint256[2]",
									"name": "Y",
									"type": "uint256[2]"
								}
							],
							"internalType": "struct Pairing.G2Point",
							"name": "h_negatealphaz",
							"type": "tuple"
						},
						{
							"components": [
								{
									"internalType": "uint256",
									"name": "X",
									"type": "uint256"
								},
								{
									"internalType": "uint256",
									"name": "Y",
									"type": "uint256"
								}
							],
							"internalType": "struct Pairing.G1Point",
							"name": "_index",
							"type": "tuple"
						},
						{
							"internalType": "uint256",
							"name": "_value",
							"type": "uint256"
						},
						{
							"components": [
								{
									"internalType": "uint256",
									"name": "X",
									"type": "uint256"
								},
								{
									"internalType": "uint256",
									"name": "Y",
									"type": "uint256"
								}
							],
							"internalType": "struct Pairing.G1Point",
							"name": "_index_apostrophe",
							"type": "tuple"
						},
						{
							"components": [
								{
									"internalType": "uint256[2]",
									"name": "X",
									"type": "uint256[2]"
								},
								{
									"internalType": "uint256[2]",
									"name": "Y",
									"type": "uint256[2]"
								}
							],
							"internalType": "struct Pairing.G2Point",
							"name": "h_alpharapostrophe",
							"type": "tuple"
						},
						{
							"internalType": "uint256",
							"name": "zx",
							"type": "uint256"
						},
						{
							"internalType": "uint256",
							"name": "zr",
							"type": "uint256"
						}
					],
					"internalType": "struct Pairing.LastPointCommitments",
					"name": "cm",
					"type": "tuple"
				}
			],
			"name": "verifyLastPoint",
			"outputs": [
				{
					"internalType": "bool",
					"name": "",
					"type": "bool"
				}
			],
			"stateMutability": "nonpayable",
			"type": "function"
		},
		{
			"inputs": [],
			"name": "verifyLastPointImpl",
			"outputs": [],
			"stateMutability": "nonpayable",
			"type": "function"
		},
		{
			"inputs": [
				{
					"components": [
						{
							"components": [
								{
									"internalType": "uint256",
									"name": "X",
									"type": "uint256"
								},
								{
									"internalType": "uint256",
									"name": "Y",
									"type": "uint256"
								}
							],
							"internalType": "struct Pairing.G1Point",
							"name": "pi_D",
							"type": "tuple"
						},
						{
							"components": [
								{
									"internalType": "uint256",
									"name": "X",
									"type": "uint256"
								},
								{
									"internalType": "uint256",
									"name": "Y",
									"type": "uint256"
								}
							],
							"internalType": "struct Pairing.G1Point",
							"name": "pi_R_tilde",
							"type": "tuple"
						},
						{
							"components": [
								{
									"internalType": "uint256",
									"name": "X",
									"type": "uint256"
								},
								{
									"internalType": "uint256",
									"name": "Y",
									"type": "uint256"
								}
							],
							"internalType": "struct Pairing.G1Point",
							"name": "pi_R1",
							"type": "tuple"
						},
						{
							"components": [
								{
									"internalType": "uint256",
									"name": "X",
									"type": "uint256"
								},
								{
									"internalType": "uint256",
									"name": "Y",
									"type": "uint256"
								}
							],
							"internalType": "struct Pairing.G1Point",
							"name": "pi_R2",
							"type": "tuple"
						},
						{
							"components": [
								{
									"internalType": "uint256",
									"name": "X",
									"type": "uint256"
								},
								{
									"internalType": "uint256",
									"name": "Y",
									"type": "uint256"
								}
							],
							"internalType": "struct Pairing.G1Point",
							"name": "pi_T",
							"type": "tuple"
						},
						{
							"components": [
								{
									"internalType": "uint256",
									"name": "X",
									"type": "uint256"
								},
								{
									"internalType": "uint256",
									"name": "Y",
									"type": "uint256"
								}
							],
							"internalType": "struct Pairing.G1Point",
							"name": "pi_K",
							"type": "tuple"
						},
						{
							"components": [
								{
									"internalType": "uint256",
									"name": "X",
									"type": "uint256"
								},
								{
									"internalType": "uint256",
									"name": "Y",
									"type": "uint256"
								}
							],
							"internalType": "struct Pairing.G1Point",
							"name": "pi_S_x1",
							"type": "tuple"
						},
						{
							"components": [
								{
									"internalType": "uint256",
									"name": "X",
									"type": "uint256"
								},
								{
									"internalType": "uint256",
									"name": "Y",
									"type": "uint256"
								}
							],
							"internalType": "struct Pairing.G1Point",
							"name": "pi_S_x2",
							"type": "tuple"
						},
						{
							"components": [
								{
									"internalType": "uint256",
									"name": "X",
									"type": "uint256"
								},
								{
									"internalType": "uint256",
									"name": "Y",
									"type": "uint256"
								}
							],
							"internalType": "struct Pairing.G1Point",
							"name": "pi_S_y",
							"type": "tuple"
						},
						{
							"internalType": "uint256",
							"name": "r_1",
							"type": "uint256"
						},
						{
							"internalType": "uint256",
							"name": "r_tilde",
							"type": "uint256"
						},
						{
							"internalType": "uint256",
							"name": "t",
							"type": "uint256"
						},
						{
							"internalType": "uint256",
							"name": "k",
							"type": "uint256"
						},
						{
							"internalType": "uint256",
							"name": "s_tilde",
							"type": "uint256"
						},
						{
							"internalType": "uint256",
							"name": "r_2",
							"type": "uint256"
						},
						{
							"internalType": "uint256",
							"name": "s_1_tilde",
							"type": "uint256"
						},
						{
							"internalType": "uint256",
							"name": "s_2_tilde",
							"type": "uint256"
						},
						{
							"components": [
								{
									"internalType": "uint256",
									"name": "X",
									"type": "uint256"
								},
								{
									"internalType": "uint256",
									"name": "Y",
									"type": "uint256"
								}
							],
							"internalType": "struct Pairing.G1Point",
							"name": "D",
							"type": "tuple"
						},
						{
							"components": [
								{
									"internalType": "uint256",
									"name": "X",
									"type": "uint256"
								},
								{
									"internalType": "uint256",
									"name": "Y",
									"type": "uint256"
								}
							],
							"internalType": "struct Pairing.G1Point",
							"name": "R_tilde",
							"type": "tuple"
						},
						{
							"components": [
								{
									"internalType": "uint256",
									"name": "X",
									"type": "uint256"
								},
								{
									"internalType": "uint256",
									"name": "Y",
									"type": "uint256"
								}
							],
							"internalType": "struct Pairing.G1Point",
							"name": "R",
							"type": "tuple"
						},
						{
							"components": [
								{
									"internalType": "uint256",
									"name": "X",
									"type": "uint256"
								},
								{
									"internalType": "uint256",
									"name": "Y",
									"type": "uint256"
								}
							],
							"internalType": "struct Pairing.G1Point",
							"name": "T",
							"type": "tuple"
						},
						{
							"components": [
								{
									"internalType": "uint256",
									"name": "X",
									"type": "uint256"
								},
								{
									"internalType": "uint256",
									"name": "Y",
									"type": "uint256"
								}
							],
							"internalType": "struct Pairing.G1Point",
							"name": "K",
							"type": "tuple"
						},
						{
							"components": [
								{
									"internalType": "uint256",
									"name": "X",
									"type": "uint256"
								},
								{
									"internalType": "uint256",
									"name": "Y",
									"type": "uint256"
								}
							],
							"internalType": "struct Pairing.G1Point",
							"name": "S_x",
							"type": "tuple"
						},
						{
							"components": [
								{
									"internalType": "uint256",
									"name": "X",
									"type": "uint256"
								},
								{
									"internalType": "uint256",
									"name": "Y",
									"type": "uint256"
								}
							],
							"internalType": "struct Pairing.G1Point",
							"name": "S_y",
							"type": "tuple"
						},
						{
							"internalType": "bytes32",
							"name": "message",
							"type": "bytes32"
						},
						{
							"internalType": "bytes",
							"name": "sig",
							"type": "bytes"
						},
						{
							"internalType": "address",
							"name": "addr",
							"type": "address"
						},
						{
							"internalType": "uint256",
							"name": "d",
							"type": "uint256"
						}
					],
					"internalType": "struct Pairing.UserCommitments",
					"name": "cm",
					"type": "tuple"
				}
			],
			"name": "verifySonic",
			"outputs": [
				{
					"internalType": "bool",
					"name": "",
					"type": "bool"
				}
			],
			"stateMutability": "nonpayable",
			"type": "function"
		},
		{
			"inputs": [],
			"name": "verifySonicImpl",
			"outputs": [],
			"stateMutability": "nonpayable",
			"type": "function"
		},
		{
			"stateMutability": "payable",
			"type": "receive"
		}
	]
}