{
	"data": {
		"bytecode": {
			"linkReferences": {},
			"object": "6080604052604051806040016040528060405180604001604052807f198e9393920d483a7260bfb731fb5d25f1aa493335a9e71297e485b7aef312c281526020017f1800deef121f1e76426a00665e5c4479674322d4f75edadd46debd5cd992f6ed815250815260200160405180604001604052807f090689d0585ff075ec9e99ad690c3395bc4b313370b38ef355acdadcd122975b81526020017f12c85ea5db8c6deb4aab71808dcb408fe3d1e7690c43d37b4ce6cc0166fa7daa8152508152505f80820151815f01906002620000d992919062000796565b50602082015181600201906002620000f392919062000796565b505050604051806040016040528060405180604001604052807f198e9393920d483a7260bfb731fb5d25f1aa493335a9e71297e485b7aef312c281526020017f1800deef121f1e76426a00665e5c4479674322d4f75edadd46debd5cd992f6ed815250815260200160405180604001604052807f090689d0585ff075ec9e99ad690c3395bc4b313370b38ef355acdadcd122975b81526020017f12c85ea5db8c6deb4aab71808dcb408fe3d1e7690c43d37b4ce6cc0166fa7daa81525081525060045f820151815f01906002620001cc92919062000796565b50602082015181600201906002620001e692919062000796565b505050604051806040016040528060405180604001604052807f198e9393920d483a7260bfb731fb5d25f1aa493335a9e71297e485b7aef312c281526020017f1800deef121f1e76426a00665e5c4479674322d4f75edadd46debd5cd992f6ed815250815260200160405180604001604052807f090689d0585ff075ec9e99ad690c3395bc4b313370b38ef355acdadcd122975b81526020017f12c85ea5db8c6deb4aab71808dcb408fe3d1e7690c43d37b4ce6cc0166fa7daa81525081525060085f820151815f01906002620002bf92919062000796565b50602082015181600201906002620002d992919062000796565b505050604051806040016040528060405180604001604052807f198e9393920d483a7260bfb731fb5d25f1aa493335a9e71297e485b7aef312c281526020017f1800deef121f1e76426a00665e5c4479674322d4f75edadd46debd5cd992f6ed815250815260200160405180604001604052807f090689d0585ff075ec9e99ad690c3395bc4b313370b38ef355acdadcd122975b81526020017f12c85ea5db8c6deb4aab71808dcb408fe3d1e7690c43d37b4ce6cc0166fa7daa815250815250600c5f820151815f01906002620003b292919062000796565b50602082015181600201906002620003cc92919062000796565b5050507f30644e72e131a029b85045b68181585d2833e84879b9709143e1f593f000000180620004015762000400620007f8565b5b601154601254096010556002601155600360125560046013556001601455610f286015556103b0601655610f286017556143b8601855600c6019556016601a55600a601b556016601c55602e601d556002601e557f198e9393920d483a7260bfb731fb5d25f1aa493335a9e71297e485b7aef312c2601f5560405180604001604052807f2d2e305d3ab2dc6e0081ffcf4a701f924a1a7296cdc32046c10c0b6f992387b281526020017f10d4d3cca369c48670346ef36c6739e885bb11b52038a89c706aacfb7d72d78981525060205f820151815f015560208201518160010155505060405180604001604052807f2d2e305d3ab2dc6e0081ffcf4a701f924a1a7296cdc32046c10c0b6f992387b281526020017f10d4d3cca369c48670346ef36c6739e885bb11b52038a89c706aacfb7d72d78981525060225f820151815f015560208201518160010155505060405180604001604052807f2d2e305d3ab2dc6e0081ffcf4a701f924a1a7296cdc32046c10c0b6f992387b281526020017f10d4d3cca369c48670346ef36c6739e885bb11b52038a89c706aacfb7d72d78981525060245f820151815f015560208201518160010155505060405180604001604052807f2d2e305d3ab2dc6e0081ffcf4a701f924a1a7296cdc32046c10c0b6f992387b281526020017f10d4d3cca369c48670346ef36c6739e885bb11b52038a89c706aacfb7d72d78981525060265f820151815f015560208201518160010155505060405180604001604052807f2d2e305d3ab2dc6e0081ffcf4a701f924a1a7296cdc32046c10c0b6f992387b281526020017f10d4d3cca369c48670346ef36c6739e885bb11b52038a89c706aacfb7d72d78981525060285f820151815f0155602082015181600101555050604051806040016040528060405180604001604052807f198e9393920d483a7260bfb731fb5d25f1aa493335a9e71297e485b7aef312c281526020017f1800deef121f1e76426a00665e5c4479674322d4f75edadd46debd5cd992f6ed815250815260200160405180604001604052807f090689d0585ff075ec9e99ad690c3395bc4b313370b38ef355acdadcd122975b81526020017f12c85ea5db8c6deb4aab71808dcb408fe3d1e7690c43d37b4ce6cc0166fa7daa815250815250602a5f820151815f019060026200076692919062000796565b506020820151816002019060026200078092919062000796565b5050503480156200078f575f80fd5b5062000825565b8260028101928215620007c8579160200282015b82811115620007c7578251825591602001919060010190620007aa565b5b509050620007d79190620007db565b5090565b5b80821115620007f4575f815f905550600101620007dc565b5090565b7f4e487b71000000000000000000000000000000000000000000000000000000005f52601260045260245ffd5b61546880620008335f395ff3fe608060405234801561000f575f80fd5b506004361061009c575f3560e01c8063aef4a98a11610064578063aef4a98a14610190578063bda453381461019a578063be603b1a146101ca578063ef3684d2146101fa578063fc137deb1461022a5761009c565b806303d2ae1f146100a05780631f96439f146100d057806334200b1414610100578063529fbfd8146101305780639388d55f14610160575b5f80fd5b6100ba60048036038101906100b591906140b9565b61025a565b6040516100c79190614123565b60405180910390f35b6100ea60048036038101906100e5919061413c565b6103b3565b6040516100f79190614192565b60405180910390f35b61011a600480360381019061011591906141ab565b6103f7565b6040516101279190614192565b60405180910390f35b61014a6004803603810190610145919061439f565b610453565b6040516101579190614123565b60405180910390f35b61017a60048036038101906101759190614456565b610aba565b6040516101879190614123565b60405180910390f35b610198610e64565b005b6101b460048036038101906101af9190614482565b611854565b6040516101c19190614192565b60405180910390f35b6101e460048036038101906101df91906144e8565b611982565b6040516101f191906145f8565b60405180910390f35b610214600480360381019061020f9190614905565b611a1d565b6040516102219190614123565b60405180910390f35b610244600480360381019061023f9190614931565b612179565b6040516102519190614123565b60405180910390f35b5f61039a8460086040518060400160405290815f82016002806020026040519081016040528092919082600280156102a7576020028201915b815481526020019060010190808311610293575b50505050508152602001600282016002806020026040519081016040528092919082600280156102ec576020028201915b8154815260200190600101908083116102d8575b50505050508152505085610395600c6040518060400160405290815f8201600280602002604051908101604052809291908260028015610341576020028201915b81548152602001906001019080831161032d575b5050505050815260200160028201600280602002604051908101604052809291908260028015610386576020028201915b815481526020019060010190808311610372575b50505050508152505087611982565b6125e6565b156103a857600190506103ac565b5f90505b9392505050565b5f825f01518360200151835f015184602001516040516020016103d994939291906149b5565b60405160208183030381529060405280519060200120905092915050565b5f845f01518560200151855f01518660200151865f01518760200151875f01518860200151604051602001610433989796959493929190614a02565b604051602081830303815290604052805190602001209050949350505050565b5f7f30644e72e131a029b85045b68181585d2833e84879b9709143e1f593f0000001825f01515f0151106104bc576040517f08c379a00000000000000000000000000000000000000000000000000000000081526004016104b390614b13565b60405180910390fd5b7f30644e72e131a029b85045b68181585d2833e84879b9709143e1f593f0000001825f01516020015110610525576040517f08c379a000000000000000000000000000000000000000000000000000000000815260040161051c90614ba1565b60405180910390fd5b7f30644e72e131a029b85045b68181585d2833e84879b9709143e1f593f000000182602001515f01511061058e576040517f08c379a000000000000000000000000000000000000000000000000000000000815260040161058590614c2f565b60405180910390fd5b7f30644e72e131a029b85045b68181585d2833e84879b9709143e1f593f0000001826020015160200151106105f8576040517f08c379a00000000000000000000000000000000000000000000000000000000081526004016105ef90614cbd565b60405180910390fd5b7f30644e72e131a029b85045b68181585d2833e84879b9709143e1f593f000000182604001515f01515f6002811061063357610632614cdb565b5b602002015110610678576040517f08c379a000000000000000000000000000000000000000000000000000000000815260040161066f90614d78565b60405180910390fd5b7f30644e72e131a029b85045b68181585d2833e84879b9709143e1f593f00000018260400151602001515f600281106106b4576106b3614cdb565b5b6020020151106106f9576040517f08c379a00000000000000000000000000000000000000000000000000000000081526004016106f090614e06565b60405180910390fd5b7f30644e72e131a029b85045b68181585d2833e84879b9709143e1f593f000000182604001515f015160016002811061073557610734614cdb565b5b60200201511061077a576040517f08c379a000000000000000000000000000000000000000000000000000000000815260040161077190614d78565b60405180910390fd5b7f30644e72e131a029b85045b68181585d2833e84879b9709143e1f593f00000018260400151602001516001600281106107b7576107b6614cdb565b5b6020020151106107fc576040517f08c379a00000000000000000000000000000000000000000000000000000000081526004016107f390614e06565b60405180910390fd5b7f30644e72e131a029b85045b68181585d2833e84879b9709143e1f593f000000182606001515f015110610865576040517f08c379a000000000000000000000000000000000000000000000000000000000815260040161085c90614e94565b60405180910390fd5b7f30644e72e131a029b85045b68181585d2833e84879b9709143e1f593f0000001826060015160200151106108cf576040517f08c379a00000000000000000000000000000000000000000000000000000000081526004016108c690614f22565b60405180910390fd5b7f30644e72e131a029b85045b68181585d2833e84879b9709143e1f593f0000001826080015110610935576040517f08c379a000000000000000000000000000000000000000000000000000000000815260040161092c90614fb0565b60405180910390fd5b5f61095561094b8460600151856080015161293b565b8460200151612a0f565b9050610aa18360200151600c6040518060400160405290815f82016002806020026040519081016040528092919082600280156109a7576020028201915b815481526020019060010190808311610993575b50505050508152602001600282016002806020026040519081016040528092919082600280156109ec576020028201915b8154815260200190600101908083116109d8575b505050505081525050838660400151610a07885f0151612b08565b5f6040518060400160405290815f8201600280602002604051908101604052809291908260028015610a4e576020028201915b815481526020019060010190808311610a3a575b5050505050815260200160028201600280602002604051908101604052809291908260028015610a93576020028201915b815481526020019060010190808311610a7f575b505050505081525050612bc0565b15610ab0576001915050610ab5565b5f9150505b919050565b5f80610ad1610ac7612f12565b846040015161293b565b90505f610b0d845f0151610b0860286040518060400160405290815f8201548152602001600182015481525050876080015161293b565b612a0f565b90505f610bb360046040518060400160405290815f8201600280602002604051908101604052809291908260028015610b5b576020028201915b815481526020019060010190808311610b47575b5050505050815260200160028201600280602002604051908101604052809291908260028015610ba0576020028201915b815481526020019060010190808311610b8c575b5050505050815250508660600151611982565b90505f610c648660200151610c5f600c6040518060400160405290815f8201600280602002604051908101604052809291908260028015610c09576020028201915b815481526020019060010190808311610bf5575b5050505050815260200160028201600280602002604051908101604052809291908260028015610c4e576020028201915b815481526020019060010190808311610c3a575b505050505081525050601454611982565b612f36565b9050825f0151845f0151148015610c82575082602001518460200151145b8015610cc35750805f0151600160028110610ca057610c9f614cdb565b5b6020020151825f0151600160028110610cbc57610cbb614cdb565b5b6020020151145b8015610d035750805f01515f60028110610ce057610cdf614cdb565b5b602002015182602001515f60028110610cfc57610cfb614cdb565b5b6020020151145b8015610d435750805f01515f60028110610d2057610d1f614cdb565b5b602002015182602001515f60028110610d3c57610d3b614cdb565b5b6020020151145b8015610d8657508060200151600160028110610d6257610d61614cdb565b5b60200201518260200151600160028110610d7f57610d7e614cdb565b5b6020020151145b8015610e455750610e3c610d98612f12565b60046040518060400160405290815f8201600280602002604051908101604052809291908260028015610de0576020028201915b815481526020019060010190808311610dcc575b5050505050815260200160028201600280602002604051908101604052809291908260028015610e25576020028201915b815481526020019060010190808311610e11575b505050505081525050885f01518960200151611854565b5f1c8660800151145b15610e57576001945050505050610e5f565b5f9450505050505b919050565b6118516040518061042001604052806040518060a0016040528060405180604001604052807f2d2e305d3ab2dc6e0081ffcf4a701f924a1a7296cdc32046c10c0b6f992387b281526020017f10d4d3cca369c48670346ef36c6739e885bb11b52038a89c706aacfb7d72d7898152508152602001604051806040016040528060405180604001604052807f198e9393920d483a7260bfb731fb5d25f1aa493335a9e71297e485b7aef312c281526020017f1800deef121f1e76426a00665e5c4479674322d4f75edadd46debd5cd992f6ed815250815260200160405180604001604052807f090689d0585ff075ec9e99ad690c3395bc4b313370b38ef355acdadcd122975b81526020017f12c85ea5db8c6deb4aab71808dcb408fe3d1e7690c43d37b4ce6cc0166fa7daa815250815250815260200160018152602001600281526020016003815250815260200160405180604001604052807f2d2e305d3ab2dc6e0081ffcf4a701f924a1a7296cdc32046c10c0b6f992387b281526020017f10d4d3cca369c48670346ef36c6739e885bb11b52038a89c706aacfb7d72d789815250815260200160405180604001604052807f2d2e305d3ab2dc6e0081ffcf4a701f924a1a7296cdc32046c10c0b6f992387b281526020017f10d4d3cca369c48670346ef36c6739e885bb11b52038a89c706aacfb7d72d789815250815260200160405180604001604052807f2d2e305d3ab2dc6e0081ffcf4a701f924a1a7296cdc32046c10c0b6f992387b281526020017f10d4d3cca369c48670346ef36c6739e885bb11b52038a89c706aacfb7d72d789815250815260200160405180604001604052807f2d2e305d3ab2dc6e0081ffcf4a701f924a1a7296cdc32046c10c0b6f992387b281526020017f10d4d3cca369c48670346ef36c6739e885bb11b52038a89c706aacfb7d72d789815250815260200160405180604001604052807f2d2e305d3ab2dc6e0081ffcf4a701f924a1a7296cdc32046c10c0b6f992387b281526020017f10d4d3cca369c48670346ef36c6739e885bb11b52038a89c706aacfb7d72d789815250815260200160405180604001604052807f2d2e305d3ab2dc6e0081ffcf4a701f924a1a7296cdc32046c10c0b6f992387b281526020017f10d4d3cca369c48670346ef36c6739e885bb11b52038a89c706aacfb7d72d789815250815260200160405180604001604052807f2d2e305d3ab2dc6e0081ffcf4a701f924a1a7296cdc32046c10c0b6f992387b281526020017f10d4d3cca369c48670346ef36c6739e885bb11b52038a89c706aacfb7d72d789815250815260200160405180604001604052807f2d2e305d3ab2dc6e0081ffcf4a701f924a1a7296cdc32046c10c0b6f992387b281526020017f10d4d3cca369c48670346ef36c6739e885bb11b52038a89c706aacfb7d72d789815250815260200160405180604001604052807f2d2e305d3ab2dc6e0081ffcf4a701f924a1a7296cdc32046c10c0b6f992387b281526020017f10d4d3cca369c48670346ef36c6739e885bb11b52038a89c706aacfb7d72d789815250815260200160405180604001604052807f2d2e305d3ab2dc6e0081ffcf4a701f924a1a7296cdc32046c10c0b6f992387b281526020017f10d4d3cca369c48670346ef36c6739e885bb11b52038a89c706aacfb7d72d789815250815260200160405180604001604052807f2d2e305d3ab2dc6e0081ffcf4a701f924a1a7296cdc32046c10c0b6f992387b281526020017f10d4d3cca369c48670346ef36c6739e885bb11b52038a89c706aacfb7d72d789815250815260200160405180604001604052807f2d2e305d3ab2dc6e0081ffcf4a701f924a1a7296cdc32046c10c0b6f992387b281526020017f10d4d3cca369c48670346ef36c6739e885bb11b52038a89c706aacfb7d72d789815250815260200160405180604001604052807f2d2e305d3ab2dc6e0081ffcf4a701f924a1a7296cdc32046c10c0b6f992387b281526020017f10d4d3cca369c48670346ef36c6739e885bb11b52038a89c706aacfb7d72d78981525081526020017f10d4d3cca369c48670346ef36c6739e885bb11b52038a89c706aacfb7d72d78981526020017f2d2e305d3ab2dc6e0081ffcf4a701f924a1a7296cdc32046c10c0b6f992387b281526020017f10d4d3cca369c48670346ef36c6739e885bb11b52038a89c706aacfb7d72d78981526020017f2d2e305d3ab2dc6e0081ffcf4a701f924a1a7296cdc32046c10c0b6f992387b281526020017f19a48669ccf72c593144962560f593b667daa2052d1cdcc2500bb3b003c073c981526020017f2d2e305d3ab2dc6e0081ffcf4a701f924a1a7296cdc32046c10c0b6f992387b281526020017f2d2e305d3ab2dc6e0081ffcf4a701f924a1a7296cdc32046c10c0b6f992387b281526020017f10d4d3cca369c48670346ef36c6739e885bb11b52038a89c706aacfb7d72d78981526020017f10d4d3cca369c48670346ef36c6739e885bb11b52038a89c706aacfb7d72d78981526020017f10d4d3cca369c48670346ef36c6739e885bb11b52038a89c706aacfb7d72d78981526020017f0d1f3f69e4ae12d40127fef4d583bbebe1b49bfaf4271544b2aa1aaa91660b3c81526020017f0d1f3f69e4ae12d40127fef4d583bbebe1b49bfaf4271544b2aa1aaa91660b3c81526020017f0d1f3f69e4ae12d40127fef4d583bbebe1b49bfaf4271544b2aa1aaa91660b3c815260200160405180604001604052807f2d2e305d3ab2dc6e0081ffcf4a701f924a1a7296cdc32046c10c0b6f992387b281526020017f10d4d3cca369c48670346ef36c6739e885bb11b52038a89c706aacfb7d72d789815250815260200160405180604001604052807f2d2e305d3ab2dc6e0081ffcf4a701f924a1a7296cdc32046c10c0b6f992387b281526020017f10d4d3cca369c48670346ef36c6739e885bb11b52038a89c706aacfb7d72d789815250815260200160405180604001604052807f2d2e305d3ab2dc6e0081ffcf4a701f924a1a7296cdc32046c10c0b6f992387b281526020017f10d4d3cca369c48670346ef36c6739e885bb11b52038a89c706aacfb7d72d789815250815260200160405180604001604052807f2d2e305d3ab2dc6e0081ffcf4a701f924a1a7296cdc32046c10c0b6f992387b281526020017f10d4d3cca369c48670346ef36c6739e885bb11b52038a89c706aacfb7d72d789815250815260200160405180604001604052807f2d2e305d3ab2dc6e0081ffcf4a701f924a1a7296cdc32046c10c0b6f992387b281526020017f10d4d3cca369c48670346ef36c6739e885bb11b52038a89c706aacfb7d72d789815250815260200160405180604001604052807f2d2e305d3ab2dc6e0081ffcf4a701f924a1a7296cdc32046c10c0b6f992387b281526020017f10d4d3cca369c48670346ef36c6739e885bb11b52038a89c706aacfb7d72d789815250815250611a1d565b50565b5f845f01518560200151855f01515f6002811061187457611873614cdb565b5b6020020151865f01516001600281106118905761188f614cdb565b5b602002015187602001515f600281106118ac576118ab614cdb565b5b602002015188602001516001600281106118c9576118c8614cdb565b5b6020020151885f01518960200151895f01515f600281106118ed576118ec614cdb565b5b60200201518a5f015160016002811061190957611908614cdb565b5b60200201518b602001515f6002811061192557611924614cdb565b5b60200201518c6020015160016002811061194257611941614cdb565b5b60200201516040516020016119629c9b9a99989796959493929190614fce565b604051602081830303815290604052805190602001209050949350505050565b61198a613eac565b5f604051806040016040528060405180604001604052805f81526020015f815250815260200160405180604001604052805f81526020015f81525081525090505b5f831115611a135760016002846119e291906150d0565b036119f4576119f18185612f36565b90505b600283611a01919061512d565b9250611a0c84613600565b93506119cb565b8091505092915050565b5f80601f5442109050611a3c836103e00151846104000151600161025a565b9050611a4a835f0151610aba565b9050611a688361036001518460200151601154866101c00151612179565b9050611a868361038001518460400151601154866101e00151612179565b9050611aa48361038001518460600151601054866102000151612179565b9050611ac2836103a001518460800151601154866102200151612179565b9050611afa60206040518060400160405290815f82015481526020016001820154815250508460a00151601254866102400151612179565b9050611b18836103c001518460c00151601154866102600151612179565b9050611b35836103c001518460e001516001866102800151612179565b9050611b6e60226040518060400160405290815f8201548152602001600182015481525050846101000151601254866102a00151612179565b9050611b8d836103e00151846101600151601354866103000151612179565b9050611bc660266040518060400160405290815f8201548152602001600182015481525050846101200151601154866102c00151612179565b9050611bff60246040518060400160405290815f8201548152602001600182015481525050846101400151601154866102e00151612179565b9050611c1e836103e00151846101800151601154866103200151612179565b9050611c348361038001518461036001516103b3565b5f1c6012541490507f30644e72e131a029b85045b68181585d2833e84879b9709143e1f593f000000180611c6b57611c6a6150a3565b5b8361024001517f30644e72e131a029b85045b68181585d2833e84879b9709143e1f593f0000001611c9c919061515d565b7f30644e72e131a029b85045b68181585d2833e84879b9709143e1f593f000000180611ccb57611cca6150a3565b5b7f30644e72e131a029b85045b68181585d2833e84879b9709143e1f593f000000180611cfa57611cf96150a3565b5b86610260015187610200015108866101e001510908836102200151149050826102a00151836102800151149050611d47836103800151846103600151856103a00151866103c001516103f7565b5f1c6011541490505f7f30644e72e131a029b85045b68181585d2833e84879b9709143e1f593f000000180611d7f57611d7e6150a3565b5b6019546015540890505f611db6601154837f30644e72e131a029b85045b68181585d2833e84879b9709143e1f593f0000001613944565b90505f7f30644e72e131a029b85045b68181585d2833e84879b9709143e1f593f000000180611de857611de76150a3565b5b7f30644e72e131a029b85045b68181585d2833e84879b9709143e1f593f000000180611e1757611e166150a3565b5b601a54601954086015540890505f611e52601154837f30644e72e131a029b85045b68181585d2833e84879b9709143e1f593f0000001613944565b90505f7f30644e72e131a029b85045b68181585d2833e84879b9709143e1f593f000000180611e8457611e836150a3565b5b7f30644e72e131a029b85045b68181585d2833e84879b9709143e1f593f000000180611eb357611eb26150a3565b5b7f30644e72e131a029b85045b68181585d2833e84879b9709143e1f593f000000180611ee257611ee16150a3565b5b601e54601a5408601954086015540890505f611f21601154837f30644e72e131a029b85045b68181585d2833e84879b9709143e1f593f0000001613944565b90505f7f30644e72e131a029b85045b68181585d2833e84879b9709143e1f593f000000180611f5357611f526150a3565b5b868b6102c001510990505f7f30644e72e131a029b85045b68181585d2833e84879b9709143e1f593f000000180611f8d57611f8c6150a3565b5b858c6102e001510990505f7f30644e72e131a029b85045b68181585d2833e84879b9709143e1f593f000000180611fc757611fc66150a3565b5b848d61032001510990507f30644e72e131a029b85045b68181585d2833e84879b9709143e1f593f00000018061200057611fff6150a3565b5b7f30644e72e131a029b85045b68181585d2833e84879b9709143e1f593f00000018061202f5761202e6150a3565b5b7f30644e72e131a029b85045b68181585d2833e84879b9709143e1f593f00000018061205e5761205d6150a3565b5b83850885098d6101c00151088c6101e001511499506121656040518060a001604052808e6103e0015181526020018e6101a001518152602001602a6040518060400160405290815f82016002806020026040519081016040528092919082600280156120df576020028201915b8154815260200190600101908083116120cb575b5050505050815260200160028201600280602002604051908101604052809291908260028015612124576020028201915b815481526020019060010190808311612110575b505050505081525050815260200160286040518060400160405290815f820154815260200160018201548152505081526020018e6103400151815250610453565b9950899a5050505050505050505050919050565b5f7f30644e72e131a029b85045b68181585d2833e84879b9709143e1f593f0000001855f0151106121df576040517f08c379a00000000000000000000000000000000000000000000000000000000081526004016121d690614b13565b60405180910390fd5b7f30644e72e131a029b85045b68181585d2833e84879b9709143e1f593f0000001856020015110612245576040517f08c379a000000000000000000000000000000000000000000000000000000000815260040161223c90614ba1565b60405180910390fd5b7f30644e72e131a029b85045b68181585d2833e84879b9709143e1f593f0000001845f0151106122aa576040517f08c379a00000000000000000000000000000000000000000000000000000000081526004016122a190614c2f565b60405180910390fd5b7f30644e72e131a029b85045b68181585d2833e84879b9709143e1f593f0000001846020015110612310576040517f08c379a000000000000000000000000000000000000000000000000000000000815260040161230790614cbd565b60405180910390fd5b7f30644e72e131a029b85045b68181585d2833e84879b9709143e1f593f00000018310612372576040517f08c379a000000000000000000000000000000000000000000000000000000000815260040161236990615200565b60405180910390fd5b7f30644e72e131a029b85045b68181585d2833e84879b9709143e1f593f000000182106123d4576040517f08c379a00000000000000000000000000000000000000000000000000000000081526004016123cb90614fb0565b60405180910390fd5b5f6123e76123e2868661293b565b612b08565b90505f6124046123fe6123f8612f12565b8661293b565b83612a0f565b90506125da86600c6040518060400160405290815f8201600280602002604051908101604052809291908260028015612452576020028201915b81548152602001906001019080831161243e575b5050505050815260200160028201600280602002604051908101604052809291908260028015612497576020028201915b815481526020019060010190808311612483575b5050505050815250508360046040518060400160405290815f82016002806020026040519081016040528092919082600280156124e9576020028201915b8154815260200190600101908083116124d5575b505050505081526020016002820160028060200260405190810160405280929190826002801561252e576020028201915b81548152602001906001019080831161251a575b5050505050815250506125408c612b08565b5f6040518060400160405290815f8201600280602002604051908101604052809291908260028015612587576020028201915b815481526020019060010190808311612573575b50505050508152602001600282016002806020026040519081016040528092919082600280156125cc576020028201915b8154815260200190600101908083116125b8575b505050505081525050612bc0565b92505050949350505050565b5f80600c90505f8167ffffffffffffffff81111561260757612606613fc1565b5b6040519080825280602002602001820160405280156126355781602001602082028036833780820191505090505b509050865f0151815f8151811061264f5761264e614cdb565b5b60200260200101818152505086602001518160018151811061267457612673614cdb565b5b602002602001018181525050855f01515f6002811061269657612695614cdb565b5b6020020151816002815181106126af576126ae614cdb565b5b602002602001018181525050855f01516001600281106126d2576126d1614cdb565b5b6020020151816003815181106126eb576126ea614cdb565b5b60200260200101818152505085602001515f6002811061270e5761270d614cdb565b5b60200201518160048151811061272757612726614cdb565b5b602002602001018181525050856020015160016002811061274b5761274a614cdb565b5b60200201518160058151811061276457612763614cdb565b5b602002602001018181525050845f01518160068151811061278857612787614cdb565b5b6020026020010181815250508460200151816007815181106127ad576127ac614cdb565b5b602002602001018181525050835f01515f600281106127cf576127ce614cdb565b5b6020020151816008815181106127e8576127e7614cdb565b5b602002602001018181525050835f015160016002811061280b5761280a614cdb565b5b60200201518160098151811061282457612823614cdb565b5b60200260200101818152505083602001515f6002811061284757612846614cdb565b5b602002015181600a815181106128605761285f614cdb565b5b602002602001018181525050836020015160016002811061288457612883614cdb565b5b602002015181600b8151811061289d5761289c614cdb565b5b6020026020010181815250506128b1613ed2565b5f602082602086026020860160086107d05a03fa9050805f81036128d157fe5b5080612912576040517f08c379a000000000000000000000000000000000000000000000000000000000815260040161290990615268565b60405180910390fd5b5f825f6001811061292657612925614cdb565b5b60200201511415945050505050949350505050565b612943613ef4565b61294b613f0c565b835f0151815f6003811061296257612961614cdb565b5b60200201818152505083602001518160016003811061298457612983614cdb565b5b60200201818152505082816002600381106129a2576129a1614cdb565b5b6020020181815250505f60608360808460076107d05a03fa9050805f81036129c657fe5b5080612a07576040517f08c379a00000000000000000000000000000000000000000000000000000000081526004016129fe906152d0565b60405180910390fd5b505092915050565b612a17613ef4565b612a1f613f2e565b835f0151815f60048110612a3657612a35614cdb565b5b602002018181525050836020015181600160048110612a5857612a57614cdb565b5b602002018181525050825f015181600260048110612a7957612a78614cdb565b5b602002018181525050826020015181600360048110612a9b57612a9a614cdb565b5b6020020181815250505f60608360c08460066107d05a03fa9050805f8103612abf57fe5b5080612b00576040517f08c379a0000000000000000000000000000000000000000000000000000000008152600401612af790615338565b60405180910390fd5b505092915050565b612b10613ef4565b5f825f0151148015612b2557505f8260200151145b15612b465760405180604001604052805f81526020015f8152509050612bbb565b6040518060400160405280835f015181526020017f30644e72e131a029b85045b68181585d97816a916871ca8d3c208c16d87cfd478460200151612b8a91906150d0565b7f30644e72e131a029b85045b68181585d97816a916871ca8d3c208c16d87cfd47612bb5919061515d565b81525090505b919050565b5f8060405180606001604052808981526020018781526020018581525090505f60405180606001604052808981526020018781526020018581525090505f601290505f8167ffffffffffffffff811115612c1d57612c1c613fc1565b5b604051908082528060200260200182016040528015612c4b5781602001602082028036833780820191505090505b5090505f5b6003811015612e7b575f600682612c679190615356565b9050858260038110612c7c57612c7b614cdb565b5b60200201515f0151835f83612c919190615397565b81518110612ca257612ca1614cdb565b5b602002602001018181525050858260038110612cc157612cc0614cdb565b5b60200201516020015183600183612cd89190615397565b81518110612ce957612ce8614cdb565b5b602002602001018181525050848260038110612d0857612d07614cdb565b5b60200201515f01515f60028110612d2257612d21614cdb565b5b602002015183600283612d359190615397565b81518110612d4657612d45614cdb565b5b602002602001018181525050848260038110612d6557612d64614cdb565b5b60200201515f0151600160028110612d8057612d7f614cdb565b5b602002015183600383612d939190615397565b81518110612da457612da3614cdb565b5b602002602001018181525050848260038110612dc357612dc2614cdb565b5b6020020151602001515f60028110612dde57612ddd614cdb565b5b602002015183600483612df19190615397565b81518110612e0257612e01614cdb565b5b602002602001018181525050848260038110612e2157612e20614cdb565b5b602002015160200151600160028110612e3d57612e3c614cdb565b5b602002015183600583612e509190615397565b81518110612e6157612e60614cdb565b5b602002602001018181525050508080600101915050612c50565b50612e84613ed2565b5f602082602086026020860160086107d05a03fa9050805f8103612ea457fe5b5080612ee5576040517f08c379a0000000000000000000000000000000000000000000000000000000008152600401612edc90615268565b60405180910390fd5b5f825f60018110612ef957612ef8614cdb565b5b6020020151141596505050505050509695505050505050565b612f1a613ef4565b6040518060400160405280600181526020016002815250905090565b612f3e613eac565b5f835f01515f60028110612f5557612f54614cdb565b5b6020020151148015612f8157505f835f0151600160028110612f7a57612f79614cdb565b5b6020020151145b8015612fa757505f83602001515f60028110612fa057612f9f614cdb565b5b6020020151145b8015612fce57505f8360200151600160028110612fc757612fc6614cdb565b5b6020020151145b15612fdb578190506135fa565b5f825f01515f60028110612ff257612ff1614cdb565b5b602002015114801561301e57505f825f015160016002811061301757613016614cdb565b5b6020020151145b801561304457505f82602001515f6002811061303d5761303c614cdb565b5b6020020151145b801561306b57505f826020015160016002811061306457613063614cdb565b5b6020020151145b15613078578290506135fa565b613080613f50565b613090845f0151855f0151613a35565b815f600c81106130a3576130a2614cdb565b5b60200201819052506130bb835f0151845f0151613a35565b816001600c81106130cf576130ce614cdb565b5b60200201819052506130fd8460200151826001600c81106130f3576130f2614cdb565b5b6020020151613a35565b816002600c811061311157613110614cdb565b5b602002018190525061313e8360200151825f600c811061313457613133614cdb565b5b6020020151613a35565b816003600c811061315257613151614cdb565b5b602002018190525061318b61316d855f0151855f0151613a35565b826001600c811061318157613180614cdb565b5b6020020151613a35565b816004600c811061319f5761319e614cdb565b5b60200201819052506131d76131ba845f0151865f0151613a35565b825f600c81106131cd576131cc614cdb565b5b6020020151613a35565b816005600c81106131eb576131ea614cdb565b5b602002018190525061322d816003600c811061320a57613209614cdb565b5b6020020151826002600c811061322357613222614cdb565b5b6020020151613ccc565b816006600c811061324157613240614cdb565b5b6020020181905250613283816006600c81106132605761325f614cdb565b5b6020020151826006600c811061327957613278614cdb565b5b6020020151613d61565b816007600c811061329757613296614cdb565b5b60200201819052506132d9816007600c81106132b6576132b5614cdb565b5b6020020151826007600c81106132cf576132ce614cdb565b5b6020020151613a35565b816007600c81106132ed576132ec614cdb565b5b602002018190525061332f816006600c811061330c5761330b614cdb565b5b6020020151826007600c811061332557613324614cdb565b5b6020020151613a35565b816008600c811061334357613342614cdb565b5b6020020181905250613385816005600c811061336257613361614cdb565b5b6020020151826004600c811061337b5761337a614cdb565b5b6020020151613ccc565b816009600c811061339957613398614cdb565b5b60200201819052506133db816009600c81106133b8576133b7614cdb565b5b6020020151826009600c81106133d1576133d0614cdb565b5b6020020151613d61565b816009600c81106133ef576133ee614cdb565b5b6020020181905250613431816002600c811061340e5761340d614cdb565b5b6020020151826007600c811061342757613426614cdb565b5b6020020151613a35565b81600a600c811061344557613444614cdb565b5b60200201819052506134ea6134ab61348d836009600c811061346a57613469614cdb565b5b6020020151846009600c811061348357613482614cdb565b5b6020020151613a35565b836008600c81106134a1576134a0614cdb565b5b6020020151613ccc565b6134e583600a600c81106134c2576134c1614cdb565b5b602002015184600a600c81106134db576134da614cdb565b5b6020020151613d61565b613ccc565b81600b600c81106134fe576134fd614cdb565b5b602002018190525061350e613eac565b81600b600c811061352257613521614cdb565b5b6020020151815f01819052506135ec61358c836009600c811061354857613547614cdb565b5b602002015161358785600a600c811061356457613563614cdb565b5b602002015186600b600c811061357d5761357c614cdb565b5b6020020151613ccc565b613a35565b6135e76135c9856004600c81106135a6576135a5614cdb565b5b6020020151866008600c81106135bf576135be614cdb565b5b6020020151613a35565b856004600c81106135dd576135dc614cdb565b5b6020020151613d61565b613ccc565b816020018190525080925050505b92915050565b613608613eac565b5f825f01515f6002811061361f5761361e614cdb565b5b602002015114801561364b57505f825f015160016002811061364457613643614cdb565b5b6020020151145b801561367157505f82602001515f6002811061366a57613669614cdb565b5b6020020151145b801561369857505f826020015160016002811061369157613690614cdb565b5b6020020151145b156136a55781905061393f565b5f6136b6835f0151845f0151613a35565b90505f6136cb84602001518560200151613a35565b90505f61389c60405180604001604052807f30644e72e131a029b85045b68181585d97816a916871ca8d3c208c16d87cfd478061370b5761370a6150a3565b5b88602001515f6002811061372257613721614cdb565b5b6020020151895f01515f6002811061373d5761373c614cdb565b5b60200201510881526020017f30644e72e131a029b85045b68181585d97816a916871ca8d3c208c16d87cfd4780613777576137766150a3565b5b886020015160016002811061378f5761378e614cdb565b5b6020020151895f01516001600281106137ab576137aa614cdb565b5b60200201510881525060405180604001604052807f30644e72e131a029b85045b68181585d97816a916871ca8d3c208c16d87cfd47806137ee576137ed6150a3565b5b89602001515f6002811061380557613804614cdb565b5b60200201518a5f01515f600281106138205761381f614cdb565b5b60200201510881526020017f30644e72e131a029b85045b68181585d97816a916871ca8d3c208c16d87cfd478061385a576138596150a3565b5b896020015160016002811061387257613871614cdb565b5b60200201518a5f015160016002811061388e5761388d614cdb565b5b602002015108815250613a35565b90506138b1816138ac8585613d61565b613ccc565b90506138bd8182613d61565b90505f6138d36138cd8586613d61565b85613d61565b90505f6138f26138e38384613a35565b6138ed8586613d61565b613ccc565b90505f8190505f61391e61390f8561390a8887613ccc565b613a35565b6139198889613d61565b613ccc565b90506040518060400160405280838152602001828152509750505050505050505b919050565b5f808203613987576040517f08c379a000000000000000000000000000000000000000000000000000000000815260040161397e90615414565b60405180910390fd5b5f8403613996575f9050613a2e565b5f83036139a65760019050613a2e565b5f600190505f7f800000000000000000000000000000000000000000000000000000000000000090505b5f811115613a2857838186161515870a85848509099150836002820486161515870a85848509099150836004820486161515870a85848509099150836008820486161515870a858485090991506010810490506139d0565b81925050505b9392505050565b613a3d613f7e565b5f7f30644e72e131a029b85045b68181585d97816a916871ca8d3c208c16d87cfd4780613a6d57613a6c6150a3565b5b835f60028110613a8057613a7f614cdb565b5b6020020151855f60028110613a9857613a97614cdb565b5b60200201510990505f7f30644e72e131a029b85045b68181585d97816a916871ca8d3c208c16d87cfd4780613ad057613acf6150a3565b5b84600160028110613ae457613ae3614cdb565b5b602002015186600160028110613afd57613afc614cdb565b5b60200201510990505f7f30644e72e131a029b85045b68181585d97816a916871ca8d3c208c16d87cfd4780613b3557613b346150a3565b5b86600160028110613b4957613b48614cdb565b5b6020020151875f60028110613b6157613b60614cdb565b5b60200201510890505f7f30644e72e131a029b85045b68181585d97816a916871ca8d3c208c16d87cfd4780613b9957613b986150a3565b5b86600160028110613bad57613bac614cdb565b5b6020020151875f60028110613bc557613bc4614cdb565b5b60200201510890505f7f30644e72e131a029b85045b68181585d97816a916871ca8d3c208c16d87cfd4780613bfd57613bfc6150a3565b5b82840990505f7f30644e72e131a029b85045b68181585d97816a916871ca8d3c208c16d87cfd4780613c3257613c316150a3565b5b7f30644e72e131a029b85045b68181585d97816a916871ca8d3c208c16d87cfd4780613c6157613c606150a3565b5b8660115409870890505f613ca6837f30644e72e131a029b85045b68181585d97816a916871ca8d3c208c16d87cfd4780613c9e57613c9d6150a3565b5b888a08613e46565b905060405180604001604052808381526020018281525097505050505050505092915050565b613cd4613f7e565b6040518060400160405280613d17855f60028110613cf557613cf4614cdb565b5b6020020151855f60028110613d0d57613d0c614cdb565b5b6020020151613e46565b8152602001613d5685600160028110613d3357613d32614cdb565b5b602002015185600160028110613d4c57613d4b614cdb565b5b6020020151613e46565b815250905092915050565b613d69613f7e565b60405180604001604052807f30644e72e131a029b85045b68181585d97816a916871ca8d3c208c16d87cfd4780613da357613da26150a3565b5b845f60028110613db657613db5614cdb565b5b6020020151865f60028110613dce57613dcd614cdb565b5b60200201510881526020017f30644e72e131a029b85045b68181585d97816a916871ca8d3c208c16d87cfd4780613e0857613e076150a3565b5b84600160028110613e1c57613e1b614cdb565b5b602002015186600160028110613e3557613e34614cdb565b5b602002015108815250905092915050565b5f7f30644e72e131a029b85045b68181585d97816a916871ca8d3c208c16d87cfd4780613e7657613e756150a3565b5b827f30644e72e131a029b85045b68181585d97816a916871ca8d3c208c16d87cfd47613ea2919061515d565b8408905092915050565b6040518060400160405280613ebf613f7e565b8152602001613ecc613f7e565b81525090565b6040518060200160405280600190602082028036833780820191505090505090565b60405180604001604052805f81526020015f81525090565b6040518060600160405280600390602082028036833780820191505090505090565b6040518060800160405280600490602082028036833780820191505090505090565b604051806101800160405280600c905b613f68613f7e565b815260200190600190039081613f605790505090565b6040518060400160405280600290602082028036833780820191505090505090565b5f604051905090565b5f80fd5b5f80fd5b5f601f19601f8301169050919050565b7f4e487b71000000000000000000000000000000000000000000000000000000005f52604160045260245ffd5b613ff782613fb1565b810181811067ffffffffffffffff8211171561401657614015613fc1565b5b80604052505050565b5f614028613fa0565b90506140348282613fee565b919050565b5f819050919050565b61404b81614039565b8114614055575f80fd5b50565b5f8135905061406681614042565b92915050565b5f6040828403121561408157614080613fad565b5b61408b604061401f565b90505f61409a84828501614058565b5f8301525060206140ad84828501614058565b60208301525092915050565b5f805f60a084860312156140d0576140cf613fa9565b5b5f6140dd8682870161406c565b93505060406140ee8682870161406c565b92505060806140ff86828701614058565b9150509250925092565b5f8115159050919050565b61411d81614109565b82525050565b5f6020820190506141365f830184614114565b92915050565b5f806080838503121561415257614151613fa9565b5b5f61415f8582860161406c565b92505060406141708582860161406c565b9150509250929050565b5f819050919050565b61418c8161417a565b82525050565b5f6020820190506141a55f830184614183565b92915050565b5f805f8061010085870312156141c4576141c3613fa9565b5b5f6141d18782880161406c565b94505060406141e28782880161406c565b93505060806141f38782880161406c565b92505060c06142048782880161406c565b91505092959194509250565b5f80fd5b5f67ffffffffffffffff82111561422e5761422d613fc1565b5b602082029050919050565b5f80fd5b5f61424f61424a84614214565b61401f565b9050806020840283018581111561426957614268614239565b5b835b81811015614292578061427e8882614058565b84526020840193505060208101905061426b565b5050509392505050565b5f82601f8301126142b0576142af614210565b5b60026142bd84828561423d565b91505092915050565b5f608082840312156142db576142da613fad565b5b6142e5604061401f565b90505f6142f48482850161429c565b5f8301525060406143078482850161429c565b60208301525092915050565b5f610160828403121561432957614328613fad565b5b61433360a061401f565b90505f6143428482850161406c565b5f8301525060406143558482850161406c565b6020830152506080614369848285016142c6565b60408301525061010061437e8482850161406c565b60608301525061014061439384828501614058565b60808301525092915050565b5f61016082840312156143b5576143b4613fa9565b5b5f6143c284828501614313565b91505092915050565b5f61012082840312156143e1576143e0613fad565b5b6143eb60a061401f565b90505f6143fa8482850161406c565b5f83015250604061440d848285016142c6565b60208301525060c061442184828501614058565b60408301525060e061443584828501614058565b60608301525061010061444a84828501614058565b60808301525092915050565b5f610120828403121561446c5761446b613fa9565b5b5f614479848285016143cb565b91505092915050565b5f805f80610180858703121561449b5761449a613fa9565b5b5f6144a88782880161406c565b94505060406144b9878288016142c6565b93505060c06144ca8782880161406c565b9250506101006144dc878288016142c6565b91505092959194509250565b5f8060a083850312156144fe576144fd613fa9565b5b5f61450b858286016142c6565b925050608061451c85828601614058565b9150509250929050565b5f60029050919050565b5f81905092915050565b5f819050919050565b61454c81614039565b82525050565b5f61455d8383614543565b60208301905092915050565b5f602082019050919050565b61457e81614526565b6145888184614530565b92506145938261453a565b805f5b838110156145c35781516145aa8782614552565b96506145b583614569565b925050600181019050614596565b505050505050565b608082015f8201516145df5f850182614575565b5060208201516145f26040850182614575565b50505050565b5f60808201905061460b5f8301846145cb565b92915050565b5f610780828403121561462757614626613fad565b5b61463261042061401f565b90505f614641848285016143cb565b5f830152506101206146558482850161406c565b60208301525061016061466a8482850161406c565b6040830152506101a061467f8482850161406c565b6060830152506101e06146948482850161406c565b6080830152506102206146a98482850161406c565b60a0830152506102606146be8482850161406c565b60c0830152506102a06146d38482850161406c565b60e0830152506102e06146e88482850161406c565b610100830152506103206146fe8482850161406c565b610120830152506103606147148482850161406c565b610140830152506103a061472a8482850161406c565b610160830152506103e06147408482850161406c565b610180830152506104206147568482850161406c565b6101a08301525061046061476c84828501614058565b6101c08301525061048061478284828501614058565b6101e0830152506104a061479884828501614058565b610200830152506104c06147ae84828501614058565b610220830152506104e06147c484828501614058565b610240830152506105006147da84828501614058565b610260830152506105206147f084828501614058565b6102808301525061054061480684828501614058565b6102a08301525061056061481c84828501614058565b6102c08301525061058061483284828501614058565b6102e0830152506105a061484884828501614058565b610300830152506105c061485e84828501614058565b610320830152506105e061487484828501614058565b6103408301525061060061488a8482850161406c565b610360830152506106406148a08482850161406c565b610380830152506106806148b68482850161406c565b6103a0830152506106c06148cc8482850161406c565b6103c0830152506107006148e28482850161406c565b6103e0830152506107406148f88482850161406c565b6104008301525092915050565b5f610780828403121561491b5761491a613fa9565b5b5f61492884828501614611565b91505092915050565b5f805f8060c0858703121561494957614948613fa9565b5b5f6149568782880161406c565b94505060406149678782880161406c565b935050608061497887828801614058565b92505060a061498987828801614058565b91505092959194509250565b5f819050919050565b6149af6149aa82614039565b614995565b82525050565b5f6149c0828761499e565b6020820191506149d0828661499e565b6020820191506149e0828561499e565b6020820191506149f0828461499e565b60208201915081905095945050505050565b5f614a0d828b61499e565b602082019150614a1d828a61499e565b602082019150614a2d828961499e565b602082019150614a3d828861499e565b602082019150614a4d828761499e565b602082019150614a5d828661499e565b602082019150614a6d828561499e565b602082019150614a7d828461499e565b6020820191508190509998505050505050505050565b5f82825260208201905092915050565b7f56657269666965722e7665726966794b5a473a205f636f6d6d69746d656e742e5f8201527f58206973206f7574206f662072616e6765000000000000000000000000000000602082015250565b5f614afd603183614a93565b9150614b0882614aa3565b604082019050919050565b5f6020820190508181035f830152614b2a81614af1565b9050919050565b7f56657269666965722e7665726966794b5a473a205f636f6d6d69746d656e742e5f8201527f59206973206f7574206f662072616e6765000000000000000000000000000000602082015250565b5f614b8b603183614a93565b9150614b9682614b31565b604082019050919050565b5f6020820190508181035f830152614bb881614b7f565b9050919050565b7f56657269666965722e7665726966794b5a473a205f70726f6f662e58206973205f8201527f6f7574206f662072616e67650000000000000000000000000000000000000000602082015250565b5f614c19602c83614a93565b9150614c2482614bbf565b604082019050919050565b5f6020820190508181035f830152614c4681614c0d565b9050919050565b7f56657269666965722e7665726966794b5a473a205f70726f6f662e59206973205f8201527f6f7574206f662072616e67650000000000000000000000000000000000000000602082015250565b5f614ca7602c83614a93565b9150614cb282614c4d565b604082019050919050565b5f6020820190508181035f830152614cd481614c9b565b9050919050565b7f4e487b71000000000000000000000000000000000000000000000000000000005f52603260045260245ffd5b7f56657269666965722e7665726966794b5a473a20685f6e6567617465616c70685f8201527f617a2e585b305d206973206f7574206f662072616e6765000000000000000000602082015250565b5f614d62603783614a93565b9150614d6d82614d08565b604082019050919050565b5f6020820190508181035f830152614d8f81614d56565b9050919050565b7f56657269666965722e7665726966794b5a473a20685f6e6567617465616c70685f8201527f617a2e595b315d206973206f7574206f662072616e6765000000000000000000602082015250565b5f614df0603783614a93565b9150614dfb82614d96565b604082019050919050565b5f6020820190508181035f830152614e1d81614de4565b9050919050565b7f56657269666965722e7665726966794b5a473a20675f6e6167617465312f7a2e5f8201527f58206973206f7574206f662072616e6765000000000000000000000000000000602082015250565b5f614e7e603183614a93565b9150614e8982614e24565b604082019050919050565b5f6020820190508181035f830152614eab81614e72565b9050919050565b7f56657269666965722e7665726966794b5a473a20675f6e6167617465312f7a2e5f8201527f59206973206f7574206f662072616e6765000000000000000000000000000000602082015250565b5f614f0c603183614a93565b9150614f1782614eb2565b604082019050919050565b5f6020820190508181035f830152614f3981614f00565b9050919050565b7f56657269666965722e7665726966794b5a473a205f76616c7565206973206f755f8201527f74206f662072616e676500000000000000000000000000000000000000000000602082015250565b5f614f9a602a83614a93565b9150614fa582614f40565b604082019050919050565b5f6020820190508181035f830152614fc781614f8e565b9050919050565b5f614fd9828f61499e565b602082019150614fe9828e61499e565b602082019150614ff9828d61499e565b602082019150615009828c61499e565b602082019150615019828b61499e565b602082019150615029828a61499e565b602082019150615039828961499e565b602082019150615049828861499e565b602082019150615059828761499e565b602082019150615069828661499e565b602082019150615079828561499e565b602082019150615089828461499e565b6020820191508190509d9c50505050505050505050505050565b7f4e487b71000000000000000000000000000000000000000000000000000000005f52601260045260245ffd5b5f6150da82614039565b91506150e583614039565b9250826150f5576150f46150a3565b5b828206905092915050565b7f4e487b71000000000000000000000000000000000000000000000000000000005f52601160045260245ffd5b5f61513782614039565b915061514283614039565b925082615152576151516150a3565b5b828204905092915050565b5f61516782614039565b915061517283614039565b925082820390508181111561518a57615189615100565b5b92915050565b7f56657269666965722e7665726966794b5a473a205f696e646578206973206f755f8201527f74206f662072616e676500000000000000000000000000000000000000000000602082015250565b5f6151ea602a83614a93565b91506151f582615190565b604082019050919050565b5f6020820190508181035f830152615217816151de565b9050919050565b7f70616972696e672d6f70636f64652d6661696c656400000000000000000000005f82015250565b5f615252601583614a93565b915061525d8261521e565b602082019050919050565b5f6020820190508181035f83015261527f81615246565b9050919050565b7f70616972696e672d6d756c2d6661696c656400000000000000000000000000005f82015250565b5f6152ba601283614a93565b91506152c582615286565b602082019050919050565b5f6020820190508181035f8301526152e7816152ae565b9050919050565b7f70616972696e672d6164642d6661696c656400000000000000000000000000005f82015250565b5f615322601283614a93565b915061532d826152ee565b602082019050919050565b5f6020820190508181035f83015261534f81615316565b9050919050565b5f61536082614039565b915061536b83614039565b925082820261537981614039565b915082820484148315176153905761538f615100565b5b5092915050565b5f6153a182614039565b91506153ac83614039565b92508282019050808211156153c4576153c3615100565b5b92915050565b7f4d6f64756c7573206973207a65726f00000000000000000000000000000000005f82015250565b5f6153fe600f83614a93565b9150615409826153ca565b602082019050919050565b5f6020820190508181035f83015261542b816153f2565b905091905056fea26469706673582212206e66d9e13c44f35b7f1a5f8cc402f91a0267d306e92be563df1fef0d81e9d62264736f6c63430008160033",
			"opcodes": "PUSH1 0x80 PUSH1 0x40 MSTORE PUSH1 0x40 MLOAD DUP1 PUSH1 0x40 ADD PUSH1 0x40 MSTORE DUP1 PUSH1 0x40 MLOAD DUP1 PUSH1 0x40 ADD PUSH1 0x40 MSTORE DUP1 PUSH32 0x198E9393920D483A7260BFB731FB5D25F1AA493335A9E71297E485B7AEF312C2 DUP2 MSTORE PUSH1 0x20 ADD PUSH32 0x1800DEEF121F1E76426A00665E5C4479674322D4F75EDADD46DEBD5CD992F6ED DUP2 MSTORE POP DUP2 MSTORE PUSH1 0x20 ADD PUSH1 0x40 MLOAD DUP1 PUSH1 0x40 ADD PUSH1 0x40 MSTORE DUP1 PUSH32 0x90689D0585FF075EC9E99AD690C3395BC4B313370B38EF355ACDADCD122975B DUP2 MSTORE PUSH1 0x20 ADD PUSH32 0x12C85EA5DB8C6DEB4AAB71808DCB408FE3D1E7690C43D37B4CE6CC0166FA7DAA DUP2 MSTORE POP DUP2 MSTORE POP PUSH0 DUP1 DUP3 ADD MLOAD DUP2 PUSH0 ADD SWAP1 PUSH1 0x2 PUSH3 0xD9 SWAP3 SWAP2 SWAP1 PUSH3 0x796 JUMP JUMPDEST POP PUSH1 0x20 DUP3 ADD MLOAD DUP2 PUSH1 0x2 ADD SWAP1 PUSH1 0x2 PUSH3 0xF3 SWAP3 SWAP2 SWAP1 PUSH3 0x796 JUMP JUMPDEST POP POP POP PUSH1 0x40 MLOAD DUP1 PUSH1 0x40 ADD PUSH1 0x40 MSTORE DUP1 PUSH1 0x40 MLOAD DUP1 PUSH1 0x40 ADD PUSH1 0x40 MSTORE DUP1 PUSH32 0x198E9393920D483A7260BFB731FB5D25F1AA493335A9E71297E485B7AEF312C2 DUP2 MSTORE PUSH1 0x20 ADD PUSH32 0x1800DEEF121F1E76426A00665E5C4479674322D4F75EDADD46DEBD5CD992F6ED DUP2 MSTORE POP DUP2 MSTORE PUSH1 0x20 ADD PUSH1 0x40 MLOAD DUP1 PUSH1 0x40 ADD PUSH1 0x40 MSTORE DUP1 PUSH32 0x90689D0585FF075EC9E99AD690C3395BC4B313370B38EF355ACDADCD122975B DUP2 MSTORE PUSH1 0x20 ADD PUSH32 0x12C85EA5DB8C6DEB4AAB71808DCB408FE3D1E7690C43D37B4CE6CC0166FA7DAA DUP2 MSTORE POP DUP2 MSTORE POP PUSH1 0x4 PUSH0 DUP3 ADD MLOAD DUP2 PUSH0 ADD SWAP1 PUSH1 0x2 PUSH3 0x1CC SWAP3 SWAP2 SWAP1 PUSH3 0x796 JUMP JUMPDEST POP PUSH1 0x20 DUP3 ADD MLOAD DUP2 PUSH1 0x2 ADD SWAP1 PUSH1 0x2 PUSH3 0x1E6 SWAP3 SWAP2 SWAP1 PUSH3 0x796 JUMP JUMPDEST POP POP POP PUSH1 0x40 MLOAD DUP1 PUSH1 0x40 ADD PUSH1 0x40 MSTORE DUP1 PUSH1 0x40 MLOAD DUP1 PUSH1 0x40 ADD PUSH1 0x40 MSTORE DUP1 PUSH32 0x198E9393920D483A7260BFB731FB5D25F1AA493335A9E71297E485B7AEF312C2 DUP2 MSTORE PUSH1 0x20 ADD PUSH32 0x1800DEEF121F1E76426A00665E5C4479674322D4F75EDADD46DEBD5CD992F6ED DUP2 MSTORE POP DUP2 MSTORE PUSH1 0x20 ADD PUSH1 0x40 MLOAD DUP1 PUSH1 0x40 ADD PUSH1 0x40 MSTORE DUP1 PUSH32 0x90689D0585FF075EC9E99AD690C3395BC4B313370B38EF355ACDADCD122975B DUP2 MSTORE PUSH1 0x20 ADD PUSH32 0x12C85EA5DB8C6DEB4AAB71808DCB408FE3D1E7690C43D37B4CE6CC0166FA7DAA DUP2 MSTORE POP DUP2 MSTORE POP PUSH1 0x8 PUSH0 DUP3 ADD MLOAD DUP2 PUSH0 ADD SWAP1 PUSH1 0x2 PUSH3 0x2BF SWAP3 SWAP2 SWAP1 PUSH3 0x796 JUMP JUMPDEST POP PUSH1 0x20 DUP3 ADD MLOAD DUP2 PUSH1 0x2 ADD SWAP1 PUSH1 0x2 PUSH3 0x2D9 SWAP3 SWAP2 SWAP1 PUSH3 0x796 JUMP JUMPDEST POP POP POP PUSH1 0x40 MLOAD DUP1 PUSH1 0x40 ADD PUSH1 0x40 MSTORE DUP1 PUSH1 0x40 MLOAD DUP1 PUSH1 0x40 ADD PUSH1 0x40 MSTORE DUP1 PUSH32 0x198E9393920D483A7260BFB731FB5D25F1AA493335A9E71297E485B7AEF312C2 DUP2 MSTORE PUSH1 0x20 ADD PUSH32 0x1800DEEF121F1E76426A00665E5C4479674322D4F75EDADD46DEBD5CD992F6ED DUP2 MSTORE POP DUP2 MSTORE PUSH1 0x20 ADD PUSH1 0x40 MLOAD DUP1 PUSH1 0x40 ADD PUSH1 0x40 MSTORE DUP1 PUSH32 0x90689D0585FF075EC9E99AD690C3395BC4B313370B38EF355ACDADCD122975B DUP2 MSTORE PUSH1 0x20 ADD PUSH32 0x12C85EA5DB8C6DEB4AAB71808DCB408FE3D1E7690C43D37B4CE6CC0166FA7DAA DUP2 MSTORE POP DUP2 MSTORE POP PUSH1 0xC PUSH0 DUP3 ADD MLOAD DUP2 PUSH0 ADD SWAP1 PUSH1 0x2 PUSH3 0x3B2 SWAP3 SWAP2 SWAP1 PUSH3 0x796 JUMP JUMPDEST POP PUSH1 0x20 DUP3 ADD MLOAD DUP2 PUSH1 0x2 ADD SWAP1 PUSH1 0x2 PUSH3 0x3CC SWAP3 SWAP2 SWAP1 PUSH3 0x796 JUMP JUMPDEST POP POP POP PUSH32 0x30644E72E131A029B85045B68181585D2833E84879B9709143E1F593F0000001 DUP1 PUSH3 0x401 JUMPI PUSH3 0x400 PUSH3 0x7F8 JUMP JUMPDEST JUMPDEST PUSH1 0x11 SLOAD PUSH1 0x12 SLOAD MULMOD PUSH1 0x10 SSTORE PUSH1 0x2 PUSH1 0x11 SSTORE PUSH1 0x3 PUSH1 0x12 SSTORE PUSH1 0x4 PUSH1 0x13 SSTORE PUSH1 0x1 PUSH1 0x14 SSTORE PUSH2 0xF28 PUSH1 0x15 SSTORE PUSH2 0x3B0 PUSH1 0x16 SSTORE PUSH2 0xF28 PUSH1 0x17 SSTORE PUSH2 0x43B8 PUSH1 0x18 SSTORE PUSH1 0xC PUSH1 0x19 SSTORE PUSH1 0x16 PUSH1 0x1A SSTORE PUSH1 0xA PUSH1 0x1B SSTORE PUSH1 0x16 PUSH1 0x1C SSTORE PUSH1 0x2E PUSH1 0x1D SSTORE PUSH1 0x2 PUSH1 0x1E SSTORE PUSH32 0x198E9393920D483A7260BFB731FB5D25F1AA493335A9E71297E485B7AEF312C2 PUSH1 0x1F SSTORE PUSH1 0x40 MLOAD DUP1 PUSH1 0x40 ADD PUSH1 0x40 MSTORE DUP1 PUSH32 0x2D2E305D3AB2DC6E0081FFCF4A701F924A1A7296CDC32046C10C0B6F992387B2 DUP2 MSTORE PUSH1 0x20 ADD PUSH32 0x10D4D3CCA369C48670346EF36C6739E885BB11B52038A89C706AACFB7D72D789 DUP2 MSTORE POP PUSH1 0x20 PUSH0 DUP3 ADD MLOAD DUP2 PUSH0 ADD SSTORE PUSH1 0x20 DUP3 ADD MLOAD DUP2 PUSH1 0x1 ADD SSTORE POP POP PUSH1 0x40 MLOAD DUP1 PUSH1 0x40 ADD PUSH1 0x40 MSTORE DUP1 PUSH32 0x2D2E305D3AB2DC6E0081FFCF4A701F924A1A7296CDC32046C10C0B6F992387B2 DUP2 MSTORE PUSH1 0x20 ADD PUSH32 0x10D4D3CCA369C48670346EF36C6739E885BB11B52038A89C706AACFB7D72D789 DUP2 MSTORE POP PUSH1 0x22 PUSH0 DUP3 ADD MLOAD DUP2 PUSH0 ADD SSTORE PUSH1 0x20 DUP3 ADD MLOAD DUP2 PUSH1 0x1 ADD SSTORE POP POP PUSH1 0x40 MLOAD DUP1 PUSH1 0x40 ADD PUSH1 0x40 MSTORE DUP1 PUSH32 0x2D2E305D3AB2DC6E0081FFCF4A701F924A1A7296CDC32046C10C0B6F992387B2 DUP2 MSTORE PUSH1 0x20 ADD PUSH32 0x10D4D3CCA369C48670346EF36C6739E885BB11B52038A89C706AACFB7D72D789 DUP2 MSTORE POP PUSH1 0x24 PUSH0 DUP3 ADD MLOAD DUP2 PUSH0 ADD SSTORE PUSH1 0x20 DUP3 ADD MLOAD DUP2 PUSH1 0x1 ADD SSTORE POP POP PUSH1 0x40 MLOAD DUP1 PUSH1 0x40 ADD PUSH1 0x40 MSTORE DUP1 PUSH32 0x2D2E305D3AB2DC6E0081FFCF4A701F924A1A7296CDC32046C10C0B6F992387B2 DUP2 MSTORE PUSH1 0x20 ADD PUSH32 0x10D4D3CCA369C48670346EF36C6739E885BB11B52038A89C706AACFB7D72D789 DUP2 MSTORE POP PUSH1 0x26 PUSH0 DUP3 ADD MLOAD DUP2 PUSH0 ADD SSTORE PUSH1 0x20 DUP3 ADD MLOAD DUP2 PUSH1 0x1 ADD SSTORE POP POP PUSH1 0x40 MLOAD DUP1 PUSH1 0x40 ADD PUSH1 0x40 MSTORE DUP1 PUSH32 0x2D2E305D3AB2DC6E0081FFCF4A701F924A1A7296CDC32046C10C0B6F992387B2 DUP2 MSTORE PUSH1 0x20 ADD PUSH32 0x10D4D3CCA369C48670346EF36C6739E885BB11B52038A89C706AACFB7D72D789 DUP2 MSTORE POP PUSH1 0x28 PUSH0 DUP3 ADD MLOAD DUP2 PUSH0 ADD SSTORE PUSH1 0x20 DUP3 ADD MLOAD DUP2 PUSH1 0x1 ADD SSTORE POP POP PUSH1 0x40 MLOAD DUP1 PUSH1 0x40 ADD PUSH1 0x40 MSTORE DUP1 PUSH1 0x40 MLOAD DUP1 PUSH1 0x40 ADD PUSH1 0x40 MSTORE DUP1 PUSH32 0x198E9393920D483A7260BFB731FB5D25F1AA493335A9E71297E485B7AEF312C2 DUP2 MSTORE PUSH1 0x20 ADD PUSH32 0x1800DEEF121F1E76426A00665E5C4479674322D4F75EDADD46DEBD5CD992F6ED DUP2 MSTORE POP DUP2 MSTORE PUSH1 0x20 ADD PUSH1 0x40 MLOAD DUP1 PUSH1 0x40 ADD PUSH1 0x40 MSTORE DUP1 PUSH32 0x90689D0585FF075EC9E99AD690C3395BC4B313370B38EF355ACDADCD122975B DUP2 MSTORE PUSH1 0x20 ADD PUSH32 0x12C85EA5DB8C6DEB4AAB71808DCB408FE3D1E7690C43D37B4CE6CC0166FA7DAA DUP2 MSTORE POP DUP2 MSTORE POP PUSH1 0x2A PUSH0 DUP3 ADD MLOAD DUP2 PUSH0 ADD SWAP1 PUSH1 0x2 PUSH3 0x766 SWAP3 SWAP2 SWAP1 PUSH3 0x796 JUMP JUMPDEST POP PUSH1 0x20 DUP3 ADD MLOAD DUP2 PUSH1 0x2 ADD SWAP1 PUSH1 0x2 PUSH3 0x780 SWAP3 SWAP2 SWAP1 PUSH3 0x796 JUMP JUMPDEST POP POP POP CALLVALUE DUP1 ISZERO PUSH3 0x78F JUMPI PUSH0 DUP1 REVERT JUMPDEST POP PUSH3 0x825 JUMP JUMPDEST DUP3 PUSH1 0x2 DUP2 ADD SWAP3 DUP3 ISZERO PUSH3 0x7C8 JUMPI SWAP2 PUSH1 0x20 MUL DUP3 ADD JUMPDEST DUP3 DUP2 GT ISZERO PUSH3 0x7C7 JUMPI DUP3 MLOAD DUP3 SSTORE SWAP2 PUSH1 0x20 ADD SWAP2 SWAP1 PUSH1 0x1 ADD SWAP1 PUSH3 0x7AA JUMP JUMPDEST JUMPDEST POP SWAP1 POP PUSH3 0x7D7 SWAP2 SWAP1 PUSH3 0x7DB JUMP JUMPDEST POP SWAP1 JUMP JUMPDEST JUMPDEST DUP1 DUP3 GT ISZERO PUSH3 0x7F4 JUMPI PUSH0 DUP2 PUSH0 SWAP1 SSTORE POP PUSH1 0x1 ADD PUSH3 0x7DC JUMP JUMPDEST POP SWAP1 JUMP JUMPDEST PUSH32 0x4E487B7100000000000000000000000000000000000000000000000000000000 PUSH0 MSTORE PUSH1 0x12 PUSH1 0x4 MSTORE PUSH1 0x24 PUSH0 REVERT JUMPDEST PUSH2 0x5468 DUP1 PUSH3 0x833 PUSH0 CODECOPY PUSH0 RETURN INVALID PUSH1 0x80 PUSH1 0x40 MSTORE CALLVALUE DUP1 ISZERO PUSH2 0xF JUMPI PUSH0 DUP1 REVERT JUMPDEST POP PUSH1 0x4 CALLDATASIZE LT PUSH2 0x9C JUMPI PUSH0 CALLDATALOAD PUSH1 0xE0 SHR DUP1 PUSH4 0xAEF4A98A GT PUSH2 0x64 JUMPI DUP1 PUSH4 0xAEF4A98A EQ PUSH2 0x190 JUMPI DUP1 PUSH4 0xBDA45338 EQ PUSH2 0x19A JUMPI DUP1 PUSH4 0xBE603B1A EQ PUSH2 0x1CA JUMPI DUP1 PUSH4 0xEF3684D2 EQ PUSH2 0x1FA JUMPI DUP1 PUSH4 0xFC137DEB EQ PUSH2 0x22A JUMPI PUSH2 0x9C JUMP JUMPDEST DUP1 PUSH4 0x3D2AE1F EQ PUSH2 0xA0 JUMPI DUP1 PUSH4 0x1F96439F EQ PUSH2 0xD0 JUMPI DUP1 PUSH4 0x34200B14 EQ PUSH2 0x100 JUMPI DUP1 PUSH4 0x529FBFD8 EQ PUSH2 0x130 JUMPI DUP1 PUSH4 0x9388D55F EQ PUSH2 0x160 JUMPI JUMPDEST PUSH0 DUP1 REVERT JUMPDEST PUSH2 0xBA PUSH1 0x4 DUP1 CALLDATASIZE SUB DUP2 ADD SWAP1 PUSH2 0xB5 SWAP2 SWAP1 PUSH2 0x40B9 JUMP JUMPDEST PUSH2 0x25A JUMP JUMPDEST PUSH1 0x40 MLOAD PUSH2 0xC7 SWAP2 SWAP1 PUSH2 0x4123 JUMP JUMPDEST PUSH1 0x40 MLOAD DUP1 SWAP2 SUB SWAP1 RETURN JUMPDEST PUSH2 0xEA PUSH1 0x4 DUP1 CALLDATASIZE SUB DUP2 ADD SWAP1 PUSH2 0xE5 SWAP2 SWAP1 PUSH2 0x413C JUMP JUMPDEST PUSH2 0x3B3 JUMP JUMPDEST PUSH1 0x40 MLOAD PUSH2 0xF7 SWAP2 SWAP1 PUSH2 0x4192 JUMP JUMPDEST PUSH1 0x40 MLOAD DUP1 SWAP2 SUB SWAP1 RETURN JUMPDEST PUSH2 0x11A PUSH1 0x4 DUP1 CALLDATASIZE SUB DUP2 ADD SWAP1 PUSH2 0x115 SWAP2 SWAP1 PUSH2 0x41AB JUMP JUMPDEST PUSH2 0x3F7 JUMP JUMPDEST PUSH1 0x40 MLOAD PUSH2 0x127 SWAP2 SWAP1 PUSH2 0x4192 JUMP JUMPDEST PUSH1 0x40 MLOAD DUP1 SWAP2 SUB SWAP1 RETURN JUMPDEST PUSH2 0x14A PUSH1 0x4 DUP1 CALLDATASIZE SUB DUP2 ADD SWAP1 PUSH2 0x145 SWAP2 SWAP1 PUSH2 0x439F JUMP JUMPDEST PUSH2 0x453 JUMP JUMPDEST PUSH1 0x40 MLOAD PUSH2 0x157 SWAP2 SWAP1 PUSH2 0x4123 JUMP JUMPDEST PUSH1 0x40 MLOAD DUP1 SWAP2 SUB SWAP1 RETURN JUMPDEST PUSH2 0x17A PUSH1 0x4 DUP1 CALLDATASIZE SUB DUP2 ADD SWAP1 PUSH2 0x175 SWAP2 SWAP1 PUSH2 0x4456 JUMP JUMPDEST PUSH2 0xABA JUMP JUMPDEST PUSH1 0x40 MLOAD PUSH2 0x187 SWAP2 SWAP1 PUSH2 0x4123 JUMP JUMPDEST PUSH1 0x40 MLOAD DUP1 SWAP2 SUB SWAP1 RETURN JUMPDEST PUSH2 0x198 PUSH2 0xE64 JUMP JUMPDEST STOP JUMPDEST PUSH2 0x1B4 PUSH1 0x4 DUP1 CALLDATASIZE SUB DUP2 ADD SWAP1 PUSH2 0x1AF SWAP2 SWAP1 PUSH2 0x4482 JUMP JUMPDEST PUSH2 0x1854 JUMP JUMPDEST PUSH1 0x40 MLOAD PUSH2 0x1C1 SWAP2 SWAP1 PUSH2 0x4192 JUMP JUMPDEST PUSH1 0x40 MLOAD DUP1 SWAP2 SUB SWAP1 RETURN JUMPDEST PUSH2 0x1E4 PUSH1 0x4 DUP1 CALLDATASIZE SUB DUP2 ADD SWAP1 PUSH2 0x1DF SWAP2 SWAP1 PUSH2 0x44E8 JUMP JUMPDEST PUSH2 0x1982 JUMP JUMPDEST PUSH1 0x40 MLOAD PUSH2 0x1F1 SWAP2 SWAP1 PUSH2 0x45F8 JUMP JUMPDEST PUSH1 0x40 MLOAD DUP1 SWAP2 SUB SWAP1 RETURN JUMPDEST PUSH2 0x214 PUSH1 0x4 DUP1 CALLDATASIZE SUB DUP2 ADD SWAP1 PUSH2 0x20F SWAP2 SWAP1 PUSH2 0x4905 JUMP JUMPDEST PUSH2 0x1A1D JUMP JUMPDEST PUSH1 0x40 MLOAD PUSH2 0x221 SWAP2 SWAP1 PUSH2 0x4123 JUMP JUMPDEST PUSH1 0x40 MLOAD DUP1 SWAP2 SUB SWAP1 RETURN JUMPDEST PUSH2 0x244 PUSH1 0x4 DUP1 CALLDATASIZE SUB DUP2 ADD SWAP1 PUSH2 0x23F SWAP2 SWAP1 PUSH2 0x4931 JUMP JUMPDEST PUSH2 0x2179 JUMP JUMPDEST PUSH1 0x40 MLOAD PUSH2 0x251 SWAP2 SWAP1 PUSH2 0x4123 JUMP JUMPDEST PUSH1 0x40 MLOAD DUP1 SWAP2 SUB SWAP1 RETURN JUMPDEST PUSH0 PUSH2 0x39A DUP5 PUSH1 0x8 PUSH1 0x40 MLOAD DUP1 PUSH1 0x40 ADD PUSH1 0x40 MSTORE SWAP1 DUP2 PUSH0 DUP3 ADD PUSH1 0x2 DUP1 PUSH1 0x20 MUL PUSH1 0x40 MLOAD SWAP1 DUP2 ADD PUSH1 0x40 MSTORE DUP1 SWAP3 SWAP2 SWAP1 DUP3 PUSH1 0x2 DUP1 ISZERO PUSH2 0x2A7 JUMPI PUSH1 0x20 MUL DUP3 ADD SWAP2 JUMPDEST DUP2 SLOAD DUP2 MSTORE PUSH1 0x20 ADD SWAP1 PUSH1 0x1 ADD SWAP1 DUP1 DUP4 GT PUSH2 0x293 JUMPI JUMPDEST POP POP POP POP POP DUP2 MSTORE PUSH1 0x20 ADD PUSH1 0x2 DUP3 ADD PUSH1 0x2 DUP1 PUSH1 0x20 MUL PUSH1 0x40 MLOAD SWAP1 DUP2 ADD PUSH1 0x40 MSTORE DUP1 SWAP3 SWAP2 SWAP1 DUP3 PUSH1 0x2 DUP1 ISZERO PUSH2 0x2EC JUMPI PUSH1 0x20 MUL DUP3 ADD SWAP2 JUMPDEST DUP2 SLOAD DUP2 MSTORE PUSH1 0x20 ADD SWAP1 PUSH1 0x1 ADD SWAP1 DUP1 DUP4 GT PUSH2 0x2D8 JUMPI JUMPDEST POP POP POP POP POP DUP2 MSTORE POP POP DUP6 PUSH2 0x395 PUSH1 0xC PUSH1 0x40 MLOAD DUP1 PUSH1 0x40 ADD PUSH1 0x40 MSTORE SWAP1 DUP2 PUSH0 DUP3 ADD PUSH1 0x2 DUP1 PUSH1 0x20 MUL PUSH1 0x40 MLOAD SWAP1 DUP2 ADD PUSH1 0x40 MSTORE DUP1 SWAP3 SWAP2 SWAP1 DUP3 PUSH1 0x2 DUP1 ISZERO PUSH2 0x341 JUMPI PUSH1 0x20 MUL DUP3 ADD SWAP2 JUMPDEST DUP2 SLOAD DUP2 MSTORE PUSH1 0x20 ADD SWAP1 PUSH1 0x1 ADD SWAP1 DUP1 DUP4 GT PUSH2 0x32D JUMPI JUMPDEST POP POP POP POP POP DUP2 MSTORE PUSH1 0x20 ADD PUSH1 0x2 DUP3 ADD PUSH1 0x2 DUP1 PUSH1 0x20 MUL PUSH1 0x40 MLOAD SWAP1 DUP2 ADD PUSH1 0x40 MSTORE DUP1 SWAP3 SWAP2 SWAP1 DUP3 PUSH1 0x2 DUP1 ISZERO PUSH2 0x386 JUMPI PUSH1 0x20 MUL DUP3 ADD SWAP2 JUMPDEST DUP2 SLOAD DUP2 MSTORE PUSH1 0x20 ADD SWAP1 PUSH1 0x1 ADD SWAP1 DUP1 DUP4 GT PUSH2 0x372 JUMPI JUMPDEST POP POP POP POP POP DUP2 MSTORE POP POP DUP8 PUSH2 0x1982 JUMP JUMPDEST PUSH2 0x25E6 JUMP JUMPDEST ISZERO PUSH2 0x3A8 JUMPI PUSH1 0x1 SWAP1 POP PUSH2 0x3AC JUMP JUMPDEST PUSH0 SWAP1 POP JUMPDEST SWAP4 SWAP3 POP POP POP JUMP JUMPDEST PUSH0 DUP3 PUSH0 ADD MLOAD DUP4 PUSH1 0x20 ADD MLOAD DUP4 PUSH0 ADD MLOAD DUP5 PUSH1 0x20 ADD MLOAD PUSH1 0x40 MLOAD PUSH1 0x20 ADD PUSH2 0x3D9 SWAP5 SWAP4 SWAP3 SWAP2 SWAP1 PUSH2 0x49B5 JUMP JUMPDEST PUSH1 0x40 MLOAD PUSH1 0x20 DUP2 DUP4 SUB SUB DUP2 MSTORE SWAP1 PUSH1 0x40 MSTORE DUP1 MLOAD SWAP1 PUSH1 0x20 ADD KECCAK256 SWAP1 POP SWAP3 SWAP2 POP POP JUMP JUMPDEST PUSH0 DUP5 PUSH0 ADD MLOAD DUP6 PUSH1 0x20 ADD MLOAD DUP6 PUSH0 ADD MLOAD DUP7 PUSH1 0x20 ADD MLOAD DUP7 PUSH0 ADD MLOAD DUP8 PUSH1 0x20 ADD MLOAD DUP8 PUSH0 ADD MLOAD DUP9 PUSH1 0x20 ADD MLOAD PUSH1 0x40 MLOAD PUSH1 0x20 ADD PUSH2 0x433 SWAP9 SWAP8 SWAP7 SWAP6 SWAP5 SWAP4 SWAP3 SWAP2 SWAP1 PUSH2 0x4A02 JUMP JUMPDEST PUSH1 0x40 MLOAD PUSH1 0x20 DUP2 DUP4 SUB SUB DUP2 MSTORE SWAP1 PUSH1 0x40 MSTORE DUP1 MLOAD SWAP1 PUSH1 0x20 ADD KECCAK256 SWAP1 POP SWAP5 SWAP4 POP POP POP POP JUMP JUMPDEST PUSH0 PUSH32 0x30644E72E131A029B85045B68181585D2833E84879B9709143E1F593F0000001 DUP3 PUSH0 ADD MLOAD PUSH0 ADD MLOAD LT PUSH2 0x4BC JUMPI PUSH1 0x40 MLOAD PUSH32 0x8C379A000000000000000000000000000000000000000000000000000000000 DUP2 MSTORE PUSH1 0x4 ADD PUSH2 0x4B3 SWAP1 PUSH2 0x4B13 JUMP JUMPDEST PUSH1 0x40 MLOAD DUP1 SWAP2 SUB SWAP1 REVERT JUMPDEST PUSH32 0x30644E72E131A029B85045B68181585D2833E84879B9709143E1F593F0000001 DUP3 PUSH0 ADD MLOAD PUSH1 0x20 ADD MLOAD LT PUSH2 0x525 JUMPI PUSH1 0x40 MLOAD PUSH32 0x8C379A000000000000000000000000000000000000000000000000000000000 DUP2 MSTORE PUSH1 0x4 ADD PUSH2 0x51C SWAP1 PUSH2 0x4BA1 JUMP JUMPDEST PUSH1 0x40 MLOAD DUP1 SWAP2 SUB SWAP1 REVERT JUMPDEST PUSH32 0x30644E72E131A029B85045B68181585D2833E84879B9709143E1F593F0000001 DUP3 PUSH1 0x20 ADD MLOAD PUSH0 ADD MLOAD LT PUSH2 0x58E JUMPI PUSH1 0x40 MLOAD PUSH32 0x8C379A000000000000000000000000000000000000000000000000000000000 DUP2 MSTORE PUSH1 0x4 ADD PUSH2 0x585 SWAP1 PUSH2 0x4C2F JUMP JUMPDEST PUSH1 0x40 MLOAD DUP1 SWAP2 SUB SWAP1 REVERT JUMPDEST PUSH32 0x30644E72E131A029B85045B68181585D2833E84879B9709143E1F593F0000001 DUP3 PUSH1 0x20 ADD MLOAD PUSH1 0x20 ADD MLOAD LT PUSH2 0x5F8 JUMPI PUSH1 0x40 MLOAD PUSH32 0x8C379A000000000000000000000000000000000000000000000000000000000 DUP2 MSTORE PUSH1 0x4 ADD PUSH2 0x5EF SWAP1 PUSH2 0x4CBD JUMP JUMPDEST PUSH1 0x40 MLOAD DUP1 SWAP2 SUB SWAP1 REVERT JUMPDEST PUSH32 0x30644E72E131A029B85045B68181585D2833E84879B9709143E1F593F0000001 DUP3 PUSH1 0x40 ADD MLOAD PUSH0 ADD MLOAD PUSH0 PUSH1 0x2 DUP2 LT PUSH2 0x633 JUMPI PUSH2 0x632 PUSH2 0x4CDB JUMP JUMPDEST JUMPDEST PUSH1 0x20 MUL ADD MLOAD LT PUSH2 0x678 JUMPI PUSH1 0x40 MLOAD PUSH32 0x8C379A000000000000000000000000000000000000000000000000000000000 DUP2 MSTORE PUSH1 0x4 ADD PUSH2 0x66F SWAP1 PUSH2 0x4D78 JUMP JUMPDEST PUSH1 0x40 MLOAD DUP1 SWAP2 SUB SWAP1 REVERT JUMPDEST PUSH32 0x30644E72E131A029B85045B68181585D2833E84879B9709143E1F593F0000001 DUP3 PUSH1 0x40 ADD MLOAD PUSH1 0x20 ADD MLOAD PUSH0 PUSH1 0x2 DUP2 LT PUSH2 0x6B4 JUMPI PUSH2 0x6B3 PUSH2 0x4CDB JUMP JUMPDEST JUMPDEST PUSH1 0x20 MUL ADD MLOAD LT PUSH2 0x6F9 JUMPI PUSH1 0x40 MLOAD PUSH32 0x8C379A000000000000000000000000000000000000000000000000000000000 DUP2 MSTORE PUSH1 0x4 ADD PUSH2 0x6F0 SWAP1 PUSH2 0x4E06 JUMP JUMPDEST PUSH1 0x40 MLOAD DUP1 SWAP2 SUB SWAP1 REVERT JUMPDEST PUSH32 0x30644E72E131A029B85045B68181585D2833E84879B9709143E1F593F0000001 DUP3 PUSH1 0x40 ADD MLOAD PUSH0 ADD MLOAD PUSH1 0x1 PUSH1 0x2 DUP2 LT PUSH2 0x735 JUMPI PUSH2 0x734 PUSH2 0x4CDB JUMP JUMPDEST JUMPDEST PUSH1 0x20 MUL ADD MLOAD LT PUSH2 0x77A JUMPI PUSH1 0x40 MLOAD PUSH32 0x8C379A000000000000000000000000000000000000000000000000000000000 DUP2 MSTORE PUSH1 0x4 ADD PUSH2 0x771 SWAP1 PUSH2 0x4D78 JUMP JUMPDEST PUSH1 0x40 MLOAD DUP1 SWAP2 SUB SWAP1 REVERT JUMPDEST PUSH32 0x30644E72E131A029B85045B68181585D2833E84879B9709143E1F593F0000001 DUP3 PUSH1 0x40 ADD MLOAD PUSH1 0x20 ADD MLOAD PUSH1 0x1 PUSH1 0x2 DUP2 LT PUSH2 0x7B7 JUMPI PUSH2 0x7B6 PUSH2 0x4CDB JUMP JUMPDEST JUMPDEST PUSH1 0x20 MUL ADD MLOAD LT PUSH2 0x7FC JUMPI PUSH1 0x40 MLOAD PUSH32 0x8C379A000000000000000000000000000000000000000000000000000000000 DUP2 MSTORE PUSH1 0x4 ADD PUSH2 0x7F3 SWAP1 PUSH2 0x4E06 JUMP JUMPDEST PUSH1 0x40 MLOAD DUP1 SWAP2 SUB SWAP1 REVERT JUMPDEST PUSH32 0x30644E72E131A029B85045B68181585D2833E84879B9709143E1F593F0000001 DUP3 PUSH1 0x60 ADD MLOAD PUSH0 ADD MLOAD LT PUSH2 0x865 JUMPI PUSH1 0x40 MLOAD PUSH32 0x8C379A000000000000000000000000000000000000000000000000000000000 DUP2 MSTORE PUSH1 0x4 ADD PUSH2 0x85C SWAP1 PUSH2 0x4E94 JUMP JUMPDEST PUSH1 0x40 MLOAD DUP1 SWAP2 SUB SWAP1 REVERT JUMPDEST PUSH32 0x30644E72E131A029B85045B68181585D2833E84879B9709143E1F593F0000001 DUP3 PUSH1 0x60 ADD MLOAD PUSH1 0x20 ADD MLOAD LT PUSH2 0x8CF JUMPI PUSH1 0x40 MLOAD PUSH32 0x8C379A000000000000000000000000000000000000000000000000000000000 DUP2 MSTORE PUSH1 0x4 ADD PUSH2 0x8C6 SWAP1 PUSH2 0x4F22 JUMP JUMPDEST PUSH1 0x40 MLOAD DUP1 SWAP2 SUB SWAP1 REVERT JUMPDEST PUSH32 0x30644E72E131A029B85045B68181585D2833E84879B9709143E1F593F0000001 DUP3 PUSH1 0x80 ADD MLOAD LT PUSH2 0x935 JUMPI PUSH1 0x40 MLOAD PUSH32 0x8C379A000000000000000000000000000000000000000000000000000000000 DUP2 MSTORE PUSH1 0x4 ADD PUSH2 0x92C SWAP1 PUSH2 0x4FB0 JUMP JUMPDEST PUSH1 0x40 MLOAD DUP1 SWAP2 SUB SWAP1 REVERT JUMPDEST PUSH0 PUSH2 0x955 PUSH2 0x94B DUP5 PUSH1 0x60 ADD MLOAD DUP6 PUSH1 0x80 ADD MLOAD PUSH2 0x293B JUMP JUMPDEST DUP5 PUSH1 0x20 ADD MLOAD PUSH2 0x2A0F JUMP JUMPDEST SWAP1 POP PUSH2 0xAA1 DUP4 PUSH1 0x20 ADD MLOAD PUSH1 0xC PUSH1 0x40 MLOAD DUP1 PUSH1 0x40 ADD PUSH1 0x40 MSTORE SWAP1 DUP2 PUSH0 DUP3 ADD PUSH1 0x2 DUP1 PUSH1 0x20 MUL PUSH1 0x40 MLOAD SWAP1 DUP2 ADD PUSH1 0x40 MSTORE DUP1 SWAP3 SWAP2 SWAP1 DUP3 PUSH1 0x2 DUP1 ISZERO PUSH2 0x9A7 JUMPI PUSH1 0x20 MUL DUP3 ADD SWAP2 JUMPDEST DUP2 SLOAD DUP2 MSTORE PUSH1 0x20 ADD SWAP1 PUSH1 0x1 ADD SWAP1 DUP1 DUP4 GT PUSH2 0x993 JUMPI JUMPDEST POP POP POP POP POP DUP2 MSTORE PUSH1 0x20 ADD PUSH1 0x2 DUP3 ADD PUSH1 0x2 DUP1 PUSH1 0x20 MUL PUSH1 0x40 MLOAD SWAP1 DUP2 ADD PUSH1 0x40 MSTORE DUP1 SWAP3 SWAP2 SWAP1 DUP3 PUSH1 0x2 DUP1 ISZERO PUSH2 0x9EC JUMPI PUSH1 0x20 MUL DUP3 ADD SWAP2 JUMPDEST DUP2 SLOAD DUP2 MSTORE PUSH1 0x20 ADD SWAP1 PUSH1 0x1 ADD SWAP1 DUP1 DUP4 GT PUSH2 0x9D8 JUMPI JUMPDEST POP POP POP POP POP DUP2 MSTORE POP POP DUP4 DUP7 PUSH1 0x40 ADD MLOAD PUSH2 0xA07 DUP9 PUSH0 ADD MLOAD PUSH2 0x2B08 JUMP JUMPDEST PUSH0 PUSH1 0x40 MLOAD DUP1 PUSH1 0x40 ADD PUSH1 0x40 MSTORE SWAP1 DUP2 PUSH0 DUP3 ADD PUSH1 0x2 DUP1 PUSH1 0x20 MUL PUSH1 0x40 MLOAD SWAP1 DUP2 ADD PUSH1 0x40 MSTORE DUP1 SWAP3 SWAP2 SWAP1 DUP3 PUSH1 0x2 DUP1 ISZERO PUSH2 0xA4E JUMPI PUSH1 0x20 MUL DUP3 ADD SWAP2 JUMPDEST DUP2 SLOAD DUP2 MSTORE PUSH1 0x20 ADD SWAP1 PUSH1 0x1 ADD SWAP1 DUP1 DUP4 GT PUSH2 0xA3A JUMPI JUMPDEST POP POP POP POP POP DUP2 MSTORE PUSH1 0x20 ADD PUSH1 0x2 DUP3 ADD PUSH1 0x2 DUP1 PUSH1 0x20 MUL PUSH1 0x40 MLOAD SWAP1 DUP2 ADD PUSH1 0x40 MSTORE DUP1 SWAP3 SWAP2 SWAP1 DUP3 PUSH1 0x2 DUP1 ISZERO PUSH2 0xA93 JUMPI PUSH1 0x20 MUL DUP3 ADD SWAP2 JUMPDEST DUP2 SLOAD DUP2 MSTORE PUSH1 0x20 ADD SWAP1 PUSH1 0x1 ADD SWAP1 DUP1 DUP4 GT PUSH2 0xA7F JUMPI JUMPDEST POP POP POP POP POP DUP2 MSTORE POP POP PUSH2 0x2BC0 JUMP JUMPDEST ISZERO PUSH2 0xAB0 JUMPI PUSH1 0x1 SWAP2 POP POP PUSH2 0xAB5 JUMP JUMPDEST PUSH0 SWAP2 POP POP JUMPDEST SWAP2 SWAP1 POP JUMP JUMPDEST PUSH0 DUP1 PUSH2 0xAD1 PUSH2 0xAC7 PUSH2 0x2F12 JUMP JUMPDEST DUP5 PUSH1 0x40 ADD MLOAD PUSH2 0x293B JUMP JUMPDEST SWAP1 POP PUSH0 PUSH2 0xB0D DUP5 PUSH0 ADD MLOAD PUSH2 0xB08 PUSH1 0x28 PUSH1 0x40 MLOAD DUP1 PUSH1 0x40 ADD PUSH1 0x40 MSTORE SWAP1 DUP2 PUSH0 DUP3 ADD SLOAD DUP2 MSTORE PUSH1 0x20 ADD PUSH1 0x1 DUP3 ADD SLOAD DUP2 MSTORE POP POP DUP8 PUSH1 0x80 ADD MLOAD PUSH2 0x293B JUMP JUMPDEST PUSH2 0x2A0F JUMP JUMPDEST SWAP1 POP PUSH0 PUSH2 0xBB3 PUSH1 0x4 PUSH1 0x40 MLOAD DUP1 PUSH1 0x40 ADD PUSH1 0x40 MSTORE SWAP1 DUP2 PUSH0 DUP3 ADD PUSH1 0x2 DUP1 PUSH1 0x20 MUL PUSH1 0x40 MLOAD SWAP1 DUP2 ADD PUSH1 0x40 MSTORE DUP1 SWAP3 SWAP2 SWAP1 DUP3 PUSH1 0x2 DUP1 ISZERO PUSH2 0xB5B JUMPI PUSH1 0x20 MUL DUP3 ADD SWAP2 JUMPDEST DUP2 SLOAD DUP2 MSTORE PUSH1 0x20 ADD SWAP1 PUSH1 0x1 ADD SWAP1 DUP1 DUP4 GT PUSH2 0xB47 JUMPI JUMPDEST POP POP POP POP POP DUP2 MSTORE PUSH1 0x20 ADD PUSH1 0x2 DUP3 ADD PUSH1 0x2 DUP1 PUSH1 0x20 MUL PUSH1 0x40 MLOAD SWAP1 DUP2 ADD PUSH1 0x40 MSTORE DUP1 SWAP3 SWAP2 SWAP1 DUP3 PUSH1 0x2 DUP1 ISZERO PUSH2 0xBA0 JUMPI PUSH1 0x20 MUL DUP3 ADD SWAP2 JUMPDEST DUP2 SLOAD DUP2 MSTORE PUSH1 0x20 ADD SWAP1 PUSH1 0x1 ADD SWAP1 DUP1 DUP4 GT PUSH2 0xB8C JUMPI JUMPDEST POP POP POP POP POP DUP2 MSTORE POP POP DUP7 PUSH1 0x60 ADD MLOAD PUSH2 0x1982 JUMP JUMPDEST SWAP1 POP PUSH0 PUSH2 0xC64 DUP7 PUSH1 0x20 ADD MLOAD PUSH2 0xC5F PUSH1 0xC PUSH1 0x40 MLOAD DUP1 PUSH1 0x40 ADD PUSH1 0x40 MSTORE SWAP1 DUP2 PUSH0 DUP3 ADD PUSH1 0x2 DUP1 PUSH1 0x20 MUL PUSH1 0x40 MLOAD SWAP1 DUP2 ADD PUSH1 0x40 MSTORE DUP1 SWAP3 SWAP2 SWAP1 DUP3 PUSH1 0x2 DUP1 ISZERO PUSH2 0xC09 JUMPI PUSH1 0x20 MUL DUP3 ADD SWAP2 JUMPDEST DUP2 SLOAD DUP2 MSTORE PUSH1 0x20 ADD SWAP1 PUSH1 0x1 ADD SWAP1 DUP1 DUP4 GT PUSH2 0xBF5 JUMPI JUMPDEST POP POP POP POP POP DUP2 MSTORE PUSH1 0x20 ADD PUSH1 0x2 DUP3 ADD PUSH1 0x2 DUP1 PUSH1 0x20 MUL PUSH1 0x40 MLOAD SWAP1 DUP2 ADD PUSH1 0x40 MSTORE DUP1 SWAP3 SWAP2 SWAP1 DUP3 PUSH1 0x2 DUP1 ISZERO PUSH2 0xC4E JUMPI PUSH1 0x20 MUL DUP3 ADD SWAP2 JUMPDEST DUP2 SLOAD DUP2 MSTORE PUSH1 0x20 ADD SWAP1 PUSH1 0x1 ADD SWAP1 DUP1 DUP4 GT PUSH2 0xC3A JUMPI JUMPDEST POP POP POP POP POP DUP2 MSTORE POP POP PUSH1 0x14 SLOAD PUSH2 0x1982 JUMP JUMPDEST PUSH2 0x2F36 JUMP JUMPDEST SWAP1 POP DUP3 PUSH0 ADD MLOAD DUP5 PUSH0 ADD MLOAD EQ DUP1 ISZERO PUSH2 0xC82 JUMPI POP DUP3 PUSH1 0x20 ADD MLOAD DUP5 PUSH1 0x20 ADD MLOAD EQ JUMPDEST DUP1 ISZERO PUSH2 0xCC3 JUMPI POP DUP1 PUSH0 ADD MLOAD PUSH1 0x1 PUSH1 0x2 DUP2 LT PUSH2 0xCA0 JUMPI PUSH2 0xC9F PUSH2 0x4CDB JUMP JUMPDEST JUMPDEST PUSH1 0x20 MUL ADD MLOAD DUP3 PUSH0 ADD MLOAD PUSH1 0x1 PUSH1 0x2 DUP2 LT PUSH2 0xCBC JUMPI PUSH2 0xCBB PUSH2 0x4CDB JUMP JUMPDEST JUMPDEST PUSH1 0x20 MUL ADD MLOAD EQ JUMPDEST DUP1 ISZERO PUSH2 0xD03 JUMPI POP DUP1 PUSH0 ADD MLOAD PUSH0 PUSH1 0x2 DUP2 LT PUSH2 0xCE0 JUMPI PUSH2 0xCDF PUSH2 0x4CDB JUMP JUMPDEST JUMPDEST PUSH1 0x20 MUL ADD MLOAD DUP3 PUSH1 0x20 ADD MLOAD PUSH0 PUSH1 0x2 DUP2 LT PUSH2 0xCFC JUMPI PUSH2 0xCFB PUSH2 0x4CDB JUMP JUMPDEST JUMPDEST PUSH1 0x20 MUL ADD MLOAD EQ JUMPDEST DUP1 ISZERO PUSH2 0xD43 JUMPI POP DUP1 PUSH0 ADD MLOAD PUSH0 PUSH1 0x2 DUP2 LT PUSH2 0xD20 JUMPI PUSH2 0xD1F PUSH2 0x4CDB JUMP JUMPDEST JUMPDEST PUSH1 0x20 MUL ADD MLOAD DUP3 PUSH1 0x20 ADD MLOAD PUSH0 PUSH1 0x2 DUP2 LT PUSH2 0xD3C JUMPI PUSH2 0xD3B PUSH2 0x4CDB JUMP JUMPDEST JUMPDEST PUSH1 0x20 MUL ADD MLOAD EQ JUMPDEST DUP1 ISZERO PUSH2 0xD86 JUMPI POP DUP1 PUSH1 0x20 ADD MLOAD PUSH1 0x1 PUSH1 0x2 DUP2 LT PUSH2 0xD62 JUMPI PUSH2 0xD61 PUSH2 0x4CDB JUMP JUMPDEST JUMPDEST PUSH1 0x20 MUL ADD MLOAD DUP3 PUSH1 0x20 ADD MLOAD PUSH1 0x1 PUSH1 0x2 DUP2 LT PUSH2 0xD7F JUMPI PUSH2 0xD7E PUSH2 0x4CDB JUMP JUMPDEST JUMPDEST PUSH1 0x20 MUL ADD MLOAD EQ JUMPDEST DUP1 ISZERO PUSH2 0xE45 JUMPI POP PUSH2 0xE3C PUSH2 0xD98 PUSH2 0x2F12 JUMP JUMPDEST PUSH1 0x4 PUSH1 0x40 MLOAD DUP1 PUSH1 0x40 ADD PUSH1 0x40 MSTORE SWAP1 DUP2 PUSH0 DUP3 ADD PUSH1 0x2 DUP1 PUSH1 0x20 MUL PUSH1 0x40 MLOAD SWAP1 DUP2 ADD PUSH1 0x40 MSTORE DUP1 SWAP3 SWAP2 SWAP1 DUP3 PUSH1 0x2 DUP1 ISZERO PUSH2 0xDE0 JUMPI PUSH1 0x20 MUL DUP3 ADD SWAP2 JUMPDEST DUP2 SLOAD DUP2 MSTORE PUSH1 0x20 ADD SWAP1 PUSH1 0x1 ADD SWAP1 DUP1 DUP4 GT PUSH2 0xDCC JUMPI JUMPDEST POP POP POP POP POP DUP2 MSTORE PUSH1 0x20 ADD PUSH1 0x2 DUP3 ADD PUSH1 0x2 DUP1 PUSH1 0x20 MUL PUSH1 0x40 MLOAD SWAP1 DUP2 ADD PUSH1 0x40 MSTORE DUP1 SWAP3 SWAP2 SWAP1 DUP3 PUSH1 0x2 DUP1 ISZERO PUSH2 0xE25 JUMPI PUSH1 0x20 MUL DUP3 ADD SWAP2 JUMPDEST DUP2 SLOAD DUP2 MSTORE PUSH1 0x20 ADD SWAP1 PUSH1 0x1 ADD SWAP1 DUP1 DUP4 GT PUSH2 0xE11 JUMPI JUMPDEST POP POP POP POP POP DUP2 MSTORE POP POP DUP9 PUSH0 ADD MLOAD DUP10 PUSH1 0x20 ADD MLOAD PUSH2 0x1854 JUMP JUMPDEST PUSH0 SHR DUP7 PUSH1 0x80 ADD MLOAD EQ JUMPDEST ISZERO PUSH2 0xE57 JUMPI PUSH1 0x1 SWAP5 POP POP POP POP POP PUSH2 0xE5F JUMP JUMPDEST PUSH0 SWAP5 POP POP POP POP POP JUMPDEST SWAP2 SWAP1 POP JUMP JUMPDEST PUSH2 0x1851 PUSH1 0x40 MLOAD DUP1 PUSH2 0x420 ADD PUSH1 0x40 MSTORE DUP1 PUSH1 0x40 MLOAD DUP1 PUSH1 0xA0 ADD PUSH1 0x40 MSTORE DUP1 PUSH1 0x40 MLOAD DUP1 PUSH1 0x40 ADD PUSH1 0x40 MSTORE DUP1 PUSH32 0x2D2E305D3AB2DC6E0081FFCF4A701F924A1A7296CDC32046C10C0B6F992387B2 DUP2 MSTORE PUSH1 0x20 ADD PUSH32 0x10D4D3CCA369C48670346EF36C6739E885BB11B52038A89C706AACFB7D72D789 DUP2 MSTORE POP DUP2 MSTORE PUSH1 0x20 ADD PUSH1 0x40 MLOAD DUP1 PUSH1 0x40 ADD PUSH1 0x40 MSTORE DUP1 PUSH1 0x40 MLOAD DUP1 PUSH1 0x40 ADD PUSH1 0x40 MSTORE DUP1 PUSH32 0x198E9393920D483A7260BFB731FB5D25F1AA493335A9E71297E485B7AEF312C2 DUP2 MSTORE PUSH1 0x20 ADD PUSH32 0x1800DEEF121F1E76426A00665E5C4479674322D4F75EDADD46DEBD5CD992F6ED DUP2 MSTORE POP DUP2 MSTORE PUSH1 0x20 ADD PUSH1 0x40 MLOAD DUP1 PUSH1 0x40 ADD PUSH1 0x40 MSTORE DUP1 PUSH32 0x90689D0585FF075EC9E99AD690C3395BC4B313370B38EF355ACDADCD122975B DUP2 MSTORE PUSH1 0x20 ADD PUSH32 0x12C85EA5DB8C6DEB4AAB71808DCB408FE3D1E7690C43D37B4CE6CC0166FA7DAA DUP2 MSTORE POP DUP2 MSTORE POP DUP2 MSTORE PUSH1 0x20 ADD PUSH1 0x1 DUP2 MSTORE PUSH1 0x20 ADD PUSH1 0x2 DUP2 MSTORE PUSH1 0x20 ADD PUSH1 0x3 DUP2 MSTORE POP DUP2 MSTORE PUSH1 0x20 ADD PUSH1 0x40 MLOAD DUP1 PUSH1 0x40 ADD PUSH1 0x40 MSTORE DUP1 PUSH32 0x2D2E305D3AB2DC6E0081FFCF4A701F924A1A7296CDC32046C10C0B6F992387B2 DUP2 MSTORE PUSH1 0x20 ADD PUSH32 0x10D4D3CCA369C48670346EF36C6739E885BB11B52038A89C706AACFB7D72D789 DUP2 MSTORE POP DUP2 MSTORE PUSH1 0x20 ADD PUSH1 0x40 MLOAD DUP1 PUSH1 0x40 ADD PUSH1 0x40 MSTORE DUP1 PUSH32 0x2D2E305D3AB2DC6E0081FFCF4A701F924A1A7296CDC32046C10C0B6F992387B2 DUP2 MSTORE PUSH1 0x20 ADD PUSH32 0x10D4D3CCA369C48670346EF36C6739E885BB11B52038A89C706AACFB7D72D789 DUP2 MSTORE POP DUP2 MSTORE PUSH1 0x20 ADD PUSH1 0x40 MLOAD DUP1 PUSH1 0x40 ADD PUSH1 0x40 MSTORE DUP1 PUSH32 0x2D2E305D3AB2DC6E0081FFCF4A701F924A1A7296CDC32046C10C0B6F992387B2 DUP2 MSTORE PUSH1 0x20 ADD PUSH32 0x10D4D3CCA369C48670346EF36C6739E885BB11B52038A89C706AACFB7D72D789 DUP2 MSTORE POP DUP2 MSTORE PUSH1 0x20 ADD PUSH1 0x40 MLOAD DUP1 PUSH1 0x40 ADD PUSH1 0x40 MSTORE DUP1 PUSH32 0x2D2E305D3AB2DC6E0081FFCF4A701F924A1A7296CDC32046C10C0B6F992387B2 DUP2 MSTORE PUSH1 0x20 ADD PUSH32 0x10D4D3CCA369C48670346EF36C6739E885BB11B52038A89C706AACFB7D72D789 DUP2 MSTORE POP DUP2 MSTORE PUSH1 0x20 ADD PUSH1 0x40 MLOAD DUP1 PUSH1 0x40 ADD PUSH1 0x40 MSTORE DUP1 PUSH32 0x2D2E305D3AB2DC6E0081FFCF4A701F924A1A7296CDC32046C10C0B6F992387B2 DUP2 MSTORE PUSH1 0x20 ADD PUSH32 0x10D4D3CCA369C48670346EF36C6739E885BB11B52038A89C706AACFB7D72D789 DUP2 MSTORE POP DUP2 MSTORE PUSH1 0x20 ADD PUSH1 0x40 MLOAD DUP1 PUSH1 0x40 ADD PUSH1 0x40 MSTORE DUP1 PUSH32 0x2D2E305D3AB2DC6E0081FFCF4A701F924A1A7296CDC32046C10C0B6F992387B2 DUP2 MSTORE PUSH1 0x20 ADD PUSH32 0x10D4D3CCA369C48670346EF36C6739E885BB11B52038A89C706AACFB7D72D789 DUP2 MSTORE POP DUP2 MSTORE PUSH1 0x20 ADD PUSH1 0x40 MLOAD DUP1 PUSH1 0x40 ADD PUSH1 0x40 MSTORE DUP1 PUSH32 0x2D2E305D3AB2DC6E0081FFCF4A701F924A1A7296CDC32046C10C0B6F992387B2 DUP2 MSTORE PUSH1 0x20 ADD PUSH32 0x10D4D3CCA369C48670346EF36C6739E885BB11B52038A89C706AACFB7D72D789 DUP2 MSTORE POP DUP2 MSTORE PUSH1 0x20 ADD PUSH1 0x40 MLOAD DUP1 PUSH1 0x40 ADD PUSH1 0x40 MSTORE DUP1 PUSH32 0x2D2E305D3AB2DC6E0081FFCF4A701F924A1A7296CDC32046C10C0B6F992387B2 DUP2 MSTORE PUSH1 0x20 ADD PUSH32 0x10D4D3CCA369C48670346EF36C6739E885BB11B52038A89C706AACFB7D72D789 DUP2 MSTORE POP DUP2 MSTORE PUSH1 0x20 ADD PUSH1 0x40 MLOAD DUP1 PUSH1 0x40 ADD PUSH1 0x40 MSTORE DUP1 PUSH32 0x2D2E305D3AB2DC6E0081FFCF4A701F924A1A7296CDC32046C10C0B6F992387B2 DUP2 MSTORE PUSH1 0x20 ADD PUSH32 0x10D4D3CCA369C48670346EF36C6739E885BB11B52038A89C706AACFB7D72D789 DUP2 MSTORE POP DUP2 MSTORE PUSH1 0x20 ADD PUSH1 0x40 MLOAD DUP1 PUSH1 0x40 ADD PUSH1 0x40 MSTORE DUP1 PUSH32 0x2D2E305D3AB2DC6E0081FFCF4A701F924A1A7296CDC32046C10C0B6F992387B2 DUP2 MSTORE PUSH1 0x20 ADD PUSH32 0x10D4D3CCA369C48670346EF36C6739E885BB11B52038A89C706AACFB7D72D789 DUP2 MSTORE POP DUP2 MSTORE PUSH1 0x20 ADD PUSH1 0x40 MLOAD DUP1 PUSH1 0x40 ADD PUSH1 0x40 MSTORE DUP1 PUSH32 0x2D2E305D3AB2DC6E0081FFCF4A701F924A1A7296CDC32046C10C0B6F992387B2 DUP2 MSTORE PUSH1 0x20 ADD PUSH32 0x10D4D3CCA369C48670346EF36C6739E885BB11B52038A89C706AACFB7D72D789 DUP2 MSTORE POP DUP2 MSTORE PUSH1 0x20 ADD PUSH1 0x40 MLOAD DUP1 PUSH1 0x40 ADD PUSH1 0x40 MSTORE DUP1 PUSH32 0x2D2E305D3AB2DC6E0081FFCF4A701F924A1A7296CDC32046C10C0B6F992387B2 DUP2 MSTORE PUSH1 0x20 ADD PUSH32 0x10D4D3CCA369C48670346EF36C6739E885BB11B52038A89C706AACFB7D72D789 DUP2 MSTORE POP DUP2 MSTORE PUSH1 0x20 ADD PUSH1 0x40 MLOAD DUP1 PUSH1 0x40 ADD PUSH1 0x40 MSTORE DUP1 PUSH32 0x2D2E305D3AB2DC6E0081FFCF4A701F924A1A7296CDC32046C10C0B6F992387B2 DUP2 MSTORE PUSH1 0x20 ADD PUSH32 0x10D4D3CCA369C48670346EF36C6739E885BB11B52038A89C706AACFB7D72D789 DUP2 MSTORE POP DUP2 MSTORE PUSH1 0x20 ADD PUSH32 0x10D4D3CCA369C48670346EF36C6739E885BB11B52038A89C706AACFB7D72D789 DUP2 MSTORE PUSH1 0x20 ADD PUSH32 0x2D2E305D3AB2DC6E0081FFCF4A701F924A1A7296CDC32046C10C0B6F992387B2 DUP2 MSTORE PUSH1 0x20 ADD PUSH32 0x10D4D3CCA369C48670346EF36C6739E885BB11B52038A89C706AACFB7D72D789 DUP2 MSTORE PUSH1 0x20 ADD PUSH32 0x2D2E305D3AB2DC6E0081FFCF4A701F924A1A7296CDC32046C10C0B6F992387B2 DUP2 MSTORE PUSH1 0x20 ADD PUSH32 0x19A48669CCF72C593144962560F593B667DAA2052D1CDCC2500BB3B003C073C9 DUP2 MSTORE PUSH1 0x20 ADD PUSH32 0x2D2E305D3AB2DC6E0081FFCF4A701F924A1A7296CDC32046C10C0B6F992387B2 DUP2 MSTORE PUSH1 0x20 ADD PUSH32 0x2D2E305D3AB2DC6E0081FFCF4A701F924A1A7296CDC32046C10C0B6F992387B2 DUP2 MSTORE PUSH1 0x20 ADD PUSH32 0x10D4D3CCA369C48670346EF36C6739E885BB11B52038A89C706AACFB7D72D789 DUP2 MSTORE PUSH1 0x20 ADD PUSH32 0x10D4D3CCA369C48670346EF36C6739E885BB11B52038A89C706AACFB7D72D789 DUP2 MSTORE PUSH1 0x20 ADD PUSH32 0x10D4D3CCA369C48670346EF36C6739E885BB11B52038A89C706AACFB7D72D789 DUP2 MSTORE PUSH1 0x20 ADD PUSH32 0xD1F3F69E4AE12D40127FEF4D583BBEBE1B49BFAF4271544B2AA1AAA91660B3C DUP2 MSTORE PUSH1 0x20 ADD PUSH32 0xD1F3F69E4AE12D40127FEF4D583BBEBE1B49BFAF4271544B2AA1AAA91660B3C DUP2 MSTORE PUSH1 0x20 ADD PUSH32 0xD1F3F69E4AE12D40127FEF4D583BBEBE1B49BFAF4271544B2AA1AAA91660B3C DUP2 MSTORE PUSH1 0x20 ADD PUSH1 0x40 MLOAD DUP1 PUSH1 0x40 ADD PUSH1 0x40 MSTORE DUP1 PUSH32 0x2D2E305D3AB2DC6E0081FFCF4A701F924A1A7296CDC32046C10C0B6F992387B2 DUP2 MSTORE PUSH1 0x20 ADD PUSH32 0x10D4D3CCA369C48670346EF36C6739E885BB11B52038A89C706AACFB7D72D789 DUP2 MSTORE POP DUP2 MSTORE PUSH1 0x20 ADD PUSH1 0x40 MLOAD DUP1 PUSH1 0x40 ADD PUSH1 0x40 MSTORE DUP1 PUSH32 0x2D2E305D3AB2DC6E0081FFCF4A701F924A1A7296CDC32046C10C0B6F992387B2 DUP2 MSTORE PUSH1 0x20 ADD PUSH32 0x10D4D3CCA369C48670346EF36C6739E885BB11B52038A89C706AACFB7D72D789 DUP2 MSTORE POP DUP2 MSTORE PUSH1 0x20 ADD PUSH1 0x40 MLOAD DUP1 PUSH1 0x40 ADD PUSH1 0x40 MSTORE DUP1 PUSH32 0x2D2E305D3AB2DC6E0081FFCF4A701F924A1A7296CDC32046C10C0B6F992387B2 DUP2 MSTORE PUSH1 0x20 ADD PUSH32 0x10D4D3CCA369C48670346EF36C6739E885BB11B52038A89C706AACFB7D72D789 DUP2 MSTORE POP DUP2 MSTORE PUSH1 0x20 ADD PUSH1 0x40 MLOAD DUP1 PUSH1 0x40 ADD PUSH1 0x40 MSTORE DUP1 PUSH32 0x2D2E305D3AB2DC6E0081FFCF4A701F924A1A7296CDC32046C10C0B6F992387B2 DUP2 MSTORE PUSH1 0x20 ADD PUSH32 0x10D4D3CCA369C48670346EF36C6739E885BB11B52038A89C706AACFB7D72D789 DUP2 MSTORE POP DUP2 MSTORE PUSH1 0x20 ADD PUSH1 0x40 MLOAD DUP1 PUSH1 0x40 ADD PUSH1 0x40 MSTORE DUP1 PUSH32 0x2D2E305D3AB2DC6E0081FFCF4A701F924A1A7296CDC32046C10C0B6F992387B2 DUP2 MSTORE PUSH1 0x20 ADD PUSH32 0x10D4D3CCA369C48670346EF36C6739E885BB11B52038A89C706AACFB7D72D789 DUP2 MSTORE POP DUP2 MSTORE PUSH1 0x20 ADD PUSH1 0x40 MLOAD DUP1 PUSH1 0x40 ADD PUSH1 0x40 MSTORE DUP1 PUSH32 0x2D2E305D3AB2DC6E0081FFCF4A701F924A1A7296CDC32046C10C0B6F992387B2 DUP2 MSTORE PUSH1 0x20 ADD PUSH32 0x10D4D3CCA369C48670346EF36C6739E885BB11B52038A89C706AACFB7D72D789 DUP2 MSTORE POP DUP2 MSTORE POP PUSH2 0x1A1D JUMP JUMPDEST POP JUMP JUMPDEST PUSH0 DUP5 PUSH0 ADD MLOAD DUP6 PUSH1 0x20 ADD MLOAD DUP6 PUSH0 ADD MLOAD PUSH0 PUSH1 0x2 DUP2 LT PUSH2 0x1874 JUMPI PUSH2 0x1873 PUSH2 0x4CDB JUMP JUMPDEST JUMPDEST PUSH1 0x20 MUL ADD MLOAD DUP7 PUSH0 ADD MLOAD PUSH1 0x1 PUSH1 0x2 DUP2 LT PUSH2 0x1890 JUMPI PUSH2 0x188F PUSH2 0x4CDB JUMP JUMPDEST JUMPDEST PUSH1 0x20 MUL ADD MLOAD DUP8 PUSH1 0x20 ADD MLOAD PUSH0 PUSH1 0x2 DUP2 LT PUSH2 0x18AC JUMPI PUSH2 0x18AB PUSH2 0x4CDB JUMP JUMPDEST JUMPDEST PUSH1 0x20 MUL ADD MLOAD DUP9 PUSH1 0x20 ADD MLOAD PUSH1 0x1 PUSH1 0x2 DUP2 LT PUSH2 0x18C9 JUMPI PUSH2 0x18C8 PUSH2 0x4CDB JUMP JUMPDEST JUMPDEST PUSH1 0x20 MUL ADD MLOAD DUP9 PUSH0 ADD MLOAD DUP10 PUSH1 0x20 ADD MLOAD DUP10 PUSH0 ADD MLOAD PUSH0 PUSH1 0x2 DUP2 LT PUSH2 0x18ED JUMPI PUSH2 0x18EC PUSH2 0x4CDB JUMP JUMPDEST JUMPDEST PUSH1 0x20 MUL ADD MLOAD DUP11 PUSH0 ADD MLOAD PUSH1 0x1 PUSH1 0x2 DUP2 LT PUSH2 0x1909 JUMPI PUSH2 0x1908 PUSH2 0x4CDB JUMP JUMPDEST JUMPDEST PUSH1 0x20 MUL ADD MLOAD DUP12 PUSH1 0x20 ADD MLOAD PUSH0 PUSH1 0x2 DUP2 LT PUSH2 0x1925 JUMPI PUSH2 0x1924 PUSH2 0x4CDB JUMP JUMPDEST JUMPDEST PUSH1 0x20 MUL ADD MLOAD DUP13 PUSH1 0x20 ADD MLOAD PUSH1 0x1 PUSH1 0x2 DUP2 LT PUSH2 0x1942 JUMPI PUSH2 0x1941 PUSH2 0x4CDB JUMP JUMPDEST JUMPDEST PUSH1 0x20 MUL ADD MLOAD PUSH1 0x40 MLOAD PUSH1 0x20 ADD PUSH2 0x1962 SWAP13 SWAP12 SWAP11 SWAP10 SWAP9 SWAP8 SWAP7 SWAP6 SWAP5 SWAP4 SWAP3 SWAP2 SWAP1 PUSH2 0x4FCE JUMP JUMPDEST PUSH1 0x40 MLOAD PUSH1 0x20 DUP2 DUP4 SUB SUB DUP2 MSTORE SWAP1 PUSH1 0x40 MSTORE DUP1 MLOAD SWAP1 PUSH1 0x20 ADD KECCAK256 SWAP1 POP SWAP5 SWAP4 POP POP POP POP JUMP JUMPDEST PUSH2 0x198A PUSH2 0x3EAC JUMP JUMPDEST PUSH0 PUSH1 0x40 MLOAD DUP1 PUSH1 0x40 ADD PUSH1 0x40 MSTORE DUP1 PUSH1 0x40 MLOAD DUP1 PUSH1 0x40 ADD PUSH1 0x40 MSTORE DUP1 PUSH0 DUP2 MSTORE PUSH1 0x20 ADD PUSH0 DUP2 MSTORE POP DUP2 MSTORE PUSH1 0x20 ADD PUSH1 0x40 MLOAD DUP1 PUSH1 0x40 ADD PUSH1 0x40 MSTORE DUP1 PUSH0 DUP2 MSTORE PUSH1 0x20 ADD PUSH0 DUP2 MSTORE POP DUP2 MSTORE POP SWAP1 POP JUMPDEST PUSH0 DUP4 GT ISZERO PUSH2 0x1A13 JUMPI PUSH1 0x1 PUSH1 0x2 DUP5 PUSH2 0x19E2 SWAP2 SWAP1 PUSH2 0x50D0 JUMP JUMPDEST SUB PUSH2 0x19F4 JUMPI PUSH2 0x19F1 DUP2 DUP6 PUSH2 0x2F36 JUMP JUMPDEST SWAP1 POP JUMPDEST PUSH1 0x2 DUP4 PUSH2 0x1A01 SWAP2 SWAP1 PUSH2 0x512D JUMP JUMPDEST SWAP3 POP PUSH2 0x1A0C DUP5 PUSH2 0x3600 JUMP JUMPDEST SWAP4 POP PUSH2 0x19CB JUMP JUMPDEST DUP1 SWAP2 POP POP SWAP3 SWAP2 POP POP JUMP JUMPDEST PUSH0 DUP1 PUSH1 0x1F SLOAD TIMESTAMP LT SWAP1 POP PUSH2 0x1A3C DUP4 PUSH2 0x3E0 ADD MLOAD DUP5 PUSH2 0x400 ADD MLOAD PUSH1 0x1 PUSH2 0x25A JUMP JUMPDEST SWAP1 POP PUSH2 0x1A4A DUP4 PUSH0 ADD MLOAD PUSH2 0xABA JUMP JUMPDEST SWAP1 POP PUSH2 0x1A68 DUP4 PUSH2 0x360 ADD MLOAD DUP5 PUSH1 0x20 ADD MLOAD PUSH1 0x11 SLOAD DUP7 PUSH2 0x1C0 ADD MLOAD PUSH2 0x2179 JUMP JUMPDEST SWAP1 POP PUSH2 0x1A86 DUP4 PUSH2 0x380 ADD MLOAD DUP5 PUSH1 0x40 ADD MLOAD PUSH1 0x11 SLOAD DUP7 PUSH2 0x1E0 ADD MLOAD PUSH2 0x2179 JUMP JUMPDEST SWAP1 POP PUSH2 0x1AA4 DUP4 PUSH2 0x380 ADD MLOAD DUP5 PUSH1 0x60 ADD MLOAD PUSH1 0x10 SLOAD DUP7 PUSH2 0x200 ADD MLOAD PUSH2 0x2179 JUMP JUMPDEST SWAP1 POP PUSH2 0x1AC2 DUP4 PUSH2 0x3A0 ADD MLOAD DUP5 PUSH1 0x80 ADD MLOAD PUSH1 0x11 SLOAD DUP7 PUSH2 0x220 ADD MLOAD PUSH2 0x2179 JUMP JUMPDEST SWAP1 POP PUSH2 0x1AFA PUSH1 0x20 PUSH1 0x40 MLOAD DUP1 PUSH1 0x40 ADD PUSH1 0x40 MSTORE SWAP1 DUP2 PUSH0 DUP3 ADD SLOAD DUP2 MSTORE PUSH1 0x20 ADD PUSH1 0x1 DUP3 ADD SLOAD DUP2 MSTORE POP POP DUP5 PUSH1 0xA0 ADD MLOAD PUSH1 0x12 SLOAD DUP7 PUSH2 0x240 ADD MLOAD PUSH2 0x2179 JUMP JUMPDEST SWAP1 POP PUSH2 0x1B18 DUP4 PUSH2 0x3C0 ADD MLOAD DUP5 PUSH1 0xC0 ADD MLOAD PUSH1 0x11 SLOAD DUP7 PUSH2 0x260 ADD MLOAD PUSH2 0x2179 JUMP JUMPDEST SWAP1 POP PUSH2 0x1B35 DUP4 PUSH2 0x3C0 ADD MLOAD DUP5 PUSH1 0xE0 ADD MLOAD PUSH1 0x1 DUP7 PUSH2 0x280 ADD MLOAD PUSH2 0x2179 JUMP JUMPDEST SWAP1 POP PUSH2 0x1B6E PUSH1 0x22 PUSH1 0x40 MLOAD DUP1 PUSH1 0x40 ADD PUSH1 0x40 MSTORE SWAP1 DUP2 PUSH0 DUP3 ADD SLOAD DUP2 MSTORE PUSH1 0x20 ADD PUSH1 0x1 DUP3 ADD SLOAD DUP2 MSTORE POP POP DUP5 PUSH2 0x100 ADD MLOAD PUSH1 0x12 SLOAD DUP7 PUSH2 0x2A0 ADD MLOAD PUSH2 0x2179 JUMP JUMPDEST SWAP1 POP PUSH2 0x1B8D DUP4 PUSH2 0x3E0 ADD MLOAD DUP5 PUSH2 0x160 ADD MLOAD PUSH1 0x13 SLOAD DUP7 PUSH2 0x300 ADD MLOAD PUSH2 0x2179 JUMP JUMPDEST SWAP1 POP PUSH2 0x1BC6 PUSH1 0x26 PUSH1 0x40 MLOAD DUP1 PUSH1 0x40 ADD PUSH1 0x40 MSTORE SWAP1 DUP2 PUSH0 DUP3 ADD SLOAD DUP2 MSTORE PUSH1 0x20 ADD PUSH1 0x1 DUP3 ADD SLOAD DUP2 MSTORE POP POP DUP5 PUSH2 0x120 ADD MLOAD PUSH1 0x11 SLOAD DUP7 PUSH2 0x2C0 ADD MLOAD PUSH2 0x2179 JUMP JUMPDEST SWAP1 POP PUSH2 0x1BFF PUSH1 0x24 PUSH1 0x40 MLOAD DUP1 PUSH1 0x40 ADD PUSH1 0x40 MSTORE SWAP1 DUP2 PUSH0 DUP3 ADD SLOAD DUP2 MSTORE PUSH1 0x20 ADD PUSH1 0x1 DUP3 ADD SLOAD DUP2 MSTORE POP POP DUP5 PUSH2 0x140 ADD MLOAD PUSH1 0x11 SLOAD DUP7 PUSH2 0x2E0 ADD MLOAD PUSH2 0x2179 JUMP JUMPDEST SWAP1 POP PUSH2 0x1C1E DUP4 PUSH2 0x3E0 ADD MLOAD DUP5 PUSH2 0x180 ADD MLOAD PUSH1 0x11 SLOAD DUP7 PUSH2 0x320 ADD MLOAD PUSH2 0x2179 JUMP JUMPDEST SWAP1 POP PUSH2 0x1C34 DUP4 PUSH2 0x380 ADD MLOAD DUP5 PUSH2 0x360 ADD MLOAD PUSH2 0x3B3 JUMP JUMPDEST PUSH0 SHR PUSH1 0x12 SLOAD EQ SWAP1 POP PUSH32 0x30644E72E131A029B85045B68181585D2833E84879B9709143E1F593F0000001 DUP1 PUSH2 0x1C6B JUMPI PUSH2 0x1C6A PUSH2 0x50A3 JUMP JUMPDEST JUMPDEST DUP4 PUSH2 0x240 ADD MLOAD PUSH32 0x30644E72E131A029B85045B68181585D2833E84879B9709143E1F593F0000001 PUSH2 0x1C9C SWAP2 SWAP1 PUSH2 0x515D JUMP JUMPDEST PUSH32 0x30644E72E131A029B85045B68181585D2833E84879B9709143E1F593F0000001 DUP1 PUSH2 0x1CCB JUMPI PUSH2 0x1CCA PUSH2 0x50A3 JUMP JUMPDEST JUMPDEST PUSH32 0x30644E72E131A029B85045B68181585D2833E84879B9709143E1F593F0000001 DUP1 PUSH2 0x1CFA JUMPI PUSH2 0x1CF9 PUSH2 0x50A3 JUMP JUMPDEST JUMPDEST DUP7 PUSH2 0x260 ADD MLOAD DUP8 PUSH2 0x200 ADD MLOAD ADDMOD DUP7 PUSH2 0x1E0 ADD MLOAD MULMOD ADDMOD DUP4 PUSH2 0x220 ADD MLOAD EQ SWAP1 POP DUP3 PUSH2 0x2A0 ADD MLOAD DUP4 PUSH2 0x280 ADD MLOAD EQ SWAP1 POP PUSH2 0x1D47 DUP4 PUSH2 0x380 ADD MLOAD DUP5 PUSH2 0x360 ADD MLOAD DUP6 PUSH2 0x3A0 ADD MLOAD DUP7 PUSH2 0x3C0 ADD MLOAD PUSH2 0x3F7 JUMP JUMPDEST PUSH0 SHR PUSH1 0x11 SLOAD EQ SWAP1 POP PUSH0 PUSH32 0x30644E72E131A029B85045B68181585D2833E84879B9709143E1F593F0000001 DUP1 PUSH2 0x1D7F JUMPI PUSH2 0x1D7E PUSH2 0x50A3 JUMP JUMPDEST JUMPDEST PUSH1 0x19 SLOAD PUSH1 0x15 SLOAD ADDMOD SWAP1 POP PUSH0 PUSH2 0x1DB6 PUSH1 0x11 SLOAD DUP4 PUSH32 0x30644E72E131A029B85045B68181585D2833E84879B9709143E1F593F0000001 PUSH2 0x3944 JUMP JUMPDEST SWAP1 POP PUSH0 PUSH32 0x30644E72E131A029B85045B68181585D2833E84879B9709143E1F593F0000001 DUP1 PUSH2 0x1DE8 JUMPI PUSH2 0x1DE7 PUSH2 0x50A3 JUMP JUMPDEST JUMPDEST PUSH32 0x30644E72E131A029B85045B68181585D2833E84879B9709143E1F593F0000001 DUP1 PUSH2 0x1E17 JUMPI PUSH2 0x1E16 PUSH2 0x50A3 JUMP JUMPDEST JUMPDEST PUSH1 0x1A SLOAD PUSH1 0x19 SLOAD ADDMOD PUSH1 0x15 SLOAD ADDMOD SWAP1 POP PUSH0 PUSH2 0x1E52 PUSH1 0x11 SLOAD DUP4 PUSH32 0x30644E72E131A029B85045B68181585D2833E84879B9709143E1F593F0000001 PUSH2 0x3944 JUMP JUMPDEST SWAP1 POP PUSH0 PUSH32 0x30644E72E131A029B85045B68181585D2833E84879B9709143E1F593F0000001 DUP1 PUSH2 0x1E84 JUMPI PUSH2 0x1E83 PUSH2 0x50A3 JUMP JUMPDEST JUMPDEST PUSH32 0x30644E72E131A029B85045B68181585D2833E84879B9709143E1F593F0000001 DUP1 PUSH2 0x1EB3 JUMPI PUSH2 0x1EB2 PUSH2 0x50A3 JUMP JUMPDEST JUMPDEST PUSH32 0x30644E72E131A029B85045B68181585D2833E84879B9709143E1F593F0000001 DUP1 PUSH2 0x1EE2 JUMPI PUSH2 0x1EE1 PUSH2 0x50A3 JUMP JUMPDEST JUMPDEST PUSH1 0x1E SLOAD PUSH1 0x1A SLOAD ADDMOD PUSH1 0x19 SLOAD ADDMOD PUSH1 0x15 SLOAD ADDMOD SWAP1 POP PUSH0 PUSH2 0x1F21 PUSH1 0x11 SLOAD DUP4 PUSH32 0x30644E72E131A029B85045B68181585D2833E84879B9709143E1F593F0000001 PUSH2 0x3944 JUMP JUMPDEST SWAP1 POP PUSH0 PUSH32 0x30644E72E131A029B85045B68181585D2833E84879B9709143E1F593F0000001 DUP1 PUSH2 0x1F53 JUMPI PUSH2 0x1F52 PUSH2 0x50A3 JUMP JUMPDEST JUMPDEST DUP7 DUP12 PUSH2 0x2C0 ADD MLOAD MULMOD SWAP1 POP PUSH0 PUSH32 0x30644E72E131A029B85045B68181585D2833E84879B9709143E1F593F0000001 DUP1 PUSH2 0x1F8D JUMPI PUSH2 0x1F8C PUSH2 0x50A3 JUMP JUMPDEST JUMPDEST DUP6 DUP13 PUSH2 0x2E0 ADD MLOAD MULMOD SWAP1 POP PUSH0 PUSH32 0x30644E72E131A029B85045B68181585D2833E84879B9709143E1F593F0000001 DUP1 PUSH2 0x1FC7 JUMPI PUSH2 0x1FC6 PUSH2 0x50A3 JUMP JUMPDEST JUMPDEST DUP5 DUP14 PUSH2 0x320 ADD MLOAD MULMOD SWAP1 POP PUSH32 0x30644E72E131A029B85045B68181585D2833E84879B9709143E1F593F0000001 DUP1 PUSH2 0x2000 JUMPI PUSH2 0x1FFF PUSH2 0x50A3 JUMP JUMPDEST JUMPDEST PUSH32 0x30644E72E131A029B85045B68181585D2833E84879B9709143E1F593F0000001 DUP1 PUSH2 0x202F JUMPI PUSH2 0x202E PUSH2 0x50A3 JUMP JUMPDEST JUMPDEST PUSH32 0x30644E72E131A029B85045B68181585D2833E84879B9709143E1F593F0000001 DUP1 PUSH2 0x205E JUMPI PUSH2 0x205D PUSH2 0x50A3 JUMP JUMPDEST JUMPDEST DUP4 DUP6 ADDMOD DUP6 MULMOD DUP14 PUSH2 0x1C0 ADD MLOAD ADDMOD DUP13 PUSH2 0x1E0 ADD MLOAD EQ SWAP10 POP PUSH2 0x2165 PUSH1 0x40 MLOAD DUP1 PUSH1 0xA0 ADD PUSH1 0x40 MSTORE DUP1 DUP15 PUSH2 0x3E0 ADD MLOAD DUP2 MSTORE PUSH1 0x20 ADD DUP15 PUSH2 0x1A0 ADD MLOAD DUP2 MSTORE PUSH1 0x20 ADD PUSH1 0x2A PUSH1 0x40 MLOAD DUP1 PUSH1 0x40 ADD PUSH1 0x40 MSTORE SWAP1 DUP2 PUSH0 DUP3 ADD PUSH1 0x2 DUP1 PUSH1 0x20 MUL PUSH1 0x40 MLOAD SWAP1 DUP2 ADD PUSH1 0x40 MSTORE DUP1 SWAP3 SWAP2 SWAP1 DUP3 PUSH1 0x2 DUP1 ISZERO PUSH2 0x20DF JUMPI PUSH1 0x20 MUL DUP3 ADD SWAP2 JUMPDEST DUP2 SLOAD DUP2 MSTORE PUSH1 0x20 ADD SWAP1 PUSH1 0x1 ADD SWAP1 DUP1 DUP4 GT PUSH2 0x20CB JUMPI JUMPDEST POP POP POP POP POP DUP2 MSTORE PUSH1 0x20 ADD PUSH1 0x2 DUP3 ADD PUSH1 0x2 DUP1 PUSH1 0x20 MUL PUSH1 0x40 MLOAD SWAP1 DUP2 ADD PUSH1 0x40 MSTORE DUP1 SWAP3 SWAP2 SWAP1 DUP3 PUSH1 0x2 DUP1 ISZERO PUSH2 0x2124 JUMPI PUSH1 0x20 MUL DUP3 ADD SWAP2 JUMPDEST DUP2 SLOAD DUP2 MSTORE PUSH1 0x20 ADD SWAP1 PUSH1 0x1 ADD SWAP1 DUP1 DUP4 GT PUSH2 0x2110 JUMPI JUMPDEST POP POP POP POP POP DUP2 MSTORE POP POP DUP2 MSTORE PUSH1 0x20 ADD PUSH1 0x28 PUSH1 0x40 MLOAD DUP1 PUSH1 0x40 ADD PUSH1 0x40 MSTORE SWAP1 DUP2 PUSH0 DUP3 ADD SLOAD DUP2 MSTORE PUSH1 0x20 ADD PUSH1 0x1 DUP3 ADD SLOAD DUP2 MSTORE POP POP DUP2 MSTORE PUSH1 0x20 ADD DUP15 PUSH2 0x340 ADD MLOAD DUP2 MSTORE POP PUSH2 0x453 JUMP JUMPDEST SWAP10 POP DUP10 SWAP11 POP POP POP POP POP POP POP POP POP POP POP SWAP2 SWAP1 POP JUMP JUMPDEST PUSH0 PUSH32 0x30644E72E131A029B85045B68181585D2833E84879B9709143E1F593F0000001 DUP6 PUSH0 ADD MLOAD LT PUSH2 0x21DF JUMPI PUSH1 0x40 MLOAD PUSH32 0x8C379A000000000000000000000000000000000000000000000000000000000 DUP2 MSTORE PUSH1 0x4 ADD PUSH2 0x21D6 SWAP1 PUSH2 0x4B13 JUMP JUMPDEST PUSH1 0x40 MLOAD DUP1 SWAP2 SUB SWAP1 REVERT JUMPDEST PUSH32 0x30644E72E131A029B85045B68181585D2833E84879B9709143E1F593F0000001 DUP6 PUSH1 0x20 ADD MLOAD LT PUSH2 0x2245 JUMPI PUSH1 0x40 MLOAD PUSH32 0x8C379A000000000000000000000000000000000000000000000000000000000 DUP2 MSTORE PUSH1 0x4 ADD PUSH2 0x223C SWAP1 PUSH2 0x4BA1 JUMP JUMPDEST PUSH1 0x40 MLOAD DUP1 SWAP2 SUB SWAP1 REVERT JUMPDEST PUSH32 0x30644E72E131A029B85045B68181585D2833E84879B9709143E1F593F0000001 DUP5 PUSH0 ADD MLOAD LT PUSH2 0x22AA JUMPI PUSH1 0x40 MLOAD PUSH32 0x8C379A000000000000000000000000000000000000000000000000000000000 DUP2 MSTORE PUSH1 0x4 ADD PUSH2 0x22A1 SWAP1 PUSH2 0x4C2F JUMP JUMPDEST PUSH1 0x40 MLOAD DUP1 SWAP2 SUB SWAP1 REVERT JUMPDEST PUSH32 0x30644E72E131A029B85045B68181585D2833E84879B9709143E1F593F0000001 DUP5 PUSH1 0x20 ADD MLOAD LT PUSH2 0x2310 JUMPI PUSH1 0x40 MLOAD PUSH32 0x8C379A000000000000000000000000000000000000000000000000000000000 DUP2 MSTORE PUSH1 0x4 ADD PUSH2 0x2307 SWAP1 PUSH2 0x4CBD JUMP JUMPDEST PUSH1 0x40 MLOAD DUP1 SWAP2 SUB SWAP1 REVERT JUMPDEST PUSH32 0x30644E72E131A029B85045B68181585D2833E84879B9709143E1F593F0000001 DUP4 LT PUSH2 0x2372 JUMPI PUSH1 0x40 MLOAD PUSH32 0x8C379A000000000000000000000000000000000000000000000000000000000 DUP2 MSTORE PUSH1 0x4 ADD PUSH2 0x2369 SWAP1 PUSH2 0x5200 JUMP JUMPDEST PUSH1 0x40 MLOAD DUP1 SWAP2 SUB SWAP1 REVERT JUMPDEST PUSH32 0x30644E72E131A029B85045B68181585D2833E84879B9709143E1F593F0000001 DUP3 LT PUSH2 0x23D4 JUMPI PUSH1 0x40 MLOAD PUSH32 0x8C379A000000000000000000000000000000000000000000000000000000000 DUP2 MSTORE PUSH1 0x4 ADD PUSH2 0x23CB SWAP1 PUSH2 0x4FB0 JUMP JUMPDEST PUSH1 0x40 MLOAD DUP1 SWAP2 SUB SWAP1 REVERT JUMPDEST PUSH0 PUSH2 0x23E7 PUSH2 0x23E2 DUP7 DUP7 PUSH2 0x293B JUMP JUMPDEST PUSH2 0x2B08 JUMP JUMPDEST SWAP1 POP PUSH0 PUSH2 0x2404 PUSH2 0x23FE PUSH2 0x23F8 PUSH2 0x2F12 JUMP JUMPDEST DUP7 PUSH2 0x293B JUMP JUMPDEST DUP4 PUSH2 0x2A0F JUMP JUMPDEST SWAP1 POP PUSH2 0x25DA DUP7 PUSH1 0xC PUSH1 0x40 MLOAD DUP1 PUSH1 0x40 ADD PUSH1 0x40 MSTORE SWAP1 DUP2 PUSH0 DUP3 ADD PUSH1 0x2 DUP1 PUSH1 0x20 MUL PUSH1 0x40 MLOAD SWAP1 DUP2 ADD PUSH1 0x40 MSTORE DUP1 SWAP3 SWAP2 SWAP1 DUP3 PUSH1 0x2 DUP1 ISZERO PUSH2 0x2452 JUMPI PUSH1 0x20 MUL DUP3 ADD SWAP2 JUMPDEST DUP2 SLOAD DUP2 MSTORE PUSH1 0x20 ADD SWAP1 PUSH1 0x1 ADD SWAP1 DUP1 DUP4 GT PUSH2 0x243E JUMPI JUMPDEST POP POP POP POP POP DUP2 MSTORE PUSH1 0x20 ADD PUSH1 0x2 DUP3 ADD PUSH1 0x2 DUP1 PUSH1 0x20 MUL PUSH1 0x40 MLOAD SWAP1 DUP2 ADD PUSH1 0x40 MSTORE DUP1 SWAP3 SWAP2 SWAP1 DUP3 PUSH1 0x2 DUP1 ISZERO PUSH2 0x2497 JUMPI PUSH1 0x20 MUL DUP3 ADD SWAP2 JUMPDEST DUP2 SLOAD DUP2 MSTORE PUSH1 0x20 ADD SWAP1 PUSH1 0x1 ADD SWAP1 DUP1 DUP4 GT PUSH2 0x2483 JUMPI JUMPDEST POP POP POP POP POP DUP2 MSTORE POP POP DUP4 PUSH1 0x4 PUSH1 0x40 MLOAD DUP1 PUSH1 0x40 ADD PUSH1 0x40 MSTORE SWAP1 DUP2 PUSH0 DUP3 ADD PUSH1 0x2 DUP1 PUSH1 0x20 MUL PUSH1 0x40 MLOAD SWAP1 DUP2 ADD PUSH1 0x40 MSTORE DUP1 SWAP3 SWAP2 SWAP1 DUP3 PUSH1 0x2 DUP1 ISZERO PUSH2 0x24E9 JUMPI PUSH1 0x20 MUL DUP3 ADD SWAP2 JUMPDEST DUP2 SLOAD DUP2 MSTORE PUSH1 0x20 ADD SWAP1 PUSH1 0x1 ADD SWAP1 DUP1 DUP4 GT PUSH2 0x24D5 JUMPI JUMPDEST POP POP POP POP POP DUP2 MSTORE PUSH1 0x20 ADD PUSH1 0x2 DUP3 ADD PUSH1 0x2 DUP1 PUSH1 0x20 MUL PUSH1 0x40 MLOAD SWAP1 DUP2 ADD PUSH1 0x40 MSTORE DUP1 SWAP3 SWAP2 SWAP1 DUP3 PUSH1 0x2 DUP1 ISZERO PUSH2 0x252E JUMPI PUSH1 0x20 MUL DUP3 ADD SWAP2 JUMPDEST DUP2 SLOAD DUP2 MSTORE PUSH1 0x20 ADD SWAP1 PUSH1 0x1 ADD SWAP1 DUP1 DUP4 GT PUSH2 0x251A JUMPI JUMPDEST POP POP POP POP POP DUP2 MSTORE POP POP PUSH2 0x2540 DUP13 PUSH2 0x2B08 JUMP JUMPDEST PUSH0 PUSH1 0x40 MLOAD DUP1 PUSH1 0x40 ADD PUSH1 0x40 MSTORE SWAP1 DUP2 PUSH0 DUP3 ADD PUSH1 0x2 DUP1 PUSH1 0x20 MUL PUSH1 0x40 MLOAD SWAP1 DUP2 ADD PUSH1 0x40 MSTORE DUP1 SWAP3 SWAP2 SWAP1 DUP3 PUSH1 0x2 DUP1 ISZERO PUSH2 0x2587 JUMPI PUSH1 0x20 MUL DUP3 ADD SWAP2 JUMPDEST DUP2 SLOAD DUP2 MSTORE PUSH1 0x20 ADD SWAP1 PUSH1 0x1 ADD SWAP1 DUP1 DUP4 GT PUSH2 0x2573 JUMPI JUMPDEST POP POP POP POP POP DUP2 MSTORE PUSH1 0x20 ADD PUSH1 0x2 DUP3 ADD PUSH1 0x2 DUP1 PUSH1 0x20 MUL PUSH1 0x40 MLOAD SWAP1 DUP2 ADD PUSH1 0x40 MSTORE DUP1 SWAP3 SWAP2 SWAP1 DUP3 PUSH1 0x2 DUP1 ISZERO PUSH2 0x25CC JUMPI PUSH1 0x20 MUL DUP3 ADD SWAP2 JUMPDEST DUP2 SLOAD DUP2 MSTORE PUSH1 0x20 ADD SWAP1 PUSH1 0x1 ADD SWAP1 DUP1 DUP4 GT PUSH2 0x25B8 JUMPI JUMPDEST POP POP POP POP POP DUP2 MSTORE POP POP PUSH2 0x2BC0 JUMP JUMPDEST SWAP3 POP POP POP SWAP5 SWAP4 POP POP POP POP JUMP JUMPDEST PUSH0 DUP1 PUSH1 0xC SWAP1 POP PUSH0 DUP2 PUSH8 0xFFFFFFFFFFFFFFFF DUP2 GT ISZERO PUSH2 0x2607 JUMPI PUSH2 0x2606 PUSH2 0x3FC1 JUMP JUMPDEST JUMPDEST PUSH1 0x40 MLOAD SWAP1 DUP1 DUP3 MSTORE DUP1 PUSH1 0x20 MUL PUSH1 0x20 ADD DUP3 ADD PUSH1 0x40 MSTORE DUP1 ISZERO PUSH2 0x2635 JUMPI DUP2 PUSH1 0x20 ADD PUSH1 0x20 DUP3 MUL DUP1 CALLDATASIZE DUP4 CALLDATACOPY DUP1 DUP3 ADD SWAP2 POP POP SWAP1 POP JUMPDEST POP SWAP1 POP DUP7 PUSH0 ADD MLOAD DUP2 PUSH0 DUP2 MLOAD DUP2 LT PUSH2 0x264F JUMPI PUSH2 0x264E PUSH2 0x4CDB JUMP JUMPDEST JUMPDEST PUSH1 0x20 MUL PUSH1 0x20 ADD ADD DUP2 DUP2 MSTORE POP POP DUP7 PUSH1 0x20 ADD MLOAD DUP2 PUSH1 0x1 DUP2 MLOAD DUP2 LT PUSH2 0x2674 JUMPI PUSH2 0x2673 PUSH2 0x4CDB JUMP JUMPDEST JUMPDEST PUSH1 0x20 MUL PUSH1 0x20 ADD ADD DUP2 DUP2 MSTORE POP POP DUP6 PUSH0 ADD MLOAD PUSH0 PUSH1 0x2 DUP2 LT PUSH2 0x2696 JUMPI PUSH2 0x2695 PUSH2 0x4CDB JUMP JUMPDEST JUMPDEST PUSH1 0x20 MUL ADD MLOAD DUP2 PUSH1 0x2 DUP2 MLOAD DUP2 LT PUSH2 0x26AF JUMPI PUSH2 0x26AE PUSH2 0x4CDB JUMP JUMPDEST JUMPDEST PUSH1 0x20 MUL PUSH1 0x20 ADD ADD DUP2 DUP2 MSTORE POP POP DUP6 PUSH0 ADD MLOAD PUSH1 0x1 PUSH1 0x2 DUP2 LT PUSH2 0x26D2 JUMPI PUSH2 0x26D1 PUSH2 0x4CDB JUMP JUMPDEST JUMPDEST PUSH1 0x20 MUL ADD MLOAD DUP2 PUSH1 0x3 DUP2 MLOAD DUP2 LT PUSH2 0x26EB JUMPI PUSH2 0x26EA PUSH2 0x4CDB JUMP JUMPDEST JUMPDEST PUSH1 0x20 MUL PUSH1 0x20 ADD ADD DUP2 DUP2 MSTORE POP POP DUP6 PUSH1 0x20 ADD MLOAD PUSH0 PUSH1 0x2 DUP2 LT PUSH2 0x270E JUMPI PUSH2 0x270D PUSH2 0x4CDB JUMP JUMPDEST JUMPDEST PUSH1 0x20 MUL ADD MLOAD DUP2 PUSH1 0x4 DUP2 MLOAD DUP2 LT PUSH2 0x2727 JUMPI PUSH2 0x2726 PUSH2 0x4CDB JUMP JUMPDEST JUMPDEST PUSH1 0x20 MUL PUSH1 0x20 ADD ADD DUP2 DUP2 MSTORE POP POP DUP6 PUSH1 0x20 ADD MLOAD PUSH1 0x1 PUSH1 0x2 DUP2 LT PUSH2 0x274B JUMPI PUSH2 0x274A PUSH2 0x4CDB JUMP JUMPDEST JUMPDEST PUSH1 0x20 MUL ADD MLOAD DUP2 PUSH1 0x5 DUP2 MLOAD DUP2 LT PUSH2 0x2764 JUMPI PUSH2 0x2763 PUSH2 0x4CDB JUMP JUMPDEST JUMPDEST PUSH1 0x20 MUL PUSH1 0x20 ADD ADD DUP2 DUP2 MSTORE POP POP DUP5 PUSH0 ADD MLOAD DUP2 PUSH1 0x6 DUP2 MLOAD DUP2 LT PUSH2 0x2788 JUMPI PUSH2 0x2787 PUSH2 0x4CDB JUMP JUMPDEST JUMPDEST PUSH1 0x20 MUL PUSH1 0x20 ADD ADD DUP2 DUP2 MSTORE POP POP DUP5 PUSH1 0x20 ADD MLOAD DUP2 PUSH1 0x7 DUP2 MLOAD DUP2 LT PUSH2 0x27AD JUMPI PUSH2 0x27AC PUSH2 0x4CDB JUMP JUMPDEST JUMPDEST PUSH1 0x20 MUL PUSH1 0x20 ADD ADD DUP2 DUP2 MSTORE POP POP DUP4 PUSH0 ADD MLOAD PUSH0 PUSH1 0x2 DUP2 LT PUSH2 0x27CF JUMPI PUSH2 0x27CE PUSH2 0x4CDB JUMP JUMPDEST JUMPDEST PUSH1 0x20 MUL ADD MLOAD DUP2 PUSH1 0x8 DUP2 MLOAD DUP2 LT PUSH2 0x27E8 JUMPI PUSH2 0x27E7 PUSH2 0x4CDB JUMP JUMPDEST JUMPDEST PUSH1 0x20 MUL PUSH1 0x20 ADD ADD DUP2 DUP2 MSTORE POP POP DUP4 PUSH0 ADD MLOAD PUSH1 0x1 PUSH1 0x2 DUP2 LT PUSH2 0x280B JUMPI PUSH2 0x280A PUSH2 0x4CDB JUMP JUMPDEST JUMPDEST PUSH1 0x20 MUL ADD MLOAD DUP2 PUSH1 0x9 DUP2 MLOAD DUP2 LT PUSH2 0x2824 JUMPI PUSH2 0x2823 PUSH2 0x4CDB JUMP JUMPDEST JUMPDEST PUSH1 0x20 MUL PUSH1 0x20 ADD ADD DUP2 DUP2 MSTORE POP POP DUP4 PUSH1 0x20 ADD MLOAD PUSH0 PUSH1 0x2 DUP2 LT PUSH2 0x2847 JUMPI PUSH2 0x2846 PUSH2 0x4CDB JUMP JUMPDEST JUMPDEST PUSH1 0x20 MUL ADD MLOAD DUP2 PUSH1 0xA DUP2 MLOAD DUP2 LT PUSH2 0x2860 JUMPI PUSH2 0x285F PUSH2 0x4CDB JUMP JUMPDEST JUMPDEST PUSH1 0x20 MUL PUSH1 0x20 ADD ADD DUP2 DUP2 MSTORE POP POP DUP4 PUSH1 0x20 ADD MLOAD PUSH1 0x1 PUSH1 0x2 DUP2 LT PUSH2 0x2884 JUMPI PUSH2 0x2883 PUSH2 0x4CDB JUMP JUMPDEST JUMPDEST PUSH1 0x20 MUL ADD MLOAD DUP2 PUSH1 0xB DUP2 MLOAD DUP2 LT PUSH2 0x289D JUMPI PUSH2 0x289C PUSH2 0x4CDB JUMP JUMPDEST JUMPDEST PUSH1 0x20 MUL PUSH1 0x20 ADD ADD DUP2 DUP2 MSTORE POP POP PUSH2 0x28B1 PUSH2 0x3ED2 JUMP JUMPDEST PUSH0 PUSH1 0x20 DUP3 PUSH1 0x20 DUP7 MUL PUSH1 0x20 DUP7 ADD PUSH1 0x8 PUSH2 0x7D0 GAS SUB STATICCALL SWAP1 POP DUP1 PUSH0 DUP2 SUB PUSH2 0x28D1 JUMPI INVALID JUMPDEST POP DUP1 PUSH2 0x2912 JUMPI PUSH1 0x40 MLOAD PUSH32 0x8C379A000000000000000000000000000000000000000000000000000000000 DUP2 MSTORE PUSH1 0x4 ADD PUSH2 0x2909 SWAP1 PUSH2 0x5268 JUMP JUMPDEST PUSH1 0x40 MLOAD DUP1 SWAP2 SUB SWAP1 REVERT JUMPDEST PUSH0 DUP3 PUSH0 PUSH1 0x1 DUP2 LT PUSH2 0x2926 JUMPI PUSH2 0x2925 PUSH2 0x4CDB JUMP JUMPDEST JUMPDEST PUSH1 0x20 MUL ADD MLOAD EQ ISZERO SWAP5 POP POP POP POP POP SWAP5 SWAP4 POP POP POP POP JUMP JUMPDEST PUSH2 0x2943 PUSH2 0x3EF4 JUMP JUMPDEST PUSH2 0x294B PUSH2 0x3F0C JUMP JUMPDEST DUP4 PUSH0 ADD MLOAD DUP2 PUSH0 PUSH1 0x3 DUP2 LT PUSH2 0x2962 JUMPI PUSH2 0x2961 PUSH2 0x4CDB JUMP JUMPDEST JUMPDEST PUSH1 0x20 MUL ADD DUP2 DUP2 MSTORE POP POP DUP4 PUSH1 0x20 ADD MLOAD DUP2 PUSH1 0x1 PUSH1 0x3 DUP2 LT PUSH2 0x2984 JUMPI PUSH2 0x2983 PUSH2 0x4CDB JUMP JUMPDEST JUMPDEST PUSH1 0x20 MUL ADD DUP2 DUP2 MSTORE POP POP DUP3 DUP2 PUSH1 0x2 PUSH1 0x3 DUP2 LT PUSH2 0x29A2 JUMPI PUSH2 0x29A1 PUSH2 0x4CDB JUMP JUMPDEST JUMPDEST PUSH1 0x20 MUL ADD DUP2 DUP2 MSTORE POP POP PUSH0 PUSH1 0x60 DUP4 PUSH1 0x80 DUP5 PUSH1 0x7 PUSH2 0x7D0 GAS SUB STATICCALL SWAP1 POP DUP1 PUSH0 DUP2 SUB PUSH2 0x29C6 JUMPI INVALID JUMPDEST POP DUP1 PUSH2 0x2A07 JUMPI PUSH1 0x40 MLOAD PUSH32 0x8C379A000000000000000000000000000000000000000000000000000000000 DUP2 MSTORE PUSH1 0x4 ADD PUSH2 0x29FE SWAP1 PUSH2 0x52D0 JUMP JUMPDEST PUSH1 0x40 MLOAD DUP1 SWAP2 SUB SWAP1 REVERT JUMPDEST POP POP SWAP3 SWAP2 POP POP JUMP JUMPDEST PUSH2 0x2A17 PUSH2 0x3EF4 JUMP JUMPDEST PUSH2 0x2A1F PUSH2 0x3F2E JUMP JUMPDEST DUP4 PUSH0 ADD MLOAD DUP2 PUSH0 PUSH1 0x4 DUP2 LT PUSH2 0x2A36 JUMPI PUSH2 0x2A35 PUSH2 0x4CDB JUMP JUMPDEST JUMPDEST PUSH1 0x20 MUL ADD DUP2 DUP2 MSTORE POP POP DUP4 PUSH1 0x20 ADD MLOAD DUP2 PUSH1 0x1 PUSH1 0x4 DUP2 LT PUSH2 0x2A58 JUMPI PUSH2 0x2A57 PUSH2 0x4CDB JUMP JUMPDEST JUMPDEST PUSH1 0x20 MUL ADD DUP2 DUP2 MSTORE POP POP DUP3 PUSH0 ADD MLOAD DUP2 PUSH1 0x2 PUSH1 0x4 DUP2 LT PUSH2 0x2A79 JUMPI PUSH2 0x2A78 PUSH2 0x4CDB JUMP JUMPDEST JUMPDEST PUSH1 0x20 MUL ADD DUP2 DUP2 MSTORE POP POP DUP3 PUSH1 0x20 ADD MLOAD DUP2 PUSH1 0x3 PUSH1 0x4 DUP2 LT PUSH2 0x2A9B JUMPI PUSH2 0x2A9A PUSH2 0x4CDB JUMP JUMPDEST JUMPDEST PUSH1 0x20 MUL ADD DUP2 DUP2 MSTORE POP POP PUSH0 PUSH1 0x60 DUP4 PUSH1 0xC0 DUP5 PUSH1 0x6 PUSH2 0x7D0 GAS SUB STATICCALL SWAP1 POP DUP1 PUSH0 DUP2 SUB PUSH2 0x2ABF JUMPI INVALID JUMPDEST POP DUP1 PUSH2 0x2B00 JUMPI PUSH1 0x40 MLOAD PUSH32 0x8C379A000000000000000000000000000000000000000000000000000000000 DUP2 MSTORE PUSH1 0x4 ADD PUSH2 0x2AF7 SWAP1 PUSH2 0x5338 JUMP JUMPDEST PUSH1 0x40 MLOAD DUP1 SWAP2 SUB SWAP1 REVERT JUMPDEST POP POP SWAP3 SWAP2 POP POP JUMP JUMPDEST PUSH2 0x2B10 PUSH2 0x3EF4 JUMP JUMPDEST PUSH0 DUP3 PUSH0 ADD MLOAD EQ DUP1 ISZERO PUSH2 0x2B25 JUMPI POP PUSH0 DUP3 PUSH1 0x20 ADD MLOAD EQ JUMPDEST ISZERO PUSH2 0x2B46 JUMPI PUSH1 0x40 MLOAD DUP1 PUSH1 0x40 ADD PUSH1 0x40 MSTORE DUP1 PUSH0 DUP2 MSTORE PUSH1 0x20 ADD PUSH0 DUP2 MSTORE POP SWAP1 POP PUSH2 0x2BBB JUMP JUMPDEST PUSH1 0x40 MLOAD DUP1 PUSH1 0x40 ADD PUSH1 0x40 MSTORE DUP1 DUP4 PUSH0 ADD MLOAD DUP2 MSTORE PUSH1 0x20 ADD PUSH32 0x30644E72E131A029B85045B68181585D97816A916871CA8D3C208C16D87CFD47 DUP5 PUSH1 0x20 ADD MLOAD PUSH2 0x2B8A SWAP2 SWAP1 PUSH2 0x50D0 JUMP JUMPDEST PUSH32 0x30644E72E131A029B85045B68181585D97816A916871CA8D3C208C16D87CFD47 PUSH2 0x2BB5 SWAP2 SWAP1 PUSH2 0x515D JUMP JUMPDEST DUP2 MSTORE POP SWAP1 POP JUMPDEST SWAP2 SWAP1 POP JUMP JUMPDEST PUSH0 DUP1 PUSH1 0x40 MLOAD DUP1 PUSH1 0x60 ADD PUSH1 0x40 MSTORE DUP1 DUP10 DUP2 MSTORE PUSH1 0x20 ADD DUP8 DUP2 MSTORE PUSH1 0x20 ADD DUP6 DUP2 MSTORE POP SWAP1 POP PUSH0 PUSH1 0x40 MLOAD DUP1 PUSH1 0x60 ADD PUSH1 0x40 MSTORE DUP1 DUP10 DUP2 MSTORE PUSH1 0x20 ADD DUP8 DUP2 MSTORE PUSH1 0x20 ADD DUP6 DUP2 MSTORE POP SWAP1 POP PUSH0 PUSH1 0x12 SWAP1 POP PUSH0 DUP2 PUSH8 0xFFFFFFFFFFFFFFFF DUP2 GT ISZERO PUSH2 0x2C1D JUMPI PUSH2 0x2C1C PUSH2 0x3FC1 JUMP JUMPDEST JUMPDEST PUSH1 0x40 MLOAD SWAP1 DUP1 DUP3 MSTORE DUP1 PUSH1 0x20 MUL PUSH1 0x20 ADD DUP3 ADD PUSH1 0x40 MSTORE DUP1 ISZERO PUSH2 0x2C4B JUMPI DUP2 PUSH1 0x20 ADD PUSH1 0x20 DUP3 MUL DUP1 CALLDATASIZE DUP4 CALLDATACOPY DUP1 DUP3 ADD SWAP2 POP POP SWAP1 POP JUMPDEST POP SWAP1 POP PUSH0 JUMPDEST PUSH1 0x3 DUP2 LT ISZERO PUSH2 0x2E7B JUMPI PUSH0 PUSH1 0x6 DUP3 PUSH2 0x2C67 SWAP2 SWAP1 PUSH2 0x5356 JUMP JUMPDEST SWAP1 POP DUP6 DUP3 PUSH1 0x3 DUP2 LT PUSH2 0x2C7C JUMPI PUSH2 0x2C7B PUSH2 0x4CDB JUMP JUMPDEST JUMPDEST PUSH1 0x20 MUL ADD MLOAD PUSH0 ADD MLOAD DUP4 PUSH0 DUP4 PUSH2 0x2C91 SWAP2 SWAP1 PUSH2 0x5397 JUMP JUMPDEST DUP2 MLOAD DUP2 LT PUSH2 0x2CA2 JUMPI PUSH2 0x2CA1 PUSH2 0x4CDB JUMP JUMPDEST JUMPDEST PUSH1 0x20 MUL PUSH1 0x20 ADD ADD DUP2 DUP2 MSTORE POP POP DUP6 DUP3 PUSH1 0x3 DUP2 LT PUSH2 0x2CC1 JUMPI PUSH2 0x2CC0 PUSH2 0x4CDB JUMP JUMPDEST JUMPDEST PUSH1 0x20 MUL ADD MLOAD PUSH1 0x20 ADD MLOAD DUP4 PUSH1 0x1 DUP4 PUSH2 0x2CD8 SWAP2 SWAP1 PUSH2 0x5397 JUMP JUMPDEST DUP2 MLOAD DUP2 LT PUSH2 0x2CE9 JUMPI PUSH2 0x2CE8 PUSH2 0x4CDB JUMP JUMPDEST JUMPDEST PUSH1 0x20 MUL PUSH1 0x20 ADD ADD DUP2 DUP2 MSTORE POP POP DUP5 DUP3 PUSH1 0x3 DUP2 LT PUSH2 0x2D08 JUMPI PUSH2 0x2D07 PUSH2 0x4CDB JUMP JUMPDEST JUMPDEST PUSH1 0x20 MUL ADD MLOAD PUSH0 ADD MLOAD PUSH0 PUSH1 0x2 DUP2 LT PUSH2 0x2D22 JUMPI PUSH2 0x2D21 PUSH2 0x4CDB JUMP JUMPDEST JUMPDEST PUSH1 0x20 MUL ADD MLOAD DUP4 PUSH1 0x2 DUP4 PUSH2 0x2D35 SWAP2 SWAP1 PUSH2 0x5397 JUMP JUMPDEST DUP2 MLOAD DUP2 LT PUSH2 0x2D46 JUMPI PUSH2 0x2D45 PUSH2 0x4CDB JUMP JUMPDEST JUMPDEST PUSH1 0x20 MUL PUSH1 0x20 ADD ADD DUP2 DUP2 MSTORE POP POP DUP5 DUP3 PUSH1 0x3 DUP2 LT PUSH2 0x2D65 JUMPI PUSH2 0x2D64 PUSH2 0x4CDB JUMP JUMPDEST JUMPDEST PUSH1 0x20 MUL ADD MLOAD PUSH0 ADD MLOAD PUSH1 0x1 PUSH1 0x2 DUP2 LT PUSH2 0x2D80 JUMPI PUSH2 0x2D7F PUSH2 0x4CDB JUMP JUMPDEST JUMPDEST PUSH1 0x20 MUL ADD MLOAD DUP4 PUSH1 0x3 DUP4 PUSH2 0x2D93 SWAP2 SWAP1 PUSH2 0x5397 JUMP JUMPDEST DUP2 MLOAD DUP2 LT PUSH2 0x2DA4 JUMPI PUSH2 0x2DA3 PUSH2 0x4CDB JUMP JUMPDEST JUMPDEST PUSH1 0x20 MUL PUSH1 0x20 ADD ADD DUP2 DUP2 MSTORE POP POP DUP5 DUP3 PUSH1 0x3 DUP2 LT PUSH2 0x2DC3 JUMPI PUSH2 0x2DC2 PUSH2 0x4CDB JUMP JUMPDEST JUMPDEST PUSH1 0x20 MUL ADD MLOAD PUSH1 0x20 ADD MLOAD PUSH0 PUSH1 0x2 DUP2 LT PUSH2 0x2DDE JUMPI PUSH2 0x2DDD PUSH2 0x4CDB JUMP JUMPDEST JUMPDEST PUSH1 0x20 MUL ADD MLOAD DUP4 PUSH1 0x4 DUP4 PUSH2 0x2DF1 SWAP2 SWAP1 PUSH2 0x5397 JUMP JUMPDEST DUP2 MLOAD DUP2 LT PUSH2 0x2E02 JUMPI PUSH2 0x2E01 PUSH2 0x4CDB JUMP JUMPDEST JUMPDEST PUSH1 0x20 MUL PUSH1 0x20 ADD ADD DUP2 DUP2 MSTORE POP POP DUP5 DUP3 PUSH1 0x3 DUP2 LT PUSH2 0x2E21 JUMPI PUSH2 0x2E20 PUSH2 0x4CDB JUMP JUMPDEST JUMPDEST PUSH1 0x20 MUL ADD MLOAD PUSH1 0x20 ADD MLOAD PUSH1 0x1 PUSH1 0x2 DUP2 LT PUSH2 0x2E3D JUMPI PUSH2 0x2E3C PUSH2 0x4CDB JUMP JUMPDEST JUMPDEST PUSH1 0x20 MUL ADD MLOAD DUP4 PUSH1 0x5 DUP4 PUSH2 0x2E50 SWAP2 SWAP1 PUSH2 0x5397 JUMP JUMPDEST DUP2 MLOAD DUP2 LT PUSH2 0x2E61 JUMPI PUSH2 0x2E60 PUSH2 0x4CDB JUMP JUMPDEST JUMPDEST PUSH1 0x20 MUL PUSH1 0x20 ADD ADD DUP2 DUP2 MSTORE POP POP POP DUP1 DUP1 PUSH1 0x1 ADD SWAP2 POP POP PUSH2 0x2C50 JUMP JUMPDEST POP PUSH2 0x2E84 PUSH2 0x3ED2 JUMP JUMPDEST PUSH0 PUSH1 0x20 DUP3 PUSH1 0x20 DUP7 MUL PUSH1 0x20 DUP7 ADD PUSH1 0x8 PUSH2 0x7D0 GAS SUB STATICCALL SWAP1 POP DUP1 PUSH0 DUP2 SUB PUSH2 0x2EA4 JUMPI INVALID JUMPDEST POP DUP1 PUSH2 0x2EE5 JUMPI PUSH1 0x40 MLOAD PUSH32 0x8C379A000000000000000000000000000000000000000000000000000000000 DUP2 MSTORE PUSH1 0x4 ADD PUSH2 0x2EDC SWAP1 PUSH2 0x5268 JUMP JUMPDEST PUSH1 0x40 MLOAD DUP1 SWAP2 SUB SWAP1 REVERT JUMPDEST PUSH0 DUP3 PUSH0 PUSH1 0x1 DUP2 LT PUSH2 0x2EF9 JUMPI PUSH2 0x2EF8 PUSH2 0x4CDB JUMP JUMPDEST JUMPDEST PUSH1 0x20 MUL ADD MLOAD EQ ISZERO SWAP7 POP POP POP POP POP POP POP SWAP7 SWAP6 POP POP POP POP POP POP JUMP JUMPDEST PUSH2 0x2F1A PUSH2 0x3EF4 JUMP JUMPDEST PUSH1 0x40 MLOAD DUP1 PUSH1 0x40 ADD PUSH1 0x40 MSTORE DUP1 PUSH1 0x1 DUP2 MSTORE PUSH1 0x20 ADD PUSH1 0x2 DUP2 MSTORE POP SWAP1 POP SWAP1 JUMP JUMPDEST PUSH2 0x2F3E PUSH2 0x3EAC JUMP JUMPDEST PUSH0 DUP4 PUSH0 ADD MLOAD PUSH0 PUSH1 0x2 DUP2 LT PUSH2 0x2F55 JUMPI PUSH2 0x2F54 PUSH2 0x4CDB JUMP JUMPDEST JUMPDEST PUSH1 0x20 MUL ADD MLOAD EQ DUP1 ISZERO PUSH2 0x2F81 JUMPI POP PUSH0 DUP4 PUSH0 ADD MLOAD PUSH1 0x1 PUSH1 0x2 DUP2 LT PUSH2 0x2F7A JUMPI PUSH2 0x2F79 PUSH2 0x4CDB JUMP JUMPDEST JUMPDEST PUSH1 0x20 MUL ADD MLOAD EQ JUMPDEST DUP1 ISZERO PUSH2 0x2FA7 JUMPI POP PUSH0 DUP4 PUSH1 0x20 ADD MLOAD PUSH0 PUSH1 0x2 DUP2 LT PUSH2 0x2FA0 JUMPI PUSH2 0x2F9F PUSH2 0x4CDB JUMP JUMPDEST JUMPDEST PUSH1 0x20 MUL ADD MLOAD EQ JUMPDEST DUP1 ISZERO PUSH2 0x2FCE JUMPI POP PUSH0 DUP4 PUSH1 0x20 ADD MLOAD PUSH1 0x1 PUSH1 0x2 DUP2 LT PUSH2 0x2FC7 JUMPI PUSH2 0x2FC6 PUSH2 0x4CDB JUMP JUMPDEST JUMPDEST PUSH1 0x20 MUL ADD MLOAD EQ JUMPDEST ISZERO PUSH2 0x2FDB JUMPI DUP2 SWAP1 POP PUSH2 0x35FA JUMP JUMPDEST PUSH0 DUP3 PUSH0 ADD MLOAD PUSH0 PUSH1 0x2 DUP2 LT PUSH2 0x2FF2 JUMPI PUSH2 0x2FF1 PUSH2 0x4CDB JUMP JUMPDEST JUMPDEST PUSH1 0x20 MUL ADD MLOAD EQ DUP1 ISZERO PUSH2 0x301E JUMPI POP PUSH0 DUP3 PUSH0 ADD MLOAD PUSH1 0x1 PUSH1 0x2 DUP2 LT PUSH2 0x3017 JUMPI PUSH2 0x3016 PUSH2 0x4CDB JUMP JUMPDEST JUMPDEST PUSH1 0x20 MUL ADD MLOAD EQ JUMPDEST DUP1 ISZERO PUSH2 0x3044 JUMPI POP PUSH0 DUP3 PUSH1 0x20 ADD MLOAD PUSH0 PUSH1 0x2 DUP2 LT PUSH2 0x303D JUMPI PUSH2 0x303C PUSH2 0x4CDB JUMP JUMPDEST JUMPDEST PUSH1 0x20 MUL ADD MLOAD EQ JUMPDEST DUP1 ISZERO PUSH2 0x306B JUMPI POP PUSH0 DUP3 PUSH1 0x20 ADD MLOAD PUSH1 0x1 PUSH1 0x2 DUP2 LT PUSH2 0x3064 JUMPI PUSH2 0x3063 PUSH2 0x4CDB JUMP JUMPDEST JUMPDEST PUSH1 0x20 MUL ADD MLOAD EQ JUMPDEST ISZERO PUSH2 0x3078 JUMPI DUP3 SWAP1 POP PUSH2 0x35FA JUMP JUMPDEST PUSH2 0x3080 PUSH2 0x3F50 JUMP JUMPDEST PUSH2 0x3090 DUP5 PUSH0 ADD MLOAD DUP6 PUSH0 ADD MLOAD PUSH2 0x3A35 JUMP JUMPDEST DUP2 PUSH0 PUSH1 0xC DUP2 LT PUSH2 0x30A3 JUMPI PUSH2 0x30A2 PUSH2 0x4CDB JUMP JUMPDEST JUMPDEST PUSH1 0x20 MUL ADD DUP2 SWAP1 MSTORE POP PUSH2 0x30BB DUP4 PUSH0 ADD MLOAD DUP5 PUSH0 ADD MLOAD PUSH2 0x3A35 JUMP JUMPDEST DUP2 PUSH1 0x1 PUSH1 0xC DUP2 LT PUSH2 0x30CF JUMPI PUSH2 0x30CE PUSH2 0x4CDB JUMP JUMPDEST JUMPDEST PUSH1 0x20 MUL ADD DUP2 SWAP1 MSTORE POP PUSH2 0x30FD DUP5 PUSH1 0x20 ADD MLOAD DUP3 PUSH1 0x1 PUSH1 0xC DUP2 LT PUSH2 0x30F3 JUMPI PUSH2 0x30F2 PUSH2 0x4CDB JUMP JUMPDEST JUMPDEST PUSH1 0x20 MUL ADD MLOAD PUSH2 0x3A35 JUMP JUMPDEST DUP2 PUSH1 0x2 PUSH1 0xC DUP2 LT PUSH2 0x3111 JUMPI PUSH2 0x3110 PUSH2 0x4CDB JUMP JUMPDEST JUMPDEST PUSH1 0x20 MUL ADD DUP2 SWAP1 MSTORE POP PUSH2 0x313E DUP4 PUSH1 0x20 ADD MLOAD DUP3 PUSH0 PUSH1 0xC DUP2 LT PUSH2 0x3134 JUMPI PUSH2 0x3133 PUSH2 0x4CDB JUMP JUMPDEST JUMPDEST PUSH1 0x20 MUL ADD MLOAD PUSH2 0x3A35 JUMP JUMPDEST DUP2 PUSH1 0x3 PUSH1 0xC DUP2 LT PUSH2 0x3152 JUMPI PUSH2 0x3151 PUSH2 0x4CDB JUMP JUMPDEST JUMPDEST PUSH1 0x20 MUL ADD DUP2 SWAP1 MSTORE POP PUSH2 0x318B PUSH2 0x316D DUP6 PUSH0 ADD MLOAD DUP6 PUSH0 ADD MLOAD PUSH2 0x3A35 JUMP JUMPDEST DUP3 PUSH1 0x1 PUSH1 0xC DUP2 LT PUSH2 0x3181 JUMPI PUSH2 0x3180 PUSH2 0x4CDB JUMP JUMPDEST JUMPDEST PUSH1 0x20 MUL ADD MLOAD PUSH2 0x3A35 JUMP JUMPDEST DUP2 PUSH1 0x4 PUSH1 0xC DUP2 LT PUSH2 0x319F JUMPI PUSH2 0x319E PUSH2 0x4CDB JUMP JUMPDEST JUMPDEST PUSH1 0x20 MUL ADD DUP2 SWAP1 MSTORE POP PUSH2 0x31D7 PUSH2 0x31BA DUP5 PUSH0 ADD MLOAD DUP7 PUSH0 ADD MLOAD PUSH2 0x3A35 JUMP JUMPDEST DUP3 PUSH0 PUSH1 0xC DUP2 LT PUSH2 0x31CD JUMPI PUSH2 0x31CC PUSH2 0x4CDB JUMP JUMPDEST JUMPDEST PUSH1 0x20 MUL ADD MLOAD PUSH2 0x3A35 JUMP JUMPDEST DUP2 PUSH1 0x5 PUSH1 0xC DUP2 LT PUSH2 0x31EB JUMPI PUSH2 0x31EA PUSH2 0x4CDB JUMP JUMPDEST JUMPDEST PUSH1 0x20 MUL ADD DUP2 SWAP1 MSTORE POP PUSH2 0x322D DUP2 PUSH1 0x3 PUSH1 0xC DUP2 LT PUSH2 0x320A JUMPI PUSH2 0x3209 PUSH2 0x4CDB JUMP JUMPDEST JUMPDEST PUSH1 0x20 MUL ADD MLOAD DUP3 PUSH1 0x2 PUSH1 0xC DUP2 LT PUSH2 0x3223 JUMPI PUSH2 0x3222 PUSH2 0x4CDB JUMP JUMPDEST JUMPDEST PUSH1 0x20 MUL ADD MLOAD PUSH2 0x3CCC JUMP JUMPDEST DUP2 PUSH1 0x6 PUSH1 0xC DUP2 LT PUSH2 0x3241 JUMPI PUSH2 0x3240 PUSH2 0x4CDB JUMP JUMPDEST JUMPDEST PUSH1 0x20 MUL ADD DUP2 SWAP1 MSTORE POP PUSH2 0x3283 DUP2 PUSH1 0x6 PUSH1 0xC DUP2 LT PUSH2 0x3260 JUMPI PUSH2 0x325F PUSH2 0x4CDB JUMP JUMPDEST JUMPDEST PUSH1 0x20 MUL ADD MLOAD DUP3 PUSH1 0x6 PUSH1 0xC DUP2 LT PUSH2 0x3279 JUMPI PUSH2 0x3278 PUSH2 0x4CDB JUMP JUMPDEST JUMPDEST PUSH1 0x20 MUL ADD MLOAD PUSH2 0x3D61 JUMP JUMPDEST DUP2 PUSH1 0x7 PUSH1 0xC DUP2 LT PUSH2 0x3297 JUMPI PUSH2 0x3296 PUSH2 0x4CDB JUMP JUMPDEST JUMPDEST PUSH1 0x20 MUL ADD DUP2 SWAP1 MSTORE POP PUSH2 0x32D9 DUP2 PUSH1 0x7 PUSH1 0xC DUP2 LT PUSH2 0x32B6 JUMPI PUSH2 0x32B5 PUSH2 0x4CDB JUMP JUMPDEST JUMPDEST PUSH1 0x20 MUL ADD MLOAD DUP3 PUSH1 0x7 PUSH1 0xC DUP2 LT PUSH2 0x32CF JUMPI PUSH2 0x32CE PUSH2 0x4CDB JUMP JUMPDEST JUMPDEST PUSH1 0x20 MUL ADD MLOAD PUSH2 0x3A35 JUMP JUMPDEST DUP2 PUSH1 0x7 PUSH1 0xC DUP2 LT PUSH2 0x32ED JUMPI PUSH2 0x32EC PUSH2 0x4CDB JUMP JUMPDEST JUMPDEST PUSH1 0x20 MUL ADD DUP2 SWAP1 MSTORE POP PUSH2 0x332F DUP2 PUSH1 0x6 PUSH1 0xC DUP2 LT PUSH2 0x330C JUMPI PUSH2 0x330B PUSH2 0x4CDB JUMP JUMPDEST JUMPDEST PUSH1 0x20 MUL ADD MLOAD DUP3 PUSH1 0x7 PUSH1 0xC DUP2 LT PUSH2 0x3325 JUMPI PUSH2 0x3324 PUSH2 0x4CDB JUMP JUMPDEST JUMPDEST PUSH1 0x20 MUL ADD MLOAD PUSH2 0x3A35 JUMP JUMPDEST DUP2 PUSH1 0x8 PUSH1 0xC DUP2 LT PUSH2 0x3343 JUMPI PUSH2 0x3342 PUSH2 0x4CDB JUMP JUMPDEST JUMPDEST PUSH1 0x20 MUL ADD DUP2 SWAP1 MSTORE POP PUSH2 0x3385 DUP2 PUSH1 0x5 PUSH1 0xC DUP2 LT PUSH2 0x3362 JUMPI PUSH2 0x3361 PUSH2 0x4CDB JUMP JUMPDEST JUMPDEST PUSH1 0x20 MUL ADD MLOAD DUP3 PUSH1 0x4 PUSH1 0xC DUP2 LT PUSH2 0x337B JUMPI PUSH2 0x337A PUSH2 0x4CDB JUMP JUMPDEST JUMPDEST PUSH1 0x20 MUL ADD MLOAD PUSH2 0x3CCC JUMP JUMPDEST DUP2 PUSH1 0x9 PUSH1 0xC DUP2 LT PUSH2 0x3399 JUMPI PUSH2 0x3398 PUSH2 0x4CDB JUMP JUMPDEST JUMPDEST PUSH1 0x20 MUL ADD DUP2 SWAP1 MSTORE POP PUSH2 0x33DB DUP2 PUSH1 0x9 PUSH1 0xC DUP2 LT PUSH2 0x33B8 JUMPI PUSH2 0x33B7 PUSH2 0x4CDB JUMP JUMPDEST JUMPDEST PUSH1 0x20 MUL ADD MLOAD DUP3 PUSH1 0x9 PUSH1 0xC DUP2 LT PUSH2 0x33D1 JUMPI PUSH2 0x33D0 PUSH2 0x4CDB JUMP JUMPDEST JUMPDEST PUSH1 0x20 MUL ADD MLOAD PUSH2 0x3D61 JUMP JUMPDEST DUP2 PUSH1 0x9 PUSH1 0xC DUP2 LT PUSH2 0x33EF JUMPI PUSH2 0x33EE PUSH2 0x4CDB JUMP JUMPDEST JUMPDEST PUSH1 0x20 MUL ADD DUP2 SWAP1 MSTORE POP PUSH2 0x3431 DUP2 PUSH1 0x2 PUSH1 0xC DUP2 LT PUSH2 0x340E JUMPI PUSH2 0x340D PUSH2 0x4CDB JUMP JUMPDEST JUMPDEST PUSH1 0x20 MUL ADD MLOAD DUP3 PUSH1 0x7 PUSH1 0xC DUP2 LT PUSH2 0x3427 JUMPI PUSH2 0x3426 PUSH2 0x4CDB JUMP JUMPDEST JUMPDEST PUSH1 0x20 MUL ADD MLOAD PUSH2 0x3A35 JUMP JUMPDEST DUP2 PUSH1 0xA PUSH1 0xC DUP2 LT PUSH2 0x3445 JUMPI PUSH2 0x3444 PUSH2 0x4CDB JUMP JUMPDEST JUMPDEST PUSH1 0x20 MUL ADD DUP2 SWAP1 MSTORE POP PUSH2 0x34EA PUSH2 0x34AB PUSH2 0x348D DUP4 PUSH1 0x9 PUSH1 0xC DUP2 LT PUSH2 0x346A JUMPI PUSH2 0x3469 PUSH2 0x4CDB JUMP JUMPDEST JUMPDEST PUSH1 0x20 MUL ADD MLOAD DUP5 PUSH1 0x9 PUSH1 0xC DUP2 LT PUSH2 0x3483 JUMPI PUSH2 0x3482 PUSH2 0x4CDB JUMP JUMPDEST JUMPDEST PUSH1 0x20 MUL ADD MLOAD PUSH2 0x3A35 JUMP JUMPDEST DUP4 PUSH1 0x8 PUSH1 0xC DUP2 LT PUSH2 0x34A1 JUMPI PUSH2 0x34A0 PUSH2 0x4CDB JUMP JUMPDEST JUMPDEST PUSH1 0x20 MUL ADD MLOAD PUSH2 0x3CCC JUMP JUMPDEST PUSH2 0x34E5 DUP4 PUSH1 0xA PUSH1 0xC DUP2 LT PUSH2 0x34C2 JUMPI PUSH2 0x34C1 PUSH2 0x4CDB JUMP JUMPDEST JUMPDEST PUSH1 0x20 MUL ADD MLOAD DUP5 PUSH1 0xA PUSH1 0xC DUP2 LT PUSH2 0x34DB JUMPI PUSH2 0x34DA PUSH2 0x4CDB JUMP JUMPDEST JUMPDEST PUSH1 0x20 MUL ADD MLOAD PUSH2 0x3D61 JUMP JUMPDEST PUSH2 0x3CCC JUMP JUMPDEST DUP2 PUSH1 0xB PUSH1 0xC DUP2 LT PUSH2 0x34FE JUMPI PUSH2 0x34FD PUSH2 0x4CDB JUMP JUMPDEST JUMPDEST PUSH1 0x20 MUL ADD DUP2 SWAP1 MSTORE POP PUSH2 0x350E PUSH2 0x3EAC JUMP JUMPDEST DUP2 PUSH1 0xB PUSH1 0xC DUP2 LT PUSH2 0x3522 JUMPI PUSH2 0x3521 PUSH2 0x4CDB JUMP JUMPDEST JUMPDEST PUSH1 0x20 MUL ADD MLOAD DUP2 PUSH0 ADD DUP2 SWAP1 MSTORE POP PUSH2 0x35EC PUSH2 0x358C DUP4 PUSH1 0x9 PUSH1 0xC DUP2 LT PUSH2 0x3548 JUMPI PUSH2 0x3547 PUSH2 0x4CDB JUMP JUMPDEST JUMPDEST PUSH1 0x20 MUL ADD MLOAD PUSH2 0x3587 DUP6 PUSH1 0xA PUSH1 0xC DUP2 LT PUSH2 0x3564 JUMPI PUSH2 0x3563 PUSH2 0x4CDB JUMP JUMPDEST JUMPDEST PUSH1 0x20 MUL ADD MLOAD DUP7 PUSH1 0xB PUSH1 0xC DUP2 LT PUSH2 0x357D JUMPI PUSH2 0x357C PUSH2 0x4CDB JUMP JUMPDEST JUMPDEST PUSH1 0x20 MUL ADD MLOAD PUSH2 0x3CCC JUMP JUMPDEST PUSH2 0x3A35 JUMP JUMPDEST PUSH2 0x35E7 PUSH2 0x35C9 DUP6 PUSH1 0x4 PUSH1 0xC DUP2 LT PUSH2 0x35A6 JUMPI PUSH2 0x35A5 PUSH2 0x4CDB JUMP JUMPDEST JUMPDEST PUSH1 0x20 MUL ADD MLOAD DUP7 PUSH1 0x8 PUSH1 0xC DUP2 LT PUSH2 0x35BF JUMPI PUSH2 0x35BE PUSH2 0x4CDB JUMP JUMPDEST JUMPDEST PUSH1 0x20 MUL ADD MLOAD PUSH2 0x3A35 JUMP JUMPDEST DUP6 PUSH1 0x4 PUSH1 0xC DUP2 LT PUSH2 0x35DD JUMPI PUSH2 0x35DC PUSH2 0x4CDB JUMP JUMPDEST JUMPDEST PUSH1 0x20 MUL ADD MLOAD PUSH2 0x3D61 JUMP JUMPDEST PUSH2 0x3CCC JUMP JUMPDEST DUP2 PUSH1 0x20 ADD DUP2 SWAP1 MSTORE POP DUP1 SWAP3 POP POP POP JUMPDEST SWAP3 SWAP2 POP POP JUMP JUMPDEST PUSH2 0x3608 PUSH2 0x3EAC JUMP JUMPDEST PUSH0 DUP3 PUSH0 ADD MLOAD PUSH0 PUSH1 0x2 DUP2 LT PUSH2 0x361F JUMPI PUSH2 0x361E PUSH2 0x4CDB JUMP JUMPDEST JUMPDEST PUSH1 0x20 MUL ADD MLOAD EQ DUP1 ISZERO PUSH2 0x364B JUMPI POP PUSH0 DUP3 PUSH0 ADD MLOAD PUSH1 0x1 PUSH1 0x2 DUP2 LT PUSH2 0x3644 JUMPI PUSH2 0x3643 PUSH2 0x4CDB JUMP JUMPDEST JUMPDEST PUSH1 0x20 MUL ADD MLOAD EQ JUMPDEST DUP1 ISZERO PUSH2 0x3671 JUMPI POP PUSH0 DUP3 PUSH1 0x20 ADD MLOAD PUSH0 PUSH1 0x2 DUP2 LT PUSH2 0x366A JUMPI PUSH2 0x3669 PUSH2 0x4CDB JUMP JUMPDEST JUMPDEST PUSH1 0x20 MUL ADD MLOAD EQ JUMPDEST DUP1 ISZERO PUSH2 0x3698 JUMPI POP PUSH0 DUP3 PUSH1 0x20 ADD MLOAD PUSH1 0x1 PUSH1 0x2 DUP2 LT PUSH2 0x3691 JUMPI PUSH2 0x3690 PUSH2 0x4CDB JUMP JUMPDEST JUMPDEST PUSH1 0x20 MUL ADD MLOAD EQ JUMPDEST ISZERO PUSH2 0x36A5 JUMPI DUP2 SWAP1 POP PUSH2 0x393F JUMP JUMPDEST PUSH0 PUSH2 0x36B6 DUP4 PUSH0 ADD MLOAD DUP5 PUSH0 ADD MLOAD PUSH2 0x3A35 JUMP JUMPDEST SWAP1 POP PUSH0 PUSH2 0x36CB DUP5 PUSH1 0x20 ADD MLOAD DUP6 PUSH1 0x20 ADD MLOAD PUSH2 0x3A35 JUMP JUMPDEST SWAP1 POP PUSH0 PUSH2 0x389C PUSH1 0x40 MLOAD DUP1 PUSH1 0x40 ADD PUSH1 0x40 MSTORE DUP1 PUSH32 0x30644E72E131A029B85045B68181585D97816A916871CA8D3C208C16D87CFD47 DUP1 PUSH2 0x370B JUMPI PUSH2 0x370A PUSH2 0x50A3 JUMP JUMPDEST JUMPDEST DUP9 PUSH1 0x20 ADD MLOAD PUSH0 PUSH1 0x2 DUP2 LT PUSH2 0x3722 JUMPI PUSH2 0x3721 PUSH2 0x4CDB JUMP JUMPDEST JUMPDEST PUSH1 0x20 MUL ADD MLOAD DUP10 PUSH0 ADD MLOAD PUSH0 PUSH1 0x2 DUP2 LT PUSH2 0x373D JUMPI PUSH2 0x373C PUSH2 0x4CDB JUMP JUMPDEST JUMPDEST PUSH1 0x20 MUL ADD MLOAD ADDMOD DUP2 MSTORE PUSH1 0x20 ADD PUSH32 0x30644E72E131A029B85045B68181585D97816A916871CA8D3C208C16D87CFD47 DUP1 PUSH2 0x3777 JUMPI PUSH2 0x3776 PUSH2 0x50A3 JUMP JUMPDEST JUMPDEST DUP9 PUSH1 0x20 ADD MLOAD PUSH1 0x1 PUSH1 0x2 DUP2 LT PUSH2 0x378F JUMPI PUSH2 0x378E PUSH2 0x4CDB JUMP JUMPDEST JUMPDEST PUSH1 0x20 MUL ADD MLOAD DUP10 PUSH0 ADD MLOAD PUSH1 0x1 PUSH1 0x2 DUP2 LT PUSH2 0x37AB JUMPI PUSH2 0x37AA PUSH2 0x4CDB JUMP JUMPDEST JUMPDEST PUSH1 0x20 MUL ADD MLOAD ADDMOD DUP2 MSTORE POP PUSH1 0x40 MLOAD DUP1 PUSH1 0x40 ADD PUSH1 0x40 MSTORE DUP1 PUSH32 0x30644E72E131A029B85045B68181585D97816A916871CA8D3C208C16D87CFD47 DUP1 PUSH2 0x37EE JUMPI PUSH2 0x37ED PUSH2 0x50A3 JUMP JUMPDEST JUMPDEST DUP10 PUSH1 0x20 ADD MLOAD PUSH0 PUSH1 0x2 DUP2 LT PUSH2 0x3805 JUMPI PUSH2 0x3804 PUSH2 0x4CDB JUMP JUMPDEST JUMPDEST PUSH1 0x20 MUL ADD MLOAD DUP11 PUSH0 ADD MLOAD PUSH0 PUSH1 0x2 DUP2 LT PUSH2 0x3820 JUMPI PUSH2 0x381F PUSH2 0x4CDB JUMP JUMPDEST JUMPDEST PUSH1 0x20 MUL ADD MLOAD ADDMOD DUP2 MSTORE PUSH1 0x20 ADD PUSH32 0x30644E72E131A029B85045B68181585D97816A916871CA8D3C208C16D87CFD47 DUP1 PUSH2 0x385A JUMPI PUSH2 0x3859 PUSH2 0x50A3 JUMP JUMPDEST JUMPDEST DUP10 PUSH1 0x20 ADD MLOAD PUSH1 0x1 PUSH1 0x2 DUP2 LT PUSH2 0x3872 JUMPI PUSH2 0x3871 PUSH2 0x4CDB JUMP JUMPDEST JUMPDEST PUSH1 0x20 MUL ADD MLOAD DUP11 PUSH0 ADD MLOAD PUSH1 0x1 PUSH1 0x2 DUP2 LT PUSH2 0x388E JUMPI PUSH2 0x388D PUSH2 0x4CDB JUMP JUMPDEST JUMPDEST PUSH1 0x20 MUL ADD MLOAD ADDMOD DUP2 MSTORE POP PUSH2 0x3A35 JUMP JUMPDEST SWAP1 POP PUSH2 0x38B1 DUP2 PUSH2 0x38AC DUP6 DUP6 PUSH2 0x3D61 JUMP JUMPDEST PUSH2 0x3CCC JUMP JUMPDEST SWAP1 POP PUSH2 0x38BD DUP2 DUP3 PUSH2 0x3D61 JUMP JUMPDEST SWAP1 POP PUSH0 PUSH2 0x38D3 PUSH2 0x38CD DUP6 DUP7 PUSH2 0x3D61 JUMP JUMPDEST DUP6 PUSH2 0x3D61 JUMP JUMPDEST SWAP1 POP PUSH0 PUSH2 0x38F2 PUSH2 0x38E3 DUP4 DUP5 PUSH2 0x3A35 JUMP JUMPDEST PUSH2 0x38ED DUP6 DUP7 PUSH2 0x3D61 JUMP JUMPDEST PUSH2 0x3CCC JUMP JUMPDEST SWAP1 POP PUSH0 DUP2 SWAP1 POP PUSH0 PUSH2 0x391E PUSH2 0x390F DUP6 PUSH2 0x390A DUP9 DUP8 PUSH2 0x3CCC JUMP JUMPDEST PUSH2 0x3A35 JUMP JUMPDEST PUSH2 0x3919 DUP9 DUP10 PUSH2 0x3D61 JUMP JUMPDEST PUSH2 0x3CCC JUMP JUMPDEST SWAP1 POP PUSH1 0x40 MLOAD DUP1 PUSH1 0x40 ADD PUSH1 0x40 MSTORE DUP1 DUP4 DUP2 MSTORE PUSH1 0x20 ADD DUP3 DUP2 MSTORE POP SWAP8 POP POP POP POP POP POP POP POP JUMPDEST SWAP2 SWAP1 POP JUMP JUMPDEST PUSH0 DUP1 DUP3 SUB PUSH2 0x3987 JUMPI PUSH1 0x40 MLOAD PUSH32 0x8C379A000000000000000000000000000000000000000000000000000000000 DUP2 MSTORE PUSH1 0x4 ADD PUSH2 0x397E SWAP1 PUSH2 0x5414 JUMP JUMPDEST PUSH1 0x40 MLOAD DUP1 SWAP2 SUB SWAP1 REVERT JUMPDEST PUSH0 DUP5 SUB PUSH2 0x3996 JUMPI PUSH0 SWAP1 POP PUSH2 0x3A2E JUMP JUMPDEST PUSH0 DUP4 SUB PUSH2 0x39A6 JUMPI PUSH1 0x1 SWAP1 POP PUSH2 0x3A2E JUMP JUMPDEST PUSH0 PUSH1 0x1 SWAP1 POP PUSH0 PUSH32 0x8000000000000000000000000000000000000000000000000000000000000000 SWAP1 POP JUMPDEST PUSH0 DUP2 GT ISZERO PUSH2 0x3A28 JUMPI DUP4 DUP2 DUP7 AND ISZERO ISZERO DUP8 EXP DUP6 DUP5 DUP6 MULMOD MULMOD SWAP2 POP DUP4 PUSH1 0x2 DUP3 DIV DUP7 AND ISZERO ISZERO DUP8 EXP DUP6 DUP5 DUP6 MULMOD MULMOD SWAP2 POP DUP4 PUSH1 0x4 DUP3 DIV DUP7 AND ISZERO ISZERO DUP8 EXP DUP6 DUP5 DUP6 MULMOD MULMOD SWAP2 POP DUP4 PUSH1 0x8 DUP3 DIV DUP7 AND ISZERO ISZERO DUP8 EXP DUP6 DUP5 DUP6 MULMOD MULMOD SWAP2 POP PUSH1 0x10 DUP2 DIV SWAP1 POP PUSH2 0x39D0 JUMP JUMPDEST DUP2 SWAP3 POP POP POP JUMPDEST SWAP4 SWAP3 POP POP POP JUMP JUMPDEST PUSH2 0x3A3D PUSH2 0x3F7E JUMP JUMPDEST PUSH0 PUSH32 0x30644E72E131A029B85045B68181585D97816A916871CA8D3C208C16D87CFD47 DUP1 PUSH2 0x3A6D JUMPI PUSH2 0x3A6C PUSH2 0x50A3 JUMP JUMPDEST JUMPDEST DUP4 PUSH0 PUSH1 0x2 DUP2 LT PUSH2 0x3A80 JUMPI PUSH2 0x3A7F PUSH2 0x4CDB JUMP JUMPDEST JUMPDEST PUSH1 0x20 MUL ADD MLOAD DUP6 PUSH0 PUSH1 0x2 DUP2 LT PUSH2 0x3A98 JUMPI PUSH2 0x3A97 PUSH2 0x4CDB JUMP JUMPDEST JUMPDEST PUSH1 0x20 MUL ADD MLOAD MULMOD SWAP1 POP PUSH0 PUSH32 0x30644E72E131A029B85045B68181585D97816A916871CA8D3C208C16D87CFD47 DUP1 PUSH2 0x3AD0 JUMPI PUSH2 0x3ACF PUSH2 0x50A3 JUMP JUMPDEST JUMPDEST DUP5 PUSH1 0x1 PUSH1 0x2 DUP2 LT PUSH2 0x3AE4 JUMPI PUSH2 0x3AE3 PUSH2 0x4CDB JUMP JUMPDEST JUMPDEST PUSH1 0x20 MUL ADD MLOAD DUP7 PUSH1 0x1 PUSH1 0x2 DUP2 LT PUSH2 0x3AFD JUMPI PUSH2 0x3AFC PUSH2 0x4CDB JUMP JUMPDEST JUMPDEST PUSH1 0x20 MUL ADD MLOAD MULMOD SWAP1 POP PUSH0 PUSH32 0x30644E72E131A029B85045B68181585D97816A916871CA8D3C208C16D87CFD47 DUP1 PUSH2 0x3B35 JUMPI PUSH2 0x3B34 PUSH2 0x50A3 JUMP JUMPDEST JUMPDEST DUP7 PUSH1 0x1 PUSH1 0x2 DUP2 LT PUSH2 0x3B49 JUMPI PUSH2 0x3B48 PUSH2 0x4CDB JUMP JUMPDEST JUMPDEST PUSH1 0x20 MUL ADD MLOAD DUP8 PUSH0 PUSH1 0x2 DUP2 LT PUSH2 0x3B61 JUMPI PUSH2 0x3B60 PUSH2 0x4CDB JUMP JUMPDEST JUMPDEST PUSH1 0x20 MUL ADD MLOAD ADDMOD SWAP1 POP PUSH0 PUSH32 0x30644E72E131A029B85045B68181585D97816A916871CA8D3C208C16D87CFD47 DUP1 PUSH2 0x3B99 JUMPI PUSH2 0x3B98 PUSH2 0x50A3 JUMP JUMPDEST JUMPDEST DUP7 PUSH1 0x1 PUSH1 0x2 DUP2 LT PUSH2 0x3BAD JUMPI PUSH2 0x3BAC PUSH2 0x4CDB JUMP JUMPDEST JUMPDEST PUSH1 0x20 MUL ADD MLOAD DUP8 PUSH0 PUSH1 0x2 DUP2 LT PUSH2 0x3BC5 JUMPI PUSH2 0x3BC4 PUSH2 0x4CDB JUMP JUMPDEST JUMPDEST PUSH1 0x20 MUL ADD MLOAD ADDMOD SWAP1 POP PUSH0 PUSH32 0x30644E72E131A029B85045B68181585D97816A916871CA8D3C208C16D87CFD47 DUP1 PUSH2 0x3BFD JUMPI PUSH2 0x3BFC PUSH2 0x50A3 JUMP JUMPDEST JUMPDEST DUP3 DUP5 MULMOD SWAP1 POP PUSH0 PUSH32 0x30644E72E131A029B85045B68181585D97816A916871CA8D3C208C16D87CFD47 DUP1 PUSH2 0x3C32 JUMPI PUSH2 0x3C31 PUSH2 0x50A3 JUMP JUMPDEST JUMPDEST PUSH32 0x30644E72E131A029B85045B68181585D97816A916871CA8D3C208C16D87CFD47 DUP1 PUSH2 0x3C61 JUMPI PUSH2 0x3C60 PUSH2 0x50A3 JUMP JUMPDEST JUMPDEST DUP7 PUSH1 0x11 SLOAD MULMOD DUP8 ADDMOD SWAP1 POP PUSH0 PUSH2 0x3CA6 DUP4 PUSH32 0x30644E72E131A029B85045B68181585D97816A916871CA8D3C208C16D87CFD47 DUP1 PUSH2 0x3C9E JUMPI PUSH2 0x3C9D PUSH2 0x50A3 JUMP JUMPDEST JUMPDEST DUP9 DUP11 ADDMOD PUSH2 0x3E46 JUMP JUMPDEST SWAP1 POP PUSH1 0x40 MLOAD DUP1 PUSH1 0x40 ADD PUSH1 0x40 MSTORE DUP1 DUP4 DUP2 MSTORE PUSH1 0x20 ADD DUP3 DUP2 MSTORE POP SWAP8 POP POP POP POP POP POP POP POP SWAP3 SWAP2 POP POP JUMP JUMPDEST PUSH2 0x3CD4 PUSH2 0x3F7E JUMP JUMPDEST PUSH1 0x40 MLOAD DUP1 PUSH1 0x40 ADD PUSH1 0x40 MSTORE DUP1 PUSH2 0x3D17 DUP6 PUSH0 PUSH1 0x2 DUP2 LT PUSH2 0x3CF5 JUMPI PUSH2 0x3CF4 PUSH2 0x4CDB JUMP JUMPDEST JUMPDEST PUSH1 0x20 MUL ADD MLOAD DUP6 PUSH0 PUSH1 0x2 DUP2 LT PUSH2 0x3D0D JUMPI PUSH2 0x3D0C PUSH2 0x4CDB JUMP JUMPDEST JUMPDEST PUSH1 0x20 MUL ADD MLOAD PUSH2 0x3E46 JUMP JUMPDEST DUP2 MSTORE PUSH1 0x20 ADD PUSH2 0x3D56 DUP6 PUSH1 0x1 PUSH1 0x2 DUP2 LT PUSH2 0x3D33 JUMPI PUSH2 0x3D32 PUSH2 0x4CDB JUMP JUMPDEST JUMPDEST PUSH1 0x20 MUL ADD MLOAD DUP6 PUSH1 0x1 PUSH1 0x2 DUP2 LT PUSH2 0x3D4C JUMPI PUSH2 0x3D4B PUSH2 0x4CDB JUMP JUMPDEST JUMPDEST PUSH1 0x20 MUL ADD MLOAD PUSH2 0x3E46 JUMP JUMPDEST DUP2 MSTORE POP SWAP1 POP SWAP3 SWAP2 POP POP JUMP JUMPDEST PUSH2 0x3D69 PUSH2 0x3F7E JUMP JUMPDEST PUSH1 0x40 MLOAD DUP1 PUSH1 0x40 ADD PUSH1 0x40 MSTORE DUP1 PUSH32 0x30644E72E131A029B85045B68181585D97816A916871CA8D3C208C16D87CFD47 DUP1 PUSH2 0x3DA3 JUMPI PUSH2 0x3DA2 PUSH2 0x50A3 JUMP JUMPDEST JUMPDEST DUP5 PUSH0 PUSH1 0x2 DUP2 LT PUSH2 0x3DB6 JUMPI PUSH2 0x3DB5 PUSH2 0x4CDB JUMP JUMPDEST JUMPDEST PUSH1 0x20 MUL ADD MLOAD DUP7 PUSH0 PUSH1 0x2 DUP2 LT PUSH2 0x3DCE JUMPI PUSH2 0x3DCD PUSH2 0x4CDB JUMP JUMPDEST JUMPDEST PUSH1 0x20 MUL ADD MLOAD ADDMOD DUP2 MSTORE PUSH1 0x20 ADD PUSH32 0x30644E72E131A029B85045B68181585D97816A916871CA8D3C208C16D87CFD47 DUP1 PUSH2 0x3E08 JUMPI PUSH2 0x3E07 PUSH2 0x50A3 JUMP JUMPDEST JUMPDEST DUP5 PUSH1 0x1 PUSH1 0x2 DUP2 LT PUSH2 0x3E1C JUMPI PUSH2 0x3E1B PUSH2 0x4CDB JUMP JUMPDEST JUMPDEST PUSH1 0x20 MUL ADD MLOAD DUP7 PUSH1 0x1 PUSH1 0x2 DUP2 LT PUSH2 0x3E35 JUMPI PUSH2 0x3E34 PUSH2 0x4CDB JUMP JUMPDEST JUMPDEST PUSH1 0x20 MUL ADD MLOAD ADDMOD DUP2 MSTORE POP SWAP1 POP SWAP3 SWAP2 POP POP JUMP JUMPDEST PUSH0 PUSH32 0x30644E72E131A029B85045B68181585D97816A916871CA8D3C208C16D87CFD47 DUP1 PUSH2 0x3E76 JUMPI PUSH2 0x3E75 PUSH2 0x50A3 JUMP JUMPDEST JUMPDEST DUP3 PUSH32 0x30644E72E131A029B85045B68181585D97816A916871CA8D3C208C16D87CFD47 PUSH2 0x3EA2 SWAP2 SWAP1 PUSH2 0x515D JUMP JUMPDEST DUP5 ADDMOD SWAP1 POP SWAP3 SWAP2 POP POP JUMP JUMPDEST PUSH1 0x40 MLOAD DUP1 PUSH1 0x40 ADD PUSH1 0x40 MSTORE DUP1 PUSH2 0x3EBF PUSH2 0x3F7E JUMP JUMPDEST DUP2 MSTORE PUSH1 0x20 ADD PUSH2 0x3ECC PUSH2 0x3F7E JUMP JUMPDEST DUP2 MSTORE POP SWAP1 JUMP JUMPDEST PUSH1 0x40 MLOAD DUP1 PUSH1 0x20 ADD PUSH1 0x40 MSTORE DUP1 PUSH1 0x1 SWAP1 PUSH1 0x20 DUP3 MUL DUP1 CALLDATASIZE DUP4 CALLDATACOPY DUP1 DUP3 ADD SWAP2 POP POP SWAP1 POP POP SWAP1 JUMP JUMPDEST PUSH1 0x40 MLOAD DUP1 PUSH1 0x40 ADD PUSH1 0x40 MSTORE DUP1 PUSH0 DUP2 MSTORE PUSH1 0x20 ADD PUSH0 DUP2 MSTORE POP SWAP1 JUMP JUMPDEST PUSH1 0x40 MLOAD DUP1 PUSH1 0x60 ADD PUSH1 0x40 MSTORE DUP1 PUSH1 0x3 SWAP1 PUSH1 0x20 DUP3 MUL DUP1 CALLDATASIZE DUP4 CALLDATACOPY DUP1 DUP3 ADD SWAP2 POP POP SWAP1 POP POP SWAP1 JUMP JUMPDEST PUSH1 0x40 MLOAD DUP1 PUSH1 0x80 ADD PUSH1 0x40 MSTORE DUP1 PUSH1 0x4 SWAP1 PUSH1 0x20 DUP3 MUL DUP1 CALLDATASIZE DUP4 CALLDATACOPY DUP1 DUP3 ADD SWAP2 POP POP SWAP1 POP POP SWAP1 JUMP JUMPDEST PUSH1 0x40 MLOAD DUP1 PUSH2 0x180 ADD PUSH1 0x40 MSTORE DUP1 PUSH1 0xC SWAP1 JUMPDEST PUSH2 0x3F68 PUSH2 0x3F7E JUMP JUMPDEST DUP2 MSTORE PUSH1 0x20 ADD SWAP1 PUSH1 0x1 SWAP1 SUB SWAP1 DUP2 PUSH2 0x3F60 JUMPI SWAP1 POP POP SWAP1 JUMP JUMPDEST PUSH1 0x40 MLOAD DUP1 PUSH1 0x40 ADD PUSH1 0x40 MSTORE DUP1 PUSH1 0x2 SWAP1 PUSH1 0x20 DUP3 MUL DUP1 CALLDATASIZE DUP4 CALLDATACOPY DUP1 DUP3 ADD SWAP2 POP POP SWAP1 POP POP SWAP1 JUMP JUMPDEST PUSH0 PUSH1 0x40 MLOAD SWAP1 POP SWAP1 JUMP JUMPDEST PUSH0 DUP1 REVERT JUMPDEST PUSH0 DUP1 REVERT JUMPDEST PUSH0 PUSH1 0x1F NOT PUSH1 0x1F DUP4 ADD AND SWAP1 POP SWAP2 SWAP1 POP JUMP JUMPDEST PUSH32 0x4E487B7100000000000000000000000000000000000000000000000000000000 PUSH0 MSTORE PUSH1 0x41 PUSH1 0x4 MSTORE PUSH1 0x24 PUSH0 REVERT JUMPDEST PUSH2 0x3FF7 DUP3 PUSH2 0x3FB1 JUMP JUMPDEST DUP2 ADD DUP2 DUP2 LT PUSH8 0xFFFFFFFFFFFFFFFF DUP3 GT OR ISZERO PUSH2 0x4016 JUMPI PUSH2 0x4015 PUSH2 0x3FC1 JUMP JUMPDEST JUMPDEST DUP1 PUSH1 0x40 MSTORE POP POP POP JUMP JUMPDEST PUSH0 PUSH2 0x4028 PUSH2 0x3FA0 JUMP JUMPDEST SWAP1 POP PUSH2 0x4034 DUP3 DUP3 PUSH2 0x3FEE JUMP JUMPDEST SWAP2 SWAP1 POP JUMP JUMPDEST PUSH0 DUP2 SWAP1 POP SWAP2 SWAP1 POP JUMP JUMPDEST PUSH2 0x404B DUP2 PUSH2 0x4039 JUMP JUMPDEST DUP2 EQ PUSH2 0x4055 JUMPI PUSH0 DUP1 REVERT JUMPDEST POP JUMP JUMPDEST PUSH0 DUP2 CALLDATALOAD SWAP1 POP PUSH2 0x4066 DUP2 PUSH2 0x4042 JUMP JUMPDEST SWAP3 SWAP2 POP POP JUMP JUMPDEST PUSH0 PUSH1 0x40 DUP3 DUP5 SUB SLT ISZERO PUSH2 0x4081 JUMPI PUSH2 0x4080 PUSH2 0x3FAD JUMP JUMPDEST JUMPDEST PUSH2 0x408B PUSH1 0x40 PUSH2 0x401F JUMP JUMPDEST SWAP1 POP PUSH0 PUSH2 0x409A DUP5 DUP3 DUP6 ADD PUSH2 0x4058 JUMP JUMPDEST PUSH0 DUP4 ADD MSTORE POP PUSH1 0x20 PUSH2 0x40AD DUP5 DUP3 DUP6 ADD PUSH2 0x4058 JUMP JUMPDEST PUSH1 0x20 DUP4 ADD MSTORE POP SWAP3 SWAP2 POP POP JUMP JUMPDEST PUSH0 DUP1 PUSH0 PUSH1 0xA0 DUP5 DUP7 SUB SLT ISZERO PUSH2 0x40D0 JUMPI PUSH2 0x40CF PUSH2 0x3FA9 JUMP JUMPDEST JUMPDEST PUSH0 PUSH2 0x40DD DUP7 DUP3 DUP8 ADD PUSH2 0x406C JUMP JUMPDEST SWAP4 POP POP PUSH1 0x40 PUSH2 0x40EE DUP7 DUP3 DUP8 ADD PUSH2 0x406C JUMP JUMPDEST SWAP3 POP POP PUSH1 0x80 PUSH2 0x40FF DUP7 DUP3 DUP8 ADD PUSH2 0x4058 JUMP JUMPDEST SWAP2 POP POP SWAP3 POP SWAP3 POP SWAP3 JUMP JUMPDEST PUSH0 DUP2 ISZERO ISZERO SWAP1 POP SWAP2 SWAP1 POP JUMP JUMPDEST PUSH2 0x411D DUP2 PUSH2 0x4109 JUMP JUMPDEST DUP3 MSTORE POP POP JUMP JUMPDEST PUSH0 PUSH1 0x20 DUP3 ADD SWAP1 POP PUSH2 0x4136 PUSH0 DUP4 ADD DUP5 PUSH2 0x4114 JUMP JUMPDEST SWAP3 SWAP2 POP POP JUMP JUMPDEST PUSH0 DUP1 PUSH1 0x80 DUP4 DUP6 SUB SLT ISZERO PUSH2 0x4152 JUMPI PUSH2 0x4151 PUSH2 0x3FA9 JUMP JUMPDEST JUMPDEST PUSH0 PUSH2 0x415F DUP6 DUP3 DUP7 ADD PUSH2 0x406C JUMP JUMPDEST SWAP3 POP POP PUSH1 0x40 PUSH2 0x4170 DUP6 DUP3 DUP7 ADD PUSH2 0x406C JUMP JUMPDEST SWAP2 POP POP SWAP3 POP SWAP3 SWAP1 POP JUMP JUMPDEST PUSH0 DUP2 SWAP1 POP SWAP2 SWAP1 POP JUMP JUMPDEST PUSH2 0x418C DUP2 PUSH2 0x417A JUMP JUMPDEST DUP3 MSTORE POP POP JUMP JUMPDEST PUSH0 PUSH1 0x20 DUP3 ADD SWAP1 POP PUSH2 0x41A5 PUSH0 DUP4 ADD DUP5 PUSH2 0x4183 JUMP JUMPDEST SWAP3 SWAP2 POP POP JUMP JUMPDEST PUSH0 DUP1 PUSH0 DUP1 PUSH2 0x100 DUP6 DUP8 SUB SLT ISZERO PUSH2 0x41C4 JUMPI PUSH2 0x41C3 PUSH2 0x3FA9 JUMP JUMPDEST JUMPDEST PUSH0 PUSH2 0x41D1 DUP8 DUP3 DUP9 ADD PUSH2 0x406C JUMP JUMPDEST SWAP5 POP POP PUSH1 0x40 PUSH2 0x41E2 DUP8 DUP3 DUP9 ADD PUSH2 0x406C JUMP JUMPDEST SWAP4 POP POP PUSH1 0x80 PUSH2 0x41F3 DUP8 DUP3 DUP9 ADD PUSH2 0x406C JUMP JUMPDEST SWAP3 POP POP PUSH1 0xC0 PUSH2 0x4204 DUP8 DUP3 DUP9 ADD PUSH2 0x406C JUMP JUMPDEST SWAP2 POP POP SWAP3 SWAP6 SWAP2 SWAP5 POP SWAP3 POP JUMP JUMPDEST PUSH0 DUP1 REVERT JUMPDEST PUSH0 PUSH8 0xFFFFFFFFFFFFFFFF DUP3 GT ISZERO PUSH2 0x422E JUMPI PUSH2 0x422D PUSH2 0x3FC1 JUMP JUMPDEST JUMPDEST PUSH1 0x20 DUP3 MUL SWAP1 POP SWAP2 SWAP1 POP JUMP JUMPDEST PUSH0 DUP1 REVERT JUMPDEST PUSH0 PUSH2 0x424F PUSH2 0x424A DUP5 PUSH2 0x4214 JUMP JUMPDEST PUSH2 0x401F JUMP JUMPDEST SWAP1 POP DUP1 PUSH1 0x20 DUP5 MUL DUP4 ADD DUP6 DUP2 GT ISZERO PUSH2 0x4269 JUMPI PUSH2 0x4268 PUSH2 0x4239 JUMP JUMPDEST JUMPDEST DUP4 JUMPDEST DUP2 DUP2 LT ISZERO PUSH2 0x4292 JUMPI DUP1 PUSH2 0x427E DUP9 DUP3 PUSH2 0x4058 JUMP JUMPDEST DUP5 MSTORE PUSH1 0x20 DUP5 ADD SWAP4 POP POP PUSH1 0x20 DUP2 ADD SWAP1 POP PUSH2 0x426B JUMP JUMPDEST POP POP POP SWAP4 SWAP3 POP POP POP JUMP JUMPDEST PUSH0 DUP3 PUSH1 0x1F DUP4 ADD SLT PUSH2 0x42B0 JUMPI PUSH2 0x42AF PUSH2 0x4210 JUMP JUMPDEST JUMPDEST PUSH1 0x2 PUSH2 0x42BD DUP5 DUP3 DUP6 PUSH2 0x423D JUMP JUMPDEST SWAP2 POP POP SWAP3 SWAP2 POP POP JUMP JUMPDEST PUSH0 PUSH1 0x80 DUP3 DUP5 SUB SLT ISZERO PUSH2 0x42DB JUMPI PUSH2 0x42DA PUSH2 0x3FAD JUMP JUMPDEST JUMPDEST PUSH2 0x42E5 PUSH1 0x40 PUSH2 0x401F JUMP JUMPDEST SWAP1 POP PUSH0 PUSH2 0x42F4 DUP5 DUP3 DUP6 ADD PUSH2 0x429C JUMP JUMPDEST PUSH0 DUP4 ADD MSTORE POP PUSH1 0x40 PUSH2 0x4307 DUP5 DUP3 DUP6 ADD PUSH2 0x429C JUMP JUMPDEST PUSH1 0x20 DUP4 ADD MSTORE POP SWAP3 SWAP2 POP POP JUMP JUMPDEST PUSH0 PUSH2 0x160 DUP3 DUP5 SUB SLT ISZERO PUSH2 0x4329 JUMPI PUSH2 0x4328 PUSH2 0x3FAD JUMP JUMPDEST JUMPDEST PUSH2 0x4333 PUSH1 0xA0 PUSH2 0x401F JUMP JUMPDEST SWAP1 POP PUSH0 PUSH2 0x4342 DUP5 DUP3 DUP6 ADD PUSH2 0x406C JUMP JUMPDEST PUSH0 DUP4 ADD MSTORE POP PUSH1 0x40 PUSH2 0x4355 DUP5 DUP3 DUP6 ADD PUSH2 0x406C JUMP JUMPDEST PUSH1 0x20 DUP4 ADD MSTORE POP PUSH1 0x80 PUSH2 0x4369 DUP5 DUP3 DUP6 ADD PUSH2 0x42C6 JUMP JUMPDEST PUSH1 0x40 DUP4 ADD MSTORE POP PUSH2 0x100 PUSH2 0x437E DUP5 DUP3 DUP6 ADD PUSH2 0x406C JUMP JUMPDEST PUSH1 0x60 DUP4 ADD MSTORE POP PUSH2 0x140 PUSH2 0x4393 DUP5 DUP3 DUP6 ADD PUSH2 0x4058 JUMP JUMPDEST PUSH1 0x80 DUP4 ADD MSTORE POP SWAP3 SWAP2 POP POP JUMP JUMPDEST PUSH0 PUSH2 0x160 DUP3 DUP5 SUB SLT ISZERO PUSH2 0x43B5 JUMPI PUSH2 0x43B4 PUSH2 0x3FA9 JUMP JUMPDEST JUMPDEST PUSH0 PUSH2 0x43C2 DUP5 DUP3 DUP6 ADD PUSH2 0x4313 JUMP JUMPDEST SWAP2 POP POP SWAP3 SWAP2 POP POP JUMP JUMPDEST PUSH0 PUSH2 0x120 DUP3 DUP5 SUB SLT ISZERO PUSH2 0x43E1 JUMPI PUSH2 0x43E0 PUSH2 0x3FAD JUMP JUMPDEST JUMPDEST PUSH2 0x43EB PUSH1 0xA0 PUSH2 0x401F JUMP JUMPDEST SWAP1 POP PUSH0 PUSH2 0x43FA DUP5 DUP3 DUP6 ADD PUSH2 0x406C JUMP JUMPDEST PUSH0 DUP4 ADD MSTORE POP PUSH1 0x40 PUSH2 0x440D DUP5 DUP3 DUP6 ADD PUSH2 0x42C6 JUMP JUMPDEST PUSH1 0x20 DUP4 ADD MSTORE POP PUSH1 0xC0 PUSH2 0x4421 DUP5 DUP3 DUP6 ADD PUSH2 0x4058 JUMP JUMPDEST PUSH1 0x40 DUP4 ADD MSTORE POP PUSH1 0xE0 PUSH2 0x4435 DUP5 DUP3 DUP6 ADD PUSH2 0x4058 JUMP JUMPDEST PUSH1 0x60 DUP4 ADD MSTORE POP PUSH2 0x100 PUSH2 0x444A DUP5 DUP3 DUP6 ADD PUSH2 0x4058 JUMP JUMPDEST PUSH1 0x80 DUP4 ADD MSTORE POP SWAP3 SWAP2 POP POP JUMP JUMPDEST PUSH0 PUSH2 0x120 DUP3 DUP5 SUB SLT ISZERO PUSH2 0x446C JUMPI PUSH2 0x446B PUSH2 0x3FA9 JUMP JUMPDEST JUMPDEST PUSH0 PUSH2 0x4479 DUP5 DUP3 DUP6 ADD PUSH2 0x43CB JUMP JUMPDEST SWAP2 POP POP SWAP3 SWAP2 POP POP JUMP JUMPDEST PUSH0 DUP1 PUSH0 DUP1 PUSH2 0x180 DUP6 DUP8 SUB SLT ISZERO PUSH2 0x449B JUMPI PUSH2 0x449A PUSH2 0x3FA9 JUMP JUMPDEST JUMPDEST PUSH0 PUSH2 0x44A8 DUP8 DUP3 DUP9 ADD PUSH2 0x406C JUMP JUMPDEST SWAP5 POP POP PUSH1 0x40 PUSH2 0x44B9 DUP8 DUP3 DUP9 ADD PUSH2 0x42C6 JUMP JUMPDEST SWAP4 POP POP PUSH1 0xC0 PUSH2 0x44CA DUP8 DUP3 DUP9 ADD PUSH2 0x406C JUMP JUMPDEST SWAP3 POP POP PUSH2 0x100 PUSH2 0x44DC DUP8 DUP3 DUP9 ADD PUSH2 0x42C6 JUMP JUMPDEST SWAP2 POP POP SWAP3 SWAP6 SWAP2 SWAP5 POP SWAP3 POP JUMP JUMPDEST PUSH0 DUP1 PUSH1 0xA0 DUP4 DUP6 SUB SLT ISZERO PUSH2 0x44FE JUMPI PUSH2 0x44FD PUSH2 0x3FA9 JUMP JUMPDEST JUMPDEST PUSH0 PUSH2 0x450B DUP6 DUP3 DUP7 ADD PUSH2 0x42C6 JUMP JUMPDEST SWAP3 POP POP PUSH1 0x80 PUSH2 0x451C DUP6 DUP3 DUP7 ADD PUSH2 0x4058 JUMP JUMPDEST SWAP2 POP POP SWAP3 POP SWAP3 SWAP1 POP JUMP JUMPDEST PUSH0 PUSH1 0x2 SWAP1 POP SWAP2 SWAP1 POP JUMP JUMPDEST PUSH0 DUP2 SWAP1 POP SWAP3 SWAP2 POP POP JUMP JUMPDEST PUSH0 DUP2 SWAP1 POP SWAP2 SWAP1 POP JUMP JUMPDEST PUSH2 0x454C DUP2 PUSH2 0x4039 JUMP JUMPDEST DUP3 MSTORE POP POP JUMP JUMPDEST PUSH0 PUSH2 0x455D DUP4 DUP4 PUSH2 0x4543 JUMP JUMPDEST PUSH1 0x20 DUP4 ADD SWAP1 POP SWAP3 SWAP2 POP POP JUMP JUMPDEST PUSH0 PUSH1 0x20 DUP3 ADD SWAP1 POP SWAP2 SWAP1 POP JUMP JUMPDEST PUSH2 0x457E DUP2 PUSH2 0x4526 JUMP JUMPDEST PUSH2 0x4588 DUP2 DUP5 PUSH2 0x4530 JUMP JUMPDEST SWAP3 POP PUSH2 0x4593 DUP3 PUSH2 0x453A JUMP JUMPDEST DUP1 PUSH0 JUMPDEST DUP4 DUP2 LT ISZERO PUSH2 0x45C3 JUMPI DUP2 MLOAD PUSH2 0x45AA DUP8 DUP3 PUSH2 0x4552 JUMP JUMPDEST SWAP7 POP PUSH2 0x45B5 DUP4 PUSH2 0x4569 JUMP JUMPDEST SWAP3 POP POP PUSH1 0x1 DUP2 ADD SWAP1 POP PUSH2 0x4596 JUMP JUMPDEST POP POP POP POP POP POP JUMP JUMPDEST PUSH1 0x80 DUP3 ADD PUSH0 DUP3 ADD MLOAD PUSH2 0x45DF PUSH0 DUP6 ADD DUP3 PUSH2 0x4575 JUMP JUMPDEST POP PUSH1 0x20 DUP3 ADD MLOAD PUSH2 0x45F2 PUSH1 0x40 DUP6 ADD DUP3 PUSH2 0x4575 JUMP JUMPDEST POP POP POP POP JUMP JUMPDEST PUSH0 PUSH1 0x80 DUP3 ADD SWAP1 POP PUSH2 0x460B PUSH0 DUP4 ADD DUP5 PUSH2 0x45CB JUMP JUMPDEST SWAP3 SWAP2 POP POP JUMP JUMPDEST PUSH0 PUSH2 0x780 DUP3 DUP5 SUB SLT ISZERO PUSH2 0x4627 JUMPI PUSH2 0x4626 PUSH2 0x3FAD JUMP JUMPDEST JUMPDEST PUSH2 0x4632 PUSH2 0x420 PUSH2 0x401F JUMP JUMPDEST SWAP1 POP PUSH0 PUSH2 0x4641 DUP5 DUP3 DUP6 ADD PUSH2 0x43CB JUMP JUMPDEST PUSH0 DUP4 ADD MSTORE POP PUSH2 0x120 PUSH2 0x4655 DUP5 DUP3 DUP6 ADD PUSH2 0x406C JUMP JUMPDEST PUSH1 0x20 DUP4 ADD MSTORE POP PUSH2 0x160 PUSH2 0x466A DUP5 DUP3 DUP6 ADD PUSH2 0x406C JUMP JUMPDEST PUSH1 0x40 DUP4 ADD MSTORE POP PUSH2 0x1A0 PUSH2 0x467F DUP5 DUP3 DUP6 ADD PUSH2 0x406C JUMP JUMPDEST PUSH1 0x60 DUP4 ADD MSTORE POP PUSH2 0x1E0 PUSH2 0x4694 DUP5 DUP3 DUP6 ADD PUSH2 0x406C JUMP JUMPDEST PUSH1 0x80 DUP4 ADD MSTORE POP PUSH2 0x220 PUSH2 0x46A9 DUP5 DUP3 DUP6 ADD PUSH2 0x406C JUMP JUMPDEST PUSH1 0xA0 DUP4 ADD MSTORE POP PUSH2 0x260 PUSH2 0x46BE DUP5 DUP3 DUP6 ADD PUSH2 0x406C JUMP JUMPDEST PUSH1 0xC0 DUP4 ADD MSTORE POP PUSH2 0x2A0 PUSH2 0x46D3 DUP5 DUP3 DUP6 ADD PUSH2 0x406C JUMP JUMPDEST PUSH1 0xE0 DUP4 ADD MSTORE POP PUSH2 0x2E0 PUSH2 0x46E8 DUP5 DUP3 DUP6 ADD PUSH2 0x406C JUMP JUMPDEST PUSH2 0x100 DUP4 ADD MSTORE POP PUSH2 0x320 PUSH2 0x46FE DUP5 DUP3 DUP6 ADD PUSH2 0x406C JUMP JUMPDEST PUSH2 0x120 DUP4 ADD MSTORE POP PUSH2 0x360 PUSH2 0x4714 DUP5 DUP3 DUP6 ADD PUSH2 0x406C JUMP JUMPDEST PUSH2 0x140 DUP4 ADD MSTORE POP PUSH2 0x3A0 PUSH2 0x472A DUP5 DUP3 DUP6 ADD PUSH2 0x406C JUMP JUMPDEST PUSH2 0x160 DUP4 ADD MSTORE POP PUSH2 0x3E0 PUSH2 0x4740 DUP5 DUP3 DUP6 ADD PUSH2 0x406C JUMP JUMPDEST PUSH2 0x180 DUP4 ADD MSTORE POP PUSH2 0x420 PUSH2 0x4756 DUP5 DUP3 DUP6 ADD PUSH2 0x406C JUMP JUMPDEST PUSH2 0x1A0 DUP4 ADD MSTORE POP PUSH2 0x460 PUSH2 0x476C DUP5 DUP3 DUP6 ADD PUSH2 0x4058 JUMP JUMPDEST PUSH2 0x1C0 DUP4 ADD MSTORE POP PUSH2 0x480 PUSH2 0x4782 DUP5 DUP3 DUP6 ADD PUSH2 0x4058 JUMP JUMPDEST PUSH2 0x1E0 DUP4 ADD MSTORE POP PUSH2 0x4A0 PUSH2 0x4798 DUP5 DUP3 DUP6 ADD PUSH2 0x4058 JUMP JUMPDEST PUSH2 0x200 DUP4 ADD MSTORE POP PUSH2 0x4C0 PUSH2 0x47AE DUP5 DUP3 DUP6 ADD PUSH2 0x4058 JUMP JUMPDEST PUSH2 0x220 DUP4 ADD MSTORE POP PUSH2 0x4E0 PUSH2 0x47C4 DUP5 DUP3 DUP6 ADD PUSH2 0x4058 JUMP JUMPDEST PUSH2 0x240 DUP4 ADD MSTORE POP PUSH2 0x500 PUSH2 0x47DA DUP5 DUP3 DUP6 ADD PUSH2 0x4058 JUMP JUMPDEST PUSH2 0x260 DUP4 ADD MSTORE POP PUSH2 0x520 PUSH2 0x47F0 DUP5 DUP3 DUP6 ADD PUSH2 0x4058 JUMP JUMPDEST PUSH2 0x280 DUP4 ADD MSTORE POP PUSH2 0x540 PUSH2 0x4806 DUP5 DUP3 DUP6 ADD PUSH2 0x4058 JUMP JUMPDEST PUSH2 0x2A0 DUP4 ADD MSTORE POP PUSH2 0x560 PUSH2 0x481C DUP5 DUP3 DUP6 ADD PUSH2 0x4058 JUMP JUMPDEST PUSH2 0x2C0 DUP4 ADD MSTORE POP PUSH2 0x580 PUSH2 0x4832 DUP5 DUP3 DUP6 ADD PUSH2 0x4058 JUMP JUMPDEST PUSH2 0x2E0 DUP4 ADD MSTORE POP PUSH2 0x5A0 PUSH2 0x4848 DUP5 DUP3 DUP6 ADD PUSH2 0x4058 JUMP JUMPDEST PUSH2 0x300 DUP4 ADD MSTORE POP PUSH2 0x5C0 PUSH2 0x485E DUP5 DUP3 DUP6 ADD PUSH2 0x4058 JUMP JUMPDEST PUSH2 0x320 DUP4 ADD MSTORE POP PUSH2 0x5E0 PUSH2 0x4874 DUP5 DUP3 DUP6 ADD PUSH2 0x4058 JUMP JUMPDEST PUSH2 0x340 DUP4 ADD MSTORE POP PUSH2 0x600 PUSH2 0x488A DUP5 DUP3 DUP6 ADD PUSH2 0x406C JUMP JUMPDEST PUSH2 0x360 DUP4 ADD MSTORE POP PUSH2 0x640 PUSH2 0x48A0 DUP5 DUP3 DUP6 ADD PUSH2 0x406C JUMP JUMPDEST PUSH2 0x380 DUP4 ADD MSTORE POP PUSH2 0x680 PUSH2 0x48B6 DUP5 DUP3 DUP6 ADD PUSH2 0x406C JUMP JUMPDEST PUSH2 0x3A0 DUP4 ADD MSTORE POP PUSH2 0x6C0 PUSH2 0x48CC DUP5 DUP3 DUP6 ADD PUSH2 0x406C JUMP JUMPDEST PUSH2 0x3C0 DUP4 ADD MSTORE POP PUSH2 0x700 PUSH2 0x48E2 DUP5 DUP3 DUP6 ADD PUSH2 0x406C JUMP JUMPDEST PUSH2 0x3E0 DUP4 ADD MSTORE POP PUSH2 0x740 PUSH2 0x48F8 DUP5 DUP3 DUP6 ADD PUSH2 0x406C JUMP JUMPDEST PUSH2 0x400 DUP4 ADD MSTORE POP SWAP3 SWAP2 POP POP JUMP JUMPDEST PUSH0 PUSH2 0x780 DUP3 DUP5 SUB SLT ISZERO PUSH2 0x491B JUMPI PUSH2 0x491A PUSH2 0x3FA9 JUMP JUMPDEST JUMPDEST PUSH0 PUSH2 0x4928 DUP5 DUP3 DUP6 ADD PUSH2 0x4611 JUMP JUMPDEST SWAP2 POP POP SWAP3 SWAP2 POP POP JUMP JUMPDEST PUSH0 DUP1 PUSH0 DUP1 PUSH1 0xC0 DUP6 DUP8 SUB SLT ISZERO PUSH2 0x4949 JUMPI PUSH2 0x4948 PUSH2 0x3FA9 JUMP JUMPDEST JUMPDEST PUSH0 PUSH2 0x4956 DUP8 DUP3 DUP9 ADD PUSH2 0x406C JUMP JUMPDEST SWAP5 POP POP PUSH1 0x40 PUSH2 0x4967 DUP8 DUP3 DUP9 ADD PUSH2 0x406C JUMP JUMPDEST SWAP4 POP POP PUSH1 0x80 PUSH2 0x4978 DUP8 DUP3 DUP9 ADD PUSH2 0x4058 JUMP JUMPDEST SWAP3 POP POP PUSH1 0xA0 PUSH2 0x4989 DUP8 DUP3 DUP9 ADD PUSH2 0x4058 JUMP JUMPDEST SWAP2 POP POP SWAP3 SWAP6 SWAP2 SWAP5 POP SWAP3 POP JUMP JUMPDEST PUSH0 DUP2 SWAP1 POP SWAP2 SWAP1 POP JUMP JUMPDEST PUSH2 0x49AF PUSH2 0x49AA DUP3 PUSH2 0x4039 JUMP JUMPDEST PUSH2 0x4995 JUMP JUMPDEST DUP3 MSTORE POP POP JUMP JUMPDEST PUSH0 PUSH2 0x49C0 DUP3 DUP8 PUSH2 0x499E JUMP JUMPDEST PUSH1 0x20 DUP3 ADD SWAP2 POP PUSH2 0x49D0 DUP3 DUP7 PUSH2 0x499E JUMP JUMPDEST PUSH1 0x20 DUP3 ADD SWAP2 POP PUSH2 0x49E0 DUP3 DUP6 PUSH2 0x499E JUMP JUMPDEST PUSH1 0x20 DUP3 ADD SWAP2 POP PUSH2 0x49F0 DUP3 DUP5 PUSH2 0x499E JUMP JUMPDEST PUSH1 0x20 DUP3 ADD SWAP2 POP DUP2 SWAP1 POP SWAP6 SWAP5 POP POP POP POP POP JUMP JUMPDEST PUSH0 PUSH2 0x4A0D DUP3 DUP12 PUSH2 0x499E JUMP JUMPDEST PUSH1 0x20 DUP3 ADD SWAP2 POP PUSH2 0x4A1D DUP3 DUP11 PUSH2 0x499E JUMP JUMPDEST PUSH1 0x20 DUP3 ADD SWAP2 POP PUSH2 0x4A2D DUP3 DUP10 PUSH2 0x499E JUMP JUMPDEST PUSH1 0x20 DUP3 ADD SWAP2 POP PUSH2 0x4A3D DUP3 DUP9 PUSH2 0x499E JUMP JUMPDEST PUSH1 0x20 DUP3 ADD SWAP2 POP PUSH2 0x4A4D DUP3 DUP8 PUSH2 0x499E JUMP JUMPDEST PUSH1 0x20 DUP3 ADD SWAP2 POP PUSH2 0x4A5D DUP3 DUP7 PUSH2 0x499E JUMP JUMPDEST PUSH1 0x20 DUP3 ADD SWAP2 POP PUSH2 0x4A6D DUP3 DUP6 PUSH2 0x499E JUMP JUMPDEST PUSH1 0x20 DUP3 ADD SWAP2 POP PUSH2 0x4A7D DUP3 DUP5 PUSH2 0x499E JUMP JUMPDEST PUSH1 0x20 DUP3 ADD SWAP2 POP DUP2 SWAP1 POP SWAP10 SWAP9 POP POP POP POP POP POP POP POP POP JUMP JUMPDEST PUSH0 DUP3 DUP3 MSTORE PUSH1 0x20 DUP3 ADD SWAP1 POP SWAP3 SWAP2 POP POP JUMP JUMPDEST PUSH32 0x56657269666965722E7665726966794B5A473A205F636F6D6D69746D656E742E PUSH0 DUP3 ADD MSTORE PUSH32 0x58206973206F7574206F662072616E6765000000000000000000000000000000 PUSH1 0x20 DUP3 ADD MSTORE POP JUMP JUMPDEST PUSH0 PUSH2 0x4AFD PUSH1 0x31 DUP4 PUSH2 0x4A93 JUMP JUMPDEST SWAP2 POP PUSH2 0x4B08 DUP3 PUSH2 0x4AA3 JUMP JUMPDEST PUSH1 0x40 DUP3 ADD SWAP1 POP SWAP2 SWAP1 POP JUMP JUMPDEST PUSH0 PUSH1 0x20 DUP3 ADD SWAP1 POP DUP2 DUP2 SUB PUSH0 DUP4 ADD MSTORE PUSH2 0x4B2A DUP2 PUSH2 0x4AF1 JUMP JUMPDEST SWAP1 POP SWAP2 SWAP1 POP JUMP JUMPDEST PUSH32 0x56657269666965722E7665726966794B5A473A205F636F6D6D69746D656E742E PUSH0 DUP3 ADD MSTORE PUSH32 0x59206973206F7574206F662072616E6765000000000000000000000000000000 PUSH1 0x20 DUP3 ADD MSTORE POP JUMP JUMPDEST PUSH0 PUSH2 0x4B8B PUSH1 0x31 DUP4 PUSH2 0x4A93 JUMP JUMPDEST SWAP2 POP PUSH2 0x4B96 DUP3 PUSH2 0x4B31 JUMP JUMPDEST PUSH1 0x40 DUP3 ADD SWAP1 POP SWAP2 SWAP1 POP JUMP JUMPDEST PUSH0 PUSH1 0x20 DUP3 ADD SWAP1 POP DUP2 DUP2 SUB PUSH0 DUP4 ADD MSTORE PUSH2 0x4BB8 DUP2 PUSH2 0x4B7F JUMP JUMPDEST SWAP1 POP SWAP2 SWAP1 POP JUMP JUMPDEST PUSH32 0x56657269666965722E7665726966794B5A473A205F70726F6F662E5820697320 PUSH0 DUP3 ADD MSTORE PUSH32 0x6F7574206F662072616E67650000000000000000000000000000000000000000 PUSH1 0x20 DUP3 ADD MSTORE POP JUMP JUMPDEST PUSH0 PUSH2 0x4C19 PUSH1 0x2C DUP4 PUSH2 0x4A93 JUMP JUMPDEST SWAP2 POP PUSH2 0x4C24 DUP3 PUSH2 0x4BBF JUMP JUMPDEST PUSH1 0x40 DUP3 ADD SWAP1 POP SWAP2 SWAP1 POP JUMP JUMPDEST PUSH0 PUSH1 0x20 DUP3 ADD SWAP1 POP DUP2 DUP2 SUB PUSH0 DUP4 ADD MSTORE PUSH2 0x4C46 DUP2 PUSH2 0x4C0D JUMP JUMPDEST SWAP1 POP SWAP2 SWAP1 POP JUMP JUMPDEST PUSH32 0x56657269666965722E7665726966794B5A473A205F70726F6F662E5920697320 PUSH0 DUP3 ADD MSTORE PUSH32 0x6F7574206F662072616E67650000000000000000000000000000000000000000 PUSH1 0x20 DUP3 ADD MSTORE POP JUMP JUMPDEST PUSH0 PUSH2 0x4CA7 PUSH1 0x2C DUP4 PUSH2 0x4A93 JUMP JUMPDEST SWAP2 POP PUSH2 0x4CB2 DUP3 PUSH2 0x4C4D JUMP JUMPDEST PUSH1 0x40 DUP3 ADD SWAP1 POP SWAP2 SWAP1 POP JUMP JUMPDEST PUSH0 PUSH1 0x20 DUP3 ADD SWAP1 POP DUP2 DUP2 SUB PUSH0 DUP4 ADD MSTORE PUSH2 0x4CD4 DUP2 PUSH2 0x4C9B JUMP JUMPDEST SWAP1 POP SWAP2 SWAP1 POP JUMP JUMPDEST PUSH32 0x4E487B7100000000000000000000000000000000000000000000000000000000 PUSH0 MSTORE PUSH1 0x32 PUSH1 0x4 MSTORE PUSH1 0x24 PUSH0 REVERT JUMPDEST PUSH32 0x56657269666965722E7665726966794B5A473A20685F6E6567617465616C7068 PUSH0 DUP3 ADD MSTORE PUSH32 0x617A2E585B305D206973206F7574206F662072616E6765000000000000000000 PUSH1 0x20 DUP3 ADD MSTORE POP JUMP JUMPDEST PUSH0 PUSH2 0x4D62 PUSH1 0x37 DUP4 PUSH2 0x4A93 JUMP JUMPDEST SWAP2 POP PUSH2 0x4D6D DUP3 PUSH2 0x4D08 JUMP JUMPDEST PUSH1 0x40 DUP3 ADD SWAP1 POP SWAP2 SWAP1 POP JUMP JUMPDEST PUSH0 PUSH1 0x20 DUP3 ADD SWAP1 POP DUP2 DUP2 SUB PUSH0 DUP4 ADD MSTORE PUSH2 0x4D8F DUP2 PUSH2 0x4D56 JUMP JUMPDEST SWAP1 POP SWAP2 SWAP1 POP JUMP JUMPDEST PUSH32 0x56657269666965722E7665726966794B5A473A20685F6E6567617465616C7068 PUSH0 DUP3 ADD MSTORE PUSH32 0x617A2E595B315D206973206F7574206F662072616E6765000000000000000000 PUSH1 0x20 DUP3 ADD MSTORE POP JUMP JUMPDEST PUSH0 PUSH2 0x4DF0 PUSH1 0x37 DUP4 PUSH2 0x4A93 JUMP JUMPDEST SWAP2 POP PUSH2 0x4DFB DUP3 PUSH2 0x4D96 JUMP JUMPDEST PUSH1 0x40 DUP3 ADD SWAP1 POP SWAP2 SWAP1 POP JUMP JUMPDEST PUSH0 PUSH1 0x20 DUP3 ADD SWAP1 POP DUP2 DUP2 SUB PUSH0 DUP4 ADD MSTORE PUSH2 0x4E1D DUP2 PUSH2 0x4DE4 JUMP JUMPDEST SWAP1 POP SWAP2 SWAP1 POP JUMP JUMPDEST PUSH32 0x56657269666965722E7665726966794B5A473A20675F6E6167617465312F7A2E PUSH0 DUP3 ADD MSTORE PUSH32 0x58206973206F7574206F662072616E6765000000000000000000000000000000 PUSH1 0x20 DUP3 ADD MSTORE POP JUMP JUMPDEST PUSH0 PUSH2 0x4E7E PUSH1 0x31 DUP4 PUSH2 0x4A93 JUMP JUMPDEST SWAP2 POP PUSH2 0x4E89 DUP3 PUSH2 0x4E24 JUMP JUMPDEST PUSH1 0x40 DUP3 ADD SWAP1 POP SWAP2 SWAP1 POP JUMP JUMPDEST PUSH0 PUSH1 0x20 DUP3 ADD SWAP1 POP DUP2 DUP2 SUB PUSH0 DUP4 ADD MSTORE PUSH2 0x4EAB DUP2 PUSH2 0x4E72 JUMP JUMPDEST SWAP1 POP SWAP2 SWAP1 POP JUMP JUMPDEST PUSH32 0x56657269666965722E7665726966794B5A473A20675F6E6167617465312F7A2E PUSH0 DUP3 ADD MSTORE PUSH32 0x59206973206F7574206F662072616E6765000000000000000000000000000000 PUSH1 0x20 DUP3 ADD MSTORE POP JUMP JUMPDEST PUSH0 PUSH2 0x4F0C PUSH1 0x31 DUP4 PUSH2 0x4A93 JUMP JUMPDEST SWAP2 POP PUSH2 0x4F17 DUP3 PUSH2 0x4EB2 JUMP JUMPDEST PUSH1 0x40 DUP3 ADD SWAP1 POP SWAP2 SWAP1 POP JUMP JUMPDEST PUSH0 PUSH1 0x20 DUP3 ADD SWAP1 POP DUP2 DUP2 SUB PUSH0 DUP4 ADD MSTORE PUSH2 0x4F39 DUP2 PUSH2 0x4F00 JUMP JUMPDEST SWAP1 POP SWAP2 SWAP1 POP JUMP JUMPDEST PUSH32 0x56657269666965722E7665726966794B5A473A205F76616C7565206973206F75 PUSH0 DUP3 ADD MSTORE PUSH32 0x74206F662072616E676500000000000000000000000000000000000000000000 PUSH1 0x20 DUP3 ADD MSTORE POP JUMP JUMPDEST PUSH0 PUSH2 0x4F9A PUSH1 0x2A DUP4 PUSH2 0x4A93 JUMP JUMPDEST SWAP2 POP PUSH2 0x4FA5 DUP3 PUSH2 0x4F40 JUMP JUMPDEST PUSH1 0x40 DUP3 ADD SWAP1 POP SWAP2 SWAP1 POP JUMP JUMPDEST PUSH0 PUSH1 0x20 DUP3 ADD SWAP1 POP DUP2 DUP2 SUB PUSH0 DUP4 ADD MSTORE PUSH2 0x4FC7 DUP2 PUSH2 0x4F8E JUMP JUMPDEST SWAP1 POP SWAP2 SWAP1 POP JUMP JUMPDEST PUSH0 PUSH2 0x4FD9 DUP3 DUP16 PUSH2 0x499E JUMP JUMPDEST PUSH1 0x20 DUP3 ADD SWAP2 POP PUSH2 0x4FE9 DUP3 DUP15 PUSH2 0x499E JUMP JUMPDEST PUSH1 0x20 DUP3 ADD SWAP2 POP PUSH2 0x4FF9 DUP3 DUP14 PUSH2 0x499E JUMP JUMPDEST PUSH1 0x20 DUP3 ADD SWAP2 POP PUSH2 0x5009 DUP3 DUP13 PUSH2 0x499E JUMP JUMPDEST PUSH1 0x20 DUP3 ADD SWAP2 POP PUSH2 0x5019 DUP3 DUP12 PUSH2 0x499E JUMP JUMPDEST PUSH1 0x20 DUP3 ADD SWAP2 POP PUSH2 0x5029 DUP3 DUP11 PUSH2 0x499E JUMP JUMPDEST PUSH1 0x20 DUP3 ADD SWAP2 POP PUSH2 0x5039 DUP3 DUP10 PUSH2 0x499E JUMP JUMPDEST PUSH1 0x20 DUP3 ADD SWAP2 POP PUSH2 0x5049 DUP3 DUP9 PUSH2 0x499E JUMP JUMPDEST PUSH1 0x20 DUP3 ADD SWAP2 POP PUSH2 0x5059 DUP3 DUP8 PUSH2 0x499E JUMP JUMPDEST PUSH1 0x20 DUP3 ADD SWAP2 POP PUSH2 0x5069 DUP3 DUP7 PUSH2 0x499E JUMP JUMPDEST PUSH1 0x20 DUP3 ADD SWAP2 POP PUSH2 0x5079 DUP3 DUP6 PUSH2 0x499E JUMP JUMPDEST PUSH1 0x20 DUP3 ADD SWAP2 POP PUSH2 0x5089 DUP3 DUP5 PUSH2 0x499E JUMP JUMPDEST PUSH1 0x20 DUP3 ADD SWAP2 POP DUP2 SWAP1 POP SWAP14 SWAP13 POP POP POP POP POP POP POP POP POP POP POP POP POP JUMP JUMPDEST PUSH32 0x4E487B7100000000000000000000000000000000000000000000000000000000 PUSH0 MSTORE PUSH1 0x12 PUSH1 0x4 MSTORE PUSH1 0x24 PUSH0 REVERT JUMPDEST PUSH0 PUSH2 0x50DA DUP3 PUSH2 0x4039 JUMP JUMPDEST SWAP2 POP PUSH2 0x50E5 DUP4 PUSH2 0x4039 JUMP JUMPDEST SWAP3 POP DUP3 PUSH2 0x50F5 JUMPI PUSH2 0x50F4 PUSH2 0x50A3 JUMP JUMPDEST JUMPDEST DUP3 DUP3 MOD SWAP1 POP SWAP3 SWAP2 POP POP JUMP JUMPDEST PUSH32 0x4E487B7100000000000000000000000000000000000000000000000000000000 PUSH0 MSTORE PUSH1 0x11 PUSH1 0x4 MSTORE PUSH1 0x24 PUSH0 REVERT JUMPDEST PUSH0 PUSH2 0x5137 DUP3 PUSH2 0x4039 JUMP JUMPDEST SWAP2 POP PUSH2 0x5142 DUP4 PUSH2 0x4039 JUMP JUMPDEST SWAP3 POP DUP3 PUSH2 0x5152 JUMPI PUSH2 0x5151 PUSH2 0x50A3 JUMP JUMPDEST JUMPDEST DUP3 DUP3 DIV SWAP1 POP SWAP3 SWAP2 POP POP JUMP JUMPDEST PUSH0 PUSH2 0x5167 DUP3 PUSH2 0x4039 JUMP JUMPDEST SWAP2 POP PUSH2 0x5172 DUP4 PUSH2 0x4039 JUMP JUMPDEST SWAP3 POP DUP3 DUP3 SUB SWAP1 POP DUP2 DUP2 GT ISZERO PUSH2 0x518A JUMPI PUSH2 0x5189 PUSH2 0x5100 JUMP JUMPDEST JUMPDEST SWAP3 SWAP2 POP POP JUMP JUMPDEST PUSH32 0x56657269666965722E7665726966794B5A473A205F696E646578206973206F75 PUSH0 DUP3 ADD MSTORE PUSH32 0x74206F662072616E676500000000000000000000000000000000000000000000 PUSH1 0x20 DUP3 ADD MSTORE POP JUMP JUMPDEST PUSH0 PUSH2 0x51EA PUSH1 0x2A DUP4 PUSH2 0x4A93 JUMP JUMPDEST SWAP2 POP PUSH2 0x51F5 DUP3 PUSH2 0x5190 JUMP JUMPDEST PUSH1 0x40 DUP3 ADD SWAP1 POP SWAP2 SWAP1 POP JUMP JUMPDEST PUSH0 PUSH1 0x20 DUP3 ADD SWAP1 POP DUP2 DUP2 SUB PUSH0 DUP4 ADD MSTORE PUSH2 0x5217 DUP2 PUSH2 0x51DE JUMP JUMPDEST SWAP1 POP SWAP2 SWAP1 POP JUMP JUMPDEST PUSH32 0x70616972696E672D6F70636F64652D6661696C65640000000000000000000000 PUSH0 DUP3 ADD MSTORE POP JUMP JUMPDEST PUSH0 PUSH2 0x5252 PUSH1 0x15 DUP4 PUSH2 0x4A93 JUMP JUMPDEST SWAP2 POP PUSH2 0x525D DUP3 PUSH2 0x521E JUMP JUMPDEST PUSH1 0x20 DUP3 ADD SWAP1 POP SWAP2 SWAP1 POP JUMP JUMPDEST PUSH0 PUSH1 0x20 DUP3 ADD SWAP1 POP DUP2 DUP2 SUB PUSH0 DUP4 ADD MSTORE PUSH2 0x527F DUP2 PUSH2 0x5246 JUMP JUMPDEST SWAP1 POP SWAP2 SWAP1 POP JUMP JUMPDEST PUSH32 0x70616972696E672D6D756C2D6661696C65640000000000000000000000000000 PUSH0 DUP3 ADD MSTORE POP JUMP JUMPDEST PUSH0 PUSH2 0x52BA PUSH1 0x12 DUP4 PUSH2 0x4A93 JUMP JUMPDEST SWAP2 POP PUSH2 0x52C5 DUP3 PUSH2 0x5286 JUMP JUMPDEST PUSH1 0x20 DUP3 ADD SWAP1 POP SWAP2 SWAP1 POP JUMP JUMPDEST PUSH0 PUSH1 0x20 DUP3 ADD SWAP1 POP DUP2 DUP2 SUB PUSH0 DUP4 ADD MSTORE PUSH2 0x52E7 DUP2 PUSH2 0x52AE JUMP JUMPDEST SWAP1 POP SWAP2 SWAP1 POP JUMP JUMPDEST PUSH32 0x70616972696E672D6164642D6661696C65640000000000000000000000000000 PUSH0 DUP3 ADD MSTORE POP JUMP JUMPDEST PUSH0 PUSH2 0x5322 PUSH1 0x12 DUP4 PUSH2 0x4A93 JUMP JUMPDEST SWAP2 POP PUSH2 0x532D DUP3 PUSH2 0x52EE JUMP JUMPDEST PUSH1 0x20 DUP3 ADD SWAP1 POP SWAP2 SWAP1 POP JUMP JUMPDEST PUSH0 PUSH1 0x20 DUP3 ADD SWAP1 POP DUP2 DUP2 SUB PUSH0 DUP4 ADD MSTORE PUSH2 0x534F DUP2 PUSH2 0x5316 JUMP JUMPDEST SWAP1 POP SWAP2 SWAP1 POP JUMP JUMPDEST PUSH0 PUSH2 0x5360 DUP3 PUSH2 0x4039 JUMP JUMPDEST SWAP2 POP PUSH2 0x536B DUP4 PUSH2 0x4039 JUMP JUMPDEST SWAP3 POP DUP3 DUP3 MUL PUSH2 0x5379 DUP2 PUSH2 0x4039 JUMP JUMPDEST SWAP2 POP DUP3 DUP3 DIV DUP5 EQ DUP4 ISZERO OR PUSH2 0x5390 JUMPI PUSH2 0x538F PUSH2 0x5100 JUMP JUMPDEST JUMPDEST POP SWAP3 SWAP2 POP POP JUMP JUMPDEST PUSH0 PUSH2 0x53A1 DUP3 PUSH2 0x4039 JUMP JUMPDEST SWAP2 POP PUSH2 0x53AC DUP4 PUSH2 0x4039 JUMP JUMPDEST SWAP3 POP DUP3 DUP3 ADD SWAP1 POP DUP1 DUP3 GT ISZERO PUSH2 0x53C4 JUMPI PUSH2 0x53C3 PUSH2 0x5100 JUMP JUMPDEST JUMPDEST SWAP3 SWAP2 POP POP JUMP JUMPDEST PUSH32 0x4D6F64756C7573206973207A65726F0000000000000000000000000000000000 PUSH0 DUP3 ADD MSTORE POP JUMP JUMPDEST PUSH0 PUSH2 0x53FE PUSH1 0xF DUP4 PUSH2 0x4A93 JUMP JUMPDEST SWAP2 POP PUSH2 0x5409 DUP3 PUSH2 0x53CA JUMP JUMPDEST PUSH1 0x20 DUP3 ADD SWAP1 POP SWAP2 SWAP1 POP JUMP JUMPDEST PUSH0 PUSH1 0x20 DUP3 ADD SWAP1 POP DUP2 DUP2 SUB PUSH0 DUP4 ADD MSTORE PUSH2 0x542B DUP2 PUSH2 0x53F2 JUMP JUMPDEST SWAP1 POP SWAP2 SWAP1 POP JUMP INVALID LOG2 PUSH5 0x6970667358 0x22 SLT KECCAK256 PUSH15 0x66D9E13C44F35B7F1A5F8CC402F91A MUL PUSH8 0xD306E92BE563DF1F 0xEF 0xD DUP2 0xE9 0xD6 0x22 PUSH5 0x736F6C6343 STOP ADDMOD AND STOP CALLER "
		},
		"gasEstimates": {
			"creation": {
				"codeDepositCost": "4321600",
				"executionCost": "infinite",
				"totalCost": "infinite"
			},
			"external": {
				"KZGVerify((uint256,uint256),(uint256,uint256),uint256,uint256)": "infinite",
				"PVADVerification((((uint256,uint256),(uint256[2],uint256[2]),uint256,uint256,uint256),(uint256,uint256),(uint256,uint256),(uint256,uint256),(uint256,uint256),(uint256,uint256),(uint256,uint256),(uint256,uint256),(uint256,uint256),(uint256,uint256),(uint256,uint256),(uint256,uint256),(uint256,uint256),(uint256,uint256),uint256,uint256,uint256,uint256,uint256,uint256,uint256,uint256,uint256,uint256,uint256,uint256,uint256,(uint256,uint256),(uint256,uint256),(uint256,uint256),(uint256,uint256),(uint256,uint256),(uint256,uint256)))": "infinite",
				"PVADVerificationEst()": "infinite",
				"hashFourG1Points((uint256,uint256),(uint256,uint256),(uint256,uint256),(uint256,uint256))": "infinite",
				"hashFourPoints((uint256,uint256),(uint256[2],uint256[2]),(uint256,uint256),(uint256[2],uint256[2]))": "infinite",
				"hashTwoG1Points((uint256,uint256),(uint256,uint256))": "infinite",
				"kzgSpecialVerification(((uint256,uint256),(uint256,uint256),(uint256[2],uint256[2]),(uint256,uint256),uint256))": "infinite",
				"mulScalar2((uint256[2],uint256[2]),uint256)": "infinite",
				"verifyDmax((uint256,uint256),(uint256,uint256),uint256)": "infinite",
				"zkPoCVerification(((uint256,uint256),(uint256[2],uint256[2]),uint256,uint256,uint256))": "infinite"
			},
			"internal": {
				"SRS_g()": "infinite",
				"add2(struct VerfiAlgoFair.G2Point memory,struct VerfiAlgoFair.G2Point memory)": "infinite",
				"addmod2(uint256[2] memory,uint256[2] memory)": "infinite",
				"double(struct VerfiAlgoFair.G2Point memory)": "infinite",
				"ethMessageHash(string memory)": "infinite",
				"expMod(uint256,uint256,uint256)": "infinite",
				"invmod(uint256)": "infinite",
				"mulScalar(struct VerfiAlgoFair.G1Point memory,uint256)": "infinite",
				"mulmod2(uint256[2] memory,uint256[2] memory)": "infinite",
				"negate(struct VerfiAlgoFair.G1Point memory)": "infinite",
				"pairing_2point(struct VerfiAlgoFair.G1Point memory,struct VerfiAlgoFair.G2Point memory,struct VerfiAlgoFair.G1Point memory,struct VerfiAlgoFair.G2Point memory)": "infinite",
				"pairing_3point(struct VerfiAlgoFair.G1Point memory,struct VerfiAlgoFair.G2Point memory,struct VerfiAlgoFair.G1Point memory,struct VerfiAlgoFair.G2Point memory,struct VerfiAlgoFair.G1Point memory,struct VerfiAlgoFair.G2Point memory)": "infinite",
				"plus(struct VerfiAlgoFair.G1Point memory,struct VerfiAlgoFair.G1Point memory)": "infinite",
				"submod(uint256,uint256)": "infinite",
				"submod2(uint256[2] memory,uint256[2] memory)": "infinite"
			}
		},
		"methodIdentifiers": {
			"KZGVerify((uint256,uint256),(uint256,uint256),uint256,uint256)": "fc137deb",
			"PVADVerification((((uint256,uint256),(uint256[2],uint256[2]),uint256,uint256,uint256),(uint256,uint256),(uint256,uint256),(uint256,uint256),(uint256,uint256),(uint256,uint256),(uint256,uint256),(uint256,uint256),(uint256,uint256),(uint256,uint256),(uint256,uint256),(uint256,uint256),(uint256,uint256),(uint256,uint256),uint256,uint256,uint256,uint256,uint256,uint256,uint256,uint256,uint256,uint256,uint256,uint256,uint256,(uint256,uint256),(uint256,uint256),(uint256,uint256),(uint256,uint256),(uint256,uint256),(uint256,uint256)))": "ef3684d2",
			"PVADVerificationEst()": "aef4a98a",
			"hashFourG1Points((uint256,uint256),(uint256,uint256),(uint256,uint256),(uint256,uint256))": "34200b14",
			"hashFourPoints((uint256,uint256),(uint256[2],uint256[2]),(uint256,uint256),(uint256[2],uint256[2]))": "bda45338",
			"hashTwoG1Points((uint256,uint256),(uint256,uint256))": "1f96439f",
			"kzgSpecialVerification(((uint256,uint256),(uint256,uint256),(uint256[2],uint256[2]),(uint256,uint256),uint256))": "529fbfd8",
			"mulScalar2((uint256[2],uint256[2]),uint256)": "be603b1a",
			"verifyDmax((uint256,uint256),(uint256,uint256),uint256)": "03d2ae1f",
			"zkPoCVerification(((uint256,uint256),(uint256[2],uint256[2]),uint256,uint256,uint256))": "9388d55f"
		}
	},
	"abi": [
		{
			"inputs": [
				{
					"components": [
						{
							"internalType": "uint256",
							"name": "X",
							"type": "uint256"
						},
						{
							"internalType": "uint256",
							"name": "Y",
							"type": "uint256"
						}
					],
					"internalType": "struct VerfiAlgoFair.G1Point",
					"name": "_commitment",
					"type": "tuple"
				},
				{
					"components": [
						{
							"internalType": "uint256",
							"name": "X",
							"type": "uint256"
						},
						{
							"internalType": "uint256",
							"name": "Y",
							"type": "uint256"
						}
					],
					"internalType": "struct VerfiAlgoFair.G1Point",
					"name": "_proof",
					"type": "tuple"
				},
				{
					"internalType": "uint256",
					"name": "_index",
					"type": "uint256"
				},
				{
					"internalType": "uint256",
					"name": "_value",
					"type": "uint256"
				}
			],
			"name": "KZGVerify",
			"outputs": [
				{
					"internalType": "bool",
					"name": "",
					"type": "bool"
				}
			],
			"stateMutability": "view",
			"type": "function"
		},
		{
			"inputs": [
				{
					"components": [
						{
							"components": [
								{
									"components": [
										{
											"internalType": "uint256",
											"name": "X",
											"type": "uint256"
										},
										{
											"internalType": "uint256",
											"name": "Y",
											"type": "uint256"
										}
									],
									"internalType": "struct VerfiAlgoFair.G1Point",
									"name": "g_one_over_xPrime",
									"type": "tuple"
								},
								{
									"components": [
										{
											"internalType": "uint256[2]",
											"name": "X",
											"type": "uint256[2]"
										},
										{
											"internalType": "uint256[2]",
											"name": "Y",
											"type": "uint256[2]"
										}
									],
									"internalType": "struct VerfiAlgoFair.G2Point",
									"name": "h_alpha_rPrime",
									"type": "tuple"
								},
								{
									"internalType": "uint256",
									"name": "zx",
									"type": "uint256"
								},
								{
									"internalType": "uint256",
									"name": "zr",
									"type": "uint256"
								},
								{
									"internalType": "uint256",
									"name": "beta",
									"type": "uint256"
								}
							],
							"internalType": "struct VerfiAlgoFair.zkPoCProof",
							"name": "pi_Z_prime",
							"type": "tuple"
						},
						{
							"components": [
								{
									"internalType": "uint256",
									"name": "X",
									"type": "uint256"
								},
								{
									"internalType": "uint256",
									"name": "Y",
									"type": "uint256"
								}
							],
							"internalType": "struct VerfiAlgoFair.G1Point",
							"name": "pi_R_tilde",
							"type": "tuple"
						},
						{
							"components": [
								{
									"internalType": "uint256",
									"name": "X",
									"type": "uint256"
								},
								{
									"internalType": "uint256",
									"name": "Y",
									"type": "uint256"
								}
							],
							"internalType": "struct VerfiAlgoFair.G1Point",
							"name": "pi_R1",
							"type": "tuple"
						},
						{
							"components": [
								{
									"internalType": "uint256",
									"name": "X",
									"type": "uint256"
								},
								{
									"internalType": "uint256",
									"name": "Y",
									"type": "uint256"
								}
							],
							"internalType": "struct VerfiAlgoFair.G1Point",
							"name": "pi_R2",
							"type": "tuple"
						},
						{
							"components": [
								{
									"internalType": "uint256",
									"name": "X",
									"type": "uint256"
								},
								{
									"internalType": "uint256",
									"name": "Y",
									"type": "uint256"
								}
							],
							"internalType": "struct VerfiAlgoFair.G1Point",
							"name": "pi_T",
							"type": "tuple"
						},
						{
							"components": [
								{
									"internalType": "uint256",
									"name": "X",
									"type": "uint256"
								},
								{
									"internalType": "uint256",
									"name": "Y",
									"type": "uint256"
								}
							],
							"internalType": "struct VerfiAlgoFair.G1Point",
							"name": "pi_K",
							"type": "tuple"
						},
						{
							"components": [
								{
									"internalType": "uint256",
									"name": "X",
									"type": "uint256"
								},
								{
									"internalType": "uint256",
									"name": "Y",
									"type": "uint256"
								}
							],
							"internalType": "struct VerfiAlgoFair.G1Point",
							"name": "pi_S_hat",
							"type": "tuple"
						},
						{
							"components": [
								{
									"internalType": "uint256",
									"name": "X",
									"type": "uint256"
								},
								{
									"internalType": "uint256",
									"name": "Y",
									"type": "uint256"
								}
							],
							"internalType": "struct VerfiAlgoFair.G1Point",
							"name": "pi_S1",
							"type": "tuple"
						},
						{
							"components": [
								{
									"internalType": "uint256",
									"name": "X",
									"type": "uint256"
								},
								{
									"internalType": "uint256",
									"name": "Y",
									"type": "uint256"
								}
							],
							"internalType": "struct VerfiAlgoFair.G1Point",
							"name": "pi_S2",
							"type": "tuple"
						},
						{
							"components": [
								{
									"internalType": "uint256",
									"name": "X",
									"type": "uint256"
								},
								{
									"internalType": "uint256",
									"name": "Y",
									"type": "uint256"
								}
							],
							"internalType": "struct VerfiAlgoFair.G1Point",
							"name": "pi_I_zeta",
							"type": "tuple"
						},
						{
							"components": [
								{
									"internalType": "uint256",
									"name": "X",
									"type": "uint256"
								},
								{
									"internalType": "uint256",
									"name": "Y",
									"type": "uint256"
								}
							],
							"internalType": "struct VerfiAlgoFair.G1Point",
							"name": "pi_F_zeta",
							"type": "tuple"
						},
						{
							"components": [
								{
									"internalType": "uint256",
									"name": "X",
									"type": "uint256"
								},
								{
									"internalType": "uint256",
									"name": "Y",
									"type": "uint256"
								}
							],
							"internalType": "struct VerfiAlgoFair.G1Point",
							"name": "pi_O_d_prime",
							"type": "tuple"
						},
						{
							"components": [
								{
									"internalType": "uint256",
									"name": "X",
									"type": "uint256"
								},
								{
									"internalType": "uint256",
									"name": "Y",
									"type": "uint256"
								}
							],
							"internalType": "struct VerfiAlgoFair.G1Point",
							"name": "pi_O_zeta",
							"type": "tuple"
						},
						{
							"components": [
								{
									"internalType": "uint256",
									"name": "X",
									"type": "uint256"
								},
								{
									"internalType": "uint256",
									"name": "Y",
									"type": "uint256"
								}
							],
							"internalType": "struct VerfiAlgoFair.G1Point",
							"name": "pi_O_z_prime",
							"type": "tuple"
						},
						{
							"internalType": "uint256",
							"name": "r_tilde",
							"type": "uint256"
						},
						{
							"internalType": "uint256",
							"name": "r_1",
							"type": "uint256"
						},
						{
							"internalType": "uint256",
							"name": "r_2",
							"type": "uint256"
						},
						{
							"internalType": "uint256",
							"name": "t",
							"type": "uint256"
						},
						{
							"internalType": "uint256",
							"name": "k",
							"type": "uint256"
						},
						{
							"internalType": "uint256",
							"name": "s_hat",
							"type": "uint256"
						},
						{
							"internalType": "uint256",
							"name": "s_1",
							"type": "uint256"
						},
						{
							"internalType": "uint256",
							"name": "s_2",
							"type": "uint256"
						},
						{
							"internalType": "uint256",
							"name": "i_zeta",
							"type": "uint256"
						},
						{
							"internalType": "uint256",
							"name": "f_zeta",
							"type": "uint256"
						},
						{
							"internalType": "uint256",
							"name": "o_d_prime",
							"type": "uint256"
						},
						{
							"internalType": "uint256",
							"name": "o_zeta",
							"type": "uint256"
						},
						{
							"internalType": "uint256",
							"name": "o_z_prime",
							"type": "uint256"
						},
						{
							"components": [
								{
									"internalType": "uint256",
									"name": "X",
									"type": "uint256"
								},
								{
									"internalType": "uint256",
									"name": "Y",
									"type": "uint256"
								}
							],
							"internalType": "struct VerfiAlgoFair.G1Point",
							"name": "R_tilde",
							"type": "tuple"
						},
						{
							"components": [
								{
									"internalType": "uint256",
									"name": "X",
									"type": "uint256"
								},
								{
									"internalType": "uint256",
									"name": "Y",
									"type": "uint256"
								}
							],
							"internalType": "struct VerfiAlgoFair.G1Point",
							"name": "R",
							"type": "tuple"
						},
						{
							"components": [
								{
									"internalType": "uint256",
									"name": "X",
									"type": "uint256"
								},
								{
									"internalType": "uint256",
									"name": "Y",
									"type": "uint256"
								}
							],
							"internalType": "struct VerfiAlgoFair.G1Point",
							"name": "T",
							"type": "tuple"
						},
						{
							"components": [
								{
									"internalType": "uint256",
									"name": "X",
									"type": "uint256"
								},
								{
									"internalType": "uint256",
									"name": "Y",
									"type": "uint256"
								}
							],
							"internalType": "struct VerfiAlgoFair.G1Point",
							"name": "S_x",
							"type": "tuple"
						},
						{
							"components": [
								{
									"internalType": "uint256",
									"name": "X",
									"type": "uint256"
								},
								{
									"internalType": "uint256",
									"name": "Y",
									"type": "uint256"
								}
							],
							"internalType": "struct VerfiAlgoFair.G1Point",
							"name": "O",
							"type": "tuple"
						},
						{
							"components": [
								{
									"internalType": "uint256",
									"name": "X",
									"type": "uint256"
								},
								{
									"internalType": "uint256",
									"name": "Y",
									"type": "uint256"
								}
							],
							"internalType": "struct VerfiAlgoFair.G1Point",
							"name": "O_prime",
							"type": "tuple"
						}
					],
					"internalType": "struct VerfiAlgoFair.DM_Proof",
					"name": "cm",
					"type": "tuple"
				}
			],
			"name": "PVADVerification",
			"outputs": [
				{
					"internalType": "bool",
					"name": "",
					"type": "bool"
				}
			],
			"stateMutability": "view",
			"type": "function"
		},
		{
			"inputs": [],
			"name": "PVADVerificationEst",
			"outputs": [],
			"stateMutability": "view",
			"type": "function"
		},
		{
			"inputs": [
				{
					"components": [
						{
							"internalType": "uint256",
							"name": "X",
							"type": "uint256"
						},
						{
							"internalType": "uint256",
							"name": "Y",
							"type": "uint256"
						}
					],
					"internalType": "struct VerfiAlgoFair.G1Point",
					"name": "p1",
					"type": "tuple"
				},
				{
					"components": [
						{
							"internalType": "uint256",
							"name": "X",
							"type": "uint256"
						},
						{
							"internalType": "uint256",
							"name": "Y",
							"type": "uint256"
						}
					],
					"internalType": "struct VerfiAlgoFair.G1Point",
					"name": "p2",
					"type": "tuple"
				},
				{
					"components": [
						{
							"internalType": "uint256",
							"name": "X",
							"type": "uint256"
						},
						{
							"internalType": "uint256",
							"name": "Y",
							"type": "uint256"
						}
					],
					"internalType": "struct VerfiAlgoFair.G1Point",
					"name": "p3",
					"type": "tuple"
				},
				{
					"components": [
						{
							"internalType": "uint256",
							"name": "X",
							"type": "uint256"
						},
						{
							"internalType": "uint256",
							"name": "Y",
							"type": "uint256"
						}
					],
					"internalType": "struct VerfiAlgoFair.G1Point",
					"name": "p4",
					"type": "tuple"
				}
			],
			"name": "hashFourG1Points",
			"outputs": [
				{
					"internalType": "bytes32",
					"name": "",
					"type": "bytes32"
				}
			],
			"stateMutability": "pure",
			"type": "function"
		},
		{
			"inputs": [
				{
					"components": [
						{
							"internalType": "uint256",
							"name": "X",
							"type": "uint256"
						},
						{
							"internalType": "uint256",
							"name": "Y",
							"type": "uint256"
						}
					],
					"internalType": "struct VerfiAlgoFair.G1Point",
					"name": "a",
					"type": "tuple"
				},
				{
					"components": [
						{
							"internalType": "uint256[2]",
							"name": "X",
							"type": "uint256[2]"
						},
						{
							"internalType": "uint256[2]",
							"name": "Y",
							"type": "uint256[2]"
						}
					],
					"internalType": "struct VerfiAlgoFair.G2Point",
					"name": "b",
					"type": "tuple"
				},
				{
					"components": [
						{
							"internalType": "uint256",
							"name": "X",
							"type": "uint256"
						},
						{
							"internalType": "uint256",
							"name": "Y",
							"type": "uint256"
						}
					],
					"internalType": "struct VerfiAlgoFair.G1Point",
					"name": "c",
					"type": "tuple"
				},
				{
					"components": [
						{
							"internalType": "uint256[2]",
							"name": "X",
							"type": "uint256[2]"
						},
						{
							"internalType": "uint256[2]",
							"name": "Y",
							"type": "uint256[2]"
						}
					],
					"internalType": "struct VerfiAlgoFair.G2Point",
					"name": "d",
					"type": "tuple"
				}
			],
			"name": "hashFourPoints",
			"outputs": [
				{
					"internalType": "bytes32",
					"name": "",
					"type": "bytes32"
				}
			],
			"stateMutability": "pure",
			"type": "function"
		},
		{
			"inputs": [
				{
					"components": [
						{
							"internalType": "uint256",
							"name": "X",
							"type": "uint256"
						},
						{
							"internalType": "uint256",
							"name": "Y",
							"type": "uint256"
						}
					],
					"internalType": "struct VerfiAlgoFair.G1Point",
					"name": "p1",
					"type": "tuple"
				},
				{
					"components": [
						{
							"internalType": "uint256",
							"name": "X",
							"type": "uint256"
						},
						{
							"internalType": "uint256",
							"name": "Y",
							"type": "uint256"
						}
					],
					"internalType": "struct VerfiAlgoFair.G1Point",
					"name": "p2",
					"type": "tuple"
				}
			],
			"name": "hashTwoG1Points",
			"outputs": [
				{
					"internalType": "bytes32",
					"name": "",
					"type": "bytes32"
				}
			],
			"stateMutability": "pure",
			"type": "function"
		},
		{
			"inputs": [
				{
					"components": [
						{
							"components": [
								{
									"internalType": "uint256",
									"name": "X",
									"type": "uint256"
								},
								{
									"internalType": "uint256",
									"name": "Y",
									"type": "uint256"
								}
							],
							"internalType": "struct VerfiAlgoFair.G1Point",
							"name": "_commitment",
							"type": "tuple"
						},
						{
							"components": [
								{
									"internalType": "uint256",
									"name": "X",
									"type": "uint256"
								},
								{
									"internalType": "uint256",
									"name": "Y",
									"type": "uint256"
								}
							],
							"internalType": "struct VerfiAlgoFair.G1Point",
							"name": "_proof",
							"type": "tuple"
						},
						{
							"components": [
								{
									"internalType": "uint256[2]",
									"name": "X",
									"type": "uint256[2]"
								},
								{
									"internalType": "uint256[2]",
									"name": "Y",
									"type": "uint256[2]"
								}
							],
							"internalType": "struct VerfiAlgoFair.G2Point",
							"name": "h_negatealphaz",
							"type": "tuple"
						},
						{
							"components": [
								{
									"internalType": "uint256",
									"name": "X",
									"type": "uint256"
								},
								{
									"internalType": "uint256",
									"name": "Y",
									"type": "uint256"
								}
							],
							"internalType": "struct VerfiAlgoFair.G1Point",
							"name": "_index",
							"type": "tuple"
						},
						{
							"internalType": "uint256",
							"name": "_value",
							"type": "uint256"
						}
					],
					"internalType": "struct VerfiAlgoFair.specialProof",
					"name": "cm",
					"type": "tuple"
				}
			],
			"name": "kzgSpecialVerification",
			"outputs": [
				{
					"internalType": "bool",
					"name": "",
					"type": "bool"
				}
			],
			"stateMutability": "view",
			"type": "function"
		},
		{
			"inputs": [
				{
					"components": [
						{
							"internalType": "uint256[2]",
							"name": "X",
							"type": "uint256[2]"
						},
						{
							"internalType": "uint256[2]",
							"name": "Y",
							"type": "uint256[2]"
						}
					],
					"internalType": "struct VerfiAlgoFair.G2Point",
					"name": "p",
					"type": "tuple"
				},
				{
					"internalType": "uint256",
					"name": "s",
					"type": "uint256"
				}
			],
			"name": "mulScalar2",
			"outputs": [
				{
					"components": [
						{
							"internalType": "uint256[2]",
							"name": "X",
							"type": "uint256[2]"
						},
						{
							"internalType": "uint256[2]",
							"name": "Y",
							"type": "uint256[2]"
						}
					],
					"internalType": "struct VerfiAlgoFair.G2Point",
					"name": "",
					"type": "tuple"
				}
			],
			"stateMutability": "view",
			"type": "function"
		},
		{
			"inputs": [
				{
					"components": [
						{
							"internalType": "uint256",
							"name": "X",
							"type": "uint256"
						},
						{
							"internalType": "uint256",
							"name": "Y",
							"type": "uint256"
						}
					],
					"internalType": "struct VerfiAlgoFair.G1Point",
					"name": "F1",
					"type": "tuple"
				},
				{
					"components": [
						{
							"internalType": "uint256",
							"name": "X",
							"type": "uint256"
						},
						{
							"internalType": "uint256",
							"name": "Y",
							"type": "uint256"
						}
					],
					"internalType": "struct VerfiAlgoFair.G1Point",
					"name": "F2",
					"type": "tuple"
				},
				{
					"internalType": "uint256",
					"name": "d_minus_m",
					"type": "uint256"
				}
			],
			"name": "verifyDmax",
			"outputs": [
				{
					"internalType": "bool",
					"name": "",
					"type": "bool"
				}
			],
			"stateMutability": "view",
			"type": "function"
		},
		{
			"inputs": [
				{
					"components": [
						{
							"components": [
								{
									"internalType": "uint256",
									"name": "X",
									"type": "uint256"
								},
								{
									"internalType": "uint256",
									"name": "Y",
									"type": "uint256"
								}
							],
							"internalType": "struct VerfiAlgoFair.G1Point",
							"name": "g_one_over_xPrime",
							"type": "tuple"
						},
						{
							"components": [
								{
									"internalType": "uint256[2]",
									"name": "X",
									"type": "uint256[2]"
								},
								{
									"internalType": "uint256[2]",
									"name": "Y",
									"type": "uint256[2]"
								}
							],
							"internalType": "struct VerfiAlgoFair.G2Point",
							"name": "h_alpha_rPrime",
							"type": "tuple"
						},
						{
							"internalType": "uint256",
							"name": "zx",
							"type": "uint256"
						},
						{
							"internalType": "uint256",
							"name": "zr",
							"type": "uint256"
						},
						{
							"internalType": "uint256",
							"name": "beta",
							"type": "uint256"
						}
					],
					"internalType": "struct VerfiAlgoFair.zkPoCProof",
					"name": "proof",
					"type": "tuple"
				}
			],
			"name": "zkPoCVerification",
			"outputs": [
				{
					"internalType": "bool",
					"name": "",
					"type": "bool"
				}
			],
			"stateMutability": "view",
			"type": "function"
		}
	]
}