{
	"data": {
		"bytecode": {
			"linkReferences": {},
			"object": "6080604052604051806040016040528060405180604001604052807f198e9393920d483a7260bfb731fb5d25f1aa493335a9e71297e485b7aef312c281526020017f1800deef121f1e76426a00665e5c4479674322d4f75edadd46debd5cd992f6ed815250815260200160405180604001604052807f090689d0585ff075ec9e99ad690c3395bc4b313370b38ef355acdadcd122975b81526020017f12c85ea5db8c6deb4aab71808dcb408fe3d1e7690c43d37b4ce6cc0166fa7daa8152508152505f80820151815f01906002620000d99291906200079a565b50602082015181600201906002620000f39291906200079a565b505050604051806040016040528060405180604001604052807f198e9393920d483a7260bfb731fb5d25f1aa493335a9e71297e485b7aef312c281526020017f1800deef121f1e76426a00665e5c4479674322d4f75edadd46debd5cd992f6ed815250815260200160405180604001604052807f090689d0585ff075ec9e99ad690c3395bc4b313370b38ef355acdadcd122975b81526020017f12c85ea5db8c6deb4aab71808dcb408fe3d1e7690c43d37b4ce6cc0166fa7daa81525081525060045f820151815f01906002620001cc9291906200079a565b50602082015181600201906002620001e69291906200079a565b505050604051806040016040528060405180604001604052807f198e9393920d483a7260bfb731fb5d25f1aa493335a9e71297e485b7aef312c281526020017f1800deef121f1e76426a00665e5c4479674322d4f75edadd46debd5cd992f6ed815250815260200160405180604001604052807f090689d0585ff075ec9e99ad690c3395bc4b313370b38ef355acdadcd122975b81526020017f12c85ea5db8c6deb4aab71808dcb408fe3d1e7690c43d37b4ce6cc0166fa7daa81525081525060085f820151815f01906002620002bf9291906200079a565b50602082015181600201906002620002d99291906200079a565b505050604051806040016040528060405180604001604052807f198e9393920d483a7260bfb731fb5d25f1aa493335a9e71297e485b7aef312c281526020017f1800deef121f1e76426a00665e5c4479674322d4f75edadd46debd5cd992f6ed815250815260200160405180604001604052807f090689d0585ff075ec9e99ad690c3395bc4b313370b38ef355acdadcd122975b81526020017f12c85ea5db8c6deb4aab71808dcb408fe3d1e7690c43d37b4ce6cc0166fa7daa815250815250600c5f820151815f01906002620003b29291906200079a565b50602082015181600201906002620003cc9291906200079a565b5050507f30644e72e131a029b85045b68181585d2833e84879b9709143e1f593f000000180620004015762000400620007fc565b5b60115460125409601055600260115560036012556004601355600160145560e86015556103b0601655610f286017556143b8601855600c6019556016601a55600a601b556016601c55602e601d556002601e557f198e9393920d483a7260bfb731fb5d25f1aa493335a9e71297e485b7aef312c2601f5560405180604001604052807f2d2e305d3ab2dc6e0081ffcf4a701f924a1a7296cdc32046c10c0b6f992387b281526020017f10d4d3cca369c48670346ef36c6739e885bb11b52038a89c706aacfb7d72d78981525060205f820151815f015560208201518160010155505060405180604001604052807f2d2e305d3ab2dc6e0081ffcf4a701f924a1a7296cdc32046c10c0b6f992387b281526020017f10d4d3cca369c48670346ef36c6739e885bb11b52038a89c706aacfb7d72d78981525060225f820151815f015560208201518160010155505060405180604001604052807f2d2e305d3ab2dc6e0081ffcf4a701f924a1a7296cdc32046c10c0b6f992387b281526020017f10d4d3cca369c48670346ef36c6739e885bb11b52038a89c706aacfb7d72d78981525060245f820151815f015560208201518160010155505060405180604001604052807f2d2e305d3ab2dc6e0081ffcf4a701f924a1a7296cdc32046c10c0b6f992387b281526020017f10d4d3cca369c48670346ef36c6739e885bb11b52038a89c706aacfb7d72d78981525060265f820151815f015560208201518160010155505060405180604001604052807f2d2e305d3ab2dc6e0081ffcf4a701f924a1a7296cdc32046c10c0b6f992387b281526020017f10d4d3cca369c48670346ef36c6739e885bb11b52038a89c706aacfb7d72d78981525060285f820151815f0155602082015181600101555050604051806040016040528060405180604001604052807f198e9393920d483a7260bfb731fb5d25f1aa493335a9e71297e485b7aef312c281526020017f1800deef121f1e76426a00665e5c4479674322d4f75edadd46debd5cd992f6ed815250815260200160405180604001604052807f090689d0585ff075ec9e99ad690c3395bc4b313370b38ef355acdadcd122975b81526020017f12c85ea5db8c6deb4aab71808dcb408fe3d1e7690c43d37b4ce6cc0166fa7daa815250815250602a5f820151815f01906002620007659291906200079a565b506020820151816002019060026200077f9291906200079a565b5050506005602e5534801562000793575f80fd5b5062000829565b8260028101928215620007cc579160200282015b82811115620007cb578251825591602001919060010190620007ae565b5b509050620007db9190620007df565b5090565b5b80821115620007f8575f815f905550600101620007e0565b5090565b7f4e487b71000000000000000000000000000000000000000000000000000000005f52601260045260245ffd5b6152b480620008375f395ff3fe608060405234801561000f575f80fd5b506004361061009c575f3560e01c80639e004f54116100645780639e004f5414610190578063bda45338146101c0578063be603b1a146101f0578063ef3684d214610220578063fc137deb146102505761009c565b806303d2ae1f146100a05780631f96439f146100d057806334200b1414610100578063529fbfd8146101305780639388d55f14610160575b5f80fd5b6100ba60048036038101906100b59190613c82565b610280565b6040516100c79190613cec565b60405180910390f35b6100ea60048036038101906100e59190613d05565b6103d9565b6040516100f79190613d5b565b60405180910390f35b61011a60048036038101906101159190613d74565b61041d565b6040516101279190613d5b565b60405180910390f35b61014a60048036038101906101459190613f68565b610479565b6040516101579190613cec565b60405180910390f35b61017a6004803603810190610175919061401f565b610ae0565b6040516101879190613cec565b60405180910390f35b6101aa60048036038101906101a591906142a2565b610e8a565b6040516101b79190613cec565b60405180910390f35b6101da60048036038101906101d591906142ce565b6113a2565b6040516101e79190613d5b565b60405180910390f35b61020a60048036038101906102059190614334565b6114d0565b6040516102179190614444565b60405180910390f35b61023a60048036038101906102359190614751565b61156b565b6040516102479190613cec565b60405180910390f35b61026a6004803603810190610265919061477d565b611d42565b6040516102779190613cec565b60405180910390f35b5f6103c08460086040518060400160405290815f82016002806020026040519081016040528092919082600280156102cd576020028201915b8154815260200190600101908083116102b9575b5050505050815260200160028201600280602002604051908101604052809291908260028015610312576020028201915b8154815260200190600101908083116102fe575b505050505081525050856103bb600c6040518060400160405290815f8201600280602002604051908101604052809291908260028015610367576020028201915b815481526020019060010190808311610353575b50505050508152602001600282016002806020026040519081016040528092919082600280156103ac576020028201915b815481526020019060010190808311610398575b505050505081525050876114d0565b6121af565b156103ce57600190506103d2565b5f90505b9392505050565b5f825f01518360200151835f015184602001516040516020016103ff9493929190614801565b60405160208183030381529060405280519060200120905092915050565b5f845f01518560200151855f01518660200151865f01518760200151875f0151886020015160405160200161045998979695949392919061484e565b604051602081830303815290604052805190602001209050949350505050565b5f7f30644e72e131a029b85045b68181585d2833e84879b9709143e1f593f0000001825f01515f0151106104e2576040517f08c379a00000000000000000000000000000000000000000000000000000000081526004016104d99061495f565b60405180910390fd5b7f30644e72e131a029b85045b68181585d2833e84879b9709143e1f593f0000001825f0151602001511061054b576040517f08c379a0000000000000000000000000000000000000000000000000000000008152600401610542906149ed565b60405180910390fd5b7f30644e72e131a029b85045b68181585d2833e84879b9709143e1f593f000000182602001515f0151106105b4576040517f08c379a00000000000000000000000000000000000000000000000000000000081526004016105ab90614a7b565b60405180910390fd5b7f30644e72e131a029b85045b68181585d2833e84879b9709143e1f593f00000018260200151602001511061061e576040517f08c379a000000000000000000000000000000000000000000000000000000000815260040161061590614b09565b60405180910390fd5b7f30644e72e131a029b85045b68181585d2833e84879b9709143e1f593f000000182604001515f01515f6002811061065957610658614b27565b5b60200201511061069e576040517f08c379a000000000000000000000000000000000000000000000000000000000815260040161069590614bc4565b60405180910390fd5b7f30644e72e131a029b85045b68181585d2833e84879b9709143e1f593f00000018260400151602001515f600281106106da576106d9614b27565b5b60200201511061071f576040517f08c379a000000000000000000000000000000000000000000000000000000000815260040161071690614c52565b60405180910390fd5b7f30644e72e131a029b85045b68181585d2833e84879b9709143e1f593f000000182604001515f015160016002811061075b5761075a614b27565b5b6020020151106107a0576040517f08c379a000000000000000000000000000000000000000000000000000000000815260040161079790614bc4565b60405180910390fd5b7f30644e72e131a029b85045b68181585d2833e84879b9709143e1f593f00000018260400151602001516001600281106107dd576107dc614b27565b5b602002015110610822576040517f08c379a000000000000000000000000000000000000000000000000000000000815260040161081990614c52565b60405180910390fd5b7f30644e72e131a029b85045b68181585d2833e84879b9709143e1f593f000000182606001515f01511061088b576040517f08c379a000000000000000000000000000000000000000000000000000000000815260040161088290614ce0565b60405180910390fd5b7f30644e72e131a029b85045b68181585d2833e84879b9709143e1f593f0000001826060015160200151106108f5576040517f08c379a00000000000000000000000000000000000000000000000000000000081526004016108ec90614d6e565b60405180910390fd5b7f30644e72e131a029b85045b68181585d2833e84879b9709143e1f593f000000182608001511061095b576040517f08c379a000000000000000000000000000000000000000000000000000000000815260040161095290614dfc565b60405180910390fd5b5f61097b61097184606001518560800151612504565b84602001516125d8565b9050610ac78360200151600c6040518060400160405290815f82016002806020026040519081016040528092919082600280156109cd576020028201915b8154815260200190600101908083116109b9575b5050505050815260200160028201600280602002604051908101604052809291908260028015610a12576020028201915b8154815260200190600101908083116109fe575b505050505081525050838660400151610a2d885f01516126d1565b5f6040518060400160405290815f8201600280602002604051908101604052809291908260028015610a74576020028201915b815481526020019060010190808311610a60575b5050505050815260200160028201600280602002604051908101604052809291908260028015610ab9576020028201915b815481526020019060010190808311610aa5575b505050505081525050612789565b15610ad6576001915050610adb565b5f9150505b919050565b5f80610af7610aed612adb565b8460400151612504565b90505f610b33845f0151610b2e60286040518060400160405290815f82015481526020016001820154815250508760800151612504565b6125d8565b90505f610bd960046040518060400160405290815f8201600280602002604051908101604052809291908260028015610b81576020028201915b815481526020019060010190808311610b6d575b5050505050815260200160028201600280602002604051908101604052809291908260028015610bc6576020028201915b815481526020019060010190808311610bb2575b50505050508152505086606001516114d0565b90505f610c8a8660200151610c85600c6040518060400160405290815f8201600280602002604051908101604052809291908260028015610c2f576020028201915b815481526020019060010190808311610c1b575b5050505050815260200160028201600280602002604051908101604052809291908260028015610c74576020028201915b815481526020019060010190808311610c60575b5050505050815250506014546114d0565b612aff565b9050825f0151845f0151148015610ca8575082602001518460200151145b8015610ce95750805f0151600160028110610cc657610cc5614b27565b5b6020020151825f0151600160028110610ce257610ce1614b27565b5b6020020151145b8015610d295750805f01515f60028110610d0657610d05614b27565b5b602002015182602001515f60028110610d2257610d21614b27565b5b6020020151145b8015610d695750805f01515f60028110610d4657610d45614b27565b5b602002015182602001515f60028110610d6257610d61614b27565b5b6020020151145b8015610dac57508060200151600160028110610d8857610d87614b27565b5b60200201518260200151600160028110610da557610da4614b27565b5b6020020151145b8015610e6b5750610e62610dbe612adb565b60046040518060400160405290815f8201600280602002604051908101604052809291908260028015610e06576020028201915b815481526020019060010190808311610df2575b5050505050815260200160028201600280602002604051908101604052809291908260028015610e4b576020028201915b815481526020019060010190808311610e37575b505050505081525050885f015189602001516113a2565b5f1c8660800151145b15610e7d576001945050505050610e85565b5f9450505050505b919050565b5f80610ea7836102800151845f0151601154866101400151611d42565b8015610ecb5750610eca836102a001518460200151601154866101600151611d42565b5b8015610eef5750610eee836102a001518460400151601054866101800151611d42565b5b8015610f135750610f12836102c001518460600151601154866101a00151611d42565b5b8015610f515750610f5060206040518060400160405290815f82015481526020016001820154815250508460800151601254866101c00151611d42565b5b8015610f755750610f74836102e001518460a00151601154866101e00151611d42565b5b8015610f985750610f97836102e001518460c001516001866102000151611d42565b5b8015610fd65750610fd560226040518060400160405290815f82015481526020016001820154815250508460e00151601254866102200151611d42565b5b80156110b857507f30644e72e131a029b85045b68181585d2833e84879b9709143e1f593f00000018061100c5761100b614e1a565b5b836101c001517f30644e72e131a029b85045b68181585d2833e84879b9709143e1f593f000000161103d9190614e74565b7f30644e72e131a029b85045b68181585d2833e84879b9709143e1f593f00000018061106c5761106b614e1a565b5b7f30644e72e131a029b85045b68181585d2833e84879b9709143e1f593f00000018061109b5761109a614e1a565b5b866101e00151876101800151088661016001510908836101a00151145b80156110cd5750826102200151836102000151145b90505f5b602e5481101561114f578180156111015750611100846103200151856101200151601154876102600151611d42565b5b8015611140575061113f60266040518060400160405290815f8201548152602001600182015481525050856101000151601154876102400151611d42565b5b915080806001019150506110d1565b505f7f30644e72e131a029b85045b68181585d2833e84879b9709143e1f593f0000001806111805761117f614e1a565b5b6019546015540890505f6111b7601154837f30644e72e131a029b85045b68181585d2833e84879b9709143e1f593f00000016131c9565b90505f807f30644e72e131a029b85045b68181585d2833e84879b9709143e1f593f0000001806111ea576111e9614e1a565b5b7f30644e72e131a029b85045b68181585d2833e84879b9709143e1f593f00000018061121957611218614e1a565b5b7f30644e72e131a029b85045b68181585d2833e84879b9709143e1f593f00000018061124857611247614e1a565b5b601e54601a5408601954086015540890505f611287601154837f30644e72e131a029b85045b68181585d2833e84879b9709143e1f593f00000016131c9565b90505f805f90505b602e54811015611318577f30644e72e131a029b85045b68181585d2833e84879b9709143e1f593f0000001806112c8576112c7614e1a565b5b868b61024001510994507f30644e72e131a029b85045b68181585d2833e84879b9709143e1f593f00000018061130157611300614e1a565b5b838b6102600151099150808060010191505061128f565b5086801561139157507f30644e72e131a029b85045b68181585d2833e84879b9709143e1f593f0000001806113505761134f614e1a565b5b7f30644e72e131a029b85045b68181585d2833e84879b9709143e1f593f00000018061137f5761137e614e1a565b5b8286088a610140015108896101600151145b965086975050505050505050919050565b5f845f01518560200151855f01515f600281106113c2576113c1614b27565b5b6020020151865f01516001600281106113de576113dd614b27565b5b602002015187602001515f600281106113fa576113f9614b27565b5b6020020151886020015160016002811061141757611416614b27565b5b6020020151885f01518960200151895f01515f6002811061143b5761143a614b27565b5b60200201518a5f015160016002811061145757611456614b27565b5b60200201518b602001515f6002811061147357611472614b27565b5b60200201518c602001516001600281106114905761148f614b27565b5b60200201516040516020016114b09c9b9a99989796959493929190614ea7565b604051602081830303815290604052805190602001209050949350505050565b6114d8613a75565b5f604051806040016040528060405180604001604052805f81526020015f815250815260200160405180604001604052805f81526020015f81525081525090505b5f8311156115615760016002846115309190614f7c565b036115425761153f8185612aff565b90505b60028361154f9190614fac565b925061155a846132ba565b9350611519565b8091505092915050565b5f80601f5442108015611590575061158f836103e001518461040001516001610280565b5b80156115a457506115a3835f0151610ae0565b5b80156115c857506115c78361036001518460200151601154866101c00151611d42565b5b80156115ec57506115eb8361038001518460400151601154866101e00151611d42565b5b8015611610575061160f8361038001518460600151601054866102000151611d42565b5b80156116345750611633836103a001518460800151601154866102200151611d42565b5b8015611672575061167160206040518060400160405290815f82015481526020016001820154815250508460a00151601254866102400151611d42565b5b80156116965750611695836103c001518460c00151601154866102600151611d42565b5b80156116b957506116b8836103c001518460e001516001866102800151611d42565b5b80156116f857506116f760226040518060400160405290815f8201548152602001600182015481525050846101000151601254866102a00151611d42565b5b801561171d575061171c836103e00151846101600151601354866103000151611d42565b5b801561175c575061175b60266040518060400160405290815f8201548152602001600182015481525050846101200151601154866102c00151611d42565b5b801561179b575061179a60246040518060400160405290815f8201548152602001600182015481525050846101400151601154866102e00151611d42565b5b80156117c057506117bf836103e00151846101800151601154866103200151611d42565b5b80156117e257506117db8361038001518461036001516103d9565b5f1c601254145b80156118c457507f30644e72e131a029b85045b68181585d2833e84879b9709143e1f593f00000018061181857611817614e1a565b5b8361024001517f30644e72e131a029b85045b68181585d2833e84879b9709143e1f593f00000016118499190614e74565b7f30644e72e131a029b85045b68181585d2833e84879b9709143e1f593f00000018061187857611877614e1a565b5b7f30644e72e131a029b85045b68181585d2833e84879b9709143e1f593f0000001806118a7576118a6614e1a565b5b86610260015187610200015108866101e001510908836102200151145b80156118d95750826102a00151836102800151145b80156119075750611900836103800151846103600151856103a00151866103c0015161041d565b5f1c601154145b90505f7f30644e72e131a029b85045b68181585d2833e84879b9709143e1f593f00000018061193957611938614e1a565b5b6019546015540890505f611970601154837f30644e72e131a029b85045b68181585d2833e84879b9709143e1f593f00000016131c9565b90505f7f30644e72e131a029b85045b68181585d2833e84879b9709143e1f593f0000001806119a2576119a1614e1a565b5b7f30644e72e131a029b85045b68181585d2833e84879b9709143e1f593f0000001806119d1576119d0614e1a565b5b601a54601954086015540890505f611a0c601154837f30644e72e131a029b85045b68181585d2833e84879b9709143e1f593f00000016131c9565b90505f7f30644e72e131a029b85045b68181585d2833e84879b9709143e1f593f000000180611a3e57611a3d614e1a565b5b7f30644e72e131a029b85045b68181585d2833e84879b9709143e1f593f000000180611a6d57611a6c614e1a565b5b7f30644e72e131a029b85045b68181585d2833e84879b9709143e1f593f000000180611a9c57611a9b614e1a565b5b601e54601a5408601954086015540890505f611adb601154837f30644e72e131a029b85045b68181585d2833e84879b9709143e1f593f00000016131c9565b90505f7f30644e72e131a029b85045b68181585d2833e84879b9709143e1f593f000000180611b0d57611b0c614e1a565b5b868b6102c001510990505f7f30644e72e131a029b85045b68181585d2833e84879b9709143e1f593f000000180611b4757611b46614e1a565b5b858c6102e001510990505f7f30644e72e131a029b85045b68181585d2833e84879b9709143e1f593f000000180611b8157611b80614e1a565b5b848d6103200151099050898015611c3457507f30644e72e131a029b85045b68181585d2833e84879b9709143e1f593f000000180611bc257611bc1614e1a565b5b7f30644e72e131a029b85045b68181585d2833e84879b9709143e1f593f000000180611bf157611bf0614e1a565b5b7f30644e72e131a029b85045b68181585d2833e84879b9709143e1f593f000000180611c2057611c1f614e1a565b5b83850885098d6101c00151088c6101e00151145b8015611d2e5750611d2d6040518060a001604052808e6103e0015181526020018e6101a001518152602001602a6040518060400160405290815f8201600280602002604051908101604052809291908260028015611ca7576020028201915b815481526020019060010190808311611c93575b5050505050815260200160028201600280602002604051908101604052809291908260028015611cec576020028201915b815481526020019060010190808311611cd8575b505050505081525050815260200160286040518060400160405290815f820154815260200160018201548152505081526020018e6103400151815250610479565b5b9950899a5050505050505050505050919050565b5f7f30644e72e131a029b85045b68181585d2833e84879b9709143e1f593f0000001855f015110611da8576040517f08c379a0000000000000000000000000000000000000000000000000000000008152600401611d9f9061495f565b60405180910390fd5b7f30644e72e131a029b85045b68181585d2833e84879b9709143e1f593f0000001856020015110611e0e576040517f08c379a0000000000000000000000000000000000000000000000000000000008152600401611e05906149ed565b60405180910390fd5b7f30644e72e131a029b85045b68181585d2833e84879b9709143e1f593f0000001845f015110611e73576040517f08c379a0000000000000000000000000000000000000000000000000000000008152600401611e6a90614a7b565b60405180910390fd5b7f30644e72e131a029b85045b68181585d2833e84879b9709143e1f593f0000001846020015110611ed9576040517f08c379a0000000000000000000000000000000000000000000000000000000008152600401611ed090614b09565b60405180910390fd5b7f30644e72e131a029b85045b68181585d2833e84879b9709143e1f593f00000018310611f3b576040517f08c379a0000000000000000000000000000000000000000000000000000000008152600401611f329061504c565b60405180910390fd5b7f30644e72e131a029b85045b68181585d2833e84879b9709143e1f593f00000018210611f9d576040517f08c379a0000000000000000000000000000000000000000000000000000000008152600401611f9490614dfc565b60405180910390fd5b5f611fb0611fab8686612504565b6126d1565b90505f611fcd611fc7611fc1612adb565b86612504565b836125d8565b90506121a386600c6040518060400160405290815f820160028060200260405190810160405280929190826002801561201b576020028201915b815481526020019060010190808311612007575b5050505050815260200160028201600280602002604051908101604052809291908260028015612060576020028201915b81548152602001906001019080831161204c575b5050505050815250508360046040518060400160405290815f82016002806020026040519081016040528092919082600280156120b2576020028201915b81548152602001906001019080831161209e575b50505050508152602001600282016002806020026040519081016040528092919082600280156120f7576020028201915b8154815260200190600101908083116120e3575b5050505050815250506121098c6126d1565b5f6040518060400160405290815f8201600280602002604051908101604052809291908260028015612150576020028201915b81548152602001906001019080831161213c575b5050505050815260200160028201600280602002604051908101604052809291908260028015612195576020028201915b815481526020019060010190808311612181575b505050505081525050612789565b92505050949350505050565b5f80600c90505f8167ffffffffffffffff8111156121d0576121cf613b8a565b5b6040519080825280602002602001820160405280156121fe5781602001602082028036833780820191505090505b509050865f0151815f8151811061221857612217614b27565b5b60200260200101818152505086602001518160018151811061223d5761223c614b27565b5b602002602001018181525050855f01515f6002811061225f5761225e614b27565b5b60200201518160028151811061227857612277614b27565b5b602002602001018181525050855f015160016002811061229b5761229a614b27565b5b6020020151816003815181106122b4576122b3614b27565b5b60200260200101818152505085602001515f600281106122d7576122d6614b27565b5b6020020151816004815181106122f0576122ef614b27565b5b602002602001018181525050856020015160016002811061231457612313614b27565b5b60200201518160058151811061232d5761232c614b27565b5b602002602001018181525050845f01518160068151811061235157612350614b27565b5b60200260200101818152505084602001518160078151811061237657612375614b27565b5b602002602001018181525050835f01515f6002811061239857612397614b27565b5b6020020151816008815181106123b1576123b0614b27565b5b602002602001018181525050835f01516001600281106123d4576123d3614b27565b5b6020020151816009815181106123ed576123ec614b27565b5b60200260200101818152505083602001515f600281106124105761240f614b27565b5b602002015181600a8151811061242957612428614b27565b5b602002602001018181525050836020015160016002811061244d5761244c614b27565b5b602002015181600b8151811061246657612465614b27565b5b60200260200101818152505061247a613a9b565b5f602082602086026020860160086107d05a03fa9050805f810361249a57fe5b50806124db576040517f08c379a00000000000000000000000000000000000000000000000000000000081526004016124d2906150b4565b60405180910390fd5b5f825f600181106124ef576124ee614b27565b5b60200201511415945050505050949350505050565b61250c613abd565b612514613ad5565b835f0151815f6003811061252b5761252a614b27565b5b60200201818152505083602001518160016003811061254d5761254c614b27565b5b602002018181525050828160026003811061256b5761256a614b27565b5b6020020181815250505f60608360808460076107d05a03fa9050805f810361258f57fe5b50806125d0576040517f08c379a00000000000000000000000000000000000000000000000000000000081526004016125c79061511c565b60405180910390fd5b505092915050565b6125e0613abd565b6125e8613af7565b835f0151815f600481106125ff576125fe614b27565b5b60200201818152505083602001518160016004811061262157612620614b27565b5b602002018181525050825f01518160026004811061264257612641614b27565b5b60200201818152505082602001518160036004811061266457612663614b27565b5b6020020181815250505f60608360c08460066107d05a03fa9050805f810361268857fe5b50806126c9576040517f08c379a00000000000000000000000000000000000000000000000000000000081526004016126c090615184565b60405180910390fd5b505092915050565b6126d9613abd565b5f825f01511480156126ee57505f8260200151145b1561270f5760405180604001604052805f81526020015f8152509050612784565b6040518060400160405280835f015181526020017f30644e72e131a029b85045b68181585d97816a916871ca8d3c208c16d87cfd4784602001516127539190614f7c565b7f30644e72e131a029b85045b68181585d97816a916871ca8d3c208c16d87cfd4761277e9190614e74565b81525090505b919050565b5f8060405180606001604052808981526020018781526020018581525090505f60405180606001604052808981526020018781526020018581525090505f601290505f8167ffffffffffffffff8111156127e6576127e5613b8a565b5b6040519080825280602002602001820160405280156128145781602001602082028036833780820191505090505b5090505f5b6003811015612a44575f60068261283091906151a2565b905085826003811061284557612844614b27565b5b60200201515f0151835f8361285a91906151e3565b8151811061286b5761286a614b27565b5b60200260200101818152505085826003811061288a57612889614b27565b5b602002015160200151836001836128a191906151e3565b815181106128b2576128b1614b27565b5b6020026020010181815250508482600381106128d1576128d0614b27565b5b60200201515f01515f600281106128eb576128ea614b27565b5b6020020151836002836128fe91906151e3565b8151811061290f5761290e614b27565b5b60200260200101818152505084826003811061292e5761292d614b27565b5b60200201515f015160016002811061294957612948614b27565b5b60200201518360038361295c91906151e3565b8151811061296d5761296c614b27565b5b60200260200101818152505084826003811061298c5761298b614b27565b5b6020020151602001515f600281106129a7576129a6614b27565b5b6020020151836004836129ba91906151e3565b815181106129cb576129ca614b27565b5b6020026020010181815250508482600381106129ea576129e9614b27565b5b602002015160200151600160028110612a0657612a05614b27565b5b602002015183600583612a1991906151e3565b81518110612a2a57612a29614b27565b5b602002602001018181525050508080600101915050612819565b50612a4d613a9b565b5f602082602086026020860160086107d05a03fa9050805f8103612a6d57fe5b5080612aae576040517f08c379a0000000000000000000000000000000000000000000000000000000008152600401612aa5906150b4565b60405180910390fd5b5f825f60018110612ac257612ac1614b27565b5b6020020151141596505050505050509695505050505050565b612ae3613abd565b6040518060400160405280600181526020016002815250905090565b612b07613a75565b5f835f01515f60028110612b1e57612b1d614b27565b5b6020020151148015612b4a57505f835f0151600160028110612b4357612b42614b27565b5b6020020151145b8015612b7057505f83602001515f60028110612b6957612b68614b27565b5b6020020151145b8015612b9757505f8360200151600160028110612b9057612b8f614b27565b5b6020020151145b15612ba4578190506131c3565b5f825f01515f60028110612bbb57612bba614b27565b5b6020020151148015612be757505f825f0151600160028110612be057612bdf614b27565b5b6020020151145b8015612c0d57505f82602001515f60028110612c0657612c05614b27565b5b6020020151145b8015612c3457505f8260200151600160028110612c2d57612c2c614b27565b5b6020020151145b15612c41578290506131c3565b612c49613b19565b612c59845f0151855f01516135fe565b815f600c8110612c6c57612c6b614b27565b5b6020020181905250612c84835f0151845f01516135fe565b816001600c8110612c9857612c97614b27565b5b6020020181905250612cc68460200151826001600c8110612cbc57612cbb614b27565b5b60200201516135fe565b816002600c8110612cda57612cd9614b27565b5b6020020181905250612d078360200151825f600c8110612cfd57612cfc614b27565b5b60200201516135fe565b816003600c8110612d1b57612d1a614b27565b5b6020020181905250612d54612d36855f0151855f01516135fe565b826001600c8110612d4a57612d49614b27565b5b60200201516135fe565b816004600c8110612d6857612d67614b27565b5b6020020181905250612da0612d83845f0151865f01516135fe565b825f600c8110612d9657612d95614b27565b5b60200201516135fe565b816005600c8110612db457612db3614b27565b5b6020020181905250612df6816003600c8110612dd357612dd2614b27565b5b6020020151826002600c8110612dec57612deb614b27565b5b6020020151613895565b816006600c8110612e0a57612e09614b27565b5b6020020181905250612e4c816006600c8110612e2957612e28614b27565b5b6020020151826006600c8110612e4257612e41614b27565b5b602002015161392a565b816007600c8110612e6057612e5f614b27565b5b6020020181905250612ea2816007600c8110612e7f57612e7e614b27565b5b6020020151826007600c8110612e9857612e97614b27565b5b60200201516135fe565b816007600c8110612eb657612eb5614b27565b5b6020020181905250612ef8816006600c8110612ed557612ed4614b27565b5b6020020151826007600c8110612eee57612eed614b27565b5b60200201516135fe565b816008600c8110612f0c57612f0b614b27565b5b6020020181905250612f4e816005600c8110612f2b57612f2a614b27565b5b6020020151826004600c8110612f4457612f43614b27565b5b6020020151613895565b816009600c8110612f6257612f61614b27565b5b6020020181905250612fa4816009600c8110612f8157612f80614b27565b5b6020020151826009600c8110612f9a57612f99614b27565b5b602002015161392a565b816009600c8110612fb857612fb7614b27565b5b6020020181905250612ffa816002600c8110612fd757612fd6614b27565b5b6020020151826007600c8110612ff057612fef614b27565b5b60200201516135fe565b81600a600c811061300e5761300d614b27565b5b60200201819052506130b3613074613056836009600c811061303357613032614b27565b5b6020020151846009600c811061304c5761304b614b27565b5b60200201516135fe565b836008600c811061306a57613069614b27565b5b6020020151613895565b6130ae83600a600c811061308b5761308a614b27565b5b602002015184600a600c81106130a4576130a3614b27565b5b602002015161392a565b613895565b81600b600c81106130c7576130c6614b27565b5b60200201819052506130d7613a75565b81600b600c81106130eb576130ea614b27565b5b6020020151815f01819052506131b5613155836009600c811061311157613110614b27565b5b602002015161315085600a600c811061312d5761312c614b27565b5b602002015186600b600c811061314657613145614b27565b5b6020020151613895565b6135fe565b6131b0613192856004600c811061316f5761316e614b27565b5b6020020151866008600c811061318857613187614b27565b5b60200201516135fe565b856004600c81106131a6576131a5614b27565b5b602002015161392a565b613895565b816020018190525080925050505b92915050565b5f80820361320c576040517f08c379a000000000000000000000000000000000000000000000000000000000815260040161320390615260565b60405180910390fd5b5f840361321b575f90506132b3565b5f830361322b57600190506132b3565b5f600190505f7f800000000000000000000000000000000000000000000000000000000000000090505b5f8111156132ad57838186161515870a85848509099150836002820486161515870a85848509099150836004820486161515870a85848509099150836008820486161515870a85848509099150601081049050613255565b81925050505b9392505050565b6132c2613a75565b5f825f01515f600281106132d9576132d8614b27565b5b602002015114801561330557505f825f01516001600281106132fe576132fd614b27565b5b6020020151145b801561332b57505f82602001515f6002811061332457613323614b27565b5b6020020151145b801561335257505f826020015160016002811061334b5761334a614b27565b5b6020020151145b1561335f578190506135f9565b5f613370835f0151845f01516135fe565b90505f613385846020015185602001516135fe565b90505f61355660405180604001604052807f30644e72e131a029b85045b68181585d97816a916871ca8d3c208c16d87cfd47806133c5576133c4614e1a565b5b88602001515f600281106133dc576133db614b27565b5b6020020151895f01515f600281106133f7576133f6614b27565b5b60200201510881526020017f30644e72e131a029b85045b68181585d97816a916871ca8d3c208c16d87cfd478061343157613430614e1a565b5b886020015160016002811061344957613448614b27565b5b6020020151895f015160016002811061346557613464614b27565b5b60200201510881525060405180604001604052807f30644e72e131a029b85045b68181585d97816a916871ca8d3c208c16d87cfd47806134a8576134a7614e1a565b5b89602001515f600281106134bf576134be614b27565b5b60200201518a5f01515f600281106134da576134d9614b27565b5b60200201510881526020017f30644e72e131a029b85045b68181585d97816a916871ca8d3c208c16d87cfd478061351457613513614e1a565b5b896020015160016002811061352c5761352b614b27565b5b60200201518a5f015160016002811061354857613547614b27565b5b6020020151088152506135fe565b905061356b81613566858561392a565b613895565b9050613577818261392a565b90505f61358d613587858661392a565b8561392a565b90505f6135ac61359d83846135fe565b6135a7858661392a565b613895565b90505f8190505f6135d86135c9856135c48887613895565b6135fe565b6135d3888961392a565b613895565b90506040518060400160405280838152602001828152509750505050505050505b919050565b613606613b47565b5f7f30644e72e131a029b85045b68181585d97816a916871ca8d3c208c16d87cfd478061363657613635614e1a565b5b835f6002811061364957613648614b27565b5b6020020151855f6002811061366157613660614b27565b5b60200201510990505f7f30644e72e131a029b85045b68181585d97816a916871ca8d3c208c16d87cfd478061369957613698614e1a565b5b846001600281106136ad576136ac614b27565b5b6020020151866001600281106136c6576136c5614b27565b5b60200201510990505f7f30644e72e131a029b85045b68181585d97816a916871ca8d3c208c16d87cfd47806136fe576136fd614e1a565b5b8660016002811061371257613711614b27565b5b6020020151875f6002811061372a57613729614b27565b5b60200201510890505f7f30644e72e131a029b85045b68181585d97816a916871ca8d3c208c16d87cfd478061376257613761614e1a565b5b8660016002811061377657613775614b27565b5b6020020151875f6002811061378e5761378d614b27565b5b60200201510890505f7f30644e72e131a029b85045b68181585d97816a916871ca8d3c208c16d87cfd47806137c6576137c5614e1a565b5b82840990505f7f30644e72e131a029b85045b68181585d97816a916871ca8d3c208c16d87cfd47806137fb576137fa614e1a565b5b7f30644e72e131a029b85045b68181585d97816a916871ca8d3c208c16d87cfd478061382a57613829614e1a565b5b8660115409870890505f61386f837f30644e72e131a029b85045b68181585d97816a916871ca8d3c208c16d87cfd478061386757613866614e1a565b5b888a08613a0f565b905060405180604001604052808381526020018281525097505050505050505092915050565b61389d613b47565b60405180604001604052806138e0855f600281106138be576138bd614b27565b5b6020020151855f600281106138d6576138d5614b27565b5b6020020151613a0f565b815260200161391f856001600281106138fc576138fb614b27565b5b60200201518560016002811061391557613914614b27565b5b6020020151613a0f565b815250905092915050565b613932613b47565b60405180604001604052807f30644e72e131a029b85045b68181585d97816a916871ca8d3c208c16d87cfd478061396c5761396b614e1a565b5b845f6002811061397f5761397e614b27565b5b6020020151865f6002811061399757613996614b27565b5b60200201510881526020017f30644e72e131a029b85045b68181585d97816a916871ca8d3c208c16d87cfd47806139d1576139d0614e1a565b5b846001600281106139e5576139e4614b27565b5b6020020151866001600281106139fe576139fd614b27565b5b602002015108815250905092915050565b5f7f30644e72e131a029b85045b68181585d97816a916871ca8d3c208c16d87cfd4780613a3f57613a3e614e1a565b5b827f30644e72e131a029b85045b68181585d97816a916871ca8d3c208c16d87cfd47613a6b9190614e74565b8408905092915050565b6040518060400160405280613a88613b47565b8152602001613a95613b47565b81525090565b6040518060200160405280600190602082028036833780820191505090505090565b60405180604001604052805f81526020015f81525090565b6040518060600160405280600390602082028036833780820191505090505090565b6040518060800160405280600490602082028036833780820191505090505090565b604051806101800160405280600c905b613b31613b47565b815260200190600190039081613b295790505090565b6040518060400160405280600290602082028036833780820191505090505090565b5f604051905090565b5f80fd5b5f80fd5b5f601f19601f8301169050919050565b7f4e487b71000000000000000000000000000000000000000000000000000000005f52604160045260245ffd5b613bc082613b7a565b810181811067ffffffffffffffff82111715613bdf57613bde613b8a565b5b80604052505050565b5f613bf1613b69565b9050613bfd8282613bb7565b919050565b5f819050919050565b613c1481613c02565b8114613c1e575f80fd5b50565b5f81359050613c2f81613c0b565b92915050565b5f60408284031215613c4a57613c49613b76565b5b613c546040613be8565b90505f613c6384828501613c21565b5f830152506020613c7684828501613c21565b60208301525092915050565b5f805f60a08486031215613c9957613c98613b72565b5b5f613ca686828701613c35565b9350506040613cb786828701613c35565b9250506080613cc886828701613c21565b9150509250925092565b5f8115159050919050565b613ce681613cd2565b82525050565b5f602082019050613cff5f830184613cdd565b92915050565b5f8060808385031215613d1b57613d1a613b72565b5b5f613d2885828601613c35565b9250506040613d3985828601613c35565b9150509250929050565b5f819050919050565b613d5581613d43565b82525050565b5f602082019050613d6e5f830184613d4c565b92915050565b5f805f806101008587031215613d8d57613d8c613b72565b5b5f613d9a87828801613c35565b9450506040613dab87828801613c35565b9350506080613dbc87828801613c35565b92505060c0613dcd87828801613c35565b91505092959194509250565b5f80fd5b5f67ffffffffffffffff821115613df757613df6613b8a565b5b602082029050919050565b5f80fd5b5f613e18613e1384613ddd565b613be8565b90508060208402830185811115613e3257613e31613e02565b5b835b81811015613e5b5780613e478882613c21565b845260208401935050602081019050613e34565b5050509392505050565b5f82601f830112613e7957613e78613dd9565b5b6002613e86848285613e06565b91505092915050565b5f60808284031215613ea457613ea3613b76565b5b613eae6040613be8565b90505f613ebd84828501613e65565b5f830152506040613ed084828501613e65565b60208301525092915050565b5f6101608284031215613ef257613ef1613b76565b5b613efc60a0613be8565b90505f613f0b84828501613c35565b5f830152506040613f1e84828501613c35565b6020830152506080613f3284828501613e8f565b604083015250610100613f4784828501613c35565b606083015250610140613f5c84828501613c21565b60808301525092915050565b5f6101608284031215613f7e57613f7d613b72565b5b5f613f8b84828501613edc565b91505092915050565b5f6101208284031215613faa57613fa9613b76565b5b613fb460a0613be8565b90505f613fc384828501613c35565b5f830152506040613fd684828501613e8f565b60208301525060c0613fea84828501613c21565b60408301525060e0613ffe84828501613c21565b60608301525061010061401384828501613c21565b60808301525092915050565b5f610120828403121561403557614034613b72565b5b5f61404284828501613f94565b91505092915050565b5f610540828403121561406157614060613b76565b5b61406c610340613be8565b90505f61407b84828501613c35565b5f83015250604061408e84828501613c35565b60208301525060806140a284828501613c35565b60408301525060c06140b684828501613c35565b6060830152506101006140cb84828501613c35565b6080830152506101406140e084828501613c35565b60a0830152506101806140f584828501613c35565b60c0830152506101c061410a84828501613c35565b60e08301525061020061411f84828501613c35565b6101008301525061024061413584828501613c35565b6101208301525061028061414b84828501613c21565b610140830152506102a061416184828501613c21565b610160830152506102c061417784828501613c21565b610180830152506102e061418d84828501613c21565b6101a0830152506103006141a384828501613c21565b6101c0830152506103206141b984828501613c21565b6101e0830152506103406141cf84828501613c21565b610200830152506103606141e584828501613c21565b610220830152506103806141fb84828501613c21565b610240830152506103a061421184828501613c21565b610260830152506103c061422784828501613c35565b6102808301525061040061423d84828501613c35565b6102a08301525061044061425384828501613c35565b6102c08301525061048061426984828501613c35565b6102e0830152506104c061427f84828501613c35565b6103008301525061050061429584828501613c35565b6103208301525092915050565b5f61054082840312156142b8576142b7613b72565b5b5f6142c58482850161404b565b91505092915050565b5f805f8061018085870312156142e7576142e6613b72565b5b5f6142f487828801613c35565b945050604061430587828801613e8f565b93505060c061431687828801613c35565b92505061010061432887828801613e8f565b91505092959194509250565b5f8060a0838503121561434a57614349613b72565b5b5f61435785828601613e8f565b925050608061436885828601613c21565b9150509250929050565b5f60029050919050565b5f81905092915050565b5f819050919050565b61439881613c02565b82525050565b5f6143a9838361438f565b60208301905092915050565b5f602082019050919050565b6143ca81614372565b6143d4818461437c565b92506143df82614386565b805f5b8381101561440f5781516143f6878261439e565b9650614401836143b5565b9250506001810190506143e2565b505050505050565b608082015f82015161442b5f8501826143c1565b50602082015161443e60408501826143c1565b50505050565b5f6080820190506144575f830184614417565b92915050565b5f610780828403121561447357614472613b76565b5b61447e610420613be8565b90505f61448d84828501613f94565b5f830152506101206144a184828501613c35565b6020830152506101606144b684828501613c35565b6040830152506101a06144cb84828501613c35565b6060830152506101e06144e084828501613c35565b6080830152506102206144f584828501613c35565b60a08301525061026061450a84828501613c35565b60c0830152506102a061451f84828501613c35565b60e0830152506102e061453484828501613c35565b6101008301525061032061454a84828501613c35565b6101208301525061036061456084828501613c35565b610140830152506103a061457684828501613c35565b610160830152506103e061458c84828501613c35565b610180830152506104206145a284828501613c35565b6101a0830152506104606145b884828501613c21565b6101c0830152506104806145ce84828501613c21565b6101e0830152506104a06145e484828501613c21565b610200830152506104c06145fa84828501613c21565b610220830152506104e061461084828501613c21565b6102408301525061050061462684828501613c21565b6102608301525061052061463c84828501613c21565b6102808301525061054061465284828501613c21565b6102a08301525061056061466884828501613c21565b6102c08301525061058061467e84828501613c21565b6102e0830152506105a061469484828501613c21565b610300830152506105c06146aa84828501613c21565b610320830152506105e06146c084828501613c21565b610340830152506106006146d684828501613c35565b610360830152506106406146ec84828501613c35565b6103808301525061068061470284828501613c35565b6103a0830152506106c061471884828501613c35565b6103c08301525061070061472e84828501613c35565b6103e08301525061074061474484828501613c35565b6104008301525092915050565b5f610780828403121561476757614766613b72565b5b5f6147748482850161445d565b91505092915050565b5f805f8060c0858703121561479557614794613b72565b5b5f6147a287828801613c35565b94505060406147b387828801613c35565b93505060806147c487828801613c21565b92505060a06147d587828801613c21565b91505092959194509250565b5f819050919050565b6147fb6147f682613c02565b6147e1565b82525050565b5f61480c82876147ea565b60208201915061481c82866147ea565b60208201915061482c82856147ea565b60208201915061483c82846147ea565b60208201915081905095945050505050565b5f614859828b6147ea565b602082019150614869828a6147ea565b60208201915061487982896147ea565b60208201915061488982886147ea565b60208201915061489982876147ea565b6020820191506148a982866147ea565b6020820191506148b982856147ea565b6020820191506148c982846147ea565b6020820191508190509998505050505050505050565b5f82825260208201905092915050565b7f56657269666965722e7665726966794b5a473a205f636f6d6d69746d656e742e5f8201527f58206973206f7574206f662072616e6765000000000000000000000000000000602082015250565b5f6149496031836148df565b9150614954826148ef565b604082019050919050565b5f6020820190508181035f8301526149768161493d565b9050919050565b7f56657269666965722e7665726966794b5a473a205f636f6d6d69746d656e742e5f8201527f59206973206f7574206f662072616e6765000000000000000000000000000000602082015250565b5f6149d76031836148df565b91506149e28261497d565b604082019050919050565b5f6020820190508181035f830152614a04816149cb565b9050919050565b7f56657269666965722e7665726966794b5a473a205f70726f6f662e58206973205f8201527f6f7574206f662072616e67650000000000000000000000000000000000000000602082015250565b5f614a65602c836148df565b9150614a7082614a0b565b604082019050919050565b5f6020820190508181035f830152614a9281614a59565b9050919050565b7f56657269666965722e7665726966794b5a473a205f70726f6f662e59206973205f8201527f6f7574206f662072616e67650000000000000000000000000000000000000000602082015250565b5f614af3602c836148df565b9150614afe82614a99565b604082019050919050565b5f6020820190508181035f830152614b2081614ae7565b9050919050565b7f4e487b71000000000000000000000000000000000000000000000000000000005f52603260045260245ffd5b7f56657269666965722e7665726966794b5a473a20685f6e6567617465616c70685f8201527f617a2e585b305d206973206f7574206f662072616e6765000000000000000000602082015250565b5f614bae6037836148df565b9150614bb982614b54565b604082019050919050565b5f6020820190508181035f830152614bdb81614ba2565b9050919050565b7f56657269666965722e7665726966794b5a473a20685f6e6567617465616c70685f8201527f617a2e595b315d206973206f7574206f662072616e6765000000000000000000602082015250565b5f614c3c6037836148df565b9150614c4782614be2565b604082019050919050565b5f6020820190508181035f830152614c6981614c30565b9050919050565b7f56657269666965722e7665726966794b5a473a20675f6e6167617465312f7a2e5f8201527f58206973206f7574206f662072616e6765000000000000000000000000000000602082015250565b5f614cca6031836148df565b9150614cd582614c70565b604082019050919050565b5f6020820190508181035f830152614cf781614cbe565b9050919050565b7f56657269666965722e7665726966794b5a473a20675f6e6167617465312f7a2e5f8201527f59206973206f7574206f662072616e6765000000000000000000000000000000602082015250565b5f614d586031836148df565b9150614d6382614cfe565b604082019050919050565b5f6020820190508181035f830152614d8581614d4c565b9050919050565b7f56657269666965722e7665726966794b5a473a205f76616c7565206973206f755f8201527f74206f662072616e676500000000000000000000000000000000000000000000602082015250565b5f614de6602a836148df565b9150614df182614d8c565b604082019050919050565b5f6020820190508181035f830152614e1381614dda565b9050919050565b7f4e487b71000000000000000000000000000000000000000000000000000000005f52601260045260245ffd5b7f4e487b71000000000000000000000000000000000000000000000000000000005f52601160045260245ffd5b5f614e7e82613c02565b9150614e8983613c02565b9250828203905081811115614ea157614ea0614e47565b5b92915050565b5f614eb2828f6147ea565b602082019150614ec2828e6147ea565b602082019150614ed2828d6147ea565b602082019150614ee2828c6147ea565b602082019150614ef2828b6147ea565b602082019150614f02828a6147ea565b602082019150614f1282896147ea565b602082019150614f2282886147ea565b602082019150614f3282876147ea565b602082019150614f4282866147ea565b602082019150614f5282856147ea565b602082019150614f6282846147ea565b6020820191508190509d9c50505050505050505050505050565b5f614f8682613c02565b9150614f9183613c02565b925082614fa157614fa0614e1a565b5b828206905092915050565b5f614fb682613c02565b9150614fc183613c02565b925082614fd157614fd0614e1a565b5b828204905092915050565b7f56657269666965722e7665726966794b5a473a205f696e646578206973206f755f8201527f74206f662072616e676500000000000000000000000000000000000000000000602082015250565b5f615036602a836148df565b915061504182614fdc565b604082019050919050565b5f6020820190508181035f8301526150638161502a565b9050919050565b7f70616972696e672d6f70636f64652d6661696c656400000000000000000000005f82015250565b5f61509e6015836148df565b91506150a98261506a565b602082019050919050565b5f6020820190508181035f8301526150cb81615092565b9050919050565b7f70616972696e672d6d756c2d6661696c656400000000000000000000000000005f82015250565b5f6151066012836148df565b9150615111826150d2565b602082019050919050565b5f6020820190508181035f830152615133816150fa565b9050919050565b7f70616972696e672d6164642d6661696c656400000000000000000000000000005f82015250565b5f61516e6012836148df565b91506151798261513a565b602082019050919050565b5f6020820190508181035f83015261519b81615162565b9050919050565b5f6151ac82613c02565b91506151b783613c02565b92508282026151c581613c02565b915082820484148315176151dc576151db614e47565b5b5092915050565b5f6151ed82613c02565b91506151f883613c02565b92508282019050808211156152105761520f614e47565b5b92915050565b7f4d6f64756c7573206973207a65726f00000000000000000000000000000000005f82015250565b5f61524a600f836148df565b915061525582615216565b602082019050919050565b5f6020820190508181035f8301526152778161523e565b905091905056fea2646970667358221220bd4adaab80e7c42c1a168fb7ddb17a154d086b014f14dfc5f39fea1c9f962d7764736f6c63430008160033",
			"opcodes": "PUSH1 0x80 PUSH1 0x40 MSTORE PUSH1 0x40 MLOAD DUP1 PUSH1 0x40 ADD PUSH1 0x40 MSTORE DUP1 PUSH1 0x40 MLOAD DUP1 PUSH1 0x40 ADD PUSH1 0x40 MSTORE DUP1 PUSH32 0x198E9393920D483A7260BFB731FB5D25F1AA493335A9E71297E485B7AEF312C2 DUP2 MSTORE PUSH1 0x20 ADD PUSH32 0x1800DEEF121F1E76426A00665E5C4479674322D4F75EDADD46DEBD5CD992F6ED DUP2 MSTORE POP DUP2 MSTORE PUSH1 0x20 ADD PUSH1 0x40 MLOAD DUP1 PUSH1 0x40 ADD PUSH1 0x40 MSTORE DUP1 PUSH32 0x90689D0585FF075EC9E99AD690C3395BC4B313370B38EF355ACDADCD122975B DUP2 MSTORE PUSH1 0x20 ADD PUSH32 0x12C85EA5DB8C6DEB4AAB71808DCB408FE3D1E7690C43D37B4CE6CC0166FA7DAA DUP2 MSTORE POP DUP2 MSTORE POP PUSH0 DUP1 DUP3 ADD MLOAD DUP2 PUSH0 ADD SWAP1 PUSH1 0x2 PUSH3 0xD9 SWAP3 SWAP2 SWAP1 PUSH3 0x79A JUMP JUMPDEST POP PUSH1 0x20 DUP3 ADD MLOAD DUP2 PUSH1 0x2 ADD SWAP1 PUSH1 0x2 PUSH3 0xF3 SWAP3 SWAP2 SWAP1 PUSH3 0x79A JUMP JUMPDEST POP POP POP PUSH1 0x40 MLOAD DUP1 PUSH1 0x40 ADD PUSH1 0x40 MSTORE DUP1 PUSH1 0x40 MLOAD DUP1 PUSH1 0x40 ADD PUSH1 0x40 MSTORE DUP1 PUSH32 0x198E9393920D483A7260BFB731FB5D25F1AA493335A9E71297E485B7AEF312C2 DUP2 MSTORE PUSH1 0x20 ADD PUSH32 0x1800DEEF121F1E76426A00665E5C4479674322D4F75EDADD46DEBD5CD992F6ED DUP2 MSTORE POP DUP2 MSTORE PUSH1 0x20 ADD PUSH1 0x40 MLOAD DUP1 PUSH1 0x40 ADD PUSH1 0x40 MSTORE DUP1 PUSH32 0x90689D0585FF075EC9E99AD690C3395BC4B313370B38EF355ACDADCD122975B DUP2 MSTORE PUSH1 0x20 ADD PUSH32 0x12C85EA5DB8C6DEB4AAB71808DCB408FE3D1E7690C43D37B4CE6CC0166FA7DAA DUP2 MSTORE POP DUP2 MSTORE POP PUSH1 0x4 PUSH0 DUP3 ADD MLOAD DUP2 PUSH0 ADD SWAP1 PUSH1 0x2 PUSH3 0x1CC SWAP3 SWAP2 SWAP1 PUSH3 0x79A JUMP JUMPDEST POP PUSH1 0x20 DUP3 ADD MLOAD DUP2 PUSH1 0x2 ADD SWAP1 PUSH1 0x2 PUSH3 0x1E6 SWAP3 SWAP2 SWAP1 PUSH3 0x79A JUMP JUMPDEST POP POP POP PUSH1 0x40 MLOAD DUP1 PUSH1 0x40 ADD PUSH1 0x40 MSTORE DUP1 PUSH1 0x40 MLOAD DUP1 PUSH1 0x40 ADD PUSH1 0x40 MSTORE DUP1 PUSH32 0x198E9393920D483A7260BFB731FB5D25F1AA493335A9E71297E485B7AEF312C2 DUP2 MSTORE PUSH1 0x20 ADD PUSH32 0x1800DEEF121F1E76426A00665E5C4479674322D4F75EDADD46DEBD5CD992F6ED DUP2 MSTORE POP DUP2 MSTORE PUSH1 0x20 ADD PUSH1 0x40 MLOAD DUP1 PUSH1 0x40 ADD PUSH1 0x40 MSTORE DUP1 PUSH32 0x90689D0585FF075EC9E99AD690C3395BC4B313370B38EF355ACDADCD122975B DUP2 MSTORE PUSH1 0x20 ADD PUSH32 0x12C85EA5DB8C6DEB4AAB71808DCB408FE3D1E7690C43D37B4CE6CC0166FA7DAA DUP2 MSTORE POP DUP2 MSTORE POP PUSH1 0x8 PUSH0 DUP3 ADD MLOAD DUP2 PUSH0 ADD SWAP1 PUSH1 0x2 PUSH3 0x2BF SWAP3 SWAP2 SWAP1 PUSH3 0x79A JUMP JUMPDEST POP PUSH1 0x20 DUP3 ADD MLOAD DUP2 PUSH1 0x2 ADD SWAP1 PUSH1 0x2 PUSH3 0x2D9 SWAP3 SWAP2 SWAP1 PUSH3 0x79A JUMP JUMPDEST POP POP POP PUSH1 0x40 MLOAD DUP1 PUSH1 0x40 ADD PUSH1 0x40 MSTORE DUP1 PUSH1 0x40 MLOAD DUP1 PUSH1 0x40 ADD PUSH1 0x40 MSTORE DUP1 PUSH32 0x198E9393920D483A7260BFB731FB5D25F1AA493335A9E71297E485B7AEF312C2 DUP2 MSTORE PUSH1 0x20 ADD PUSH32 0x1800DEEF121F1E76426A00665E5C4479674322D4F75EDADD46DEBD5CD992F6ED DUP2 MSTORE POP DUP2 MSTORE PUSH1 0x20 ADD PUSH1 0x40 MLOAD DUP1 PUSH1 0x40 ADD PUSH1 0x40 MSTORE DUP1 PUSH32 0x90689D0585FF075EC9E99AD690C3395BC4B313370B38EF355ACDADCD122975B DUP2 MSTORE PUSH1 0x20 ADD PUSH32 0x12C85EA5DB8C6DEB4AAB71808DCB408FE3D1E7690C43D37B4CE6CC0166FA7DAA DUP2 MSTORE POP DUP2 MSTORE POP PUSH1 0xC PUSH0 DUP3 ADD MLOAD DUP2 PUSH0 ADD SWAP1 PUSH1 0x2 PUSH3 0x3B2 SWAP3 SWAP2 SWAP1 PUSH3 0x79A JUMP JUMPDEST POP PUSH1 0x20 DUP3 ADD MLOAD DUP2 PUSH1 0x2 ADD SWAP1 PUSH1 0x2 PUSH3 0x3CC SWAP3 SWAP2 SWAP1 PUSH3 0x79A JUMP JUMPDEST POP POP POP PUSH32 0x30644E72E131A029B85045B68181585D2833E84879B9709143E1F593F0000001 DUP1 PUSH3 0x401 JUMPI PUSH3 0x400 PUSH3 0x7FC JUMP JUMPDEST JUMPDEST PUSH1 0x11 SLOAD PUSH1 0x12 SLOAD MULMOD PUSH1 0x10 SSTORE PUSH1 0x2 PUSH1 0x11 SSTORE PUSH1 0x3 PUSH1 0x12 SSTORE PUSH1 0x4 PUSH1 0x13 SSTORE PUSH1 0x1 PUSH1 0x14 SSTORE PUSH1 0xE8 PUSH1 0x15 SSTORE PUSH2 0x3B0 PUSH1 0x16 SSTORE PUSH2 0xF28 PUSH1 0x17 SSTORE PUSH2 0x43B8 PUSH1 0x18 SSTORE PUSH1 0xC PUSH1 0x19 SSTORE PUSH1 0x16 PUSH1 0x1A SSTORE PUSH1 0xA PUSH1 0x1B SSTORE PUSH1 0x16 PUSH1 0x1C SSTORE PUSH1 0x2E PUSH1 0x1D SSTORE PUSH1 0x2 PUSH1 0x1E SSTORE PUSH32 0x198E9393920D483A7260BFB731FB5D25F1AA493335A9E71297E485B7AEF312C2 PUSH1 0x1F SSTORE PUSH1 0x40 MLOAD DUP1 PUSH1 0x40 ADD PUSH1 0x40 MSTORE DUP1 PUSH32 0x2D2E305D3AB2DC6E0081FFCF4A701F924A1A7296CDC32046C10C0B6F992387B2 DUP2 MSTORE PUSH1 0x20 ADD PUSH32 0x10D4D3CCA369C48670346EF36C6739E885BB11B52038A89C706AACFB7D72D789 DUP2 MSTORE POP PUSH1 0x20 PUSH0 DUP3 ADD MLOAD DUP2 PUSH0 ADD SSTORE PUSH1 0x20 DUP3 ADD MLOAD DUP2 PUSH1 0x1 ADD SSTORE POP POP PUSH1 0x40 MLOAD DUP1 PUSH1 0x40 ADD PUSH1 0x40 MSTORE DUP1 PUSH32 0x2D2E305D3AB2DC6E0081FFCF4A701F924A1A7296CDC32046C10C0B6F992387B2 DUP2 MSTORE PUSH1 0x20 ADD PUSH32 0x10D4D3CCA369C48670346EF36C6739E885BB11B52038A89C706AACFB7D72D789 DUP2 MSTORE POP PUSH1 0x22 PUSH0 DUP3 ADD MLOAD DUP2 PUSH0 ADD SSTORE PUSH1 0x20 DUP3 ADD MLOAD DUP2 PUSH1 0x1 ADD SSTORE POP POP PUSH1 0x40 MLOAD DUP1 PUSH1 0x40 ADD PUSH1 0x40 MSTORE DUP1 PUSH32 0x2D2E305D3AB2DC6E0081FFCF4A701F924A1A7296CDC32046C10C0B6F992387B2 DUP2 MSTORE PUSH1 0x20 ADD PUSH32 0x10D4D3CCA369C48670346EF36C6739E885BB11B52038A89C706AACFB7D72D789 DUP2 MSTORE POP PUSH1 0x24 PUSH0 DUP3 ADD MLOAD DUP2 PUSH0 ADD SSTORE PUSH1 0x20 DUP3 ADD MLOAD DUP2 PUSH1 0x1 ADD SSTORE POP POP PUSH1 0x40 MLOAD DUP1 PUSH1 0x40 ADD PUSH1 0x40 MSTORE DUP1 PUSH32 0x2D2E305D3AB2DC6E0081FFCF4A701F924A1A7296CDC32046C10C0B6F992387B2 DUP2 MSTORE PUSH1 0x20 ADD PUSH32 0x10D4D3CCA369C48670346EF36C6739E885BB11B52038A89C706AACFB7D72D789 DUP2 MSTORE POP PUSH1 0x26 PUSH0 DUP3 ADD MLOAD DUP2 PUSH0 ADD SSTORE PUSH1 0x20 DUP3 ADD MLOAD DUP2 PUSH1 0x1 ADD SSTORE POP POP PUSH1 0x40 MLOAD DUP1 PUSH1 0x40 ADD PUSH1 0x40 MSTORE DUP1 PUSH32 0x2D2E305D3AB2DC6E0081FFCF4A701F924A1A7296CDC32046C10C0B6F992387B2 DUP2 MSTORE PUSH1 0x20 ADD PUSH32 0x10D4D3CCA369C48670346EF36C6739E885BB11B52038A89C706AACFB7D72D789 DUP2 MSTORE POP PUSH1 0x28 PUSH0 DUP3 ADD MLOAD DUP2 PUSH0 ADD SSTORE PUSH1 0x20 DUP3 ADD MLOAD DUP2 PUSH1 0x1 ADD SSTORE POP POP PUSH1 0x40 MLOAD DUP1 PUSH1 0x40 ADD PUSH1 0x40 MSTORE DUP1 PUSH1 0x40 MLOAD DUP1 PUSH1 0x40 ADD PUSH1 0x40 MSTORE DUP1 PUSH32 0x198E9393920D483A7260BFB731FB5D25F1AA493335A9E71297E485B7AEF312C2 DUP2 MSTORE PUSH1 0x20 ADD PUSH32 0x1800DEEF121F1E76426A00665E5C4479674322D4F75EDADD46DEBD5CD992F6ED DUP2 MSTORE POP DUP2 MSTORE PUSH1 0x20 ADD PUSH1 0x40 MLOAD DUP1 PUSH1 0x40 ADD PUSH1 0x40 MSTORE DUP1 PUSH32 0x90689D0585FF075EC9E99AD690C3395BC4B313370B38EF355ACDADCD122975B DUP2 MSTORE PUSH1 0x20 ADD PUSH32 0x12C85EA5DB8C6DEB4AAB71808DCB408FE3D1E7690C43D37B4CE6CC0166FA7DAA DUP2 MSTORE POP DUP2 MSTORE POP PUSH1 0x2A PUSH0 DUP3 ADD MLOAD DUP2 PUSH0 ADD SWAP1 PUSH1 0x2 PUSH3 0x765 SWAP3 SWAP2 SWAP1 PUSH3 0x79A JUMP JUMPDEST POP PUSH1 0x20 DUP3 ADD MLOAD DUP2 PUSH1 0x2 ADD SWAP1 PUSH1 0x2 PUSH3 0x77F SWAP3 SWAP2 SWAP1 PUSH3 0x79A JUMP JUMPDEST POP POP POP PUSH1 0x5 PUSH1 0x2E SSTORE CALLVALUE DUP1 ISZERO PUSH3 0x793 JUMPI PUSH0 DUP1 REVERT JUMPDEST POP PUSH3 0x829 JUMP JUMPDEST DUP3 PUSH1 0x2 DUP2 ADD SWAP3 DUP3 ISZERO PUSH3 0x7CC JUMPI SWAP2 PUSH1 0x20 MUL DUP3 ADD JUMPDEST DUP3 DUP2 GT ISZERO PUSH3 0x7CB JUMPI DUP3 MLOAD DUP3 SSTORE SWAP2 PUSH1 0x20 ADD SWAP2 SWAP1 PUSH1 0x1 ADD SWAP1 PUSH3 0x7AE JUMP JUMPDEST JUMPDEST POP SWAP1 POP PUSH3 0x7DB SWAP2 SWAP1 PUSH3 0x7DF JUMP JUMPDEST POP SWAP1 JUMP JUMPDEST JUMPDEST DUP1 DUP3 GT ISZERO PUSH3 0x7F8 JUMPI PUSH0 DUP2 PUSH0 SWAP1 SSTORE POP PUSH1 0x1 ADD PUSH3 0x7E0 JUMP JUMPDEST POP SWAP1 JUMP JUMPDEST PUSH32 0x4E487B7100000000000000000000000000000000000000000000000000000000 PUSH0 MSTORE PUSH1 0x12 PUSH1 0x4 MSTORE PUSH1 0x24 PUSH0 REVERT JUMPDEST PUSH2 0x52B4 DUP1 PUSH3 0x837 PUSH0 CODECOPY PUSH0 RETURN INVALID PUSH1 0x80 PUSH1 0x40 MSTORE CALLVALUE DUP1 ISZERO PUSH2 0xF JUMPI PUSH0 DUP1 REVERT JUMPDEST POP PUSH1 0x4 CALLDATASIZE LT PUSH2 0x9C JUMPI PUSH0 CALLDATALOAD PUSH1 0xE0 SHR DUP1 PUSH4 0x9E004F54 GT PUSH2 0x64 JUMPI DUP1 PUSH4 0x9E004F54 EQ PUSH2 0x190 JUMPI DUP1 PUSH4 0xBDA45338 EQ PUSH2 0x1C0 JUMPI DUP1 PUSH4 0xBE603B1A EQ PUSH2 0x1F0 JUMPI DUP1 PUSH4 0xEF3684D2 EQ PUSH2 0x220 JUMPI DUP1 PUSH4 0xFC137DEB EQ PUSH2 0x250 JUMPI PUSH2 0x9C JUMP JUMPDEST DUP1 PUSH4 0x3D2AE1F EQ PUSH2 0xA0 JUMPI DUP1 PUSH4 0x1F96439F EQ PUSH2 0xD0 JUMPI DUP1 PUSH4 0x34200B14 EQ PUSH2 0x100 JUMPI DUP1 PUSH4 0x529FBFD8 EQ PUSH2 0x130 JUMPI DUP1 PUSH4 0x9388D55F EQ PUSH2 0x160 JUMPI JUMPDEST PUSH0 DUP1 REVERT JUMPDEST PUSH2 0xBA PUSH1 0x4 DUP1 CALLDATASIZE SUB DUP2 ADD SWAP1 PUSH2 0xB5 SWAP2 SWAP1 PUSH2 0x3C82 JUMP JUMPDEST PUSH2 0x280 JUMP JUMPDEST PUSH1 0x40 MLOAD PUSH2 0xC7 SWAP2 SWAP1 PUSH2 0x3CEC JUMP JUMPDEST PUSH1 0x40 MLOAD DUP1 SWAP2 SUB SWAP1 RETURN JUMPDEST PUSH2 0xEA PUSH1 0x4 DUP1 CALLDATASIZE SUB DUP2 ADD SWAP1 PUSH2 0xE5 SWAP2 SWAP1 PUSH2 0x3D05 JUMP JUMPDEST PUSH2 0x3D9 JUMP JUMPDEST PUSH1 0x40 MLOAD PUSH2 0xF7 SWAP2 SWAP1 PUSH2 0x3D5B JUMP JUMPDEST PUSH1 0x40 MLOAD DUP1 SWAP2 SUB SWAP1 RETURN JUMPDEST PUSH2 0x11A PUSH1 0x4 DUP1 CALLDATASIZE SUB DUP2 ADD SWAP1 PUSH2 0x115 SWAP2 SWAP1 PUSH2 0x3D74 JUMP JUMPDEST PUSH2 0x41D JUMP JUMPDEST PUSH1 0x40 MLOAD PUSH2 0x127 SWAP2 SWAP1 PUSH2 0x3D5B JUMP JUMPDEST PUSH1 0x40 MLOAD DUP1 SWAP2 SUB SWAP1 RETURN JUMPDEST PUSH2 0x14A PUSH1 0x4 DUP1 CALLDATASIZE SUB DUP2 ADD SWAP1 PUSH2 0x145 SWAP2 SWAP1 PUSH2 0x3F68 JUMP JUMPDEST PUSH2 0x479 JUMP JUMPDEST PUSH1 0x40 MLOAD PUSH2 0x157 SWAP2 SWAP1 PUSH2 0x3CEC JUMP JUMPDEST PUSH1 0x40 MLOAD DUP1 SWAP2 SUB SWAP1 RETURN JUMPDEST PUSH2 0x17A PUSH1 0x4 DUP1 CALLDATASIZE SUB DUP2 ADD SWAP1 PUSH2 0x175 SWAP2 SWAP1 PUSH2 0x401F JUMP JUMPDEST PUSH2 0xAE0 JUMP JUMPDEST PUSH1 0x40 MLOAD PUSH2 0x187 SWAP2 SWAP1 PUSH2 0x3CEC JUMP JUMPDEST PUSH1 0x40 MLOAD DUP1 SWAP2 SUB SWAP1 RETURN JUMPDEST PUSH2 0x1AA PUSH1 0x4 DUP1 CALLDATASIZE SUB DUP2 ADD SWAP1 PUSH2 0x1A5 SWAP2 SWAP1 PUSH2 0x42A2 JUMP JUMPDEST PUSH2 0xE8A JUMP JUMPDEST PUSH1 0x40 MLOAD PUSH2 0x1B7 SWAP2 SWAP1 PUSH2 0x3CEC JUMP JUMPDEST PUSH1 0x40 MLOAD DUP1 SWAP2 SUB SWAP1 RETURN JUMPDEST PUSH2 0x1DA PUSH1 0x4 DUP1 CALLDATASIZE SUB DUP2 ADD SWAP1 PUSH2 0x1D5 SWAP2 SWAP1 PUSH2 0x42CE JUMP JUMPDEST PUSH2 0x13A2 JUMP JUMPDEST PUSH1 0x40 MLOAD PUSH2 0x1E7 SWAP2 SWAP1 PUSH2 0x3D5B JUMP JUMPDEST PUSH1 0x40 MLOAD DUP1 SWAP2 SUB SWAP1 RETURN JUMPDEST PUSH2 0x20A PUSH1 0x4 DUP1 CALLDATASIZE SUB DUP2 ADD SWAP1 PUSH2 0x205 SWAP2 SWAP1 PUSH2 0x4334 JUMP JUMPDEST PUSH2 0x14D0 JUMP JUMPDEST PUSH1 0x40 MLOAD PUSH2 0x217 SWAP2 SWAP1 PUSH2 0x4444 JUMP JUMPDEST PUSH1 0x40 MLOAD DUP1 SWAP2 SUB SWAP1 RETURN JUMPDEST PUSH2 0x23A PUSH1 0x4 DUP1 CALLDATASIZE SUB DUP2 ADD SWAP1 PUSH2 0x235 SWAP2 SWAP1 PUSH2 0x4751 JUMP JUMPDEST PUSH2 0x156B JUMP JUMPDEST PUSH1 0x40 MLOAD PUSH2 0x247 SWAP2 SWAP1 PUSH2 0x3CEC JUMP JUMPDEST PUSH1 0x40 MLOAD DUP1 SWAP2 SUB SWAP1 RETURN JUMPDEST PUSH2 0x26A PUSH1 0x4 DUP1 CALLDATASIZE SUB DUP2 ADD SWAP1 PUSH2 0x265 SWAP2 SWAP1 PUSH2 0x477D JUMP JUMPDEST PUSH2 0x1D42 JUMP JUMPDEST PUSH1 0x40 MLOAD PUSH2 0x277 SWAP2 SWAP1 PUSH2 0x3CEC JUMP JUMPDEST PUSH1 0x40 MLOAD DUP1 SWAP2 SUB SWAP1 RETURN JUMPDEST PUSH0 PUSH2 0x3C0 DUP5 PUSH1 0x8 PUSH1 0x40 MLOAD DUP1 PUSH1 0x40 ADD PUSH1 0x40 MSTORE SWAP1 DUP2 PUSH0 DUP3 ADD PUSH1 0x2 DUP1 PUSH1 0x20 MUL PUSH1 0x40 MLOAD SWAP1 DUP2 ADD PUSH1 0x40 MSTORE DUP1 SWAP3 SWAP2 SWAP1 DUP3 PUSH1 0x2 DUP1 ISZERO PUSH2 0x2CD JUMPI PUSH1 0x20 MUL DUP3 ADD SWAP2 JUMPDEST DUP2 SLOAD DUP2 MSTORE PUSH1 0x20 ADD SWAP1 PUSH1 0x1 ADD SWAP1 DUP1 DUP4 GT PUSH2 0x2B9 JUMPI JUMPDEST POP POP POP POP POP DUP2 MSTORE PUSH1 0x20 ADD PUSH1 0x2 DUP3 ADD PUSH1 0x2 DUP1 PUSH1 0x20 MUL PUSH1 0x40 MLOAD SWAP1 DUP2 ADD PUSH1 0x40 MSTORE DUP1 SWAP3 SWAP2 SWAP1 DUP3 PUSH1 0x2 DUP1 ISZERO PUSH2 0x312 JUMPI PUSH1 0x20 MUL DUP3 ADD SWAP2 JUMPDEST DUP2 SLOAD DUP2 MSTORE PUSH1 0x20 ADD SWAP1 PUSH1 0x1 ADD SWAP1 DUP1 DUP4 GT PUSH2 0x2FE JUMPI JUMPDEST POP POP POP POP POP DUP2 MSTORE POP POP DUP6 PUSH2 0x3BB PUSH1 0xC PUSH1 0x40 MLOAD DUP1 PUSH1 0x40 ADD PUSH1 0x40 MSTORE SWAP1 DUP2 PUSH0 DUP3 ADD PUSH1 0x2 DUP1 PUSH1 0x20 MUL PUSH1 0x40 MLOAD SWAP1 DUP2 ADD PUSH1 0x40 MSTORE DUP1 SWAP3 SWAP2 SWAP1 DUP3 PUSH1 0x2 DUP1 ISZERO PUSH2 0x367 JUMPI PUSH1 0x20 MUL DUP3 ADD SWAP2 JUMPDEST DUP2 SLOAD DUP2 MSTORE PUSH1 0x20 ADD SWAP1 PUSH1 0x1 ADD SWAP1 DUP1 DUP4 GT PUSH2 0x353 JUMPI JUMPDEST POP POP POP POP POP DUP2 MSTORE PUSH1 0x20 ADD PUSH1 0x2 DUP3 ADD PUSH1 0x2 DUP1 PUSH1 0x20 MUL PUSH1 0x40 MLOAD SWAP1 DUP2 ADD PUSH1 0x40 MSTORE DUP1 SWAP3 SWAP2 SWAP1 DUP3 PUSH1 0x2 DUP1 ISZERO PUSH2 0x3AC JUMPI PUSH1 0x20 MUL DUP3 ADD SWAP2 JUMPDEST DUP2 SLOAD DUP2 MSTORE PUSH1 0x20 ADD SWAP1 PUSH1 0x1 ADD SWAP1 DUP1 DUP4 GT PUSH2 0x398 JUMPI JUMPDEST POP POP POP POP POP DUP2 MSTORE POP POP DUP8 PUSH2 0x14D0 JUMP JUMPDEST PUSH2 0x21AF JUMP JUMPDEST ISZERO PUSH2 0x3CE JUMPI PUSH1 0x1 SWAP1 POP PUSH2 0x3D2 JUMP JUMPDEST PUSH0 SWAP1 POP JUMPDEST SWAP4 SWAP3 POP POP POP JUMP JUMPDEST PUSH0 DUP3 PUSH0 ADD MLOAD DUP4 PUSH1 0x20 ADD MLOAD DUP4 PUSH0 ADD MLOAD DUP5 PUSH1 0x20 ADD MLOAD PUSH1 0x40 MLOAD PUSH1 0x20 ADD PUSH2 0x3FF SWAP5 SWAP4 SWAP3 SWAP2 SWAP1 PUSH2 0x4801 JUMP JUMPDEST PUSH1 0x40 MLOAD PUSH1 0x20 DUP2 DUP4 SUB SUB DUP2 MSTORE SWAP1 PUSH1 0x40 MSTORE DUP1 MLOAD SWAP1 PUSH1 0x20 ADD KECCAK256 SWAP1 POP SWAP3 SWAP2 POP POP JUMP JUMPDEST PUSH0 DUP5 PUSH0 ADD MLOAD DUP6 PUSH1 0x20 ADD MLOAD DUP6 PUSH0 ADD MLOAD DUP7 PUSH1 0x20 ADD MLOAD DUP7 PUSH0 ADD MLOAD DUP8 PUSH1 0x20 ADD MLOAD DUP8 PUSH0 ADD MLOAD DUP9 PUSH1 0x20 ADD MLOAD PUSH1 0x40 MLOAD PUSH1 0x20 ADD PUSH2 0x459 SWAP9 SWAP8 SWAP7 SWAP6 SWAP5 SWAP4 SWAP3 SWAP2 SWAP1 PUSH2 0x484E JUMP JUMPDEST PUSH1 0x40 MLOAD PUSH1 0x20 DUP2 DUP4 SUB SUB DUP2 MSTORE SWAP1 PUSH1 0x40 MSTORE DUP1 MLOAD SWAP1 PUSH1 0x20 ADD KECCAK256 SWAP1 POP SWAP5 SWAP4 POP POP POP POP JUMP JUMPDEST PUSH0 PUSH32 0x30644E72E131A029B85045B68181585D2833E84879B9709143E1F593F0000001 DUP3 PUSH0 ADD MLOAD PUSH0 ADD MLOAD LT PUSH2 0x4E2 JUMPI PUSH1 0x40 MLOAD PUSH32 0x8C379A000000000000000000000000000000000000000000000000000000000 DUP2 MSTORE PUSH1 0x4 ADD PUSH2 0x4D9 SWAP1 PUSH2 0x495F JUMP JUMPDEST PUSH1 0x40 MLOAD DUP1 SWAP2 SUB SWAP1 REVERT JUMPDEST PUSH32 0x30644E72E131A029B85045B68181585D2833E84879B9709143E1F593F0000001 DUP3 PUSH0 ADD MLOAD PUSH1 0x20 ADD MLOAD LT PUSH2 0x54B JUMPI PUSH1 0x40 MLOAD PUSH32 0x8C379A000000000000000000000000000000000000000000000000000000000 DUP2 MSTORE PUSH1 0x4 ADD PUSH2 0x542 SWAP1 PUSH2 0x49ED JUMP JUMPDEST PUSH1 0x40 MLOAD DUP1 SWAP2 SUB SWAP1 REVERT JUMPDEST PUSH32 0x30644E72E131A029B85045B68181585D2833E84879B9709143E1F593F0000001 DUP3 PUSH1 0x20 ADD MLOAD PUSH0 ADD MLOAD LT PUSH2 0x5B4 JUMPI PUSH1 0x40 MLOAD PUSH32 0x8C379A000000000000000000000000000000000000000000000000000000000 DUP2 MSTORE PUSH1 0x4 ADD PUSH2 0x5AB SWAP1 PUSH2 0x4A7B JUMP JUMPDEST PUSH1 0x40 MLOAD DUP1 SWAP2 SUB SWAP1 REVERT JUMPDEST PUSH32 0x30644E72E131A029B85045B68181585D2833E84879B9709143E1F593F0000001 DUP3 PUSH1 0x20 ADD MLOAD PUSH1 0x20 ADD MLOAD LT PUSH2 0x61E JUMPI PUSH1 0x40 MLOAD PUSH32 0x8C379A000000000000000000000000000000000000000000000000000000000 DUP2 MSTORE PUSH1 0x4 ADD PUSH2 0x615 SWAP1 PUSH2 0x4B09 JUMP JUMPDEST PUSH1 0x40 MLOAD DUP1 SWAP2 SUB SWAP1 REVERT JUMPDEST PUSH32 0x30644E72E131A029B85045B68181585D2833E84879B9709143E1F593F0000001 DUP3 PUSH1 0x40 ADD MLOAD PUSH0 ADD MLOAD PUSH0 PUSH1 0x2 DUP2 LT PUSH2 0x659 JUMPI PUSH2 0x658 PUSH2 0x4B27 JUMP JUMPDEST JUMPDEST PUSH1 0x20 MUL ADD MLOAD LT PUSH2 0x69E JUMPI PUSH1 0x40 MLOAD PUSH32 0x8C379A000000000000000000000000000000000000000000000000000000000 DUP2 MSTORE PUSH1 0x4 ADD PUSH2 0x695 SWAP1 PUSH2 0x4BC4 JUMP JUMPDEST PUSH1 0x40 MLOAD DUP1 SWAP2 SUB SWAP1 REVERT JUMPDEST PUSH32 0x30644E72E131A029B85045B68181585D2833E84879B9709143E1F593F0000001 DUP3 PUSH1 0x40 ADD MLOAD PUSH1 0x20 ADD MLOAD PUSH0 PUSH1 0x2 DUP2 LT PUSH2 0x6DA JUMPI PUSH2 0x6D9 PUSH2 0x4B27 JUMP JUMPDEST JUMPDEST PUSH1 0x20 MUL ADD MLOAD LT PUSH2 0x71F JUMPI PUSH1 0x40 MLOAD PUSH32 0x8C379A000000000000000000000000000000000000000000000000000000000 DUP2 MSTORE PUSH1 0x4 ADD PUSH2 0x716 SWAP1 PUSH2 0x4C52 JUMP JUMPDEST PUSH1 0x40 MLOAD DUP1 SWAP2 SUB SWAP1 REVERT JUMPDEST PUSH32 0x30644E72E131A029B85045B68181585D2833E84879B9709143E1F593F0000001 DUP3 PUSH1 0x40 ADD MLOAD PUSH0 ADD MLOAD PUSH1 0x1 PUSH1 0x2 DUP2 LT PUSH2 0x75B JUMPI PUSH2 0x75A PUSH2 0x4B27 JUMP JUMPDEST JUMPDEST PUSH1 0x20 MUL ADD MLOAD LT PUSH2 0x7A0 JUMPI PUSH1 0x40 MLOAD PUSH32 0x8C379A000000000000000000000000000000000000000000000000000000000 DUP2 MSTORE PUSH1 0x4 ADD PUSH2 0x797 SWAP1 PUSH2 0x4BC4 JUMP JUMPDEST PUSH1 0x40 MLOAD DUP1 SWAP2 SUB SWAP1 REVERT JUMPDEST PUSH32 0x30644E72E131A029B85045B68181585D2833E84879B9709143E1F593F0000001 DUP3 PUSH1 0x40 ADD MLOAD PUSH1 0x20 ADD MLOAD PUSH1 0x1 PUSH1 0x2 DUP2 LT PUSH2 0x7DD JUMPI PUSH2 0x7DC PUSH2 0x4B27 JUMP JUMPDEST JUMPDEST PUSH1 0x20 MUL ADD MLOAD LT PUSH2 0x822 JUMPI PUSH1 0x40 MLOAD PUSH32 0x8C379A000000000000000000000000000000000000000000000000000000000 DUP2 MSTORE PUSH1 0x4 ADD PUSH2 0x819 SWAP1 PUSH2 0x4C52 JUMP JUMPDEST PUSH1 0x40 MLOAD DUP1 SWAP2 SUB SWAP1 REVERT JUMPDEST PUSH32 0x30644E72E131A029B85045B68181585D2833E84879B9709143E1F593F0000001 DUP3 PUSH1 0x60 ADD MLOAD PUSH0 ADD MLOAD LT PUSH2 0x88B JUMPI PUSH1 0x40 MLOAD PUSH32 0x8C379A000000000000000000000000000000000000000000000000000000000 DUP2 MSTORE PUSH1 0x4 ADD PUSH2 0x882 SWAP1 PUSH2 0x4CE0 JUMP JUMPDEST PUSH1 0x40 MLOAD DUP1 SWAP2 SUB SWAP1 REVERT JUMPDEST PUSH32 0x30644E72E131A029B85045B68181585D2833E84879B9709143E1F593F0000001 DUP3 PUSH1 0x60 ADD MLOAD PUSH1 0x20 ADD MLOAD LT PUSH2 0x8F5 JUMPI PUSH1 0x40 MLOAD PUSH32 0x8C379A000000000000000000000000000000000000000000000000000000000 DUP2 MSTORE PUSH1 0x4 ADD PUSH2 0x8EC SWAP1 PUSH2 0x4D6E JUMP JUMPDEST PUSH1 0x40 MLOAD DUP1 SWAP2 SUB SWAP1 REVERT JUMPDEST PUSH32 0x30644E72E131A029B85045B68181585D2833E84879B9709143E1F593F0000001 DUP3 PUSH1 0x80 ADD MLOAD LT PUSH2 0x95B JUMPI PUSH1 0x40 MLOAD PUSH32 0x8C379A000000000000000000000000000000000000000000000000000000000 DUP2 MSTORE PUSH1 0x4 ADD PUSH2 0x952 SWAP1 PUSH2 0x4DFC JUMP JUMPDEST PUSH1 0x40 MLOAD DUP1 SWAP2 SUB SWAP1 REVERT JUMPDEST PUSH0 PUSH2 0x97B PUSH2 0x971 DUP5 PUSH1 0x60 ADD MLOAD DUP6 PUSH1 0x80 ADD MLOAD PUSH2 0x2504 JUMP JUMPDEST DUP5 PUSH1 0x20 ADD MLOAD PUSH2 0x25D8 JUMP JUMPDEST SWAP1 POP PUSH2 0xAC7 DUP4 PUSH1 0x20 ADD MLOAD PUSH1 0xC PUSH1 0x40 MLOAD DUP1 PUSH1 0x40 ADD PUSH1 0x40 MSTORE SWAP1 DUP2 PUSH0 DUP3 ADD PUSH1 0x2 DUP1 PUSH1 0x20 MUL PUSH1 0x40 MLOAD SWAP1 DUP2 ADD PUSH1 0x40 MSTORE DUP1 SWAP3 SWAP2 SWAP1 DUP3 PUSH1 0x2 DUP1 ISZERO PUSH2 0x9CD JUMPI PUSH1 0x20 MUL DUP3 ADD SWAP2 JUMPDEST DUP2 SLOAD DUP2 MSTORE PUSH1 0x20 ADD SWAP1 PUSH1 0x1 ADD SWAP1 DUP1 DUP4 GT PUSH2 0x9B9 JUMPI JUMPDEST POP POP POP POP POP DUP2 MSTORE PUSH1 0x20 ADD PUSH1 0x2 DUP3 ADD PUSH1 0x2 DUP1 PUSH1 0x20 MUL PUSH1 0x40 MLOAD SWAP1 DUP2 ADD PUSH1 0x40 MSTORE DUP1 SWAP3 SWAP2 SWAP1 DUP3 PUSH1 0x2 DUP1 ISZERO PUSH2 0xA12 JUMPI PUSH1 0x20 MUL DUP3 ADD SWAP2 JUMPDEST DUP2 SLOAD DUP2 MSTORE PUSH1 0x20 ADD SWAP1 PUSH1 0x1 ADD SWAP1 DUP1 DUP4 GT PUSH2 0x9FE JUMPI JUMPDEST POP POP POP POP POP DUP2 MSTORE POP POP DUP4 DUP7 PUSH1 0x40 ADD MLOAD PUSH2 0xA2D DUP9 PUSH0 ADD MLOAD PUSH2 0x26D1 JUMP JUMPDEST PUSH0 PUSH1 0x40 MLOAD DUP1 PUSH1 0x40 ADD PUSH1 0x40 MSTORE SWAP1 DUP2 PUSH0 DUP3 ADD PUSH1 0x2 DUP1 PUSH1 0x20 MUL PUSH1 0x40 MLOAD SWAP1 DUP2 ADD PUSH1 0x40 MSTORE DUP1 SWAP3 SWAP2 SWAP1 DUP3 PUSH1 0x2 DUP1 ISZERO PUSH2 0xA74 JUMPI PUSH1 0x20 MUL DUP3 ADD SWAP2 JUMPDEST DUP2 SLOAD DUP2 MSTORE PUSH1 0x20 ADD SWAP1 PUSH1 0x1 ADD SWAP1 DUP1 DUP4 GT PUSH2 0xA60 JUMPI JUMPDEST POP POP POP POP POP DUP2 MSTORE PUSH1 0x20 ADD PUSH1 0x2 DUP3 ADD PUSH1 0x2 DUP1 PUSH1 0x20 MUL PUSH1 0x40 MLOAD SWAP1 DUP2 ADD PUSH1 0x40 MSTORE DUP1 SWAP3 SWAP2 SWAP1 DUP3 PUSH1 0x2 DUP1 ISZERO PUSH2 0xAB9 JUMPI PUSH1 0x20 MUL DUP3 ADD SWAP2 JUMPDEST DUP2 SLOAD DUP2 MSTORE PUSH1 0x20 ADD SWAP1 PUSH1 0x1 ADD SWAP1 DUP1 DUP4 GT PUSH2 0xAA5 JUMPI JUMPDEST POP POP POP POP POP DUP2 MSTORE POP POP PUSH2 0x2789 JUMP JUMPDEST ISZERO PUSH2 0xAD6 JUMPI PUSH1 0x1 SWAP2 POP POP PUSH2 0xADB JUMP JUMPDEST PUSH0 SWAP2 POP POP JUMPDEST SWAP2 SWAP1 POP JUMP JUMPDEST PUSH0 DUP1 PUSH2 0xAF7 PUSH2 0xAED PUSH2 0x2ADB JUMP JUMPDEST DUP5 PUSH1 0x40 ADD MLOAD PUSH2 0x2504 JUMP JUMPDEST SWAP1 POP PUSH0 PUSH2 0xB33 DUP5 PUSH0 ADD MLOAD PUSH2 0xB2E PUSH1 0x28 PUSH1 0x40 MLOAD DUP1 PUSH1 0x40 ADD PUSH1 0x40 MSTORE SWAP1 DUP2 PUSH0 DUP3 ADD SLOAD DUP2 MSTORE PUSH1 0x20 ADD PUSH1 0x1 DUP3 ADD SLOAD DUP2 MSTORE POP POP DUP8 PUSH1 0x80 ADD MLOAD PUSH2 0x2504 JUMP JUMPDEST PUSH2 0x25D8 JUMP JUMPDEST SWAP1 POP PUSH0 PUSH2 0xBD9 PUSH1 0x4 PUSH1 0x40 MLOAD DUP1 PUSH1 0x40 ADD PUSH1 0x40 MSTORE SWAP1 DUP2 PUSH0 DUP3 ADD PUSH1 0x2 DUP1 PUSH1 0x20 MUL PUSH1 0x40 MLOAD SWAP1 DUP2 ADD PUSH1 0x40 MSTORE DUP1 SWAP3 SWAP2 SWAP1 DUP3 PUSH1 0x2 DUP1 ISZERO PUSH2 0xB81 JUMPI PUSH1 0x20 MUL DUP3 ADD SWAP2 JUMPDEST DUP2 SLOAD DUP2 MSTORE PUSH1 0x20 ADD SWAP1 PUSH1 0x1 ADD SWAP1 DUP1 DUP4 GT PUSH2 0xB6D JUMPI JUMPDEST POP POP POP POP POP DUP2 MSTORE PUSH1 0x20 ADD PUSH1 0x2 DUP3 ADD PUSH1 0x2 DUP1 PUSH1 0x20 MUL PUSH1 0x40 MLOAD SWAP1 DUP2 ADD PUSH1 0x40 MSTORE DUP1 SWAP3 SWAP2 SWAP1 DUP3 PUSH1 0x2 DUP1 ISZERO PUSH2 0xBC6 JUMPI PUSH1 0x20 MUL DUP3 ADD SWAP2 JUMPDEST DUP2 SLOAD DUP2 MSTORE PUSH1 0x20 ADD SWAP1 PUSH1 0x1 ADD SWAP1 DUP1 DUP4 GT PUSH2 0xBB2 JUMPI JUMPDEST POP POP POP POP POP DUP2 MSTORE POP POP DUP7 PUSH1 0x60 ADD MLOAD PUSH2 0x14D0 JUMP JUMPDEST SWAP1 POP PUSH0 PUSH2 0xC8A DUP7 PUSH1 0x20 ADD MLOAD PUSH2 0xC85 PUSH1 0xC PUSH1 0x40 MLOAD DUP1 PUSH1 0x40 ADD PUSH1 0x40 MSTORE SWAP1 DUP2 PUSH0 DUP3 ADD PUSH1 0x2 DUP1 PUSH1 0x20 MUL PUSH1 0x40 MLOAD SWAP1 DUP2 ADD PUSH1 0x40 MSTORE DUP1 SWAP3 SWAP2 SWAP1 DUP3 PUSH1 0x2 DUP1 ISZERO PUSH2 0xC2F JUMPI PUSH1 0x20 MUL DUP3 ADD SWAP2 JUMPDEST DUP2 SLOAD DUP2 MSTORE PUSH1 0x20 ADD SWAP1 PUSH1 0x1 ADD SWAP1 DUP1 DUP4 GT PUSH2 0xC1B JUMPI JUMPDEST POP POP POP POP POP DUP2 MSTORE PUSH1 0x20 ADD PUSH1 0x2 DUP3 ADD PUSH1 0x2 DUP1 PUSH1 0x20 MUL PUSH1 0x40 MLOAD SWAP1 DUP2 ADD PUSH1 0x40 MSTORE DUP1 SWAP3 SWAP2 SWAP1 DUP3 PUSH1 0x2 DUP1 ISZERO PUSH2 0xC74 JUMPI PUSH1 0x20 MUL DUP3 ADD SWAP2 JUMPDEST DUP2 SLOAD DUP2 MSTORE PUSH1 0x20 ADD SWAP1 PUSH1 0x1 ADD SWAP1 DUP1 DUP4 GT PUSH2 0xC60 JUMPI JUMPDEST POP POP POP POP POP DUP2 MSTORE POP POP PUSH1 0x14 SLOAD PUSH2 0x14D0 JUMP JUMPDEST PUSH2 0x2AFF JUMP JUMPDEST SWAP1 POP DUP3 PUSH0 ADD MLOAD DUP5 PUSH0 ADD MLOAD EQ DUP1 ISZERO PUSH2 0xCA8 JUMPI POP DUP3 PUSH1 0x20 ADD MLOAD DUP5 PUSH1 0x20 ADD MLOAD EQ JUMPDEST DUP1 ISZERO PUSH2 0xCE9 JUMPI POP DUP1 PUSH0 ADD MLOAD PUSH1 0x1 PUSH1 0x2 DUP2 LT PUSH2 0xCC6 JUMPI PUSH2 0xCC5 PUSH2 0x4B27 JUMP JUMPDEST JUMPDEST PUSH1 0x20 MUL ADD MLOAD DUP3 PUSH0 ADD MLOAD PUSH1 0x1 PUSH1 0x2 DUP2 LT PUSH2 0xCE2 JUMPI PUSH2 0xCE1 PUSH2 0x4B27 JUMP JUMPDEST JUMPDEST PUSH1 0x20 MUL ADD MLOAD EQ JUMPDEST DUP1 ISZERO PUSH2 0xD29 JUMPI POP DUP1 PUSH0 ADD MLOAD PUSH0 PUSH1 0x2 DUP2 LT PUSH2 0xD06 JUMPI PUSH2 0xD05 PUSH2 0x4B27 JUMP JUMPDEST JUMPDEST PUSH1 0x20 MUL ADD MLOAD DUP3 PUSH1 0x20 ADD MLOAD PUSH0 PUSH1 0x2 DUP2 LT PUSH2 0xD22 JUMPI PUSH2 0xD21 PUSH2 0x4B27 JUMP JUMPDEST JUMPDEST PUSH1 0x20 MUL ADD MLOAD EQ JUMPDEST DUP1 ISZERO PUSH2 0xD69 JUMPI POP DUP1 PUSH0 ADD MLOAD PUSH0 PUSH1 0x2 DUP2 LT PUSH2 0xD46 JUMPI PUSH2 0xD45 PUSH2 0x4B27 JUMP JUMPDEST JUMPDEST PUSH1 0x20 MUL ADD MLOAD DUP3 PUSH1 0x20 ADD MLOAD PUSH0 PUSH1 0x2 DUP2 LT PUSH2 0xD62 JUMPI PUSH2 0xD61 PUSH2 0x4B27 JUMP JUMPDEST JUMPDEST PUSH1 0x20 MUL ADD MLOAD EQ JUMPDEST DUP1 ISZERO PUSH2 0xDAC JUMPI POP DUP1 PUSH1 0x20 ADD MLOAD PUSH1 0x1 PUSH1 0x2 DUP2 LT PUSH2 0xD88 JUMPI PUSH2 0xD87 PUSH2 0x4B27 JUMP JUMPDEST JUMPDEST PUSH1 0x20 MUL ADD MLOAD DUP3 PUSH1 0x20 ADD MLOAD PUSH1 0x1 PUSH1 0x2 DUP2 LT PUSH2 0xDA5 JUMPI PUSH2 0xDA4 PUSH2 0x4B27 JUMP JUMPDEST JUMPDEST PUSH1 0x20 MUL ADD MLOAD EQ JUMPDEST DUP1 ISZERO PUSH2 0xE6B JUMPI POP PUSH2 0xE62 PUSH2 0xDBE PUSH2 0x2ADB JUMP JUMPDEST PUSH1 0x4 PUSH1 0x40 MLOAD DUP1 PUSH1 0x40 ADD PUSH1 0x40 MSTORE SWAP1 DUP2 PUSH0 DUP3 ADD PUSH1 0x2 DUP1 PUSH1 0x20 MUL PUSH1 0x40 MLOAD SWAP1 DUP2 ADD PUSH1 0x40 MSTORE DUP1 SWAP3 SWAP2 SWAP1 DUP3 PUSH1 0x2 DUP1 ISZERO PUSH2 0xE06 JUMPI PUSH1 0x20 MUL DUP3 ADD SWAP2 JUMPDEST DUP2 SLOAD DUP2 MSTORE PUSH1 0x20 ADD SWAP1 PUSH1 0x1 ADD SWAP1 DUP1 DUP4 GT PUSH2 0xDF2 JUMPI JUMPDEST POP POP POP POP POP DUP2 MSTORE PUSH1 0x20 ADD PUSH1 0x2 DUP3 ADD PUSH1 0x2 DUP1 PUSH1 0x20 MUL PUSH1 0x40 MLOAD SWAP1 DUP2 ADD PUSH1 0x40 MSTORE DUP1 SWAP3 SWAP2 SWAP1 DUP3 PUSH1 0x2 DUP1 ISZERO PUSH2 0xE4B JUMPI PUSH1 0x20 MUL DUP3 ADD SWAP2 JUMPDEST DUP2 SLOAD DUP2 MSTORE PUSH1 0x20 ADD SWAP1 PUSH1 0x1 ADD SWAP1 DUP1 DUP4 GT PUSH2 0xE37 JUMPI JUMPDEST POP POP POP POP POP DUP2 MSTORE POP POP DUP9 PUSH0 ADD MLOAD DUP10 PUSH1 0x20 ADD MLOAD PUSH2 0x13A2 JUMP JUMPDEST PUSH0 SHR DUP7 PUSH1 0x80 ADD MLOAD EQ JUMPDEST ISZERO PUSH2 0xE7D JUMPI PUSH1 0x1 SWAP5 POP POP POP POP POP PUSH2 0xE85 JUMP JUMPDEST PUSH0 SWAP5 POP POP POP POP POP JUMPDEST SWAP2 SWAP1 POP JUMP JUMPDEST PUSH0 DUP1 PUSH2 0xEA7 DUP4 PUSH2 0x280 ADD MLOAD DUP5 PUSH0 ADD MLOAD PUSH1 0x11 SLOAD DUP7 PUSH2 0x140 ADD MLOAD PUSH2 0x1D42 JUMP JUMPDEST DUP1 ISZERO PUSH2 0xECB JUMPI POP PUSH2 0xECA DUP4 PUSH2 0x2A0 ADD MLOAD DUP5 PUSH1 0x20 ADD MLOAD PUSH1 0x11 SLOAD DUP7 PUSH2 0x160 ADD MLOAD PUSH2 0x1D42 JUMP JUMPDEST JUMPDEST DUP1 ISZERO PUSH2 0xEEF JUMPI POP PUSH2 0xEEE DUP4 PUSH2 0x2A0 ADD MLOAD DUP5 PUSH1 0x40 ADD MLOAD PUSH1 0x10 SLOAD DUP7 PUSH2 0x180 ADD MLOAD PUSH2 0x1D42 JUMP JUMPDEST JUMPDEST DUP1 ISZERO PUSH2 0xF13 JUMPI POP PUSH2 0xF12 DUP4 PUSH2 0x2C0 ADD MLOAD DUP5 PUSH1 0x60 ADD MLOAD PUSH1 0x11 SLOAD DUP7 PUSH2 0x1A0 ADD MLOAD PUSH2 0x1D42 JUMP JUMPDEST JUMPDEST DUP1 ISZERO PUSH2 0xF51 JUMPI POP PUSH2 0xF50 PUSH1 0x20 PUSH1 0x40 MLOAD DUP1 PUSH1 0x40 ADD PUSH1 0x40 MSTORE SWAP1 DUP2 PUSH0 DUP3 ADD SLOAD DUP2 MSTORE PUSH1 0x20 ADD PUSH1 0x1 DUP3 ADD SLOAD DUP2 MSTORE POP POP DUP5 PUSH1 0x80 ADD MLOAD PUSH1 0x12 SLOAD DUP7 PUSH2 0x1C0 ADD MLOAD PUSH2 0x1D42 JUMP JUMPDEST JUMPDEST DUP1 ISZERO PUSH2 0xF75 JUMPI POP PUSH2 0xF74 DUP4 PUSH2 0x2E0 ADD MLOAD DUP5 PUSH1 0xA0 ADD MLOAD PUSH1 0x11 SLOAD DUP7 PUSH2 0x1E0 ADD MLOAD PUSH2 0x1D42 JUMP JUMPDEST JUMPDEST DUP1 ISZERO PUSH2 0xF98 JUMPI POP PUSH2 0xF97 DUP4 PUSH2 0x2E0 ADD MLOAD DUP5 PUSH1 0xC0 ADD MLOAD PUSH1 0x1 DUP7 PUSH2 0x200 ADD MLOAD PUSH2 0x1D42 JUMP JUMPDEST JUMPDEST DUP1 ISZERO PUSH2 0xFD6 JUMPI POP PUSH2 0xFD5 PUSH1 0x22 PUSH1 0x40 MLOAD DUP1 PUSH1 0x40 ADD PUSH1 0x40 MSTORE SWAP1 DUP2 PUSH0 DUP3 ADD SLOAD DUP2 MSTORE PUSH1 0x20 ADD PUSH1 0x1 DUP3 ADD SLOAD DUP2 MSTORE POP POP DUP5 PUSH1 0xE0 ADD MLOAD PUSH1 0x12 SLOAD DUP7 PUSH2 0x220 ADD MLOAD PUSH2 0x1D42 JUMP JUMPDEST JUMPDEST DUP1 ISZERO PUSH2 0x10B8 JUMPI POP PUSH32 0x30644E72E131A029B85045B68181585D2833E84879B9709143E1F593F0000001 DUP1 PUSH2 0x100C JUMPI PUSH2 0x100B PUSH2 0x4E1A JUMP JUMPDEST JUMPDEST DUP4 PUSH2 0x1C0 ADD MLOAD PUSH32 0x30644E72E131A029B85045B68181585D2833E84879B9709143E1F593F0000001 PUSH2 0x103D SWAP2 SWAP1 PUSH2 0x4E74 JUMP JUMPDEST PUSH32 0x30644E72E131A029B85045B68181585D2833E84879B9709143E1F593F0000001 DUP1 PUSH2 0x106C JUMPI PUSH2 0x106B PUSH2 0x4E1A JUMP JUMPDEST JUMPDEST PUSH32 0x30644E72E131A029B85045B68181585D2833E84879B9709143E1F593F0000001 DUP1 PUSH2 0x109B JUMPI PUSH2 0x109A PUSH2 0x4E1A JUMP JUMPDEST JUMPDEST DUP7 PUSH2 0x1E0 ADD MLOAD DUP8 PUSH2 0x180 ADD MLOAD ADDMOD DUP7 PUSH2 0x160 ADD MLOAD MULMOD ADDMOD DUP4 PUSH2 0x1A0 ADD MLOAD EQ JUMPDEST DUP1 ISZERO PUSH2 0x10CD JUMPI POP DUP3 PUSH2 0x220 ADD MLOAD DUP4 PUSH2 0x200 ADD MLOAD EQ JUMPDEST SWAP1 POP PUSH0 JUMPDEST PUSH1 0x2E SLOAD DUP2 LT ISZERO PUSH2 0x114F JUMPI DUP2 DUP1 ISZERO PUSH2 0x1101 JUMPI POP PUSH2 0x1100 DUP5 PUSH2 0x320 ADD MLOAD DUP6 PUSH2 0x120 ADD MLOAD PUSH1 0x11 SLOAD DUP8 PUSH2 0x260 ADD MLOAD PUSH2 0x1D42 JUMP JUMPDEST JUMPDEST DUP1 ISZERO PUSH2 0x1140 JUMPI POP PUSH2 0x113F PUSH1 0x26 PUSH1 0x40 MLOAD DUP1 PUSH1 0x40 ADD PUSH1 0x40 MSTORE SWAP1 DUP2 PUSH0 DUP3 ADD SLOAD DUP2 MSTORE PUSH1 0x20 ADD PUSH1 0x1 DUP3 ADD SLOAD DUP2 MSTORE POP POP DUP6 PUSH2 0x100 ADD MLOAD PUSH1 0x11 SLOAD DUP8 PUSH2 0x240 ADD MLOAD PUSH2 0x1D42 JUMP JUMPDEST JUMPDEST SWAP2 POP DUP1 DUP1 PUSH1 0x1 ADD SWAP2 POP POP PUSH2 0x10D1 JUMP JUMPDEST POP PUSH0 PUSH32 0x30644E72E131A029B85045B68181585D2833E84879B9709143E1F593F0000001 DUP1 PUSH2 0x1180 JUMPI PUSH2 0x117F PUSH2 0x4E1A JUMP JUMPDEST JUMPDEST PUSH1 0x19 SLOAD PUSH1 0x15 SLOAD ADDMOD SWAP1 POP PUSH0 PUSH2 0x11B7 PUSH1 0x11 SLOAD DUP4 PUSH32 0x30644E72E131A029B85045B68181585D2833E84879B9709143E1F593F0000001 PUSH2 0x31C9 JUMP JUMPDEST SWAP1 POP PUSH0 DUP1 PUSH32 0x30644E72E131A029B85045B68181585D2833E84879B9709143E1F593F0000001 DUP1 PUSH2 0x11EA JUMPI PUSH2 0x11E9 PUSH2 0x4E1A JUMP JUMPDEST JUMPDEST PUSH32 0x30644E72E131A029B85045B68181585D2833E84879B9709143E1F593F0000001 DUP1 PUSH2 0x1219 JUMPI PUSH2 0x1218 PUSH2 0x4E1A JUMP JUMPDEST JUMPDEST PUSH32 0x30644E72E131A029B85045B68181585D2833E84879B9709143E1F593F0000001 DUP1 PUSH2 0x1248 JUMPI PUSH2 0x1247 PUSH2 0x4E1A JUMP JUMPDEST JUMPDEST PUSH1 0x1E SLOAD PUSH1 0x1A SLOAD ADDMOD PUSH1 0x19 SLOAD ADDMOD PUSH1 0x15 SLOAD ADDMOD SWAP1 POP PUSH0 PUSH2 0x1287 PUSH1 0x11 SLOAD DUP4 PUSH32 0x30644E72E131A029B85045B68181585D2833E84879B9709143E1F593F0000001 PUSH2 0x31C9 JUMP JUMPDEST SWAP1 POP PUSH0 DUP1 PUSH0 SWAP1 POP JUMPDEST PUSH1 0x2E SLOAD DUP2 LT ISZERO PUSH2 0x1318 JUMPI PUSH32 0x30644E72E131A029B85045B68181585D2833E84879B9709143E1F593F0000001 DUP1 PUSH2 0x12C8 JUMPI PUSH2 0x12C7 PUSH2 0x4E1A JUMP JUMPDEST JUMPDEST DUP7 DUP12 PUSH2 0x240 ADD MLOAD MULMOD SWAP5 POP PUSH32 0x30644E72E131A029B85045B68181585D2833E84879B9709143E1F593F0000001 DUP1 PUSH2 0x1301 JUMPI PUSH2 0x1300 PUSH2 0x4E1A JUMP JUMPDEST JUMPDEST DUP4 DUP12 PUSH2 0x260 ADD MLOAD MULMOD SWAP2 POP DUP1 DUP1 PUSH1 0x1 ADD SWAP2 POP POP PUSH2 0x128F JUMP JUMPDEST POP DUP7 DUP1 ISZERO PUSH2 0x1391 JUMPI POP PUSH32 0x30644E72E131A029B85045B68181585D2833E84879B9709143E1F593F0000001 DUP1 PUSH2 0x1350 JUMPI PUSH2 0x134F PUSH2 0x4E1A JUMP JUMPDEST JUMPDEST PUSH32 0x30644E72E131A029B85045B68181585D2833E84879B9709143E1F593F0000001 DUP1 PUSH2 0x137F JUMPI PUSH2 0x137E PUSH2 0x4E1A JUMP JUMPDEST JUMPDEST DUP3 DUP7 ADDMOD DUP11 PUSH2 0x140 ADD MLOAD ADDMOD DUP10 PUSH2 0x160 ADD MLOAD EQ JUMPDEST SWAP7 POP DUP7 SWAP8 POP POP POP POP POP POP POP POP SWAP2 SWAP1 POP JUMP JUMPDEST PUSH0 DUP5 PUSH0 ADD MLOAD DUP6 PUSH1 0x20 ADD MLOAD DUP6 PUSH0 ADD MLOAD PUSH0 PUSH1 0x2 DUP2 LT PUSH2 0x13C2 JUMPI PUSH2 0x13C1 PUSH2 0x4B27 JUMP JUMPDEST JUMPDEST PUSH1 0x20 MUL ADD MLOAD DUP7 PUSH0 ADD MLOAD PUSH1 0x1 PUSH1 0x2 DUP2 LT PUSH2 0x13DE JUMPI PUSH2 0x13DD PUSH2 0x4B27 JUMP JUMPDEST JUMPDEST PUSH1 0x20 MUL ADD MLOAD DUP8 PUSH1 0x20 ADD MLOAD PUSH0 PUSH1 0x2 DUP2 LT PUSH2 0x13FA JUMPI PUSH2 0x13F9 PUSH2 0x4B27 JUMP JUMPDEST JUMPDEST PUSH1 0x20 MUL ADD MLOAD DUP9 PUSH1 0x20 ADD MLOAD PUSH1 0x1 PUSH1 0x2 DUP2 LT PUSH2 0x1417 JUMPI PUSH2 0x1416 PUSH2 0x4B27 JUMP JUMPDEST JUMPDEST PUSH1 0x20 MUL ADD MLOAD DUP9 PUSH0 ADD MLOAD DUP10 PUSH1 0x20 ADD MLOAD DUP10 PUSH0 ADD MLOAD PUSH0 PUSH1 0x2 DUP2 LT PUSH2 0x143B JUMPI PUSH2 0x143A PUSH2 0x4B27 JUMP JUMPDEST JUMPDEST PUSH1 0x20 MUL ADD MLOAD DUP11 PUSH0 ADD MLOAD PUSH1 0x1 PUSH1 0x2 DUP2 LT PUSH2 0x1457 JUMPI PUSH2 0x1456 PUSH2 0x4B27 JUMP JUMPDEST JUMPDEST PUSH1 0x20 MUL ADD MLOAD DUP12 PUSH1 0x20 ADD MLOAD PUSH0 PUSH1 0x2 DUP2 LT PUSH2 0x1473 JUMPI PUSH2 0x1472 PUSH2 0x4B27 JUMP JUMPDEST JUMPDEST PUSH1 0x20 MUL ADD MLOAD DUP13 PUSH1 0x20 ADD MLOAD PUSH1 0x1 PUSH1 0x2 DUP2 LT PUSH2 0x1490 JUMPI PUSH2 0x148F PUSH2 0x4B27 JUMP JUMPDEST JUMPDEST PUSH1 0x20 MUL ADD MLOAD PUSH1 0x40 MLOAD PUSH1 0x20 ADD PUSH2 0x14B0 SWAP13 SWAP12 SWAP11 SWAP10 SWAP9 SWAP8 SWAP7 SWAP6 SWAP5 SWAP4 SWAP3 SWAP2 SWAP1 PUSH2 0x4EA7 JUMP JUMPDEST PUSH1 0x40 MLOAD PUSH1 0x20 DUP2 DUP4 SUB SUB DUP2 MSTORE SWAP1 PUSH1 0x40 MSTORE DUP1 MLOAD SWAP1 PUSH1 0x20 ADD KECCAK256 SWAP1 POP SWAP5 SWAP4 POP POP POP POP JUMP JUMPDEST PUSH2 0x14D8 PUSH2 0x3A75 JUMP JUMPDEST PUSH0 PUSH1 0x40 MLOAD DUP1 PUSH1 0x40 ADD PUSH1 0x40 MSTORE DUP1 PUSH1 0x40 MLOAD DUP1 PUSH1 0x40 ADD PUSH1 0x40 MSTORE DUP1 PUSH0 DUP2 MSTORE PUSH1 0x20 ADD PUSH0 DUP2 MSTORE POP DUP2 MSTORE PUSH1 0x20 ADD PUSH1 0x40 MLOAD DUP1 PUSH1 0x40 ADD PUSH1 0x40 MSTORE DUP1 PUSH0 DUP2 MSTORE PUSH1 0x20 ADD PUSH0 DUP2 MSTORE POP DUP2 MSTORE POP SWAP1 POP JUMPDEST PUSH0 DUP4 GT ISZERO PUSH2 0x1561 JUMPI PUSH1 0x1 PUSH1 0x2 DUP5 PUSH2 0x1530 SWAP2 SWAP1 PUSH2 0x4F7C JUMP JUMPDEST SUB PUSH2 0x1542 JUMPI PUSH2 0x153F DUP2 DUP6 PUSH2 0x2AFF JUMP JUMPDEST SWAP1 POP JUMPDEST PUSH1 0x2 DUP4 PUSH2 0x154F SWAP2 SWAP1 PUSH2 0x4FAC JUMP JUMPDEST SWAP3 POP PUSH2 0x155A DUP5 PUSH2 0x32BA JUMP JUMPDEST SWAP4 POP PUSH2 0x1519 JUMP JUMPDEST DUP1 SWAP2 POP POP SWAP3 SWAP2 POP POP JUMP JUMPDEST PUSH0 DUP1 PUSH1 0x1F SLOAD TIMESTAMP LT DUP1 ISZERO PUSH2 0x1590 JUMPI POP PUSH2 0x158F DUP4 PUSH2 0x3E0 ADD MLOAD DUP5 PUSH2 0x400 ADD MLOAD PUSH1 0x1 PUSH2 0x280 JUMP JUMPDEST JUMPDEST DUP1 ISZERO PUSH2 0x15A4 JUMPI POP PUSH2 0x15A3 DUP4 PUSH0 ADD MLOAD PUSH2 0xAE0 JUMP JUMPDEST JUMPDEST DUP1 ISZERO PUSH2 0x15C8 JUMPI POP PUSH2 0x15C7 DUP4 PUSH2 0x360 ADD MLOAD DUP5 PUSH1 0x20 ADD MLOAD PUSH1 0x11 SLOAD DUP7 PUSH2 0x1C0 ADD MLOAD PUSH2 0x1D42 JUMP JUMPDEST JUMPDEST DUP1 ISZERO PUSH2 0x15EC JUMPI POP PUSH2 0x15EB DUP4 PUSH2 0x380 ADD MLOAD DUP5 PUSH1 0x40 ADD MLOAD PUSH1 0x11 SLOAD DUP7 PUSH2 0x1E0 ADD MLOAD PUSH2 0x1D42 JUMP JUMPDEST JUMPDEST DUP1 ISZERO PUSH2 0x1610 JUMPI POP PUSH2 0x160F DUP4 PUSH2 0x380 ADD MLOAD DUP5 PUSH1 0x60 ADD MLOAD PUSH1 0x10 SLOAD DUP7 PUSH2 0x200 ADD MLOAD PUSH2 0x1D42 JUMP JUMPDEST JUMPDEST DUP1 ISZERO PUSH2 0x1634 JUMPI POP PUSH2 0x1633 DUP4 PUSH2 0x3A0 ADD MLOAD DUP5 PUSH1 0x80 ADD MLOAD PUSH1 0x11 SLOAD DUP7 PUSH2 0x220 ADD MLOAD PUSH2 0x1D42 JUMP JUMPDEST JUMPDEST DUP1 ISZERO PUSH2 0x1672 JUMPI POP PUSH2 0x1671 PUSH1 0x20 PUSH1 0x40 MLOAD DUP1 PUSH1 0x40 ADD PUSH1 0x40 MSTORE SWAP1 DUP2 PUSH0 DUP3 ADD SLOAD DUP2 MSTORE PUSH1 0x20 ADD PUSH1 0x1 DUP3 ADD SLOAD DUP2 MSTORE POP POP DUP5 PUSH1 0xA0 ADD MLOAD PUSH1 0x12 SLOAD DUP7 PUSH2 0x240 ADD MLOAD PUSH2 0x1D42 JUMP JUMPDEST JUMPDEST DUP1 ISZERO PUSH2 0x1696 JUMPI POP PUSH2 0x1695 DUP4 PUSH2 0x3C0 ADD MLOAD DUP5 PUSH1 0xC0 ADD MLOAD PUSH1 0x11 SLOAD DUP7 PUSH2 0x260 ADD MLOAD PUSH2 0x1D42 JUMP JUMPDEST JUMPDEST DUP1 ISZERO PUSH2 0x16B9 JUMPI POP PUSH2 0x16B8 DUP4 PUSH2 0x3C0 ADD MLOAD DUP5 PUSH1 0xE0 ADD MLOAD PUSH1 0x1 DUP7 PUSH2 0x280 ADD MLOAD PUSH2 0x1D42 JUMP JUMPDEST JUMPDEST DUP1 ISZERO PUSH2 0x16F8 JUMPI POP PUSH2 0x16F7 PUSH1 0x22 PUSH1 0x40 MLOAD DUP1 PUSH1 0x40 ADD PUSH1 0x40 MSTORE SWAP1 DUP2 PUSH0 DUP3 ADD SLOAD DUP2 MSTORE PUSH1 0x20 ADD PUSH1 0x1 DUP3 ADD SLOAD DUP2 MSTORE POP POP DUP5 PUSH2 0x100 ADD MLOAD PUSH1 0x12 SLOAD DUP7 PUSH2 0x2A0 ADD MLOAD PUSH2 0x1D42 JUMP JUMPDEST JUMPDEST DUP1 ISZERO PUSH2 0x171D JUMPI POP PUSH2 0x171C DUP4 PUSH2 0x3E0 ADD MLOAD DUP5 PUSH2 0x160 ADD MLOAD PUSH1 0x13 SLOAD DUP7 PUSH2 0x300 ADD MLOAD PUSH2 0x1D42 JUMP JUMPDEST JUMPDEST DUP1 ISZERO PUSH2 0x175C JUMPI POP PUSH2 0x175B PUSH1 0x26 PUSH1 0x40 MLOAD DUP1 PUSH1 0x40 ADD PUSH1 0x40 MSTORE SWAP1 DUP2 PUSH0 DUP3 ADD SLOAD DUP2 MSTORE PUSH1 0x20 ADD PUSH1 0x1 DUP3 ADD SLOAD DUP2 MSTORE POP POP DUP5 PUSH2 0x120 ADD MLOAD PUSH1 0x11 SLOAD DUP7 PUSH2 0x2C0 ADD MLOAD PUSH2 0x1D42 JUMP JUMPDEST JUMPDEST DUP1 ISZERO PUSH2 0x179B JUMPI POP PUSH2 0x179A PUSH1 0x24 PUSH1 0x40 MLOAD DUP1 PUSH1 0x40 ADD PUSH1 0x40 MSTORE SWAP1 DUP2 PUSH0 DUP3 ADD SLOAD DUP2 MSTORE PUSH1 0x20 ADD PUSH1 0x1 DUP3 ADD SLOAD DUP2 MSTORE POP POP DUP5 PUSH2 0x140 ADD MLOAD PUSH1 0x11 SLOAD DUP7 PUSH2 0x2E0 ADD MLOAD PUSH2 0x1D42 JUMP JUMPDEST JUMPDEST DUP1 ISZERO PUSH2 0x17C0 JUMPI POP PUSH2 0x17BF DUP4 PUSH2 0x3E0 ADD MLOAD DUP5 PUSH2 0x180 ADD MLOAD PUSH1 0x11 SLOAD DUP7 PUSH2 0x320 ADD MLOAD PUSH2 0x1D42 JUMP JUMPDEST JUMPDEST DUP1 ISZERO PUSH2 0x17E2 JUMPI POP PUSH2 0x17DB DUP4 PUSH2 0x380 ADD MLOAD DUP5 PUSH2 0x360 ADD MLOAD PUSH2 0x3D9 JUMP JUMPDEST PUSH0 SHR PUSH1 0x12 SLOAD EQ JUMPDEST DUP1 ISZERO PUSH2 0x18C4 JUMPI POP PUSH32 0x30644E72E131A029B85045B68181585D2833E84879B9709143E1F593F0000001 DUP1 PUSH2 0x1818 JUMPI PUSH2 0x1817 PUSH2 0x4E1A JUMP JUMPDEST JUMPDEST DUP4 PUSH2 0x240 ADD MLOAD PUSH32 0x30644E72E131A029B85045B68181585D2833E84879B9709143E1F593F0000001 PUSH2 0x1849 SWAP2 SWAP1 PUSH2 0x4E74 JUMP JUMPDEST PUSH32 0x30644E72E131A029B85045B68181585D2833E84879B9709143E1F593F0000001 DUP1 PUSH2 0x1878 JUMPI PUSH2 0x1877 PUSH2 0x4E1A JUMP JUMPDEST JUMPDEST PUSH32 0x30644E72E131A029B85045B68181585D2833E84879B9709143E1F593F0000001 DUP1 PUSH2 0x18A7 JUMPI PUSH2 0x18A6 PUSH2 0x4E1A JUMP JUMPDEST JUMPDEST DUP7 PUSH2 0x260 ADD MLOAD DUP8 PUSH2 0x200 ADD MLOAD ADDMOD DUP7 PUSH2 0x1E0 ADD MLOAD MULMOD ADDMOD DUP4 PUSH2 0x220 ADD MLOAD EQ JUMPDEST DUP1 ISZERO PUSH2 0x18D9 JUMPI POP DUP3 PUSH2 0x2A0 ADD MLOAD DUP4 PUSH2 0x280 ADD MLOAD EQ JUMPDEST DUP1 ISZERO PUSH2 0x1907 JUMPI POP PUSH2 0x1900 DUP4 PUSH2 0x380 ADD MLOAD DUP5 PUSH2 0x360 ADD MLOAD DUP6 PUSH2 0x3A0 ADD MLOAD DUP7 PUSH2 0x3C0 ADD MLOAD PUSH2 0x41D JUMP JUMPDEST PUSH0 SHR PUSH1 0x11 SLOAD EQ JUMPDEST SWAP1 POP PUSH0 PUSH32 0x30644E72E131A029B85045B68181585D2833E84879B9709143E1F593F0000001 DUP1 PUSH2 0x1939 JUMPI PUSH2 0x1938 PUSH2 0x4E1A JUMP JUMPDEST JUMPDEST PUSH1 0x19 SLOAD PUSH1 0x15 SLOAD ADDMOD SWAP1 POP PUSH0 PUSH2 0x1970 PUSH1 0x11 SLOAD DUP4 PUSH32 0x30644E72E131A029B85045B68181585D2833E84879B9709143E1F593F0000001 PUSH2 0x31C9 JUMP JUMPDEST SWAP1 POP PUSH0 PUSH32 0x30644E72E131A029B85045B68181585D2833E84879B9709143E1F593F0000001 DUP1 PUSH2 0x19A2 JUMPI PUSH2 0x19A1 PUSH2 0x4E1A JUMP JUMPDEST JUMPDEST PUSH32 0x30644E72E131A029B85045B68181585D2833E84879B9709143E1F593F0000001 DUP1 PUSH2 0x19D1 JUMPI PUSH2 0x19D0 PUSH2 0x4E1A JUMP JUMPDEST JUMPDEST PUSH1 0x1A SLOAD PUSH1 0x19 SLOAD ADDMOD PUSH1 0x15 SLOAD ADDMOD SWAP1 POP PUSH0 PUSH2 0x1A0C PUSH1 0x11 SLOAD DUP4 PUSH32 0x30644E72E131A029B85045B68181585D2833E84879B9709143E1F593F0000001 PUSH2 0x31C9 JUMP JUMPDEST SWAP1 POP PUSH0 PUSH32 0x30644E72E131A029B85045B68181585D2833E84879B9709143E1F593F0000001 DUP1 PUSH2 0x1A3E JUMPI PUSH2 0x1A3D PUSH2 0x4E1A JUMP JUMPDEST JUMPDEST PUSH32 0x30644E72E131A029B85045B68181585D2833E84879B9709143E1F593F0000001 DUP1 PUSH2 0x1A6D JUMPI PUSH2 0x1A6C PUSH2 0x4E1A JUMP JUMPDEST JUMPDEST PUSH32 0x30644E72E131A029B85045B68181585D2833E84879B9709143E1F593F0000001 DUP1 PUSH2 0x1A9C JUMPI PUSH2 0x1A9B PUSH2 0x4E1A JUMP JUMPDEST JUMPDEST PUSH1 0x1E SLOAD PUSH1 0x1A SLOAD ADDMOD PUSH1 0x19 SLOAD ADDMOD PUSH1 0x15 SLOAD ADDMOD SWAP1 POP PUSH0 PUSH2 0x1ADB PUSH1 0x11 SLOAD DUP4 PUSH32 0x30644E72E131A029B85045B68181585D2833E84879B9709143E1F593F0000001 PUSH2 0x31C9 JUMP JUMPDEST SWAP1 POP PUSH0 PUSH32 0x30644E72E131A029B85045B68181585D2833E84879B9709143E1F593F0000001 DUP1 PUSH2 0x1B0D JUMPI PUSH2 0x1B0C PUSH2 0x4E1A JUMP JUMPDEST JUMPDEST DUP7 DUP12 PUSH2 0x2C0 ADD MLOAD MULMOD SWAP1 POP PUSH0 PUSH32 0x30644E72E131A029B85045B68181585D2833E84879B9709143E1F593F0000001 DUP1 PUSH2 0x1B47 JUMPI PUSH2 0x1B46 PUSH2 0x4E1A JUMP JUMPDEST JUMPDEST DUP6 DUP13 PUSH2 0x2E0 ADD MLOAD MULMOD SWAP1 POP PUSH0 PUSH32 0x30644E72E131A029B85045B68181585D2833E84879B9709143E1F593F0000001 DUP1 PUSH2 0x1B81 JUMPI PUSH2 0x1B80 PUSH2 0x4E1A JUMP JUMPDEST JUMPDEST DUP5 DUP14 PUSH2 0x320 ADD MLOAD MULMOD SWAP1 POP DUP10 DUP1 ISZERO PUSH2 0x1C34 JUMPI POP PUSH32 0x30644E72E131A029B85045B68181585D2833E84879B9709143E1F593F0000001 DUP1 PUSH2 0x1BC2 JUMPI PUSH2 0x1BC1 PUSH2 0x4E1A JUMP JUMPDEST JUMPDEST PUSH32 0x30644E72E131A029B85045B68181585D2833E84879B9709143E1F593F0000001 DUP1 PUSH2 0x1BF1 JUMPI PUSH2 0x1BF0 PUSH2 0x4E1A JUMP JUMPDEST JUMPDEST PUSH32 0x30644E72E131A029B85045B68181585D2833E84879B9709143E1F593F0000001 DUP1 PUSH2 0x1C20 JUMPI PUSH2 0x1C1F PUSH2 0x4E1A JUMP JUMPDEST JUMPDEST DUP4 DUP6 ADDMOD DUP6 MULMOD DUP14 PUSH2 0x1C0 ADD MLOAD ADDMOD DUP13 PUSH2 0x1E0 ADD MLOAD EQ JUMPDEST DUP1 ISZERO PUSH2 0x1D2E JUMPI POP PUSH2 0x1D2D PUSH1 0x40 MLOAD DUP1 PUSH1 0xA0 ADD PUSH1 0x40 MSTORE DUP1 DUP15 PUSH2 0x3E0 ADD MLOAD DUP2 MSTORE PUSH1 0x20 ADD DUP15 PUSH2 0x1A0 ADD MLOAD DUP2 MSTORE PUSH1 0x20 ADD PUSH1 0x2A PUSH1 0x40 MLOAD DUP1 PUSH1 0x40 ADD PUSH1 0x40 MSTORE SWAP1 DUP2 PUSH0 DUP3 ADD PUSH1 0x2 DUP1 PUSH1 0x20 MUL PUSH1 0x40 MLOAD SWAP1 DUP2 ADD PUSH1 0x40 MSTORE DUP1 SWAP3 SWAP2 SWAP1 DUP3 PUSH1 0x2 DUP1 ISZERO PUSH2 0x1CA7 JUMPI PUSH1 0x20 MUL DUP3 ADD SWAP2 JUMPDEST DUP2 SLOAD DUP2 MSTORE PUSH1 0x20 ADD SWAP1 PUSH1 0x1 ADD SWAP1 DUP1 DUP4 GT PUSH2 0x1C93 JUMPI JUMPDEST POP POP POP POP POP DUP2 MSTORE PUSH1 0x20 ADD PUSH1 0x2 DUP3 ADD PUSH1 0x2 DUP1 PUSH1 0x20 MUL PUSH1 0x40 MLOAD SWAP1 DUP2 ADD PUSH1 0x40 MSTORE DUP1 SWAP3 SWAP2 SWAP1 DUP3 PUSH1 0x2 DUP1 ISZERO PUSH2 0x1CEC JUMPI PUSH1 0x20 MUL DUP3 ADD SWAP2 JUMPDEST DUP2 SLOAD DUP2 MSTORE PUSH1 0x20 ADD SWAP1 PUSH1 0x1 ADD SWAP1 DUP1 DUP4 GT PUSH2 0x1CD8 JUMPI JUMPDEST POP POP POP POP POP DUP2 MSTORE POP POP DUP2 MSTORE PUSH1 0x20 ADD PUSH1 0x28 PUSH1 0x40 MLOAD DUP1 PUSH1 0x40 ADD PUSH1 0x40 MSTORE SWAP1 DUP2 PUSH0 DUP3 ADD SLOAD DUP2 MSTORE PUSH1 0x20 ADD PUSH1 0x1 DUP3 ADD SLOAD DUP2 MSTORE POP POP DUP2 MSTORE PUSH1 0x20 ADD DUP15 PUSH2 0x340 ADD MLOAD DUP2 MSTORE POP PUSH2 0x479 JUMP JUMPDEST JUMPDEST SWAP10 POP DUP10 SWAP11 POP POP POP POP POP POP POP POP POP POP POP SWAP2 SWAP1 POP JUMP JUMPDEST PUSH0 PUSH32 0x30644E72E131A029B85045B68181585D2833E84879B9709143E1F593F0000001 DUP6 PUSH0 ADD MLOAD LT PUSH2 0x1DA8 JUMPI PUSH1 0x40 MLOAD PUSH32 0x8C379A000000000000000000000000000000000000000000000000000000000 DUP2 MSTORE PUSH1 0x4 ADD PUSH2 0x1D9F SWAP1 PUSH2 0x495F JUMP JUMPDEST PUSH1 0x40 MLOAD DUP1 SWAP2 SUB SWAP1 REVERT JUMPDEST PUSH32 0x30644E72E131A029B85045B68181585D2833E84879B9709143E1F593F0000001 DUP6 PUSH1 0x20 ADD MLOAD LT PUSH2 0x1E0E JUMPI PUSH1 0x40 MLOAD PUSH32 0x8C379A000000000000000000000000000000000000000000000000000000000 DUP2 MSTORE PUSH1 0x4 ADD PUSH2 0x1E05 SWAP1 PUSH2 0x49ED JUMP JUMPDEST PUSH1 0x40 MLOAD DUP1 SWAP2 SUB SWAP1 REVERT JUMPDEST PUSH32 0x30644E72E131A029B85045B68181585D2833E84879B9709143E1F593F0000001 DUP5 PUSH0 ADD MLOAD LT PUSH2 0x1E73 JUMPI PUSH1 0x40 MLOAD PUSH32 0x8C379A000000000000000000000000000000000000000000000000000000000 DUP2 MSTORE PUSH1 0x4 ADD PUSH2 0x1E6A SWAP1 PUSH2 0x4A7B JUMP JUMPDEST PUSH1 0x40 MLOAD DUP1 SWAP2 SUB SWAP1 REVERT JUMPDEST PUSH32 0x30644E72E131A029B85045B68181585D2833E84879B9709143E1F593F0000001 DUP5 PUSH1 0x20 ADD MLOAD LT PUSH2 0x1ED9 JUMPI PUSH1 0x40 MLOAD PUSH32 0x8C379A000000000000000000000000000000000000000000000000000000000 DUP2 MSTORE PUSH1 0x4 ADD PUSH2 0x1ED0 SWAP1 PUSH2 0x4B09 JUMP JUMPDEST PUSH1 0x40 MLOAD DUP1 SWAP2 SUB SWAP1 REVERT JUMPDEST PUSH32 0x30644E72E131A029B85045B68181585D2833E84879B9709143E1F593F0000001 DUP4 LT PUSH2 0x1F3B JUMPI PUSH1 0x40 MLOAD PUSH32 0x8C379A000000000000000000000000000000000000000000000000000000000 DUP2 MSTORE PUSH1 0x4 ADD PUSH2 0x1F32 SWAP1 PUSH2 0x504C JUMP JUMPDEST PUSH1 0x40 MLOAD DUP1 SWAP2 SUB SWAP1 REVERT JUMPDEST PUSH32 0x30644E72E131A029B85045B68181585D2833E84879B9709143E1F593F0000001 DUP3 LT PUSH2 0x1F9D JUMPI PUSH1 0x40 MLOAD PUSH32 0x8C379A000000000000000000000000000000000000000000000000000000000 DUP2 MSTORE PUSH1 0x4 ADD PUSH2 0x1F94 SWAP1 PUSH2 0x4DFC JUMP JUMPDEST PUSH1 0x40 MLOAD DUP1 SWAP2 SUB SWAP1 REVERT JUMPDEST PUSH0 PUSH2 0x1FB0 PUSH2 0x1FAB DUP7 DUP7 PUSH2 0x2504 JUMP JUMPDEST PUSH2 0x26D1 JUMP JUMPDEST SWAP1 POP PUSH0 PUSH2 0x1FCD PUSH2 0x1FC7 PUSH2 0x1FC1 PUSH2 0x2ADB JUMP JUMPDEST DUP7 PUSH2 0x2504 JUMP JUMPDEST DUP4 PUSH2 0x25D8 JUMP JUMPDEST SWAP1 POP PUSH2 0x21A3 DUP7 PUSH1 0xC PUSH1 0x40 MLOAD DUP1 PUSH1 0x40 ADD PUSH1 0x40 MSTORE SWAP1 DUP2 PUSH0 DUP3 ADD PUSH1 0x2 DUP1 PUSH1 0x20 MUL PUSH1 0x40 MLOAD SWAP1 DUP2 ADD PUSH1 0x40 MSTORE DUP1 SWAP3 SWAP2 SWAP1 DUP3 PUSH1 0x2 DUP1 ISZERO PUSH2 0x201B JUMPI PUSH1 0x20 MUL DUP3 ADD SWAP2 JUMPDEST DUP2 SLOAD DUP2 MSTORE PUSH1 0x20 ADD SWAP1 PUSH1 0x1 ADD SWAP1 DUP1 DUP4 GT PUSH2 0x2007 JUMPI JUMPDEST POP POP POP POP POP DUP2 MSTORE PUSH1 0x20 ADD PUSH1 0x2 DUP3 ADD PUSH1 0x2 DUP1 PUSH1 0x20 MUL PUSH1 0x40 MLOAD SWAP1 DUP2 ADD PUSH1 0x40 MSTORE DUP1 SWAP3 SWAP2 SWAP1 DUP3 PUSH1 0x2 DUP1 ISZERO PUSH2 0x2060 JUMPI PUSH1 0x20 MUL DUP3 ADD SWAP2 JUMPDEST DUP2 SLOAD DUP2 MSTORE PUSH1 0x20 ADD SWAP1 PUSH1 0x1 ADD SWAP1 DUP1 DUP4 GT PUSH2 0x204C JUMPI JUMPDEST POP POP POP POP POP DUP2 MSTORE POP POP DUP4 PUSH1 0x4 PUSH1 0x40 MLOAD DUP1 PUSH1 0x40 ADD PUSH1 0x40 MSTORE SWAP1 DUP2 PUSH0 DUP3 ADD PUSH1 0x2 DUP1 PUSH1 0x20 MUL PUSH1 0x40 MLOAD SWAP1 DUP2 ADD PUSH1 0x40 MSTORE DUP1 SWAP3 SWAP2 SWAP1 DUP3 PUSH1 0x2 DUP1 ISZERO PUSH2 0x20B2 JUMPI PUSH1 0x20 MUL DUP3 ADD SWAP2 JUMPDEST DUP2 SLOAD DUP2 MSTORE PUSH1 0x20 ADD SWAP1 PUSH1 0x1 ADD SWAP1 DUP1 DUP4 GT PUSH2 0x209E JUMPI JUMPDEST POP POP POP POP POP DUP2 MSTORE PUSH1 0x20 ADD PUSH1 0x2 DUP3 ADD PUSH1 0x2 DUP1 PUSH1 0x20 MUL PUSH1 0x40 MLOAD SWAP1 DUP2 ADD PUSH1 0x40 MSTORE DUP1 SWAP3 SWAP2 SWAP1 DUP3 PUSH1 0x2 DUP1 ISZERO PUSH2 0x20F7 JUMPI PUSH1 0x20 MUL DUP3 ADD SWAP2 JUMPDEST DUP2 SLOAD DUP2 MSTORE PUSH1 0x20 ADD SWAP1 PUSH1 0x1 ADD SWAP1 DUP1 DUP4 GT PUSH2 0x20E3 JUMPI JUMPDEST POP POP POP POP POP DUP2 MSTORE POP POP PUSH2 0x2109 DUP13 PUSH2 0x26D1 JUMP JUMPDEST PUSH0 PUSH1 0x40 MLOAD DUP1 PUSH1 0x40 ADD PUSH1 0x40 MSTORE SWAP1 DUP2 PUSH0 DUP3 ADD PUSH1 0x2 DUP1 PUSH1 0x20 MUL PUSH1 0x40 MLOAD SWAP1 DUP2 ADD PUSH1 0x40 MSTORE DUP1 SWAP3 SWAP2 SWAP1 DUP3 PUSH1 0x2 DUP1 ISZERO PUSH2 0x2150 JUMPI PUSH1 0x20 MUL DUP3 ADD SWAP2 JUMPDEST DUP2 SLOAD DUP2 MSTORE PUSH1 0x20 ADD SWAP1 PUSH1 0x1 ADD SWAP1 DUP1 DUP4 GT PUSH2 0x213C JUMPI JUMPDEST POP POP POP POP POP DUP2 MSTORE PUSH1 0x20 ADD PUSH1 0x2 DUP3 ADD PUSH1 0x2 DUP1 PUSH1 0x20 MUL PUSH1 0x40 MLOAD SWAP1 DUP2 ADD PUSH1 0x40 MSTORE DUP1 SWAP3 SWAP2 SWAP1 DUP3 PUSH1 0x2 DUP1 ISZERO PUSH2 0x2195 JUMPI PUSH1 0x20 MUL DUP3 ADD SWAP2 JUMPDEST DUP2 SLOAD DUP2 MSTORE PUSH1 0x20 ADD SWAP1 PUSH1 0x1 ADD SWAP1 DUP1 DUP4 GT PUSH2 0x2181 JUMPI JUMPDEST POP POP POP POP POP DUP2 MSTORE POP POP PUSH2 0x2789 JUMP JUMPDEST SWAP3 POP POP POP SWAP5 SWAP4 POP POP POP POP JUMP JUMPDEST PUSH0 DUP1 PUSH1 0xC SWAP1 POP PUSH0 DUP2 PUSH8 0xFFFFFFFFFFFFFFFF DUP2 GT ISZERO PUSH2 0x21D0 JUMPI PUSH2 0x21CF PUSH2 0x3B8A JUMP JUMPDEST JUMPDEST PUSH1 0x40 MLOAD SWAP1 DUP1 DUP3 MSTORE DUP1 PUSH1 0x20 MUL PUSH1 0x20 ADD DUP3 ADD PUSH1 0x40 MSTORE DUP1 ISZERO PUSH2 0x21FE JUMPI DUP2 PUSH1 0x20 ADD PUSH1 0x20 DUP3 MUL DUP1 CALLDATASIZE DUP4 CALLDATACOPY DUP1 DUP3 ADD SWAP2 POP POP SWAP1 POP JUMPDEST POP SWAP1 POP DUP7 PUSH0 ADD MLOAD DUP2 PUSH0 DUP2 MLOAD DUP2 LT PUSH2 0x2218 JUMPI PUSH2 0x2217 PUSH2 0x4B27 JUMP JUMPDEST JUMPDEST PUSH1 0x20 MUL PUSH1 0x20 ADD ADD DUP2 DUP2 MSTORE POP POP DUP7 PUSH1 0x20 ADD MLOAD DUP2 PUSH1 0x1 DUP2 MLOAD DUP2 LT PUSH2 0x223D JUMPI PUSH2 0x223C PUSH2 0x4B27 JUMP JUMPDEST JUMPDEST PUSH1 0x20 MUL PUSH1 0x20 ADD ADD DUP2 DUP2 MSTORE POP POP DUP6 PUSH0 ADD MLOAD PUSH0 PUSH1 0x2 DUP2 LT PUSH2 0x225F JUMPI PUSH2 0x225E PUSH2 0x4B27 JUMP JUMPDEST JUMPDEST PUSH1 0x20 MUL ADD MLOAD DUP2 PUSH1 0x2 DUP2 MLOAD DUP2 LT PUSH2 0x2278 JUMPI PUSH2 0x2277 PUSH2 0x4B27 JUMP JUMPDEST JUMPDEST PUSH1 0x20 MUL PUSH1 0x20 ADD ADD DUP2 DUP2 MSTORE POP POP DUP6 PUSH0 ADD MLOAD PUSH1 0x1 PUSH1 0x2 DUP2 LT PUSH2 0x229B JUMPI PUSH2 0x229A PUSH2 0x4B27 JUMP JUMPDEST JUMPDEST PUSH1 0x20 MUL ADD MLOAD DUP2 PUSH1 0x3 DUP2 MLOAD DUP2 LT PUSH2 0x22B4 JUMPI PUSH2 0x22B3 PUSH2 0x4B27 JUMP JUMPDEST JUMPDEST PUSH1 0x20 MUL PUSH1 0x20 ADD ADD DUP2 DUP2 MSTORE POP POP DUP6 PUSH1 0x20 ADD MLOAD PUSH0 PUSH1 0x2 DUP2 LT PUSH2 0x22D7 JUMPI PUSH2 0x22D6 PUSH2 0x4B27 JUMP JUMPDEST JUMPDEST PUSH1 0x20 MUL ADD MLOAD DUP2 PUSH1 0x4 DUP2 MLOAD DUP2 LT PUSH2 0x22F0 JUMPI PUSH2 0x22EF PUSH2 0x4B27 JUMP JUMPDEST JUMPDEST PUSH1 0x20 MUL PUSH1 0x20 ADD ADD DUP2 DUP2 MSTORE POP POP DUP6 PUSH1 0x20 ADD MLOAD PUSH1 0x1 PUSH1 0x2 DUP2 LT PUSH2 0x2314 JUMPI PUSH2 0x2313 PUSH2 0x4B27 JUMP JUMPDEST JUMPDEST PUSH1 0x20 MUL ADD MLOAD DUP2 PUSH1 0x5 DUP2 MLOAD DUP2 LT PUSH2 0x232D JUMPI PUSH2 0x232C PUSH2 0x4B27 JUMP JUMPDEST JUMPDEST PUSH1 0x20 MUL PUSH1 0x20 ADD ADD DUP2 DUP2 MSTORE POP POP DUP5 PUSH0 ADD MLOAD DUP2 PUSH1 0x6 DUP2 MLOAD DUP2 LT PUSH2 0x2351 JUMPI PUSH2 0x2350 PUSH2 0x4B27 JUMP JUMPDEST JUMPDEST PUSH1 0x20 MUL PUSH1 0x20 ADD ADD DUP2 DUP2 MSTORE POP POP DUP5 PUSH1 0x20 ADD MLOAD DUP2 PUSH1 0x7 DUP2 MLOAD DUP2 LT PUSH2 0x2376 JUMPI PUSH2 0x2375 PUSH2 0x4B27 JUMP JUMPDEST JUMPDEST PUSH1 0x20 MUL PUSH1 0x20 ADD ADD DUP2 DUP2 MSTORE POP POP DUP4 PUSH0 ADD MLOAD PUSH0 PUSH1 0x2 DUP2 LT PUSH2 0x2398 JUMPI PUSH2 0x2397 PUSH2 0x4B27 JUMP JUMPDEST JUMPDEST PUSH1 0x20 MUL ADD MLOAD DUP2 PUSH1 0x8 DUP2 MLOAD DUP2 LT PUSH2 0x23B1 JUMPI PUSH2 0x23B0 PUSH2 0x4B27 JUMP JUMPDEST JUMPDEST PUSH1 0x20 MUL PUSH1 0x20 ADD ADD DUP2 DUP2 MSTORE POP POP DUP4 PUSH0 ADD MLOAD PUSH1 0x1 PUSH1 0x2 DUP2 LT PUSH2 0x23D4 JUMPI PUSH2 0x23D3 PUSH2 0x4B27 JUMP JUMPDEST JUMPDEST PUSH1 0x20 MUL ADD MLOAD DUP2 PUSH1 0x9 DUP2 MLOAD DUP2 LT PUSH2 0x23ED JUMPI PUSH2 0x23EC PUSH2 0x4B27 JUMP JUMPDEST JUMPDEST PUSH1 0x20 MUL PUSH1 0x20 ADD ADD DUP2 DUP2 MSTORE POP POP DUP4 PUSH1 0x20 ADD MLOAD PUSH0 PUSH1 0x2 DUP2 LT PUSH2 0x2410 JUMPI PUSH2 0x240F PUSH2 0x4B27 JUMP JUMPDEST JUMPDEST PUSH1 0x20 MUL ADD MLOAD DUP2 PUSH1 0xA DUP2 MLOAD DUP2 LT PUSH2 0x2429 JUMPI PUSH2 0x2428 PUSH2 0x4B27 JUMP JUMPDEST JUMPDEST PUSH1 0x20 MUL PUSH1 0x20 ADD ADD DUP2 DUP2 MSTORE POP POP DUP4 PUSH1 0x20 ADD MLOAD PUSH1 0x1 PUSH1 0x2 DUP2 LT PUSH2 0x244D JUMPI PUSH2 0x244C PUSH2 0x4B27 JUMP JUMPDEST JUMPDEST PUSH1 0x20 MUL ADD MLOAD DUP2 PUSH1 0xB DUP2 MLOAD DUP2 LT PUSH2 0x2466 JUMPI PUSH2 0x2465 PUSH2 0x4B27 JUMP JUMPDEST JUMPDEST PUSH1 0x20 MUL PUSH1 0x20 ADD ADD DUP2 DUP2 MSTORE POP POP PUSH2 0x247A PUSH2 0x3A9B JUMP JUMPDEST PUSH0 PUSH1 0x20 DUP3 PUSH1 0x20 DUP7 MUL PUSH1 0x20 DUP7 ADD PUSH1 0x8 PUSH2 0x7D0 GAS SUB STATICCALL SWAP1 POP DUP1 PUSH0 DUP2 SUB PUSH2 0x249A JUMPI INVALID JUMPDEST POP DUP1 PUSH2 0x24DB JUMPI PUSH1 0x40 MLOAD PUSH32 0x8C379A000000000000000000000000000000000000000000000000000000000 DUP2 MSTORE PUSH1 0x4 ADD PUSH2 0x24D2 SWAP1 PUSH2 0x50B4 JUMP JUMPDEST PUSH1 0x40 MLOAD DUP1 SWAP2 SUB SWAP1 REVERT JUMPDEST PUSH0 DUP3 PUSH0 PUSH1 0x1 DUP2 LT PUSH2 0x24EF JUMPI PUSH2 0x24EE PUSH2 0x4B27 JUMP JUMPDEST JUMPDEST PUSH1 0x20 MUL ADD MLOAD EQ ISZERO SWAP5 POP POP POP POP POP SWAP5 SWAP4 POP POP POP POP JUMP JUMPDEST PUSH2 0x250C PUSH2 0x3ABD JUMP JUMPDEST PUSH2 0x2514 PUSH2 0x3AD5 JUMP JUMPDEST DUP4 PUSH0 ADD MLOAD DUP2 PUSH0 PUSH1 0x3 DUP2 LT PUSH2 0x252B JUMPI PUSH2 0x252A PUSH2 0x4B27 JUMP JUMPDEST JUMPDEST PUSH1 0x20 MUL ADD DUP2 DUP2 MSTORE POP POP DUP4 PUSH1 0x20 ADD MLOAD DUP2 PUSH1 0x1 PUSH1 0x3 DUP2 LT PUSH2 0x254D JUMPI PUSH2 0x254C PUSH2 0x4B27 JUMP JUMPDEST JUMPDEST PUSH1 0x20 MUL ADD DUP2 DUP2 MSTORE POP POP DUP3 DUP2 PUSH1 0x2 PUSH1 0x3 DUP2 LT PUSH2 0x256B JUMPI PUSH2 0x256A PUSH2 0x4B27 JUMP JUMPDEST JUMPDEST PUSH1 0x20 MUL ADD DUP2 DUP2 MSTORE POP POP PUSH0 PUSH1 0x60 DUP4 PUSH1 0x80 DUP5 PUSH1 0x7 PUSH2 0x7D0 GAS SUB STATICCALL SWAP1 POP DUP1 PUSH0 DUP2 SUB PUSH2 0x258F JUMPI INVALID JUMPDEST POP DUP1 PUSH2 0x25D0 JUMPI PUSH1 0x40 MLOAD PUSH32 0x8C379A000000000000000000000000000000000000000000000000000000000 DUP2 MSTORE PUSH1 0x4 ADD PUSH2 0x25C7 SWAP1 PUSH2 0x511C JUMP JUMPDEST PUSH1 0x40 MLOAD DUP1 SWAP2 SUB SWAP1 REVERT JUMPDEST POP POP SWAP3 SWAP2 POP POP JUMP JUMPDEST PUSH2 0x25E0 PUSH2 0x3ABD JUMP JUMPDEST PUSH2 0x25E8 PUSH2 0x3AF7 JUMP JUMPDEST DUP4 PUSH0 ADD MLOAD DUP2 PUSH0 PUSH1 0x4 DUP2 LT PUSH2 0x25FF JUMPI PUSH2 0x25FE PUSH2 0x4B27 JUMP JUMPDEST JUMPDEST PUSH1 0x20 MUL ADD DUP2 DUP2 MSTORE POP POP DUP4 PUSH1 0x20 ADD MLOAD DUP2 PUSH1 0x1 PUSH1 0x4 DUP2 LT PUSH2 0x2621 JUMPI PUSH2 0x2620 PUSH2 0x4B27 JUMP JUMPDEST JUMPDEST PUSH1 0x20 MUL ADD DUP2 DUP2 MSTORE POP POP DUP3 PUSH0 ADD MLOAD DUP2 PUSH1 0x2 PUSH1 0x4 DUP2 LT PUSH2 0x2642 JUMPI PUSH2 0x2641 PUSH2 0x4B27 JUMP JUMPDEST JUMPDEST PUSH1 0x20 MUL ADD DUP2 DUP2 MSTORE POP POP DUP3 PUSH1 0x20 ADD MLOAD DUP2 PUSH1 0x3 PUSH1 0x4 DUP2 LT PUSH2 0x2664 JUMPI PUSH2 0x2663 PUSH2 0x4B27 JUMP JUMPDEST JUMPDEST PUSH1 0x20 MUL ADD DUP2 DUP2 MSTORE POP POP PUSH0 PUSH1 0x60 DUP4 PUSH1 0xC0 DUP5 PUSH1 0x6 PUSH2 0x7D0 GAS SUB STATICCALL SWAP1 POP DUP1 PUSH0 DUP2 SUB PUSH2 0x2688 JUMPI INVALID JUMPDEST POP DUP1 PUSH2 0x26C9 JUMPI PUSH1 0x40 MLOAD PUSH32 0x8C379A000000000000000000000000000000000000000000000000000000000 DUP2 MSTORE PUSH1 0x4 ADD PUSH2 0x26C0 SWAP1 PUSH2 0x5184 JUMP JUMPDEST PUSH1 0x40 MLOAD DUP1 SWAP2 SUB SWAP1 REVERT JUMPDEST POP POP SWAP3 SWAP2 POP POP JUMP JUMPDEST PUSH2 0x26D9 PUSH2 0x3ABD JUMP JUMPDEST PUSH0 DUP3 PUSH0 ADD MLOAD EQ DUP1 ISZERO PUSH2 0x26EE JUMPI POP PUSH0 DUP3 PUSH1 0x20 ADD MLOAD EQ JUMPDEST ISZERO PUSH2 0x270F JUMPI PUSH1 0x40 MLOAD DUP1 PUSH1 0x40 ADD PUSH1 0x40 MSTORE DUP1 PUSH0 DUP2 MSTORE PUSH1 0x20 ADD PUSH0 DUP2 MSTORE POP SWAP1 POP PUSH2 0x2784 JUMP JUMPDEST PUSH1 0x40 MLOAD DUP1 PUSH1 0x40 ADD PUSH1 0x40 MSTORE DUP1 DUP4 PUSH0 ADD MLOAD DUP2 MSTORE PUSH1 0x20 ADD PUSH32 0x30644E72E131A029B85045B68181585D97816A916871CA8D3C208C16D87CFD47 DUP5 PUSH1 0x20 ADD MLOAD PUSH2 0x2753 SWAP2 SWAP1 PUSH2 0x4F7C JUMP JUMPDEST PUSH32 0x30644E72E131A029B85045B68181585D97816A916871CA8D3C208C16D87CFD47 PUSH2 0x277E SWAP2 SWAP1 PUSH2 0x4E74 JUMP JUMPDEST DUP2 MSTORE POP SWAP1 POP JUMPDEST SWAP2 SWAP1 POP JUMP JUMPDEST PUSH0 DUP1 PUSH1 0x40 MLOAD DUP1 PUSH1 0x60 ADD PUSH1 0x40 MSTORE DUP1 DUP10 DUP2 MSTORE PUSH1 0x20 ADD DUP8 DUP2 MSTORE PUSH1 0x20 ADD DUP6 DUP2 MSTORE POP SWAP1 POP PUSH0 PUSH1 0x40 MLOAD DUP1 PUSH1 0x60 ADD PUSH1 0x40 MSTORE DUP1 DUP10 DUP2 MSTORE PUSH1 0x20 ADD DUP8 DUP2 MSTORE PUSH1 0x20 ADD DUP6 DUP2 MSTORE POP SWAP1 POP PUSH0 PUSH1 0x12 SWAP1 POP PUSH0 DUP2 PUSH8 0xFFFFFFFFFFFFFFFF DUP2 GT ISZERO PUSH2 0x27E6 JUMPI PUSH2 0x27E5 PUSH2 0x3B8A JUMP JUMPDEST JUMPDEST PUSH1 0x40 MLOAD SWAP1 DUP1 DUP3 MSTORE DUP1 PUSH1 0x20 MUL PUSH1 0x20 ADD DUP3 ADD PUSH1 0x40 MSTORE DUP1 ISZERO PUSH2 0x2814 JUMPI DUP2 PUSH1 0x20 ADD PUSH1 0x20 DUP3 MUL DUP1 CALLDATASIZE DUP4 CALLDATACOPY DUP1 DUP3 ADD SWAP2 POP POP SWAP1 POP JUMPDEST POP SWAP1 POP PUSH0 JUMPDEST PUSH1 0x3 DUP2 LT ISZERO PUSH2 0x2A44 JUMPI PUSH0 PUSH1 0x6 DUP3 PUSH2 0x2830 SWAP2 SWAP1 PUSH2 0x51A2 JUMP JUMPDEST SWAP1 POP DUP6 DUP3 PUSH1 0x3 DUP2 LT PUSH2 0x2845 JUMPI PUSH2 0x2844 PUSH2 0x4B27 JUMP JUMPDEST JUMPDEST PUSH1 0x20 MUL ADD MLOAD PUSH0 ADD MLOAD DUP4 PUSH0 DUP4 PUSH2 0x285A SWAP2 SWAP1 PUSH2 0x51E3 JUMP JUMPDEST DUP2 MLOAD DUP2 LT PUSH2 0x286B JUMPI PUSH2 0x286A PUSH2 0x4B27 JUMP JUMPDEST JUMPDEST PUSH1 0x20 MUL PUSH1 0x20 ADD ADD DUP2 DUP2 MSTORE POP POP DUP6 DUP3 PUSH1 0x3 DUP2 LT PUSH2 0x288A JUMPI PUSH2 0x2889 PUSH2 0x4B27 JUMP JUMPDEST JUMPDEST PUSH1 0x20 MUL ADD MLOAD PUSH1 0x20 ADD MLOAD DUP4 PUSH1 0x1 DUP4 PUSH2 0x28A1 SWAP2 SWAP1 PUSH2 0x51E3 JUMP JUMPDEST DUP2 MLOAD DUP2 LT PUSH2 0x28B2 JUMPI PUSH2 0x28B1 PUSH2 0x4B27 JUMP JUMPDEST JUMPDEST PUSH1 0x20 MUL PUSH1 0x20 ADD ADD DUP2 DUP2 MSTORE POP POP DUP5 DUP3 PUSH1 0x3 DUP2 LT PUSH2 0x28D1 JUMPI PUSH2 0x28D0 PUSH2 0x4B27 JUMP JUMPDEST JUMPDEST PUSH1 0x20 MUL ADD MLOAD PUSH0 ADD MLOAD PUSH0 PUSH1 0x2 DUP2 LT PUSH2 0x28EB JUMPI PUSH2 0x28EA PUSH2 0x4B27 JUMP JUMPDEST JUMPDEST PUSH1 0x20 MUL ADD MLOAD DUP4 PUSH1 0x2 DUP4 PUSH2 0x28FE SWAP2 SWAP1 PUSH2 0x51E3 JUMP JUMPDEST DUP2 MLOAD DUP2 LT PUSH2 0x290F JUMPI PUSH2 0x290E PUSH2 0x4B27 JUMP JUMPDEST JUMPDEST PUSH1 0x20 MUL PUSH1 0x20 ADD ADD DUP2 DUP2 MSTORE POP POP DUP5 DUP3 PUSH1 0x3 DUP2 LT PUSH2 0x292E JUMPI PUSH2 0x292D PUSH2 0x4B27 JUMP JUMPDEST JUMPDEST PUSH1 0x20 MUL ADD MLOAD PUSH0 ADD MLOAD PUSH1 0x1 PUSH1 0x2 DUP2 LT PUSH2 0x2949 JUMPI PUSH2 0x2948 PUSH2 0x4B27 JUMP JUMPDEST JUMPDEST PUSH1 0x20 MUL ADD MLOAD DUP4 PUSH1 0x3 DUP4 PUSH2 0x295C SWAP2 SWAP1 PUSH2 0x51E3 JUMP JUMPDEST DUP2 MLOAD DUP2 LT PUSH2 0x296D JUMPI PUSH2 0x296C PUSH2 0x4B27 JUMP JUMPDEST JUMPDEST PUSH1 0x20 MUL PUSH1 0x20 ADD ADD DUP2 DUP2 MSTORE POP POP DUP5 DUP3 PUSH1 0x3 DUP2 LT PUSH2 0x298C JUMPI PUSH2 0x298B PUSH2 0x4B27 JUMP JUMPDEST JUMPDEST PUSH1 0x20 MUL ADD MLOAD PUSH1 0x20 ADD MLOAD PUSH0 PUSH1 0x2 DUP2 LT PUSH2 0x29A7 JUMPI PUSH2 0x29A6 PUSH2 0x4B27 JUMP JUMPDEST JUMPDEST PUSH1 0x20 MUL ADD MLOAD DUP4 PUSH1 0x4 DUP4 PUSH2 0x29BA SWAP2 SWAP1 PUSH2 0x51E3 JUMP JUMPDEST DUP2 MLOAD DUP2 LT PUSH2 0x29CB JUMPI PUSH2 0x29CA PUSH2 0x4B27 JUMP JUMPDEST JUMPDEST PUSH1 0x20 MUL PUSH1 0x20 ADD ADD DUP2 DUP2 MSTORE POP POP DUP5 DUP3 PUSH1 0x3 DUP2 LT PUSH2 0x29EA JUMPI PUSH2 0x29E9 PUSH2 0x4B27 JUMP JUMPDEST JUMPDEST PUSH1 0x20 MUL ADD MLOAD PUSH1 0x20 ADD MLOAD PUSH1 0x1 PUSH1 0x2 DUP2 LT PUSH2 0x2A06 JUMPI PUSH2 0x2A05 PUSH2 0x4B27 JUMP JUMPDEST JUMPDEST PUSH1 0x20 MUL ADD MLOAD DUP4 PUSH1 0x5 DUP4 PUSH2 0x2A19 SWAP2 SWAP1 PUSH2 0x51E3 JUMP JUMPDEST DUP2 MLOAD DUP2 LT PUSH2 0x2A2A JUMPI PUSH2 0x2A29 PUSH2 0x4B27 JUMP JUMPDEST JUMPDEST PUSH1 0x20 MUL PUSH1 0x20 ADD ADD DUP2 DUP2 MSTORE POP POP POP DUP1 DUP1 PUSH1 0x1 ADD SWAP2 POP POP PUSH2 0x2819 JUMP JUMPDEST POP PUSH2 0x2A4D PUSH2 0x3A9B JUMP JUMPDEST PUSH0 PUSH1 0x20 DUP3 PUSH1 0x20 DUP7 MUL PUSH1 0x20 DUP7 ADD PUSH1 0x8 PUSH2 0x7D0 GAS SUB STATICCALL SWAP1 POP DUP1 PUSH0 DUP2 SUB PUSH2 0x2A6D JUMPI INVALID JUMPDEST POP DUP1 PUSH2 0x2AAE JUMPI PUSH1 0x40 MLOAD PUSH32 0x8C379A000000000000000000000000000000000000000000000000000000000 DUP2 MSTORE PUSH1 0x4 ADD PUSH2 0x2AA5 SWAP1 PUSH2 0x50B4 JUMP JUMPDEST PUSH1 0x40 MLOAD DUP1 SWAP2 SUB SWAP1 REVERT JUMPDEST PUSH0 DUP3 PUSH0 PUSH1 0x1 DUP2 LT PUSH2 0x2AC2 JUMPI PUSH2 0x2AC1 PUSH2 0x4B27 JUMP JUMPDEST JUMPDEST PUSH1 0x20 MUL ADD MLOAD EQ ISZERO SWAP7 POP POP POP POP POP POP POP SWAP7 SWAP6 POP POP POP POP POP POP JUMP JUMPDEST PUSH2 0x2AE3 PUSH2 0x3ABD JUMP JUMPDEST PUSH1 0x40 MLOAD DUP1 PUSH1 0x40 ADD PUSH1 0x40 MSTORE DUP1 PUSH1 0x1 DUP2 MSTORE PUSH1 0x20 ADD PUSH1 0x2 DUP2 MSTORE POP SWAP1 POP SWAP1 JUMP JUMPDEST PUSH2 0x2B07 PUSH2 0x3A75 JUMP JUMPDEST PUSH0 DUP4 PUSH0 ADD MLOAD PUSH0 PUSH1 0x2 DUP2 LT PUSH2 0x2B1E JUMPI PUSH2 0x2B1D PUSH2 0x4B27 JUMP JUMPDEST JUMPDEST PUSH1 0x20 MUL ADD MLOAD EQ DUP1 ISZERO PUSH2 0x2B4A JUMPI POP PUSH0 DUP4 PUSH0 ADD MLOAD PUSH1 0x1 PUSH1 0x2 DUP2 LT PUSH2 0x2B43 JUMPI PUSH2 0x2B42 PUSH2 0x4B27 JUMP JUMPDEST JUMPDEST PUSH1 0x20 MUL ADD MLOAD EQ JUMPDEST DUP1 ISZERO PUSH2 0x2B70 JUMPI POP PUSH0 DUP4 PUSH1 0x20 ADD MLOAD PUSH0 PUSH1 0x2 DUP2 LT PUSH2 0x2B69 JUMPI PUSH2 0x2B68 PUSH2 0x4B27 JUMP JUMPDEST JUMPDEST PUSH1 0x20 MUL ADD MLOAD EQ JUMPDEST DUP1 ISZERO PUSH2 0x2B97 JUMPI POP PUSH0 DUP4 PUSH1 0x20 ADD MLOAD PUSH1 0x1 PUSH1 0x2 DUP2 LT PUSH2 0x2B90 JUMPI PUSH2 0x2B8F PUSH2 0x4B27 JUMP JUMPDEST JUMPDEST PUSH1 0x20 MUL ADD MLOAD EQ JUMPDEST ISZERO PUSH2 0x2BA4 JUMPI DUP2 SWAP1 POP PUSH2 0x31C3 JUMP JUMPDEST PUSH0 DUP3 PUSH0 ADD MLOAD PUSH0 PUSH1 0x2 DUP2 LT PUSH2 0x2BBB JUMPI PUSH2 0x2BBA PUSH2 0x4B27 JUMP JUMPDEST JUMPDEST PUSH1 0x20 MUL ADD MLOAD EQ DUP1 ISZERO PUSH2 0x2BE7 JUMPI POP PUSH0 DUP3 PUSH0 ADD MLOAD PUSH1 0x1 PUSH1 0x2 DUP2 LT PUSH2 0x2BE0 JUMPI PUSH2 0x2BDF PUSH2 0x4B27 JUMP JUMPDEST JUMPDEST PUSH1 0x20 MUL ADD MLOAD EQ JUMPDEST DUP1 ISZERO PUSH2 0x2C0D JUMPI POP PUSH0 DUP3 PUSH1 0x20 ADD MLOAD PUSH0 PUSH1 0x2 DUP2 LT PUSH2 0x2C06 JUMPI PUSH2 0x2C05 PUSH2 0x4B27 JUMP JUMPDEST JUMPDEST PUSH1 0x20 MUL ADD MLOAD EQ JUMPDEST DUP1 ISZERO PUSH2 0x2C34 JUMPI POP PUSH0 DUP3 PUSH1 0x20 ADD MLOAD PUSH1 0x1 PUSH1 0x2 DUP2 LT PUSH2 0x2C2D JUMPI PUSH2 0x2C2C PUSH2 0x4B27 JUMP JUMPDEST JUMPDEST PUSH1 0x20 MUL ADD MLOAD EQ JUMPDEST ISZERO PUSH2 0x2C41 JUMPI DUP3 SWAP1 POP PUSH2 0x31C3 JUMP JUMPDEST PUSH2 0x2C49 PUSH2 0x3B19 JUMP JUMPDEST PUSH2 0x2C59 DUP5 PUSH0 ADD MLOAD DUP6 PUSH0 ADD MLOAD PUSH2 0x35FE JUMP JUMPDEST DUP2 PUSH0 PUSH1 0xC DUP2 LT PUSH2 0x2C6C JUMPI PUSH2 0x2C6B PUSH2 0x4B27 JUMP JUMPDEST JUMPDEST PUSH1 0x20 MUL ADD DUP2 SWAP1 MSTORE POP PUSH2 0x2C84 DUP4 PUSH0 ADD MLOAD DUP5 PUSH0 ADD MLOAD PUSH2 0x35FE JUMP JUMPDEST DUP2 PUSH1 0x1 PUSH1 0xC DUP2 LT PUSH2 0x2C98 JUMPI PUSH2 0x2C97 PUSH2 0x4B27 JUMP JUMPDEST JUMPDEST PUSH1 0x20 MUL ADD DUP2 SWAP1 MSTORE POP PUSH2 0x2CC6 DUP5 PUSH1 0x20 ADD MLOAD DUP3 PUSH1 0x1 PUSH1 0xC DUP2 LT PUSH2 0x2CBC JUMPI PUSH2 0x2CBB PUSH2 0x4B27 JUMP JUMPDEST JUMPDEST PUSH1 0x20 MUL ADD MLOAD PUSH2 0x35FE JUMP JUMPDEST DUP2 PUSH1 0x2 PUSH1 0xC DUP2 LT PUSH2 0x2CDA JUMPI PUSH2 0x2CD9 PUSH2 0x4B27 JUMP JUMPDEST JUMPDEST PUSH1 0x20 MUL ADD DUP2 SWAP1 MSTORE POP PUSH2 0x2D07 DUP4 PUSH1 0x20 ADD MLOAD DUP3 PUSH0 PUSH1 0xC DUP2 LT PUSH2 0x2CFD JUMPI PUSH2 0x2CFC PUSH2 0x4B27 JUMP JUMPDEST JUMPDEST PUSH1 0x20 MUL ADD MLOAD PUSH2 0x35FE JUMP JUMPDEST DUP2 PUSH1 0x3 PUSH1 0xC DUP2 LT PUSH2 0x2D1B JUMPI PUSH2 0x2D1A PUSH2 0x4B27 JUMP JUMPDEST JUMPDEST PUSH1 0x20 MUL ADD DUP2 SWAP1 MSTORE POP PUSH2 0x2D54 PUSH2 0x2D36 DUP6 PUSH0 ADD MLOAD DUP6 PUSH0 ADD MLOAD PUSH2 0x35FE JUMP JUMPDEST DUP3 PUSH1 0x1 PUSH1 0xC DUP2 LT PUSH2 0x2D4A JUMPI PUSH2 0x2D49 PUSH2 0x4B27 JUMP JUMPDEST JUMPDEST PUSH1 0x20 MUL ADD MLOAD PUSH2 0x35FE JUMP JUMPDEST DUP2 PUSH1 0x4 PUSH1 0xC DUP2 LT PUSH2 0x2D68 JUMPI PUSH2 0x2D67 PUSH2 0x4B27 JUMP JUMPDEST JUMPDEST PUSH1 0x20 MUL ADD DUP2 SWAP1 MSTORE POP PUSH2 0x2DA0 PUSH2 0x2D83 DUP5 PUSH0 ADD MLOAD DUP7 PUSH0 ADD MLOAD PUSH2 0x35FE JUMP JUMPDEST DUP3 PUSH0 PUSH1 0xC DUP2 LT PUSH2 0x2D96 JUMPI PUSH2 0x2D95 PUSH2 0x4B27 JUMP JUMPDEST JUMPDEST PUSH1 0x20 MUL ADD MLOAD PUSH2 0x35FE JUMP JUMPDEST DUP2 PUSH1 0x5 PUSH1 0xC DUP2 LT PUSH2 0x2DB4 JUMPI PUSH2 0x2DB3 PUSH2 0x4B27 JUMP JUMPDEST JUMPDEST PUSH1 0x20 MUL ADD DUP2 SWAP1 MSTORE POP PUSH2 0x2DF6 DUP2 PUSH1 0x3 PUSH1 0xC DUP2 LT PUSH2 0x2DD3 JUMPI PUSH2 0x2DD2 PUSH2 0x4B27 JUMP JUMPDEST JUMPDEST PUSH1 0x20 MUL ADD MLOAD DUP3 PUSH1 0x2 PUSH1 0xC DUP2 LT PUSH2 0x2DEC JUMPI PUSH2 0x2DEB PUSH2 0x4B27 JUMP JUMPDEST JUMPDEST PUSH1 0x20 MUL ADD MLOAD PUSH2 0x3895 JUMP JUMPDEST DUP2 PUSH1 0x6 PUSH1 0xC DUP2 LT PUSH2 0x2E0A JUMPI PUSH2 0x2E09 PUSH2 0x4B27 JUMP JUMPDEST JUMPDEST PUSH1 0x20 MUL ADD DUP2 SWAP1 MSTORE POP PUSH2 0x2E4C DUP2 PUSH1 0x6 PUSH1 0xC DUP2 LT PUSH2 0x2E29 JUMPI PUSH2 0x2E28 PUSH2 0x4B27 JUMP JUMPDEST JUMPDEST PUSH1 0x20 MUL ADD MLOAD DUP3 PUSH1 0x6 PUSH1 0xC DUP2 LT PUSH2 0x2E42 JUMPI PUSH2 0x2E41 PUSH2 0x4B27 JUMP JUMPDEST JUMPDEST PUSH1 0x20 MUL ADD MLOAD PUSH2 0x392A JUMP JUMPDEST DUP2 PUSH1 0x7 PUSH1 0xC DUP2 LT PUSH2 0x2E60 JUMPI PUSH2 0x2E5F PUSH2 0x4B27 JUMP JUMPDEST JUMPDEST PUSH1 0x20 MUL ADD DUP2 SWAP1 MSTORE POP PUSH2 0x2EA2 DUP2 PUSH1 0x7 PUSH1 0xC DUP2 LT PUSH2 0x2E7F JUMPI PUSH2 0x2E7E PUSH2 0x4B27 JUMP JUMPDEST JUMPDEST PUSH1 0x20 MUL ADD MLOAD DUP3 PUSH1 0x7 PUSH1 0xC DUP2 LT PUSH2 0x2E98 JUMPI PUSH2 0x2E97 PUSH2 0x4B27 JUMP JUMPDEST JUMPDEST PUSH1 0x20 MUL ADD MLOAD PUSH2 0x35FE JUMP JUMPDEST DUP2 PUSH1 0x7 PUSH1 0xC DUP2 LT PUSH2 0x2EB6 JUMPI PUSH2 0x2EB5 PUSH2 0x4B27 JUMP JUMPDEST JUMPDEST PUSH1 0x20 MUL ADD DUP2 SWAP1 MSTORE POP PUSH2 0x2EF8 DUP2 PUSH1 0x6 PUSH1 0xC DUP2 LT PUSH2 0x2ED5 JUMPI PUSH2 0x2ED4 PUSH2 0x4B27 JUMP JUMPDEST JUMPDEST PUSH1 0x20 MUL ADD MLOAD DUP3 PUSH1 0x7 PUSH1 0xC DUP2 LT PUSH2 0x2EEE JUMPI PUSH2 0x2EED PUSH2 0x4B27 JUMP JUMPDEST JUMPDEST PUSH1 0x20 MUL ADD MLOAD PUSH2 0x35FE JUMP JUMPDEST DUP2 PUSH1 0x8 PUSH1 0xC DUP2 LT PUSH2 0x2F0C JUMPI PUSH2 0x2F0B PUSH2 0x4B27 JUMP JUMPDEST JUMPDEST PUSH1 0x20 MUL ADD DUP2 SWAP1 MSTORE POP PUSH2 0x2F4E DUP2 PUSH1 0x5 PUSH1 0xC DUP2 LT PUSH2 0x2F2B JUMPI PUSH2 0x2F2A PUSH2 0x4B27 JUMP JUMPDEST JUMPDEST PUSH1 0x20 MUL ADD MLOAD DUP3 PUSH1 0x4 PUSH1 0xC DUP2 LT PUSH2 0x2F44 JUMPI PUSH2 0x2F43 PUSH2 0x4B27 JUMP JUMPDEST JUMPDEST PUSH1 0x20 MUL ADD MLOAD PUSH2 0x3895 JUMP JUMPDEST DUP2 PUSH1 0x9 PUSH1 0xC DUP2 LT PUSH2 0x2F62 JUMPI PUSH2 0x2F61 PUSH2 0x4B27 JUMP JUMPDEST JUMPDEST PUSH1 0x20 MUL ADD DUP2 SWAP1 MSTORE POP PUSH2 0x2FA4 DUP2 PUSH1 0x9 PUSH1 0xC DUP2 LT PUSH2 0x2F81 JUMPI PUSH2 0x2F80 PUSH2 0x4B27 JUMP JUMPDEST JUMPDEST PUSH1 0x20 MUL ADD MLOAD DUP3 PUSH1 0x9 PUSH1 0xC DUP2 LT PUSH2 0x2F9A JUMPI PUSH2 0x2F99 PUSH2 0x4B27 JUMP JUMPDEST JUMPDEST PUSH1 0x20 MUL ADD MLOAD PUSH2 0x392A JUMP JUMPDEST DUP2 PUSH1 0x9 PUSH1 0xC DUP2 LT PUSH2 0x2FB8 JUMPI PUSH2 0x2FB7 PUSH2 0x4B27 JUMP JUMPDEST JUMPDEST PUSH1 0x20 MUL ADD DUP2 SWAP1 MSTORE POP PUSH2 0x2FFA DUP2 PUSH1 0x2 PUSH1 0xC DUP2 LT PUSH2 0x2FD7 JUMPI PUSH2 0x2FD6 PUSH2 0x4B27 JUMP JUMPDEST JUMPDEST PUSH1 0x20 MUL ADD MLOAD DUP3 PUSH1 0x7 PUSH1 0xC DUP2 LT PUSH2 0x2FF0 JUMPI PUSH2 0x2FEF PUSH2 0x4B27 JUMP JUMPDEST JUMPDEST PUSH1 0x20 MUL ADD MLOAD PUSH2 0x35FE JUMP JUMPDEST DUP2 PUSH1 0xA PUSH1 0xC DUP2 LT PUSH2 0x300E JUMPI PUSH2 0x300D PUSH2 0x4B27 JUMP JUMPDEST JUMPDEST PUSH1 0x20 MUL ADD DUP2 SWAP1 MSTORE POP PUSH2 0x30B3 PUSH2 0x3074 PUSH2 0x3056 DUP4 PUSH1 0x9 PUSH1 0xC DUP2 LT PUSH2 0x3033 JUMPI PUSH2 0x3032 PUSH2 0x4B27 JUMP JUMPDEST JUMPDEST PUSH1 0x20 MUL ADD MLOAD DUP5 PUSH1 0x9 PUSH1 0xC DUP2 LT PUSH2 0x304C JUMPI PUSH2 0x304B PUSH2 0x4B27 JUMP JUMPDEST JUMPDEST PUSH1 0x20 MUL ADD MLOAD PUSH2 0x35FE JUMP JUMPDEST DUP4 PUSH1 0x8 PUSH1 0xC DUP2 LT PUSH2 0x306A JUMPI PUSH2 0x3069 PUSH2 0x4B27 JUMP JUMPDEST JUMPDEST PUSH1 0x20 MUL ADD MLOAD PUSH2 0x3895 JUMP JUMPDEST PUSH2 0x30AE DUP4 PUSH1 0xA PUSH1 0xC DUP2 LT PUSH2 0x308B JUMPI PUSH2 0x308A PUSH2 0x4B27 JUMP JUMPDEST JUMPDEST PUSH1 0x20 MUL ADD MLOAD DUP5 PUSH1 0xA PUSH1 0xC DUP2 LT PUSH2 0x30A4 JUMPI PUSH2 0x30A3 PUSH2 0x4B27 JUMP JUMPDEST JUMPDEST PUSH1 0x20 MUL ADD MLOAD PUSH2 0x392A JUMP JUMPDEST PUSH2 0x3895 JUMP JUMPDEST DUP2 PUSH1 0xB PUSH1 0xC DUP2 LT PUSH2 0x30C7 JUMPI PUSH2 0x30C6 PUSH2 0x4B27 JUMP JUMPDEST JUMPDEST PUSH1 0x20 MUL ADD DUP2 SWAP1 MSTORE POP PUSH2 0x30D7 PUSH2 0x3A75 JUMP JUMPDEST DUP2 PUSH1 0xB PUSH1 0xC DUP2 LT PUSH2 0x30EB JUMPI PUSH2 0x30EA PUSH2 0x4B27 JUMP JUMPDEST JUMPDEST PUSH1 0x20 MUL ADD MLOAD DUP2 PUSH0 ADD DUP2 SWAP1 MSTORE POP PUSH2 0x31B5 PUSH2 0x3155 DUP4 PUSH1 0x9 PUSH1 0xC DUP2 LT PUSH2 0x3111 JUMPI PUSH2 0x3110 PUSH2 0x4B27 JUMP JUMPDEST JUMPDEST PUSH1 0x20 MUL ADD MLOAD PUSH2 0x3150 DUP6 PUSH1 0xA PUSH1 0xC DUP2 LT PUSH2 0x312D JUMPI PUSH2 0x312C PUSH2 0x4B27 JUMP JUMPDEST JUMPDEST PUSH1 0x20 MUL ADD MLOAD DUP7 PUSH1 0xB PUSH1 0xC DUP2 LT PUSH2 0x3146 JUMPI PUSH2 0x3145 PUSH2 0x4B27 JUMP JUMPDEST JUMPDEST PUSH1 0x20 MUL ADD MLOAD PUSH2 0x3895 JUMP JUMPDEST PUSH2 0x35FE JUMP JUMPDEST PUSH2 0x31B0 PUSH2 0x3192 DUP6 PUSH1 0x4 PUSH1 0xC DUP2 LT PUSH2 0x316F JUMPI PUSH2 0x316E PUSH2 0x4B27 JUMP JUMPDEST JUMPDEST PUSH1 0x20 MUL ADD MLOAD DUP7 PUSH1 0x8 PUSH1 0xC DUP2 LT PUSH2 0x3188 JUMPI PUSH2 0x3187 PUSH2 0x4B27 JUMP JUMPDEST JUMPDEST PUSH1 0x20 MUL ADD MLOAD PUSH2 0x35FE JUMP JUMPDEST DUP6 PUSH1 0x4 PUSH1 0xC DUP2 LT PUSH2 0x31A6 JUMPI PUSH2 0x31A5 PUSH2 0x4B27 JUMP JUMPDEST JUMPDEST PUSH1 0x20 MUL ADD MLOAD PUSH2 0x392A JUMP JUMPDEST PUSH2 0x3895 JUMP JUMPDEST DUP2 PUSH1 0x20 ADD DUP2 SWAP1 MSTORE POP DUP1 SWAP3 POP POP POP JUMPDEST SWAP3 SWAP2 POP POP JUMP JUMPDEST PUSH0 DUP1 DUP3 SUB PUSH2 0x320C JUMPI PUSH1 0x40 MLOAD PUSH32 0x8C379A000000000000000000000000000000000000000000000000000000000 DUP2 MSTORE PUSH1 0x4 ADD PUSH2 0x3203 SWAP1 PUSH2 0x5260 JUMP JUMPDEST PUSH1 0x40 MLOAD DUP1 SWAP2 SUB SWAP1 REVERT JUMPDEST PUSH0 DUP5 SUB PUSH2 0x321B JUMPI PUSH0 SWAP1 POP PUSH2 0x32B3 JUMP JUMPDEST PUSH0 DUP4 SUB PUSH2 0x322B JUMPI PUSH1 0x1 SWAP1 POP PUSH2 0x32B3 JUMP JUMPDEST PUSH0 PUSH1 0x1 SWAP1 POP PUSH0 PUSH32 0x8000000000000000000000000000000000000000000000000000000000000000 SWAP1 POP JUMPDEST PUSH0 DUP2 GT ISZERO PUSH2 0x32AD JUMPI DUP4 DUP2 DUP7 AND ISZERO ISZERO DUP8 EXP DUP6 DUP5 DUP6 MULMOD MULMOD SWAP2 POP DUP4 PUSH1 0x2 DUP3 DIV DUP7 AND ISZERO ISZERO DUP8 EXP DUP6 DUP5 DUP6 MULMOD MULMOD SWAP2 POP DUP4 PUSH1 0x4 DUP3 DIV DUP7 AND ISZERO ISZERO DUP8 EXP DUP6 DUP5 DUP6 MULMOD MULMOD SWAP2 POP DUP4 PUSH1 0x8 DUP3 DIV DUP7 AND ISZERO ISZERO DUP8 EXP DUP6 DUP5 DUP6 MULMOD MULMOD SWAP2 POP PUSH1 0x10 DUP2 DIV SWAP1 POP PUSH2 0x3255 JUMP JUMPDEST DUP2 SWAP3 POP POP POP JUMPDEST SWAP4 SWAP3 POP POP POP JUMP JUMPDEST PUSH2 0x32C2 PUSH2 0x3A75 JUMP JUMPDEST PUSH0 DUP3 PUSH0 ADD MLOAD PUSH0 PUSH1 0x2 DUP2 LT PUSH2 0x32D9 JUMPI PUSH2 0x32D8 PUSH2 0x4B27 JUMP JUMPDEST JUMPDEST PUSH1 0x20 MUL ADD MLOAD EQ DUP1 ISZERO PUSH2 0x3305 JUMPI POP PUSH0 DUP3 PUSH0 ADD MLOAD PUSH1 0x1 PUSH1 0x2 DUP2 LT PUSH2 0x32FE JUMPI PUSH2 0x32FD PUSH2 0x4B27 JUMP JUMPDEST JUMPDEST PUSH1 0x20 MUL ADD MLOAD EQ JUMPDEST DUP1 ISZERO PUSH2 0x332B JUMPI POP PUSH0 DUP3 PUSH1 0x20 ADD MLOAD PUSH0 PUSH1 0x2 DUP2 LT PUSH2 0x3324 JUMPI PUSH2 0x3323 PUSH2 0x4B27 JUMP JUMPDEST JUMPDEST PUSH1 0x20 MUL ADD MLOAD EQ JUMPDEST DUP1 ISZERO PUSH2 0x3352 JUMPI POP PUSH0 DUP3 PUSH1 0x20 ADD MLOAD PUSH1 0x1 PUSH1 0x2 DUP2 LT PUSH2 0x334B JUMPI PUSH2 0x334A PUSH2 0x4B27 JUMP JUMPDEST JUMPDEST PUSH1 0x20 MUL ADD MLOAD EQ JUMPDEST ISZERO PUSH2 0x335F JUMPI DUP2 SWAP1 POP PUSH2 0x35F9 JUMP JUMPDEST PUSH0 PUSH2 0x3370 DUP4 PUSH0 ADD MLOAD DUP5 PUSH0 ADD MLOAD PUSH2 0x35FE JUMP JUMPDEST SWAP1 POP PUSH0 PUSH2 0x3385 DUP5 PUSH1 0x20 ADD MLOAD DUP6 PUSH1 0x20 ADD MLOAD PUSH2 0x35FE JUMP JUMPDEST SWAP1 POP PUSH0 PUSH2 0x3556 PUSH1 0x40 MLOAD DUP1 PUSH1 0x40 ADD PUSH1 0x40 MSTORE DUP1 PUSH32 0x30644E72E131A029B85045B68181585D97816A916871CA8D3C208C16D87CFD47 DUP1 PUSH2 0x33C5 JUMPI PUSH2 0x33C4 PUSH2 0x4E1A JUMP JUMPDEST JUMPDEST DUP9 PUSH1 0x20 ADD MLOAD PUSH0 PUSH1 0x2 DUP2 LT PUSH2 0x33DC JUMPI PUSH2 0x33DB PUSH2 0x4B27 JUMP JUMPDEST JUMPDEST PUSH1 0x20 MUL ADD MLOAD DUP10 PUSH0 ADD MLOAD PUSH0 PUSH1 0x2 DUP2 LT PUSH2 0x33F7 JUMPI PUSH2 0x33F6 PUSH2 0x4B27 JUMP JUMPDEST JUMPDEST PUSH1 0x20 MUL ADD MLOAD ADDMOD DUP2 MSTORE PUSH1 0x20 ADD PUSH32 0x30644E72E131A029B85045B68181585D97816A916871CA8D3C208C16D87CFD47 DUP1 PUSH2 0x3431 JUMPI PUSH2 0x3430 PUSH2 0x4E1A JUMP JUMPDEST JUMPDEST DUP9 PUSH1 0x20 ADD MLOAD PUSH1 0x1 PUSH1 0x2 DUP2 LT PUSH2 0x3449 JUMPI PUSH2 0x3448 PUSH2 0x4B27 JUMP JUMPDEST JUMPDEST PUSH1 0x20 MUL ADD MLOAD DUP10 PUSH0 ADD MLOAD PUSH1 0x1 PUSH1 0x2 DUP2 LT PUSH2 0x3465 JUMPI PUSH2 0x3464 PUSH2 0x4B27 JUMP JUMPDEST JUMPDEST PUSH1 0x20 MUL ADD MLOAD ADDMOD DUP2 MSTORE POP PUSH1 0x40 MLOAD DUP1 PUSH1 0x40 ADD PUSH1 0x40 MSTORE DUP1 PUSH32 0x30644E72E131A029B85045B68181585D97816A916871CA8D3C208C16D87CFD47 DUP1 PUSH2 0x34A8 JUMPI PUSH2 0x34A7 PUSH2 0x4E1A JUMP JUMPDEST JUMPDEST DUP10 PUSH1 0x20 ADD MLOAD PUSH0 PUSH1 0x2 DUP2 LT PUSH2 0x34BF JUMPI PUSH2 0x34BE PUSH2 0x4B27 JUMP JUMPDEST JUMPDEST PUSH1 0x20 MUL ADD MLOAD DUP11 PUSH0 ADD MLOAD PUSH0 PUSH1 0x2 DUP2 LT PUSH2 0x34DA JUMPI PUSH2 0x34D9 PUSH2 0x4B27 JUMP JUMPDEST JUMPDEST PUSH1 0x20 MUL ADD MLOAD ADDMOD DUP2 MSTORE PUSH1 0x20 ADD PUSH32 0x30644E72E131A029B85045B68181585D97816A916871CA8D3C208C16D87CFD47 DUP1 PUSH2 0x3514 JUMPI PUSH2 0x3513 PUSH2 0x4E1A JUMP JUMPDEST JUMPDEST DUP10 PUSH1 0x20 ADD MLOAD PUSH1 0x1 PUSH1 0x2 DUP2 LT PUSH2 0x352C JUMPI PUSH2 0x352B PUSH2 0x4B27 JUMP JUMPDEST JUMPDEST PUSH1 0x20 MUL ADD MLOAD DUP11 PUSH0 ADD MLOAD PUSH1 0x1 PUSH1 0x2 DUP2 LT PUSH2 0x3548 JUMPI PUSH2 0x3547 PUSH2 0x4B27 JUMP JUMPDEST JUMPDEST PUSH1 0x20 MUL ADD MLOAD ADDMOD DUP2 MSTORE POP PUSH2 0x35FE JUMP JUMPDEST SWAP1 POP PUSH2 0x356B DUP2 PUSH2 0x3566 DUP6 DUP6 PUSH2 0x392A JUMP JUMPDEST PUSH2 0x3895 JUMP JUMPDEST SWAP1 POP PUSH2 0x3577 DUP2 DUP3 PUSH2 0x392A JUMP JUMPDEST SWAP1 POP PUSH0 PUSH2 0x358D PUSH2 0x3587 DUP6 DUP7 PUSH2 0x392A JUMP JUMPDEST DUP6 PUSH2 0x392A JUMP JUMPDEST SWAP1 POP PUSH0 PUSH2 0x35AC PUSH2 0x359D DUP4 DUP5 PUSH2 0x35FE JUMP JUMPDEST PUSH2 0x35A7 DUP6 DUP7 PUSH2 0x392A JUMP JUMPDEST PUSH2 0x3895 JUMP JUMPDEST SWAP1 POP PUSH0 DUP2 SWAP1 POP PUSH0 PUSH2 0x35D8 PUSH2 0x35C9 DUP6 PUSH2 0x35C4 DUP9 DUP8 PUSH2 0x3895 JUMP JUMPDEST PUSH2 0x35FE JUMP JUMPDEST PUSH2 0x35D3 DUP9 DUP10 PUSH2 0x392A JUMP JUMPDEST PUSH2 0x3895 JUMP JUMPDEST SWAP1 POP PUSH1 0x40 MLOAD DUP1 PUSH1 0x40 ADD PUSH1 0x40 MSTORE DUP1 DUP4 DUP2 MSTORE PUSH1 0x20 ADD DUP3 DUP2 MSTORE POP SWAP8 POP POP POP POP POP POP POP POP JUMPDEST SWAP2 SWAP1 POP JUMP JUMPDEST PUSH2 0x3606 PUSH2 0x3B47 JUMP JUMPDEST PUSH0 PUSH32 0x30644E72E131A029B85045B68181585D97816A916871CA8D3C208C16D87CFD47 DUP1 PUSH2 0x3636 JUMPI PUSH2 0x3635 PUSH2 0x4E1A JUMP JUMPDEST JUMPDEST DUP4 PUSH0 PUSH1 0x2 DUP2 LT PUSH2 0x3649 JUMPI PUSH2 0x3648 PUSH2 0x4B27 JUMP JUMPDEST JUMPDEST PUSH1 0x20 MUL ADD MLOAD DUP6 PUSH0 PUSH1 0x2 DUP2 LT PUSH2 0x3661 JUMPI PUSH2 0x3660 PUSH2 0x4B27 JUMP JUMPDEST JUMPDEST PUSH1 0x20 MUL ADD MLOAD MULMOD SWAP1 POP PUSH0 PUSH32 0x30644E72E131A029B85045B68181585D97816A916871CA8D3C208C16D87CFD47 DUP1 PUSH2 0x3699 JUMPI PUSH2 0x3698 PUSH2 0x4E1A JUMP JUMPDEST JUMPDEST DUP5 PUSH1 0x1 PUSH1 0x2 DUP2 LT PUSH2 0x36AD JUMPI PUSH2 0x36AC PUSH2 0x4B27 JUMP JUMPDEST JUMPDEST PUSH1 0x20 MUL ADD MLOAD DUP7 PUSH1 0x1 PUSH1 0x2 DUP2 LT PUSH2 0x36C6 JUMPI PUSH2 0x36C5 PUSH2 0x4B27 JUMP JUMPDEST JUMPDEST PUSH1 0x20 MUL ADD MLOAD MULMOD SWAP1 POP PUSH0 PUSH32 0x30644E72E131A029B85045B68181585D97816A916871CA8D3C208C16D87CFD47 DUP1 PUSH2 0x36FE JUMPI PUSH2 0x36FD PUSH2 0x4E1A JUMP JUMPDEST JUMPDEST DUP7 PUSH1 0x1 PUSH1 0x2 DUP2 LT PUSH2 0x3712 JUMPI PUSH2 0x3711 PUSH2 0x4B27 JUMP JUMPDEST JUMPDEST PUSH1 0x20 MUL ADD MLOAD DUP8 PUSH0 PUSH1 0x2 DUP2 LT PUSH2 0x372A JUMPI PUSH2 0x3729 PUSH2 0x4B27 JUMP JUMPDEST JUMPDEST PUSH1 0x20 MUL ADD MLOAD ADDMOD SWAP1 POP PUSH0 PUSH32 0x30644E72E131A029B85045B68181585D97816A916871CA8D3C208C16D87CFD47 DUP1 PUSH2 0x3762 JUMPI PUSH2 0x3761 PUSH2 0x4E1A JUMP JUMPDEST JUMPDEST DUP7 PUSH1 0x1 PUSH1 0x2 DUP2 LT PUSH2 0x3776 JUMPI PUSH2 0x3775 PUSH2 0x4B27 JUMP JUMPDEST JUMPDEST PUSH1 0x20 MUL ADD MLOAD DUP8 PUSH0 PUSH1 0x2 DUP2 LT PUSH2 0x378E JUMPI PUSH2 0x378D PUSH2 0x4B27 JUMP JUMPDEST JUMPDEST PUSH1 0x20 MUL ADD MLOAD ADDMOD SWAP1 POP PUSH0 PUSH32 0x30644E72E131A029B85045B68181585D97816A916871CA8D3C208C16D87CFD47 DUP1 PUSH2 0x37C6 JUMPI PUSH2 0x37C5 PUSH2 0x4E1A JUMP JUMPDEST JUMPDEST DUP3 DUP5 MULMOD SWAP1 POP PUSH0 PUSH32 0x30644E72E131A029B85045B68181585D97816A916871CA8D3C208C16D87CFD47 DUP1 PUSH2 0x37FB JUMPI PUSH2 0x37FA PUSH2 0x4E1A JUMP JUMPDEST JUMPDEST PUSH32 0x30644E72E131A029B85045B68181585D97816A916871CA8D3C208C16D87CFD47 DUP1 PUSH2 0x382A JUMPI PUSH2 0x3829 PUSH2 0x4E1A JUMP JUMPDEST JUMPDEST DUP7 PUSH1 0x11 SLOAD MULMOD DUP8 ADDMOD SWAP1 POP PUSH0 PUSH2 0x386F DUP4 PUSH32 0x30644E72E131A029B85045B68181585D97816A916871CA8D3C208C16D87CFD47 DUP1 PUSH2 0x3867 JUMPI PUSH2 0x3866 PUSH2 0x4E1A JUMP JUMPDEST JUMPDEST DUP9 DUP11 ADDMOD PUSH2 0x3A0F JUMP JUMPDEST SWAP1 POP PUSH1 0x40 MLOAD DUP1 PUSH1 0x40 ADD PUSH1 0x40 MSTORE DUP1 DUP4 DUP2 MSTORE PUSH1 0x20 ADD DUP3 DUP2 MSTORE POP SWAP8 POP POP POP POP POP POP POP POP SWAP3 SWAP2 POP POP JUMP JUMPDEST PUSH2 0x389D PUSH2 0x3B47 JUMP JUMPDEST PUSH1 0x40 MLOAD DUP1 PUSH1 0x40 ADD PUSH1 0x40 MSTORE DUP1 PUSH2 0x38E0 DUP6 PUSH0 PUSH1 0x2 DUP2 LT PUSH2 0x38BE JUMPI PUSH2 0x38BD PUSH2 0x4B27 JUMP JUMPDEST JUMPDEST PUSH1 0x20 MUL ADD MLOAD DUP6 PUSH0 PUSH1 0x2 DUP2 LT PUSH2 0x38D6 JUMPI PUSH2 0x38D5 PUSH2 0x4B27 JUMP JUMPDEST JUMPDEST PUSH1 0x20 MUL ADD MLOAD PUSH2 0x3A0F JUMP JUMPDEST DUP2 MSTORE PUSH1 0x20 ADD PUSH2 0x391F DUP6 PUSH1 0x1 PUSH1 0x2 DUP2 LT PUSH2 0x38FC JUMPI PUSH2 0x38FB PUSH2 0x4B27 JUMP JUMPDEST JUMPDEST PUSH1 0x20 MUL ADD MLOAD DUP6 PUSH1 0x1 PUSH1 0x2 DUP2 LT PUSH2 0x3915 JUMPI PUSH2 0x3914 PUSH2 0x4B27 JUMP JUMPDEST JUMPDEST PUSH1 0x20 MUL ADD MLOAD PUSH2 0x3A0F JUMP JUMPDEST DUP2 MSTORE POP SWAP1 POP SWAP3 SWAP2 POP POP JUMP JUMPDEST PUSH2 0x3932 PUSH2 0x3B47 JUMP JUMPDEST PUSH1 0x40 MLOAD DUP1 PUSH1 0x40 ADD PUSH1 0x40 MSTORE DUP1 PUSH32 0x30644E72E131A029B85045B68181585D97816A916871CA8D3C208C16D87CFD47 DUP1 PUSH2 0x396C JUMPI PUSH2 0x396B PUSH2 0x4E1A JUMP JUMPDEST JUMPDEST DUP5 PUSH0 PUSH1 0x2 DUP2 LT PUSH2 0x397F JUMPI PUSH2 0x397E PUSH2 0x4B27 JUMP JUMPDEST JUMPDEST PUSH1 0x20 MUL ADD MLOAD DUP7 PUSH0 PUSH1 0x2 DUP2 LT PUSH2 0x3997 JUMPI PUSH2 0x3996 PUSH2 0x4B27 JUMP JUMPDEST JUMPDEST PUSH1 0x20 MUL ADD MLOAD ADDMOD DUP2 MSTORE PUSH1 0x20 ADD PUSH32 0x30644E72E131A029B85045B68181585D97816A916871CA8D3C208C16D87CFD47 DUP1 PUSH2 0x39D1 JUMPI PUSH2 0x39D0 PUSH2 0x4E1A JUMP JUMPDEST JUMPDEST DUP5 PUSH1 0x1 PUSH1 0x2 DUP2 LT PUSH2 0x39E5 JUMPI PUSH2 0x39E4 PUSH2 0x4B27 JUMP JUMPDEST JUMPDEST PUSH1 0x20 MUL ADD MLOAD DUP7 PUSH1 0x1 PUSH1 0x2 DUP2 LT PUSH2 0x39FE JUMPI PUSH2 0x39FD PUSH2 0x4B27 JUMP JUMPDEST JUMPDEST PUSH1 0x20 MUL ADD MLOAD ADDMOD DUP2 MSTORE POP SWAP1 POP SWAP3 SWAP2 POP POP JUMP JUMPDEST PUSH0 PUSH32 0x30644E72E131A029B85045B68181585D97816A916871CA8D3C208C16D87CFD47 DUP1 PUSH2 0x3A3F JUMPI PUSH2 0x3A3E PUSH2 0x4E1A JUMP JUMPDEST JUMPDEST DUP3 PUSH32 0x30644E72E131A029B85045B68181585D97816A916871CA8D3C208C16D87CFD47 PUSH2 0x3A6B SWAP2 SWAP1 PUSH2 0x4E74 JUMP JUMPDEST DUP5 ADDMOD SWAP1 POP SWAP3 SWAP2 POP POP JUMP JUMPDEST PUSH1 0x40 MLOAD DUP1 PUSH1 0x40 ADD PUSH1 0x40 MSTORE DUP1 PUSH2 0x3A88 PUSH2 0x3B47 JUMP JUMPDEST DUP2 MSTORE PUSH1 0x20 ADD PUSH2 0x3A95 PUSH2 0x3B47 JUMP JUMPDEST DUP2 MSTORE POP SWAP1 JUMP JUMPDEST PUSH1 0x40 MLOAD DUP1 PUSH1 0x20 ADD PUSH1 0x40 MSTORE DUP1 PUSH1 0x1 SWAP1 PUSH1 0x20 DUP3 MUL DUP1 CALLDATASIZE DUP4 CALLDATACOPY DUP1 DUP3 ADD SWAP2 POP POP SWAP1 POP POP SWAP1 JUMP JUMPDEST PUSH1 0x40 MLOAD DUP1 PUSH1 0x40 ADD PUSH1 0x40 MSTORE DUP1 PUSH0 DUP2 MSTORE PUSH1 0x20 ADD PUSH0 DUP2 MSTORE POP SWAP1 JUMP JUMPDEST PUSH1 0x40 MLOAD DUP1 PUSH1 0x60 ADD PUSH1 0x40 MSTORE DUP1 PUSH1 0x3 SWAP1 PUSH1 0x20 DUP3 MUL DUP1 CALLDATASIZE DUP4 CALLDATACOPY DUP1 DUP3 ADD SWAP2 POP POP SWAP1 POP POP SWAP1 JUMP JUMPDEST PUSH1 0x40 MLOAD DUP1 PUSH1 0x80 ADD PUSH1 0x40 MSTORE DUP1 PUSH1 0x4 SWAP1 PUSH1 0x20 DUP3 MUL DUP1 CALLDATASIZE DUP4 CALLDATACOPY DUP1 DUP3 ADD SWAP2 POP POP SWAP1 POP POP SWAP1 JUMP JUMPDEST PUSH1 0x40 MLOAD DUP1 PUSH2 0x180 ADD PUSH1 0x40 MSTORE DUP1 PUSH1 0xC SWAP1 JUMPDEST PUSH2 0x3B31 PUSH2 0x3B47 JUMP JUMPDEST DUP2 MSTORE PUSH1 0x20 ADD SWAP1 PUSH1 0x1 SWAP1 SUB SWAP1 DUP2 PUSH2 0x3B29 JUMPI SWAP1 POP POP SWAP1 JUMP JUMPDEST PUSH1 0x40 MLOAD DUP1 PUSH1 0x40 ADD PUSH1 0x40 MSTORE DUP1 PUSH1 0x2 SWAP1 PUSH1 0x20 DUP3 MUL DUP1 CALLDATASIZE DUP4 CALLDATACOPY DUP1 DUP3 ADD SWAP2 POP POP SWAP1 POP POP SWAP1 JUMP JUMPDEST PUSH0 PUSH1 0x40 MLOAD SWAP1 POP SWAP1 JUMP JUMPDEST PUSH0 DUP1 REVERT JUMPDEST PUSH0 DUP1 REVERT JUMPDEST PUSH0 PUSH1 0x1F NOT PUSH1 0x1F DUP4 ADD AND SWAP1 POP SWAP2 SWAP1 POP JUMP JUMPDEST PUSH32 0x4E487B7100000000000000000000000000000000000000000000000000000000 PUSH0 MSTORE PUSH1 0x41 PUSH1 0x4 MSTORE PUSH1 0x24 PUSH0 REVERT JUMPDEST PUSH2 0x3BC0 DUP3 PUSH2 0x3B7A JUMP JUMPDEST DUP2 ADD DUP2 DUP2 LT PUSH8 0xFFFFFFFFFFFFFFFF DUP3 GT OR ISZERO PUSH2 0x3BDF JUMPI PUSH2 0x3BDE PUSH2 0x3B8A JUMP JUMPDEST JUMPDEST DUP1 PUSH1 0x40 MSTORE POP POP POP JUMP JUMPDEST PUSH0 PUSH2 0x3BF1 PUSH2 0x3B69 JUMP JUMPDEST SWAP1 POP PUSH2 0x3BFD DUP3 DUP3 PUSH2 0x3BB7 JUMP JUMPDEST SWAP2 SWAP1 POP JUMP JUMPDEST PUSH0 DUP2 SWAP1 POP SWAP2 SWAP1 POP JUMP JUMPDEST PUSH2 0x3C14 DUP2 PUSH2 0x3C02 JUMP JUMPDEST DUP2 EQ PUSH2 0x3C1E JUMPI PUSH0 DUP1 REVERT JUMPDEST POP JUMP JUMPDEST PUSH0 DUP2 CALLDATALOAD SWAP1 POP PUSH2 0x3C2F DUP2 PUSH2 0x3C0B JUMP JUMPDEST SWAP3 SWAP2 POP POP JUMP JUMPDEST PUSH0 PUSH1 0x40 DUP3 DUP5 SUB SLT ISZERO PUSH2 0x3C4A JUMPI PUSH2 0x3C49 PUSH2 0x3B76 JUMP JUMPDEST JUMPDEST PUSH2 0x3C54 PUSH1 0x40 PUSH2 0x3BE8 JUMP JUMPDEST SWAP1 POP PUSH0 PUSH2 0x3C63 DUP5 DUP3 DUP6 ADD PUSH2 0x3C21 JUMP JUMPDEST PUSH0 DUP4 ADD MSTORE POP PUSH1 0x20 PUSH2 0x3C76 DUP5 DUP3 DUP6 ADD PUSH2 0x3C21 JUMP JUMPDEST PUSH1 0x20 DUP4 ADD MSTORE POP SWAP3 SWAP2 POP POP JUMP JUMPDEST PUSH0 DUP1 PUSH0 PUSH1 0xA0 DUP5 DUP7 SUB SLT ISZERO PUSH2 0x3C99 JUMPI PUSH2 0x3C98 PUSH2 0x3B72 JUMP JUMPDEST JUMPDEST PUSH0 PUSH2 0x3CA6 DUP7 DUP3 DUP8 ADD PUSH2 0x3C35 JUMP JUMPDEST SWAP4 POP POP PUSH1 0x40 PUSH2 0x3CB7 DUP7 DUP3 DUP8 ADD PUSH2 0x3C35 JUMP JUMPDEST SWAP3 POP POP PUSH1 0x80 PUSH2 0x3CC8 DUP7 DUP3 DUP8 ADD PUSH2 0x3C21 JUMP JUMPDEST SWAP2 POP POP SWAP3 POP SWAP3 POP SWAP3 JUMP JUMPDEST PUSH0 DUP2 ISZERO ISZERO SWAP1 POP SWAP2 SWAP1 POP JUMP JUMPDEST PUSH2 0x3CE6 DUP2 PUSH2 0x3CD2 JUMP JUMPDEST DUP3 MSTORE POP POP JUMP JUMPDEST PUSH0 PUSH1 0x20 DUP3 ADD SWAP1 POP PUSH2 0x3CFF PUSH0 DUP4 ADD DUP5 PUSH2 0x3CDD JUMP JUMPDEST SWAP3 SWAP2 POP POP JUMP JUMPDEST PUSH0 DUP1 PUSH1 0x80 DUP4 DUP6 SUB SLT ISZERO PUSH2 0x3D1B JUMPI PUSH2 0x3D1A PUSH2 0x3B72 JUMP JUMPDEST JUMPDEST PUSH0 PUSH2 0x3D28 DUP6 DUP3 DUP7 ADD PUSH2 0x3C35 JUMP JUMPDEST SWAP3 POP POP PUSH1 0x40 PUSH2 0x3D39 DUP6 DUP3 DUP7 ADD PUSH2 0x3C35 JUMP JUMPDEST SWAP2 POP POP SWAP3 POP SWAP3 SWAP1 POP JUMP JUMPDEST PUSH0 DUP2 SWAP1 POP SWAP2 SWAP1 POP JUMP JUMPDEST PUSH2 0x3D55 DUP2 PUSH2 0x3D43 JUMP JUMPDEST DUP3 MSTORE POP POP JUMP JUMPDEST PUSH0 PUSH1 0x20 DUP3 ADD SWAP1 POP PUSH2 0x3D6E PUSH0 DUP4 ADD DUP5 PUSH2 0x3D4C JUMP JUMPDEST SWAP3 SWAP2 POP POP JUMP JUMPDEST PUSH0 DUP1 PUSH0 DUP1 PUSH2 0x100 DUP6 DUP8 SUB SLT ISZERO PUSH2 0x3D8D JUMPI PUSH2 0x3D8C PUSH2 0x3B72 JUMP JUMPDEST JUMPDEST PUSH0 PUSH2 0x3D9A DUP8 DUP3 DUP9 ADD PUSH2 0x3C35 JUMP JUMPDEST SWAP5 POP POP PUSH1 0x40 PUSH2 0x3DAB DUP8 DUP3 DUP9 ADD PUSH2 0x3C35 JUMP JUMPDEST SWAP4 POP POP PUSH1 0x80 PUSH2 0x3DBC DUP8 DUP3 DUP9 ADD PUSH2 0x3C35 JUMP JUMPDEST SWAP3 POP POP PUSH1 0xC0 PUSH2 0x3DCD DUP8 DUP3 DUP9 ADD PUSH2 0x3C35 JUMP JUMPDEST SWAP2 POP POP SWAP3 SWAP6 SWAP2 SWAP5 POP SWAP3 POP JUMP JUMPDEST PUSH0 DUP1 REVERT JUMPDEST PUSH0 PUSH8 0xFFFFFFFFFFFFFFFF DUP3 GT ISZERO PUSH2 0x3DF7 JUMPI PUSH2 0x3DF6 PUSH2 0x3B8A JUMP JUMPDEST JUMPDEST PUSH1 0x20 DUP3 MUL SWAP1 POP SWAP2 SWAP1 POP JUMP JUMPDEST PUSH0 DUP1 REVERT JUMPDEST PUSH0 PUSH2 0x3E18 PUSH2 0x3E13 DUP5 PUSH2 0x3DDD JUMP JUMPDEST PUSH2 0x3BE8 JUMP JUMPDEST SWAP1 POP DUP1 PUSH1 0x20 DUP5 MUL DUP4 ADD DUP6 DUP2 GT ISZERO PUSH2 0x3E32 JUMPI PUSH2 0x3E31 PUSH2 0x3E02 JUMP JUMPDEST JUMPDEST DUP4 JUMPDEST DUP2 DUP2 LT ISZERO PUSH2 0x3E5B JUMPI DUP1 PUSH2 0x3E47 DUP9 DUP3 PUSH2 0x3C21 JUMP JUMPDEST DUP5 MSTORE PUSH1 0x20 DUP5 ADD SWAP4 POP POP PUSH1 0x20 DUP2 ADD SWAP1 POP PUSH2 0x3E34 JUMP JUMPDEST POP POP POP SWAP4 SWAP3 POP POP POP JUMP JUMPDEST PUSH0 DUP3 PUSH1 0x1F DUP4 ADD SLT PUSH2 0x3E79 JUMPI PUSH2 0x3E78 PUSH2 0x3DD9 JUMP JUMPDEST JUMPDEST PUSH1 0x2 PUSH2 0x3E86 DUP5 DUP3 DUP6 PUSH2 0x3E06 JUMP JUMPDEST SWAP2 POP POP SWAP3 SWAP2 POP POP JUMP JUMPDEST PUSH0 PUSH1 0x80 DUP3 DUP5 SUB SLT ISZERO PUSH2 0x3EA4 JUMPI PUSH2 0x3EA3 PUSH2 0x3B76 JUMP JUMPDEST JUMPDEST PUSH2 0x3EAE PUSH1 0x40 PUSH2 0x3BE8 JUMP JUMPDEST SWAP1 POP PUSH0 PUSH2 0x3EBD DUP5 DUP3 DUP6 ADD PUSH2 0x3E65 JUMP JUMPDEST PUSH0 DUP4 ADD MSTORE POP PUSH1 0x40 PUSH2 0x3ED0 DUP5 DUP3 DUP6 ADD PUSH2 0x3E65 JUMP JUMPDEST PUSH1 0x20 DUP4 ADD MSTORE POP SWAP3 SWAP2 POP POP JUMP JUMPDEST PUSH0 PUSH2 0x160 DUP3 DUP5 SUB SLT ISZERO PUSH2 0x3EF2 JUMPI PUSH2 0x3EF1 PUSH2 0x3B76 JUMP JUMPDEST JUMPDEST PUSH2 0x3EFC PUSH1 0xA0 PUSH2 0x3BE8 JUMP JUMPDEST SWAP1 POP PUSH0 PUSH2 0x3F0B DUP5 DUP3 DUP6 ADD PUSH2 0x3C35 JUMP JUMPDEST PUSH0 DUP4 ADD MSTORE POP PUSH1 0x40 PUSH2 0x3F1E DUP5 DUP3 DUP6 ADD PUSH2 0x3C35 JUMP JUMPDEST PUSH1 0x20 DUP4 ADD MSTORE POP PUSH1 0x80 PUSH2 0x3F32 DUP5 DUP3 DUP6 ADD PUSH2 0x3E8F JUMP JUMPDEST PUSH1 0x40 DUP4 ADD MSTORE POP PUSH2 0x100 PUSH2 0x3F47 DUP5 DUP3 DUP6 ADD PUSH2 0x3C35 JUMP JUMPDEST PUSH1 0x60 DUP4 ADD MSTORE POP PUSH2 0x140 PUSH2 0x3F5C DUP5 DUP3 DUP6 ADD PUSH2 0x3C21 JUMP JUMPDEST PUSH1 0x80 DUP4 ADD MSTORE POP SWAP3 SWAP2 POP POP JUMP JUMPDEST PUSH0 PUSH2 0x160 DUP3 DUP5 SUB SLT ISZERO PUSH2 0x3F7E JUMPI PUSH2 0x3F7D PUSH2 0x3B72 JUMP JUMPDEST JUMPDEST PUSH0 PUSH2 0x3F8B DUP5 DUP3 DUP6 ADD PUSH2 0x3EDC JUMP JUMPDEST SWAP2 POP POP SWAP3 SWAP2 POP POP JUMP JUMPDEST PUSH0 PUSH2 0x120 DUP3 DUP5 SUB SLT ISZERO PUSH2 0x3FAA JUMPI PUSH2 0x3FA9 PUSH2 0x3B76 JUMP JUMPDEST JUMPDEST PUSH2 0x3FB4 PUSH1 0xA0 PUSH2 0x3BE8 JUMP JUMPDEST SWAP1 POP PUSH0 PUSH2 0x3FC3 DUP5 DUP3 DUP6 ADD PUSH2 0x3C35 JUMP JUMPDEST PUSH0 DUP4 ADD MSTORE POP PUSH1 0x40 PUSH2 0x3FD6 DUP5 DUP3 DUP6 ADD PUSH2 0x3E8F JUMP JUMPDEST PUSH1 0x20 DUP4 ADD MSTORE POP PUSH1 0xC0 PUSH2 0x3FEA DUP5 DUP3 DUP6 ADD PUSH2 0x3C21 JUMP JUMPDEST PUSH1 0x40 DUP4 ADD MSTORE POP PUSH1 0xE0 PUSH2 0x3FFE DUP5 DUP3 DUP6 ADD PUSH2 0x3C21 JUMP JUMPDEST PUSH1 0x60 DUP4 ADD MSTORE POP PUSH2 0x100 PUSH2 0x4013 DUP5 DUP3 DUP6 ADD PUSH2 0x3C21 JUMP JUMPDEST PUSH1 0x80 DUP4 ADD MSTORE POP SWAP3 SWAP2 POP POP JUMP JUMPDEST PUSH0 PUSH2 0x120 DUP3 DUP5 SUB SLT ISZERO PUSH2 0x4035 JUMPI PUSH2 0x4034 PUSH2 0x3B72 JUMP JUMPDEST JUMPDEST PUSH0 PUSH2 0x4042 DUP5 DUP3 DUP6 ADD PUSH2 0x3F94 JUMP JUMPDEST SWAP2 POP POP SWAP3 SWAP2 POP POP JUMP JUMPDEST PUSH0 PUSH2 0x540 DUP3 DUP5 SUB SLT ISZERO PUSH2 0x4061 JUMPI PUSH2 0x4060 PUSH2 0x3B76 JUMP JUMPDEST JUMPDEST PUSH2 0x406C PUSH2 0x340 PUSH2 0x3BE8 JUMP JUMPDEST SWAP1 POP PUSH0 PUSH2 0x407B DUP5 DUP3 DUP6 ADD PUSH2 0x3C35 JUMP JUMPDEST PUSH0 DUP4 ADD MSTORE POP PUSH1 0x40 PUSH2 0x408E DUP5 DUP3 DUP6 ADD PUSH2 0x3C35 JUMP JUMPDEST PUSH1 0x20 DUP4 ADD MSTORE POP PUSH1 0x80 PUSH2 0x40A2 DUP5 DUP3 DUP6 ADD PUSH2 0x3C35 JUMP JUMPDEST PUSH1 0x40 DUP4 ADD MSTORE POP PUSH1 0xC0 PUSH2 0x40B6 DUP5 DUP3 DUP6 ADD PUSH2 0x3C35 JUMP JUMPDEST PUSH1 0x60 DUP4 ADD MSTORE POP PUSH2 0x100 PUSH2 0x40CB DUP5 DUP3 DUP6 ADD PUSH2 0x3C35 JUMP JUMPDEST PUSH1 0x80 DUP4 ADD MSTORE POP PUSH2 0x140 PUSH2 0x40E0 DUP5 DUP3 DUP6 ADD PUSH2 0x3C35 JUMP JUMPDEST PUSH1 0xA0 DUP4 ADD MSTORE POP PUSH2 0x180 PUSH2 0x40F5 DUP5 DUP3 DUP6 ADD PUSH2 0x3C35 JUMP JUMPDEST PUSH1 0xC0 DUP4 ADD MSTORE POP PUSH2 0x1C0 PUSH2 0x410A DUP5 DUP3 DUP6 ADD PUSH2 0x3C35 JUMP JUMPDEST PUSH1 0xE0 DUP4 ADD MSTORE POP PUSH2 0x200 PUSH2 0x411F DUP5 DUP3 DUP6 ADD PUSH2 0x3C35 JUMP JUMPDEST PUSH2 0x100 DUP4 ADD MSTORE POP PUSH2 0x240 PUSH2 0x4135 DUP5 DUP3 DUP6 ADD PUSH2 0x3C35 JUMP JUMPDEST PUSH2 0x120 DUP4 ADD MSTORE POP PUSH2 0x280 PUSH2 0x414B DUP5 DUP3 DUP6 ADD PUSH2 0x3C21 JUMP JUMPDEST PUSH2 0x140 DUP4 ADD MSTORE POP PUSH2 0x2A0 PUSH2 0x4161 DUP5 DUP3 DUP6 ADD PUSH2 0x3C21 JUMP JUMPDEST PUSH2 0x160 DUP4 ADD MSTORE POP PUSH2 0x2C0 PUSH2 0x4177 DUP5 DUP3 DUP6 ADD PUSH2 0x3C21 JUMP JUMPDEST PUSH2 0x180 DUP4 ADD MSTORE POP PUSH2 0x2E0 PUSH2 0x418D DUP5 DUP3 DUP6 ADD PUSH2 0x3C21 JUMP JUMPDEST PUSH2 0x1A0 DUP4 ADD MSTORE POP PUSH2 0x300 PUSH2 0x41A3 DUP5 DUP3 DUP6 ADD PUSH2 0x3C21 JUMP JUMPDEST PUSH2 0x1C0 DUP4 ADD MSTORE POP PUSH2 0x320 PUSH2 0x41B9 DUP5 DUP3 DUP6 ADD PUSH2 0x3C21 JUMP JUMPDEST PUSH2 0x1E0 DUP4 ADD MSTORE POP PUSH2 0x340 PUSH2 0x41CF DUP5 DUP3 DUP6 ADD PUSH2 0x3C21 JUMP JUMPDEST PUSH2 0x200 DUP4 ADD MSTORE POP PUSH2 0x360 PUSH2 0x41E5 DUP5 DUP3 DUP6 ADD PUSH2 0x3C21 JUMP JUMPDEST PUSH2 0x220 DUP4 ADD MSTORE POP PUSH2 0x380 PUSH2 0x41FB DUP5 DUP3 DUP6 ADD PUSH2 0x3C21 JUMP JUMPDEST PUSH2 0x240 DUP4 ADD MSTORE POP PUSH2 0x3A0 PUSH2 0x4211 DUP5 DUP3 DUP6 ADD PUSH2 0x3C21 JUMP JUMPDEST PUSH2 0x260 DUP4 ADD MSTORE POP PUSH2 0x3C0 PUSH2 0x4227 DUP5 DUP3 DUP6 ADD PUSH2 0x3C35 JUMP JUMPDEST PUSH2 0x280 DUP4 ADD MSTORE POP PUSH2 0x400 PUSH2 0x423D DUP5 DUP3 DUP6 ADD PUSH2 0x3C35 JUMP JUMPDEST PUSH2 0x2A0 DUP4 ADD MSTORE POP PUSH2 0x440 PUSH2 0x4253 DUP5 DUP3 DUP6 ADD PUSH2 0x3C35 JUMP JUMPDEST PUSH2 0x2C0 DUP4 ADD MSTORE POP PUSH2 0x480 PUSH2 0x4269 DUP5 DUP3 DUP6 ADD PUSH2 0x3C35 JUMP JUMPDEST PUSH2 0x2E0 DUP4 ADD MSTORE POP PUSH2 0x4C0 PUSH2 0x427F DUP5 DUP3 DUP6 ADD PUSH2 0x3C35 JUMP JUMPDEST PUSH2 0x300 DUP4 ADD MSTORE POP PUSH2 0x500 PUSH2 0x4295 DUP5 DUP3 DUP6 ADD PUSH2 0x3C35 JUMP JUMPDEST PUSH2 0x320 DUP4 ADD MSTORE POP SWAP3 SWAP2 POP POP JUMP JUMPDEST PUSH0 PUSH2 0x540 DUP3 DUP5 SUB SLT ISZERO PUSH2 0x42B8 JUMPI PUSH2 0x42B7 PUSH2 0x3B72 JUMP JUMPDEST JUMPDEST PUSH0 PUSH2 0x42C5 DUP5 DUP3 DUP6 ADD PUSH2 0x404B JUMP JUMPDEST SWAP2 POP POP SWAP3 SWAP2 POP POP JUMP JUMPDEST PUSH0 DUP1 PUSH0 DUP1 PUSH2 0x180 DUP6 DUP8 SUB SLT ISZERO PUSH2 0x42E7 JUMPI PUSH2 0x42E6 PUSH2 0x3B72 JUMP JUMPDEST JUMPDEST PUSH0 PUSH2 0x42F4 DUP8 DUP3 DUP9 ADD PUSH2 0x3C35 JUMP JUMPDEST SWAP5 POP POP PUSH1 0x40 PUSH2 0x4305 DUP8 DUP3 DUP9 ADD PUSH2 0x3E8F JUMP JUMPDEST SWAP4 POP POP PUSH1 0xC0 PUSH2 0x4316 DUP8 DUP3 DUP9 ADD PUSH2 0x3C35 JUMP JUMPDEST SWAP3 POP POP PUSH2 0x100 PUSH2 0x4328 DUP8 DUP3 DUP9 ADD PUSH2 0x3E8F JUMP JUMPDEST SWAP2 POP POP SWAP3 SWAP6 SWAP2 SWAP5 POP SWAP3 POP JUMP JUMPDEST PUSH0 DUP1 PUSH1 0xA0 DUP4 DUP6 SUB SLT ISZERO PUSH2 0x434A JUMPI PUSH2 0x4349 PUSH2 0x3B72 JUMP JUMPDEST JUMPDEST PUSH0 PUSH2 0x4357 DUP6 DUP3 DUP7 ADD PUSH2 0x3E8F JUMP JUMPDEST SWAP3 POP POP PUSH1 0x80 PUSH2 0x4368 DUP6 DUP3 DUP7 ADD PUSH2 0x3C21 JUMP JUMPDEST SWAP2 POP POP SWAP3 POP SWAP3 SWAP1 POP JUMP JUMPDEST PUSH0 PUSH1 0x2 SWAP1 POP SWAP2 SWAP1 POP JUMP JUMPDEST PUSH0 DUP2 SWAP1 POP SWAP3 SWAP2 POP POP JUMP JUMPDEST PUSH0 DUP2 SWAP1 POP SWAP2 SWAP1 POP JUMP JUMPDEST PUSH2 0x4398 DUP2 PUSH2 0x3C02 JUMP JUMPDEST DUP3 MSTORE POP POP JUMP JUMPDEST PUSH0 PUSH2 0x43A9 DUP4 DUP4 PUSH2 0x438F JUMP JUMPDEST PUSH1 0x20 DUP4 ADD SWAP1 POP SWAP3 SWAP2 POP POP JUMP JUMPDEST PUSH0 PUSH1 0x20 DUP3 ADD SWAP1 POP SWAP2 SWAP1 POP JUMP JUMPDEST PUSH2 0x43CA DUP2 PUSH2 0x4372 JUMP JUMPDEST PUSH2 0x43D4 DUP2 DUP5 PUSH2 0x437C JUMP JUMPDEST SWAP3 POP PUSH2 0x43DF DUP3 PUSH2 0x4386 JUMP JUMPDEST DUP1 PUSH0 JUMPDEST DUP4 DUP2 LT ISZERO PUSH2 0x440F JUMPI DUP2 MLOAD PUSH2 0x43F6 DUP8 DUP3 PUSH2 0x439E JUMP JUMPDEST SWAP7 POP PUSH2 0x4401 DUP4 PUSH2 0x43B5 JUMP JUMPDEST SWAP3 POP POP PUSH1 0x1 DUP2 ADD SWAP1 POP PUSH2 0x43E2 JUMP JUMPDEST POP POP POP POP POP POP JUMP JUMPDEST PUSH1 0x80 DUP3 ADD PUSH0 DUP3 ADD MLOAD PUSH2 0x442B PUSH0 DUP6 ADD DUP3 PUSH2 0x43C1 JUMP JUMPDEST POP PUSH1 0x20 DUP3 ADD MLOAD PUSH2 0x443E PUSH1 0x40 DUP6 ADD DUP3 PUSH2 0x43C1 JUMP JUMPDEST POP POP POP POP JUMP JUMPDEST PUSH0 PUSH1 0x80 DUP3 ADD SWAP1 POP PUSH2 0x4457 PUSH0 DUP4 ADD DUP5 PUSH2 0x4417 JUMP JUMPDEST SWAP3 SWAP2 POP POP JUMP JUMPDEST PUSH0 PUSH2 0x780 DUP3 DUP5 SUB SLT ISZERO PUSH2 0x4473 JUMPI PUSH2 0x4472 PUSH2 0x3B76 JUMP JUMPDEST JUMPDEST PUSH2 0x447E PUSH2 0x420 PUSH2 0x3BE8 JUMP JUMPDEST SWAP1 POP PUSH0 PUSH2 0x448D DUP5 DUP3 DUP6 ADD PUSH2 0x3F94 JUMP JUMPDEST PUSH0 DUP4 ADD MSTORE POP PUSH2 0x120 PUSH2 0x44A1 DUP5 DUP3 DUP6 ADD PUSH2 0x3C35 JUMP JUMPDEST PUSH1 0x20 DUP4 ADD MSTORE POP PUSH2 0x160 PUSH2 0x44B6 DUP5 DUP3 DUP6 ADD PUSH2 0x3C35 JUMP JUMPDEST PUSH1 0x40 DUP4 ADD MSTORE POP PUSH2 0x1A0 PUSH2 0x44CB DUP5 DUP3 DUP6 ADD PUSH2 0x3C35 JUMP JUMPDEST PUSH1 0x60 DUP4 ADD MSTORE POP PUSH2 0x1E0 PUSH2 0x44E0 DUP5 DUP3 DUP6 ADD PUSH2 0x3C35 JUMP JUMPDEST PUSH1 0x80 DUP4 ADD MSTORE POP PUSH2 0x220 PUSH2 0x44F5 DUP5 DUP3 DUP6 ADD PUSH2 0x3C35 JUMP JUMPDEST PUSH1 0xA0 DUP4 ADD MSTORE POP PUSH2 0x260 PUSH2 0x450A DUP5 DUP3 DUP6 ADD PUSH2 0x3C35 JUMP JUMPDEST PUSH1 0xC0 DUP4 ADD MSTORE POP PUSH2 0x2A0 PUSH2 0x451F DUP5 DUP3 DUP6 ADD PUSH2 0x3C35 JUMP JUMPDEST PUSH1 0xE0 DUP4 ADD MSTORE POP PUSH2 0x2E0 PUSH2 0x4534 DUP5 DUP3 DUP6 ADD PUSH2 0x3C35 JUMP JUMPDEST PUSH2 0x100 DUP4 ADD MSTORE POP PUSH2 0x320 PUSH2 0x454A DUP5 DUP3 DUP6 ADD PUSH2 0x3C35 JUMP JUMPDEST PUSH2 0x120 DUP4 ADD MSTORE POP PUSH2 0x360 PUSH2 0x4560 DUP5 DUP3 DUP6 ADD PUSH2 0x3C35 JUMP JUMPDEST PUSH2 0x140 DUP4 ADD MSTORE POP PUSH2 0x3A0 PUSH2 0x4576 DUP5 DUP3 DUP6 ADD PUSH2 0x3C35 JUMP JUMPDEST PUSH2 0x160 DUP4 ADD MSTORE POP PUSH2 0x3E0 PUSH2 0x458C DUP5 DUP3 DUP6 ADD PUSH2 0x3C35 JUMP JUMPDEST PUSH2 0x180 DUP4 ADD MSTORE POP PUSH2 0x420 PUSH2 0x45A2 DUP5 DUP3 DUP6 ADD PUSH2 0x3C35 JUMP JUMPDEST PUSH2 0x1A0 DUP4 ADD MSTORE POP PUSH2 0x460 PUSH2 0x45B8 DUP5 DUP3 DUP6 ADD PUSH2 0x3C21 JUMP JUMPDEST PUSH2 0x1C0 DUP4 ADD MSTORE POP PUSH2 0x480 PUSH2 0x45CE DUP5 DUP3 DUP6 ADD PUSH2 0x3C21 JUMP JUMPDEST PUSH2 0x1E0 DUP4 ADD MSTORE POP PUSH2 0x4A0 PUSH2 0x45E4 DUP5 DUP3 DUP6 ADD PUSH2 0x3C21 JUMP JUMPDEST PUSH2 0x200 DUP4 ADD MSTORE POP PUSH2 0x4C0 PUSH2 0x45FA DUP5 DUP3 DUP6 ADD PUSH2 0x3C21 JUMP JUMPDEST PUSH2 0x220 DUP4 ADD MSTORE POP PUSH2 0x4E0 PUSH2 0x4610 DUP5 DUP3 DUP6 ADD PUSH2 0x3C21 JUMP JUMPDEST PUSH2 0x240 DUP4 ADD MSTORE POP PUSH2 0x500 PUSH2 0x4626 DUP5 DUP3 DUP6 ADD PUSH2 0x3C21 JUMP JUMPDEST PUSH2 0x260 DUP4 ADD MSTORE POP PUSH2 0x520 PUSH2 0x463C DUP5 DUP3 DUP6 ADD PUSH2 0x3C21 JUMP JUMPDEST PUSH2 0x280 DUP4 ADD MSTORE POP PUSH2 0x540 PUSH2 0x4652 DUP5 DUP3 DUP6 ADD PUSH2 0x3C21 JUMP JUMPDEST PUSH2 0x2A0 DUP4 ADD MSTORE POP PUSH2 0x560 PUSH2 0x4668 DUP5 DUP3 DUP6 ADD PUSH2 0x3C21 JUMP JUMPDEST PUSH2 0x2C0 DUP4 ADD MSTORE POP PUSH2 0x580 PUSH2 0x467E DUP5 DUP3 DUP6 ADD PUSH2 0x3C21 JUMP JUMPDEST PUSH2 0x2E0 DUP4 ADD MSTORE POP PUSH2 0x5A0 PUSH2 0x4694 DUP5 DUP3 DUP6 ADD PUSH2 0x3C21 JUMP JUMPDEST PUSH2 0x300 DUP4 ADD MSTORE POP PUSH2 0x5C0 PUSH2 0x46AA DUP5 DUP3 DUP6 ADD PUSH2 0x3C21 JUMP JUMPDEST PUSH2 0x320 DUP4 ADD MSTORE POP PUSH2 0x5E0 PUSH2 0x46C0 DUP5 DUP3 DUP6 ADD PUSH2 0x3C21 JUMP JUMPDEST PUSH2 0x340 DUP4 ADD MSTORE POP PUSH2 0x600 PUSH2 0x46D6 DUP5 DUP3 DUP6 ADD PUSH2 0x3C35 JUMP JUMPDEST PUSH2 0x360 DUP4 ADD MSTORE POP PUSH2 0x640 PUSH2 0x46EC DUP5 DUP3 DUP6 ADD PUSH2 0x3C35 JUMP JUMPDEST PUSH2 0x380 DUP4 ADD MSTORE POP PUSH2 0x680 PUSH2 0x4702 DUP5 DUP3 DUP6 ADD PUSH2 0x3C35 JUMP JUMPDEST PUSH2 0x3A0 DUP4 ADD MSTORE POP PUSH2 0x6C0 PUSH2 0x4718 DUP5 DUP3 DUP6 ADD PUSH2 0x3C35 JUMP JUMPDEST PUSH2 0x3C0 DUP4 ADD MSTORE POP PUSH2 0x700 PUSH2 0x472E DUP5 DUP3 DUP6 ADD PUSH2 0x3C35 JUMP JUMPDEST PUSH2 0x3E0 DUP4 ADD MSTORE POP PUSH2 0x740 PUSH2 0x4744 DUP5 DUP3 DUP6 ADD PUSH2 0x3C35 JUMP JUMPDEST PUSH2 0x400 DUP4 ADD MSTORE POP SWAP3 SWAP2 POP POP JUMP JUMPDEST PUSH0 PUSH2 0x780 DUP3 DUP5 SUB SLT ISZERO PUSH2 0x4767 JUMPI PUSH2 0x4766 PUSH2 0x3B72 JUMP JUMPDEST JUMPDEST PUSH0 PUSH2 0x4774 DUP5 DUP3 DUP6 ADD PUSH2 0x445D JUMP JUMPDEST SWAP2 POP POP SWAP3 SWAP2 POP POP JUMP JUMPDEST PUSH0 DUP1 PUSH0 DUP1 PUSH1 0xC0 DUP6 DUP8 SUB SLT ISZERO PUSH2 0x4795 JUMPI PUSH2 0x4794 PUSH2 0x3B72 JUMP JUMPDEST JUMPDEST PUSH0 PUSH2 0x47A2 DUP8 DUP3 DUP9 ADD PUSH2 0x3C35 JUMP JUMPDEST SWAP5 POP POP PUSH1 0x40 PUSH2 0x47B3 DUP8 DUP3 DUP9 ADD PUSH2 0x3C35 JUMP JUMPDEST SWAP4 POP POP PUSH1 0x80 PUSH2 0x47C4 DUP8 DUP3 DUP9 ADD PUSH2 0x3C21 JUMP JUMPDEST SWAP3 POP POP PUSH1 0xA0 PUSH2 0x47D5 DUP8 DUP3 DUP9 ADD PUSH2 0x3C21 JUMP JUMPDEST SWAP2 POP POP SWAP3 SWAP6 SWAP2 SWAP5 POP SWAP3 POP JUMP JUMPDEST PUSH0 DUP2 SWAP1 POP SWAP2 SWAP1 POP JUMP JUMPDEST PUSH2 0x47FB PUSH2 0x47F6 DUP3 PUSH2 0x3C02 JUMP JUMPDEST PUSH2 0x47E1 JUMP JUMPDEST DUP3 MSTORE POP POP JUMP JUMPDEST PUSH0 PUSH2 0x480C DUP3 DUP8 PUSH2 0x47EA JUMP JUMPDEST PUSH1 0x20 DUP3 ADD SWAP2 POP PUSH2 0x481C DUP3 DUP7 PUSH2 0x47EA JUMP JUMPDEST PUSH1 0x20 DUP3 ADD SWAP2 POP PUSH2 0x482C DUP3 DUP6 PUSH2 0x47EA JUMP JUMPDEST PUSH1 0x20 DUP3 ADD SWAP2 POP PUSH2 0x483C DUP3 DUP5 PUSH2 0x47EA JUMP JUMPDEST PUSH1 0x20 DUP3 ADD SWAP2 POP DUP2 SWAP1 POP SWAP6 SWAP5 POP POP POP POP POP JUMP JUMPDEST PUSH0 PUSH2 0x4859 DUP3 DUP12 PUSH2 0x47EA JUMP JUMPDEST PUSH1 0x20 DUP3 ADD SWAP2 POP PUSH2 0x4869 DUP3 DUP11 PUSH2 0x47EA JUMP JUMPDEST PUSH1 0x20 DUP3 ADD SWAP2 POP PUSH2 0x4879 DUP3 DUP10 PUSH2 0x47EA JUMP JUMPDEST PUSH1 0x20 DUP3 ADD SWAP2 POP PUSH2 0x4889 DUP3 DUP9 PUSH2 0x47EA JUMP JUMPDEST PUSH1 0x20 DUP3 ADD SWAP2 POP PUSH2 0x4899 DUP3 DUP8 PUSH2 0x47EA JUMP JUMPDEST PUSH1 0x20 DUP3 ADD SWAP2 POP PUSH2 0x48A9 DUP3 DUP7 PUSH2 0x47EA JUMP JUMPDEST PUSH1 0x20 DUP3 ADD SWAP2 POP PUSH2 0x48B9 DUP3 DUP6 PUSH2 0x47EA JUMP JUMPDEST PUSH1 0x20 DUP3 ADD SWAP2 POP PUSH2 0x48C9 DUP3 DUP5 PUSH2 0x47EA JUMP JUMPDEST PUSH1 0x20 DUP3 ADD SWAP2 POP DUP2 SWAP1 POP SWAP10 SWAP9 POP POP POP POP POP POP POP POP POP JUMP JUMPDEST PUSH0 DUP3 DUP3 MSTORE PUSH1 0x20 DUP3 ADD SWAP1 POP SWAP3 SWAP2 POP POP JUMP JUMPDEST PUSH32 0x56657269666965722E7665726966794B5A473A205F636F6D6D69746D656E742E PUSH0 DUP3 ADD MSTORE PUSH32 0x58206973206F7574206F662072616E6765000000000000000000000000000000 PUSH1 0x20 DUP3 ADD MSTORE POP JUMP JUMPDEST PUSH0 PUSH2 0x4949 PUSH1 0x31 DUP4 PUSH2 0x48DF JUMP JUMPDEST SWAP2 POP PUSH2 0x4954 DUP3 PUSH2 0x48EF JUMP JUMPDEST PUSH1 0x40 DUP3 ADD SWAP1 POP SWAP2 SWAP1 POP JUMP JUMPDEST PUSH0 PUSH1 0x20 DUP3 ADD SWAP1 POP DUP2 DUP2 SUB PUSH0 DUP4 ADD MSTORE PUSH2 0x4976 DUP2 PUSH2 0x493D JUMP JUMPDEST SWAP1 POP SWAP2 SWAP1 POP JUMP JUMPDEST PUSH32 0x56657269666965722E7665726966794B5A473A205F636F6D6D69746D656E742E PUSH0 DUP3 ADD MSTORE PUSH32 0x59206973206F7574206F662072616E6765000000000000000000000000000000 PUSH1 0x20 DUP3 ADD MSTORE POP JUMP JUMPDEST PUSH0 PUSH2 0x49D7 PUSH1 0x31 DUP4 PUSH2 0x48DF JUMP JUMPDEST SWAP2 POP PUSH2 0x49E2 DUP3 PUSH2 0x497D JUMP JUMPDEST PUSH1 0x40 DUP3 ADD SWAP1 POP SWAP2 SWAP1 POP JUMP JUMPDEST PUSH0 PUSH1 0x20 DUP3 ADD SWAP1 POP DUP2 DUP2 SUB PUSH0 DUP4 ADD MSTORE PUSH2 0x4A04 DUP2 PUSH2 0x49CB JUMP JUMPDEST SWAP1 POP SWAP2 SWAP1 POP JUMP JUMPDEST PUSH32 0x56657269666965722E7665726966794B5A473A205F70726F6F662E5820697320 PUSH0 DUP3 ADD MSTORE PUSH32 0x6F7574206F662072616E67650000000000000000000000000000000000000000 PUSH1 0x20 DUP3 ADD MSTORE POP JUMP JUMPDEST PUSH0 PUSH2 0x4A65 PUSH1 0x2C DUP4 PUSH2 0x48DF JUMP JUMPDEST SWAP2 POP PUSH2 0x4A70 DUP3 PUSH2 0x4A0B JUMP JUMPDEST PUSH1 0x40 DUP3 ADD SWAP1 POP SWAP2 SWAP1 POP JUMP JUMPDEST PUSH0 PUSH1 0x20 DUP3 ADD SWAP1 POP DUP2 DUP2 SUB PUSH0 DUP4 ADD MSTORE PUSH2 0x4A92 DUP2 PUSH2 0x4A59 JUMP JUMPDEST SWAP1 POP SWAP2 SWAP1 POP JUMP JUMPDEST PUSH32 0x56657269666965722E7665726966794B5A473A205F70726F6F662E5920697320 PUSH0 DUP3 ADD MSTORE PUSH32 0x6F7574206F662072616E67650000000000000000000000000000000000000000 PUSH1 0x20 DUP3 ADD MSTORE POP JUMP JUMPDEST PUSH0 PUSH2 0x4AF3 PUSH1 0x2C DUP4 PUSH2 0x48DF JUMP JUMPDEST SWAP2 POP PUSH2 0x4AFE DUP3 PUSH2 0x4A99 JUMP JUMPDEST PUSH1 0x40 DUP3 ADD SWAP1 POP SWAP2 SWAP1 POP JUMP JUMPDEST PUSH0 PUSH1 0x20 DUP3 ADD SWAP1 POP DUP2 DUP2 SUB PUSH0 DUP4 ADD MSTORE PUSH2 0x4B20 DUP2 PUSH2 0x4AE7 JUMP JUMPDEST SWAP1 POP SWAP2 SWAP1 POP JUMP JUMPDEST PUSH32 0x4E487B7100000000000000000000000000000000000000000000000000000000 PUSH0 MSTORE PUSH1 0x32 PUSH1 0x4 MSTORE PUSH1 0x24 PUSH0 REVERT JUMPDEST PUSH32 0x56657269666965722E7665726966794B5A473A20685F6E6567617465616C7068 PUSH0 DUP3 ADD MSTORE PUSH32 0x617A2E585B305D206973206F7574206F662072616E6765000000000000000000 PUSH1 0x20 DUP3 ADD MSTORE POP JUMP JUMPDEST PUSH0 PUSH2 0x4BAE PUSH1 0x37 DUP4 PUSH2 0x48DF JUMP JUMPDEST SWAP2 POP PUSH2 0x4BB9 DUP3 PUSH2 0x4B54 JUMP JUMPDEST PUSH1 0x40 DUP3 ADD SWAP1 POP SWAP2 SWAP1 POP JUMP JUMPDEST PUSH0 PUSH1 0x20 DUP3 ADD SWAP1 POP DUP2 DUP2 SUB PUSH0 DUP4 ADD MSTORE PUSH2 0x4BDB DUP2 PUSH2 0x4BA2 JUMP JUMPDEST SWAP1 POP SWAP2 SWAP1 POP JUMP JUMPDEST PUSH32 0x56657269666965722E7665726966794B5A473A20685F6E6567617465616C7068 PUSH0 DUP3 ADD MSTORE PUSH32 0x617A2E595B315D206973206F7574206F662072616E6765000000000000000000 PUSH1 0x20 DUP3 ADD MSTORE POP JUMP JUMPDEST PUSH0 PUSH2 0x4C3C PUSH1 0x37 DUP4 PUSH2 0x48DF JUMP JUMPDEST SWAP2 POP PUSH2 0x4C47 DUP3 PUSH2 0x4BE2 JUMP JUMPDEST PUSH1 0x40 DUP3 ADD SWAP1 POP SWAP2 SWAP1 POP JUMP JUMPDEST PUSH0 PUSH1 0x20 DUP3 ADD SWAP1 POP DUP2 DUP2 SUB PUSH0 DUP4 ADD MSTORE PUSH2 0x4C69 DUP2 PUSH2 0x4C30 JUMP JUMPDEST SWAP1 POP SWAP2 SWAP1 POP JUMP JUMPDEST PUSH32 0x56657269666965722E7665726966794B5A473A20675F6E6167617465312F7A2E PUSH0 DUP3 ADD MSTORE PUSH32 0x58206973206F7574206F662072616E6765000000000000000000000000000000 PUSH1 0x20 DUP3 ADD MSTORE POP JUMP JUMPDEST PUSH0 PUSH2 0x4CCA PUSH1 0x31 DUP4 PUSH2 0x48DF JUMP JUMPDEST SWAP2 POP PUSH2 0x4CD5 DUP3 PUSH2 0x4C70 JUMP JUMPDEST PUSH1 0x40 DUP3 ADD SWAP1 POP SWAP2 SWAP1 POP JUMP JUMPDEST PUSH0 PUSH1 0x20 DUP3 ADD SWAP1 POP DUP2 DUP2 SUB PUSH0 DUP4 ADD MSTORE PUSH2 0x4CF7 DUP2 PUSH2 0x4CBE JUMP JUMPDEST SWAP1 POP SWAP2 SWAP1 POP JUMP JUMPDEST PUSH32 0x56657269666965722E7665726966794B5A473A20675F6E6167617465312F7A2E PUSH0 DUP3 ADD MSTORE PUSH32 0x59206973206F7574206F662072616E6765000000000000000000000000000000 PUSH1 0x20 DUP3 ADD MSTORE POP JUMP JUMPDEST PUSH0 PUSH2 0x4D58 PUSH1 0x31 DUP4 PUSH2 0x48DF JUMP JUMPDEST SWAP2 POP PUSH2 0x4D63 DUP3 PUSH2 0x4CFE JUMP JUMPDEST PUSH1 0x40 DUP3 ADD SWAP1 POP SWAP2 SWAP1 POP JUMP JUMPDEST PUSH0 PUSH1 0x20 DUP3 ADD SWAP1 POP DUP2 DUP2 SUB PUSH0 DUP4 ADD MSTORE PUSH2 0x4D85 DUP2 PUSH2 0x4D4C JUMP JUMPDEST SWAP1 POP SWAP2 SWAP1 POP JUMP JUMPDEST PUSH32 0x56657269666965722E7665726966794B5A473A205F76616C7565206973206F75 PUSH0 DUP3 ADD MSTORE PUSH32 0x74206F662072616E676500000000000000000000000000000000000000000000 PUSH1 0x20 DUP3 ADD MSTORE POP JUMP JUMPDEST PUSH0 PUSH2 0x4DE6 PUSH1 0x2A DUP4 PUSH2 0x48DF JUMP JUMPDEST SWAP2 POP PUSH2 0x4DF1 DUP3 PUSH2 0x4D8C JUMP JUMPDEST PUSH1 0x40 DUP3 ADD SWAP1 POP SWAP2 SWAP1 POP JUMP JUMPDEST PUSH0 PUSH1 0x20 DUP3 ADD SWAP1 POP DUP2 DUP2 SUB PUSH0 DUP4 ADD MSTORE PUSH2 0x4E13 DUP2 PUSH2 0x4DDA JUMP JUMPDEST SWAP1 POP SWAP2 SWAP1 POP JUMP JUMPDEST PUSH32 0x4E487B7100000000000000000000000000000000000000000000000000000000 PUSH0 MSTORE PUSH1 0x12 PUSH1 0x4 MSTORE PUSH1 0x24 PUSH0 REVERT JUMPDEST PUSH32 0x4E487B7100000000000000000000000000000000000000000000000000000000 PUSH0 MSTORE PUSH1 0x11 PUSH1 0x4 MSTORE PUSH1 0x24 PUSH0 REVERT JUMPDEST PUSH0 PUSH2 0x4E7E DUP3 PUSH2 0x3C02 JUMP JUMPDEST SWAP2 POP PUSH2 0x4E89 DUP4 PUSH2 0x3C02 JUMP JUMPDEST SWAP3 POP DUP3 DUP3 SUB SWAP1 POP DUP2 DUP2 GT ISZERO PUSH2 0x4EA1 JUMPI PUSH2 0x4EA0 PUSH2 0x4E47 JUMP JUMPDEST JUMPDEST SWAP3 SWAP2 POP POP JUMP JUMPDEST PUSH0 PUSH2 0x4EB2 DUP3 DUP16 PUSH2 0x47EA JUMP JUMPDEST PUSH1 0x20 DUP3 ADD SWAP2 POP PUSH2 0x4EC2 DUP3 DUP15 PUSH2 0x47EA JUMP JUMPDEST PUSH1 0x20 DUP3 ADD SWAP2 POP PUSH2 0x4ED2 DUP3 DUP14 PUSH2 0x47EA JUMP JUMPDEST PUSH1 0x20 DUP3 ADD SWAP2 POP PUSH2 0x4EE2 DUP3 DUP13 PUSH2 0x47EA JUMP JUMPDEST PUSH1 0x20 DUP3 ADD SWAP2 POP PUSH2 0x4EF2 DUP3 DUP12 PUSH2 0x47EA JUMP JUMPDEST PUSH1 0x20 DUP3 ADD SWAP2 POP PUSH2 0x4F02 DUP3 DUP11 PUSH2 0x47EA JUMP JUMPDEST PUSH1 0x20 DUP3 ADD SWAP2 POP PUSH2 0x4F12 DUP3 DUP10 PUSH2 0x47EA JUMP JUMPDEST PUSH1 0x20 DUP3 ADD SWAP2 POP PUSH2 0x4F22 DUP3 DUP9 PUSH2 0x47EA JUMP JUMPDEST PUSH1 0x20 DUP3 ADD SWAP2 POP PUSH2 0x4F32 DUP3 DUP8 PUSH2 0x47EA JUMP JUMPDEST PUSH1 0x20 DUP3 ADD SWAP2 POP PUSH2 0x4F42 DUP3 DUP7 PUSH2 0x47EA JUMP JUMPDEST PUSH1 0x20 DUP3 ADD SWAP2 POP PUSH2 0x4F52 DUP3 DUP6 PUSH2 0x47EA JUMP JUMPDEST PUSH1 0x20 DUP3 ADD SWAP2 POP PUSH2 0x4F62 DUP3 DUP5 PUSH2 0x47EA JUMP JUMPDEST PUSH1 0x20 DUP3 ADD SWAP2 POP DUP2 SWAP1 POP SWAP14 SWAP13 POP POP POP POP POP POP POP POP POP POP POP POP POP JUMP JUMPDEST PUSH0 PUSH2 0x4F86 DUP3 PUSH2 0x3C02 JUMP JUMPDEST SWAP2 POP PUSH2 0x4F91 DUP4 PUSH2 0x3C02 JUMP JUMPDEST SWAP3 POP DUP3 PUSH2 0x4FA1 JUMPI PUSH2 0x4FA0 PUSH2 0x4E1A JUMP JUMPDEST JUMPDEST DUP3 DUP3 MOD SWAP1 POP SWAP3 SWAP2 POP POP JUMP JUMPDEST PUSH0 PUSH2 0x4FB6 DUP3 PUSH2 0x3C02 JUMP JUMPDEST SWAP2 POP PUSH2 0x4FC1 DUP4 PUSH2 0x3C02 JUMP JUMPDEST SWAP3 POP DUP3 PUSH2 0x4FD1 JUMPI PUSH2 0x4FD0 PUSH2 0x4E1A JUMP JUMPDEST JUMPDEST DUP3 DUP3 DIV SWAP1 POP SWAP3 SWAP2 POP POP JUMP JUMPDEST PUSH32 0x56657269666965722E7665726966794B5A473A205F696E646578206973206F75 PUSH0 DUP3 ADD MSTORE PUSH32 0x74206F662072616E676500000000000000000000000000000000000000000000 PUSH1 0x20 DUP3 ADD MSTORE POP JUMP JUMPDEST PUSH0 PUSH2 0x5036 PUSH1 0x2A DUP4 PUSH2 0x48DF JUMP JUMPDEST SWAP2 POP PUSH2 0x5041 DUP3 PUSH2 0x4FDC JUMP JUMPDEST PUSH1 0x40 DUP3 ADD SWAP1 POP SWAP2 SWAP1 POP JUMP JUMPDEST PUSH0 PUSH1 0x20 DUP3 ADD SWAP1 POP DUP2 DUP2 SUB PUSH0 DUP4 ADD MSTORE PUSH2 0x5063 DUP2 PUSH2 0x502A JUMP JUMPDEST SWAP1 POP SWAP2 SWAP1 POP JUMP JUMPDEST PUSH32 0x70616972696E672D6F70636F64652D6661696C65640000000000000000000000 PUSH0 DUP3 ADD MSTORE POP JUMP JUMPDEST PUSH0 PUSH2 0x509E PUSH1 0x15 DUP4 PUSH2 0x48DF JUMP JUMPDEST SWAP2 POP PUSH2 0x50A9 DUP3 PUSH2 0x506A JUMP JUMPDEST PUSH1 0x20 DUP3 ADD SWAP1 POP SWAP2 SWAP1 POP JUMP JUMPDEST PUSH0 PUSH1 0x20 DUP3 ADD SWAP1 POP DUP2 DUP2 SUB PUSH0 DUP4 ADD MSTORE PUSH2 0x50CB DUP2 PUSH2 0x5092 JUMP JUMPDEST SWAP1 POP SWAP2 SWAP1 POP JUMP JUMPDEST PUSH32 0x70616972696E672D6D756C2D6661696C65640000000000000000000000000000 PUSH0 DUP3 ADD MSTORE POP JUMP JUMPDEST PUSH0 PUSH2 0x5106 PUSH1 0x12 DUP4 PUSH2 0x48DF JUMP JUMPDEST SWAP2 POP PUSH2 0x5111 DUP3 PUSH2 0x50D2 JUMP JUMPDEST PUSH1 0x20 DUP3 ADD SWAP1 POP SWAP2 SWAP1 POP JUMP JUMPDEST PUSH0 PUSH1 0x20 DUP3 ADD SWAP1 POP DUP2 DUP2 SUB PUSH0 DUP4 ADD MSTORE PUSH2 0x5133 DUP2 PUSH2 0x50FA JUMP JUMPDEST SWAP1 POP SWAP2 SWAP1 POP JUMP JUMPDEST PUSH32 0x70616972696E672D6164642D6661696C65640000000000000000000000000000 PUSH0 DUP3 ADD MSTORE POP JUMP JUMPDEST PUSH0 PUSH2 0x516E PUSH1 0x12 DUP4 PUSH2 0x48DF JUMP JUMPDEST SWAP2 POP PUSH2 0x5179 DUP3 PUSH2 0x513A JUMP JUMPDEST PUSH1 0x20 DUP3 ADD SWAP1 POP SWAP2 SWAP1 POP JUMP JUMPDEST PUSH0 PUSH1 0x20 DUP3 ADD SWAP1 POP DUP2 DUP2 SUB PUSH0 DUP4 ADD MSTORE PUSH2 0x519B DUP2 PUSH2 0x5162 JUMP JUMPDEST SWAP1 POP SWAP2 SWAP1 POP JUMP JUMPDEST PUSH0 PUSH2 0x51AC DUP3 PUSH2 0x3C02 JUMP JUMPDEST SWAP2 POP PUSH2 0x51B7 DUP4 PUSH2 0x3C02 JUMP JUMPDEST SWAP3 POP DUP3 DUP3 MUL PUSH2 0x51C5 DUP2 PUSH2 0x3C02 JUMP JUMPDEST SWAP2 POP DUP3 DUP3 DIV DUP5 EQ DUP4 ISZERO OR PUSH2 0x51DC JUMPI PUSH2 0x51DB PUSH2 0x4E47 JUMP JUMPDEST JUMPDEST POP SWAP3 SWAP2 POP POP JUMP JUMPDEST PUSH0 PUSH2 0x51ED DUP3 PUSH2 0x3C02 JUMP JUMPDEST SWAP2 POP PUSH2 0x51F8 DUP4 PUSH2 0x3C02 JUMP JUMPDEST SWAP3 POP DUP3 DUP3 ADD SWAP1 POP DUP1 DUP3 GT ISZERO PUSH2 0x5210 JUMPI PUSH2 0x520F PUSH2 0x4E47 JUMP JUMPDEST JUMPDEST SWAP3 SWAP2 POP POP JUMP JUMPDEST PUSH32 0x4D6F64756C7573206973207A65726F0000000000000000000000000000000000 PUSH0 DUP3 ADD MSTORE POP JUMP JUMPDEST PUSH0 PUSH2 0x524A PUSH1 0xF DUP4 PUSH2 0x48DF JUMP JUMPDEST SWAP2 POP PUSH2 0x5255 DUP3 PUSH2 0x5216 JUMP JUMPDEST PUSH1 0x20 DUP3 ADD SWAP1 POP SWAP2 SWAP1 POP JUMP JUMPDEST PUSH0 PUSH1 0x20 DUP3 ADD SWAP1 POP DUP2 DUP2 SUB PUSH0 DUP4 ADD MSTORE PUSH2 0x5277 DUP2 PUSH2 0x523E JUMP JUMPDEST SWAP1 POP SWAP2 SWAP1 POP JUMP INVALID LOG2 PUSH5 0x6970667358 0x22 SLT KECCAK256 0xBD 0x4A 0xDA 0xAB DUP1 0xE7 0xC4 0x2C BYTE AND DUP16 0xB7 0xDD 0xB1 PUSH27 0x154D086B014F14DFC5F39FEA1C9F962D7764736F6C634300081600 CALLER "
		},
		"gasEstimates": {
			"creation": {
				"codeDepositCost": "4234400",
				"executionCost": "infinite",
				"totalCost": "infinite"
			},
			"external": {
				"KZGVerify((uint256,uint256),(uint256,uint256),uint256,uint256)": "infinite",
				"PVADVerification((((uint256,uint256),(uint256[2],uint256[2]),uint256,uint256,uint256),(uint256,uint256),(uint256,uint256),(uint256,uint256),(uint256,uint256),(uint256,uint256),(uint256,uint256),(uint256,uint256),(uint256,uint256),(uint256,uint256),(uint256,uint256),(uint256,uint256),(uint256,uint256),(uint256,uint256),uint256,uint256,uint256,uint256,uint256,uint256,uint256,uint256,uint256,uint256,uint256,uint256,uint256,(uint256,uint256),(uint256,uint256),(uint256,uint256),(uint256,uint256),(uint256,uint256),(uint256,uint256)))": "infinite",
				"fairnessVerification(((uint256,uint256),(uint256,uint256),(uint256,uint256),(uint256,uint256),(uint256,uint256),(uint256,uint256),(uint256,uint256),(uint256,uint256),(uint256,uint256),(uint256,uint256),uint256,uint256,uint256,uint256,uint256,uint256,uint256,uint256,uint256,uint256,(uint256,uint256),(uint256,uint256),(uint256,uint256),(uint256,uint256),(uint256,uint256),(uint256,uint256)))": "infinite",
				"hashFourG1Points((uint256,uint256),(uint256,uint256),(uint256,uint256),(uint256,uint256))": "infinite",
				"hashFourPoints((uint256,uint256),(uint256[2],uint256[2]),(uint256,uint256),(uint256[2],uint256[2]))": "infinite",
				"hashTwoG1Points((uint256,uint256),(uint256,uint256))": "infinite",
				"kzgSpecialVerification(((uint256,uint256),(uint256,uint256),(uint256[2],uint256[2]),(uint256,uint256),uint256))": "infinite",
				"mulScalar2((uint256[2],uint256[2]),uint256)": "infinite",
				"verifyDmax((uint256,uint256),(uint256,uint256),uint256)": "infinite",
				"zkPoCVerification(((uint256,uint256),(uint256[2],uint256[2]),uint256,uint256,uint256))": "infinite"
			},
			"internal": {
				"SRS_g()": "infinite",
				"add2(struct VerifyPVAD.G2Point memory,struct VerifyPVAD.G2Point memory)": "infinite",
				"addmod2(uint256[2] memory,uint256[2] memory)": "infinite",
				"double(struct VerifyPVAD.G2Point memory)": "infinite",
				"ethMessageHash(string memory)": "infinite",
				"expMod(uint256,uint256,uint256)": "infinite",
				"invmod(uint256)": "infinite",
				"mulScalar(struct VerifyPVAD.G1Point memory,uint256)": "infinite",
				"mulmod2(uint256[2] memory,uint256[2] memory)": "infinite",
				"negate(struct VerifyPVAD.G1Point memory)": "infinite",
				"pairing_2point(struct VerifyPVAD.G1Point memory,struct VerifyPVAD.G2Point memory,struct VerifyPVAD.G1Point memory,struct VerifyPVAD.G2Point memory)": "infinite",
				"pairing_3point(struct VerifyPVAD.G1Point memory,struct VerifyPVAD.G2Point memory,struct VerifyPVAD.G1Point memory,struct VerifyPVAD.G2Point memory,struct VerifyPVAD.G1Point memory,struct VerifyPVAD.G2Point memory)": "infinite",
				"plus(struct VerifyPVAD.G1Point memory,struct VerifyPVAD.G1Point memory)": "infinite",
				"submod(uint256,uint256)": "infinite",
				"submod2(uint256[2] memory,uint256[2] memory)": "infinite"
			}
		},
		"methodIdentifiers": {
			"KZGVerify((uint256,uint256),(uint256,uint256),uint256,uint256)": "fc137deb",
			"PVADVerification((((uint256,uint256),(uint256[2],uint256[2]),uint256,uint256,uint256),(uint256,uint256),(uint256,uint256),(uint256,uint256),(uint256,uint256),(uint256,uint256),(uint256,uint256),(uint256,uint256),(uint256,uint256),(uint256,uint256),(uint256,uint256),(uint256,uint256),(uint256,uint256),(uint256,uint256),uint256,uint256,uint256,uint256,uint256,uint256,uint256,uint256,uint256,uint256,uint256,uint256,uint256,(uint256,uint256),(uint256,uint256),(uint256,uint256),(uint256,uint256),(uint256,uint256),(uint256,uint256)))": "ef3684d2",
			"fairnessVerification(((uint256,uint256),(uint256,uint256),(uint256,uint256),(uint256,uint256),(uint256,uint256),(uint256,uint256),(uint256,uint256),(uint256,uint256),(uint256,uint256),(uint256,uint256),uint256,uint256,uint256,uint256,uint256,uint256,uint256,uint256,uint256,uint256,(uint256,uint256),(uint256,uint256),(uint256,uint256),(uint256,uint256),(uint256,uint256),(uint256,uint256)))": "9e004f54",
			"hashFourG1Points((uint256,uint256),(uint256,uint256),(uint256,uint256),(uint256,uint256))": "34200b14",
			"hashFourPoints((uint256,uint256),(uint256[2],uint256[2]),(uint256,uint256),(uint256[2],uint256[2]))": "bda45338",
			"hashTwoG1Points((uint256,uint256),(uint256,uint256))": "1f96439f",
			"kzgSpecialVerification(((uint256,uint256),(uint256,uint256),(uint256[2],uint256[2]),(uint256,uint256),uint256))": "529fbfd8",
			"mulScalar2((uint256[2],uint256[2]),uint256)": "be603b1a",
			"verifyDmax((uint256,uint256),(uint256,uint256),uint256)": "03d2ae1f",
			"zkPoCVerification(((uint256,uint256),(uint256[2],uint256[2]),uint256,uint256,uint256))": "9388d55f"
		}
	},
	"abi": [
		{
			"inputs": [
				{
					"components": [
						{
							"internalType": "uint256",
							"name": "X",
							"type": "uint256"
						},
						{
							"internalType": "uint256",
							"name": "Y",
							"type": "uint256"
						}
					],
					"internalType": "struct VerifyPVAD.G1Point",
					"name": "_commitment",
					"type": "tuple"
				},
				{
					"components": [
						{
							"internalType": "uint256",
							"name": "X",
							"type": "uint256"
						},
						{
							"internalType": "uint256",
							"name": "Y",
							"type": "uint256"
						}
					],
					"internalType": "struct VerifyPVAD.G1Point",
					"name": "_proof",
					"type": "tuple"
				},
				{
					"internalType": "uint256",
					"name": "_index",
					"type": "uint256"
				},
				{
					"internalType": "uint256",
					"name": "_value",
					"type": "uint256"
				}
			],
			"name": "KZGVerify",
			"outputs": [
				{
					"internalType": "bool",
					"name": "",
					"type": "bool"
				}
			],
			"stateMutability": "view",
			"type": "function"
		},
		{
			"inputs": [
				{
					"components": [
						{
							"components": [
								{
									"components": [
										{
											"internalType": "uint256",
											"name": "X",
											"type": "uint256"
										},
										{
											"internalType": "uint256",
											"name": "Y",
											"type": "uint256"
										}
									],
									"internalType": "struct VerifyPVAD.G1Point",
									"name": "g_one_over_xPrime",
									"type": "tuple"
								},
								{
									"components": [
										{
											"internalType": "uint256[2]",
											"name": "X",
											"type": "uint256[2]"
										},
										{
											"internalType": "uint256[2]",
											"name": "Y",
											"type": "uint256[2]"
										}
									],
									"internalType": "struct VerifyPVAD.G2Point",
									"name": "h_alpha_rPrime",
									"type": "tuple"
								},
								{
									"internalType": "uint256",
									"name": "zx",
									"type": "uint256"
								},
								{
									"internalType": "uint256",
									"name": "zr",
									"type": "uint256"
								},
								{
									"internalType": "uint256",
									"name": "beta",
									"type": "uint256"
								}
							],
							"internalType": "struct VerifyPVAD.zkPoCProof",
							"name": "pi_Z_prime",
							"type": "tuple"
						},
						{
							"components": [
								{
									"internalType": "uint256",
									"name": "X",
									"type": "uint256"
								},
								{
									"internalType": "uint256",
									"name": "Y",
									"type": "uint256"
								}
							],
							"internalType": "struct VerifyPVAD.G1Point",
							"name": "pi_R_tilde",
							"type": "tuple"
						},
						{
							"components": [
								{
									"internalType": "uint256",
									"name": "X",
									"type": "uint256"
								},
								{
									"internalType": "uint256",
									"name": "Y",
									"type": "uint256"
								}
							],
							"internalType": "struct VerifyPVAD.G1Point",
							"name": "pi_R1",
							"type": "tuple"
						},
						{
							"components": [
								{
									"internalType": "uint256",
									"name": "X",
									"type": "uint256"
								},
								{
									"internalType": "uint256",
									"name": "Y",
									"type": "uint256"
								}
							],
							"internalType": "struct VerifyPVAD.G1Point",
							"name": "pi_R2",
							"type": "tuple"
						},
						{
							"components": [
								{
									"internalType": "uint256",
									"name": "X",
									"type": "uint256"
								},
								{
									"internalType": "uint256",
									"name": "Y",
									"type": "uint256"
								}
							],
							"internalType": "struct VerifyPVAD.G1Point",
							"name": "pi_T",
							"type": "tuple"
						},
						{
							"components": [
								{
									"internalType": "uint256",
									"name": "X",
									"type": "uint256"
								},
								{
									"internalType": "uint256",
									"name": "Y",
									"type": "uint256"
								}
							],
							"internalType": "struct VerifyPVAD.G1Point",
							"name": "pi_K",
							"type": "tuple"
						},
						{
							"components": [
								{
									"internalType": "uint256",
									"name": "X",
									"type": "uint256"
								},
								{
									"internalType": "uint256",
									"name": "Y",
									"type": "uint256"
								}
							],
							"internalType": "struct VerifyPVAD.G1Point",
							"name": "pi_S_hat",
							"type": "tuple"
						},
						{
							"components": [
								{
									"internalType": "uint256",
									"name": "X",
									"type": "uint256"
								},
								{
									"internalType": "uint256",
									"name": "Y",
									"type": "uint256"
								}
							],
							"internalType": "struct VerifyPVAD.G1Point",
							"name": "pi_S1",
							"type": "tuple"
						},
						{
							"components": [
								{
									"internalType": "uint256",
									"name": "X",
									"type": "uint256"
								},
								{
									"internalType": "uint256",
									"name": "Y",
									"type": "uint256"
								}
							],
							"internalType": "struct VerifyPVAD.G1Point",
							"name": "pi_S2",
							"type": "tuple"
						},
						{
							"components": [
								{
									"internalType": "uint256",
									"name": "X",
									"type": "uint256"
								},
								{
									"internalType": "uint256",
									"name": "Y",
									"type": "uint256"
								}
							],
							"internalType": "struct VerifyPVAD.G1Point",
							"name": "pi_I_zeta",
							"type": "tuple"
						},
						{
							"components": [
								{
									"internalType": "uint256",
									"name": "X",
									"type": "uint256"
								},
								{
									"internalType": "uint256",
									"name": "Y",
									"type": "uint256"
								}
							],
							"internalType": "struct VerifyPVAD.G1Point",
							"name": "pi_F_zeta",
							"type": "tuple"
						},
						{
							"components": [
								{
									"internalType": "uint256",
									"name": "X",
									"type": "uint256"
								},
								{
									"internalType": "uint256",
									"name": "Y",
									"type": "uint256"
								}
							],
							"internalType": "struct VerifyPVAD.G1Point",
							"name": "pi_O_d_prime",
							"type": "tuple"
						},
						{
							"components": [
								{
									"internalType": "uint256",
									"name": "X",
									"type": "uint256"
								},
								{
									"internalType": "uint256",
									"name": "Y",
									"type": "uint256"
								}
							],
							"internalType": "struct VerifyPVAD.G1Point",
							"name": "pi_O_zeta",
							"type": "tuple"
						},
						{
							"components": [
								{
									"internalType": "uint256",
									"name": "X",
									"type": "uint256"
								},
								{
									"internalType": "uint256",
									"name": "Y",
									"type": "uint256"
								}
							],
							"internalType": "struct VerifyPVAD.G1Point",
							"name": "pi_O_z_prime",
							"type": "tuple"
						},
						{
							"internalType": "uint256",
							"name": "r_tilde",
							"type": "uint256"
						},
						{
							"internalType": "uint256",
							"name": "r_1",
							"type": "uint256"
						},
						{
							"internalType": "uint256",
							"name": "r_2",
							"type": "uint256"
						},
						{
							"internalType": "uint256",
							"name": "t",
							"type": "uint256"
						},
						{
							"internalType": "uint256",
							"name": "k",
							"type": "uint256"
						},
						{
							"internalType": "uint256",
							"name": "s_hat",
							"type": "uint256"
						},
						{
							"internalType": "uint256",
							"name": "s_1",
							"type": "uint256"
						},
						{
							"internalType": "uint256",
							"name": "s_2",
							"type": "uint256"
						},
						{
							"internalType": "uint256",
							"name": "i_zeta",
							"type": "uint256"
						},
						{
							"internalType": "uint256",
							"name": "f_zeta",
							"type": "uint256"
						},
						{
							"internalType": "uint256",
							"name": "o_d_prime",
							"type": "uint256"
						},
						{
							"internalType": "uint256",
							"name": "o_zeta",
							"type": "uint256"
						},
						{
							"internalType": "uint256",
							"name": "o_z_prime",
							"type": "uint256"
						},
						{
							"components": [
								{
									"internalType": "uint256",
									"name": "X",
									"type": "uint256"
								},
								{
									"internalType": "uint256",
									"name": "Y",
									"type": "uint256"
								}
							],
							"internalType": "struct VerifyPVAD.G1Point",
							"name": "R_tilde",
							"type": "tuple"
						},
						{
							"components": [
								{
									"internalType": "uint256",
									"name": "X",
									"type": "uint256"
								},
								{
									"internalType": "uint256",
									"name": "Y",
									"type": "uint256"
								}
							],
							"internalType": "struct VerifyPVAD.G1Point",
							"name": "R",
							"type": "tuple"
						},
						{
							"components": [
								{
									"internalType": "uint256",
									"name": "X",
									"type": "uint256"
								},
								{
									"internalType": "uint256",
									"name": "Y",
									"type": "uint256"
								}
							],
							"internalType": "struct VerifyPVAD.G1Point",
							"name": "T",
							"type": "tuple"
						},
						{
							"components": [
								{
									"internalType": "uint256",
									"name": "X",
									"type": "uint256"
								},
								{
									"internalType": "uint256",
									"name": "Y",
									"type": "uint256"
								}
							],
							"internalType": "struct VerifyPVAD.G1Point",
							"name": "S_x",
							"type": "tuple"
						},
						{
							"components": [
								{
									"internalType": "uint256",
									"name": "X",
									"type": "uint256"
								},
								{
									"internalType": "uint256",
									"name": "Y",
									"type": "uint256"
								}
							],
							"internalType": "struct VerifyPVAD.G1Point",
							"name": "O",
							"type": "tuple"
						},
						{
							"components": [
								{
									"internalType": "uint256",
									"name": "X",
									"type": "uint256"
								},
								{
									"internalType": "uint256",
									"name": "Y",
									"type": "uint256"
								}
							],
							"internalType": "struct VerifyPVAD.G1Point",
							"name": "O_prime",
							"type": "tuple"
						}
					],
					"internalType": "struct VerifyPVAD.DM_Proof",
					"name": "cm",
					"type": "tuple"
				}
			],
			"name": "PVADVerification",
			"outputs": [
				{
					"internalType": "bool",
					"name": "",
					"type": "bool"
				}
			],
			"stateMutability": "view",
			"type": "function"
		},
		{
			"inputs": [
				{
					"components": [
						{
							"components": [
								{
									"internalType": "uint256",
									"name": "X",
									"type": "uint256"
								},
								{
									"internalType": "uint256",
									"name": "Y",
									"type": "uint256"
								}
							],
							"internalType": "struct VerifyPVAD.G1Point",
							"name": "pi_R_tilde",
							"type": "tuple"
						},
						{
							"components": [
								{
									"internalType": "uint256",
									"name": "X",
									"type": "uint256"
								},
								{
									"internalType": "uint256",
									"name": "Y",
									"type": "uint256"
								}
							],
							"internalType": "struct VerifyPVAD.G1Point",
							"name": "pi_R1",
							"type": "tuple"
						},
						{
							"components": [
								{
									"internalType": "uint256",
									"name": "X",
									"type": "uint256"
								},
								{
									"internalType": "uint256",
									"name": "Y",
									"type": "uint256"
								}
							],
							"internalType": "struct VerifyPVAD.G1Point",
							"name": "pi_R2",
							"type": "tuple"
						},
						{
							"components": [
								{
									"internalType": "uint256",
									"name": "X",
									"type": "uint256"
								},
								{
									"internalType": "uint256",
									"name": "Y",
									"type": "uint256"
								}
							],
							"internalType": "struct VerifyPVAD.G1Point",
							"name": "pi_T",
							"type": "tuple"
						},
						{
							"components": [
								{
									"internalType": "uint256",
									"name": "X",
									"type": "uint256"
								},
								{
									"internalType": "uint256",
									"name": "Y",
									"type": "uint256"
								}
							],
							"internalType": "struct VerifyPVAD.G1Point",
							"name": "pi_K",
							"type": "tuple"
						},
						{
							"components": [
								{
									"internalType": "uint256",
									"name": "X",
									"type": "uint256"
								},
								{
									"internalType": "uint256",
									"name": "Y",
									"type": "uint256"
								}
							],
							"internalType": "struct VerifyPVAD.G1Point",
							"name": "pi_S_hat",
							"type": "tuple"
						},
						{
							"components": [
								{
									"internalType": "uint256",
									"name": "X",
									"type": "uint256"
								},
								{
									"internalType": "uint256",
									"name": "Y",
									"type": "uint256"
								}
							],
							"internalType": "struct VerifyPVAD.G1Point",
							"name": "pi_S1",
							"type": "tuple"
						},
						{
							"components": [
								{
									"internalType": "uint256",
									"name": "X",
									"type": "uint256"
								},
								{
									"internalType": "uint256",
									"name": "Y",
									"type": "uint256"
								}
							],
							"internalType": "struct VerifyPVAD.G1Point",
							"name": "pi_S2",
							"type": "tuple"
						},
						{
							"components": [
								{
									"internalType": "uint256",
									"name": "X",
									"type": "uint256"
								},
								{
									"internalType": "uint256",
									"name": "Y",
									"type": "uint256"
								}
							],
							"internalType": "struct VerifyPVAD.G1Point",
							"name": "pi_I",
							"type": "tuple"
						},
						{
							"components": [
								{
									"internalType": "uint256",
									"name": "X",
									"type": "uint256"
								},
								{
									"internalType": "uint256",
									"name": "Y",
									"type": "uint256"
								}
							],
							"internalType": "struct VerifyPVAD.G1Point",
							"name": "pi_O",
							"type": "tuple"
						},
						{
							"internalType": "uint256",
							"name": "r_tilde",
							"type": "uint256"
						},
						{
							"internalType": "uint256",
							"name": "r_1",
							"type": "uint256"
						},
						{
							"internalType": "uint256",
							"name": "r_2",
							"type": "uint256"
						},
						{
							"internalType": "uint256",
							"name": "t",
							"type": "uint256"
						},
						{
							"internalType": "uint256",
							"name": "k",
							"type": "uint256"
						},
						{
							"internalType": "uint256",
							"name": "s_hat",
							"type": "uint256"
						},
						{
							"internalType": "uint256",
							"name": "s_1",
							"type": "uint256"
						},
						{
							"internalType": "uint256",
							"name": "s_2",
							"type": "uint256"
						},
						{
							"internalType": "uint256",
							"name": "i",
							"type": "uint256"
						},
						{
							"internalType": "uint256",
							"name": "o",
							"type": "uint256"
						},
						{
							"components": [
								{
									"internalType": "uint256",
									"name": "X",
									"type": "uint256"
								},
								{
									"internalType": "uint256",
									"name": "Y",
									"type": "uint256"
								}
							],
							"internalType": "struct VerifyPVAD.G1Point",
							"name": "R_tilde",
							"type": "tuple"
						},
						{
							"components": [
								{
									"internalType": "uint256",
									"name": "X",
									"type": "uint256"
								},
								{
									"internalType": "uint256",
									"name": "Y",
									"type": "uint256"
								}
							],
							"internalType": "struct VerifyPVAD.G1Point",
							"name": "R",
							"type": "tuple"
						},
						{
							"components": [
								{
									"internalType": "uint256",
									"name": "X",
									"type": "uint256"
								},
								{
									"internalType": "uint256",
									"name": "Y",
									"type": "uint256"
								}
							],
							"internalType": "struct VerifyPVAD.G1Point",
							"name": "T",
							"type": "tuple"
						},
						{
							"components": [
								{
									"internalType": "uint256",
									"name": "X",
									"type": "uint256"
								},
								{
									"internalType": "uint256",
									"name": "Y",
									"type": "uint256"
								}
							],
							"internalType": "struct VerifyPVAD.G1Point",
							"name": "S_x",
							"type": "tuple"
						},
						{
							"components": [
								{
									"internalType": "uint256",
									"name": "X",
									"type": "uint256"
								},
								{
									"internalType": "uint256",
									"name": "Y",
									"type": "uint256"
								}
							],
							"internalType": "struct VerifyPVAD.G1Point",
							"name": "I",
							"type": "tuple"
						},
						{
							"components": [
								{
									"internalType": "uint256",
									"name": "X",
									"type": "uint256"
								},
								{
									"internalType": "uint256",
									"name": "Y",
									"type": "uint256"
								}
							],
							"internalType": "struct VerifyPVAD.G1Point",
							"name": "O",
							"type": "tuple"
						}
					],
					"internalType": "struct VerifyPVAD.fairness_Proof",
					"name": "cm",
					"type": "tuple"
				}
			],
			"name": "fairnessVerification",
			"outputs": [
				{
					"internalType": "bool",
					"name": "",
					"type": "bool"
				}
			],
			"stateMutability": "view",
			"type": "function"
		},
		{
			"inputs": [
				{
					"components": [
						{
							"internalType": "uint256",
							"name": "X",
							"type": "uint256"
						},
						{
							"internalType": "uint256",
							"name": "Y",
							"type": "uint256"
						}
					],
					"internalType": "struct VerifyPVAD.G1Point",
					"name": "p1",
					"type": "tuple"
				},
				{
					"components": [
						{
							"internalType": "uint256",
							"name": "X",
							"type": "uint256"
						},
						{
							"internalType": "uint256",
							"name": "Y",
							"type": "uint256"
						}
					],
					"internalType": "struct VerifyPVAD.G1Point",
					"name": "p2",
					"type": "tuple"
				},
				{
					"components": [
						{
							"internalType": "uint256",
							"name": "X",
							"type": "uint256"
						},
						{
							"internalType": "uint256",
							"name": "Y",
							"type": "uint256"
						}
					],
					"internalType": "struct VerifyPVAD.G1Point",
					"name": "p3",
					"type": "tuple"
				},
				{
					"components": [
						{
							"internalType": "uint256",
							"name": "X",
							"type": "uint256"
						},
						{
							"internalType": "uint256",
							"name": "Y",
							"type": "uint256"
						}
					],
					"internalType": "struct VerifyPVAD.G1Point",
					"name": "p4",
					"type": "tuple"
				}
			],
			"name": "hashFourG1Points",
			"outputs": [
				{
					"internalType": "bytes32",
					"name": "",
					"type": "bytes32"
				}
			],
			"stateMutability": "pure",
			"type": "function"
		},
		{
			"inputs": [
				{
					"components": [
						{
							"internalType": "uint256",
							"name": "X",
							"type": "uint256"
						},
						{
							"internalType": "uint256",
							"name": "Y",
							"type": "uint256"
						}
					],
					"internalType": "struct VerifyPVAD.G1Point",
					"name": "a",
					"type": "tuple"
				},
				{
					"components": [
						{
							"internalType": "uint256[2]",
							"name": "X",
							"type": "uint256[2]"
						},
						{
							"internalType": "uint256[2]",
							"name": "Y",
							"type": "uint256[2]"
						}
					],
					"internalType": "struct VerifyPVAD.G2Point",
					"name": "b",
					"type": "tuple"
				},
				{
					"components": [
						{
							"internalType": "uint256",
							"name": "X",
							"type": "uint256"
						},
						{
							"internalType": "uint256",
							"name": "Y",
							"type": "uint256"
						}
					],
					"internalType": "struct VerifyPVAD.G1Point",
					"name": "c",
					"type": "tuple"
				},
				{
					"components": [
						{
							"internalType": "uint256[2]",
							"name": "X",
							"type": "uint256[2]"
						},
						{
							"internalType": "uint256[2]",
							"name": "Y",
							"type": "uint256[2]"
						}
					],
					"internalType": "struct VerifyPVAD.G2Point",
					"name": "d",
					"type": "tuple"
				}
			],
			"name": "hashFourPoints",
			"outputs": [
				{
					"internalType": "bytes32",
					"name": "",
					"type": "bytes32"
				}
			],
			"stateMutability": "pure",
			"type": "function"
		},
		{
			"inputs": [
				{
					"components": [
						{
							"internalType": "uint256",
							"name": "X",
							"type": "uint256"
						},
						{
							"internalType": "uint256",
							"name": "Y",
							"type": "uint256"
						}
					],
					"internalType": "struct VerifyPVAD.G1Point",
					"name": "p1",
					"type": "tuple"
				},
				{
					"components": [
						{
							"internalType": "uint256",
							"name": "X",
							"type": "uint256"
						},
						{
							"internalType": "uint256",
							"name": "Y",
							"type": "uint256"
						}
					],
					"internalType": "struct VerifyPVAD.G1Point",
					"name": "p2",
					"type": "tuple"
				}
			],
			"name": "hashTwoG1Points",
			"outputs": [
				{
					"internalType": "bytes32",
					"name": "",
					"type": "bytes32"
				}
			],
			"stateMutability": "pure",
			"type": "function"
		},
		{
			"inputs": [
				{
					"components": [
						{
							"components": [
								{
									"internalType": "uint256",
									"name": "X",
									"type": "uint256"
								},
								{
									"internalType": "uint256",
									"name": "Y",
									"type": "uint256"
								}
							],
							"internalType": "struct VerifyPVAD.G1Point",
							"name": "_commitment",
							"type": "tuple"
						},
						{
							"components": [
								{
									"internalType": "uint256",
									"name": "X",
									"type": "uint256"
								},
								{
									"internalType": "uint256",
									"name": "Y",
									"type": "uint256"
								}
							],
							"internalType": "struct VerifyPVAD.G1Point",
							"name": "_proof",
							"type": "tuple"
						},
						{
							"components": [
								{
									"internalType": "uint256[2]",
									"name": "X",
									"type": "uint256[2]"
								},
								{
									"internalType": "uint256[2]",
									"name": "Y",
									"type": "uint256[2]"
								}
							],
							"internalType": "struct VerifyPVAD.G2Point",
							"name": "h_negatealphaz",
							"type": "tuple"
						},
						{
							"components": [
								{
									"internalType": "uint256",
									"name": "X",
									"type": "uint256"
								},
								{
									"internalType": "uint256",
									"name": "Y",
									"type": "uint256"
								}
							],
							"internalType": "struct VerifyPVAD.G1Point",
							"name": "_index",
							"type": "tuple"
						},
						{
							"internalType": "uint256",
							"name": "_value",
							"type": "uint256"
						}
					],
					"internalType": "struct VerifyPVAD.specialProof",
					"name": "cm",
					"type": "tuple"
				}
			],
			"name": "kzgSpecialVerification",
			"outputs": [
				{
					"internalType": "bool",
					"name": "",
					"type": "bool"
				}
			],
			"stateMutability": "view",
			"type": "function"
		},
		{
			"inputs": [
				{
					"components": [
						{
							"internalType": "uint256[2]",
							"name": "X",
							"type": "uint256[2]"
						},
						{
							"internalType": "uint256[2]",
							"name": "Y",
							"type": "uint256[2]"
						}
					],
					"internalType": "struct VerifyPVAD.G2Point",
					"name": "p",
					"type": "tuple"
				},
				{
					"internalType": "uint256",
					"name": "s",
					"type": "uint256"
				}
			],
			"name": "mulScalar2",
			"outputs": [
				{
					"components": [
						{
							"internalType": "uint256[2]",
							"name": "X",
							"type": "uint256[2]"
						},
						{
							"internalType": "uint256[2]",
							"name": "Y",
							"type": "uint256[2]"
						}
					],
					"internalType": "struct VerifyPVAD.G2Point",
					"name": "",
					"type": "tuple"
				}
			],
			"stateMutability": "view",
			"type": "function"
		},
		{
			"inputs": [
				{
					"components": [
						{
							"internalType": "uint256",
							"name": "X",
							"type": "uint256"
						},
						{
							"internalType": "uint256",
							"name": "Y",
							"type": "uint256"
						}
					],
					"internalType": "struct VerifyPVAD.G1Point",
					"name": "F1",
					"type": "tuple"
				},
				{
					"components": [
						{
							"internalType": "uint256",
							"name": "X",
							"type": "uint256"
						},
						{
							"internalType": "uint256",
							"name": "Y",
							"type": "uint256"
						}
					],
					"internalType": "struct VerifyPVAD.G1Point",
					"name": "F2",
					"type": "tuple"
				},
				{
					"internalType": "uint256",
					"name": "d_minus_m",
					"type": "uint256"
				}
			],
			"name": "verifyDmax",
			"outputs": [
				{
					"internalType": "bool",
					"name": "",
					"type": "bool"
				}
			],
			"stateMutability": "view",
			"type": "function"
		},
		{
			"inputs": [
				{
					"components": [
						{
							"components": [
								{
									"internalType": "uint256",
									"name": "X",
									"type": "uint256"
								},
								{
									"internalType": "uint256",
									"name": "Y",
									"type": "uint256"
								}
							],
							"internalType": "struct VerifyPVAD.G1Point",
							"name": "g_one_over_xPrime",
							"type": "tuple"
						},
						{
							"components": [
								{
									"internalType": "uint256[2]",
									"name": "X",
									"type": "uint256[2]"
								},
								{
									"internalType": "uint256[2]",
									"name": "Y",
									"type": "uint256[2]"
								}
							],
							"internalType": "struct VerifyPVAD.G2Point",
							"name": "h_alpha_rPrime",
							"type": "tuple"
						},
						{
							"internalType": "uint256",
							"name": "zx",
							"type": "uint256"
						},
						{
							"internalType": "uint256",
							"name": "zr",
							"type": "uint256"
						},
						{
							"internalType": "uint256",
							"name": "beta",
							"type": "uint256"
						}
					],
					"internalType": "struct VerifyPVAD.zkPoCProof",
					"name": "proof",
					"type": "tuple"
				}
			],
			"name": "zkPoCVerification",
			"outputs": [
				{
					"internalType": "bool",
					"name": "",
					"type": "bool"
				}
			],
			"stateMutability": "view",
			"type": "function"
		}
	]
}